{
	"contracts/HatToken.sol": {
		"HatToken": {
			"abi": [
				{
					"inputs": [],
					"stateMutability": "nonpayable",
					"type": "constructor"
				},
				{
					"anonymous": false,
					"inputs": [
						{
							"indexed": true,
							"internalType": "address",
							"name": "owner",
							"type": "address"
						},
						{
							"indexed": true,
							"internalType": "address",
							"name": "spender",
							"type": "address"
						},
						{
							"indexed": false,
							"internalType": "uint256",
							"name": "value",
							"type": "uint256"
						}
					],
					"name": "Approval",
					"type": "event"
				},
				{
					"anonymous": false,
					"inputs": [
						{
							"indexed": true,
							"internalType": "address",
							"name": "previousOwner",
							"type": "address"
						},
						{
							"indexed": true,
							"internalType": "address",
							"name": "newOwner",
							"type": "address"
						}
					],
					"name": "OwnershipTransferred",
					"type": "event"
				},
				{
					"anonymous": false,
					"inputs": [
						{
							"indexed": true,
							"internalType": "address",
							"name": "from",
							"type": "address"
						},
						{
							"indexed": true,
							"internalType": "address",
							"name": "to",
							"type": "address"
						},
						{
							"indexed": false,
							"internalType": "uint256",
							"name": "value",
							"type": "uint256"
						}
					],
					"name": "Transfer",
					"type": "event"
				},
				{
					"inputs": [],
					"name": "DECIMALS",
					"outputs": [
						{
							"internalType": "uint8",
							"name": "",
							"type": "uint8"
						}
					],
					"stateMutability": "view",
					"type": "function"
				},
				{
					"inputs": [],
					"name": "DECIMAL_MULTIPLIER",
					"outputs": [
						{
							"internalType": "uint256",
							"name": "",
							"type": "uint256"
						}
					],
					"stateMutability": "view",
					"type": "function"
				},
				{
					"inputs": [
						{
							"internalType": "address",
							"name": "owner",
							"type": "address"
						},
						{
							"internalType": "address",
							"name": "spender",
							"type": "address"
						}
					],
					"name": "allowance",
					"outputs": [
						{
							"internalType": "uint256",
							"name": "",
							"type": "uint256"
						}
					],
					"stateMutability": "view",
					"type": "function"
				},
				{
					"inputs": [
						{
							"internalType": "address",
							"name": "spender",
							"type": "address"
						},
						{
							"internalType": "uint256",
							"name": "amount",
							"type": "uint256"
						}
					],
					"name": "approve",
					"outputs": [
						{
							"internalType": "bool",
							"name": "",
							"type": "bool"
						}
					],
					"stateMutability": "nonpayable",
					"type": "function"
				},
				{
					"inputs": [
						{
							"internalType": "address",
							"name": "account",
							"type": "address"
						}
					],
					"name": "balanceOf",
					"outputs": [
						{
							"internalType": "uint256",
							"name": "",
							"type": "uint256"
						}
					],
					"stateMutability": "view",
					"type": "function"
				},
				{
					"inputs": [],
					"name": "decimals",
					"outputs": [
						{
							"internalType": "uint8",
							"name": "",
							"type": "uint8"
						}
					],
					"stateMutability": "pure",
					"type": "function"
				},
				{
					"inputs": [
						{
							"internalType": "address",
							"name": "spender",
							"type": "address"
						},
						{
							"internalType": "uint256",
							"name": "subtractedValue",
							"type": "uint256"
						}
					],
					"name": "decreaseAllowance",
					"outputs": [
						{
							"internalType": "bool",
							"name": "",
							"type": "bool"
						}
					],
					"stateMutability": "nonpayable",
					"type": "function"
				},
				{
					"inputs": [],
					"name": "getOwner",
					"outputs": [
						{
							"internalType": "address",
							"name": "",
							"type": "address"
						}
					],
					"stateMutability": "view",
					"type": "function"
				},
				{
					"inputs": [
						{
							"internalType": "address",
							"name": "spender",
							"type": "address"
						},
						{
							"internalType": "uint256",
							"name": "addedValue",
							"type": "uint256"
						}
					],
					"name": "increaseAllowance",
					"outputs": [
						{
							"internalType": "bool",
							"name": "",
							"type": "bool"
						}
					],
					"stateMutability": "nonpayable",
					"type": "function"
				},
				{
					"inputs": [
						{
							"internalType": "uint256",
							"name": "amount",
							"type": "uint256"
						}
					],
					"name": "mint",
					"outputs": [
						{
							"internalType": "bool",
							"name": "",
							"type": "bool"
						}
					],
					"stateMutability": "nonpayable",
					"type": "function"
				},
				{
					"inputs": [],
					"name": "name",
					"outputs": [
						{
							"internalType": "string",
							"name": "",
							"type": "string"
						}
					],
					"stateMutability": "view",
					"type": "function"
				},
				{
					"inputs": [],
					"name": "owner",
					"outputs": [
						{
							"internalType": "address",
							"name": "",
							"type": "address"
						}
					],
					"stateMutability": "view",
					"type": "function"
				},
				{
					"inputs": [],
					"name": "renounceOwnership",
					"outputs": [],
					"stateMutability": "nonpayable",
					"type": "function"
				},
				{
					"inputs": [],
					"name": "symbol",
					"outputs": [
						{
							"internalType": "string",
							"name": "",
							"type": "string"
						}
					],
					"stateMutability": "view",
					"type": "function"
				},
				{
					"inputs": [],
					"name": "totalSupply",
					"outputs": [
						{
							"internalType": "uint256",
							"name": "",
							"type": "uint256"
						}
					],
					"stateMutability": "view",
					"type": "function"
				},
				{
					"inputs": [
						{
							"internalType": "address",
							"name": "recipient",
							"type": "address"
						},
						{
							"internalType": "uint256",
							"name": "amount",
							"type": "uint256"
						}
					],
					"name": "transfer",
					"outputs": [
						{
							"internalType": "bool",
							"name": "",
							"type": "bool"
						}
					],
					"stateMutability": "nonpayable",
					"type": "function"
				},
				{
					"inputs": [
						{
							"internalType": "address",
							"name": "sender",
							"type": "address"
						},
						{
							"internalType": "address",
							"name": "recipient",
							"type": "address"
						},
						{
							"internalType": "uint256",
							"name": "amount",
							"type": "uint256"
						}
					],
					"name": "transferFrom",
					"outputs": [
						{
							"internalType": "bool",
							"name": "",
							"type": "bool"
						}
					],
					"stateMutability": "nonpayable",
					"type": "function"
				},
				{
					"inputs": [
						{
							"internalType": "address",
							"name": "newOwner",
							"type": "address"
						}
					],
					"name": "transferOwnership",
					"outputs": [],
					"stateMutability": "nonpayable",
					"type": "function"
				}
			],
			"devdoc": {
				"kind": "dev",
				"methods": {
					"allowance(address,address)": {
						"details": "See {BEP20-allowance}."
					},
					"approve(address,uint256)": {
						"details": "See {BEP20-approve}. Requirements: - `spender` cannot be the zero address."
					},
					"balanceOf(address)": {
						"details": "See {BEP20-balanceOf}."
					},
					"decimals()": {
						"details": "Returns the token decimals."
					},
					"decreaseAllowance(address,uint256)": {
						"details": "Atomically decreases the allowance granted to `spender` by the caller. This is an alternative to {approve} that can be used as a mitigation for problems described in {BEP20-approve}. Emits an {Approval} event indicating the updated allowance. Requirements: - `spender` cannot be the zero address. - `spender` must have allowance for the caller of at least `subtractedValue`."
					},
					"getOwner()": {
						"details": "Returns the bep token owner."
					},
					"increaseAllowance(address,uint256)": {
						"details": "Atomically increases the allowance granted to `spender` by the caller. This is an alternative to {approve} that can be used as a mitigation for problems described in {BEP20-approve}. Emits an {Approval} event indicating the updated allowance. Requirements: - `spender` cannot be the zero address."
					},
					"mint(uint256)": {
						"details": "Creates `amount` tokens and assigns them to `msg.sender`, increasing the total supply. Requirements - `msg.sender` must be the token owner"
					},
					"name()": {
						"details": "Returns the token name."
					},
					"owner()": {
						"details": "Returns the address of the current owner."
					},
					"renounceOwnership()": {
						"details": "Leaves the contract without owner. It will not be possible to call `onlyOwner` functions anymore. Can only be called by the current owner. NOTE: Renouncing ownership will leave the contract without an owner, thereby removing any functionality that is only available to the owner."
					},
					"symbol()": {
						"details": "Returns the token symbol."
					},
					"totalSupply()": {
						"details": "See {BEP20-totalSupply}."
					},
					"transfer(address,uint256)": {
						"details": "See {BEP20-transfer}. Requirements: - `recipient` cannot be the zero address. - the caller must have a balance of at least `amount`."
					},
					"transferFrom(address,address,uint256)": {
						"details": "See {BEP20-transferFrom}. Emits an {Approval} event indicating the updated allowance. This is not required by the EIP. See the note at the beginning of {BEP20}; Requirements: - `sender` and `recipient` cannot be the zero address. - `sender` must have a balance of at least `amount`. - the caller must have allowance for `sender`'s tokens of at least `amount`."
					},
					"transferOwnership(address)": {
						"details": "Transfers ownership of the contract to a new account (`newOwner`). Can only be called by the current owner."
					}
				},
				"version": 1
			},
			"evm": {
				"assembly": "    /* \"contracts/HatToken.sol\":257:9297  contract HatToken is Context, IBEP20, Ownable {... */\n  mstore(0x40, 0x80)\n    /* \"contracts/HatToken.sol\":674:931  constructor() {... */\n  callvalue\n  dup1\n  iszero\n  tag_1\n  jumpi\n  0x00\n  dup1\n  revert\ntag_1:\n  pop\n    /* \"@openzeppelin/contracts/access/Ownable.sol\":921:953  _transferOwnership(_msgSender()) */\n  tag_5\n    /* \"@openzeppelin/contracts/utils/Context.sol\":719:729  msg.sender */\n  caller\n    /* \"@openzeppelin/contracts/access/Ownable.sol\":921:939  _transferOwnership */\n  tag_8\n    /* \"@openzeppelin/contracts/access/Ownable.sol\":921:953  _transferOwnership(_msgSender()) */\n  jump\t// in\ntag_5:\n    /* \"contracts/HatToken.sol\":699:726  _name = \"Hero Awaken Token\" */\n  0x40\n  dup1\n  mload\n  dup1\n  dup3\n  add\n  swap1\n  swap2\n  mstore\n  0x11\n  dup1\n  dup3\n  mstore\n  shl(0x79, 0x2432b9379020bbb0b5b2b7102a37b5b2b7)\n  0x20\n  swap1\n  swap3\n  add\n  swap2\n  dup3\n  mstore\n  tag_10\n  swap2\n    /* \"contracts/HatToken.sol\":699:704  _name */\n  0x03\n  swap2\n    /* \"contracts/HatToken.sol\":699:726  _name = \"Hero Awaken Token\" */\n  tag_11\n  jump\t// in\ntag_10:\n  pop\n    /* \"contracts/HatToken.sol\":737:752  _symbol = \"HAT\" */\n  0x40\n  dup1\n  mload\n  dup1\n  dup3\n  add\n  swap1\n  swap2\n  mstore\n  0x03\n  dup1\n  dup3\n  mstore\n  shl(0xea, 0x121055)\n  0x20\n  swap1\n  swap3\n  add\n  swap2\n  dup3\n  mstore\n  tag_12\n  swap2\n    /* \"contracts/HatToken.sol\":737:744  _symbol */\n  0x04\n  swap2\n    /* \"contracts/HatToken.sol\":737:752  _symbol = \"HAT\" */\n  tag_11\n  jump\t// in\ntag_12:\n  pop\n    /* \"contracts/HatToken.sol\":432:444  10**DECIMALS */\n  tag_13\n    /* \"contracts/HatToken.sol\":378:380  18 */\n  0x12\n    /* \"contracts/HatToken.sol\":432:434  10 */\n  0x0a\n    /* \"contracts/HatToken.sol\":432:444  10**DECIMALS */\n  tag_14\n  jump\t// in\ntag_13:\n    /* \"contracts/HatToken.sol\":780:808  (10**9) * DECIMAL_MULTIPLIER */\n  tag_15\n  swap1\n    /* \"contracts/HatToken.sol\":781:786  10**9 */\n  0x3b9aca00\n    /* \"contracts/HatToken.sol\":780:808  (10**9) * DECIMAL_MULTIPLIER */\n  tag_16\n  jump\t// in\ntag_15:\n    /* \"contracts/HatToken.sol\":765:777  _totalSupply */\n  0x05\n    /* \"contracts/HatToken.sol\":765:808  _totalSupply = (10**9) * DECIMAL_MULTIPLIER */\n  dup2\n  swap1\n  sstore\n    /* \"@openzeppelin/contracts/utils/Context.sol\":719:729  msg.sender */\n  caller\n    /* \"contracts/HatToken.sol\":819:842  _balances[_msgSender()] */\n  0x00\n  dup2\n  dup2\n  mstore\n    /* \"contracts/HatToken.sol\":819:828  _balances */\n  0x01\n    /* \"contracts/HatToken.sol\":819:842  _balances[_msgSender()] */\n  0x20\n  swap1\n  dup2\n  mstore\n  0x40\n  dup1\n  dup4\n  keccak256\n    /* \"contracts/HatToken.sol\":819:857  _balances[_msgSender()] = _totalSupply */\n  dup6\n  swap1\n  sstore\n    /* \"contracts/HatToken.sol\":875:923  Transfer(address(0), _msgSender(), _totalSupply) */\n  mload\n    /* \"#utility.yul\":1848:1873   */\n  swap4\n  dup5\n  mstore\n    /* \"@openzeppelin/contracts/utils/Context.sol\":719:729  msg.sender */\n  swap2\n  swap3\n    /* \"contracts/HatToken.sol\":819:842  _balances[_msgSender()] */\n  swap1\n  swap2\n    /* \"contracts/HatToken.sol\":875:923  Transfer(address(0), _msgSender(), _totalSupply) */\n  0xddf252ad1be2c89b69c2b068fc378daa952ba7f163c4a11628f55a4df523b3ef\n  swap2\n    /* \"#utility.yul\":1821:1839   */\n  add\n    /* \"contracts/HatToken.sol\":875:923  Transfer(address(0), _msgSender(), _totalSupply) */\n  mload(0x40)\n  dup1\n  swap2\n  sub\n  swap1\n  log3\n    /* \"contracts/HatToken.sol\":257:9297  contract HatToken is Context, IBEP20, Ownable {... */\n  jump(tag_38)\n    /* \"@openzeppelin/contracts/access/Ownable.sol\":2270:2457  function _transferOwnership(address newOwner) internal virtual {... */\ntag_8:\n    /* \"@openzeppelin/contracts/access/Ownable.sol\":2343:2359  address oldOwner */\n  0x00\n    /* \"@openzeppelin/contracts/access/Ownable.sol\":2362:2368  _owner */\n  dup1\n  sload\n  sub(shl(0xa0, 0x01), 0x01)\n    /* \"@openzeppelin/contracts/access/Ownable.sol\":2378:2395  _owner = newOwner */\n  dup4\n  dup2\n  and\n  not(sub(shl(0xa0, 0x01), 0x01))\n  dup4\n  and\n  dup2\n  or\n  dup5\n  sstore\n    /* \"@openzeppelin/contracts/access/Ownable.sol\":2410:2450  OwnershipTransferred(oldOwner, newOwner) */\n  mload(0x40)\n    /* \"@openzeppelin/contracts/access/Ownable.sol\":2362:2368  _owner */\n  swap2\n  swap1\n  swap3\n  and\n  swap3\n  dup4\n  swap2\n    /* \"@openzeppelin/contracts/access/Ownable.sol\":2410:2450  OwnershipTransferred(oldOwner, newOwner) */\n  0x8be0079c531659141344cd1fd0a4f28419497f9722a3daafe3b4186f6b6457e0\n  swap2\n    /* \"@openzeppelin/contracts/access/Ownable.sol\":2343:2359  address oldOwner */\n  swap1\n    /* \"@openzeppelin/contracts/access/Ownable.sol\":2410:2450  OwnershipTransferred(oldOwner, newOwner) */\n  log3\n    /* \"@openzeppelin/contracts/access/Ownable.sol\":2333:2457  {... */\n  pop\n    /* \"@openzeppelin/contracts/access/Ownable.sol\":2270:2457  function _transferOwnership(address newOwner) internal virtual {... */\n  pop\n  jump\t// out\n    /* \"contracts/HatToken.sol\":257:9297  contract HatToken is Context, IBEP20, Ownable {... */\ntag_11:\n  dup3\n  dup1\n  sload\n  tag_24\n  swap1\n  tag_25\n  jump\t// in\ntag_24:\n  swap1\n  0x00\n  mstore\n  keccak256(0x00, 0x20)\n  swap1\n  0x1f\n  add\n  0x20\n  swap1\n  div\n  dup2\n  add\n  swap3\n  dup3\n  tag_27\n  jumpi\n  0x00\n  dup6\n  sstore\n  jump(tag_30)\ntag_27:\n  dup3\n  0x1f\n  lt\n  tag_28\n  jumpi\n  dup1\n  mload\n  not(0xff)\n  and\n  dup4\n  dup1\n  add\n  or\n  dup6\n  sstore\n  jump(tag_30)\ntag_28:\n  dup3\n  dup1\n  add\n  0x01\n  add\n  dup6\n  sstore\n  dup3\n  iszero\n  tag_30\n  jumpi\n  swap2\n  dup3\n  add\ntag_29:\n  dup3\n  dup2\n  gt\n  iszero\n  tag_30\n  jumpi\n  dup3\n  mload\n  dup3\n  sstore\n  swap2\n  0x20\n  add\n  swap2\n  swap1\n  0x01\n  add\n  swap1\n  jump(tag_29)\ntag_30:\n  pop\n  tag_31\n  swap3\n  swap2\n  pop\n  tag_32\n  jump\t// in\ntag_31:\n  pop\n  swap1\n  jump\t// out\ntag_32:\ntag_33:\n  dup1\n  dup3\n  gt\n  iszero\n  tag_31\n  jumpi\n  0x00\n  dup2\n  sstore\n  0x01\n  add\n  jump(tag_33)\n    /* \"#utility.yul\":14:141   */\ntag_35:\n    /* \"#utility.yul\":75:85   */\n  0x4e487b71\n    /* \"#utility.yul\":70:73   */\n  0xe0\n    /* \"#utility.yul\":66:86   */\n  shl\n    /* \"#utility.yul\":63:64   */\n  0x00\n    /* \"#utility.yul\":56:87   */\n  mstore\n    /* \"#utility.yul\":106:110   */\n  0x11\n    /* \"#utility.yul\":103:104   */\n  0x04\n    /* \"#utility.yul\":96:111   */\n  mstore\n    /* \"#utility.yul\":130:134   */\n  0x24\n    /* \"#utility.yul\":127:128   */\n  0x00\n    /* \"#utility.yul\":120:135   */\n  revert\n    /* \"#utility.yul\":146:568   */\ntag_36:\n    /* \"#utility.yul\":235:236   */\n  0x01\n    /* \"#utility.yul\":278:283   */\n  dup2\n    /* \"#utility.yul\":235:236   */\n  dup2\n    /* \"#utility.yul\":292:562   */\ntag_41:\n    /* \"#utility.yul\":313:320   */\n  dup1\n    /* \"#utility.yul\":303:311   */\n  dup6\n    /* \"#utility.yul\":300:321   */\n  gt\n    /* \"#utility.yul\":292:562   */\n  iszero\n  tag_43\n  jumpi\n    /* \"#utility.yul\":372:376   */\n  dup2\n    /* \"#utility.yul\":368:369   */\n  0x00\n    /* \"#utility.yul\":364:370   */\n  not\n    /* \"#utility.yul\":360:377   */\n  div\n    /* \"#utility.yul\":354:358   */\n  dup3\n    /* \"#utility.yul\":351:378   */\n  gt\n    /* \"#utility.yul\":348:401   */\n  iszero\n  tag_45\n  jumpi\n    /* \"#utility.yul\":381:399   */\n  tag_45\n  tag_35\n  jump\t// in\ntag_45:\n    /* \"#utility.yul\":431:438   */\n  dup1\n    /* \"#utility.yul\":421:429   */\n  dup6\n    /* \"#utility.yul\":417:439   */\n  and\n    /* \"#utility.yul\":414:469   */\n  iszero\n  tag_46\n  jumpi\n    /* \"#utility.yul\":451:467   */\n  swap2\n  dup2\n  mul\n  swap2\n    /* \"#utility.yul\":414:469   */\ntag_46:\n    /* \"#utility.yul\":530:552   */\n  swap4\n  dup5\n  shr\n  swap4\n    /* \"#utility.yul\":490:505   */\n  swap1\n  dup1\n  mul\n  swap1\n    /* \"#utility.yul\":292:562   */\n  jump(tag_41)\ntag_43:\n    /* \"#utility.yul\":296:299   */\n  pop\n    /* \"#utility.yul\":146:568   */\n  swap3\n  pop\n  swap3\n  swap1\n  pop\n  jump\t// out\n    /* \"#utility.yul\":573:1379   */\ntag_37:\n    /* \"#utility.yul\":622:627   */\n  0x00\n    /* \"#utility.yul\":652:660   */\n  dup3\n    /* \"#utility.yul\":642:722   */\n  tag_48\n  jumpi\n  pop\n    /* \"#utility.yul\":693:694   */\n  0x01\n    /* \"#utility.yul\":707:712   */\n  jump(tag_47)\n    /* \"#utility.yul\":642:722   */\ntag_48:\n    /* \"#utility.yul\":741:745   */\n  dup2\n    /* \"#utility.yul\":731:807   */\n  tag_49\n  jumpi\n  pop\n    /* \"#utility.yul\":778:779   */\n  0x00\n    /* \"#utility.yul\":792:797   */\n  jump(tag_47)\n    /* \"#utility.yul\":731:807   */\ntag_49:\n    /* \"#utility.yul\":823:827   */\n  dup2\n    /* \"#utility.yul\":841:842   */\n  0x01\n    /* \"#utility.yul\":836:895   */\n  dup2\n  eq\n  tag_51\n  jumpi\n    /* \"#utility.yul\":909:910   */\n  0x02\n    /* \"#utility.yul\":904:1034   */\n  dup2\n  eq\n  tag_52\n  jumpi\n    /* \"#utility.yul\":816:1034   */\n  jump(tag_50)\n    /* \"#utility.yul\":836:895   */\ntag_51:\n    /* \"#utility.yul\":866:867   */\n  0x01\n    /* \"#utility.yul\":857:867   */\n  swap2\n  pop\n    /* \"#utility.yul\":880:885   */\n  pop\n  jump(tag_47)\n    /* \"#utility.yul\":904:1034   */\ntag_52:\n    /* \"#utility.yul\":941:944   */\n  0xff\n    /* \"#utility.yul\":931:939   */\n  dup5\n    /* \"#utility.yul\":928:945   */\n  gt\n    /* \"#utility.yul\":925:968   */\n  iszero\n  tag_54\n  jumpi\n    /* \"#utility.yul\":948:966   */\n  tag_54\n  tag_35\n  jump\t// in\ntag_54:\n  pop\n  pop\n    /* \"#utility.yul\":1004:1005   */\n  0x01\n    /* \"#utility.yul\":990:1006   */\n  dup3\n  shl\n    /* \"#utility.yul\":1019:1024   */\n  jump(tag_47)\n    /* \"#utility.yul\":816:1034   */\ntag_50:\n  pop\n    /* \"#utility.yul\":1118:1120   */\n  0x20\n    /* \"#utility.yul\":1108:1116   */\n  dup4\n    /* \"#utility.yul\":1105:1121   */\n  lt\n    /* \"#utility.yul\":1099:1102   */\n  0x0133\n    /* \"#utility.yul\":1093:1097   */\n  dup4\n    /* \"#utility.yul\":1090:1103   */\n  lt\n    /* \"#utility.yul\":1086:1122   */\n  and\n    /* \"#utility.yul\":1080:1082   */\n  0x4e\n    /* \"#utility.yul\":1070:1078   */\n  dup5\n    /* \"#utility.yul\":1067:1083   */\n  lt\n    /* \"#utility.yul\":1062:1064   */\n  0x0b\n    /* \"#utility.yul\":1056:1060   */\n  dup5\n    /* \"#utility.yul\":1053:1065   */\n  lt\n    /* \"#utility.yul\":1049:1084   */\n  and\n    /* \"#utility.yul\":1046:1123   */\n  or\n    /* \"#utility.yul\":1043:1202   */\n  iszero\n  tag_55\n  jumpi\n  pop\n    /* \"#utility.yul\":1155:1174   */\n  dup2\n  dup2\n  exp\n    /* \"#utility.yul\":1187:1192   */\n  jump(tag_47)\n    /* \"#utility.yul\":1043:1202   */\ntag_55:\n    /* \"#utility.yul\":1234:1268   */\n  tag_56\n    /* \"#utility.yul\":1259:1267   */\n  dup4\n    /* \"#utility.yul\":1253:1257   */\n  dup4\n    /* \"#utility.yul\":1234:1268   */\n  tag_36\n  jump\t// in\ntag_56:\n    /* \"#utility.yul\":1304:1310   */\n  dup1\n    /* \"#utility.yul\":1300:1301   */\n  0x00\n    /* \"#utility.yul\":1296:1302   */\n  not\n    /* \"#utility.yul\":1292:1311   */\n  div\n    /* \"#utility.yul\":1283:1290   */\n  dup3\n    /* \"#utility.yul\":1280:1312   */\n  gt\n    /* \"#utility.yul\":1277:1335   */\n  iszero\n  tag_58\n  jumpi\n    /* \"#utility.yul\":1315:1333   */\n  tag_58\n  tag_35\n  jump\t// in\ntag_58:\n    /* \"#utility.yul\":1353:1373   */\n  mul\n  swap1\n  pop\n    /* \"#utility.yul\":573:1379   */\ntag_47:\n  swap3\n  swap2\n  pop\n  pop\n  jump\t// out\n    /* \"#utility.yul\":1384:1524   */\ntag_14:\n    /* \"#utility.yul\":1442:1447   */\n  0x00\n    /* \"#utility.yul\":1471:1518   */\n  tag_60\n    /* \"#utility.yul\":1512:1516   */\n  0xff\n    /* \"#utility.yul\":1502:1510   */\n  dup5\n    /* \"#utility.yul\":1498:1517   */\n  and\n    /* \"#utility.yul\":1492:1496   */\n  dup4\n    /* \"#utility.yul\":1471:1518   */\n  tag_37\n  jump\t// in\ntag_60:\n    /* \"#utility.yul\":1462:1518   */\n  swap4\n    /* \"#utility.yul\":1384:1524   */\n  swap3\n  pop\n  pop\n  pop\n  jump\t// out\n    /* \"#utility.yul\":1529:1697   */\ntag_16:\n    /* \"#utility.yul\":1569:1576   */\n  0x00\n    /* \"#utility.yul\":1635:1636   */\n  dup2\n    /* \"#utility.yul\":1631:1632   */\n  0x00\n    /* \"#utility.yul\":1627:1633   */\n  not\n    /* \"#utility.yul\":1623:1637   */\n  div\n    /* \"#utility.yul\":1620:1621   */\n  dup4\n    /* \"#utility.yul\":1617:1638   */\n  gt\n    /* \"#utility.yul\":1612:1613   */\n  dup3\n    /* \"#utility.yul\":1605:1614   */\n  iszero\n    /* \"#utility.yul\":1598:1615   */\n  iszero\n    /* \"#utility.yul\":1594:1639   */\n  and\n    /* \"#utility.yul\":1591:1662   */\n  iszero\n  tag_63\n  jumpi\n    /* \"#utility.yul\":1642:1660   */\n  tag_63\n  tag_35\n  jump\t// in\ntag_63:\n  pop\n    /* \"#utility.yul\":1682:1691   */\n  mul\n  swap1\n    /* \"#utility.yul\":1529:1697   */\n  jump\t// out\n    /* \"#utility.yul\":1884:2264   */\ntag_25:\n    /* \"#utility.yul\":1963:1964   */\n  0x01\n    /* \"#utility.yul\":1959:1971   */\n  dup2\n  dup2\n  shr\n  swap1\n    /* \"#utility.yul\":2006:2018   */\n  dup3\n  and\n  dup1\n    /* \"#utility.yul\":2027:2088   */\n  tag_66\n  jumpi\n    /* \"#utility.yul\":2081:2085   */\n  0x7f\n    /* \"#utility.yul\":2073:2079   */\n  dup3\n    /* \"#utility.yul\":2069:2086   */\n  and\n    /* \"#utility.yul\":2059:2086   */\n  swap2\n  pop\n    /* \"#utility.yul\":2027:2088   */\ntag_66:\n    /* \"#utility.yul\":2134:2136   */\n  0x20\n    /* \"#utility.yul\":2126:2132   */\n  dup3\n    /* \"#utility.yul\":2123:2137   */\n  lt\n    /* \"#utility.yul\":2103:2121   */\n  dup2\n    /* \"#utility.yul\":2100:2138   */\n  eq\n    /* \"#utility.yul\":2097:2258   */\n  iszero\n  tag_67\n  jumpi\n    /* \"#utility.yul\":2180:2190   */\n  0x4e487b71\n    /* \"#utility.yul\":2175:2178   */\n  0xe0\n    /* \"#utility.yul\":2171:2191   */\n  shl\n    /* \"#utility.yul\":2168:2169   */\n  0x00\n    /* \"#utility.yul\":2161:2192   */\n  mstore\n    /* \"#utility.yul\":2215:2219   */\n  0x22\n    /* \"#utility.yul\":2212:2213   */\n  0x04\n    /* \"#utility.yul\":2205:2220   */\n  mstore\n    /* \"#utility.yul\":2243:2247   */\n  0x24\n    /* \"#utility.yul\":2240:2241   */\n  0x00\n    /* \"#utility.yul\":2233:2248   */\n  revert\n    /* \"#utility.yul\":2097:2258   */\ntag_67:\n  pop\n    /* \"#utility.yul\":1884:2264   */\n  swap2\n  swap1\n  pop\n  jump\t// out\ntag_38:\n    /* \"contracts/HatToken.sol\":257:9297  contract HatToken is Context, IBEP20, Ownable {... */\n  dataSize(sub_0)\n  dup1\n  dataOffset(sub_0)\n  0x00\n  codecopy\n  0x00\n  return\nstop\n\nsub_0: assembly {\n        /* \"contracts/HatToken.sol\":257:9297  contract HatToken is Context, IBEP20, Ownable {... */\n      mstore(0x40, 0x80)\n      callvalue\n      dup1\n      iszero\n      tag_1\n      jumpi\n      0x00\n      dup1\n      revert\n    tag_1:\n      pop\n      jumpi(tag_2, lt(calldatasize, 0x04))\n      shr(0xe0, calldataload(0x00))\n      dup1\n      0x715018a6\n      gt\n      tag_21\n      jumpi\n      dup1\n      0xa0712d68\n      gt\n      tag_22\n      jumpi\n      dup1\n      0xa0712d68\n      eq\n      tag_16\n      jumpi\n      dup1\n      0xa457c2d7\n      eq\n      tag_17\n      jumpi\n      dup1\n      0xa9059cbb\n      eq\n      tag_18\n      jumpi\n      dup1\n      0xdd62ed3e\n      eq\n      tag_19\n      jumpi\n      dup1\n      0xf2fde38b\n      eq\n      tag_20\n      jumpi\n      0x00\n      dup1\n      revert\n    tag_22:\n      dup1\n      0x715018a6\n      eq\n      tag_12\n      jumpi\n      dup1\n      0x893d20e8\n      eq\n      tag_13\n      jumpi\n      dup1\n      0x8da5cb5b\n      eq\n      tag_14\n      jumpi\n      dup1\n      0x95d89b41\n      eq\n      tag_15\n      jumpi\n      0x00\n      dup1\n      revert\n    tag_21:\n      dup1\n      0x23b872dd\n      gt\n      tag_23\n      jumpi\n      dup1\n      0x23b872dd\n      eq\n      tag_7\n      jumpi\n      dup1\n      0x2e0f2625\n      eq\n      tag_8\n      jumpi\n      dup1\n      0x313ce567\n      eq\n      tag_9\n      jumpi\n      dup1\n      0x39509351\n      eq\n      tag_10\n      jumpi\n      dup1\n      0x70a08231\n      eq\n      tag_11\n      jumpi\n      0x00\n      dup1\n      revert\n    tag_23:\n      dup1\n      0x06fdde03\n      eq\n      tag_3\n      jumpi\n      dup1\n      0x095ea7b3\n      eq\n      tag_4\n      jumpi\n      dup1\n      0x18160ddd\n      eq\n      tag_5\n      jumpi\n      dup1\n      0x1aef8058\n      eq\n      tag_6\n      jumpi\n    tag_2:\n      0x00\n      dup1\n      revert\n        /* \"contracts/HatToken.sol\":1452:1537  function name() external view returns (string memory) {... */\n    tag_3:\n      tag_24\n      tag_25\n      jump\t// in\n    tag_24:\n      mload(0x40)\n      tag_26\n      swap2\n      swap1\n      tag_27\n      jump\t// in\n    tag_26:\n      mload(0x40)\n      dup1\n      swap2\n      sub\n      swap1\n      return\n        /* \"contracts/HatToken.sol\":2639:2793  function approve(address spender, uint256 amount) external returns (bool) {... */\n    tag_4:\n      tag_28\n      tag_29\n      calldatasize\n      0x04\n      tag_30\n      jump\t// in\n    tag_29:\n      tag_31\n      jump\t// in\n    tag_28:\n      mload(0x40)\n        /* \"#utility.yul\":1218:1232   */\n      swap1\n      iszero\n        /* \"#utility.yul\":1211:1233   */\n      iszero\n        /* \"#utility.yul\":1193:1234   */\n      dup2\n      mstore\n        /* \"#utility.yul\":1181:1183   */\n      0x20\n        /* \"#utility.yul\":1166:1184   */\n      add\n        /* \"contracts/HatToken.sol\":2639:2793  function approve(address spender, uint256 amount) external returns (bool) {... */\n      tag_26\n        /* \"#utility.yul\":1053:1240   */\n      jump\n        /* \"contracts/HatToken.sol\":1601:1694  function totalSupply() external view returns (uint256) {... */\n    tag_5:\n        /* \"contracts/HatToken.sol\":1674:1686  _totalSupply */\n      sload(0x05)\n        /* \"contracts/HatToken.sol\":1601:1694  function totalSupply() external view returns (uint256) {... */\n    tag_34:\n      mload(0x40)\n        /* \"#utility.yul\":1391:1416   */\n      swap1\n      dup2\n      mstore\n        /* \"#utility.yul\":1379:1381   */\n      0x20\n        /* \"#utility.yul\":1364:1382   */\n      add\n        /* \"contracts/HatToken.sol\":1601:1694  function totalSupply() external view returns (uint256) {... */\n      tag_26\n        /* \"#utility.yul\":1245:1422   */\n      jump\n        /* \"contracts/HatToken.sol\":387:444  uint256 public constant DECIMAL_MULTIPLIER = 10**DECIMALS */\n    tag_6:\n      tag_34\n      tag_39\n      jump\t// in\n        /* \"contracts/HatToken.sol\":3264:3703  function transferFrom(... */\n    tag_7:\n      tag_28\n      tag_42\n      calldatasize\n      0x04\n      tag_43\n      jump\t// in\n    tag_42:\n      tag_44\n      jump\t// in\n        /* \"contracts/HatToken.sol\":345:380  uint8 public constant DECIMALS = 18 */\n    tag_8:\n      tag_46\n        /* \"contracts/HatToken.sol\":378:380  18 */\n      0x12\n        /* \"contracts/HatToken.sol\":345:380  uint8 public constant DECIMALS = 18 */\n      dup2\n      jump\n    tag_46:\n      mload(0x40)\n        /* \"#utility.yul\":1932:1936   */\n      0xff\n        /* \"#utility.yul\":1920:1937   */\n      swap1\n      swap2\n      and\n        /* \"#utility.yul\":1902:1938   */\n      dup2\n      mstore\n        /* \"#utility.yul\":1890:1892   */\n      0x20\n        /* \"#utility.yul\":1875:1893   */\n      add\n        /* \"contracts/HatToken.sol\":345:380  uint8 public constant DECIMALS = 18 */\n      tag_26\n        /* \"#utility.yul\":1760:1944   */\n      jump\n        /* \"contracts/HatToken.sol\":1151:1235  function decimals() external pure returns (uint8) {... */\n    tag_9:\n        /* \"contracts/HatToken.sol\":378:380  18 */\n      0x12\n        /* \"contracts/HatToken.sol\":1151:1235  function decimals() external pure returns (uint8) {... */\n      jump(tag_46)\n        /* \"contracts/HatToken.sol\":4111:4394  function increaseAllowance(address spender, uint256 addedValue)... */\n    tag_10:\n      tag_28\n      tag_54\n      calldatasize\n      0x04\n      tag_30\n      jump\t// in\n    tag_54:\n      tag_55\n      jump\t// in\n        /* \"contracts/HatToken.sol\":1756:1868  function balanceOf(address account) external view returns (uint256) {... */\n    tag_11:\n      tag_34\n      tag_58\n      calldatasize\n      0x04\n      tag_59\n      jump\t// in\n    tag_58:\n      sub(shl(0xa0, 0x01), 0x01)\n        /* \"contracts/HatToken.sol\":1842:1860  _balances[account] */\n      and\n        /* \"contracts/HatToken.sol\":1815:1822  uint256 */\n      0x00\n        /* \"contracts/HatToken.sol\":1842:1860  _balances[account] */\n      swap1\n      dup2\n      mstore\n        /* \"contracts/HatToken.sol\":1842:1851  _balances */\n      0x01\n        /* \"contracts/HatToken.sol\":1842:1860  _balances[account] */\n      0x20\n      mstore\n      0x40\n      swap1\n      keccak256\n      sload\n      swap1\n        /* \"contracts/HatToken.sol\":1756:1868  function balanceOf(address account) external view returns (uint256) {... */\n      jump\n        /* \"@openzeppelin/contracts/access/Ownable.sol\":1668:1769  function renounceOwnership() public virtual onlyOwner {... */\n    tag_12:\n      tag_62\n      tag_63\n      jump\t// in\n    tag_62:\n      stop\n        /* \"contracts/HatToken.sol\":999:1084  function getOwner() external view returns (address) {... */\n    tag_13:\n        /* \"contracts/HatToken.sol\":1042:1049  address */\n      0x00\n        /* \"@openzeppelin/contracts/access/Ownable.sol\":1108:1114  _owner */\n      sload\n      sub(shl(0xa0, 0x01), 0x01)\n      and\n        /* \"contracts/HatToken.sol\":999:1084  function getOwner() external view returns (address) {... */\n    tag_64:\n      mload(0x40)\n      sub(shl(0xa0, 0x01), 0x01)\n        /* \"#utility.yul\":2304:2336   */\n      swap1\n      swap2\n      and\n        /* \"#utility.yul\":2286:2337   */\n      dup2\n      mstore\n        /* \"#utility.yul\":2274:2276   */\n      0x20\n        /* \"#utility.yul\":2259:2277   */\n      add\n        /* \"contracts/HatToken.sol\":999:1084  function getOwner() external view returns (address) {... */\n      tag_26\n        /* \"#utility.yul\":2140:2343   */\n      jump\n        /* \"@openzeppelin/contracts/access/Ownable.sol\":1036:1121  function owner() public view virtual returns (address) {... */\n    tag_14:\n        /* \"@openzeppelin/contracts/access/Ownable.sol\":1082:1089  address */\n      0x00\n        /* \"@openzeppelin/contracts/access/Ownable.sol\":1108:1114  _owner */\n      sload\n      sub(shl(0xa0, 0x01), 0x01)\n      and\n        /* \"@openzeppelin/contracts/access/Ownable.sol\":1036:1121  function owner() public view virtual returns (address) {... */\n      jump(tag_64)\n        /* \"contracts/HatToken.sol\":1300:1389  function symbol() external view returns (string memory) {... */\n    tag_15:\n      tag_24\n      tag_72\n      jump\t// in\n        /* \"contracts/HatToken.sol\":5497:5627  function mint(uint256 amount) public onlyOwner returns (bool) {... */\n    tag_16:\n      tag_28\n      tag_75\n      calldatasize\n      0x04\n      tag_76\n      jump\t// in\n    tag_75:\n      tag_77\n      jump\t// in\n        /* \"contracts/HatToken.sol\":4896:5279  function decreaseAllowance(address spender, uint256 subtractedValue)... */\n    tag_17:\n      tag_28\n      tag_80\n      calldatasize\n      0x04\n      tag_30\n      jump\t// in\n    tag_80:\n      tag_81\n      jump\t// in\n        /* \"contracts/HatToken.sol\":2080:2263  function transfer(address recipient, uint256 amount)... */\n    tag_18:\n      tag_28\n      tag_84\n      calldatasize\n      0x04\n      tag_30\n      jump\t// in\n    tag_84:\n      tag_85\n      jump\t// in\n        /* \"contracts/HatToken.sol\":2325:2493  function allowance(address owner, address spender)... */\n    tag_19:\n      tag_34\n      tag_88\n      calldatasize\n      0x04\n      tag_89\n      jump\t// in\n    tag_88:\n      sub(shl(0xa0, 0x01), 0x01)\n        /* \"contracts/HatToken.sol\":2458:2476  _allowances[owner] */\n      swap2\n      dup3\n      and\n        /* \"contracts/HatToken.sol\":2426:2433  uint256 */\n      0x00\n        /* \"contracts/HatToken.sol\":2458:2476  _allowances[owner] */\n      swap1\n      dup2\n      mstore\n        /* \"contracts/HatToken.sol\":2458:2469  _allowances */\n      0x02\n        /* \"contracts/HatToken.sol\":2458:2476  _allowances[owner] */\n      0x20\n      swap1\n      dup2\n      mstore\n      0x40\n      dup1\n      dup4\n      keccak256\n        /* \"contracts/HatToken.sol\":2458:2485  _allowances[owner][spender] */\n      swap4\n      swap1\n      swap5\n      and\n      dup3\n      mstore\n      swap2\n      swap1\n      swap2\n      mstore\n      keccak256\n      sload\n      swap1\n        /* \"contracts/HatToken.sol\":2325:2493  function allowance(address owner, address spender)... */\n      jump\n        /* \"@openzeppelin/contracts/access/Ownable.sol\":1918:2116  function transferOwnership(address newOwner) public virtual onlyOwner {... */\n    tag_20:\n      tag_62\n      tag_93\n      calldatasize\n      0x04\n      tag_59\n      jump\t// in\n    tag_93:\n      tag_94\n      jump\t// in\n        /* \"contracts/HatToken.sol\":1452:1537  function name() external view returns (string memory) {... */\n    tag_25:\n        /* \"contracts/HatToken.sol\":1491:1504  string memory */\n      0x60\n        /* \"contracts/HatToken.sol\":1524:1529  _name */\n      0x03\n        /* \"contracts/HatToken.sol\":1517:1529  return _name */\n      dup1\n      sload\n      tag_96\n      swap1\n      tag_97\n      jump\t// in\n    tag_96:\n      dup1\n      0x1f\n      add\n      0x20\n      dup1\n      swap2\n      div\n      mul\n      0x20\n      add\n      mload(0x40)\n      swap1\n      dup2\n      add\n      0x40\n      mstore\n      dup1\n      swap3\n      swap2\n      swap1\n      dup2\n      dup2\n      mstore\n      0x20\n      add\n      dup3\n      dup1\n      sload\n      tag_98\n      swap1\n      tag_97\n      jump\t// in\n    tag_98:\n      dup1\n      iszero\n      tag_99\n      jumpi\n      dup1\n      0x1f\n      lt\n      tag_100\n      jumpi\n      0x0100\n      dup1\n      dup4\n      sload\n      div\n      mul\n      dup4\n      mstore\n      swap2\n      0x20\n      add\n      swap2\n      jump(tag_99)\n    tag_100:\n      dup3\n      add\n      swap2\n      swap1\n      0x00\n      mstore\n      keccak256(0x00, 0x20)\n      swap1\n    tag_101:\n      dup2\n      sload\n      dup2\n      mstore\n      swap1\n      0x01\n      add\n      swap1\n      0x20\n      add\n      dup1\n      dup4\n      gt\n      tag_101\n      jumpi\n      dup3\n      swap1\n      sub\n      0x1f\n      and\n      dup3\n      add\n      swap2\n    tag_99:\n      pop\n      pop\n      pop\n      pop\n      pop\n      swap1\n      pop\n        /* \"contracts/HatToken.sol\":1452:1537  function name() external view returns (string memory) {... */\n      swap1\n      jump\t// out\n        /* \"contracts/HatToken.sol\":2639:2793  function approve(address spender, uint256 amount) external returns (bool) {... */\n    tag_31:\n        /* \"contracts/HatToken.sol\":2707:2711  bool */\n      0x00\n        /* \"contracts/HatToken.sol\":2724:2763  _approve(_msgSender(), spender, amount) */\n      tag_103\n        /* \"@openzeppelin/contracts/utils/Context.sol\":719:729  msg.sender */\n      caller\n        /* \"contracts/HatToken.sol\":2747:2754  spender */\n      dup5\n        /* \"contracts/HatToken.sol\":2756:2762  amount */\n      dup5\n        /* \"contracts/HatToken.sol\":2724:2732  _approve */\n      tag_106\n        /* \"contracts/HatToken.sol\":2724:2763  _approve(_msgSender(), spender, amount) */\n      jump\t// in\n    tag_103:\n      pop\n        /* \"contracts/HatToken.sol\":2781:2785  true */\n      0x01\n        /* \"contracts/HatToken.sol\":2639:2793  function approve(address spender, uint256 amount) external returns (bool) {... */\n    tag_102:\n      swap3\n      swap2\n      pop\n      pop\n      jump\t// out\n        /* \"contracts/HatToken.sol\":387:444  uint256 public constant DECIMAL_MULTIPLIER = 10**DECIMALS */\n    tag_39:\n        /* \"contracts/HatToken.sol\":432:444  10**DECIMALS */\n      tag_108\n        /* \"contracts/HatToken.sol\":378:380  18 */\n      0x12\n        /* \"contracts/HatToken.sol\":432:434  10 */\n      0x0a\n        /* \"contracts/HatToken.sol\":432:444  10**DECIMALS */\n      tag_109\n      jump\t// in\n    tag_108:\n        /* \"contracts/HatToken.sol\":387:444  uint256 public constant DECIMAL_MULTIPLIER = 10**DECIMALS */\n      dup2\n      jump\t// out\n        /* \"contracts/HatToken.sol\":3264:3703  function transferFrom(... */\n    tag_44:\n        /* \"contracts/HatToken.sol\":3389:3393  bool */\n      0x00\n        /* \"contracts/HatToken.sol\":3406:3442  _transfer(sender, recipient, amount) */\n      tag_111\n        /* \"contracts/HatToken.sol\":3416:3422  sender */\n      dup5\n        /* \"contracts/HatToken.sol\":3424:3433  recipient */\n      dup5\n        /* \"contracts/HatToken.sol\":3435:3441  amount */\n      dup5\n        /* \"contracts/HatToken.sol\":3406:3415  _transfer */\n      tag_112\n        /* \"contracts/HatToken.sol\":3406:3442  _transfer(sender, recipient, amount) */\n      jump\t// in\n    tag_111:\n        /* \"contracts/HatToken.sol\":3453:3673  _approve(... */\n      tag_113\n        /* \"contracts/HatToken.sol\":3476:3482  sender */\n      dup5\n        /* \"@openzeppelin/contracts/utils/Context.sol\":719:729  msg.sender */\n      caller\n        /* \"contracts/HatToken.sol\":3524:3662  _allowances[sender][_msgSender()].sub(... */\n      tag_115\n        /* \"contracts/HatToken.sol\":3580:3586  amount */\n      dup6\n        /* \"contracts/HatToken.sol\":3524:3662  _allowances[sender][_msgSender()].sub(... */\n      mload(0x40)\n      dup1\n      0x60\n      add\n      0x40\n      mstore\n      dup1\n      0x28\n      dup2\n      mstore\n      0x20\n      add\n      data_4f3506f4ba71c79c3cbd442a3afeb30e9b27af2d84e116a4385b34e267d2287e\n      0x28\n      swap2\n      codecopy\n      sub(shl(0xa0, 0x01), 0x01)\n        /* \"contracts/HatToken.sol\":3524:3543  _allowances[sender] */\n      dup11\n      and\n      0x00\n      swap1\n      dup2\n      mstore\n        /* \"contracts/HatToken.sol\":3524:3535  _allowances */\n      0x02\n        /* \"contracts/HatToken.sol\":3524:3543  _allowances[sender] */\n      0x20\n      swap1\n      dup2\n      mstore\n      0x40\n      dup1\n      dup4\n      keccak256\n        /* \"@openzeppelin/contracts/utils/Context.sol\":719:729  msg.sender */\n      caller\n        /* \"contracts/HatToken.sol\":3524:3557  _allowances[sender][_msgSender()] */\n      dup5\n      mstore\n      swap1\n      swap2\n      mstore\n      swap1\n      keccak256\n      sload\n      swap2\n      swap1\n        /* \"contracts/HatToken.sol\":3524:3561  _allowances[sender][_msgSender()].sub */\n      tag_117\n        /* \"contracts/HatToken.sol\":3524:3662  _allowances[sender][_msgSender()].sub(... */\n      jump\t// in\n    tag_115:\n        /* \"contracts/HatToken.sol\":3453:3461  _approve */\n      tag_106\n        /* \"contracts/HatToken.sol\":3453:3673  _approve(... */\n      jump\t// in\n    tag_113:\n      pop\n        /* \"contracts/HatToken.sol\":3691:3695  true */\n      0x01\n        /* \"contracts/HatToken.sol\":3264:3703  function transferFrom(... */\n      swap4\n      swap3\n      pop\n      pop\n      pop\n      jump\t// out\n        /* \"contracts/HatToken.sol\":4111:4394  function increaseAllowance(address spender, uint256 addedValue)... */\n    tag_55:\n        /* \"@openzeppelin/contracts/utils/Context.sol\":719:729  msg.sender */\n      caller\n        /* \"contracts/HatToken.sol\":4209:4213  bool */\n      0x00\n        /* \"contracts/HatToken.sol\":4303:4328  _allowances[_msgSender()] */\n      dup2\n      dup2\n      mstore\n        /* \"contracts/HatToken.sol\":4303:4314  _allowances */\n      0x02\n        /* \"contracts/HatToken.sol\":4303:4328  _allowances[_msgSender()] */\n      0x20\n      swap1\n      dup2\n      mstore\n      0x40\n      dup1\n      dup4\n      keccak256\n      sub(shl(0xa0, 0x01), 0x01)\n        /* \"contracts/HatToken.sol\":4303:4337  _allowances[_msgSender()][spender] */\n      dup8\n      and\n      dup5\n      mstore\n      swap1\n      swap2\n      mstore\n      dup2\n      keccak256\n      sload\n        /* \"contracts/HatToken.sol\":4209:4213  bool */\n      swap1\n      swap2\n        /* \"contracts/HatToken.sol\":4231:4364  _approve(... */\n      tag_103\n      swap2\n        /* \"contracts/HatToken.sol\":4281:4288  spender */\n      dup6\n      swap1\n        /* \"contracts/HatToken.sol\":4303:4353  _allowances[_msgSender()][spender].add(addedValue) */\n      tag_115\n      swap1\n        /* \"contracts/HatToken.sol\":4342:4352  addedValue */\n      dup7\n        /* \"contracts/HatToken.sol\":4303:4341  _allowances[_msgSender()][spender].add */\n      tag_124\n        /* \"contracts/HatToken.sol\":4303:4353  _allowances[_msgSender()][spender].add(addedValue) */\n      jump\t// in\n        /* \"@openzeppelin/contracts/access/Ownable.sol\":1668:1769  function renounceOwnership() public virtual onlyOwner {... */\n    tag_63:\n        /* \"@openzeppelin/contracts/access/Ownable.sol\":1082:1089  address */\n      0x00\n        /* \"@openzeppelin/contracts/access/Ownable.sol\":1108:1114  _owner */\n      sload\n      sub(shl(0xa0, 0x01), 0x01)\n      and\n        /* \"@openzeppelin/contracts/utils/Context.sol\":719:729  msg.sender */\n      caller\n        /* \"@openzeppelin/contracts/access/Ownable.sol\":1248:1271  owner() == _msgSender() */\n      eq\n        /* \"@openzeppelin/contracts/access/Ownable.sol\":1240:1308  require(owner() == _msgSender(), \"Ownable: caller is not the owner\") */\n      tag_129\n      jumpi\n      mload(0x40)\n      shl(0xe5, 0x461bcd)\n      dup2\n      mstore\n      0x04\n      add\n      tag_130\n      swap1\n      tag_131\n      jump\t// in\n    tag_130:\n      mload(0x40)\n      dup1\n      swap2\n      sub\n      swap1\n      revert\n    tag_129:\n        /* \"@openzeppelin/contracts/access/Ownable.sol\":1732:1762  _transferOwnership(address(0)) */\n      tag_133\n        /* \"@openzeppelin/contracts/access/Ownable.sol\":1759:1760  0 */\n      0x00\n        /* \"@openzeppelin/contracts/access/Ownable.sol\":1732:1750  _transferOwnership */\n      tag_134\n        /* \"@openzeppelin/contracts/access/Ownable.sol\":1732:1762  _transferOwnership(address(0)) */\n      jump\t// in\n    tag_133:\n        /* \"@openzeppelin/contracts/access/Ownable.sol\":1668:1769  function renounceOwnership() public virtual onlyOwner {... */\n      jump\t// out\n        /* \"contracts/HatToken.sol\":1300:1389  function symbol() external view returns (string memory) {... */\n    tag_72:\n        /* \"contracts/HatToken.sol\":1341:1354  string memory */\n      0x60\n        /* \"contracts/HatToken.sol\":1374:1381  _symbol */\n      0x04\n        /* \"contracts/HatToken.sol\":1367:1381  return _symbol */\n      dup1\n      sload\n      tag_96\n      swap1\n      tag_97\n      jump\t// in\n        /* \"contracts/HatToken.sol\":5497:5627  function mint(uint256 amount) public onlyOwner returns (bool) {... */\n    tag_77:\n        /* \"contracts/HatToken.sol\":5553:5557  bool */\n      0x00\n        /* \"@openzeppelin/contracts/access/Ownable.sol\":1108:1114  _owner */\n      dup1\n      sload\n      sub(shl(0xa0, 0x01), 0x01)\n      and\n        /* \"@openzeppelin/contracts/utils/Context.sol\":719:729  msg.sender */\n      caller\n        /* \"@openzeppelin/contracts/access/Ownable.sol\":1248:1271  owner() == _msgSender() */\n      eq\n        /* \"@openzeppelin/contracts/access/Ownable.sol\":1240:1308  require(owner() == _msgSender(), \"Ownable: caller is not the owner\") */\n      tag_147\n      jumpi\n      mload(0x40)\n      shl(0xe5, 0x461bcd)\n      dup2\n      mstore\n      0x04\n      add\n      tag_130\n      swap1\n      tag_131\n      jump\t// in\n    tag_147:\n        /* \"contracts/HatToken.sol\":5570:5597  _mint(_msgSender(), amount) */\n      tag_150\n        /* \"@openzeppelin/contracts/utils/Context.sol\":719:729  msg.sender */\n      caller\n        /* \"contracts/HatToken.sol\":5590:5596  amount */\n      dup4\n        /* \"contracts/HatToken.sol\":5570:5575  _mint */\n      tag_152\n        /* \"contracts/HatToken.sol\":5570:5597  _mint(_msgSender(), amount) */\n      jump\t// in\n    tag_150:\n      pop\n        /* \"contracts/HatToken.sol\":5615:5619  true */\n      0x01\n        /* \"@openzeppelin/contracts/access/Ownable.sol\":1318:1319  _ */\n    tag_149:\n        /* \"contracts/HatToken.sol\":5497:5627  function mint(uint256 amount) public onlyOwner returns (bool) {... */\n      swap2\n      swap1\n      pop\n      jump\t// out\n        /* \"contracts/HatToken.sol\":4896:5279  function decreaseAllowance(address spender, uint256 subtractedValue)... */\n    tag_81:\n        /* \"contracts/HatToken.sol\":4999:5003  bool */\n      0x00\n        /* \"contracts/HatToken.sol\":5021:5249  _approve(... */\n      tag_103\n        /* \"@openzeppelin/contracts/utils/Context.sol\":719:729  msg.sender */\n      caller\n        /* \"contracts/HatToken.sol\":5071:5078  spender */\n      dup5\n        /* \"contracts/HatToken.sol\":5093:5238  _allowances[_msgSender()][spender].sub(... */\n      tag_115\n        /* \"contracts/HatToken.sol\":5150:5165  subtractedValue */\n      dup6\n        /* \"contracts/HatToken.sol\":5093:5238  _allowances[_msgSender()][spender].sub(... */\n      mload(0x40)\n      dup1\n      0x60\n      add\n      0x40\n      mstore\n      dup1\n      0x25\n      dup2\n      mstore\n      0x20\n      add\n      data_b7060b3538dcd3ddc8a941c91636a8115a1aa46914747fd9809d543bbb46cd22\n      0x25\n      swap2\n      codecopy\n        /* \"@openzeppelin/contracts/utils/Context.sol\":719:729  msg.sender */\n      caller\n        /* \"contracts/HatToken.sol\":5093:5118  _allowances[_msgSender()] */\n      0x00\n      swap1\n      dup2\n      mstore\n        /* \"contracts/HatToken.sol\":5093:5104  _allowances */\n      0x02\n        /* \"contracts/HatToken.sol\":5093:5118  _allowances[_msgSender()] */\n      0x20\n      swap1\n      dup2\n      mstore\n      0x40\n      dup1\n      dup4\n      keccak256\n      sub(shl(0xa0, 0x01), 0x01)\n        /* \"contracts/HatToken.sol\":5093:5127  _allowances[_msgSender()][spender] */\n      dup14\n      and\n      dup5\n      mstore\n      swap1\n      swap2\n      mstore\n      swap1\n      keccak256\n      sload\n      swap2\n      swap1\n        /* \"contracts/HatToken.sol\":5093:5131  _allowances[_msgSender()][spender].sub */\n      tag_117\n        /* \"contracts/HatToken.sol\":5093:5238  _allowances[_msgSender()][spender].sub(... */\n      jump\t// in\n        /* \"contracts/HatToken.sol\":2080:2263  function transfer(address recipient, uint256 amount)... */\n    tag_85:\n        /* \"contracts/HatToken.sol\":2169:2173  bool */\n      0x00\n        /* \"contracts/HatToken.sol\":2191:2233  _transfer(_msgSender(), recipient, amount) */\n      tag_103\n        /* \"@openzeppelin/contracts/utils/Context.sol\":719:729  msg.sender */\n      caller\n        /* \"contracts/HatToken.sol\":2215:2224  recipient */\n      dup5\n        /* \"contracts/HatToken.sol\":2226:2232  amount */\n      dup5\n        /* \"contracts/HatToken.sol\":2191:2200  _transfer */\n      tag_112\n        /* \"contracts/HatToken.sol\":2191:2233  _transfer(_msgSender(), recipient, amount) */\n      jump\t// in\n        /* \"@openzeppelin/contracts/access/Ownable.sol\":1918:2116  function transferOwnership(address newOwner) public virtual onlyOwner {... */\n    tag_94:\n        /* \"@openzeppelin/contracts/access/Ownable.sol\":1082:1089  address */\n      0x00\n        /* \"@openzeppelin/contracts/access/Ownable.sol\":1108:1114  _owner */\n      sload\n      sub(shl(0xa0, 0x01), 0x01)\n      and\n        /* \"@openzeppelin/contracts/utils/Context.sol\":719:729  msg.sender */\n      caller\n        /* \"@openzeppelin/contracts/access/Ownable.sol\":1248:1271  owner() == _msgSender() */\n      eq\n        /* \"@openzeppelin/contracts/access/Ownable.sol\":1240:1308  require(owner() == _msgSender(), \"Ownable: caller is not the owner\") */\n      tag_165\n      jumpi\n      mload(0x40)\n      shl(0xe5, 0x461bcd)\n      dup2\n      mstore\n      0x04\n      add\n      tag_130\n      swap1\n      tag_131\n      jump\t// in\n    tag_165:\n      sub(shl(0xa0, 0x01), 0x01)\n        /* \"@openzeppelin/contracts/access/Ownable.sol\":2006:2028  newOwner != address(0) */\n      dup2\n      and\n        /* \"@openzeppelin/contracts/access/Ownable.sol\":1998:2071  require(newOwner != address(0), \"Ownable: new owner is the zero address\") */\n      tag_168\n      jumpi\n      mload(0x40)\n      shl(0xe5, 0x461bcd)\n      dup2\n      mstore\n        /* \"#utility.yul\":5261:5263   */\n      0x20\n        /* \"@openzeppelin/contracts/access/Ownable.sol\":1998:2071  require(newOwner != address(0), \"Ownable: new owner is the zero address\") */\n      0x04\n      dup3\n      add\n        /* \"#utility.yul\":5243:5264   */\n      mstore\n        /* \"#utility.yul\":5300:5302   */\n      0x26\n        /* \"#utility.yul\":5280:5298   */\n      0x24\n      dup3\n      add\n        /* \"#utility.yul\":5273:5303   */\n      mstore\n        /* \"#utility.yul\":5339:5373   */\n      0x4f776e61626c653a206e6577206f776e657220697320746865207a65726f2061\n        /* \"#utility.yul\":5319:5337   */\n      0x44\n      dup3\n      add\n        /* \"#utility.yul\":5312:5374   */\n      mstore\n      shl(0xd0, 0x646472657373)\n        /* \"#utility.yul\":5390:5408   */\n      0x64\n      dup3\n      add\n        /* \"#utility.yul\":5383:5419   */\n      mstore\n        /* \"#utility.yul\":5436:5455   */\n      0x84\n      add\n        /* \"@openzeppelin/contracts/access/Ownable.sol\":1998:2071  require(newOwner != address(0), \"Ownable: new owner is the zero address\") */\n      tag_130\n        /* \"#utility.yul\":5059:5461   */\n      jump\n        /* \"@openzeppelin/contracts/access/Ownable.sol\":1998:2071  require(newOwner != address(0), \"Ownable: new owner is the zero address\") */\n    tag_168:\n        /* \"@openzeppelin/contracts/access/Ownable.sol\":2081:2109  _transferOwnership(newOwner) */\n      tag_171\n        /* \"@openzeppelin/contracts/access/Ownable.sol\":2100:2108  newOwner */\n      dup2\n        /* \"@openzeppelin/contracts/access/Ownable.sol\":2081:2099  _transferOwnership */\n      tag_134\n        /* \"@openzeppelin/contracts/access/Ownable.sol\":2081:2109  _transferOwnership(newOwner) */\n      jump\t// in\n    tag_171:\n        /* \"@openzeppelin/contracts/access/Ownable.sol\":1918:2116  function transferOwnership(address newOwner) public virtual onlyOwner {... */\n      pop\n      jump\t// out\n        /* \"contracts/HatToken.sol\":8405:8777  function _approve(... */\n    tag_106:\n      sub(shl(0xa0, 0x01), 0x01)\n        /* \"contracts/HatToken.sol\":8533:8552  owner != address(0) */\n      dup4\n      and\n        /* \"contracts/HatToken.sol\":8525:8593  require(owner != address(0), \"BEP20: approve from the zero address\") */\n      tag_174\n      jumpi\n      mload(0x40)\n      shl(0xe5, 0x461bcd)\n      dup2\n      mstore\n        /* \"#utility.yul\":5668:5670   */\n      0x20\n        /* \"contracts/HatToken.sol\":8525:8593  require(owner != address(0), \"BEP20: approve from the zero address\") */\n      0x04\n      dup3\n      add\n        /* \"#utility.yul\":5650:5671   */\n      mstore\n        /* \"#utility.yul\":5707:5709   */\n      0x24\n        /* \"#utility.yul\":5687:5705   */\n      dup1\n      dup3\n      add\n        /* \"#utility.yul\":5680:5710   */\n      mstore\n        /* \"#utility.yul\":5746:5780   */\n      0x42455032303a20617070726f76652066726f6d20746865207a65726f20616464\n        /* \"#utility.yul\":5726:5744   */\n      0x44\n      dup3\n      add\n        /* \"#utility.yul\":5719:5781   */\n      mstore\n      shl(0xe0, 0x72657373)\n        /* \"#utility.yul\":5797:5815   */\n      0x64\n      dup3\n      add\n        /* \"#utility.yul\":5790:5824   */\n      mstore\n        /* \"#utility.yul\":5841:5860   */\n      0x84\n      add\n        /* \"contracts/HatToken.sol\":8525:8593  require(owner != address(0), \"BEP20: approve from the zero address\") */\n      tag_130\n        /* \"#utility.yul\":5466:5866   */\n      jump\n        /* \"contracts/HatToken.sol\":8525:8593  require(owner != address(0), \"BEP20: approve from the zero address\") */\n    tag_174:\n      sub(shl(0xa0, 0x01), 0x01)\n        /* \"contracts/HatToken.sol\":8612:8633  spender != address(0) */\n      dup3\n      and\n        /* \"contracts/HatToken.sol\":8604:8672  require(spender != address(0), \"BEP20: approve to the zero address\") */\n      tag_177\n      jumpi\n      mload(0x40)\n      shl(0xe5, 0x461bcd)\n      dup2\n      mstore\n        /* \"#utility.yul\":6073:6075   */\n      0x20\n        /* \"contracts/HatToken.sol\":8604:8672  require(spender != address(0), \"BEP20: approve to the zero address\") */\n      0x04\n      dup3\n      add\n        /* \"#utility.yul\":6055:6076   */\n      mstore\n        /* \"#utility.yul\":6112:6114   */\n      0x22\n        /* \"#utility.yul\":6092:6110   */\n      0x24\n      dup3\n      add\n        /* \"#utility.yul\":6085:6115   */\n      mstore\n        /* \"#utility.yul\":6151:6185   */\n      0x42455032303a20617070726f766520746f20746865207a65726f206164647265\n        /* \"#utility.yul\":6131:6149   */\n      0x44\n      dup3\n      add\n        /* \"#utility.yul\":6124:6186   */\n      mstore\n      shl(0xf0, 0x7373)\n        /* \"#utility.yul\":6202:6220   */\n      0x64\n      dup3\n      add\n        /* \"#utility.yul\":6195:6227   */\n      mstore\n        /* \"#utility.yul\":6244:6263   */\n      0x84\n      add\n        /* \"contracts/HatToken.sol\":8604:8672  require(spender != address(0), \"BEP20: approve to the zero address\") */\n      tag_130\n        /* \"#utility.yul\":5871:6269   */\n      jump\n        /* \"contracts/HatToken.sol\":8604:8672  require(spender != address(0), \"BEP20: approve to the zero address\") */\n    tag_177:\n      sub(shl(0xa0, 0x01), 0x01)\n        /* \"contracts/HatToken.sol\":8685:8703  _allowances[owner] */\n      dup4\n      dup2\n      and\n      0x00\n      dup2\n      dup2\n      mstore\n        /* \"contracts/HatToken.sol\":8685:8696  _allowances */\n      0x02\n        /* \"contracts/HatToken.sol\":8685:8703  _allowances[owner] */\n      0x20\n      swap1\n      dup2\n      mstore\n      0x40\n      dup1\n      dup4\n      keccak256\n        /* \"contracts/HatToken.sol\":8685:8712  _allowances[owner][spender] */\n      swap5\n      dup8\n      and\n      dup1\n      dup5\n      mstore\n      swap5\n      dup3\n      mstore\n      swap2\n      dup3\n      swap1\n      keccak256\n        /* \"contracts/HatToken.sol\":8685:8721  _allowances[owner][spender] = amount */\n      dup6\n      swap1\n      sstore\n        /* \"contracts/HatToken.sol\":8737:8769  Approval(owner, spender, amount) */\n      swap1\n      mload\n        /* \"#utility.yul\":1391:1416   */\n      dup5\n      dup2\n      mstore\n        /* \"contracts/HatToken.sol\":8737:8769  Approval(owner, spender, amount) */\n      0x8c5be1e5ebec7d5bd14f71427d1e84f3dd0314c0f7b2291e5b200ac8c7c3b925\n      swap2\n        /* \"#utility.yul\":1364:1382   */\n      add\n        /* \"contracts/HatToken.sol\":8737:8769  Approval(owner, spender, amount) */\n    tag_180:\n      mload(0x40)\n      dup1\n      swap2\n      sub\n      swap1\n      log3\n        /* \"contracts/HatToken.sol\":8405:8777  function _approve(... */\n      pop\n      pop\n      pop\n      jump\t// out\n        /* \"contracts/HatToken.sol\":6117:6659  function _transfer(... */\n    tag_112:\n      sub(shl(0xa0, 0x01), 0x01)\n        /* \"contracts/HatToken.sol\":6249:6269  sender != address(0) */\n      dup4\n      and\n        /* \"contracts/HatToken.sol\":6241:6311  require(sender != address(0), \"BEP20: transfer from the zero address\") */\n      tag_182\n      jumpi\n      mload(0x40)\n      shl(0xe5, 0x461bcd)\n      dup2\n      mstore\n        /* \"#utility.yul\":6476:6478   */\n      0x20\n        /* \"contracts/HatToken.sol\":6241:6311  require(sender != address(0), \"BEP20: transfer from the zero address\") */\n      0x04\n      dup3\n      add\n        /* \"#utility.yul\":6458:6479   */\n      mstore\n        /* \"#utility.yul\":6515:6517   */\n      0x25\n        /* \"#utility.yul\":6495:6513   */\n      0x24\n      dup3\n      add\n        /* \"#utility.yul\":6488:6518   */\n      mstore\n        /* \"#utility.yul\":6554:6588   */\n      0x42455032303a207472616e736665722066726f6d20746865207a65726f206164\n        /* \"#utility.yul\":6534:6552   */\n      0x44\n      dup3\n      add\n        /* \"#utility.yul\":6527:6589   */\n      mstore\n      shl(0xd8, 0x6472657373)\n        /* \"#utility.yul\":6605:6623   */\n      0x64\n      dup3\n      add\n        /* \"#utility.yul\":6598:6633   */\n      mstore\n        /* \"#utility.yul\":6650:6669   */\n      0x84\n      add\n        /* \"contracts/HatToken.sol\":6241:6311  require(sender != address(0), \"BEP20: transfer from the zero address\") */\n      tag_130\n        /* \"#utility.yul\":6274:6675   */\n      jump\n        /* \"contracts/HatToken.sol\":6241:6311  require(sender != address(0), \"BEP20: transfer from the zero address\") */\n    tag_182:\n      sub(shl(0xa0, 0x01), 0x01)\n        /* \"contracts/HatToken.sol\":6330:6353  recipient != address(0) */\n      dup3\n      and\n        /* \"contracts/HatToken.sol\":6322:6393  require(recipient != address(0), \"BEP20: transfer to the zero address\") */\n      tag_185\n      jumpi\n      mload(0x40)\n      shl(0xe5, 0x461bcd)\n      dup2\n      mstore\n        /* \"#utility.yul\":6882:6884   */\n      0x20\n        /* \"contracts/HatToken.sol\":6322:6393  require(recipient != address(0), \"BEP20: transfer to the zero address\") */\n      0x04\n      dup3\n      add\n        /* \"#utility.yul\":6864:6885   */\n      mstore\n        /* \"#utility.yul\":6921:6923   */\n      0x23\n        /* \"#utility.yul\":6901:6919   */\n      0x24\n      dup3\n      add\n        /* \"#utility.yul\":6894:6924   */\n      mstore\n        /* \"#utility.yul\":6960:6994   */\n      0x42455032303a207472616e7366657220746f20746865207a65726f2061646472\n        /* \"#utility.yul\":6940:6958   */\n      0x44\n      dup3\n      add\n        /* \"#utility.yul\":6933:6995   */\n      mstore\n      shl(0xe8, 0x657373)\n        /* \"#utility.yul\":7011:7029   */\n      0x64\n      dup3\n      add\n        /* \"#utility.yul\":7004:7037   */\n      mstore\n        /* \"#utility.yul\":7054:7073   */\n      0x84\n      add\n        /* \"contracts/HatToken.sol\":6322:6393  require(recipient != address(0), \"BEP20: transfer to the zero address\") */\n      tag_130\n        /* \"#utility.yul\":6680:7079   */\n      jump\n        /* \"contracts/HatToken.sol\":6322:6393  require(recipient != address(0), \"BEP20: transfer to the zero address\") */\n    tag_185:\n        /* \"contracts/HatToken.sol\":6426:6534  _balances[sender].sub(... */\n      tag_188\n        /* \"contracts/HatToken.sol\":6462:6468  amount */\n      dup2\n        /* \"contracts/HatToken.sol\":6426:6534  _balances[sender].sub(... */\n      mload(0x40)\n      dup1\n      0x60\n      add\n      0x40\n      mstore\n      dup1\n      0x26\n      dup2\n      mstore\n      0x20\n      add\n      data_a91efd7a65ef5b4ae4d6568d674798b78a5a89184dd296c100513251c22d3e73\n      0x26\n      swap2\n      codecopy\n      sub(shl(0xa0, 0x01), 0x01)\n        /* \"contracts/HatToken.sol\":6426:6443  _balances[sender] */\n      dup7\n      and\n      0x00\n      swap1\n      dup2\n      mstore\n        /* \"contracts/HatToken.sol\":6426:6435  _balances */\n      0x01\n        /* \"contracts/HatToken.sol\":6426:6443  _balances[sender] */\n      0x20\n      mstore\n      0x40\n      swap1\n      keccak256\n      sload\n      swap2\n        /* \"contracts/HatToken.sol\":6426:6534  _balances[sender].sub(... */\n      swap1\n        /* \"contracts/HatToken.sol\":6426:6447  _balances[sender].sub */\n      tag_117\n        /* \"contracts/HatToken.sol\":6426:6534  _balances[sender].sub(... */\n      jump\t// in\n    tag_188:\n      sub(shl(0xa0, 0x01), 0x01)\n        /* \"contracts/HatToken.sol\":6406:6423  _balances[sender] */\n      dup1\n      dup6\n      and\n      0x00\n      swap1\n      dup2\n      mstore\n        /* \"contracts/HatToken.sol\":6406:6415  _balances */\n      0x01\n        /* \"contracts/HatToken.sol\":6406:6423  _balances[sender] */\n      0x20\n      mstore\n      0x40\n      dup1\n      dup3\n      keccak256\n        /* \"contracts/HatToken.sol\":6406:6534  _balances[sender] = _balances[sender].sub(... */\n      swap4\n      swap1\n      swap4\n      sstore\n        /* \"contracts/HatToken.sol\":6568:6588  _balances[recipient] */\n      swap1\n      dup5\n      and\n      dup2\n      mstore\n      keccak256\n      sload\n        /* \"contracts/HatToken.sol\":6568:6600  _balances[recipient].add(amount) */\n      tag_189\n      swap1\n        /* \"contracts/HatToken.sol\":6593:6599  amount */\n      dup3\n        /* \"contracts/HatToken.sol\":6568:6592  _balances[recipient].add */\n      tag_124\n        /* \"contracts/HatToken.sol\":6568:6600  _balances[recipient].add(amount) */\n      jump\t// in\n    tag_189:\n      sub(shl(0xa0, 0x01), 0x01)\n        /* \"contracts/HatToken.sol\":6545:6565  _balances[recipient] */\n      dup1\n      dup5\n      and\n      0x00\n      dup2\n      dup2\n      mstore\n        /* \"contracts/HatToken.sol\":6545:6554  _balances */\n      0x01\n        /* \"contracts/HatToken.sol\":6545:6565  _balances[recipient] */\n      0x20\n      mstore\n      0x40\n      swap1\n      dup2\n      swap1\n      keccak256\n        /* \"contracts/HatToken.sol\":6545:6600  _balances[recipient] = _balances[recipient].add(amount) */\n      swap4\n      swap1\n      swap4\n      sstore\n        /* \"contracts/HatToken.sol\":6616:6651  Transfer(sender, recipient, amount) */\n      swap2\n      mload\n      swap1\n      dup6\n      and\n      swap1\n      0xddf252ad1be2c89b69c2b068fc378daa952ba7f163c4a11628f55a4df523b3ef\n      swap1\n      tag_180\n      swap1\n        /* \"contracts/HatToken.sol\":6644:6650  amount */\n      dup6\n        /* \"#utility.yul\":1391:1416   */\n      dup2\n      mstore\n        /* \"#utility.yul\":1379:1381   */\n      0x20\n        /* \"#utility.yul\":1364:1382   */\n      add\n      swap1\n        /* \"#utility.yul\":1245:1422   */\n      jump\n        /* \"@openzeppelin/contracts/utils/math/SafeMath.sol\":4945:5176  function sub(... */\n    tag_117:\n        /* \"@openzeppelin/contracts/utils/math/SafeMath.sol\":5061:5068  uint256 */\n      0x00\n        /* \"@openzeppelin/contracts/utils/math/SafeMath.sol\":5120:5132  errorMessage */\n      dup2\n        /* \"@openzeppelin/contracts/utils/math/SafeMath.sol\":5112:5118  b <= a */\n      dup5\n      dup5\n      gt\n      iszero\n        /* \"@openzeppelin/contracts/utils/math/SafeMath.sol\":5104:5133  require(b <= a, errorMessage) */\n      tag_192\n      jumpi\n      mload(0x40)\n      shl(0xe5, 0x461bcd)\n      dup2\n      mstore\n      0x04\n      add\n      tag_130\n      swap2\n      swap1\n      tag_27\n      jump\t// in\n    tag_192:\n      pop\n      pop\n      pop\n        /* \"@openzeppelin/contracts/utils/math/SafeMath.sol\":5154:5159  a - b */\n      swap1\n      sub\n      swap1\n        /* \"@openzeppelin/contracts/utils/math/SafeMath.sol\":4945:5176  function sub(... */\n      jump\t// out\n        /* \"@openzeppelin/contracts/utils/math/SafeMath.sol\":2741:2837  function add(uint256 a, uint256 b) internal pure returns (uint256) {... */\n    tag_124:\n        /* \"@openzeppelin/contracts/utils/math/SafeMath.sol\":2799:2806  uint256 */\n      0x00\n        /* \"@openzeppelin/contracts/utils/math/SafeMath.sol\":2825:2830  a + b */\n      tag_195\n        /* \"@openzeppelin/contracts/utils/math/SafeMath.sol\":2829:2830  b */\n      dup3\n        /* \"@openzeppelin/contracts/utils/math/SafeMath.sol\":2825:2826  a */\n      dup5\n        /* \"@openzeppelin/contracts/utils/math/SafeMath.sol\":2825:2830  a + b */\n      tag_196\n      jump\t// in\n    tag_195:\n        /* \"@openzeppelin/contracts/utils/math/SafeMath.sol\":2818:2830  return a + b */\n      swap4\n        /* \"@openzeppelin/contracts/utils/math/SafeMath.sol\":2741:2837  function add(uint256 a, uint256 b) internal pure returns (uint256) {... */\n      swap3\n      pop\n      pop\n      pop\n      jump\t// out\n        /* \"@openzeppelin/contracts/access/Ownable.sol\":2270:2457  function _transferOwnership(address newOwner) internal virtual {... */\n    tag_134:\n        /* \"@openzeppelin/contracts/access/Ownable.sol\":2343:2359  address oldOwner */\n      0x00\n        /* \"@openzeppelin/contracts/access/Ownable.sol\":2362:2368  _owner */\n      dup1\n      sload\n      sub(shl(0xa0, 0x01), 0x01)\n        /* \"@openzeppelin/contracts/access/Ownable.sol\":2378:2395  _owner = newOwner */\n      dup4\n      dup2\n      and\n      not(sub(shl(0xa0, 0x01), 0x01))\n      dup4\n      and\n      dup2\n      or\n      dup5\n      sstore\n        /* \"@openzeppelin/contracts/access/Ownable.sol\":2410:2450  OwnershipTransferred(oldOwner, newOwner) */\n      mload(0x40)\n        /* \"@openzeppelin/contracts/access/Ownable.sol\":2362:2368  _owner */\n      swap2\n      swap1\n      swap3\n      and\n      swap3\n      dup4\n      swap2\n        /* \"@openzeppelin/contracts/access/Ownable.sol\":2410:2450  OwnershipTransferred(oldOwner, newOwner) */\n      0x8be0079c531659141344cd1fd0a4f28419497f9722a3daafe3b4186f6b6457e0\n      swap2\n        /* \"@openzeppelin/contracts/access/Ownable.sol\":2343:2359  address oldOwner */\n      swap1\n        /* \"@openzeppelin/contracts/access/Ownable.sol\":2410:2450  OwnershipTransferred(oldOwner, newOwner) */\n      log3\n        /* \"@openzeppelin/contracts/access/Ownable.sol\":2333:2457  {... */\n      pop\n        /* \"@openzeppelin/contracts/access/Ownable.sol\":2270:2457  function _transferOwnership(address newOwner) internal virtual {... */\n      pop\n      jump\t// out\n        /* \"contracts/HatToken.sol\":6940:7248  function _mint(address account, uint256 amount) internal {... */\n    tag_152:\n      sub(shl(0xa0, 0x01), 0x01)\n        /* \"contracts/HatToken.sol\":7016:7037  account != address(0) */\n      dup3\n      and\n        /* \"contracts/HatToken.sol\":7008:7073  require(account != address(0), \"BEP20: mint to the zero address\") */\n      tag_199\n      jumpi\n      mload(0x40)\n      shl(0xe5, 0x461bcd)\n      dup2\n      mstore\n        /* \"#utility.yul\":7419:7421   */\n      0x20\n        /* \"contracts/HatToken.sol\":7008:7073  require(account != address(0), \"BEP20: mint to the zero address\") */\n      0x04\n      dup3\n      add\n        /* \"#utility.yul\":7401:7422   */\n      mstore\n        /* \"#utility.yul\":7458:7460   */\n      0x1f\n        /* \"#utility.yul\":7438:7456   */\n      0x24\n      dup3\n      add\n        /* \"#utility.yul\":7431:7461   */\n      mstore\n        /* \"#utility.yul\":7497:7530   */\n      0x42455032303a206d696e7420746f20746865207a65726f206164647265737300\n        /* \"#utility.yul\":7477:7495   */\n      0x44\n      dup3\n      add\n        /* \"#utility.yul\":7470:7531   */\n      mstore\n        /* \"#utility.yul\":7548:7566   */\n      0x64\n      add\n        /* \"contracts/HatToken.sol\":7008:7073  require(account != address(0), \"BEP20: mint to the zero address\") */\n      tag_130\n        /* \"#utility.yul\":7217:7572   */\n      jump\n        /* \"contracts/HatToken.sol\":7008:7073  require(account != address(0), \"BEP20: mint to the zero address\") */\n    tag_199:\n        /* \"contracts/HatToken.sol\":7101:7113  _totalSupply */\n      sload(0x05)\n        /* \"contracts/HatToken.sol\":7101:7125  _totalSupply.add(amount) */\n      tag_202\n      swap1\n        /* \"contracts/HatToken.sol\":7118:7124  amount */\n      dup3\n        /* \"contracts/HatToken.sol\":7101:7117  _totalSupply.add */\n      tag_124\n        /* \"contracts/HatToken.sol\":7101:7125  _totalSupply.add(amount) */\n      jump\t// in\n    tag_202:\n        /* \"contracts/HatToken.sol\":7086:7098  _totalSupply */\n      0x05\n        /* \"contracts/HatToken.sol\":7086:7125  _totalSupply = _totalSupply.add(amount) */\n      sstore\n      sub(shl(0xa0, 0x01), 0x01)\n        /* \"contracts/HatToken.sol\":7157:7175  _balances[account] */\n      dup3\n      and\n      0x00\n      swap1\n      dup2\n      mstore\n        /* \"contracts/HatToken.sol\":7157:7166  _balances */\n      0x01\n        /* \"contracts/HatToken.sol\":7157:7175  _balances[account] */\n      0x20\n      mstore\n      0x40\n      swap1\n      keccak256\n      sload\n        /* \"contracts/HatToken.sol\":7157:7187  _balances[account].add(amount) */\n      tag_203\n      swap1\n        /* \"contracts/HatToken.sol\":7180:7186  amount */\n      dup3\n        /* \"contracts/HatToken.sol\":7157:7179  _balances[account].add */\n      tag_124\n        /* \"contracts/HatToken.sol\":7157:7187  _balances[account].add(amount) */\n      jump\t// in\n    tag_203:\n      sub(shl(0xa0, 0x01), 0x01)\n        /* \"contracts/HatToken.sol\":7136:7154  _balances[account] */\n      dup4\n      and\n      0x00\n      dup2\n      dup2\n      mstore\n        /* \"contracts/HatToken.sol\":7136:7145  _balances */\n      0x01\n        /* \"contracts/HatToken.sol\":7136:7154  _balances[account] */\n      0x20\n      mstore\n      0x40\n      dup1\n      dup3\n      keccak256\n        /* \"contracts/HatToken.sol\":7136:7187  _balances[account] = _balances[account].add(amount) */\n      swap4\n      swap1\n      swap4\n      sstore\n        /* \"contracts/HatToken.sol\":7203:7240  Transfer(address(0), account, amount) */\n      swap2\n      mload\n        /* \"contracts/HatToken.sol\":7136:7154  _balances[account] */\n      swap1\n      swap2\n      swap1\n        /* \"contracts/HatToken.sol\":7203:7240  Transfer(address(0), account, amount) */\n      0xddf252ad1be2c89b69c2b068fc378daa952ba7f163c4a11628f55a4df523b3ef\n      swap1\n      tag_204\n      swap1\n        /* \"contracts/HatToken.sol\":7233:7239  amount */\n      dup6\n        /* \"#utility.yul\":1391:1416   */\n      dup2\n      mstore\n        /* \"#utility.yul\":1379:1381   */\n      0x20\n        /* \"#utility.yul\":1364:1382   */\n      add\n      swap1\n        /* \"#utility.yul\":1245:1422   */\n      jump\n        /* \"contracts/HatToken.sol\":7203:7240  Transfer(address(0), account, amount) */\n    tag_204:\n      mload(0x40)\n      dup1\n      swap2\n      sub\n      swap1\n      log3\n        /* \"contracts/HatToken.sol\":6940:7248  function _mint(address account, uint256 amount) internal {... */\n      pop\n      pop\n      jump\t// out\n        /* \"#utility.yul\":14:611   */\n    tag_27:\n        /* \"#utility.yul\":126:130   */\n      0x00\n        /* \"#utility.yul\":155:157   */\n      0x20\n        /* \"#utility.yul\":184:186   */\n      dup1\n        /* \"#utility.yul\":173:182   */\n      dup4\n        /* \"#utility.yul\":166:187   */\n      mstore\n        /* \"#utility.yul\":216:222   */\n      dup4\n        /* \"#utility.yul\":210:223   */\n      mload\n        /* \"#utility.yul\":259:265   */\n      dup1\n        /* \"#utility.yul\":254:256   */\n      dup3\n        /* \"#utility.yul\":243:252   */\n      dup6\n        /* \"#utility.yul\":239:257   */\n      add\n        /* \"#utility.yul\":232:266   */\n      mstore\n        /* \"#utility.yul\":284:285   */\n      0x00\n        /* \"#utility.yul\":294:434   */\n    tag_211:\n        /* \"#utility.yul\":308:314   */\n      dup2\n        /* \"#utility.yul\":305:306   */\n      dup2\n        /* \"#utility.yul\":302:315   */\n      lt\n        /* \"#utility.yul\":294:434   */\n      iszero\n      tag_213\n      jumpi\n        /* \"#utility.yul\":403:417   */\n      dup6\n      dup2\n      add\n        /* \"#utility.yul\":399:422   */\n      dup4\n      add\n        /* \"#utility.yul\":393:423   */\n      mload\n        /* \"#utility.yul\":369:386   */\n      dup6\n      dup3\n      add\n        /* \"#utility.yul\":388:390   */\n      0x40\n        /* \"#utility.yul\":365:391   */\n      add\n        /* \"#utility.yul\":358:424   */\n      mstore\n        /* \"#utility.yul\":323:333   */\n      dup3\n      add\n        /* \"#utility.yul\":294:434   */\n      jump(tag_211)\n    tag_213:\n        /* \"#utility.yul\":452:458   */\n      dup2\n        /* \"#utility.yul\":449:450   */\n      dup2\n        /* \"#utility.yul\":446:459   */\n      gt\n        /* \"#utility.yul\":443:534   */\n      iszero\n      tag_214\n      jumpi\n        /* \"#utility.yul\":522:523   */\n      0x00\n        /* \"#utility.yul\":517:519   */\n      0x40\n        /* \"#utility.yul\":508:514   */\n      dup4\n        /* \"#utility.yul\":497:506   */\n      dup8\n        /* \"#utility.yul\":493:515   */\n      add\n        /* \"#utility.yul\":489:520   */\n      add\n        /* \"#utility.yul\":482:524   */\n      mstore\n        /* \"#utility.yul\":443:534   */\n    tag_214:\n      pop\n        /* \"#utility.yul\":595:597   */\n      0x1f\n        /* \"#utility.yul\":574:589   */\n      add\n      not(0x1f)\n        /* \"#utility.yul\":570:599   */\n      and\n        /* \"#utility.yul\":555:600   */\n      swap3\n      swap1\n      swap3\n      add\n        /* \"#utility.yul\":602:604   */\n      0x40\n        /* \"#utility.yul\":551:605   */\n      add\n      swap4\n        /* \"#utility.yul\":14:611   */\n      swap3\n      pop\n      pop\n      pop\n      jump\t// out\n        /* \"#utility.yul\":616:789   */\n    tag_205:\n        /* \"#utility.yul\":684:704   */\n      dup1\n      calldataload\n      sub(shl(0xa0, 0x01), 0x01)\n        /* \"#utility.yul\":733:764   */\n      dup2\n      and\n        /* \"#utility.yul\":723:765   */\n      dup2\n      eq\n        /* \"#utility.yul\":713:783   */\n      tag_149\n      jumpi\n        /* \"#utility.yul\":779:780   */\n      0x00\n        /* \"#utility.yul\":776:777   */\n      dup1\n        /* \"#utility.yul\":769:781   */\n      revert\n        /* \"#utility.yul\":794:1048   */\n    tag_30:\n        /* \"#utility.yul\":862:868   */\n      0x00\n        /* \"#utility.yul\":870:876   */\n      dup1\n        /* \"#utility.yul\":923:925   */\n      0x40\n        /* \"#utility.yul\":911:920   */\n      dup4\n        /* \"#utility.yul\":902:909   */\n      dup6\n        /* \"#utility.yul\":898:921   */\n      sub\n        /* \"#utility.yul\":894:926   */\n      slt\n        /* \"#utility.yul\":891:943   */\n      iszero\n      tag_218\n      jumpi\n        /* \"#utility.yul\":939:940   */\n      0x00\n        /* \"#utility.yul\":936:937   */\n      dup1\n        /* \"#utility.yul\":929:941   */\n      revert\n        /* \"#utility.yul\":891:943   */\n    tag_218:\n        /* \"#utility.yul\":962:991   */\n      tag_219\n        /* \"#utility.yul\":981:990   */\n      dup4\n        /* \"#utility.yul\":962:991   */\n      tag_205\n      jump\t// in\n    tag_219:\n        /* \"#utility.yul\":952:991   */\n      swap5\n        /* \"#utility.yul\":1038:1040   */\n      0x20\n        /* \"#utility.yul\":1023:1041   */\n      swap4\n      swap1\n      swap4\n      add\n        /* \"#utility.yul\":1010:1042   */\n      calldataload\n      swap4\n      pop\n      pop\n      pop\n        /* \"#utility.yul\":794:1048   */\n      jump\t// out\n        /* \"#utility.yul\":1427:1755   */\n    tag_43:\n        /* \"#utility.yul\":1504:1510   */\n      0x00\n        /* \"#utility.yul\":1512:1518   */\n      dup1\n        /* \"#utility.yul\":1520:1526   */\n      0x00\n        /* \"#utility.yul\":1573:1575   */\n      0x60\n        /* \"#utility.yul\":1561:1570   */\n      dup5\n        /* \"#utility.yul\":1552:1559   */\n      dup7\n        /* \"#utility.yul\":1548:1571   */\n      sub\n        /* \"#utility.yul\":1544:1576   */\n      slt\n        /* \"#utility.yul\":1541:1593   */\n      iszero\n      tag_223\n      jumpi\n        /* \"#utility.yul\":1589:1590   */\n      0x00\n        /* \"#utility.yul\":1586:1587   */\n      dup1\n        /* \"#utility.yul\":1579:1591   */\n      revert\n        /* \"#utility.yul\":1541:1593   */\n    tag_223:\n        /* \"#utility.yul\":1612:1641   */\n      tag_224\n        /* \"#utility.yul\":1631:1640   */\n      dup5\n        /* \"#utility.yul\":1612:1641   */\n      tag_205\n      jump\t// in\n    tag_224:\n        /* \"#utility.yul\":1602:1641   */\n      swap3\n      pop\n        /* \"#utility.yul\":1660:1698   */\n      tag_225\n        /* \"#utility.yul\":1694:1696   */\n      0x20\n        /* \"#utility.yul\":1683:1692   */\n      dup6\n        /* \"#utility.yul\":1679:1697   */\n      add\n        /* \"#utility.yul\":1660:1698   */\n      tag_205\n      jump\t// in\n    tag_225:\n        /* \"#utility.yul\":1650:1698   */\n      swap2\n      pop\n        /* \"#utility.yul\":1745:1747   */\n      0x40\n        /* \"#utility.yul\":1734:1743   */\n      dup5\n        /* \"#utility.yul\":1730:1748   */\n      add\n        /* \"#utility.yul\":1717:1749   */\n      calldataload\n        /* \"#utility.yul\":1707:1749   */\n      swap1\n      pop\n        /* \"#utility.yul\":1427:1755   */\n      swap3\n      pop\n      swap3\n      pop\n      swap3\n      jump\t// out\n        /* \"#utility.yul\":1949:2135   */\n    tag_59:\n        /* \"#utility.yul\":2008:2014   */\n      0x00\n        /* \"#utility.yul\":2061:2063   */\n      0x20\n        /* \"#utility.yul\":2049:2058   */\n      dup3\n        /* \"#utility.yul\":2040:2047   */\n      dup5\n        /* \"#utility.yul\":2036:2059   */\n      sub\n        /* \"#utility.yul\":2032:2064   */\n      slt\n        /* \"#utility.yul\":2029:2081   */\n      iszero\n      tag_228\n      jumpi\n        /* \"#utility.yul\":2077:2078   */\n      0x00\n        /* \"#utility.yul\":2074:2075   */\n      dup1\n        /* \"#utility.yul\":2067:2079   */\n      revert\n        /* \"#utility.yul\":2029:2081   */\n    tag_228:\n        /* \"#utility.yul\":2100:2129   */\n      tag_195\n        /* \"#utility.yul\":2119:2128   */\n      dup3\n        /* \"#utility.yul\":2100:2129   */\n      tag_205\n      jump\t// in\n        /* \"#utility.yul\":2348:2528   */\n    tag_76:\n        /* \"#utility.yul\":2407:2413   */\n      0x00\n        /* \"#utility.yul\":2460:2462   */\n      0x20\n        /* \"#utility.yul\":2448:2457   */\n      dup3\n        /* \"#utility.yul\":2439:2446   */\n      dup5\n        /* \"#utility.yul\":2435:2458   */\n      sub\n        /* \"#utility.yul\":2431:2463   */\n      slt\n        /* \"#utility.yul\":2428:2480   */\n      iszero\n      tag_232\n      jumpi\n        /* \"#utility.yul\":2476:2477   */\n      0x00\n        /* \"#utility.yul\":2473:2474   */\n      dup1\n        /* \"#utility.yul\":2466:2478   */\n      revert\n        /* \"#utility.yul\":2428:2480   */\n    tag_232:\n      pop\n        /* \"#utility.yul\":2499:2522   */\n      calldataload\n      swap2\n        /* \"#utility.yul\":2348:2528   */\n      swap1\n      pop\n      jump\t// out\n        /* \"#utility.yul\":2533:2793   */\n    tag_89:\n        /* \"#utility.yul\":2601:2607   */\n      0x00\n        /* \"#utility.yul\":2609:2615   */\n      dup1\n        /* \"#utility.yul\":2662:2664   */\n      0x40\n        /* \"#utility.yul\":2650:2659   */\n      dup4\n        /* \"#utility.yul\":2641:2648   */\n      dup6\n        /* \"#utility.yul\":2637:2660   */\n      sub\n        /* \"#utility.yul\":2633:2665   */\n      slt\n        /* \"#utility.yul\":2630:2682   */\n      iszero\n      tag_234\n      jumpi\n        /* \"#utility.yul\":2678:2679   */\n      0x00\n        /* \"#utility.yul\":2675:2676   */\n      dup1\n        /* \"#utility.yul\":2668:2680   */\n      revert\n        /* \"#utility.yul\":2630:2682   */\n    tag_234:\n        /* \"#utility.yul\":2701:2730   */\n      tag_235\n        /* \"#utility.yul\":2720:2729   */\n      dup4\n        /* \"#utility.yul\":2701:2730   */\n      tag_205\n      jump\t// in\n    tag_235:\n        /* \"#utility.yul\":2691:2730   */\n      swap2\n      pop\n        /* \"#utility.yul\":2749:2787   */\n      tag_236\n        /* \"#utility.yul\":2783:2785   */\n      0x20\n        /* \"#utility.yul\":2772:2781   */\n      dup5\n        /* \"#utility.yul\":2768:2786   */\n      add\n        /* \"#utility.yul\":2749:2787   */\n      tag_205\n      jump\t// in\n    tag_236:\n        /* \"#utility.yul\":2739:2787   */\n      swap1\n      pop\n        /* \"#utility.yul\":2533:2793   */\n      swap3\n      pop\n      swap3\n      swap1\n      pop\n      jump\t// out\n        /* \"#utility.yul\":2798:3178   */\n    tag_97:\n        /* \"#utility.yul\":2877:2878   */\n      0x01\n        /* \"#utility.yul\":2873:2885   */\n      dup2\n      dup2\n      shr\n      swap1\n        /* \"#utility.yul\":2920:2932   */\n      dup3\n      and\n      dup1\n        /* \"#utility.yul\":2941:3002   */\n      tag_238\n      jumpi\n        /* \"#utility.yul\":2995:2999   */\n      0x7f\n        /* \"#utility.yul\":2987:2993   */\n      dup3\n        /* \"#utility.yul\":2983:3000   */\n      and\n        /* \"#utility.yul\":2973:3000   */\n      swap2\n      pop\n        /* \"#utility.yul\":2941:3002   */\n    tag_238:\n        /* \"#utility.yul\":3048:3050   */\n      0x20\n        /* \"#utility.yul\":3040:3046   */\n      dup3\n        /* \"#utility.yul\":3037:3051   */\n      lt\n        /* \"#utility.yul\":3017:3035   */\n      dup2\n        /* \"#utility.yul\":3014:3052   */\n      eq\n        /* \"#utility.yul\":3011:3172   */\n      iszero\n      tag_239\n      jumpi\n        /* \"#utility.yul\":3094:3104   */\n      0x4e487b71\n        /* \"#utility.yul\":3089:3092   */\n      0xe0\n        /* \"#utility.yul\":3085:3105   */\n      shl\n        /* \"#utility.yul\":3082:3083   */\n      0x00\n        /* \"#utility.yul\":3075:3106   */\n      mstore\n        /* \"#utility.yul\":3129:3133   */\n      0x22\n        /* \"#utility.yul\":3126:3127   */\n      0x04\n        /* \"#utility.yul\":3119:3134   */\n      mstore\n        /* \"#utility.yul\":3157:3161   */\n      0x24\n        /* \"#utility.yul\":3154:3155   */\n      0x00\n        /* \"#utility.yul\":3147:3162   */\n      revert\n        /* \"#utility.yul\":3011:3172   */\n    tag_239:\n      pop\n        /* \"#utility.yul\":2798:3178   */\n      swap2\n      swap1\n      pop\n      jump\t// out\n        /* \"#utility.yul\":3183:3310   */\n    tag_206:\n        /* \"#utility.yul\":3244:3254   */\n      0x4e487b71\n        /* \"#utility.yul\":3239:3242   */\n      0xe0\n        /* \"#utility.yul\":3235:3255   */\n      shl\n        /* \"#utility.yul\":3232:3233   */\n      0x00\n        /* \"#utility.yul\":3225:3256   */\n      mstore\n        /* \"#utility.yul\":3275:3279   */\n      0x11\n        /* \"#utility.yul\":3272:3273   */\n      0x04\n        /* \"#utility.yul\":3265:3280   */\n      mstore\n        /* \"#utility.yul\":3299:3303   */\n      0x24\n        /* \"#utility.yul\":3296:3297   */\n      0x00\n        /* \"#utility.yul\":3289:3304   */\n      revert\n        /* \"#utility.yul\":3315:3737   */\n    tag_207:\n        /* \"#utility.yul\":3404:3405   */\n      0x01\n        /* \"#utility.yul\":3447:3452   */\n      dup2\n        /* \"#utility.yul\":3404:3405   */\n      dup2\n        /* \"#utility.yul\":3461:3731   */\n    tag_242:\n        /* \"#utility.yul\":3482:3489   */\n      dup1\n        /* \"#utility.yul\":3472:3480   */\n      dup6\n        /* \"#utility.yul\":3469:3490   */\n      gt\n        /* \"#utility.yul\":3461:3731   */\n      iszero\n      tag_244\n      jumpi\n        /* \"#utility.yul\":3541:3545   */\n      dup2\n        /* \"#utility.yul\":3537:3538   */\n      0x00\n        /* \"#utility.yul\":3533:3539   */\n      not\n        /* \"#utility.yul\":3529:3546   */\n      div\n        /* \"#utility.yul\":3523:3527   */\n      dup3\n        /* \"#utility.yul\":3520:3547   */\n      gt\n        /* \"#utility.yul\":3517:3570   */\n      iszero\n      tag_246\n      jumpi\n        /* \"#utility.yul\":3550:3568   */\n      tag_246\n      tag_206\n      jump\t// in\n    tag_246:\n        /* \"#utility.yul\":3600:3607   */\n      dup1\n        /* \"#utility.yul\":3590:3598   */\n      dup6\n        /* \"#utility.yul\":3586:3608   */\n      and\n        /* \"#utility.yul\":3583:3638   */\n      iszero\n      tag_247\n      jumpi\n        /* \"#utility.yul\":3620:3636   */\n      swap2\n      dup2\n      mul\n      swap2\n        /* \"#utility.yul\":3583:3638   */\n    tag_247:\n        /* \"#utility.yul\":3699:3721   */\n      swap4\n      dup5\n      shr\n      swap4\n        /* \"#utility.yul\":3659:3674   */\n      swap1\n      dup1\n      mul\n      swap1\n        /* \"#utility.yul\":3461:3731   */\n      jump(tag_242)\n    tag_244:\n        /* \"#utility.yul\":3465:3468   */\n      pop\n        /* \"#utility.yul\":3315:3737   */\n      swap3\n      pop\n      swap3\n      swap1\n      pop\n      jump\t// out\n        /* \"#utility.yul\":3742:4548   */\n    tag_208:\n        /* \"#utility.yul\":3791:3796   */\n      0x00\n        /* \"#utility.yul\":3821:3829   */\n      dup3\n        /* \"#utility.yul\":3811:3891   */\n      tag_249\n      jumpi\n      pop\n        /* \"#utility.yul\":3862:3863   */\n      0x01\n        /* \"#utility.yul\":3876:3881   */\n      jump(tag_102)\n        /* \"#utility.yul\":3811:3891   */\n    tag_249:\n        /* \"#utility.yul\":3910:3914   */\n      dup2\n        /* \"#utility.yul\":3900:3976   */\n      tag_250\n      jumpi\n      pop\n        /* \"#utility.yul\":3947:3948   */\n      0x00\n        /* \"#utility.yul\":3961:3966   */\n      jump(tag_102)\n        /* \"#utility.yul\":3900:3976   */\n    tag_250:\n        /* \"#utility.yul\":3992:3996   */\n      dup2\n        /* \"#utility.yul\":4010:4011   */\n      0x01\n        /* \"#utility.yul\":4005:4064   */\n      dup2\n      eq\n      tag_252\n      jumpi\n        /* \"#utility.yul\":4078:4079   */\n      0x02\n        /* \"#utility.yul\":4073:4203   */\n      dup2\n      eq\n      tag_253\n      jumpi\n        /* \"#utility.yul\":3985:4203   */\n      jump(tag_251)\n        /* \"#utility.yul\":4005:4064   */\n    tag_252:\n        /* \"#utility.yul\":4035:4036   */\n      0x01\n        /* \"#utility.yul\":4026:4036   */\n      swap2\n      pop\n        /* \"#utility.yul\":4049:4054   */\n      pop\n      jump(tag_102)\n        /* \"#utility.yul\":4073:4203   */\n    tag_253:\n        /* \"#utility.yul\":4110:4113   */\n      0xff\n        /* \"#utility.yul\":4100:4108   */\n      dup5\n        /* \"#utility.yul\":4097:4114   */\n      gt\n        /* \"#utility.yul\":4094:4137   */\n      iszero\n      tag_255\n      jumpi\n        /* \"#utility.yul\":4117:4135   */\n      tag_255\n      tag_206\n      jump\t// in\n    tag_255:\n      pop\n      pop\n        /* \"#utility.yul\":4173:4174   */\n      0x01\n        /* \"#utility.yul\":4159:4175   */\n      dup3\n      shl\n        /* \"#utility.yul\":4188:4193   */\n      jump(tag_102)\n        /* \"#utility.yul\":3985:4203   */\n    tag_251:\n      pop\n        /* \"#utility.yul\":4287:4289   */\n      0x20\n        /* \"#utility.yul\":4277:4285   */\n      dup4\n        /* \"#utility.yul\":4274:4290   */\n      lt\n        /* \"#utility.yul\":4268:4271   */\n      0x0133\n        /* \"#utility.yul\":4262:4266   */\n      dup4\n        /* \"#utility.yul\":4259:4272   */\n      lt\n        /* \"#utility.yul\":4255:4291   */\n      and\n        /* \"#utility.yul\":4249:4251   */\n      0x4e\n        /* \"#utility.yul\":4239:4247   */\n      dup5\n        /* \"#utility.yul\":4236:4252   */\n      lt\n        /* \"#utility.yul\":4231:4233   */\n      0x0b\n        /* \"#utility.yul\":4225:4229   */\n      dup5\n        /* \"#utility.yul\":4222:4234   */\n      lt\n        /* \"#utility.yul\":4218:4253   */\n      and\n        /* \"#utility.yul\":4215:4292   */\n      or\n        /* \"#utility.yul\":4212:4371   */\n      iszero\n      tag_256\n      jumpi\n      pop\n        /* \"#utility.yul\":4324:4343   */\n      dup2\n      dup2\n      exp\n        /* \"#utility.yul\":4356:4361   */\n      jump(tag_102)\n        /* \"#utility.yul\":4212:4371   */\n    tag_256:\n        /* \"#utility.yul\":4403:4437   */\n      tag_257\n        /* \"#utility.yul\":4428:4436   */\n      dup4\n        /* \"#utility.yul\":4422:4426   */\n      dup4\n        /* \"#utility.yul\":4403:4437   */\n      tag_207\n      jump\t// in\n    tag_257:\n        /* \"#utility.yul\":4473:4479   */\n      dup1\n        /* \"#utility.yul\":4469:4470   */\n      0x00\n        /* \"#utility.yul\":4465:4471   */\n      not\n        /* \"#utility.yul\":4461:4480   */\n      div\n        /* \"#utility.yul\":4452:4459   */\n      dup3\n        /* \"#utility.yul\":4449:4481   */\n      gt\n        /* \"#utility.yul\":4446:4504   */\n      iszero\n      tag_259\n      jumpi\n        /* \"#utility.yul\":4484:4502   */\n      tag_259\n      tag_206\n      jump\t// in\n    tag_259:\n        /* \"#utility.yul\":4522:4542   */\n      mul\n      swap4\n        /* \"#utility.yul\":3742:4548   */\n      swap3\n      pop\n      pop\n      pop\n      jump\t// out\n        /* \"#utility.yul\":4553:4693   */\n    tag_109:\n        /* \"#utility.yul\":4611:4616   */\n      0x00\n        /* \"#utility.yul\":4640:4687   */\n      tag_195\n        /* \"#utility.yul\":4681:4685   */\n      0xff\n        /* \"#utility.yul\":4671:4679   */\n      dup5\n        /* \"#utility.yul\":4667:4686   */\n      and\n        /* \"#utility.yul\":4661:4665   */\n      dup4\n        /* \"#utility.yul\":4640:4687   */\n      tag_208\n      jump\t// in\n        /* \"#utility.yul\":4698:5054   */\n    tag_131:\n        /* \"#utility.yul\":4900:4902   */\n      0x20\n        /* \"#utility.yul\":4882:4903   */\n      dup1\n      dup3\n      mstore\n        /* \"#utility.yul\":4919:4937   */\n      dup2\n      dup2\n      add\n        /* \"#utility.yul\":4912:4942   */\n      mstore\n        /* \"#utility.yul\":4978:5012   */\n      0x4f776e61626c653a2063616c6c6572206973206e6f7420746865206f776e6572\n        /* \"#utility.yul\":4973:4975   */\n      0x40\n        /* \"#utility.yul\":4958:4976   */\n      dup3\n      add\n        /* \"#utility.yul\":4951:5013   */\n      mstore\n        /* \"#utility.yul\":5045:5047   */\n      0x60\n        /* \"#utility.yul\":5030:5048   */\n      add\n      swap1\n        /* \"#utility.yul\":4698:5054   */\n      jump\t// out\n        /* \"#utility.yul\":7084:7212   */\n    tag_196:\n        /* \"#utility.yul\":7124:7127   */\n      0x00\n        /* \"#utility.yul\":7155:7156   */\n      dup3\n        /* \"#utility.yul\":7151:7157   */\n      not\n        /* \"#utility.yul\":7148:7149   */\n      dup3\n        /* \"#utility.yul\":7145:7158   */\n      gt\n        /* \"#utility.yul\":7142:7181   */\n      iszero\n      tag_270\n      jumpi\n        /* \"#utility.yul\":7161:7179   */\n      tag_270\n      tag_206\n      jump\t// in\n    tag_270:\n      pop\n        /* \"#utility.yul\":7197:7206   */\n      add\n      swap1\n        /* \"#utility.yul\":7084:7212   */\n      jump\t// out\n    stop\n    data_4f3506f4ba71c79c3cbd442a3afeb30e9b27af2d84e116a4385b34e267d2287e 42455032303a207472616e7366657220616d6f756e74206578636565647320616c6c6f77616e6365\n    data_a91efd7a65ef5b4ae4d6568d674798b78a5a89184dd296c100513251c22d3e73 42455032303a207472616e7366657220616d6f756e7420657863656564732062616c616e6365\n    data_b7060b3538dcd3ddc8a941c91636a8115a1aa46914747fd9809d543bbb46cd22 42455032303a2064656372656173656420616c6c6f77616e63652062656c6f77207a65726f\n\n    auxdata: 0xa26469706673582212204e5c57c12ded88d1b8cc4cd4f2999f9e5c4c1cdcd1a75a825178ee0f5ae0494b64736f6c634300080b0033\n}\n",
				"bytecode": {
					"linkReferences": {},
					"object": "60806040523480156200001157600080fd5b506200001d33620000f6565b604080518082019091526011808252702432b9379020bbb0b5b2b7102a37b5b2b760791b6020909201918252620000579160039162000146565b506040805180820190915260038082526212105560ea1b6020909201918252620000849160049162000146565b50620000936012600a62000301565b620000a390633b9aca0062000319565b600581905533600081815260016020908152604080832085905551938452919290917fddf252ad1be2c89b69c2b068fc378daa952ba7f163c4a11628f55a4df523b3ef910160405180910390a362000378565b600080546001600160a01b038381166001600160a01b0319831681178455604051919092169283917f8be0079c531659141344cd1fd0a4f28419497f9722a3daafe3b4186f6b6457e09190a35050565b82805462000154906200033b565b90600052602060002090601f016020900481019282620001785760008555620001c3565b82601f106200019357805160ff1916838001178555620001c3565b82800160010185558215620001c3579182015b82811115620001c3578251825591602001919060010190620001a6565b50620001d1929150620001d5565b5090565b5b80821115620001d15760008155600101620001d6565b634e487b7160e01b600052601160045260246000fd5b600181815b8085111562000243578160001904821115620002275762000227620001ec565b808516156200023557918102915b93841c939080029062000207565b509250929050565b6000826200025c57506001620002fb565b816200026b57506000620002fb565b81600181146200028457600281146200028f57620002af565b6001915050620002fb565b60ff841115620002a357620002a3620001ec565b50506001821b620002fb565b5060208310610133831016604e8410600b8410161715620002d4575081810a620002fb565b620002e0838362000202565b8060001904821115620002f757620002f7620001ec565b0290505b92915050565b60006200031260ff8416836200024b565b9392505050565b6000816000190483118215151615620003365762000336620001ec565b500290565b600181811c908216806200035057607f821691505b602082108114156200037257634e487b7160e01b600052602260045260246000fd5b50919050565b610d2080620003886000396000f3fe608060405234801561001057600080fd5b50600436106101165760003560e01c8063715018a6116100a2578063a0712d6811610071578063a0712d681461022e578063a457c2d714610241578063a9059cbb14610254578063dd62ed3e14610267578063f2fde38b146102a057600080fd5b8063715018a6146101e6578063893d20e8146101f05780638da5cb5b1461021557806395d89b411461022657600080fd5b806323b872dd116100e957806323b872dd146101765780632e0f262514610189578063313ce567146101a357806339509351146101aa57806370a08231146101bd57600080fd5b806306fdde031461011b578063095ea7b31461013957806318160ddd1461015c5780631aef80581461016e575b600080fd5b6101236102b3565b60405161013091906109ad565b60405180910390f35b61014c610147366004610a19565b610345565b6040519015158152602001610130565b6005545b604051908152602001610130565b61016061035c565b61014c610184366004610a43565b61036b565b610191601281565b60405160ff9091168152602001610130565b6012610191565b61014c6101b8366004610a19565b6103d4565b6101606101cb366004610a7f565b6001600160a01b031660009081526001602052604090205490565b6101ee61040a565b005b6000546001600160a01b03165b6040516001600160a01b039091168152602001610130565b6000546001600160a01b03166101fd565b610123610449565b61014c61023c366004610a9a565b610458565b61014c61024f366004610a19565b610496565b61014c610262366004610a19565b6104e5565b610160610275366004610ab3565b6001600160a01b03918216600090815260026020908152604080832093909416825291909152205490565b6101ee6102ae366004610a7f565b6104f2565b6060600380546102c290610ae6565b80601f01602080910402602001604051908101604052809291908181526020018280546102ee90610ae6565b801561033b5780601f106103105761010080835404028352916020019161033b565b820191906000526020600020905b81548152906001019060200180831161031e57829003601f168201915b5050505050905090565b600061035233848461058d565b5060015b92915050565b6103686012600a610c1b565b81565b60006103788484846106b2565b6103ca84336103c585604051806060016040528060288152602001610c78602891396001600160a01b038a1660009081526002602090815260408083203384529091529020549190610838565b61058d565b5060019392505050565b3360008181526002602090815260408083206001600160a01b038716845290915281205490916103529185906103c59086610864565b6000546001600160a01b0316331461043d5760405162461bcd60e51b815260040161043490610c2a565b60405180910390fd5b6104476000610877565b565b6060600480546102c290610ae6565b600080546001600160a01b031633146104835760405162461bcd60e51b815260040161043490610c2a565b61048d33836108c7565b5060015b919050565b600061035233846103c585604051806060016040528060258152602001610cc6602591393360009081526002602090815260408083206001600160a01b038d1684529091529020549190610838565b60006103523384846106b2565b6000546001600160a01b0316331461051c5760405162461bcd60e51b815260040161043490610c2a565b6001600160a01b0381166105815760405162461bcd60e51b815260206004820152602660248201527f4f776e61626c653a206e6577206f776e657220697320746865207a65726f206160448201526564647265737360d01b6064820152608401610434565b61058a81610877565b50565b6001600160a01b0383166105ef5760405162461bcd60e51b8152602060048201526024808201527f42455032303a20617070726f76652066726f6d20746865207a65726f206164646044820152637265737360e01b6064820152608401610434565b6001600160a01b0382166106505760405162461bcd60e51b815260206004820152602260248201527f42455032303a20617070726f766520746f20746865207a65726f206164647265604482015261737360f01b6064820152608401610434565b6001600160a01b0383811660008181526002602090815260408083209487168084529482529182902085905590518481527f8c5be1e5ebec7d5bd14f71427d1e84f3dd0314c0f7b2291e5b200ac8c7c3b92591015b60405180910390a3505050565b6001600160a01b0383166107165760405162461bcd60e51b815260206004820152602560248201527f42455032303a207472616e736665722066726f6d20746865207a65726f206164604482015264647265737360d81b6064820152608401610434565b6001600160a01b0382166107785760405162461bcd60e51b815260206004820152602360248201527f42455032303a207472616e7366657220746f20746865207a65726f206164647260448201526265737360e81b6064820152608401610434565b6107b581604051806060016040528060268152602001610ca0602691396001600160a01b0386166000908152600160205260409020549190610838565b6001600160a01b0380851660009081526001602052604080822093909355908416815220546107e49082610864565b6001600160a01b0380841660008181526001602052604090819020939093559151908516907fddf252ad1be2c89b69c2b068fc378daa952ba7f163c4a11628f55a4df523b3ef906106a59085815260200190565b6000818484111561085c5760405162461bcd60e51b815260040161043491906109ad565b505050900390565b60006108708284610c5f565b9392505050565b600080546001600160a01b038381166001600160a01b0319831681178455604051919092169283917f8be0079c531659141344cd1fd0a4f28419497f9722a3daafe3b4186f6b6457e09190a35050565b6001600160a01b03821661091d5760405162461bcd60e51b815260206004820152601f60248201527f42455032303a206d696e7420746f20746865207a65726f2061646472657373006044820152606401610434565b60055461092a9082610864565b6005556001600160a01b0382166000908152600160205260409020546109509082610864565b6001600160a01b0383166000818152600160205260408082209390935591519091907fddf252ad1be2c89b69c2b068fc378daa952ba7f163c4a11628f55a4df523b3ef906109a19085815260200190565b60405180910390a35050565b600060208083528351808285015260005b818110156109da578581018301518582016040015282016109be565b818111156109ec576000604083870101525b50601f01601f1916929092016040019392505050565b80356001600160a01b038116811461049157600080fd5b60008060408385031215610a2c57600080fd5b610a3583610a02565b946020939093013593505050565b600080600060608486031215610a5857600080fd5b610a6184610a02565b9250610a6f60208501610a02565b9150604084013590509250925092565b600060208284031215610a9157600080fd5b61087082610a02565b600060208284031215610aac57600080fd5b5035919050565b60008060408385031215610ac657600080fd5b610acf83610a02565b9150610add60208401610a02565b90509250929050565b600181811c90821680610afa57607f821691505b60208210811415610b1b57634e487b7160e01b600052602260045260246000fd5b50919050565b634e487b7160e01b600052601160045260246000fd5b600181815b80851115610b72578160001904821115610b5857610b58610b21565b80851615610b6557918102915b93841c9390800290610b3c565b509250929050565b600082610b8957506001610356565b81610b9657506000610356565b8160018114610bac5760028114610bb657610bd2565b6001915050610356565b60ff841115610bc757610bc7610b21565b50506001821b610356565b5060208310610133831016604e8410600b8410161715610bf5575081810a610356565b610bff8383610b37565b8060001904821115610c1357610c13610b21565b029392505050565b600061087060ff841683610b7a565b6020808252818101527f4f776e61626c653a2063616c6c6572206973206e6f7420746865206f776e6572604082015260600190565b60008219821115610c7257610c72610b21565b50019056fe42455032303a207472616e7366657220616d6f756e74206578636565647320616c6c6f77616e636542455032303a207472616e7366657220616d6f756e7420657863656564732062616c616e636542455032303a2064656372656173656420616c6c6f77616e63652062656c6f77207a65726fa26469706673582212204e5c57c12ded88d1b8cc4cd4f2999f9e5c4c1cdcd1a75a825178ee0f5ae0494b64736f6c634300080b0033",
					"opcodes": "PUSH1 0x80 PUSH1 0x40 MSTORE CALLVALUE DUP1 ISZERO PUSH3 0x11 JUMPI PUSH1 0x0 DUP1 REVERT JUMPDEST POP PUSH3 0x1D CALLER PUSH3 0xF6 JUMP JUMPDEST PUSH1 0x40 DUP1 MLOAD DUP1 DUP3 ADD SWAP1 SWAP2 MSTORE PUSH1 0x11 DUP1 DUP3 MSTORE PUSH17 0x2432B9379020BBB0B5B2B7102A37B5B2B7 PUSH1 0x79 SHL PUSH1 0x20 SWAP1 SWAP3 ADD SWAP2 DUP3 MSTORE PUSH3 0x57 SWAP2 PUSH1 0x3 SWAP2 PUSH3 0x146 JUMP JUMPDEST POP PUSH1 0x40 DUP1 MLOAD DUP1 DUP3 ADD SWAP1 SWAP2 MSTORE PUSH1 0x3 DUP1 DUP3 MSTORE PUSH3 0x121055 PUSH1 0xEA SHL PUSH1 0x20 SWAP1 SWAP3 ADD SWAP2 DUP3 MSTORE PUSH3 0x84 SWAP2 PUSH1 0x4 SWAP2 PUSH3 0x146 JUMP JUMPDEST POP PUSH3 0x93 PUSH1 0x12 PUSH1 0xA PUSH3 0x301 JUMP JUMPDEST PUSH3 0xA3 SWAP1 PUSH4 0x3B9ACA00 PUSH3 0x319 JUMP JUMPDEST PUSH1 0x5 DUP2 SWAP1 SSTORE CALLER PUSH1 0x0 DUP2 DUP2 MSTORE PUSH1 0x1 PUSH1 0x20 SWAP1 DUP2 MSTORE PUSH1 0x40 DUP1 DUP4 KECCAK256 DUP6 SWAP1 SSTORE MLOAD SWAP4 DUP5 MSTORE SWAP2 SWAP3 SWAP1 SWAP2 PUSH32 0xDDF252AD1BE2C89B69C2B068FC378DAA952BA7F163C4A11628F55A4DF523B3EF SWAP2 ADD PUSH1 0x40 MLOAD DUP1 SWAP2 SUB SWAP1 LOG3 PUSH3 0x378 JUMP JUMPDEST PUSH1 0x0 DUP1 SLOAD PUSH1 0x1 PUSH1 0x1 PUSH1 0xA0 SHL SUB DUP4 DUP2 AND PUSH1 0x1 PUSH1 0x1 PUSH1 0xA0 SHL SUB NOT DUP4 AND DUP2 OR DUP5 SSTORE PUSH1 0x40 MLOAD SWAP2 SWAP1 SWAP3 AND SWAP3 DUP4 SWAP2 PUSH32 0x8BE0079C531659141344CD1FD0A4F28419497F9722A3DAAFE3B4186F6B6457E0 SWAP2 SWAP1 LOG3 POP POP JUMP JUMPDEST DUP3 DUP1 SLOAD PUSH3 0x154 SWAP1 PUSH3 0x33B JUMP JUMPDEST SWAP1 PUSH1 0x0 MSTORE PUSH1 0x20 PUSH1 0x0 KECCAK256 SWAP1 PUSH1 0x1F ADD PUSH1 0x20 SWAP1 DIV DUP2 ADD SWAP3 DUP3 PUSH3 0x178 JUMPI PUSH1 0x0 DUP6 SSTORE PUSH3 0x1C3 JUMP JUMPDEST DUP3 PUSH1 0x1F LT PUSH3 0x193 JUMPI DUP1 MLOAD PUSH1 0xFF NOT AND DUP4 DUP1 ADD OR DUP6 SSTORE PUSH3 0x1C3 JUMP JUMPDEST DUP3 DUP1 ADD PUSH1 0x1 ADD DUP6 SSTORE DUP3 ISZERO PUSH3 0x1C3 JUMPI SWAP2 DUP3 ADD JUMPDEST DUP3 DUP2 GT ISZERO PUSH3 0x1C3 JUMPI DUP3 MLOAD DUP3 SSTORE SWAP2 PUSH1 0x20 ADD SWAP2 SWAP1 PUSH1 0x1 ADD SWAP1 PUSH3 0x1A6 JUMP JUMPDEST POP PUSH3 0x1D1 SWAP3 SWAP2 POP PUSH3 0x1D5 JUMP JUMPDEST POP SWAP1 JUMP JUMPDEST JUMPDEST DUP1 DUP3 GT ISZERO PUSH3 0x1D1 JUMPI PUSH1 0x0 DUP2 SSTORE PUSH1 0x1 ADD PUSH3 0x1D6 JUMP JUMPDEST PUSH4 0x4E487B71 PUSH1 0xE0 SHL PUSH1 0x0 MSTORE PUSH1 0x11 PUSH1 0x4 MSTORE PUSH1 0x24 PUSH1 0x0 REVERT JUMPDEST PUSH1 0x1 DUP2 DUP2 JUMPDEST DUP1 DUP6 GT ISZERO PUSH3 0x243 JUMPI DUP2 PUSH1 0x0 NOT DIV DUP3 GT ISZERO PUSH3 0x227 JUMPI PUSH3 0x227 PUSH3 0x1EC JUMP JUMPDEST DUP1 DUP6 AND ISZERO PUSH3 0x235 JUMPI SWAP2 DUP2 MUL SWAP2 JUMPDEST SWAP4 DUP5 SHR SWAP4 SWAP1 DUP1 MUL SWAP1 PUSH3 0x207 JUMP JUMPDEST POP SWAP3 POP SWAP3 SWAP1 POP JUMP JUMPDEST PUSH1 0x0 DUP3 PUSH3 0x25C JUMPI POP PUSH1 0x1 PUSH3 0x2FB JUMP JUMPDEST DUP2 PUSH3 0x26B JUMPI POP PUSH1 0x0 PUSH3 0x2FB JUMP JUMPDEST DUP2 PUSH1 0x1 DUP2 EQ PUSH3 0x284 JUMPI PUSH1 0x2 DUP2 EQ PUSH3 0x28F JUMPI PUSH3 0x2AF JUMP JUMPDEST PUSH1 0x1 SWAP2 POP POP PUSH3 0x2FB JUMP JUMPDEST PUSH1 0xFF DUP5 GT ISZERO PUSH3 0x2A3 JUMPI PUSH3 0x2A3 PUSH3 0x1EC JUMP JUMPDEST POP POP PUSH1 0x1 DUP3 SHL PUSH3 0x2FB JUMP JUMPDEST POP PUSH1 0x20 DUP4 LT PUSH2 0x133 DUP4 LT AND PUSH1 0x4E DUP5 LT PUSH1 0xB DUP5 LT AND OR ISZERO PUSH3 0x2D4 JUMPI POP DUP2 DUP2 EXP PUSH3 0x2FB JUMP JUMPDEST PUSH3 0x2E0 DUP4 DUP4 PUSH3 0x202 JUMP JUMPDEST DUP1 PUSH1 0x0 NOT DIV DUP3 GT ISZERO PUSH3 0x2F7 JUMPI PUSH3 0x2F7 PUSH3 0x1EC JUMP JUMPDEST MUL SWAP1 POP JUMPDEST SWAP3 SWAP2 POP POP JUMP JUMPDEST PUSH1 0x0 PUSH3 0x312 PUSH1 0xFF DUP5 AND DUP4 PUSH3 0x24B JUMP JUMPDEST SWAP4 SWAP3 POP POP POP JUMP JUMPDEST PUSH1 0x0 DUP2 PUSH1 0x0 NOT DIV DUP4 GT DUP3 ISZERO ISZERO AND ISZERO PUSH3 0x336 JUMPI PUSH3 0x336 PUSH3 0x1EC JUMP JUMPDEST POP MUL SWAP1 JUMP JUMPDEST PUSH1 0x1 DUP2 DUP2 SHR SWAP1 DUP3 AND DUP1 PUSH3 0x350 JUMPI PUSH1 0x7F DUP3 AND SWAP2 POP JUMPDEST PUSH1 0x20 DUP3 LT DUP2 EQ ISZERO PUSH3 0x372 JUMPI PUSH4 0x4E487B71 PUSH1 0xE0 SHL PUSH1 0x0 MSTORE PUSH1 0x22 PUSH1 0x4 MSTORE PUSH1 0x24 PUSH1 0x0 REVERT JUMPDEST POP SWAP2 SWAP1 POP JUMP JUMPDEST PUSH2 0xD20 DUP1 PUSH3 0x388 PUSH1 0x0 CODECOPY PUSH1 0x0 RETURN INVALID PUSH1 0x80 PUSH1 0x40 MSTORE CALLVALUE DUP1 ISZERO PUSH2 0x10 JUMPI PUSH1 0x0 DUP1 REVERT JUMPDEST POP PUSH1 0x4 CALLDATASIZE LT PUSH2 0x116 JUMPI PUSH1 0x0 CALLDATALOAD PUSH1 0xE0 SHR DUP1 PUSH4 0x715018A6 GT PUSH2 0xA2 JUMPI DUP1 PUSH4 0xA0712D68 GT PUSH2 0x71 JUMPI DUP1 PUSH4 0xA0712D68 EQ PUSH2 0x22E JUMPI DUP1 PUSH4 0xA457C2D7 EQ PUSH2 0x241 JUMPI DUP1 PUSH4 0xA9059CBB EQ PUSH2 0x254 JUMPI DUP1 PUSH4 0xDD62ED3E EQ PUSH2 0x267 JUMPI DUP1 PUSH4 0xF2FDE38B EQ PUSH2 0x2A0 JUMPI PUSH1 0x0 DUP1 REVERT JUMPDEST DUP1 PUSH4 0x715018A6 EQ PUSH2 0x1E6 JUMPI DUP1 PUSH4 0x893D20E8 EQ PUSH2 0x1F0 JUMPI DUP1 PUSH4 0x8DA5CB5B EQ PUSH2 0x215 JUMPI DUP1 PUSH4 0x95D89B41 EQ PUSH2 0x226 JUMPI PUSH1 0x0 DUP1 REVERT JUMPDEST DUP1 PUSH4 0x23B872DD GT PUSH2 0xE9 JUMPI DUP1 PUSH4 0x23B872DD EQ PUSH2 0x176 JUMPI DUP1 PUSH4 0x2E0F2625 EQ PUSH2 0x189 JUMPI DUP1 PUSH4 0x313CE567 EQ PUSH2 0x1A3 JUMPI DUP1 PUSH4 0x39509351 EQ PUSH2 0x1AA JUMPI DUP1 PUSH4 0x70A08231 EQ PUSH2 0x1BD JUMPI PUSH1 0x0 DUP1 REVERT JUMPDEST DUP1 PUSH4 0x6FDDE03 EQ PUSH2 0x11B JUMPI DUP1 PUSH4 0x95EA7B3 EQ PUSH2 0x139 JUMPI DUP1 PUSH4 0x18160DDD EQ PUSH2 0x15C JUMPI DUP1 PUSH4 0x1AEF8058 EQ PUSH2 0x16E JUMPI JUMPDEST PUSH1 0x0 DUP1 REVERT JUMPDEST PUSH2 0x123 PUSH2 0x2B3 JUMP JUMPDEST PUSH1 0x40 MLOAD PUSH2 0x130 SWAP2 SWAP1 PUSH2 0x9AD JUMP JUMPDEST PUSH1 0x40 MLOAD DUP1 SWAP2 SUB SWAP1 RETURN JUMPDEST PUSH2 0x14C PUSH2 0x147 CALLDATASIZE PUSH1 0x4 PUSH2 0xA19 JUMP JUMPDEST PUSH2 0x345 JUMP JUMPDEST PUSH1 0x40 MLOAD SWAP1 ISZERO ISZERO DUP2 MSTORE PUSH1 0x20 ADD PUSH2 0x130 JUMP JUMPDEST PUSH1 0x5 SLOAD JUMPDEST PUSH1 0x40 MLOAD SWAP1 DUP2 MSTORE PUSH1 0x20 ADD PUSH2 0x130 JUMP JUMPDEST PUSH2 0x160 PUSH2 0x35C JUMP JUMPDEST PUSH2 0x14C PUSH2 0x184 CALLDATASIZE PUSH1 0x4 PUSH2 0xA43 JUMP JUMPDEST PUSH2 0x36B JUMP JUMPDEST PUSH2 0x191 PUSH1 0x12 DUP2 JUMP JUMPDEST PUSH1 0x40 MLOAD PUSH1 0xFF SWAP1 SWAP2 AND DUP2 MSTORE PUSH1 0x20 ADD PUSH2 0x130 JUMP JUMPDEST PUSH1 0x12 PUSH2 0x191 JUMP JUMPDEST PUSH2 0x14C PUSH2 0x1B8 CALLDATASIZE PUSH1 0x4 PUSH2 0xA19 JUMP JUMPDEST PUSH2 0x3D4 JUMP JUMPDEST PUSH2 0x160 PUSH2 0x1CB CALLDATASIZE PUSH1 0x4 PUSH2 0xA7F JUMP JUMPDEST PUSH1 0x1 PUSH1 0x1 PUSH1 0xA0 SHL SUB AND PUSH1 0x0 SWAP1 DUP2 MSTORE PUSH1 0x1 PUSH1 0x20 MSTORE PUSH1 0x40 SWAP1 KECCAK256 SLOAD SWAP1 JUMP JUMPDEST PUSH2 0x1EE PUSH2 0x40A JUMP JUMPDEST STOP JUMPDEST PUSH1 0x0 SLOAD PUSH1 0x1 PUSH1 0x1 PUSH1 0xA0 SHL SUB AND JUMPDEST PUSH1 0x40 MLOAD PUSH1 0x1 PUSH1 0x1 PUSH1 0xA0 SHL SUB SWAP1 SWAP2 AND DUP2 MSTORE PUSH1 0x20 ADD PUSH2 0x130 JUMP JUMPDEST PUSH1 0x0 SLOAD PUSH1 0x1 PUSH1 0x1 PUSH1 0xA0 SHL SUB AND PUSH2 0x1FD JUMP JUMPDEST PUSH2 0x123 PUSH2 0x449 JUMP JUMPDEST PUSH2 0x14C PUSH2 0x23C CALLDATASIZE PUSH1 0x4 PUSH2 0xA9A JUMP JUMPDEST PUSH2 0x458 JUMP JUMPDEST PUSH2 0x14C PUSH2 0x24F CALLDATASIZE PUSH1 0x4 PUSH2 0xA19 JUMP JUMPDEST PUSH2 0x496 JUMP JUMPDEST PUSH2 0x14C PUSH2 0x262 CALLDATASIZE PUSH1 0x4 PUSH2 0xA19 JUMP JUMPDEST PUSH2 0x4E5 JUMP JUMPDEST PUSH2 0x160 PUSH2 0x275 CALLDATASIZE PUSH1 0x4 PUSH2 0xAB3 JUMP JUMPDEST PUSH1 0x1 PUSH1 0x1 PUSH1 0xA0 SHL SUB SWAP2 DUP3 AND PUSH1 0x0 SWAP1 DUP2 MSTORE PUSH1 0x2 PUSH1 0x20 SWAP1 DUP2 MSTORE PUSH1 0x40 DUP1 DUP4 KECCAK256 SWAP4 SWAP1 SWAP5 AND DUP3 MSTORE SWAP2 SWAP1 SWAP2 MSTORE KECCAK256 SLOAD SWAP1 JUMP JUMPDEST PUSH2 0x1EE PUSH2 0x2AE CALLDATASIZE PUSH1 0x4 PUSH2 0xA7F JUMP JUMPDEST PUSH2 0x4F2 JUMP JUMPDEST PUSH1 0x60 PUSH1 0x3 DUP1 SLOAD PUSH2 0x2C2 SWAP1 PUSH2 0xAE6 JUMP JUMPDEST DUP1 PUSH1 0x1F ADD PUSH1 0x20 DUP1 SWAP2 DIV MUL PUSH1 0x20 ADD PUSH1 0x40 MLOAD SWAP1 DUP2 ADD PUSH1 0x40 MSTORE DUP1 SWAP3 SWAP2 SWAP1 DUP2 DUP2 MSTORE PUSH1 0x20 ADD DUP3 DUP1 SLOAD PUSH2 0x2EE SWAP1 PUSH2 0xAE6 JUMP JUMPDEST DUP1 ISZERO PUSH2 0x33B JUMPI DUP1 PUSH1 0x1F LT PUSH2 0x310 JUMPI PUSH2 0x100 DUP1 DUP4 SLOAD DIV MUL DUP4 MSTORE SWAP2 PUSH1 0x20 ADD SWAP2 PUSH2 0x33B JUMP JUMPDEST DUP3 ADD SWAP2 SWAP1 PUSH1 0x0 MSTORE PUSH1 0x20 PUSH1 0x0 KECCAK256 SWAP1 JUMPDEST DUP2 SLOAD DUP2 MSTORE SWAP1 PUSH1 0x1 ADD SWAP1 PUSH1 0x20 ADD DUP1 DUP4 GT PUSH2 0x31E JUMPI DUP3 SWAP1 SUB PUSH1 0x1F AND DUP3 ADD SWAP2 JUMPDEST POP POP POP POP POP SWAP1 POP SWAP1 JUMP JUMPDEST PUSH1 0x0 PUSH2 0x352 CALLER DUP5 DUP5 PUSH2 0x58D JUMP JUMPDEST POP PUSH1 0x1 JUMPDEST SWAP3 SWAP2 POP POP JUMP JUMPDEST PUSH2 0x368 PUSH1 0x12 PUSH1 0xA PUSH2 0xC1B JUMP JUMPDEST DUP2 JUMP JUMPDEST PUSH1 0x0 PUSH2 0x378 DUP5 DUP5 DUP5 PUSH2 0x6B2 JUMP JUMPDEST PUSH2 0x3CA DUP5 CALLER PUSH2 0x3C5 DUP6 PUSH1 0x40 MLOAD DUP1 PUSH1 0x60 ADD PUSH1 0x40 MSTORE DUP1 PUSH1 0x28 DUP2 MSTORE PUSH1 0x20 ADD PUSH2 0xC78 PUSH1 0x28 SWAP2 CODECOPY PUSH1 0x1 PUSH1 0x1 PUSH1 0xA0 SHL SUB DUP11 AND PUSH1 0x0 SWAP1 DUP2 MSTORE PUSH1 0x2 PUSH1 0x20 SWAP1 DUP2 MSTORE PUSH1 0x40 DUP1 DUP4 KECCAK256 CALLER DUP5 MSTORE SWAP1 SWAP2 MSTORE SWAP1 KECCAK256 SLOAD SWAP2 SWAP1 PUSH2 0x838 JUMP JUMPDEST PUSH2 0x58D JUMP JUMPDEST POP PUSH1 0x1 SWAP4 SWAP3 POP POP POP JUMP JUMPDEST CALLER PUSH1 0x0 DUP2 DUP2 MSTORE PUSH1 0x2 PUSH1 0x20 SWAP1 DUP2 MSTORE PUSH1 0x40 DUP1 DUP4 KECCAK256 PUSH1 0x1 PUSH1 0x1 PUSH1 0xA0 SHL SUB DUP8 AND DUP5 MSTORE SWAP1 SWAP2 MSTORE DUP2 KECCAK256 SLOAD SWAP1 SWAP2 PUSH2 0x352 SWAP2 DUP6 SWAP1 PUSH2 0x3C5 SWAP1 DUP7 PUSH2 0x864 JUMP JUMPDEST PUSH1 0x0 SLOAD PUSH1 0x1 PUSH1 0x1 PUSH1 0xA0 SHL SUB AND CALLER EQ PUSH2 0x43D JUMPI PUSH1 0x40 MLOAD PUSH3 0x461BCD PUSH1 0xE5 SHL DUP2 MSTORE PUSH1 0x4 ADD PUSH2 0x434 SWAP1 PUSH2 0xC2A JUMP JUMPDEST PUSH1 0x40 MLOAD DUP1 SWAP2 SUB SWAP1 REVERT JUMPDEST PUSH2 0x447 PUSH1 0x0 PUSH2 0x877 JUMP JUMPDEST JUMP JUMPDEST PUSH1 0x60 PUSH1 0x4 DUP1 SLOAD PUSH2 0x2C2 SWAP1 PUSH2 0xAE6 JUMP JUMPDEST PUSH1 0x0 DUP1 SLOAD PUSH1 0x1 PUSH1 0x1 PUSH1 0xA0 SHL SUB AND CALLER EQ PUSH2 0x483 JUMPI PUSH1 0x40 MLOAD PUSH3 0x461BCD PUSH1 0xE5 SHL DUP2 MSTORE PUSH1 0x4 ADD PUSH2 0x434 SWAP1 PUSH2 0xC2A JUMP JUMPDEST PUSH2 0x48D CALLER DUP4 PUSH2 0x8C7 JUMP JUMPDEST POP PUSH1 0x1 JUMPDEST SWAP2 SWAP1 POP JUMP JUMPDEST PUSH1 0x0 PUSH2 0x352 CALLER DUP5 PUSH2 0x3C5 DUP6 PUSH1 0x40 MLOAD DUP1 PUSH1 0x60 ADD PUSH1 0x40 MSTORE DUP1 PUSH1 0x25 DUP2 MSTORE PUSH1 0x20 ADD PUSH2 0xCC6 PUSH1 0x25 SWAP2 CODECOPY CALLER PUSH1 0x0 SWAP1 DUP2 MSTORE PUSH1 0x2 PUSH1 0x20 SWAP1 DUP2 MSTORE PUSH1 0x40 DUP1 DUP4 KECCAK256 PUSH1 0x1 PUSH1 0x1 PUSH1 0xA0 SHL SUB DUP14 AND DUP5 MSTORE SWAP1 SWAP2 MSTORE SWAP1 KECCAK256 SLOAD SWAP2 SWAP1 PUSH2 0x838 JUMP JUMPDEST PUSH1 0x0 PUSH2 0x352 CALLER DUP5 DUP5 PUSH2 0x6B2 JUMP JUMPDEST PUSH1 0x0 SLOAD PUSH1 0x1 PUSH1 0x1 PUSH1 0xA0 SHL SUB AND CALLER EQ PUSH2 0x51C JUMPI PUSH1 0x40 MLOAD PUSH3 0x461BCD PUSH1 0xE5 SHL DUP2 MSTORE PUSH1 0x4 ADD PUSH2 0x434 SWAP1 PUSH2 0xC2A JUMP JUMPDEST PUSH1 0x1 PUSH1 0x1 PUSH1 0xA0 SHL SUB DUP2 AND PUSH2 0x581 JUMPI PUSH1 0x40 MLOAD PUSH3 0x461BCD PUSH1 0xE5 SHL DUP2 MSTORE PUSH1 0x20 PUSH1 0x4 DUP3 ADD MSTORE PUSH1 0x26 PUSH1 0x24 DUP3 ADD MSTORE PUSH32 0x4F776E61626C653A206E6577206F776E657220697320746865207A65726F2061 PUSH1 0x44 DUP3 ADD MSTORE PUSH6 0x646472657373 PUSH1 0xD0 SHL PUSH1 0x64 DUP3 ADD MSTORE PUSH1 0x84 ADD PUSH2 0x434 JUMP JUMPDEST PUSH2 0x58A DUP2 PUSH2 0x877 JUMP JUMPDEST POP JUMP JUMPDEST PUSH1 0x1 PUSH1 0x1 PUSH1 0xA0 SHL SUB DUP4 AND PUSH2 0x5EF JUMPI PUSH1 0x40 MLOAD PUSH3 0x461BCD PUSH1 0xE5 SHL DUP2 MSTORE PUSH1 0x20 PUSH1 0x4 DUP3 ADD MSTORE PUSH1 0x24 DUP1 DUP3 ADD MSTORE PUSH32 0x42455032303A20617070726F76652066726F6D20746865207A65726F20616464 PUSH1 0x44 DUP3 ADD MSTORE PUSH4 0x72657373 PUSH1 0xE0 SHL PUSH1 0x64 DUP3 ADD MSTORE PUSH1 0x84 ADD PUSH2 0x434 JUMP JUMPDEST PUSH1 0x1 PUSH1 0x1 PUSH1 0xA0 SHL SUB DUP3 AND PUSH2 0x650 JUMPI PUSH1 0x40 MLOAD PUSH3 0x461BCD PUSH1 0xE5 SHL DUP2 MSTORE PUSH1 0x20 PUSH1 0x4 DUP3 ADD MSTORE PUSH1 0x22 PUSH1 0x24 DUP3 ADD MSTORE PUSH32 0x42455032303A20617070726F766520746F20746865207A65726F206164647265 PUSH1 0x44 DUP3 ADD MSTORE PUSH2 0x7373 PUSH1 0xF0 SHL PUSH1 0x64 DUP3 ADD MSTORE PUSH1 0x84 ADD PUSH2 0x434 JUMP JUMPDEST PUSH1 0x1 PUSH1 0x1 PUSH1 0xA0 SHL SUB DUP4 DUP2 AND PUSH1 0x0 DUP2 DUP2 MSTORE PUSH1 0x2 PUSH1 0x20 SWAP1 DUP2 MSTORE PUSH1 0x40 DUP1 DUP4 KECCAK256 SWAP5 DUP8 AND DUP1 DUP5 MSTORE SWAP5 DUP3 MSTORE SWAP2 DUP3 SWAP1 KECCAK256 DUP6 SWAP1 SSTORE SWAP1 MLOAD DUP5 DUP2 MSTORE PUSH32 0x8C5BE1E5EBEC7D5BD14F71427D1E84F3DD0314C0F7B2291E5B200AC8C7C3B925 SWAP2 ADD JUMPDEST PUSH1 0x40 MLOAD DUP1 SWAP2 SUB SWAP1 LOG3 POP POP POP JUMP JUMPDEST PUSH1 0x1 PUSH1 0x1 PUSH1 0xA0 SHL SUB DUP4 AND PUSH2 0x716 JUMPI PUSH1 0x40 MLOAD PUSH3 0x461BCD PUSH1 0xE5 SHL DUP2 MSTORE PUSH1 0x20 PUSH1 0x4 DUP3 ADD MSTORE PUSH1 0x25 PUSH1 0x24 DUP3 ADD MSTORE PUSH32 0x42455032303A207472616E736665722066726F6D20746865207A65726F206164 PUSH1 0x44 DUP3 ADD MSTORE PUSH5 0x6472657373 PUSH1 0xD8 SHL PUSH1 0x64 DUP3 ADD MSTORE PUSH1 0x84 ADD PUSH2 0x434 JUMP JUMPDEST PUSH1 0x1 PUSH1 0x1 PUSH1 0xA0 SHL SUB DUP3 AND PUSH2 0x778 JUMPI PUSH1 0x40 MLOAD PUSH3 0x461BCD PUSH1 0xE5 SHL DUP2 MSTORE PUSH1 0x20 PUSH1 0x4 DUP3 ADD MSTORE PUSH1 0x23 PUSH1 0x24 DUP3 ADD MSTORE PUSH32 0x42455032303A207472616E7366657220746F20746865207A65726F2061646472 PUSH1 0x44 DUP3 ADD MSTORE PUSH3 0x657373 PUSH1 0xE8 SHL PUSH1 0x64 DUP3 ADD MSTORE PUSH1 0x84 ADD PUSH2 0x434 JUMP JUMPDEST PUSH2 0x7B5 DUP2 PUSH1 0x40 MLOAD DUP1 PUSH1 0x60 ADD PUSH1 0x40 MSTORE DUP1 PUSH1 0x26 DUP2 MSTORE PUSH1 0x20 ADD PUSH2 0xCA0 PUSH1 0x26 SWAP2 CODECOPY PUSH1 0x1 PUSH1 0x1 PUSH1 0xA0 SHL SUB DUP7 AND PUSH1 0x0 SWAP1 DUP2 MSTORE PUSH1 0x1 PUSH1 0x20 MSTORE PUSH1 0x40 SWAP1 KECCAK256 SLOAD SWAP2 SWAP1 PUSH2 0x838 JUMP JUMPDEST PUSH1 0x1 PUSH1 0x1 PUSH1 0xA0 SHL SUB DUP1 DUP6 AND PUSH1 0x0 SWAP1 DUP2 MSTORE PUSH1 0x1 PUSH1 0x20 MSTORE PUSH1 0x40 DUP1 DUP3 KECCAK256 SWAP4 SWAP1 SWAP4 SSTORE SWAP1 DUP5 AND DUP2 MSTORE KECCAK256 SLOAD PUSH2 0x7E4 SWAP1 DUP3 PUSH2 0x864 JUMP JUMPDEST PUSH1 0x1 PUSH1 0x1 PUSH1 0xA0 SHL SUB DUP1 DUP5 AND PUSH1 0x0 DUP2 DUP2 MSTORE PUSH1 0x1 PUSH1 0x20 MSTORE PUSH1 0x40 SWAP1 DUP2 SWAP1 KECCAK256 SWAP4 SWAP1 SWAP4 SSTORE SWAP2 MLOAD SWAP1 DUP6 AND SWAP1 PUSH32 0xDDF252AD1BE2C89B69C2B068FC378DAA952BA7F163C4A11628F55A4DF523B3EF SWAP1 PUSH2 0x6A5 SWAP1 DUP6 DUP2 MSTORE PUSH1 0x20 ADD SWAP1 JUMP JUMPDEST PUSH1 0x0 DUP2 DUP5 DUP5 GT ISZERO PUSH2 0x85C JUMPI PUSH1 0x40 MLOAD PUSH3 0x461BCD PUSH1 0xE5 SHL DUP2 MSTORE PUSH1 0x4 ADD PUSH2 0x434 SWAP2 SWAP1 PUSH2 0x9AD JUMP JUMPDEST POP POP POP SWAP1 SUB SWAP1 JUMP JUMPDEST PUSH1 0x0 PUSH2 0x870 DUP3 DUP5 PUSH2 0xC5F JUMP JUMPDEST SWAP4 SWAP3 POP POP POP JUMP JUMPDEST PUSH1 0x0 DUP1 SLOAD PUSH1 0x1 PUSH1 0x1 PUSH1 0xA0 SHL SUB DUP4 DUP2 AND PUSH1 0x1 PUSH1 0x1 PUSH1 0xA0 SHL SUB NOT DUP4 AND DUP2 OR DUP5 SSTORE PUSH1 0x40 MLOAD SWAP2 SWAP1 SWAP3 AND SWAP3 DUP4 SWAP2 PUSH32 0x8BE0079C531659141344CD1FD0A4F28419497F9722A3DAAFE3B4186F6B6457E0 SWAP2 SWAP1 LOG3 POP POP JUMP JUMPDEST PUSH1 0x1 PUSH1 0x1 PUSH1 0xA0 SHL SUB DUP3 AND PUSH2 0x91D JUMPI PUSH1 0x40 MLOAD PUSH3 0x461BCD PUSH1 0xE5 SHL DUP2 MSTORE PUSH1 0x20 PUSH1 0x4 DUP3 ADD MSTORE PUSH1 0x1F PUSH1 0x24 DUP3 ADD MSTORE PUSH32 0x42455032303A206D696E7420746F20746865207A65726F206164647265737300 PUSH1 0x44 DUP3 ADD MSTORE PUSH1 0x64 ADD PUSH2 0x434 JUMP JUMPDEST PUSH1 0x5 SLOAD PUSH2 0x92A SWAP1 DUP3 PUSH2 0x864 JUMP JUMPDEST PUSH1 0x5 SSTORE PUSH1 0x1 PUSH1 0x1 PUSH1 0xA0 SHL SUB DUP3 AND PUSH1 0x0 SWAP1 DUP2 MSTORE PUSH1 0x1 PUSH1 0x20 MSTORE PUSH1 0x40 SWAP1 KECCAK256 SLOAD PUSH2 0x950 SWAP1 DUP3 PUSH2 0x864 JUMP JUMPDEST PUSH1 0x1 PUSH1 0x1 PUSH1 0xA0 SHL SUB DUP4 AND PUSH1 0x0 DUP2 DUP2 MSTORE PUSH1 0x1 PUSH1 0x20 MSTORE PUSH1 0x40 DUP1 DUP3 KECCAK256 SWAP4 SWAP1 SWAP4 SSTORE SWAP2 MLOAD SWAP1 SWAP2 SWAP1 PUSH32 0xDDF252AD1BE2C89B69C2B068FC378DAA952BA7F163C4A11628F55A4DF523B3EF SWAP1 PUSH2 0x9A1 SWAP1 DUP6 DUP2 MSTORE PUSH1 0x20 ADD SWAP1 JUMP JUMPDEST PUSH1 0x40 MLOAD DUP1 SWAP2 SUB SWAP1 LOG3 POP POP JUMP JUMPDEST PUSH1 0x0 PUSH1 0x20 DUP1 DUP4 MSTORE DUP4 MLOAD DUP1 DUP3 DUP6 ADD MSTORE PUSH1 0x0 JUMPDEST DUP2 DUP2 LT ISZERO PUSH2 0x9DA JUMPI DUP6 DUP2 ADD DUP4 ADD MLOAD DUP6 DUP3 ADD PUSH1 0x40 ADD MSTORE DUP3 ADD PUSH2 0x9BE JUMP JUMPDEST DUP2 DUP2 GT ISZERO PUSH2 0x9EC JUMPI PUSH1 0x0 PUSH1 0x40 DUP4 DUP8 ADD ADD MSTORE JUMPDEST POP PUSH1 0x1F ADD PUSH1 0x1F NOT AND SWAP3 SWAP1 SWAP3 ADD PUSH1 0x40 ADD SWAP4 SWAP3 POP POP POP JUMP JUMPDEST DUP1 CALLDATALOAD PUSH1 0x1 PUSH1 0x1 PUSH1 0xA0 SHL SUB DUP2 AND DUP2 EQ PUSH2 0x491 JUMPI PUSH1 0x0 DUP1 REVERT JUMPDEST PUSH1 0x0 DUP1 PUSH1 0x40 DUP4 DUP6 SUB SLT ISZERO PUSH2 0xA2C JUMPI PUSH1 0x0 DUP1 REVERT JUMPDEST PUSH2 0xA35 DUP4 PUSH2 0xA02 JUMP JUMPDEST SWAP5 PUSH1 0x20 SWAP4 SWAP1 SWAP4 ADD CALLDATALOAD SWAP4 POP POP POP JUMP JUMPDEST PUSH1 0x0 DUP1 PUSH1 0x0 PUSH1 0x60 DUP5 DUP7 SUB SLT ISZERO PUSH2 0xA58 JUMPI PUSH1 0x0 DUP1 REVERT JUMPDEST PUSH2 0xA61 DUP5 PUSH2 0xA02 JUMP JUMPDEST SWAP3 POP PUSH2 0xA6F PUSH1 0x20 DUP6 ADD PUSH2 0xA02 JUMP JUMPDEST SWAP2 POP PUSH1 0x40 DUP5 ADD CALLDATALOAD SWAP1 POP SWAP3 POP SWAP3 POP SWAP3 JUMP JUMPDEST PUSH1 0x0 PUSH1 0x20 DUP3 DUP5 SUB SLT ISZERO PUSH2 0xA91 JUMPI PUSH1 0x0 DUP1 REVERT JUMPDEST PUSH2 0x870 DUP3 PUSH2 0xA02 JUMP JUMPDEST PUSH1 0x0 PUSH1 0x20 DUP3 DUP5 SUB SLT ISZERO PUSH2 0xAAC JUMPI PUSH1 0x0 DUP1 REVERT JUMPDEST POP CALLDATALOAD SWAP2 SWAP1 POP JUMP JUMPDEST PUSH1 0x0 DUP1 PUSH1 0x40 DUP4 DUP6 SUB SLT ISZERO PUSH2 0xAC6 JUMPI PUSH1 0x0 DUP1 REVERT JUMPDEST PUSH2 0xACF DUP4 PUSH2 0xA02 JUMP JUMPDEST SWAP2 POP PUSH2 0xADD PUSH1 0x20 DUP5 ADD PUSH2 0xA02 JUMP JUMPDEST SWAP1 POP SWAP3 POP SWAP3 SWAP1 POP JUMP JUMPDEST PUSH1 0x1 DUP2 DUP2 SHR SWAP1 DUP3 AND DUP1 PUSH2 0xAFA JUMPI PUSH1 0x7F DUP3 AND SWAP2 POP JUMPDEST PUSH1 0x20 DUP3 LT DUP2 EQ ISZERO PUSH2 0xB1B JUMPI PUSH4 0x4E487B71 PUSH1 0xE0 SHL PUSH1 0x0 MSTORE PUSH1 0x22 PUSH1 0x4 MSTORE PUSH1 0x24 PUSH1 0x0 REVERT JUMPDEST POP SWAP2 SWAP1 POP JUMP JUMPDEST PUSH4 0x4E487B71 PUSH1 0xE0 SHL PUSH1 0x0 MSTORE PUSH1 0x11 PUSH1 0x4 MSTORE PUSH1 0x24 PUSH1 0x0 REVERT JUMPDEST PUSH1 0x1 DUP2 DUP2 JUMPDEST DUP1 DUP6 GT ISZERO PUSH2 0xB72 JUMPI DUP2 PUSH1 0x0 NOT DIV DUP3 GT ISZERO PUSH2 0xB58 JUMPI PUSH2 0xB58 PUSH2 0xB21 JUMP JUMPDEST DUP1 DUP6 AND ISZERO PUSH2 0xB65 JUMPI SWAP2 DUP2 MUL SWAP2 JUMPDEST SWAP4 DUP5 SHR SWAP4 SWAP1 DUP1 MUL SWAP1 PUSH2 0xB3C JUMP JUMPDEST POP SWAP3 POP SWAP3 SWAP1 POP JUMP JUMPDEST PUSH1 0x0 DUP3 PUSH2 0xB89 JUMPI POP PUSH1 0x1 PUSH2 0x356 JUMP JUMPDEST DUP2 PUSH2 0xB96 JUMPI POP PUSH1 0x0 PUSH2 0x356 JUMP JUMPDEST DUP2 PUSH1 0x1 DUP2 EQ PUSH2 0xBAC JUMPI PUSH1 0x2 DUP2 EQ PUSH2 0xBB6 JUMPI PUSH2 0xBD2 JUMP JUMPDEST PUSH1 0x1 SWAP2 POP POP PUSH2 0x356 JUMP JUMPDEST PUSH1 0xFF DUP5 GT ISZERO PUSH2 0xBC7 JUMPI PUSH2 0xBC7 PUSH2 0xB21 JUMP JUMPDEST POP POP PUSH1 0x1 DUP3 SHL PUSH2 0x356 JUMP JUMPDEST POP PUSH1 0x20 DUP4 LT PUSH2 0x133 DUP4 LT AND PUSH1 0x4E DUP5 LT PUSH1 0xB DUP5 LT AND OR ISZERO PUSH2 0xBF5 JUMPI POP DUP2 DUP2 EXP PUSH2 0x356 JUMP JUMPDEST PUSH2 0xBFF DUP4 DUP4 PUSH2 0xB37 JUMP JUMPDEST DUP1 PUSH1 0x0 NOT DIV DUP3 GT ISZERO PUSH2 0xC13 JUMPI PUSH2 0xC13 PUSH2 0xB21 JUMP JUMPDEST MUL SWAP4 SWAP3 POP POP POP JUMP JUMPDEST PUSH1 0x0 PUSH2 0x870 PUSH1 0xFF DUP5 AND DUP4 PUSH2 0xB7A JUMP JUMPDEST PUSH1 0x20 DUP1 DUP3 MSTORE DUP2 DUP2 ADD MSTORE PUSH32 0x4F776E61626C653A2063616C6C6572206973206E6F7420746865206F776E6572 PUSH1 0x40 DUP3 ADD MSTORE PUSH1 0x60 ADD SWAP1 JUMP JUMPDEST PUSH1 0x0 DUP3 NOT DUP3 GT ISZERO PUSH2 0xC72 JUMPI PUSH2 0xC72 PUSH2 0xB21 JUMP JUMPDEST POP ADD SWAP1 JUMP INVALID TIMESTAMP GASLIMIT POP ORIGIN ADDRESS GASPRICE KECCAK256 PUSH21 0x72616E7366657220616D6F756E7420657863656564 PUSH20 0x20616C6C6F77616E636542455032303A20747261 PUSH15 0x7366657220616D6F756E7420657863 PUSH6 0x656473206261 PUSH13 0x616E636542455032303A206465 PUSH4 0x72656173 PUSH6 0x6420616C6C6F PUSH24 0x616E63652062656C6F77207A65726FA26469706673582212 KECCAK256 0x4E 0x5C JUMPI 0xC1 0x2D 0xED DUP9 0xD1 0xB8 0xCC 0x4C 0xD4 CALLCODE SWAP10 SWAP16 SWAP15 0x5C 0x4C SHR 0xDC 0xD1 0xA7 GAS DUP3 MLOAD PUSH25 0xEE0F5AE0494B64736F6C634300080B00330000000000000000 "
				},
				"gasEstimates": {
					"creation": {
						"codeDepositCost": "672000",
						"executionCost": "infinite",
						"totalCost": "infinite"
					},
					"external": {
						"DECIMALS()": "249",
						"DECIMAL_MULTIPLIER()": "624",
						"allowance(address,address)": "infinite",
						"approve(address,uint256)": "24644",
						"balanceOf(address)": "2648",
						"decimals()": "268",
						"decreaseAllowance(address,uint256)": "infinite",
						"getOwner()": "2365",
						"increaseAllowance(address,uint256)": "27067",
						"mint(uint256)": "infinite",
						"name()": "infinite",
						"owner()": "2398",
						"renounceOwnership()": "28137",
						"symbol()": "infinite",
						"totalSupply()": "2349",
						"transfer(address,uint256)": "infinite",
						"transferFrom(address,address,uint256)": "infinite",
						"transferOwnership(address)": "28419"
					},
					"internal": {
						"_approve(address,address,uint256)": "infinite",
						"_burn(address,uint256)": "infinite",
						"_burnFrom(address,uint256)": "infinite",
						"_mint(address,uint256)": "infinite",
						"_transfer(address,address,uint256)": "infinite"
					}
				},
				"methodIdentifiers": {
					"DECIMALS()": "2e0f2625",
					"DECIMAL_MULTIPLIER()": "1aef8058",
					"allowance(address,address)": "dd62ed3e",
					"approve(address,uint256)": "095ea7b3",
					"balanceOf(address)": "70a08231",
					"decimals()": "313ce567",
					"decreaseAllowance(address,uint256)": "a457c2d7",
					"getOwner()": "893d20e8",
					"increaseAllowance(address,uint256)": "39509351",
					"mint(uint256)": "a0712d68",
					"name()": "06fdde03",
					"owner()": "8da5cb5b",
					"renounceOwnership()": "715018a6",
					"symbol()": "95d89b41",
					"totalSupply()": "18160ddd",
					"transfer(address,uint256)": "a9059cbb",
					"transferFrom(address,address,uint256)": "23b872dd",
					"transferOwnership(address)": "f2fde38b"
				}
			},
			"userdoc": {
				"kind": "user",
				"methods": {},
				"version": 1
			}
		}
	}
}