{
	"contracts/HatTokenV2.sol": {
		"HatTokenV2": {
			"abi": [
				{
					"inputs": [
						{
							"internalType": "string",
							"name": "name",
							"type": "string"
						},
						{
							"internalType": "string",
							"name": "symbol",
							"type": "string"
						}
					],
					"stateMutability": "nonpayable",
					"type": "constructor"
				},
				{
					"anonymous": false,
					"inputs": [
						{
							"indexed": true,
							"internalType": "address",
							"name": "owner",
							"type": "address"
						},
						{
							"indexed": true,
							"internalType": "address",
							"name": "spender",
							"type": "address"
						},
						{
							"indexed": false,
							"internalType": "uint256",
							"name": "value",
							"type": "uint256"
						}
					],
					"name": "Approval",
					"type": "event"
				},
				{
					"anonymous": false,
					"inputs": [
						{
							"indexed": true,
							"internalType": "address",
							"name": "previousOwner",
							"type": "address"
						},
						{
							"indexed": true,
							"internalType": "address",
							"name": "newOwner",
							"type": "address"
						}
					],
					"name": "OwnershipTransferred",
					"type": "event"
				},
				{
					"anonymous": false,
					"inputs": [
						{
							"indexed": false,
							"internalType": "address",
							"name": "account",
							"type": "address"
						}
					],
					"name": "Paused",
					"type": "event"
				},
				{
					"anonymous": false,
					"inputs": [
						{
							"indexed": true,
							"internalType": "bytes32",
							"name": "role",
							"type": "bytes32"
						},
						{
							"indexed": true,
							"internalType": "bytes32",
							"name": "previousAdminRole",
							"type": "bytes32"
						},
						{
							"indexed": true,
							"internalType": "bytes32",
							"name": "newAdminRole",
							"type": "bytes32"
						}
					],
					"name": "RoleAdminChanged",
					"type": "event"
				},
				{
					"anonymous": false,
					"inputs": [
						{
							"indexed": true,
							"internalType": "bytes32",
							"name": "role",
							"type": "bytes32"
						},
						{
							"indexed": true,
							"internalType": "address",
							"name": "account",
							"type": "address"
						},
						{
							"indexed": true,
							"internalType": "address",
							"name": "sender",
							"type": "address"
						}
					],
					"name": "RoleGranted",
					"type": "event"
				},
				{
					"anonymous": false,
					"inputs": [
						{
							"indexed": true,
							"internalType": "bytes32",
							"name": "role",
							"type": "bytes32"
						},
						{
							"indexed": true,
							"internalType": "address",
							"name": "account",
							"type": "address"
						},
						{
							"indexed": true,
							"internalType": "address",
							"name": "sender",
							"type": "address"
						}
					],
					"name": "RoleRevoked",
					"type": "event"
				},
				{
					"anonymous": false,
					"inputs": [
						{
							"indexed": true,
							"internalType": "address",
							"name": "from",
							"type": "address"
						},
						{
							"indexed": true,
							"internalType": "address",
							"name": "to",
							"type": "address"
						},
						{
							"indexed": false,
							"internalType": "uint256",
							"name": "value",
							"type": "uint256"
						}
					],
					"name": "Transfer",
					"type": "event"
				},
				{
					"anonymous": false,
					"inputs": [
						{
							"indexed": false,
							"internalType": "address",
							"name": "account",
							"type": "address"
						}
					],
					"name": "Unpaused",
					"type": "event"
				},
				{
					"inputs": [],
					"name": "DEFAULT_ADMIN_ROLE",
					"outputs": [
						{
							"internalType": "bytes32",
							"name": "",
							"type": "bytes32"
						}
					],
					"stateMutability": "view",
					"type": "function"
				},
				{
					"inputs": [],
					"name": "MINTER_ROLE",
					"outputs": [
						{
							"internalType": "bytes32",
							"name": "",
							"type": "bytes32"
						}
					],
					"stateMutability": "view",
					"type": "function"
				},
				{
					"inputs": [],
					"name": "PAUSER_ROLE",
					"outputs": [
						{
							"internalType": "bytes32",
							"name": "",
							"type": "bytes32"
						}
					],
					"stateMutability": "view",
					"type": "function"
				},
				{
					"inputs": [
						{
							"internalType": "address",
							"name": "user",
							"type": "address"
						}
					],
					"name": "addLiquidityFree",
					"outputs": [],
					"stateMutability": "nonpayable",
					"type": "function"
				},
				{
					"inputs": [
						{
							"internalType": "address",
							"name": "owner",
							"type": "address"
						},
						{
							"internalType": "address",
							"name": "spender",
							"type": "address"
						}
					],
					"name": "allowance",
					"outputs": [
						{
							"internalType": "uint256",
							"name": "",
							"type": "uint256"
						}
					],
					"stateMutability": "view",
					"type": "function"
				},
				{
					"inputs": [
						{
							"internalType": "address",
							"name": "spender",
							"type": "address"
						},
						{
							"internalType": "uint256",
							"name": "amount",
							"type": "uint256"
						}
					],
					"name": "approve",
					"outputs": [
						{
							"internalType": "bool",
							"name": "",
							"type": "bool"
						}
					],
					"stateMutability": "nonpayable",
					"type": "function"
				},
				{
					"inputs": [
						{
							"internalType": "address",
							"name": "account",
							"type": "address"
						}
					],
					"name": "balanceOf",
					"outputs": [
						{
							"internalType": "uint256",
							"name": "",
							"type": "uint256"
						}
					],
					"stateMutability": "view",
					"type": "function"
				},
				{
					"inputs": [
						{
							"internalType": "address",
							"name": "user",
							"type": "address"
						},
						{
							"internalType": "bool",
							"name": "can_send",
							"type": "bool"
						},
						{
							"internalType": "bool",
							"name": "can_receive",
							"type": "bool"
						}
					],
					"name": "blockUser",
					"outputs": [],
					"stateMutability": "nonpayable",
					"type": "function"
				},
				{
					"inputs": [
						{
							"internalType": "address",
							"name": "user",
							"type": "address"
						}
					],
					"name": "blocked",
					"outputs": [
						{
							"internalType": "bool",
							"name": "",
							"type": "bool"
						},
						{
							"internalType": "bool",
							"name": "",
							"type": "bool"
						}
					],
					"stateMutability": "view",
					"type": "function"
				},
				{
					"inputs": [
						{
							"internalType": "uint256",
							"name": "amount",
							"type": "uint256"
						}
					],
					"name": "burn",
					"outputs": [],
					"stateMutability": "nonpayable",
					"type": "function"
				},
				{
					"inputs": [
						{
							"internalType": "address",
							"name": "account",
							"type": "address"
						},
						{
							"internalType": "uint256",
							"name": "amount",
							"type": "uint256"
						}
					],
					"name": "burnFrom",
					"outputs": [],
					"stateMutability": "nonpayable",
					"type": "function"
				},
				{
					"inputs": [],
					"name": "decimals",
					"outputs": [
						{
							"internalType": "uint8",
							"name": "",
							"type": "uint8"
						}
					],
					"stateMutability": "view",
					"type": "function"
				},
				{
					"inputs": [
						{
							"internalType": "address",
							"name": "spender",
							"type": "address"
						},
						{
							"internalType": "uint256",
							"name": "subtractedValue",
							"type": "uint256"
						}
					],
					"name": "decreaseAllowance",
					"outputs": [
						{
							"internalType": "bool",
							"name": "",
							"type": "bool"
						}
					],
					"stateMutability": "nonpayable",
					"type": "function"
				},
				{
					"inputs": [],
					"name": "getOwner",
					"outputs": [
						{
							"internalType": "address",
							"name": "",
							"type": "address"
						}
					],
					"stateMutability": "view",
					"type": "function"
				},
				{
					"inputs": [
						{
							"internalType": "bytes32",
							"name": "role",
							"type": "bytes32"
						}
					],
					"name": "getRoleAdmin",
					"outputs": [
						{
							"internalType": "bytes32",
							"name": "",
							"type": "bytes32"
						}
					],
					"stateMutability": "view",
					"type": "function"
				},
				{
					"inputs": [
						{
							"internalType": "bytes32",
							"name": "role",
							"type": "bytes32"
						},
						{
							"internalType": "uint256",
							"name": "index",
							"type": "uint256"
						}
					],
					"name": "getRoleMember",
					"outputs": [
						{
							"internalType": "address",
							"name": "",
							"type": "address"
						}
					],
					"stateMutability": "view",
					"type": "function"
				},
				{
					"inputs": [
						{
							"internalType": "bytes32",
							"name": "role",
							"type": "bytes32"
						}
					],
					"name": "getRoleMemberCount",
					"outputs": [
						{
							"internalType": "uint256",
							"name": "",
							"type": "uint256"
						}
					],
					"stateMutability": "view",
					"type": "function"
				},
				{
					"inputs": [
						{
							"internalType": "bytes32",
							"name": "role",
							"type": "bytes32"
						},
						{
							"internalType": "address",
							"name": "account",
							"type": "address"
						}
					],
					"name": "grantRole",
					"outputs": [],
					"stateMutability": "nonpayable",
					"type": "function"
				},
				{
					"inputs": [
						{
							"internalType": "bytes32",
							"name": "role",
							"type": "bytes32"
						},
						{
							"internalType": "address",
							"name": "account",
							"type": "address"
						}
					],
					"name": "hasRole",
					"outputs": [
						{
							"internalType": "bool",
							"name": "",
							"type": "bool"
						}
					],
					"stateMutability": "view",
					"type": "function"
				},
				{
					"inputs": [
						{
							"internalType": "address",
							"name": "spender",
							"type": "address"
						},
						{
							"internalType": "uint256",
							"name": "addedValue",
							"type": "uint256"
						}
					],
					"name": "increaseAllowance",
					"outputs": [
						{
							"internalType": "bool",
							"name": "",
							"type": "bool"
						}
					],
					"stateMutability": "nonpayable",
					"type": "function"
				},
				{
					"inputs": [],
					"name": "liquidityFee",
					"outputs": [
						{
							"internalType": "uint256",
							"name": "",
							"type": "uint256"
						}
					],
					"stateMutability": "view",
					"type": "function"
				},
				{
					"inputs": [],
					"name": "liquidityKeeper",
					"outputs": [
						{
							"internalType": "address",
							"name": "",
							"type": "address"
						}
					],
					"stateMutability": "view",
					"type": "function"
				},
				{
					"inputs": [],
					"name": "name",
					"outputs": [
						{
							"internalType": "string",
							"name": "",
							"type": "string"
						}
					],
					"stateMutability": "view",
					"type": "function"
				},
				{
					"inputs": [],
					"name": "owner",
					"outputs": [
						{
							"internalType": "address",
							"name": "",
							"type": "address"
						}
					],
					"stateMutability": "view",
					"type": "function"
				},
				{
					"inputs": [],
					"name": "paused",
					"outputs": [
						{
							"internalType": "bool",
							"name": "",
							"type": "bool"
						}
					],
					"stateMutability": "view",
					"type": "function"
				},
				{
					"inputs": [],
					"name": "renounceOwnership",
					"outputs": [],
					"stateMutability": "nonpayable",
					"type": "function"
				},
				{
					"inputs": [
						{
							"internalType": "bytes32",
							"name": "role",
							"type": "bytes32"
						},
						{
							"internalType": "address",
							"name": "account",
							"type": "address"
						}
					],
					"name": "renounceRole",
					"outputs": [],
					"stateMutability": "nonpayable",
					"type": "function"
				},
				{
					"inputs": [
						{
							"internalType": "bytes32",
							"name": "role",
							"type": "bytes32"
						},
						{
							"internalType": "address",
							"name": "account",
							"type": "address"
						}
					],
					"name": "revokeRole",
					"outputs": [],
					"stateMutability": "nonpayable",
					"type": "function"
				},
				{
					"inputs": [
						{
							"internalType": "uint256",
							"name": "fee",
							"type": "uint256"
						}
					],
					"name": "setLiquidityFee",
					"outputs": [],
					"stateMutability": "nonpayable",
					"type": "function"
				},
				{
					"inputs": [
						{
							"internalType": "address",
							"name": "keeper",
							"type": "address"
						}
					],
					"name": "setLiquidityKeeper",
					"outputs": [],
					"stateMutability": "nonpayable",
					"type": "function"
				},
				{
					"inputs": [
						{
							"internalType": "bytes4",
							"name": "interfaceId",
							"type": "bytes4"
						}
					],
					"name": "supportsInterface",
					"outputs": [
						{
							"internalType": "bool",
							"name": "",
							"type": "bool"
						}
					],
					"stateMutability": "view",
					"type": "function"
				},
				{
					"inputs": [],
					"name": "symbol",
					"outputs": [
						{
							"internalType": "string",
							"name": "",
							"type": "string"
						}
					],
					"stateMutability": "view",
					"type": "function"
				},
				{
					"inputs": [],
					"name": "totalSupply",
					"outputs": [
						{
							"internalType": "uint256",
							"name": "",
							"type": "uint256"
						}
					],
					"stateMutability": "view",
					"type": "function"
				},
				{
					"inputs": [
						{
							"internalType": "address",
							"name": "to",
							"type": "address"
						},
						{
							"internalType": "uint256",
							"name": "amount",
							"type": "uint256"
						}
					],
					"name": "transfer",
					"outputs": [
						{
							"internalType": "bool",
							"name": "",
							"type": "bool"
						}
					],
					"stateMutability": "nonpayable",
					"type": "function"
				},
				{
					"inputs": [
						{
							"internalType": "address",
							"name": "from",
							"type": "address"
						},
						{
							"internalType": "address",
							"name": "to",
							"type": "address"
						},
						{
							"internalType": "uint256",
							"name": "amount",
							"type": "uint256"
						}
					],
					"name": "transferFrom",
					"outputs": [
						{
							"internalType": "bool",
							"name": "",
							"type": "bool"
						}
					],
					"stateMutability": "nonpayable",
					"type": "function"
				},
				{
					"inputs": [
						{
							"internalType": "address",
							"name": "newOwner",
							"type": "address"
						}
					],
					"name": "transferOwnership",
					"outputs": [],
					"stateMutability": "nonpayable",
					"type": "function"
				}
			],
			"devdoc": {
				"kind": "dev",
				"methods": {
					"allowance(address,address)": {
						"details": "See {IERC20-allowance}."
					},
					"approve(address,uint256)": {
						"details": "See {IERC20-approve}. NOTE: If `amount` is the maximum `uint256`, the allowance is not updated on `transferFrom`. This is semantically equivalent to an infinite approval. Requirements: - `spender` cannot be the zero address."
					},
					"balanceOf(address)": {
						"details": "See {IERC20-balanceOf}."
					},
					"burn(uint256)": {
						"details": "Destroys `amount` tokens from the caller. See {ERC20-_burn}."
					},
					"burnFrom(address,uint256)": {
						"details": "Destroys `amount` tokens from `account`, deducting from the caller's allowance. See {ERC20-_burn} and {ERC20-allowance}. Requirements: - the caller must have allowance for ``accounts``'s tokens of at least `amount`."
					},
					"constructor": {
						"details": "Set liquidity fee and keeper See {ERC20-constructor}."
					},
					"decimals()": {
						"details": "Returns the number of decimals used to get its user representation. For example, if `decimals` equals `2`, a balance of `505` tokens should be displayed to a user as `5.05` (`505 / 10 ** 2`). Tokens usually opt for a value of 18, imitating the relationship between Ether and Wei. This is the value {ERC20} uses, unless this function is overridden; NOTE: This information is only used for _display_ purposes: it in no way affects any of the arithmetic of the contract, including {IERC20-balanceOf} and {IERC20-transfer}."
					},
					"decreaseAllowance(address,uint256)": {
						"details": "Atomically decreases the allowance granted to `spender` by the caller. This is an alternative to {approve} that can be used as a mitigation for problems described in {IERC20-approve}. Emits an {Approval} event indicating the updated allowance. Requirements: - `spender` cannot be the zero address. - `spender` must have allowance for the caller of at least `subtractedValue`."
					},
					"getOwner()": {
						"details": "Returns the bep token owner."
					},
					"getRoleAdmin(bytes32)": {
						"details": "Returns the admin role that controls `role`. See {grantRole} and {revokeRole}. To change a role's admin, use {_setRoleAdmin}."
					},
					"getRoleMember(bytes32,uint256)": {
						"details": "Returns one of the accounts that have `role`. `index` must be a value between 0 and {getRoleMemberCount}, non-inclusive. Role bearers are not sorted in any particular way, and their ordering may change at any point. WARNING: When using {getRoleMember} and {getRoleMemberCount}, make sure you perform all queries on the same block. See the following https://forum.openzeppelin.com/t/iterating-over-elements-on-enumerableset-in-openzeppelin-contracts/2296[forum post] for more information."
					},
					"getRoleMemberCount(bytes32)": {
						"details": "Returns the number of accounts that have `role`. Can be used together with {getRoleMember} to enumerate all bearers of a role."
					},
					"grantRole(bytes32,address)": {
						"details": "Grants `role` to `account`. If `account` had not been already granted `role`, emits a {RoleGranted} event. Requirements: - the caller must have ``role``'s admin role."
					},
					"hasRole(bytes32,address)": {
						"details": "Returns `true` if `account` has been granted `role`."
					},
					"increaseAllowance(address,uint256)": {
						"details": "Atomically increases the allowance granted to `spender` by the caller. This is an alternative to {approve} that can be used as a mitigation for problems described in {IERC20-approve}. Emits an {Approval} event indicating the updated allowance. Requirements: - `spender` cannot be the zero address."
					},
					"name()": {
						"details": "Returns the name of the token."
					},
					"owner()": {
						"details": "Returns the address of the current owner."
					},
					"paused()": {
						"details": "Returns true if the contract is paused, and false otherwise."
					},
					"renounceOwnership()": {
						"details": "Leaves the contract without owner. It will not be possible to call `onlyOwner` functions anymore. Can only be called by the current owner. NOTE: Renouncing ownership will leave the contract without an owner, thereby removing any functionality that is only available to the owner."
					},
					"renounceRole(bytes32,address)": {
						"details": "Revokes `role` from the calling account. Roles are often managed via {grantRole} and {revokeRole}: this function's purpose is to provide a mechanism for accounts to lose their privileges if they are compromised (such as when a trusted device is misplaced). If the calling account had been revoked `role`, emits a {RoleRevoked} event. Requirements: - the caller must be `account`."
					},
					"revokeRole(bytes32,address)": {
						"details": "Revokes `role` from `account`. If `account` had been granted `role`, emits a {RoleRevoked} event. Requirements: - the caller must have ``role``'s admin role."
					},
					"supportsInterface(bytes4)": {
						"details": "See {IERC165-supportsInterface}."
					},
					"symbol()": {
						"details": "Returns the symbol of the token, usually a shorter version of the name."
					},
					"totalSupply()": {
						"details": "See {IERC20-totalSupply}."
					},
					"transfer(address,uint256)": {
						"details": "See {IERC20-transfer}. Requirements: - `to` cannot be the zero address. - the caller must have a balance of at least `amount`."
					},
					"transferFrom(address,address,uint256)": {
						"details": "See {IERC20-transferFrom}. Emits an {Approval} event indicating the updated allowance. This is not required by the EIP. See the note at the beginning of {ERC20}. NOTE: Does not update the allowance if the current allowance is the maximum `uint256`. Requirements: - `from` and `to` cannot be the zero address. - `from` must have a balance of at least `amount`. - the caller must have allowance for ``from``'s tokens of at least `amount`."
					},
					"transferOwnership(address)": {
						"details": "Transfers ownership of the contract to a new account (`newOwner`). Can only be called by the current owner."
					}
				},
				"version": 1
			},
			"evm": {
				"assembly": "    /* \"contracts/HatTokenV2.sol\":510:4040  contract HatTokenV2 is Context, AccessControlEnumerable, ERC20Burnable, ERC20Pausable, Ownable {... */\n  mstore(0x40, 0x80)\n    /* \"contracts/HatTokenV2.sol\":1090:1436  constructor(string memory name, string memory symbol) ERC20(name, symbol) {... */\n  callvalue\n  dup1\n  iszero\n  tag_1\n  jumpi\n  0x00\n  dup1\n  revert\ntag_1:\n  pop\n  mload(0x40)\n  sub(codesize, bytecodeSize)\n  dup1\n  bytecodeSize\n  dup4\n  codecopy\n  dup2\n  add\n  0x40\n  dup2\n  swap1\n  mstore\n  tag_2\n  swap2\n  tag_3\n  jump\t// in\ntag_2:\n    /* \"@openzeppelin/contracts/token/ERC20/ERC20.sol\":2044:2057  _name = name_ */\n  dup2\n  mload\n    /* \"contracts/HatTokenV2.sol\":1150:1154  name */\n  dup3\n  swap1\n    /* \"contracts/HatTokenV2.sol\":1156:1162  symbol */\n  dup3\n  swap1\n    /* \"@openzeppelin/contracts/token/ERC20/ERC20.sol\":2044:2057  _name = name_ */\n  tag_9\n  swap1\n    /* \"@openzeppelin/contracts/token/ERC20/ERC20.sol\":2044:2049  _name */\n  0x05\n  swap1\n    /* \"@openzeppelin/contracts/token/ERC20/ERC20.sol\":2044:2057  _name = name_ */\n  0x20\n  dup6\n  add\n  swap1\n  tag_10\n  jump\t// in\ntag_9:\n  pop\n    /* \"@openzeppelin/contracts/token/ERC20/ERC20.sol\":2067:2084  _symbol = symbol_ */\n  dup1\n  mload\n  tag_11\n  swap1\n    /* \"@openzeppelin/contracts/token/ERC20/ERC20.sol\":2067:2074  _symbol */\n  0x06\n  swap1\n    /* \"@openzeppelin/contracts/token/ERC20/ERC20.sol\":2067:2084  _symbol = symbol_ */\n  0x20\n  dup5\n  add\n  swap1\n  tag_10\n  jump\t// in\ntag_11:\n  pop\n  pop\n    /* \"@openzeppelin/contracts/security/Pausable.sol\":981:988  _paused */\n  0x07\n    /* \"@openzeppelin/contracts/security/Pausable.sol\":981:996  _paused = false */\n  dup1\n  sload\n  not(0xff)\n  and\n  swap1\n  sstore\n  pop\n    /* \"@openzeppelin/contracts/access/Ownable.sol\":921:953  _transferOwnership(_msgSender()) */\n  tag_14\n    /* \"@openzeppelin/contracts/utils/Context.sol\":719:729  msg.sender */\n  caller\n    /* \"@openzeppelin/contracts/access/Ownable.sol\":921:939  _transferOwnership */\n  tag_17\n    /* \"@openzeppelin/contracts/access/Ownable.sol\":921:953  _transferOwnership(_msgSender()) */\n  jump\t// in\ntag_14:\n    /* \"contracts/HatTokenV2.sol\":1175:1219  _setupRole(DEFAULT_ADMIN_ROLE, _msgSender()) */\n  tag_19\n    /* \"@openzeppelin/contracts/access/AccessControl.sol\":2072:2076  0x00 */\n  0x00\n    /* \"@openzeppelin/contracts/utils/Context.sol\":719:729  msg.sender */\n  caller\n    /* \"contracts/HatTokenV2.sol\":1175:1185  _setupRole */\n  tag_21\n    /* \"contracts/HatTokenV2.sol\":1175:1219  _setupRole(DEFAULT_ADMIN_ROLE, _msgSender()) */\n  jump\t// in\ntag_19:\n    /* \"contracts/HatTokenV2.sol\":1232:1269  _setupRole(MINTER_ROLE, _msgSender()) */\n  tag_22\n    /* \"contracts/HatTokenV2.sol\":685:709  keccak256(\"MINTER_ROLE\") */\n  0x9f2df0fed2c77648de5860a4cc508cd0818c85b8b8a1ab4ceeef8d981c8956a6\n    /* \"@openzeppelin/contracts/utils/Context.sol\":719:729  msg.sender */\n  caller\n    /* \"contracts/HatTokenV2.sol\":1175:1185  _setupRole */\n  tag_21\n    /* \"contracts/HatTokenV2.sol\":1175:1219  _setupRole(DEFAULT_ADMIN_ROLE, _msgSender()) */\n  jump\t// in\n    /* \"contracts/HatTokenV2.sol\":1232:1269  _setupRole(MINTER_ROLE, _msgSender()) */\ntag_22:\n    /* \"contracts/HatTokenV2.sol\":1280:1317  _setupRole(PAUSER_ROLE, _msgSender()) */\n  tag_24\n    /* \"contracts/HatTokenV2.sol\":754:778  keccak256(\"PAUSER_ROLE\") */\n  0x65d7a28e3265b37a6474929f336521b332c1681b933f6cb9f3376673440d862a\n    /* \"@openzeppelin/contracts/utils/Context.sol\":719:729  msg.sender */\n  caller\n    /* \"contracts/HatTokenV2.sol\":1175:1185  _setupRole */\n  tag_21\n    /* \"contracts/HatTokenV2.sol\":1175:1219  _setupRole(DEFAULT_ADMIN_ROLE, _msgSender()) */\n  jump\t// in\n    /* \"contracts/HatTokenV2.sol\":1280:1317  _setupRole(PAUSER_ROLE, _msgSender()) */\ntag_24:\n    /* \"contracts/HatTokenV2.sol\":1346:1348  50 */\n  0x32\n    /* \"contracts/HatTokenV2.sol\":1330:1343  _liquidityFee */\n  0x08\n    /* \"contracts/HatTokenV2.sol\":1330:1348  _liquidityFee = 50 */\n  sstore\n    /* \"contracts/HatTokenV2.sol\":1378:1385  owner() */\n  tag_26\n    /* \"@openzeppelin/contracts/access/Ownable.sol\":1108:1114  _owner */\n  sload(0x07)\n  0x0100\n  swap1\n  div\n  sub(shl(0xa0, 0x01), 0x01)\n  and\n  swap1\n    /* \"@openzeppelin/contracts/access/Ownable.sol\":1036:1121  function owner() public view virtual returns (address) {... */\n  jump\n    /* \"contracts/HatTokenV2.sol\":1378:1385  owner() */\ntag_26:\n    /* \"contracts/HatTokenV2.sol\":1359:1375  _liquidityKeeper */\n  0x09\n    /* \"contracts/HatTokenV2.sol\":1359:1385  _liquidityKeeper = owner() */\n  dup1\n  sload\n  not(sub(shl(0xa0, 0x01), 0x01))\n  and\n  sub(shl(0xa0, 0x01), 0x01)\n  swap3\n  dup4\n  and\n  or\n  swap1\n  sstore\n    /* \"@openzeppelin/contracts/access/Ownable.sol\":1108:1114  _owner */\n  sload(0x07)\n    /* \"contracts/HatTokenV2.sol\":1398:1428  _mint(owner(), 10**9 * 10**18) */\n  tag_28\n  swap2\n    /* \"@openzeppelin/contracts/access/Ownable.sol\":1108:1114  _owner */\n  0x0100\n  swap1\n  swap2\n  div\n  and\n    /* \"contracts/HatTokenV2.sol\":1413:1427  10**9 * 10**18 */\n  0x033b2e3c9fd0803ce8000000\n    /* \"contracts/HatTokenV2.sol\":1398:1403  _mint */\n  tag_30\n    /* \"contracts/HatTokenV2.sol\":1398:1428  _mint(owner(), 10**9 * 10**18) */\n  jump\t// in\ntag_28:\n    /* \"contracts/HatTokenV2.sol\":1090:1436  constructor(string memory name, string memory symbol) ERC20(name, symbol) {... */\n  pop\n  pop\n    /* \"contracts/HatTokenV2.sol\":510:4040  contract HatTokenV2 is Context, AccessControlEnumerable, ERC20Burnable, ERC20Pausable, Ownable {... */\n  jump(tag_105)\n    /* \"@openzeppelin/contracts/access/Ownable.sol\":2270:2457  function _transferOwnership(address newOwner) internal virtual {... */\ntag_17:\n    /* \"@openzeppelin/contracts/access/Ownable.sol\":2362:2368  _owner */\n  0x07\n  dup1\n  sload\n  sub(shl(0xa0, 0x01), 0x01)\n    /* \"@openzeppelin/contracts/access/Ownable.sol\":2378:2395  _owner = newOwner */\n  dup4\n  dup2\n  and\n    /* \"@openzeppelin/contracts/access/Ownable.sol\":2362:2368  _owner */\n  0x0100\n    /* \"@openzeppelin/contracts/access/Ownable.sol\":2378:2395  _owner = newOwner */\n  dup2\n  dup2\n  mul\n  not(sub(shl(0xa8, 0x01), 0x0100))\n  dup6\n  and\n  or\n  swap1\n  swap5\n  sstore\n    /* \"@openzeppelin/contracts/access/Ownable.sol\":2410:2450  OwnershipTransferred(oldOwner, newOwner) */\n  mload(0x40)\n    /* \"@openzeppelin/contracts/access/Ownable.sol\":2362:2368  _owner */\n  swap4\n  swap1\n  swap3\n  div\n  and\n  swap2\n  dup3\n  swap1\n    /* \"@openzeppelin/contracts/access/Ownable.sol\":2410:2450  OwnershipTransferred(oldOwner, newOwner) */\n  0x8be0079c531659141344cd1fd0a4f28419497f9722a3daafe3b4186f6b6457e0\n  swap1\n    /* \"@openzeppelin/contracts/access/Ownable.sol\":2343:2359  address oldOwner */\n  0x00\n  swap1\n    /* \"@openzeppelin/contracts/access/Ownable.sol\":2410:2450  OwnershipTransferred(oldOwner, newOwner) */\n  log3\n    /* \"@openzeppelin/contracts/access/Ownable.sol\":2333:2457  {... */\n  pop\n    /* \"@openzeppelin/contracts/access/Ownable.sol\":2270:2457  function _transferOwnership(address newOwner) internal virtual {... */\n  pop\n  jump\t// out\n    /* \"@openzeppelin/contracts/access/AccessControl.sol\":6257:6367  function _setupRole(bytes32 role, address account) internal virtual {... */\ntag_21:\n    /* \"@openzeppelin/contracts/access/AccessControl.sol\":6335:6360  _grantRole(role, account) */\n  tag_35\n    /* \"@openzeppelin/contracts/access/AccessControl.sol\":6346:6350  role */\n  dup3\n    /* \"@openzeppelin/contracts/access/AccessControl.sol\":6352:6359  account */\n  dup3\n    /* \"@openzeppelin/contracts/access/AccessControl.sol\":6335:6345  _grantRole */\n  tag_36\n    /* \"@openzeppelin/contracts/access/AccessControl.sol\":6335:6360  _grantRole(role, account) */\n  jump\t// in\ntag_35:\n    /* \"@openzeppelin/contracts/access/AccessControl.sol\":6257:6367  function _setupRole(bytes32 role, address account) internal virtual {... */\n  pop\n  pop\n  jump\t// out\n    /* \"@openzeppelin/contracts/token/ERC20/ERC20.sol\":8415:8804  function _mint(address account, uint256 amount) internal virtual {... */\ntag_30:\n  sub(shl(0xa0, 0x01), 0x01)\n    /* \"@openzeppelin/contracts/token/ERC20/ERC20.sol\":8498:8519  account != address(0) */\n  dup3\n  and\n    /* \"@openzeppelin/contracts/token/ERC20/ERC20.sol\":8490:8555  require(account != address(0), \"ERC20: mint to the zero address\") */\n  tag_39\n  jumpi\n  mload(0x40)\n  shl(0xe5, 0x461bcd)\n  dup2\n  mstore\n    /* \"#utility.yul\":1805:1807   */\n  0x20\n    /* \"@openzeppelin/contracts/token/ERC20/ERC20.sol\":8490:8555  require(account != address(0), \"ERC20: mint to the zero address\") */\n  0x04\n  dup3\n  add\n    /* \"#utility.yul\":1787:1808   */\n  mstore\n    /* \"#utility.yul\":1844:1846   */\n  0x1f\n    /* \"#utility.yul\":1824:1842   */\n  0x24\n  dup3\n  add\n    /* \"#utility.yul\":1817:1847   */\n  mstore\n    /* \"#utility.yul\":1883:1916   */\n  0x45524332303a206d696e7420746f20746865207a65726f206164647265737300\n    /* \"#utility.yul\":1863:1881   */\n  0x44\n  dup3\n  add\n    /* \"#utility.yul\":1856:1917   */\n  mstore\n    /* \"#utility.yul\":1934:1952   */\n  0x64\n  add\n    /* \"@openzeppelin/contracts/token/ERC20/ERC20.sol\":8490:8555  require(account != address(0), \"ERC20: mint to the zero address\") */\ntag_40:\n  mload(0x40)\n  dup1\n  swap2\n  sub\n  swap1\n  revert\ntag_39:\n    /* \"@openzeppelin/contracts/token/ERC20/ERC20.sol\":8566:8615  _beforeTokenTransfer(address(0), account, amount) */\n  tag_42\n    /* \"@openzeppelin/contracts/token/ERC20/ERC20.sol\":8595:8596  0 */\n  0x00\n    /* \"@openzeppelin/contracts/token/ERC20/ERC20.sol\":8599:8606  account */\n  dup4\n    /* \"@openzeppelin/contracts/token/ERC20/ERC20.sol\":8608:8614  amount */\n  dup4\n    /* \"@openzeppelin/contracts/token/ERC20/ERC20.sol\":8566:8586  _beforeTokenTransfer */\n  tag_43\n    /* \"@openzeppelin/contracts/token/ERC20/ERC20.sol\":8566:8615  _beforeTokenTransfer(address(0), account, amount) */\n  jump\t// in\ntag_42:\n    /* \"@openzeppelin/contracts/token/ERC20/ERC20.sol\":8642:8648  amount */\n  dup1\n    /* \"@openzeppelin/contracts/token/ERC20/ERC20.sol\":8626:8638  _totalSupply */\n  0x04\n  0x00\n    /* \"@openzeppelin/contracts/token/ERC20/ERC20.sol\":8626:8648  _totalSupply += amount */\n  dup3\n  dup3\n  sload\n  tag_44\n  swap2\n  swap1\n  tag_45\n  jump\t// in\ntag_44:\n  swap1\n  swap2\n  sstore\n  pop\n  pop\n  sub(shl(0xa0, 0x01), 0x01)\n    /* \"@openzeppelin/contracts/token/ERC20/ERC20.sol\":8658:8676  _balances[account] */\n  dup3\n  and\n  0x00\n  swap1\n  dup2\n  mstore\n    /* \"@openzeppelin/contracts/token/ERC20/ERC20.sol\":8658:8667  _balances */\n  0x02\n    /* \"@openzeppelin/contracts/token/ERC20/ERC20.sol\":8658:8676  _balances[account] */\n  0x20\n  mstore\n  0x40\n  dup2\n  keccak256\n    /* \"@openzeppelin/contracts/token/ERC20/ERC20.sol\":8658:8686  _balances[account] += amount */\n  dup1\n  sload\n    /* \"@openzeppelin/contracts/token/ERC20/ERC20.sol\":8680:8686  amount */\n  dup4\n  swap3\n    /* \"@openzeppelin/contracts/token/ERC20/ERC20.sol\":8658:8676  _balances[account] */\n  swap1\n    /* \"@openzeppelin/contracts/token/ERC20/ERC20.sol\":8658:8686  _balances[account] += amount */\n  tag_46\n  swap1\n    /* \"@openzeppelin/contracts/token/ERC20/ERC20.sol\":8680:8686  amount */\n  dup5\n  swap1\n    /* \"@openzeppelin/contracts/token/ERC20/ERC20.sol\":8658:8686  _balances[account] += amount */\n  tag_45\n  jump\t// in\ntag_46:\n  swap1\n  swap2\n  sstore\n  pop\n  pop\n    /* \"@openzeppelin/contracts/token/ERC20/ERC20.sol\":8701:8738  Transfer(address(0), account, amount) */\n  mload(0x40)\n    /* \"#utility.yul\":2339:2364   */\n  dup2\n  dup2\n  mstore\n  sub(shl(0xa0, 0x01), 0x01)\n    /* \"@openzeppelin/contracts/token/ERC20/ERC20.sol\":8701:8738  Transfer(address(0), account, amount) */\n  dup4\n  and\n  swap1\n    /* \"@openzeppelin/contracts/token/ERC20/ERC20.sol\":8718:8719  0 */\n  0x00\n  swap1\n    /* \"@openzeppelin/contracts/token/ERC20/ERC20.sol\":8701:8738  Transfer(address(0), account, amount) */\n  0xddf252ad1be2c89b69c2b068fc378daa952ba7f163c4a11628f55a4df523b3ef\n  swap1\n    /* \"#utility.yul\":2327:2329   */\n  0x20\n    /* \"#utility.yul\":2312:2330   */\n  add\n    /* \"@openzeppelin/contracts/token/ERC20/ERC20.sol\":8701:8738  Transfer(address(0), account, amount) */\n  mload(0x40)\n  dup1\n  swap2\n  sub\n  swap1\n  log3\n    /* \"@openzeppelin/contracts/access/AccessControl.sol\":6257:6367  function _setupRole(bytes32 role, address account) internal virtual {... */\n  pop\n  pop\n  jump\t// out\n    /* \"@openzeppelin/contracts/access/AccessControlEnumerable.sol\":1978:2144  function _grantRole(bytes32 role, address account) internal virtual override {... */\ntag_36:\n    /* \"@openzeppelin/contracts/access/AccessControlEnumerable.sol\":2065:2096  super._grantRole(role, account) */\n  tag_52\n    /* \"@openzeppelin/contracts/access/AccessControlEnumerable.sol\":2082:2086  role */\n  dup3\n    /* \"@openzeppelin/contracts/access/AccessControlEnumerable.sol\":2088:2095  account */\n  dup3\n    /* \"@openzeppelin/contracts/access/AccessControlEnumerable.sol\":2065:2081  super._grantRole */\n  or(tag_0_183, shl(0x20, tag_53))\n    /* \"@openzeppelin/contracts/access/AccessControlEnumerable.sol\":2065:2096  super._grantRole(role, account) */\n  0x20\n  shr\n  jump\t// in\ntag_52:\n    /* \"@openzeppelin/contracts/access/AccessControlEnumerable.sol\":2106:2124  _roleMembers[role] */\n  0x00\n  dup3\n  dup2\n  mstore\n    /* \"@openzeppelin/contracts/access/AccessControlEnumerable.sol\":2106:2118  _roleMembers */\n  0x01\n    /* \"@openzeppelin/contracts/access/AccessControlEnumerable.sol\":2106:2124  _roleMembers[role] */\n  0x20\n  swap1\n  dup2\n  mstore\n  0x40\n  swap1\n  swap2\n  keccak256\n    /* \"@openzeppelin/contracts/access/AccessControlEnumerable.sol\":2106:2137  _roleMembers[role].add(account) */\n  tag_54\n  swap2\n    /* \"@openzeppelin/contracts/access/AccessControlEnumerable.sol\":2129:2136  account */\n  dup4\n  swap1\n    /* \"@openzeppelin/contracts/access/AccessControlEnumerable.sol\":2106:2128  _roleMembers[role].add */\n  tag_0_184\n  tag_55\n  dup3\n  shl\n  or\n    /* \"@openzeppelin/contracts/access/AccessControlEnumerable.sol\":2106:2137  _roleMembers[role].add(account) */\n  swap1\n  shr\n  jump\t// in\ntag_54:\n  pop\n    /* \"@openzeppelin/contracts/access/AccessControlEnumerable.sol\":1978:2144  function _grantRole(bytes32 role, address account) internal virtual override {... */\n  pop\n  pop\n  jump\t// out\n    /* \"contracts/HatTokenV2.sol\":1444:1919  function _beforeTokenTransfer(... */\ntag_43:\n  sub(shl(0xa0, 0x01), 0x01)\n    /* \"contracts/HatTokenV2.sol\":1632:1651  _blockSenders[from] */\n  dup4\n  and\n  0x00\n  swap1\n  dup2\n  mstore\n    /* \"contracts/HatTokenV2.sol\":1632:1645  _blockSenders */\n  0x0a\n    /* \"contracts/HatTokenV2.sol\":1632:1651  _blockSenders[from] */\n  0x20\n  mstore\n  0x40\n  swap1\n  keccak256\n  sload\n  0xff\n  and\n    /* \"contracts/HatTokenV2.sol\":1631:1651  !_blockSenders[from] */\n  iszero\n    /* \"contracts/HatTokenV2.sol\":1609:1725  require(... */\n  tag_57\n  jumpi\n  mload(0x40)\n  shl(0xe5, 0x461bcd)\n  dup2\n  mstore\n    /* \"#utility.yul\":2577:2579   */\n  0x20\n    /* \"contracts/HatTokenV2.sol\":1609:1725  require(... */\n  0x04\n  dup3\n  add\n    /* \"#utility.yul\":2559:2580   */\n  mstore\n    /* \"#utility.yul\":2616:2618   */\n  0x2e\n    /* \"#utility.yul\":2596:2614   */\n  0x24\n  dup3\n  add\n    /* \"#utility.yul\":2589:2619   */\n  mstore\n    /* \"#utility.yul\":2655:2689   */\n  0x4865726f204177616b656e20546f6b656e3a207468652073656e646572206861\n    /* \"#utility.yul\":2635:2653   */\n  0x44\n  dup3\n  add\n    /* \"#utility.yul\":2628:2690   */\n  mstore\n  shl(0x92, 0x1cc81899595b88189b1bd8dad959)\n    /* \"#utility.yul\":2706:2724   */\n  0x64\n  dup3\n  add\n    /* \"#utility.yul\":2699:2743   */\n  mstore\n    /* \"#utility.yul\":2760:2779   */\n  0x84\n  add\n    /* \"contracts/HatTokenV2.sol\":1609:1725  require(... */\n  tag_40\n    /* \"#utility.yul\":2375:2785   */\n  jump\n    /* \"contracts/HatTokenV2.sol\":1609:1725  require(... */\ntag_57:\n  sub(shl(0xa0, 0x01), 0x01)\n    /* \"contracts/HatTokenV2.sol\":1759:1778  _blockReceivers[to] */\n  dup3\n  and\n  0x00\n  swap1\n  dup2\n  mstore\n    /* \"contracts/HatTokenV2.sol\":1759:1774  _blockReceivers */\n  0x0b\n    /* \"contracts/HatTokenV2.sol\":1759:1778  _blockReceivers[to] */\n  0x20\n  mstore\n  0x40\n  swap1\n  keccak256\n  sload\n  0xff\n  and\n    /* \"contracts/HatTokenV2.sol\":1758:1778  !_blockReceivers[to] */\n  iszero\n    /* \"contracts/HatTokenV2.sol\":1736:1854  require(... */\n  tag_60\n  jumpi\n  mload(0x40)\n  shl(0xe5, 0x461bcd)\n  dup2\n  mstore\n    /* \"#utility.yul\":2992:2994   */\n  0x20\n    /* \"contracts/HatTokenV2.sol\":1736:1854  require(... */\n  0x04\n  dup3\n  add\n    /* \"#utility.yul\":2974:2995   */\n  mstore\n    /* \"#utility.yul\":3031:3033   */\n  0x30\n    /* \"#utility.yul\":3011:3029   */\n  0x24\n  dup3\n  add\n    /* \"#utility.yul\":3004:3034   */\n  mstore\n    /* \"#utility.yul\":3070:3104   */\n  0x4865726f204177616b656e20546f6b656e3a2074686520726563656976657220\n    /* \"#utility.yul\":3050:3068   */\n  0x44\n  dup3\n  add\n    /* \"#utility.yul\":3043:3105   */\n  mstore\n  shl(0x82, 0x1a185cc81899595b88189b1bd8dad959)\n    /* \"#utility.yul\":3121:3139   */\n  0x64\n  dup3\n  add\n    /* \"#utility.yul\":3114:3160   */\n  mstore\n    /* \"#utility.yul\":3177:3196   */\n  0x84\n  add\n    /* \"contracts/HatTokenV2.sol\":1736:1854  require(... */\n  tag_40\n    /* \"#utility.yul\":2790:3202   */\n  jump\n    /* \"contracts/HatTokenV2.sol\":1736:1854  require(... */\ntag_60:\n    /* \"contracts/HatTokenV2.sol\":1867:1911  super._beforeTokenTransfer(from, to, amount) */\n  tag_54\n    /* \"contracts/HatTokenV2.sol\":1894:1898  from */\n  dup4\n    /* \"contracts/HatTokenV2.sol\":1900:1902  to */\n  dup4\n    /* \"contracts/HatTokenV2.sol\":1904:1910  amount */\n  dup4\n    /* \"contracts/HatTokenV2.sol\":1867:1893  super._beforeTokenTransfer */\n  or(tag_0_185, shl(0x20, tag_64))\n    /* \"contracts/HatTokenV2.sol\":1867:1911  super._beforeTokenTransfer(from, to, amount) */\n  0x20\n  shr\n  jump\t// in\n    /* \"@openzeppelin/contracts/access/AccessControl.sol\":6861:7094  function _grantRole(bytes32 role, address account) internal virtual {... */\ntag_53:\n    /* \"@openzeppelin/contracts/access/AccessControl.sol\":2995:2999  bool */\n  0x00\n    /* \"@openzeppelin/contracts/access/AccessControl.sol\":3018:3030  _roles[role] */\n  dup3\n  dup2\n  mstore\n  0x20\n  dup2\n  dup2\n  mstore\n  0x40\n  dup1\n  dup4\n  keccak256\n  sub(shl(0xa0, 0x01), 0x01)\n    /* \"@openzeppelin/contracts/access/AccessControl.sol\":3018:3047  _roles[role].members[account] */\n  dup6\n  and\n  dup5\n  mstore\n  swap1\n  swap2\n  mstore\n  swap1\n  keccak256\n  sload\n  0xff\n  and\n    /* \"@openzeppelin/contracts/access/AccessControl.sol\":6939:7088  if (!hasRole(role, account)) {... */\n  tag_35\n  jumpi\n    /* \"@openzeppelin/contracts/access/AccessControl.sol\":6982:6988  _roles */\n  0x00\n    /* \"@openzeppelin/contracts/access/AccessControl.sol\":6982:6994  _roles[role] */\n  dup3\n  dup2\n  mstore\n  0x20\n  dup2\n  dup2\n  mstore\n  0x40\n  dup1\n  dup4\n  keccak256\n  sub(shl(0xa0, 0x01), 0x01)\n    /* \"@openzeppelin/contracts/access/AccessControl.sol\":6982:7011  _roles[role].members[account] */\n  dup6\n  and\n  dup5\n  mstore\n  swap1\n  swap2\n  mstore\n  swap1\n  keccak256\n    /* \"@openzeppelin/contracts/access/AccessControl.sol\":6982:7018  _roles[role].members[account] = true */\n  dup1\n  sload\n  not(0xff)\n  and\n    /* \"@openzeppelin/contracts/access/AccessControl.sol\":7014:7018  true */\n  0x01\n    /* \"@openzeppelin/contracts/access/AccessControl.sol\":6982:7018  _roles[role].members[account] = true */\n  or\n  swap1\n  sstore\n    /* \"@openzeppelin/contracts/access/AccessControl.sol\":7064:7076  _msgSender() */\n  tag_70\n    /* \"@openzeppelin/contracts/utils/Context.sol\":719:729  msg.sender */\n  caller\n  swap1\n    /* \"@openzeppelin/contracts/utils/Context.sol\":640:736  function _msgSender() internal view virtual returns (address) {... */\n  jump\n    /* \"@openzeppelin/contracts/access/AccessControl.sol\":7064:7076  _msgSender() */\ntag_70:\n  sub(shl(0xa0, 0x01), 0x01)\n    /* \"@openzeppelin/contracts/access/AccessControl.sol\":7037:7077  RoleGranted(role, account, _msgSender()) */\n  and\n    /* \"@openzeppelin/contracts/access/AccessControl.sol\":7055:7062  account */\n  dup2\n  sub(shl(0xa0, 0x01), 0x01)\n    /* \"@openzeppelin/contracts/access/AccessControl.sol\":7037:7077  RoleGranted(role, account, _msgSender()) */\n  and\n    /* \"@openzeppelin/contracts/access/AccessControl.sol\":7049:7053  role */\n  dup4\n    /* \"@openzeppelin/contracts/access/AccessControl.sol\":7037:7077  RoleGranted(role, account, _msgSender()) */\n  0x2f8788117e7eff1d82e926ec794901d17c78024a50270940304540a733656f0d\n  mload(0x40)\n  mload(0x40)\n  dup1\n  swap2\n  sub\n  swap1\n  log4\n    /* \"@openzeppelin/contracts/access/AccessControl.sol\":6861:7094  function _grantRole(bytes32 role, address account) internal virtual {... */\n  pop\n  pop\n  jump\t// out\n    /* \"@openzeppelin/contracts/utils/structs/EnumerableSet.sol\":7612:7762  function add(AddressSet storage set, address value) internal returns (bool) {... */\ntag_55:\n    /* \"@openzeppelin/contracts/utils/structs/EnumerableSet.sol\":7682:7686  bool */\n  0x00\n    /* \"@openzeppelin/contracts/utils/structs/EnumerableSet.sol\":7705:7755  _add(set._inner, bytes32(uint256(uint160(value)))) */\n  tag_72\n    /* \"@openzeppelin/contracts/utils/structs/EnumerableSet.sol\":7710:7713  set */\n  dup4\n  sub(shl(0xa0, 0x01), 0x01)\n    /* \"@openzeppelin/contracts/utils/structs/EnumerableSet.sol\":7730:7753  uint256(uint160(value)) */\n  dup5\n  and\n    /* \"@openzeppelin/contracts/utils/structs/EnumerableSet.sol\":7705:7709  _add */\n  tag_73\n    /* \"@openzeppelin/contracts/utils/structs/EnumerableSet.sol\":7705:7755  _add(set._inner, bytes32(uint256(uint160(value)))) */\n  jump\t// in\ntag_72:\n    /* \"@openzeppelin/contracts/utils/structs/EnumerableSet.sol\":7698:7755  return _add(set._inner, bytes32(uint256(uint160(value)))) */\n  swap1\n  pop\n    /* \"@openzeppelin/contracts/utils/structs/EnumerableSet.sol\":7612:7762  function add(AddressSet storage set, address value) internal returns (bool) {... */\ntag_71:\n  swap3\n  swap2\n  pop\n  pop\n  jump\t// out\n    /* \"@openzeppelin/contracts/token/ERC20/extensions/ERC20Pausable.sol\":665:929  function _beforeTokenTransfer(... */\ntag_64:\n    /* \"@openzeppelin/contracts/token/ERC20/extensions/ERC20Pausable.sol\":803:847  super._beforeTokenTransfer(from, to, amount) */\n  tag_75\n    /* \"@openzeppelin/contracts/token/ERC20/extensions/ERC20Pausable.sol\":830:834  from */\n  dup4\n    /* \"@openzeppelin/contracts/token/ERC20/extensions/ERC20Pausable.sol\":836:838  to */\n  dup4\n    /* \"@openzeppelin/contracts/token/ERC20/extensions/ERC20Pausable.sol\":840:846  amount */\n  dup4\n    /* \"@openzeppelin/contracts/token/ERC20/extensions/ERC20Pausable.sol\":803:829  super._beforeTokenTransfer */\n  or(tag_0_217, shl(0x20, tag_54))\n    /* \"@openzeppelin/contracts/token/ERC20/extensions/ERC20Pausable.sol\":803:847  super._beforeTokenTransfer(from, to, amount) */\n  0x20\n  shr\n  jump\t// in\ntag_75:\n    /* \"@openzeppelin/contracts/security/Pausable.sol\":1168:1175  _paused */\n  and(0xff, sload(0x07))\n    /* \"@openzeppelin/contracts/token/ERC20/extensions/ERC20Pausable.sol\":866:875  !paused() */\n  iszero\n    /* \"@openzeppelin/contracts/token/ERC20/extensions/ERC20Pausable.sol\":858:922  require(!paused(), \"ERC20Pausable: token transfer while paused\") */\n  tag_54\n  jumpi\n  mload(0x40)\n  shl(0xe5, 0x461bcd)\n  dup2\n  mstore\n    /* \"#utility.yul\":3409:3411   */\n  0x20\n    /* \"@openzeppelin/contracts/token/ERC20/extensions/ERC20Pausable.sol\":858:922  require(!paused(), \"ERC20Pausable: token transfer while paused\") */\n  0x04\n  dup3\n  add\n    /* \"#utility.yul\":3391:3412   */\n  mstore\n    /* \"#utility.yul\":3448:3450   */\n  0x2a\n    /* \"#utility.yul\":3428:3446   */\n  0x24\n  dup3\n  add\n    /* \"#utility.yul\":3421:3451   */\n  mstore\n    /* \"#utility.yul\":3487:3521   */\n  0x45524332305061757361626c653a20746f6b656e207472616e73666572207768\n    /* \"#utility.yul\":3467:3485   */\n  0x44\n  dup3\n  add\n    /* \"#utility.yul\":3460:3522   */\n  mstore\n  shl(0xb2, 0x1a5b19481c185d5cd959)\n    /* \"#utility.yul\":3538:3556   */\n  0x64\n  dup3\n  add\n    /* \"#utility.yul\":3531:3571   */\n  mstore\n    /* \"#utility.yul\":3588:3607   */\n  0x84\n  add\n    /* \"@openzeppelin/contracts/token/ERC20/extensions/ERC20Pausable.sol\":858:922  require(!paused(), \"ERC20Pausable: token transfer while paused\") */\n  tag_40\n    /* \"#utility.yul\":3207:3613   */\n  jump\n    /* \"@openzeppelin/contracts/utils/structs/EnumerableSet.sol\":1697:2101  function _add(Set storage set, bytes32 value) private returns (bool) {... */\ntag_73:\n    /* \"@openzeppelin/contracts/utils/structs/EnumerableSet.sol\":1760:1764  bool */\n  0x00\n    /* \"@openzeppelin/contracts/utils/structs/EnumerableSet.sol\":3834:3853  set._indexes[value] */\n  dup2\n  dup2\n  mstore\n    /* \"@openzeppelin/contracts/utils/structs/EnumerableSet.sol\":3834:3846  set._indexes */\n  0x01\n  dup4\n  add\n    /* \"@openzeppelin/contracts/utils/structs/EnumerableSet.sol\":3834:3853  set._indexes[value] */\n  0x20\n  mstore\n  0x40\n  dup2\n  keccak256\n  sload\n    /* \"@openzeppelin/contracts/utils/structs/EnumerableSet.sol\":1776:2095  if (!_contains(set, value)) {... */\n  tag_86\n  jumpi\n  pop\n    /* \"@openzeppelin/contracts/utils/structs/EnumerableSet.sol\":1818:1841  set._values.push(value) */\n  dup2\n  sload\n  0x01\n  dup2\n  dup2\n  add\n  dup5\n  sstore\n    /* \"@openzeppelin/contracts/utils/structs/EnumerableSet.sol\":1818:1829  set._values */\n  0x00\n    /* \"@openzeppelin/contracts/utils/structs/EnumerableSet.sol\":1818:1841  set._values.push(value) */\n  dup5\n  dup2\n  mstore\n  0x20\n  dup1\n  dup3\n  keccak256\n  swap1\n  swap4\n  add\n  dup5\n  swap1\n  sstore\n    /* \"@openzeppelin/contracts/utils/structs/EnumerableSet.sol\":1998:2016  set._values.length */\n  dup5\n  sload\n    /* \"@openzeppelin/contracts/utils/structs/EnumerableSet.sol\":1976:1995  set._indexes[value] */\n  dup5\n  dup3\n  mstore\n    /* \"@openzeppelin/contracts/utils/structs/EnumerableSet.sol\":1976:1988  set._indexes */\n  dup3\n  dup7\n  add\n    /* \"@openzeppelin/contracts/utils/structs/EnumerableSet.sol\":1976:1995  set._indexes[value] */\n  swap1\n  swap4\n  mstore\n  0x40\n  swap1\n  keccak256\n    /* \"@openzeppelin/contracts/utils/structs/EnumerableSet.sol\":1976:2016  set._indexes[value] = set._values.length */\n  swap2\n  swap1\n  swap2\n  sstore\n    /* \"@openzeppelin/contracts/utils/structs/EnumerableSet.sol\":2030:2041  return true */\n  jump(tag_71)\n    /* \"@openzeppelin/contracts/utils/structs/EnumerableSet.sol\":1776:2095  if (!_contains(set, value)) {... */\ntag_86:\n  pop\n    /* \"@openzeppelin/contracts/utils/structs/EnumerableSet.sol\":2079:2084  false */\n  0x00\n    /* \"@openzeppelin/contracts/utils/structs/EnumerableSet.sol\":2072:2084  return false */\n  jump(tag_71)\n    /* \"contracts/HatTokenV2.sol\":510:4040  contract HatTokenV2 is Context, AccessControlEnumerable, ERC20Burnable, ERC20Pausable, Ownable {... */\ntag_10:\n  dup3\n  dup1\n  sload\n  tag_92\n  swap1\n  tag_93\n  jump\t// in\ntag_92:\n  swap1\n  0x00\n  mstore\n  keccak256(0x00, 0x20)\n  swap1\n  0x1f\n  add\n  0x20\n  swap1\n  div\n  dup2\n  add\n  swap3\n  dup3\n  tag_95\n  jumpi\n  0x00\n  dup6\n  sstore\n  jump(tag_98)\ntag_95:\n  dup3\n  0x1f\n  lt\n  tag_96\n  jumpi\n  dup1\n  mload\n  not(0xff)\n  and\n  dup4\n  dup1\n  add\n  or\n  dup6\n  sstore\n  jump(tag_98)\ntag_96:\n  dup3\n  dup1\n  add\n  0x01\n  add\n  dup6\n  sstore\n  dup3\n  iszero\n  tag_98\n  jumpi\n  swap2\n  dup3\n  add\ntag_97:\n  dup3\n  dup2\n  gt\n  iszero\n  tag_98\n  jumpi\n  dup3\n  mload\n  dup3\n  sstore\n  swap2\n  0x20\n  add\n  swap2\n  swap1\n  0x01\n  add\n  swap1\n  jump(tag_97)\ntag_98:\n  pop\n  tag_99\n  swap3\n  swap2\n  pop\n  tag_100\n  jump\t// in\ntag_99:\n  pop\n  swap1\n  jump\t// out\ntag_100:\ntag_101:\n  dup1\n  dup3\n  gt\n  iszero\n  tag_99\n  jumpi\n  0x00\n  dup2\n  sstore\n  0x01\n  add\n  jump(tag_101)\n    /* \"#utility.yul\":14:141   */\ntag_103:\n    /* \"#utility.yul\":75:85   */\n  0x4e487b71\n    /* \"#utility.yul\":70:73   */\n  0xe0\n    /* \"#utility.yul\":66:86   */\n  shl\n    /* \"#utility.yul\":63:64   */\n  0x00\n    /* \"#utility.yul\":56:87   */\n  mstore\n    /* \"#utility.yul\":106:110   */\n  0x41\n    /* \"#utility.yul\":103:104   */\n  0x04\n    /* \"#utility.yul\":96:111   */\n  mstore\n    /* \"#utility.yul\":130:134   */\n  0x24\n    /* \"#utility.yul\":127:128   */\n  0x00\n    /* \"#utility.yul\":120:135   */\n  revert\n    /* \"#utility.yul\":146:1031   */\ntag_104:\n    /* \"#utility.yul\":200:205   */\n  0x00\n    /* \"#utility.yul\":253:256   */\n  dup3\n    /* \"#utility.yul\":246:250   */\n  0x1f\n    /* \"#utility.yul\":238:244   */\n  dup4\n    /* \"#utility.yul\":234:251   */\n  add\n    /* \"#utility.yul\":230:257   */\n  slt\n    /* \"#utility.yul\":220:275   */\n  tag_108\n  jumpi\n    /* \"#utility.yul\":271:272   */\n  0x00\n    /* \"#utility.yul\":268:269   */\n  dup1\n    /* \"#utility.yul\":261:273   */\n  revert\n    /* \"#utility.yul\":220:275   */\ntag_108:\n    /* \"#utility.yul\":294:307   */\n  dup2\n  mload\n  sub(shl(0x40, 0x01), 0x01)\n    /* \"#utility.yul\":356:366   */\n  dup1\n  dup3\n  gt\n    /* \"#utility.yul\":353:389   */\n  iszero\n  tag_110\n  jumpi\n    /* \"#utility.yul\":369:387   */\n  tag_110\n  tag_103\n  jump\t// in\ntag_110:\n    /* \"#utility.yul\":444:446   */\n  0x40\n    /* \"#utility.yul\":438:447   */\n  mload\n    /* \"#utility.yul\":412:414   */\n  0x1f\n    /* \"#utility.yul\":498:511   */\n  dup4\n  add\n  not(0x1f)\n    /* \"#utility.yul\":494:516   */\n  swap1\n  dup2\n  and\n    /* \"#utility.yul\":518:520   */\n  0x3f\n    /* \"#utility.yul\":490:521   */\n  add\n    /* \"#utility.yul\":486:526   */\n  and\n    /* \"#utility.yul\":474:527   */\n  dup2\n  add\n  swap1\n    /* \"#utility.yul\":542:560   */\n  dup3\n  dup3\n  gt\n    /* \"#utility.yul\":562:584   */\n  dup2\n  dup4\n  lt\n    /* \"#utility.yul\":539:585   */\n  or\n    /* \"#utility.yul\":536:608   */\n  iszero\n  tag_112\n  jumpi\n    /* \"#utility.yul\":588:606   */\n  tag_112\n  tag_103\n  jump\t// in\ntag_112:\n    /* \"#utility.yul\":628:638   */\n  dup2\n    /* \"#utility.yul\":624:626   */\n  0x40\n    /* \"#utility.yul\":617:639   */\n  mstore\n    /* \"#utility.yul\":663:665   */\n  dup4\n    /* \"#utility.yul\":655:661   */\n  dup2\n    /* \"#utility.yul\":648:666   */\n  mstore\n    /* \"#utility.yul\":685:689   */\n  0x20\n    /* \"#utility.yul\":675:689   */\n  swap3\n  pop\n    /* \"#utility.yul\":730:733   */\n  dup7\n    /* \"#utility.yul\":725:727   */\n  dup4\n    /* \"#utility.yul\":720:722   */\n  dup6\n    /* \"#utility.yul\":712:718   */\n  dup9\n    /* \"#utility.yul\":708:723   */\n  add\n    /* \"#utility.yul\":704:728   */\n  add\n    /* \"#utility.yul\":701:734   */\n  gt\n    /* \"#utility.yul\":698:751   */\n  iszero\n  tag_113\n  jumpi\n    /* \"#utility.yul\":747:748   */\n  0x00\n    /* \"#utility.yul\":744:745   */\n  dup1\n    /* \"#utility.yul\":737:749   */\n  revert\n    /* \"#utility.yul\":698:751   */\ntag_113:\n    /* \"#utility.yul\":769:770   */\n  0x00\n    /* \"#utility.yul\":760:770   */\n  swap2\n  pop\n    /* \"#utility.yul\":779:912   */\ntag_114:\n    /* \"#utility.yul\":793:795   */\n  dup4\n    /* \"#utility.yul\":790:791   */\n  dup3\n    /* \"#utility.yul\":787:796   */\n  lt\n    /* \"#utility.yul\":779:912   */\n  iszero\n  tag_116\n  jumpi\n    /* \"#utility.yul\":881:895   */\n  dup6\n  dup3\n  add\n    /* \"#utility.yul\":877:900   */\n  dup4\n  add\n    /* \"#utility.yul\":871:901   */\n  mload\n    /* \"#utility.yul\":850:864   */\n  dup2\n  dup4\n  add\n    /* \"#utility.yul\":846:869   */\n  dup5\n  add\n    /* \"#utility.yul\":839:902   */\n  mstore\n    /* \"#utility.yul\":804:814   */\n  swap1\n  dup3\n  add\n  swap1\n    /* \"#utility.yul\":779:912   */\n  jump(tag_114)\ntag_116:\n    /* \"#utility.yul\":930:932   */\n  dup4\n    /* \"#utility.yul\":927:928   */\n  dup3\n    /* \"#utility.yul\":924:933   */\n  gt\n    /* \"#utility.yul\":921:1001   */\n  iszero\n  tag_117\n  jumpi\n    /* \"#utility.yul\":989:990   */\n  0x00\n    /* \"#utility.yul\":984:986   */\n  dup4\n    /* \"#utility.yul\":979:981   */\n  dup6\n    /* \"#utility.yul\":971:977   */\n  dup4\n    /* \"#utility.yul\":967:982   */\n  add\n    /* \"#utility.yul\":963:987   */\n  add\n    /* \"#utility.yul\":956:991   */\n  mstore\n    /* \"#utility.yul\":921:1001   */\ntag_117:\n    /* \"#utility.yul\":1019:1025   */\n  swap7\n    /* \"#utility.yul\":146:1031   */\n  swap6\n  pop\n  pop\n  pop\n  pop\n  pop\n  pop\n  jump\t// out\n    /* \"#utility.yul\":1036:1598   */\ntag_3:\n    /* \"#utility.yul\":1135:1141   */\n  0x00\n    /* \"#utility.yul\":1143:1149   */\n  dup1\n    /* \"#utility.yul\":1196:1198   */\n  0x40\n    /* \"#utility.yul\":1184:1193   */\n  dup4\n    /* \"#utility.yul\":1175:1182   */\n  dup6\n    /* \"#utility.yul\":1171:1194   */\n  sub\n    /* \"#utility.yul\":1167:1199   */\n  slt\n    /* \"#utility.yul\":1164:1216   */\n  iszero\n  tag_119\n  jumpi\n    /* \"#utility.yul\":1212:1213   */\n  0x00\n    /* \"#utility.yul\":1209:1210   */\n  dup1\n    /* \"#utility.yul\":1202:1214   */\n  revert\n    /* \"#utility.yul\":1164:1216   */\ntag_119:\n    /* \"#utility.yul\":1239:1255   */\n  dup3\n  mload\n  sub(shl(0x40, 0x01), 0x01)\n    /* \"#utility.yul\":1304:1318   */\n  dup1\n  dup3\n  gt\n    /* \"#utility.yul\":1301:1335   */\n  iszero\n  tag_120\n  jumpi\n    /* \"#utility.yul\":1331:1332   */\n  0x00\n    /* \"#utility.yul\":1328:1329   */\n  dup1\n    /* \"#utility.yul\":1321:1333   */\n  revert\n    /* \"#utility.yul\":1301:1335   */\ntag_120:\n    /* \"#utility.yul\":1354:1415   */\n  tag_121\n    /* \"#utility.yul\":1407:1414   */\n  dup7\n    /* \"#utility.yul\":1398:1404   */\n  dup4\n    /* \"#utility.yul\":1387:1396   */\n  dup8\n    /* \"#utility.yul\":1383:1405   */\n  add\n    /* \"#utility.yul\":1354:1415   */\n  tag_104\n  jump\t// in\ntag_121:\n    /* \"#utility.yul\":1344:1415   */\n  swap4\n  pop\n    /* \"#utility.yul\":1461:1463   */\n  0x20\n    /* \"#utility.yul\":1450:1459   */\n  dup6\n    /* \"#utility.yul\":1446:1464   */\n  add\n    /* \"#utility.yul\":1440:1465   */\n  mload\n    /* \"#utility.yul\":1424:1465   */\n  swap2\n  pop\n    /* \"#utility.yul\":1490:1492   */\n  dup1\n    /* \"#utility.yul\":1480:1488   */\n  dup3\n    /* \"#utility.yul\":1477:1493   */\n  gt\n    /* \"#utility.yul\":1474:1510   */\n  iszero\n  tag_122\n  jumpi\n    /* \"#utility.yul\":1506:1507   */\n  0x00\n    /* \"#utility.yul\":1503:1504   */\n  dup1\n    /* \"#utility.yul\":1496:1508   */\n  revert\n    /* \"#utility.yul\":1474:1510   */\ntag_122:\n  pop\n    /* \"#utility.yul\":1529:1592   */\n  tag_123\n    /* \"#utility.yul\":1584:1591   */\n  dup6\n    /* \"#utility.yul\":1573:1581   */\n  dup3\n    /* \"#utility.yul\":1562:1571   */\n  dup7\n    /* \"#utility.yul\":1558:1582   */\n  add\n    /* \"#utility.yul\":1529:1592   */\n  tag_104\n  jump\t// in\ntag_123:\n    /* \"#utility.yul\":1519:1592   */\n  swap2\n  pop\n  pop\n    /* \"#utility.yul\":1036:1598   */\n  swap3\n  pop\n  swap3\n  swap1\n  pop\n  jump\t// out\n    /* \"#utility.yul\":1963:2188   */\ntag_45:\n    /* \"#utility.yul\":2003:2006   */\n  0x00\n    /* \"#utility.yul\":2034:2035   */\n  dup3\n    /* \"#utility.yul\":2030:2036   */\n  not\n    /* \"#utility.yul\":2027:2028   */\n  dup3\n    /* \"#utility.yul\":2024:2037   */\n  gt\n    /* \"#utility.yul\":2021:2157   */\n  iszero\n  tag_126\n  jumpi\n    /* \"#utility.yul\":2079:2089   */\n  0x4e487b71\n    /* \"#utility.yul\":2074:2077   */\n  0xe0\n    /* \"#utility.yul\":2070:2090   */\n  shl\n    /* \"#utility.yul\":2067:2068   */\n  0x00\n    /* \"#utility.yul\":2060:2091   */\n  mstore\n    /* \"#utility.yul\":2114:2118   */\n  0x11\n    /* \"#utility.yul\":2111:2112   */\n  0x04\n    /* \"#utility.yul\":2104:2119   */\n  mstore\n    /* \"#utility.yul\":2142:2146   */\n  0x24\n    /* \"#utility.yul\":2139:2140   */\n  0x00\n    /* \"#utility.yul\":2132:2147   */\n  revert\n    /* \"#utility.yul\":2021:2157   */\ntag_126:\n  pop\n    /* \"#utility.yul\":2173:2182   */\n  add\n  swap1\n    /* \"#utility.yul\":1963:2188   */\n  jump\t// out\n    /* \"#utility.yul\":3618:3998   */\ntag_93:\n    /* \"#utility.yul\":3697:3698   */\n  0x01\n    /* \"#utility.yul\":3693:3705   */\n  dup2\n  dup2\n  shr\n  swap1\n    /* \"#utility.yul\":3740:3752   */\n  dup3\n  and\n  dup1\n    /* \"#utility.yul\":3761:3822   */\n  tag_132\n  jumpi\n    /* \"#utility.yul\":3815:3819   */\n  0x7f\n    /* \"#utility.yul\":3807:3813   */\n  dup3\n    /* \"#utility.yul\":3803:3820   */\n  and\n    /* \"#utility.yul\":3793:3820   */\n  swap2\n  pop\n    /* \"#utility.yul\":3761:3822   */\ntag_132:\n    /* \"#utility.yul\":3868:3870   */\n  0x20\n    /* \"#utility.yul\":3860:3866   */\n  dup3\n    /* \"#utility.yul\":3857:3871   */\n  lt\n    /* \"#utility.yul\":3837:3855   */\n  dup2\n    /* \"#utility.yul\":3834:3872   */\n  sub\n    /* \"#utility.yul\":3831:3992   */\n  tag_133\n  jumpi\n    /* \"#utility.yul\":3914:3924   */\n  0x4e487b71\n    /* \"#utility.yul\":3909:3912   */\n  0xe0\n    /* \"#utility.yul\":3905:3925   */\n  shl\n    /* \"#utility.yul\":3902:3903   */\n  0x00\n    /* \"#utility.yul\":3895:3926   */\n  mstore\n    /* \"#utility.yul\":3949:3953   */\n  0x22\n    /* \"#utility.yul\":3946:3947   */\n  0x04\n    /* \"#utility.yul\":3939:3954   */\n  mstore\n    /* \"#utility.yul\":3977:3981   */\n  0x24\n    /* \"#utility.yul\":3974:3975   */\n  0x00\n    /* \"#utility.yul\":3967:3982   */\n  revert\n    /* \"#utility.yul\":3831:3992   */\ntag_133:\n  pop\n    /* \"#utility.yul\":3618:3998   */\n  swap2\n  swap1\n  pop\n  jump\t// out\ntag_105:\n    /* \"contracts/HatTokenV2.sol\":510:4040  contract HatTokenV2 is Context, AccessControlEnumerable, ERC20Burnable, ERC20Pausable, Ownable {... */\n  dataSize(sub_0)\n  dup1\n  dataOffset(sub_0)\n  0x00\n  codecopy\n  0x00\n  return\nstop\n\nsub_0: assembly {\n        /* \"contracts/HatTokenV2.sol\":510:4040  contract HatTokenV2 is Context, AccessControlEnumerable, ERC20Burnable, ERC20Pausable, Ownable {... */\n      mstore(0x40, 0x80)\n      callvalue\n      dup1\n      iszero\n      tag_1\n      jumpi\n      0x00\n      dup1\n      revert\n    tag_1:\n      pop\n      jumpi(tag_2, lt(calldatasize, 0x04))\n      shr(0xe0, calldataload(0x00))\n      dup1\n      0x8bea9334\n      gt\n      tag_39\n      jumpi\n      dup1\n      0xa9059cbb\n      gt\n      tag_40\n      jumpi\n      dup1\n      0xdd62ed3e\n      gt\n      tag_41\n      jumpi\n      dup1\n      0xdd62ed3e\n      eq\n      tag_34\n      jumpi\n      dup1\n      0xe5962195\n      eq\n      tag_35\n      jumpi\n      dup1\n      0xe63ab1e9\n      eq\n      tag_36\n      jumpi\n      dup1\n      0xeefb9be2\n      eq\n      tag_37\n      jumpi\n      dup1\n      0xf2fde38b\n      eq\n      tag_38\n      jumpi\n      0x00\n      dup1\n      revert\n    tag_41:\n      dup1\n      0xa9059cbb\n      eq\n      tag_30\n      jumpi\n      dup1\n      0xca15c873\n      eq\n      tag_31\n      jumpi\n      dup1\n      0xd5391393\n      eq\n      tag_32\n      jumpi\n      dup1\n      0xd547741f\n      eq\n      tag_33\n      jumpi\n      0x00\n      dup1\n      revert\n    tag_40:\n      dup1\n      0x95d89b41\n      gt\n      tag_42\n      jumpi\n      dup1\n      0x95d89b41\n      eq\n      tag_25\n      jumpi\n      dup1\n      0x98118cb4\n      eq\n      tag_26\n      jumpi\n      dup1\n      0xa128471f\n      eq\n      tag_27\n      jumpi\n      dup1\n      0xa217fddf\n      eq\n      tag_28\n      jumpi\n      dup1\n      0xa457c2d7\n      eq\n      tag_29\n      jumpi\n      0x00\n      dup1\n      revert\n    tag_42:\n      dup1\n      0x8bea9334\n      eq\n      tag_21\n      jumpi\n      dup1\n      0x8da5cb5b\n      eq\n      tag_20\n      jumpi\n      dup1\n      0x9010d07c\n      eq\n      tag_23\n      jumpi\n      dup1\n      0x91d14854\n      eq\n      tag_24\n      jumpi\n      0x00\n      dup1\n      revert\n    tag_39:\n      dup1\n      0x36568abe\n      gt\n      tag_43\n      jumpi\n      dup1\n      0x70a08231\n      gt\n      tag_44\n      jumpi\n      dup1\n      0x70a08231\n      eq\n      tag_16\n      jumpi\n      dup1\n      0x715018a6\n      eq\n      tag_17\n      jumpi\n      dup1\n      0x79cc6790\n      eq\n      tag_18\n      jumpi\n      dup1\n      0x7f257c3e\n      eq\n      tag_19\n      jumpi\n      dup1\n      0x893d20e8\n      eq\n      tag_20\n      jumpi\n      0x00\n      dup1\n      revert\n    tag_44:\n      dup1\n      0x36568abe\n      eq\n      tag_12\n      jumpi\n      dup1\n      0x39509351\n      eq\n      tag_13\n      jumpi\n      dup1\n      0x42966c68\n      eq\n      tag_14\n      jumpi\n      dup1\n      0x5c975abb\n      eq\n      tag_15\n      jumpi\n      0x00\n      dup1\n      revert\n    tag_43:\n      dup1\n      0x23b872dd\n      gt\n      tag_45\n      jumpi\n      dup1\n      0x23b872dd\n      eq\n      tag_7\n      jumpi\n      dup1\n      0x248a9ca3\n      eq\n      tag_8\n      jumpi\n      dup1\n      0x2f2ff15d\n      eq\n      tag_9\n      jumpi\n      dup1\n      0x313ce567\n      eq\n      tag_10\n      jumpi\n      dup1\n      0x357bf15c\n      eq\n      tag_11\n      jumpi\n      0x00\n      dup1\n      revert\n    tag_45:\n      dup1\n      0x01ffc9a7\n      eq\n      tag_3\n      jumpi\n      dup1\n      0x06fdde03\n      eq\n      tag_4\n      jumpi\n      dup1\n      0x095ea7b3\n      eq\n      tag_5\n      jumpi\n      dup1\n      0x18160ddd\n      eq\n      tag_6\n      jumpi\n    tag_2:\n      0x00\n      dup1\n      revert\n        /* \"@openzeppelin/contracts/access/AccessControlEnumerable.sol\":634:846  function supportsInterface(bytes4 interfaceId) public view virtual override returns (bool) {... */\n    tag_3:\n      tag_46\n      tag_47\n      calldatasize\n      0x04\n      tag_48\n      jump\t// in\n    tag_47:\n      tag_49\n      jump\t// in\n    tag_46:\n      mload(0x40)\n        /* \"#utility.yul\":470:484   */\n      swap1\n      iszero\n        /* \"#utility.yul\":463:485   */\n      iszero\n        /* \"#utility.yul\":445:486   */\n      dup2\n      mstore\n        /* \"#utility.yul\":433:435   */\n      0x20\n        /* \"#utility.yul\":418:436   */\n      add\n        /* \"@openzeppelin/contracts/access/AccessControlEnumerable.sol\":634:846  function supportsInterface(bytes4 interfaceId) public view virtual override returns (bool) {... */\n    tag_50:\n      mload(0x40)\n      dup1\n      swap2\n      sub\n      swap1\n      return\n        /* \"@openzeppelin/contracts/token/ERC20/ERC20.sol\":2156:2254  function name() public view virtual override returns (string memory) {... */\n    tag_4:\n      tag_52\n      tag_53\n      jump\t// in\n    tag_52:\n      mload(0x40)\n      tag_50\n      swap2\n      swap1\n      tag_55\n      jump\t// in\n        /* \"@openzeppelin/contracts/token/ERC20/ERC20.sol\":4433:4630  function approve(address spender, uint256 amount) public virtual override returns (bool) {... */\n    tag_5:\n      tag_46\n      tag_57\n      calldatasize\n      0x04\n      tag_58\n      jump\t// in\n    tag_57:\n      tag_59\n      jump\t// in\n        /* \"@openzeppelin/contracts/token/ERC20/ERC20.sol\":3244:3350  function totalSupply() public view virtual override returns (uint256) {... */\n    tag_6:\n        /* \"@openzeppelin/contracts/token/ERC20/ERC20.sol\":3331:3343  _totalSupply */\n      sload(0x04)\n        /* \"@openzeppelin/contracts/token/ERC20/ERC20.sol\":3244:3350  function totalSupply() public view virtual override returns (uint256) {... */\n    tag_61:\n      mload(0x40)\n        /* \"#utility.yul\":1731:1756   */\n      swap1\n      dup2\n      mstore\n        /* \"#utility.yul\":1719:1721   */\n      0x20\n        /* \"#utility.yul\":1704:1722   */\n      add\n        /* \"@openzeppelin/contracts/token/ERC20/ERC20.sol\":3244:3350  function totalSupply() public view virtual override returns (uint256) {... */\n      tag_50\n        /* \"#utility.yul\":1585:1762   */\n      jump\n        /* \"@openzeppelin/contracts/token/ERC20/ERC20.sol\":5192:5478  function transferFrom(... */\n    tag_7:\n      tag_46\n      tag_66\n      calldatasize\n      0x04\n      tag_67\n      jump\t// in\n    tag_66:\n      tag_68\n      jump\t// in\n        /* \"@openzeppelin/contracts/access/AccessControl.sol\":4008:4137  function getRoleAdmin(bytes32 role) public view virtual override returns (bytes32) {... */\n    tag_8:\n      tag_61\n      tag_71\n      calldatasize\n      0x04\n      tag_72\n      jump\t// in\n    tag_71:\n        /* \"@openzeppelin/contracts/access/AccessControl.sol\":4082:4089  bytes32 */\n      0x00\n        /* \"@openzeppelin/contracts/access/AccessControl.sol\":4108:4120  _roles[role] */\n      swap1\n      dup2\n      mstore\n      0x20\n      dup2\n      swap1\n      mstore\n      0x40\n      swap1\n      keccak256\n        /* \"@openzeppelin/contracts/access/AccessControl.sol\":4108:4130  _roles[role].adminRole */\n      0x01\n      add\n      sload\n      swap1\n        /* \"@openzeppelin/contracts/access/AccessControl.sol\":4008:4137  function getRoleAdmin(bytes32 role) public view virtual override returns (bytes32) {... */\n      jump\n        /* \"@openzeppelin/contracts/access/AccessControl.sol\":4387:4532  function grantRole(bytes32 role, address account) public virtual override onlyRole(getRoleAdmin(role)) {... */\n    tag_9:\n      tag_76\n      tag_77\n      calldatasize\n      0x04\n      tag_78\n      jump\t// in\n    tag_77:\n      tag_79\n      jump\t// in\n    tag_76:\n      stop\n        /* \"@openzeppelin/contracts/token/ERC20/ERC20.sol\":3093:3184  function decimals() public view virtual override returns (uint8) {... */\n    tag_10:\n      mload(0x40)\n        /* \"@openzeppelin/contracts/token/ERC20/ERC20.sol\":3175:3177  18 */\n      0x12\n        /* \"#utility.yul\":2868:2904   */\n      dup2\n      mstore\n        /* \"#utility.yul\":2856:2858   */\n      0x20\n        /* \"#utility.yul\":2841:2859   */\n      add\n        /* \"@openzeppelin/contracts/token/ERC20/ERC20.sol\":3093:3184  function decimals() public view virtual override returns (uint8) {... */\n      tag_50\n        /* \"#utility.yul\":2726:2910   */\n      jump\n        /* \"contracts/HatTokenV2.sol\":2656:2891  function setLiquidityFee(uint256 fee) public onlyOwner {... */\n    tag_11:\n      tag_76\n      tag_85\n      calldatasize\n      0x04\n      tag_72\n      jump\t// in\n    tag_85:\n      tag_87\n      jump\t// in\n        /* \"@openzeppelin/contracts/access/AccessControl.sol\":5404:5618  function renounceRole(bytes32 role, address account) public virtual override {... */\n    tag_12:\n      tag_76\n      tag_89\n      calldatasize\n      0x04\n      tag_78\n      jump\t// in\n    tag_89:\n      tag_90\n      jump\t// in\n        /* \"@openzeppelin/contracts/token/ERC20/ERC20.sol\":5873:6109  function increaseAllowance(address spender, uint256 addedValue) public virtual returns (bool) {... */\n    tag_13:\n      tag_46\n      tag_92\n      calldatasize\n      0x04\n      tag_58\n      jump\t// in\n    tag_92:\n      tag_93\n      jump\t// in\n        /* \"@openzeppelin/contracts/token/ERC20/extensions/ERC20Burnable.sol\":578:667  function burn(uint256 amount) public virtual {... */\n    tag_14:\n      tag_76\n      tag_96\n      calldatasize\n      0x04\n      tag_72\n      jump\t// in\n    tag_96:\n      tag_97\n      jump\t// in\n        /* \"@openzeppelin/contracts/security/Pausable.sol\":1098:1182  function paused() public view virtual returns (bool) {... */\n    tag_15:\n        /* \"@openzeppelin/contracts/security/Pausable.sol\":1168:1175  _paused */\n      and(0xff, sload(0x07))\n        /* \"@openzeppelin/contracts/security/Pausable.sol\":1098:1182  function paused() public view virtual returns (bool) {... */\n      jump(tag_46)\n        /* \"@openzeppelin/contracts/token/ERC20/ERC20.sol\":3408:3533  function balanceOf(address account) public view virtual override returns (uint256) {... */\n    tag_16:\n      tag_61\n      tag_102\n      calldatasize\n      0x04\n      tag_103\n      jump\t// in\n    tag_102:\n      sub(shl(0xa0, 0x01), 0x01)\n        /* \"@openzeppelin/contracts/token/ERC20/ERC20.sol\":3508:3526  _balances[account] */\n      and\n        /* \"@openzeppelin/contracts/token/ERC20/ERC20.sol\":3482:3489  uint256 */\n      0x00\n        /* \"@openzeppelin/contracts/token/ERC20/ERC20.sol\":3508:3526  _balances[account] */\n      swap1\n      dup2\n      mstore\n        /* \"@openzeppelin/contracts/token/ERC20/ERC20.sol\":3508:3517  _balances */\n      0x02\n        /* \"@openzeppelin/contracts/token/ERC20/ERC20.sol\":3508:3526  _balances[account] */\n      0x20\n      mstore\n      0x40\n      swap1\n      keccak256\n      sload\n      swap1\n        /* \"@openzeppelin/contracts/token/ERC20/ERC20.sol\":3408:3533  function balanceOf(address account) public view virtual override returns (uint256) {... */\n      jump\n        /* \"@openzeppelin/contracts/access/Ownable.sol\":1668:1769  function renounceOwnership() public virtual onlyOwner {... */\n    tag_17:\n      tag_76\n      tag_107\n      jump\t// in\n        /* \"@openzeppelin/contracts/token/ERC20/extensions/ERC20Burnable.sol\":973:1134  function burnFrom(address account, uint256 amount) public virtual {... */\n    tag_18:\n      tag_76\n      tag_109\n      calldatasize\n      0x04\n      tag_58\n      jump\t// in\n    tag_109:\n      tag_110\n      jump\t// in\n        /* \"contracts/HatTokenV2.sol\":2183:2284  function liquidityKeeper() external view returns (address) {... */\n    tag_19:\n        /* \"contracts/HatTokenV2.sol\":2260:2276  _liquidityKeeper */\n      and(sub(shl(0xa0, 0x01), 0x01), sload(0x09))\n        /* \"contracts/HatTokenV2.sol\":2183:2284  function liquidityKeeper() external view returns (address) {... */\n    tag_111:\n      mload(0x40)\n      sub(shl(0xa0, 0x01), 0x01)\n        /* \"#utility.yul\":3455:3487   */\n      swap1\n      swap2\n      and\n        /* \"#utility.yul\":3437:3488   */\n      dup2\n      mstore\n        /* \"#utility.yul\":3425:3427   */\n      0x20\n        /* \"#utility.yul\":3410:3428   */\n      add\n        /* \"contracts/HatTokenV2.sol\":2183:2284  function liquidityKeeper() external view returns (address) {... */\n      tag_50\n        /* \"#utility.yul\":3291:3494   */\n      jump\n        /* \"contracts/HatTokenV2.sol\":1987:2072  function getOwner() external view returns (address) {... */\n    tag_20:\n        /* \"@openzeppelin/contracts/access/Ownable.sol\":1108:1114  _owner */\n      sload(0x07)\n      0x0100\n      swap1\n      div\n      sub(shl(0xa0, 0x01), 0x01)\n      and\n        /* \"contracts/HatTokenV2.sol\":1987:2072  function getOwner() external view returns (address) {... */\n      jump(tag_111)\n        /* \"contracts/HatTokenV2.sol\":2436:2648  function blockUser(... */\n    tag_21:\n      tag_76\n      tag_119\n      calldatasize\n      0x04\n      tag_120\n      jump\t// in\n    tag_119:\n      tag_121\n      jump\t// in\n        /* \"@openzeppelin/contracts/access/AccessControlEnumerable.sol\":1431:1582  function getRoleMember(bytes32 role, uint256 index) public view virtual override returns (address) {... */\n    tag_23:\n      tag_111\n      tag_126\n      calldatasize\n      0x04\n      tag_127\n      jump\t// in\n    tag_126:\n      tag_128\n      jump\t// in\n        /* \"@openzeppelin/contracts/access/AccessControl.sol\":2909:3054  function hasRole(bytes32 role, address account) public view virtual override returns (bool) {... */\n    tag_24:\n      tag_46\n      tag_131\n      calldatasize\n      0x04\n      tag_78\n      jump\t// in\n    tag_131:\n      tag_132\n      jump\t// in\n        /* \"@openzeppelin/contracts/token/ERC20/ERC20.sol\":2367:2469  function symbol() public view virtual override returns (string memory) {... */\n    tag_25:\n      tag_52\n      tag_135\n      jump\t// in\n        /* \"contracts/HatTokenV2.sol\":2080:2175  function liquidityFee() external view returns (uint256) {... */\n    tag_26:\n        /* \"contracts/HatTokenV2.sol\":2154:2167  _liquidityFee */\n      sload(0x08)\n        /* \"contracts/HatTokenV2.sol\":2080:2175  function liquidityFee() external view returns (uint256) {... */\n      jump(tag_61)\n        /* \"contracts/HatTokenV2.sol\":2899:3004  function setLiquidityKeeper(address keeper) public onlyOwner {... */\n    tag_27:\n      tag_76\n      tag_141\n      calldatasize\n      0x04\n      tag_103\n      jump\t// in\n    tag_141:\n      tag_142\n      jump\t// in\n        /* \"@openzeppelin/contracts/access/AccessControl.sol\":2027:2076  bytes32 public constant DEFAULT_ADMIN_ROLE = 0x00 */\n    tag_28:\n      tag_61\n        /* \"@openzeppelin/contracts/access/AccessControl.sol\":2072:2076  0x00 */\n      0x00\n        /* \"@openzeppelin/contracts/access/AccessControl.sol\":2027:2076  bytes32 public constant DEFAULT_ADMIN_ROLE = 0x00 */\n      dup2\n      jump\n        /* \"@openzeppelin/contracts/token/ERC20/ERC20.sol\":6596:7025  function decreaseAllowance(address spender, uint256 subtractedValue) public virtual returns (bool) {... */\n    tag_29:\n      tag_46\n      tag_147\n      calldatasize\n      0x04\n      tag_58\n      jump\t// in\n    tag_147:\n      tag_148\n      jump\t// in\n        /* \"@openzeppelin/contracts/token/ERC20/ERC20.sol\":3729:3918  function transfer(address to, uint256 amount) public virtual override returns (bool) {... */\n    tag_30:\n      tag_46\n      tag_151\n      calldatasize\n      0x04\n      tag_58\n      jump\t// in\n    tag_151:\n      tag_152\n      jump\t// in\n        /* \"@openzeppelin/contracts/access/AccessControlEnumerable.sol\":1750:1890  function getRoleMemberCount(bytes32 role) public view virtual override returns (uint256) {... */\n    tag_31:\n      tag_61\n      tag_155\n      calldatasize\n      0x04\n      tag_72\n      jump\t// in\n    tag_155:\n      tag_156\n      jump\t// in\n        /* \"contracts/HatTokenV2.sol\":647:709  bytes32 public constant MINTER_ROLE = keccak256(\"MINTER_ROLE\") */\n    tag_32:\n      tag_61\n        /* \"contracts/HatTokenV2.sol\":685:709  keccak256(\"MINTER_ROLE\") */\n      0x9f2df0fed2c77648de5860a4cc508cd0818c85b8b8a1ab4ceeef8d981c8956a6\n        /* \"contracts/HatTokenV2.sol\":647:709  bytes32 public constant MINTER_ROLE = keccak256(\"MINTER_ROLE\") */\n      dup2\n      jump\n        /* \"@openzeppelin/contracts/access/AccessControl.sol\":4766:4913  function revokeRole(bytes32 role, address account) public virtual override onlyRole(getRoleAdmin(role)) {... */\n    tag_33:\n      tag_76\n      tag_162\n      calldatasize\n      0x04\n      tag_78\n      jump\t// in\n    tag_162:\n      tag_163\n      jump\t// in\n        /* \"@openzeppelin/contracts/token/ERC20/ERC20.sol\":3976:4125  function allowance(address owner, address spender) public view virtual override returns (uint256) {... */\n    tag_34:\n      tag_61\n      tag_165\n      calldatasize\n      0x04\n      tag_166\n      jump\t// in\n    tag_165:\n      sub(shl(0xa0, 0x01), 0x01)\n        /* \"@openzeppelin/contracts/token/ERC20/ERC20.sol\":4091:4109  _allowances[owner] */\n      swap2\n      dup3\n      and\n        /* \"@openzeppelin/contracts/token/ERC20/ERC20.sol\":4065:4072  uint256 */\n      0x00\n        /* \"@openzeppelin/contracts/token/ERC20/ERC20.sol\":4091:4109  _allowances[owner] */\n      swap1\n      dup2\n      mstore\n        /* \"@openzeppelin/contracts/token/ERC20/ERC20.sol\":4091:4102  _allowances */\n      0x03\n        /* \"@openzeppelin/contracts/token/ERC20/ERC20.sol\":4091:4109  _allowances[owner] */\n      0x20\n      swap1\n      dup2\n      mstore\n      0x40\n      dup1\n      dup4\n      keccak256\n        /* \"@openzeppelin/contracts/token/ERC20/ERC20.sol\":4091:4118  _allowances[owner][spender] */\n      swap4\n      swap1\n      swap5\n      and\n      dup3\n      mstore\n      swap2\n      swap1\n      swap2\n      mstore\n      keccak256\n      sload\n      swap1\n        /* \"@openzeppelin/contracts/token/ERC20/ERC20.sol\":3976:4125  function allowance(address owner, address spender) public view virtual override returns (uint256) {... */\n      jump\n        /* \"contracts/HatTokenV2.sol\":2292:2428  function blocked(address user) external view returns (bool, bool) {... */\n    tag_35:\n      tag_169\n      tag_170\n      calldatasize\n      0x04\n      tag_103\n      jump\t// in\n    tag_170:\n      sub(shl(0xa0, 0x01), 0x01)\n        /* \"contracts/HatTokenV2.sol\":2377:2396  _blockSenders[user] */\n      and\n        /* \"contracts/HatTokenV2.sol\":2346:2350  bool */\n      0x00\n        /* \"contracts/HatTokenV2.sol\":2377:2396  _blockSenders[user] */\n      swap1\n      dup2\n      mstore\n        /* \"contracts/HatTokenV2.sol\":2377:2390  _blockSenders */\n      0x0a\n        /* \"contracts/HatTokenV2.sol\":2377:2396  _blockSenders[user] */\n      0x20\n      swap1\n      dup2\n      mstore\n      0x40\n      dup1\n      dup4\n      keccak256\n      sload\n        /* \"contracts/HatTokenV2.sol\":2398:2413  _blockReceivers */\n      0x0b\n        /* \"contracts/HatTokenV2.sol\":2398:2419  _blockReceivers[user] */\n      swap1\n      swap3\n      mstore\n      swap1\n      swap2\n      keccak256\n      sload\n        /* \"contracts/HatTokenV2.sol\":2377:2396  _blockSenders[user] */\n      0xff\n      swap2\n      dup3\n      and\n      swap3\n        /* \"contracts/HatTokenV2.sol\":2398:2419  _blockReceivers[user] */\n      swap2\n      and\n      swap1\n        /* \"contracts/HatTokenV2.sol\":2292:2428  function blocked(address user) external view returns (bool, bool) {... */\n      jump\n    tag_169:\n      0x40\n      dup1\n      mload\n        /* \"#utility.yul\":4696:4710   */\n      swap3\n      iszero\n        /* \"#utility.yul\":4689:4711   */\n      iszero\n        /* \"#utility.yul\":4671:4712   */\n      dup4\n      mstore\n        /* \"#utility.yul\":4755:4769   */\n      swap1\n      iszero\n        /* \"#utility.yul\":4748:4770   */\n      iszero\n        /* \"#utility.yul\":4743:4745   */\n      0x20\n        /* \"#utility.yul\":4728:4746   */\n      dup4\n      add\n        /* \"#utility.yul\":4721:4771   */\n      mstore\n        /* \"#utility.yul\":4644:4662   */\n      add\n        /* \"contracts/HatTokenV2.sol\":2292:2428  function blocked(address user) external view returns (bool, bool) {... */\n      tag_50\n        /* \"#utility.yul\":4509:4777   */\n      jump\n        /* \"contracts/HatTokenV2.sol\":716:778  bytes32 public constant PAUSER_ROLE = keccak256(\"PAUSER_ROLE\") */\n    tag_36:\n      tag_61\n        /* \"contracts/HatTokenV2.sol\":754:778  keccak256(\"PAUSER_ROLE\") */\n      0x65d7a28e3265b37a6474929f336521b332c1681b933f6cb9f3376673440d862a\n        /* \"contracts/HatTokenV2.sol\":716:778  bytes32 public constant PAUSER_ROLE = keccak256(\"PAUSER_ROLE\") */\n      dup2\n      jump\n        /* \"contracts/HatTokenV2.sol\":3012:3116  function addLiquidityFree(address user) public onlyOwner {... */\n    tag_37:\n      tag_76\n      tag_178\n      calldatasize\n      0x04\n      tag_103\n      jump\t// in\n    tag_178:\n      tag_179\n      jump\t// in\n        /* \"@openzeppelin/contracts/access/Ownable.sol\":1918:2116  function transferOwnership(address newOwner) public virtual onlyOwner {... */\n    tag_38:\n      tag_76\n      tag_181\n      calldatasize\n      0x04\n      tag_103\n      jump\t// in\n    tag_181:\n      tag_182\n      jump\t// in\n        /* \"@openzeppelin/contracts/access/AccessControlEnumerable.sol\":634:846  function supportsInterface(bytes4 interfaceId) public view virtual override returns (bool) {... */\n    tag_49:\n        /* \"@openzeppelin/contracts/access/AccessControlEnumerable.sol\":719:723  bool */\n      0x00\n      not(sub(shl(0xe0, 0x01), 0x01))\n        /* \"@openzeppelin/contracts/access/AccessControlEnumerable.sol\":742:799  interfaceId == type(IAccessControlEnumerable).interfaceId */\n      dup3\n      and\n      shl(0xe0, 0x5a05180f)\n      eq\n      dup1\n        /* \"@openzeppelin/contracts/access/AccessControlEnumerable.sol\":742:839  interfaceId == type(IAccessControlEnumerable).interfaceId || super.supportsInterface(interfaceId) */\n      tag_189\n      jumpi\n      pop\n        /* \"@openzeppelin/contracts/access/AccessControlEnumerable.sol\":803:839  super.supportsInterface(interfaceId) */\n      tag_189\n        /* \"@openzeppelin/contracts/access/AccessControlEnumerable.sol\":827:838  interfaceId */\n      dup3\n        /* \"@openzeppelin/contracts/access/AccessControlEnumerable.sol\":803:826  super.supportsInterface */\n      tag_190\n        /* \"@openzeppelin/contracts/access/AccessControlEnumerable.sol\":803:839  super.supportsInterface(interfaceId) */\n      jump\t// in\n    tag_189:\n        /* \"@openzeppelin/contracts/access/AccessControlEnumerable.sol\":735:839  return interfaceId == type(IAccessControlEnumerable).interfaceId || super.supportsInterface(interfaceId) */\n      swap3\n        /* \"@openzeppelin/contracts/access/AccessControlEnumerable.sol\":634:846  function supportsInterface(bytes4 interfaceId) public view virtual override returns (bool) {... */\n      swap2\n      pop\n      pop\n      jump\t// out\n        /* \"@openzeppelin/contracts/token/ERC20/ERC20.sol\":2156:2254  function name() public view virtual override returns (string memory) {... */\n    tag_53:\n        /* \"@openzeppelin/contracts/token/ERC20/ERC20.sol\":2210:2223  string memory */\n      0x60\n        /* \"@openzeppelin/contracts/token/ERC20/ERC20.sol\":2242:2247  _name */\n      0x05\n        /* \"@openzeppelin/contracts/token/ERC20/ERC20.sol\":2235:2247  return _name */\n      dup1\n      sload\n      tag_192\n      swap1\n      tag_193\n      jump\t// in\n    tag_192:\n      dup1\n      0x1f\n      add\n      0x20\n      dup1\n      swap2\n      div\n      mul\n      0x20\n      add\n      mload(0x40)\n      swap1\n      dup2\n      add\n      0x40\n      mstore\n      dup1\n      swap3\n      swap2\n      swap1\n      dup2\n      dup2\n      mstore\n      0x20\n      add\n      dup3\n      dup1\n      sload\n      tag_194\n      swap1\n      tag_193\n      jump\t// in\n    tag_194:\n      dup1\n      iszero\n      tag_195\n      jumpi\n      dup1\n      0x1f\n      lt\n      tag_196\n      jumpi\n      0x0100\n      dup1\n      dup4\n      sload\n      div\n      mul\n      dup4\n      mstore\n      swap2\n      0x20\n      add\n      swap2\n      jump(tag_195)\n    tag_196:\n      dup3\n      add\n      swap2\n      swap1\n      0x00\n      mstore\n      keccak256(0x00, 0x20)\n      swap1\n    tag_197:\n      dup2\n      sload\n      dup2\n      mstore\n      swap1\n      0x01\n      add\n      swap1\n      0x20\n      add\n      dup1\n      dup4\n      gt\n      tag_197\n      jumpi\n      dup3\n      swap1\n      sub\n      0x1f\n      and\n      dup3\n      add\n      swap2\n    tag_195:\n      pop\n      pop\n      pop\n      pop\n      pop\n      swap1\n      pop\n        /* \"@openzeppelin/contracts/token/ERC20/ERC20.sol\":2156:2254  function name() public view virtual override returns (string memory) {... */\n      swap1\n      jump\t// out\n        /* \"@openzeppelin/contracts/token/ERC20/ERC20.sol\":4433:4630  function approve(address spender, uint256 amount) public virtual override returns (bool) {... */\n    tag_59:\n        /* \"@openzeppelin/contracts/token/ERC20/ERC20.sol\":4516:4520  bool */\n      0x00\n        /* \"@openzeppelin/contracts/utils/Context.sol\":719:729  msg.sender */\n      caller\n        /* \"@openzeppelin/contracts/token/ERC20/ERC20.sol\":4570:4602  _approve(owner, spender, amount) */\n      tag_201\n        /* \"@openzeppelin/contracts/utils/Context.sol\":719:729  msg.sender */\n      dup2\n        /* \"@openzeppelin/contracts/token/ERC20/ERC20.sol\":4586:4593  spender */\n      dup6\n        /* \"@openzeppelin/contracts/token/ERC20/ERC20.sol\":4595:4601  amount */\n      dup6\n        /* \"@openzeppelin/contracts/token/ERC20/ERC20.sol\":4570:4578  _approve */\n      tag_202\n        /* \"@openzeppelin/contracts/token/ERC20/ERC20.sol\":4570:4602  _approve(owner, spender, amount) */\n      jump\t// in\n    tag_201:\n      pop\n        /* \"@openzeppelin/contracts/token/ERC20/ERC20.sol\":4619:4623  true */\n      0x01\n      swap4\n        /* \"@openzeppelin/contracts/token/ERC20/ERC20.sol\":4433:4630  function approve(address spender, uint256 amount) public virtual override returns (bool) {... */\n      swap3\n      pop\n      pop\n      pop\n      jump\t// out\n        /* \"@openzeppelin/contracts/token/ERC20/ERC20.sol\":5192:5478  function transferFrom(... */\n    tag_68:\n        /* \"@openzeppelin/contracts/token/ERC20/ERC20.sol\":5319:5323  bool */\n      0x00\n        /* \"@openzeppelin/contracts/utils/Context.sol\":719:729  msg.sender */\n      caller\n        /* \"@openzeppelin/contracts/token/ERC20/ERC20.sol\":5375:5413  _spendAllowance(from, spender, amount) */\n      tag_206\n        /* \"@openzeppelin/contracts/token/ERC20/ERC20.sol\":5391:5395  from */\n      dup6\n        /* \"@openzeppelin/contracts/utils/Context.sol\":719:729  msg.sender */\n      dup3\n        /* \"@openzeppelin/contracts/token/ERC20/ERC20.sol\":5406:5412  amount */\n      dup6\n        /* \"@openzeppelin/contracts/token/ERC20/ERC20.sol\":5375:5390  _spendAllowance */\n      tag_207\n        /* \"@openzeppelin/contracts/token/ERC20/ERC20.sol\":5375:5413  _spendAllowance(from, spender, amount) */\n      jump\t// in\n    tag_206:\n        /* \"@openzeppelin/contracts/token/ERC20/ERC20.sol\":5423:5450  _transfer(from, to, amount) */\n      tag_208\n        /* \"@openzeppelin/contracts/token/ERC20/ERC20.sol\":5433:5437  from */\n      dup6\n        /* \"@openzeppelin/contracts/token/ERC20/ERC20.sol\":5439:5441  to */\n      dup6\n        /* \"@openzeppelin/contracts/token/ERC20/ERC20.sol\":5443:5449  amount */\n      dup6\n        /* \"@openzeppelin/contracts/token/ERC20/ERC20.sol\":5423:5432  _transfer */\n      tag_209\n        /* \"@openzeppelin/contracts/token/ERC20/ERC20.sol\":5423:5450  _transfer(from, to, amount) */\n      jump\t// in\n    tag_208:\n      pop\n        /* \"@openzeppelin/contracts/token/ERC20/ERC20.sol\":5467:5471  true */\n      0x01\n      swap5\n        /* \"@openzeppelin/contracts/token/ERC20/ERC20.sol\":5192:5478  function transferFrom(... */\n      swap4\n      pop\n      pop\n      pop\n      pop\n      jump\t// out\n        /* \"@openzeppelin/contracts/access/AccessControl.sol\":4387:4532  function grantRole(bytes32 role, address account) public virtual override onlyRole(getRoleAdmin(role)) {... */\n    tag_79:\n        /* \"@openzeppelin/contracts/access/AccessControl.sol\":4082:4089  bytes32 */\n      0x00\n        /* \"@openzeppelin/contracts/access/AccessControl.sol\":4108:4120  _roles[role] */\n      dup3\n      dup2\n      mstore\n      0x20\n      dup2\n      swap1\n      mstore\n      0x40\n      swap1\n      keccak256\n        /* \"@openzeppelin/contracts/access/AccessControl.sol\":4108:4130  _roles[role].adminRole */\n      0x01\n      add\n      sload\n        /* \"@openzeppelin/contracts/access/AccessControl.sol\":2505:2535  _checkRole(role, _msgSender()) */\n      tag_213\n        /* \"@openzeppelin/contracts/access/AccessControl.sol\":2516:2520  role */\n      dup2\n        /* \"@openzeppelin/contracts/utils/Context.sol\":719:729  msg.sender */\n      caller\n        /* \"@openzeppelin/contracts/access/AccessControl.sol\":2505:2515  _checkRole */\n      tag_215\n        /* \"@openzeppelin/contracts/access/AccessControl.sol\":2505:2535  _checkRole(role, _msgSender()) */\n      jump\t// in\n    tag_213:\n        /* \"@openzeppelin/contracts/access/AccessControl.sol\":4500:4525  _grantRole(role, account) */\n      tag_217\n        /* \"@openzeppelin/contracts/access/AccessControl.sol\":4511:4515  role */\n      dup4\n        /* \"@openzeppelin/contracts/access/AccessControl.sol\":4517:4524  account */\n      dup4\n        /* \"@openzeppelin/contracts/access/AccessControl.sol\":4500:4510  _grantRole */\n      tag_218\n        /* \"@openzeppelin/contracts/access/AccessControl.sol\":4500:4525  _grantRole(role, account) */\n      jump\t// in\n    tag_217:\n        /* \"@openzeppelin/contracts/access/AccessControl.sol\":4387:4532  function grantRole(bytes32 role, address account) public virtual override onlyRole(getRoleAdmin(role)) {... */\n      pop\n      pop\n      pop\n      jump\t// out\n        /* \"contracts/HatTokenV2.sol\":2656:2891  function setLiquidityFee(uint256 fee) public onlyOwner {... */\n    tag_87:\n        /* \"@openzeppelin/contracts/access/Ownable.sol\":1108:1114  _owner */\n      sload(0x07)\n      sub(shl(0xa0, 0x01), 0x01)\n      0x0100\n      swap1\n      swap2\n      div\n      and\n        /* \"@openzeppelin/contracts/utils/Context.sol\":719:729  msg.sender */\n      caller\n        /* \"@openzeppelin/contracts/access/Ownable.sol\":1248:1271  owner() == _msgSender() */\n      eq\n        /* \"@openzeppelin/contracts/access/Ownable.sol\":1240:1308  require(owner() == _msgSender(), \"Ownable: caller is not the owner\") */\n      tag_223\n      jumpi\n      mload(0x40)\n      shl(0xe5, 0x461bcd)\n      dup2\n      mstore\n      0x04\n      add\n      tag_224\n      swap1\n      tag_225\n      jump\t// in\n    tag_224:\n      mload(0x40)\n      dup1\n      swap2\n      sub\n      swap1\n      revert\n    tag_223:\n        /* \"contracts/HatTokenV2.sol\":2763:2767  1000 */\n      0x03e8\n        /* \"contracts/HatTokenV2.sol\":2756:2759  fee */\n      dup2\n        /* \"contracts/HatTokenV2.sol\":2756:2767  fee <= 1000 */\n      gt\n      iszero\n        /* \"contracts/HatTokenV2.sol\":2722:2851  require(... */\n      tag_228\n      jumpi\n      mload(0x40)\n      shl(0xe5, 0x461bcd)\n      dup2\n      mstore\n        /* \"#utility.yul\":5730:5732   */\n      0x20\n        /* \"contracts/HatTokenV2.sol\":2722:2851  require(... */\n      0x04\n      dup3\n      add\n        /* \"#utility.yul\":5712:5733   */\n      mstore\n        /* \"#utility.yul\":5769:5771   */\n      0x38\n        /* \"#utility.yul\":5749:5767   */\n      0x24\n      dup3\n      add\n        /* \"#utility.yul\":5742:5772   */\n      mstore\n        /* \"#utility.yul\":5808:5842   */\n      0x4865726f204177616b656e20546f6b656e3a206c697175696469747920666565\n        /* \"#utility.yul\":5788:5806   */\n      0x44\n      dup3\n      add\n        /* \"#utility.yul\":5781:5843   */\n      mstore\n        /* \"#utility.yul\":5879:5905   */\n      0x206d757374206265747765656e203020616e6420313030300000000000000000\n        /* \"#utility.yul\":5859:5877   */\n      0x64\n      dup3\n      add\n        /* \"#utility.yul\":5852:5906   */\n      mstore\n        /* \"#utility.yul\":5923:5942   */\n      0x84\n      add\n        /* \"contracts/HatTokenV2.sol\":2722:2851  require(... */\n      tag_224\n        /* \"#utility.yul\":5528:5948   */\n      jump\n        /* \"contracts/HatTokenV2.sol\":2722:2851  require(... */\n    tag_228:\n        /* \"contracts/HatTokenV2.sol\":2864:2877  _liquidityFee */\n      0x08\n        /* \"contracts/HatTokenV2.sol\":2864:2883  _liquidityFee = fee */\n      sstore\n        /* \"contracts/HatTokenV2.sol\":2656:2891  function setLiquidityFee(uint256 fee) public onlyOwner {... */\n      jump\t// out\n        /* \"@openzeppelin/contracts/access/AccessControl.sol\":5404:5618  function renounceRole(bytes32 role, address account) public virtual override {... */\n    tag_90:\n      sub(shl(0xa0, 0x01), 0x01)\n        /* \"@openzeppelin/contracts/access/AccessControl.sol\":5499:5522  account == _msgSender() */\n      dup2\n      and\n        /* \"@openzeppelin/contracts/utils/Context.sol\":719:729  msg.sender */\n      caller\n        /* \"@openzeppelin/contracts/access/AccessControl.sol\":5499:5522  account == _msgSender() */\n      eq\n        /* \"@openzeppelin/contracts/access/AccessControl.sol\":5491:5574  require(account == _msgSender(), \"AccessControl: can only renounce roles for self\") */\n      tag_233\n      jumpi\n      mload(0x40)\n      shl(0xe5, 0x461bcd)\n      dup2\n      mstore\n        /* \"#utility.yul\":6155:6157   */\n      0x20\n        /* \"@openzeppelin/contracts/access/AccessControl.sol\":5491:5574  require(account == _msgSender(), \"AccessControl: can only renounce roles for self\") */\n      0x04\n      dup3\n      add\n        /* \"#utility.yul\":6137:6158   */\n      mstore\n        /* \"#utility.yul\":6194:6196   */\n      0x2f\n        /* \"#utility.yul\":6174:6192   */\n      0x24\n      dup3\n      add\n        /* \"#utility.yul\":6167:6197   */\n      mstore\n        /* \"#utility.yul\":6233:6267   */\n      0x416363657373436f6e74726f6c3a2063616e206f6e6c792072656e6f756e6365\n        /* \"#utility.yul\":6213:6231   */\n      0x44\n      dup3\n      add\n        /* \"#utility.yul\":6206:6268   */\n      mstore\n      shl(0x89, 0x103937b632b9903337b91039b2b633)\n        /* \"#utility.yul\":6284:6302   */\n      0x64\n      dup3\n      add\n        /* \"#utility.yul\":6277:6322   */\n      mstore\n        /* \"#utility.yul\":6339:6358   */\n      0x84\n      add\n        /* \"@openzeppelin/contracts/access/AccessControl.sol\":5491:5574  require(account == _msgSender(), \"AccessControl: can only renounce roles for self\") */\n      tag_224\n        /* \"#utility.yul\":5953:6364   */\n      jump\n        /* \"@openzeppelin/contracts/access/AccessControl.sol\":5491:5574  require(account == _msgSender(), \"AccessControl: can only renounce roles for self\") */\n    tag_233:\n        /* \"@openzeppelin/contracts/access/AccessControl.sol\":5585:5611  _revokeRole(role, account) */\n      tag_236\n        /* \"@openzeppelin/contracts/access/AccessControl.sol\":5597:5601  role */\n      dup3\n        /* \"@openzeppelin/contracts/access/AccessControl.sol\":5603:5610  account */\n      dup3\n        /* \"@openzeppelin/contracts/access/AccessControl.sol\":5585:5596  _revokeRole */\n      tag_237\n        /* \"@openzeppelin/contracts/access/AccessControl.sol\":5585:5611  _revokeRole(role, account) */\n      jump\t// in\n    tag_236:\n        /* \"@openzeppelin/contracts/access/AccessControl.sol\":5404:5618  function renounceRole(bytes32 role, address account) public virtual override {... */\n      pop\n      pop\n      jump\t// out\n        /* \"@openzeppelin/contracts/token/ERC20/ERC20.sol\":5873:6109  function increaseAllowance(address spender, uint256 addedValue) public virtual returns (bool) {... */\n    tag_93:\n        /* \"@openzeppelin/contracts/utils/Context.sol\":719:729  msg.sender */\n      caller\n        /* \"@openzeppelin/contracts/token/ERC20/ERC20.sol\":5961:5965  bool */\n      0x00\n        /* \"@openzeppelin/contracts/token/ERC20/ERC20.sol\":6040:6058  _allowances[owner] */\n      dup2\n      dup2\n      mstore\n        /* \"@openzeppelin/contracts/token/ERC20/ERC20.sol\":6040:6051  _allowances */\n      0x03\n        /* \"@openzeppelin/contracts/token/ERC20/ERC20.sol\":6040:6058  _allowances[owner] */\n      0x20\n      swap1\n      dup2\n      mstore\n      0x40\n      dup1\n      dup4\n      keccak256\n      sub(shl(0xa0, 0x01), 0x01)\n        /* \"@openzeppelin/contracts/token/ERC20/ERC20.sol\":6040:6067  _allowances[owner][spender] */\n      dup8\n      and\n      dup5\n      mstore\n      swap1\n      swap2\n      mstore\n      dup2\n      keccak256\n      sload\n        /* \"@openzeppelin/contracts/token/ERC20/ERC20.sol\":5961:5965  bool */\n      swap1\n      swap2\n        /* \"@openzeppelin/contracts/utils/Context.sol\":719:729  msg.sender */\n      swap1\n        /* \"@openzeppelin/contracts/token/ERC20/ERC20.sol\":6015:6081  _approve(owner, spender, _allowances[owner][spender] + addedValue) */\n      tag_201\n      swap1\n        /* \"@openzeppelin/contracts/utils/Context.sol\":719:729  msg.sender */\n      dup3\n      swap1\n        /* \"@openzeppelin/contracts/token/ERC20/ERC20.sol\":6040:6067  _allowances[owner][spender] */\n      dup7\n      swap1\n        /* \"@openzeppelin/contracts/token/ERC20/ERC20.sol\":6040:6080  _allowances[owner][spender] + addedValue */\n      tag_241\n      swap1\n        /* \"@openzeppelin/contracts/token/ERC20/ERC20.sol\":6070:6080  addedValue */\n      dup8\n      swap1\n        /* \"@openzeppelin/contracts/token/ERC20/ERC20.sol\":6040:6080  _allowances[owner][spender] + addedValue */\n      tag_242\n      jump\t// in\n    tag_241:\n        /* \"@openzeppelin/contracts/token/ERC20/ERC20.sol\":6015:6023  _approve */\n      tag_202\n        /* \"@openzeppelin/contracts/token/ERC20/ERC20.sol\":6015:6081  _approve(owner, spender, _allowances[owner][spender] + addedValue) */\n      jump\t// in\n        /* \"@openzeppelin/contracts/token/ERC20/extensions/ERC20Burnable.sol\":578:667  function burn(uint256 amount) public virtual {... */\n    tag_97:\n        /* \"@openzeppelin/contracts/token/ERC20/extensions/ERC20Burnable.sol\":633:660  _burn(_msgSender(), amount) */\n      tag_244\n        /* \"@openzeppelin/contracts/utils/Context.sol\":719:729  msg.sender */\n      caller\n        /* \"@openzeppelin/contracts/token/ERC20/extensions/ERC20Burnable.sol\":653:659  amount */\n      dup3\n        /* \"@openzeppelin/contracts/token/ERC20/extensions/ERC20Burnable.sol\":633:638  _burn */\n      tag_246\n        /* \"@openzeppelin/contracts/token/ERC20/extensions/ERC20Burnable.sol\":633:660  _burn(_msgSender(), amount) */\n      jump\t// in\n    tag_244:\n        /* \"@openzeppelin/contracts/token/ERC20/extensions/ERC20Burnable.sol\":578:667  function burn(uint256 amount) public virtual {... */\n      pop\n      jump\t// out\n        /* \"@openzeppelin/contracts/access/Ownable.sol\":1668:1769  function renounceOwnership() public virtual onlyOwner {... */\n    tag_107:\n        /* \"@openzeppelin/contracts/access/Ownable.sol\":1108:1114  _owner */\n      sload(0x07)\n      sub(shl(0xa0, 0x01), 0x01)\n      0x0100\n      swap1\n      swap2\n      div\n      and\n        /* \"@openzeppelin/contracts/utils/Context.sol\":719:729  msg.sender */\n      caller\n        /* \"@openzeppelin/contracts/access/Ownable.sol\":1248:1271  owner() == _msgSender() */\n      eq\n        /* \"@openzeppelin/contracts/access/Ownable.sol\":1240:1308  require(owner() == _msgSender(), \"Ownable: caller is not the owner\") */\n      tag_252\n      jumpi\n      mload(0x40)\n      shl(0xe5, 0x461bcd)\n      dup2\n      mstore\n      0x04\n      add\n      tag_224\n      swap1\n      tag_225\n      jump\t// in\n    tag_252:\n        /* \"@openzeppelin/contracts/access/Ownable.sol\":1732:1762  _transferOwnership(address(0)) */\n      tag_255\n        /* \"@openzeppelin/contracts/access/Ownable.sol\":1759:1760  0 */\n      0x00\n        /* \"@openzeppelin/contracts/access/Ownable.sol\":1732:1750  _transferOwnership */\n      tag_256\n        /* \"@openzeppelin/contracts/access/Ownable.sol\":1732:1762  _transferOwnership(address(0)) */\n      jump\t// in\n    tag_255:\n        /* \"@openzeppelin/contracts/access/Ownable.sol\":1668:1769  function renounceOwnership() public virtual onlyOwner {... */\n      jump\t// out\n        /* \"@openzeppelin/contracts/token/ERC20/extensions/ERC20Burnable.sol\":973:1134  function burnFrom(address account, uint256 amount) public virtual {... */\n    tag_110:\n        /* \"@openzeppelin/contracts/token/ERC20/extensions/ERC20Burnable.sol\":1049:1095  _spendAllowance(account, _msgSender(), amount) */\n      tag_258\n        /* \"@openzeppelin/contracts/token/ERC20/extensions/ERC20Burnable.sol\":1065:1072  account */\n      dup3\n        /* \"@openzeppelin/contracts/utils/Context.sol\":719:729  msg.sender */\n      caller\n        /* \"@openzeppelin/contracts/token/ERC20/extensions/ERC20Burnable.sol\":1088:1094  amount */\n      dup4\n        /* \"@openzeppelin/contracts/token/ERC20/extensions/ERC20Burnable.sol\":1049:1064  _spendAllowance */\n      tag_207\n        /* \"@openzeppelin/contracts/token/ERC20/extensions/ERC20Burnable.sol\":1049:1095  _spendAllowance(account, _msgSender(), amount) */\n      jump\t// in\n    tag_258:\n        /* \"@openzeppelin/contracts/token/ERC20/extensions/ERC20Burnable.sol\":1105:1127  _burn(account, amount) */\n      tag_236\n        /* \"@openzeppelin/contracts/token/ERC20/extensions/ERC20Burnable.sol\":1111:1118  account */\n      dup3\n        /* \"@openzeppelin/contracts/token/ERC20/extensions/ERC20Burnable.sol\":1120:1126  amount */\n      dup3\n        /* \"@openzeppelin/contracts/token/ERC20/extensions/ERC20Burnable.sol\":1105:1110  _burn */\n      tag_246\n        /* \"@openzeppelin/contracts/token/ERC20/extensions/ERC20Burnable.sol\":1105:1127  _burn(account, amount) */\n      jump\t// in\n        /* \"contracts/HatTokenV2.sol\":2436:2648  function blockUser(... */\n    tag_121:\n        /* \"@openzeppelin/contracts/access/Ownable.sol\":1108:1114  _owner */\n      sload(0x07)\n      sub(shl(0xa0, 0x01), 0x01)\n      0x0100\n      swap1\n      swap2\n      div\n      and\n        /* \"@openzeppelin/contracts/utils/Context.sol\":719:729  msg.sender */\n      caller\n        /* \"@openzeppelin/contracts/access/Ownable.sol\":1248:1271  owner() == _msgSender() */\n      eq\n        /* \"@openzeppelin/contracts/access/Ownable.sol\":1240:1308  require(owner() == _msgSender(), \"Ownable: caller is not the owner\") */\n      tag_267\n      jumpi\n      mload(0x40)\n      shl(0xe5, 0x461bcd)\n      dup2\n      mstore\n      0x04\n      add\n      tag_224\n      swap1\n      tag_225\n      jump\t// in\n    tag_267:\n      sub(shl(0xa0, 0x01), 0x01)\n        /* \"contracts/HatTokenV2.sol\":2564:2583  _blockSenders[user] */\n      swap1\n      swap3\n      and\n      0x00\n      swap1\n      dup2\n      mstore\n        /* \"contracts/HatTokenV2.sol\":2564:2577  _blockSenders */\n      0x0a\n        /* \"contracts/HatTokenV2.sol\":2564:2583  _blockSenders[user] */\n      0x20\n      swap1\n      dup2\n      mstore\n      0x40\n      dup1\n      dup4\n      keccak256\n        /* \"contracts/HatTokenV2.sol\":2564:2594  _blockSenders[user] = can_send */\n      dup1\n      sload\n      swap5\n      iszero\n      iszero\n      not(0xff)\n      swap6\n      dup7\n      and\n      or\n      swap1\n      sstore\n        /* \"contracts/HatTokenV2.sol\":2605:2620  _blockReceivers */\n      0x0b\n        /* \"contracts/HatTokenV2.sol\":2605:2626  _blockReceivers[user] */\n      swap1\n      swap2\n      mstore\n      swap1\n      keccak256\n        /* \"contracts/HatTokenV2.sol\":2605:2640  _blockReceivers[user] = can_receive */\n      dup1\n      sload\n      swap3\n      iszero\n      iszero\n      swap3\n      swap1\n      swap2\n      and\n      swap2\n      swap1\n      swap2\n      or\n      swap1\n      sstore\n        /* \"contracts/HatTokenV2.sol\":2436:2648  function blockUser(... */\n      jump\t// out\n        /* \"@openzeppelin/contracts/access/AccessControlEnumerable.sol\":1431:1582  function getRoleMember(bytes32 role, uint256 index) public view virtual override returns (address) {... */\n    tag_128:\n        /* \"@openzeppelin/contracts/access/AccessControlEnumerable.sol\":1521:1528  address */\n      0x00\n        /* \"@openzeppelin/contracts/access/AccessControlEnumerable.sol\":1547:1565  _roleMembers[role] */\n      dup3\n      dup2\n      mstore\n        /* \"@openzeppelin/contracts/access/AccessControlEnumerable.sol\":1547:1559  _roleMembers */\n      0x01\n        /* \"@openzeppelin/contracts/access/AccessControlEnumerable.sol\":1547:1565  _roleMembers[role] */\n      0x20\n      mstore\n      0x40\n      dup2\n      keccak256\n        /* \"@openzeppelin/contracts/access/AccessControlEnumerable.sol\":1547:1575  _roleMembers[role].at(index) */\n      tag_272\n      swap1\n        /* \"@openzeppelin/contracts/access/AccessControlEnumerable.sol\":1569:1574  index */\n      dup4\n        /* \"@openzeppelin/contracts/access/AccessControlEnumerable.sol\":1547:1568  _roleMembers[role].at */\n      tag_273\n        /* \"@openzeppelin/contracts/access/AccessControlEnumerable.sol\":1547:1575  _roleMembers[role].at(index) */\n      jump\t// in\n    tag_272:\n        /* \"@openzeppelin/contracts/access/AccessControlEnumerable.sol\":1540:1575  return _roleMembers[role].at(index) */\n      swap4\n        /* \"@openzeppelin/contracts/access/AccessControlEnumerable.sol\":1431:1582  function getRoleMember(bytes32 role, uint256 index) public view virtual override returns (address) {... */\n      swap3\n      pop\n      pop\n      pop\n      jump\t// out\n        /* \"@openzeppelin/contracts/access/AccessControl.sol\":2909:3054  function hasRole(bytes32 role, address account) public view virtual override returns (bool) {... */\n    tag_132:\n        /* \"@openzeppelin/contracts/access/AccessControl.sol\":2995:2999  bool */\n      0x00\n        /* \"@openzeppelin/contracts/access/AccessControl.sol\":3018:3030  _roles[role] */\n      swap2\n      dup3\n      mstore\n      0x20\n      dup3\n      dup2\n      mstore\n      0x40\n      dup1\n      dup5\n      keccak256\n      sub(shl(0xa0, 0x01), 0x01)\n        /* \"@openzeppelin/contracts/access/AccessControl.sol\":3018:3047  _roles[role].members[account] */\n      swap4\n      swap1\n      swap4\n      and\n      dup5\n      mstore\n      swap2\n      swap1\n      mstore\n      swap1\n      keccak256\n      sload\n      0xff\n      and\n      swap1\n        /* \"@openzeppelin/contracts/access/AccessControl.sol\":2909:3054  function hasRole(bytes32 role, address account) public view virtual override returns (bool) {... */\n      jump\t// out\n        /* \"@openzeppelin/contracts/token/ERC20/ERC20.sol\":2367:2469  function symbol() public view virtual override returns (string memory) {... */\n    tag_135:\n        /* \"@openzeppelin/contracts/token/ERC20/ERC20.sol\":2423:2436  string memory */\n      0x60\n        /* \"@openzeppelin/contracts/token/ERC20/ERC20.sol\":2455:2462  _symbol */\n      0x06\n        /* \"@openzeppelin/contracts/token/ERC20/ERC20.sol\":2448:2462  return _symbol */\n      dup1\n      sload\n      tag_192\n      swap1\n      tag_193\n      jump\t// in\n        /* \"contracts/HatTokenV2.sol\":2899:3004  function setLiquidityKeeper(address keeper) public onlyOwner {... */\n    tag_142:\n        /* \"@openzeppelin/contracts/access/Ownable.sol\":1108:1114  _owner */\n      sload(0x07)\n      sub(shl(0xa0, 0x01), 0x01)\n      0x0100\n      swap1\n      swap2\n      div\n      and\n        /* \"@openzeppelin/contracts/utils/Context.sol\":719:729  msg.sender */\n      caller\n        /* \"@openzeppelin/contracts/access/Ownable.sol\":1248:1271  owner() == _msgSender() */\n      eq\n        /* \"@openzeppelin/contracts/access/Ownable.sol\":1240:1308  require(owner() == _msgSender(), \"Ownable: caller is not the owner\") */\n      tag_285\n      jumpi\n      mload(0x40)\n      shl(0xe5, 0x461bcd)\n      dup2\n      mstore\n      0x04\n      add\n      tag_224\n      swap1\n      tag_225\n      jump\t// in\n    tag_285:\n        /* \"contracts/HatTokenV2.sol\":2971:2987  _liquidityKeeper */\n      0x09\n        /* \"contracts/HatTokenV2.sol\":2971:2996  _liquidityKeeper = keeper */\n      dup1\n      sload\n      not(sub(shl(0xa0, 0x01), 0x01))\n      and\n      sub(shl(0xa0, 0x01), 0x01)\n      swap3\n      swap1\n      swap3\n      and\n      swap2\n      swap1\n      swap2\n      or\n      swap1\n      sstore\n        /* \"contracts/HatTokenV2.sol\":2899:3004  function setLiquidityKeeper(address keeper) public onlyOwner {... */\n      jump\t// out\n        /* \"@openzeppelin/contracts/token/ERC20/ERC20.sol\":6596:7025  function decreaseAllowance(address spender, uint256 subtractedValue) public virtual returns (bool) {... */\n    tag_148:\n        /* \"@openzeppelin/contracts/utils/Context.sol\":719:729  msg.sender */\n      caller\n        /* \"@openzeppelin/contracts/token/ERC20/ERC20.sol\":6689:6693  bool */\n      0x00\n        /* \"@openzeppelin/contracts/token/ERC20/ERC20.sol\":6770:6788  _allowances[owner] */\n      dup2\n      dup2\n      mstore\n        /* \"@openzeppelin/contracts/token/ERC20/ERC20.sol\":6770:6781  _allowances */\n      0x03\n        /* \"@openzeppelin/contracts/token/ERC20/ERC20.sol\":6770:6788  _allowances[owner] */\n      0x20\n      swap1\n      dup2\n      mstore\n      0x40\n      dup1\n      dup4\n      keccak256\n      sub(shl(0xa0, 0x01), 0x01)\n        /* \"@openzeppelin/contracts/token/ERC20/ERC20.sol\":6770:6797  _allowances[owner][spender] */\n      dup8\n      and\n      dup5\n      mstore\n      swap1\n      swap2\n      mstore\n      dup2\n      keccak256\n      sload\n        /* \"@openzeppelin/contracts/token/ERC20/ERC20.sol\":6689:6693  bool */\n      swap1\n      swap2\n        /* \"@openzeppelin/contracts/utils/Context.sol\":719:729  msg.sender */\n      swap1\n        /* \"@openzeppelin/contracts/token/ERC20/ERC20.sol\":6815:6850  currentAllowance >= subtractedValue */\n      dup4\n      dup2\n      lt\n      iszero\n        /* \"@openzeppelin/contracts/token/ERC20/ERC20.sol\":6807:6892  require(currentAllowance >= subtractedValue, \"ERC20: decreased allowance below zero\") */\n      tag_290\n      jumpi\n      mload(0x40)\n      shl(0xe5, 0x461bcd)\n      dup2\n      mstore\n        /* \"#utility.yul\":6836:6838   */\n      0x20\n        /* \"@openzeppelin/contracts/token/ERC20/ERC20.sol\":6807:6892  require(currentAllowance >= subtractedValue, \"ERC20: decreased allowance below zero\") */\n      0x04\n      dup3\n      add\n        /* \"#utility.yul\":6818:6839   */\n      mstore\n        /* \"#utility.yul\":6875:6877   */\n      0x25\n        /* \"#utility.yul\":6855:6873   */\n      0x24\n      dup3\n      add\n        /* \"#utility.yul\":6848:6878   */\n      mstore\n        /* \"#utility.yul\":6914:6948   */\n      0x45524332303a2064656372656173656420616c6c6f77616e63652062656c6f77\n        /* \"#utility.yul\":6894:6912   */\n      0x44\n      dup3\n      add\n        /* \"#utility.yul\":6887:6949   */\n      mstore\n      shl(0xd8, 0x207a65726f)\n        /* \"#utility.yul\":6965:6983   */\n      0x64\n      dup3\n      add\n        /* \"#utility.yul\":6958:6993   */\n      mstore\n        /* \"#utility.yul\":7010:7029   */\n      0x84\n      add\n        /* \"@openzeppelin/contracts/token/ERC20/ERC20.sol\":6807:6892  require(currentAllowance >= subtractedValue, \"ERC20: decreased allowance below zero\") */\n      tag_224\n        /* \"#utility.yul\":6634:7035   */\n      jump\n        /* \"@openzeppelin/contracts/token/ERC20/ERC20.sol\":6807:6892  require(currentAllowance >= subtractedValue, \"ERC20: decreased allowance below zero\") */\n    tag_290:\n        /* \"@openzeppelin/contracts/token/ERC20/ERC20.sol\":6926:6986  _approve(owner, spender, currentAllowance - subtractedValue) */\n      tag_208\n        /* \"@openzeppelin/contracts/token/ERC20/ERC20.sol\":6935:6940  owner */\n      dup3\n        /* \"@openzeppelin/contracts/token/ERC20/ERC20.sol\":6942:6949  spender */\n      dup7\n        /* \"@openzeppelin/contracts/token/ERC20/ERC20.sol\":6970:6985  subtractedValue */\n      dup7\n        /* \"@openzeppelin/contracts/token/ERC20/ERC20.sol\":6951:6967  currentAllowance */\n      dup5\n        /* \"@openzeppelin/contracts/token/ERC20/ERC20.sol\":6951:6985  currentAllowance - subtractedValue */\n      sub\n        /* \"@openzeppelin/contracts/token/ERC20/ERC20.sol\":6926:6934  _approve */\n      tag_202\n        /* \"@openzeppelin/contracts/token/ERC20/ERC20.sol\":6926:6986  _approve(owner, spender, currentAllowance - subtractedValue) */\n      jump\t// in\n        /* \"@openzeppelin/contracts/token/ERC20/ERC20.sol\":3729:3918  function transfer(address to, uint256 amount) public virtual override returns (bool) {... */\n    tag_152:\n        /* \"@openzeppelin/contracts/token/ERC20/ERC20.sol\":3808:3812  bool */\n      0x00\n        /* \"@openzeppelin/contracts/utils/Context.sol\":719:729  msg.sender */\n      caller\n        /* \"@openzeppelin/contracts/token/ERC20/ERC20.sol\":3862:3890  _transfer(owner, to, amount) */\n      tag_201\n        /* \"@openzeppelin/contracts/utils/Context.sol\":719:729  msg.sender */\n      dup2\n        /* \"@openzeppelin/contracts/token/ERC20/ERC20.sol\":3879:3881  to */\n      dup6\n        /* \"@openzeppelin/contracts/token/ERC20/ERC20.sol\":3883:3889  amount */\n      dup6\n        /* \"@openzeppelin/contracts/token/ERC20/ERC20.sol\":3862:3871  _transfer */\n      tag_209\n        /* \"@openzeppelin/contracts/token/ERC20/ERC20.sol\":3862:3890  _transfer(owner, to, amount) */\n      jump\t// in\n        /* \"@openzeppelin/contracts/access/AccessControlEnumerable.sol\":1750:1890  function getRoleMemberCount(bytes32 role) public view virtual override returns (uint256) {... */\n    tag_156:\n        /* \"@openzeppelin/contracts/access/AccessControlEnumerable.sol\":1830:1837  uint256 */\n      0x00\n        /* \"@openzeppelin/contracts/access/AccessControlEnumerable.sol\":1856:1874  _roleMembers[role] */\n      dup2\n      dup2\n      mstore\n        /* \"@openzeppelin/contracts/access/AccessControlEnumerable.sol\":1856:1868  _roleMembers */\n      0x01\n        /* \"@openzeppelin/contracts/access/AccessControlEnumerable.sol\":1856:1874  _roleMembers[role] */\n      0x20\n      mstore\n      0x40\n      dup2\n      keccak256\n        /* \"@openzeppelin/contracts/access/AccessControlEnumerable.sol\":1856:1883  _roleMembers[role].length() */\n      tag_189\n      swap1\n        /* \"@openzeppelin/contracts/access/AccessControlEnumerable.sol\":1856:1881  _roleMembers[role].length */\n      tag_299\n        /* \"@openzeppelin/contracts/access/AccessControlEnumerable.sol\":1856:1883  _roleMembers[role].length() */\n      jump\t// in\n        /* \"@openzeppelin/contracts/access/AccessControl.sol\":4766:4913  function revokeRole(bytes32 role, address account) public virtual override onlyRole(getRoleAdmin(role)) {... */\n    tag_163:\n        /* \"@openzeppelin/contracts/access/AccessControl.sol\":4082:4089  bytes32 */\n      0x00\n        /* \"@openzeppelin/contracts/access/AccessControl.sol\":4108:4120  _roles[role] */\n      dup3\n      dup2\n      mstore\n      0x20\n      dup2\n      swap1\n      mstore\n      0x40\n      swap1\n      keccak256\n        /* \"@openzeppelin/contracts/access/AccessControl.sol\":4108:4130  _roles[role].adminRole */\n      0x01\n      add\n      sload\n        /* \"@openzeppelin/contracts/access/AccessControl.sol\":2505:2535  _checkRole(role, _msgSender()) */\n      tag_302\n        /* \"@openzeppelin/contracts/access/AccessControl.sol\":2516:2520  role */\n      dup2\n        /* \"@openzeppelin/contracts/utils/Context.sol\":719:729  msg.sender */\n      caller\n        /* \"@openzeppelin/contracts/access/AccessControl.sol\":2505:2515  _checkRole */\n      tag_215\n        /* \"@openzeppelin/contracts/access/AccessControl.sol\":2505:2535  _checkRole(role, _msgSender()) */\n      jump\t// in\n    tag_302:\n        /* \"@openzeppelin/contracts/access/AccessControl.sol\":4880:4906  _revokeRole(role, account) */\n      tag_217\n        /* \"@openzeppelin/contracts/access/AccessControl.sol\":4892:4896  role */\n      dup4\n        /* \"@openzeppelin/contracts/access/AccessControl.sol\":4898:4905  account */\n      dup4\n        /* \"@openzeppelin/contracts/access/AccessControl.sol\":4880:4891  _revokeRole */\n      tag_237\n        /* \"@openzeppelin/contracts/access/AccessControl.sol\":4880:4906  _revokeRole(role, account) */\n      jump\t// in\n        /* \"contracts/HatTokenV2.sol\":3012:3116  function addLiquidityFree(address user) public onlyOwner {... */\n    tag_179:\n        /* \"@openzeppelin/contracts/access/Ownable.sol\":1108:1114  _owner */\n      sload(0x07)\n      sub(shl(0xa0, 0x01), 0x01)\n      0x0100\n      swap1\n      swap2\n      div\n      and\n        /* \"@openzeppelin/contracts/utils/Context.sol\":719:729  msg.sender */\n      caller\n        /* \"@openzeppelin/contracts/access/Ownable.sol\":1248:1271  owner() == _msgSender() */\n      eq\n        /* \"@openzeppelin/contracts/access/Ownable.sol\":1240:1308  require(owner() == _msgSender(), \"Ownable: caller is not the owner\") */\n      tag_311\n      jumpi\n      mload(0x40)\n      shl(0xe5, 0x461bcd)\n      dup2\n      mstore\n      0x04\n      add\n      tag_224\n      swap1\n      tag_225\n      jump\t// in\n    tag_311:\n      sub(shl(0xa0, 0x01), 0x01)\n        /* \"contracts/HatTokenV2.sol\":3080:3101  _liquidityFrees[user] */\n      and\n      0x00\n      swap1\n      dup2\n      mstore\n        /* \"contracts/HatTokenV2.sol\":3080:3095  _liquidityFrees */\n      0x0c\n        /* \"contracts/HatTokenV2.sol\":3080:3101  _liquidityFrees[user] */\n      0x20\n      mstore\n      0x40\n      swap1\n      keccak256\n        /* \"contracts/HatTokenV2.sol\":3080:3108  _liquidityFrees[user] = true */\n      dup1\n      sload\n      not(0xff)\n      and\n        /* \"contracts/HatTokenV2.sol\":3104:3108  true */\n      0x01\n        /* \"contracts/HatTokenV2.sol\":3080:3108  _liquidityFrees[user] = true */\n      or\n      swap1\n      sstore\n        /* \"contracts/HatTokenV2.sol\":3012:3116  function addLiquidityFree(address user) public onlyOwner {... */\n      jump\t// out\n        /* \"@openzeppelin/contracts/access/Ownable.sol\":1918:2116  function transferOwnership(address newOwner) public virtual onlyOwner {... */\n    tag_182:\n        /* \"@openzeppelin/contracts/access/Ownable.sol\":1108:1114  _owner */\n      sload(0x07)\n      sub(shl(0xa0, 0x01), 0x01)\n      0x0100\n      swap1\n      swap2\n      div\n      and\n        /* \"@openzeppelin/contracts/utils/Context.sol\":719:729  msg.sender */\n      caller\n        /* \"@openzeppelin/contracts/access/Ownable.sol\":1248:1271  owner() == _msgSender() */\n      eq\n        /* \"@openzeppelin/contracts/access/Ownable.sol\":1240:1308  require(owner() == _msgSender(), \"Ownable: caller is not the owner\") */\n      tag_317\n      jumpi\n      mload(0x40)\n      shl(0xe5, 0x461bcd)\n      dup2\n      mstore\n      0x04\n      add\n      tag_224\n      swap1\n      tag_225\n      jump\t// in\n    tag_317:\n      sub(shl(0xa0, 0x01), 0x01)\n        /* \"@openzeppelin/contracts/access/Ownable.sol\":2006:2028  newOwner != address(0) */\n      dup2\n      and\n        /* \"@openzeppelin/contracts/access/Ownable.sol\":1998:2071  require(newOwner != address(0), \"Ownable: new owner is the zero address\") */\n      tag_320\n      jumpi\n      mload(0x40)\n      shl(0xe5, 0x461bcd)\n      dup2\n      mstore\n        /* \"#utility.yul\":7242:7244   */\n      0x20\n        /* \"@openzeppelin/contracts/access/Ownable.sol\":1998:2071  require(newOwner != address(0), \"Ownable: new owner is the zero address\") */\n      0x04\n      dup3\n      add\n        /* \"#utility.yul\":7224:7245   */\n      mstore\n        /* \"#utility.yul\":7281:7283   */\n      0x26\n        /* \"#utility.yul\":7261:7279   */\n      0x24\n      dup3\n      add\n        /* \"#utility.yul\":7254:7284   */\n      mstore\n        /* \"#utility.yul\":7320:7354   */\n      0x4f776e61626c653a206e6577206f776e657220697320746865207a65726f2061\n        /* \"#utility.yul\":7300:7318   */\n      0x44\n      dup3\n      add\n        /* \"#utility.yul\":7293:7355   */\n      mstore\n      shl(0xd0, 0x646472657373)\n        /* \"#utility.yul\":7371:7389   */\n      0x64\n      dup3\n      add\n        /* \"#utility.yul\":7364:7400   */\n      mstore\n        /* \"#utility.yul\":7417:7436   */\n      0x84\n      add\n        /* \"@openzeppelin/contracts/access/Ownable.sol\":1998:2071  require(newOwner != address(0), \"Ownable: new owner is the zero address\") */\n      tag_224\n        /* \"#utility.yul\":7040:7442   */\n      jump\n        /* \"@openzeppelin/contracts/access/Ownable.sol\":1998:2071  require(newOwner != address(0), \"Ownable: new owner is the zero address\") */\n    tag_320:\n        /* \"@openzeppelin/contracts/access/Ownable.sol\":2081:2109  _transferOwnership(newOwner) */\n      tag_244\n        /* \"@openzeppelin/contracts/access/Ownable.sol\":2100:2108  newOwner */\n      dup2\n        /* \"@openzeppelin/contracts/access/Ownable.sol\":2081:2099  _transferOwnership */\n      tag_256\n        /* \"@openzeppelin/contracts/access/Ownable.sol\":2081:2109  _transferOwnership(newOwner) */\n      jump\t// in\n        /* \"@openzeppelin/contracts/access/AccessControl.sol\":6861:7094  function _grantRole(bytes32 role, address account) internal virtual {... */\n    tag_183:\n        /* \"@openzeppelin/contracts/access/AccessControl.sol\":6944:6966  hasRole(role, account) */\n      tag_325\n        /* \"@openzeppelin/contracts/access/AccessControl.sol\":6952:6956  role */\n      dup3\n        /* \"@openzeppelin/contracts/access/AccessControl.sol\":6958:6965  account */\n      dup3\n        /* \"@openzeppelin/contracts/access/AccessControl.sol\":6944:6951  hasRole */\n      tag_132\n        /* \"@openzeppelin/contracts/access/AccessControl.sol\":6944:6966  hasRole(role, account) */\n      jump\t// in\n    tag_325:\n        /* \"@openzeppelin/contracts/access/AccessControl.sol\":6939:7088  if (!hasRole(role, account)) {... */\n      tag_236\n      jumpi\n        /* \"@openzeppelin/contracts/access/AccessControl.sol\":6982:6988  _roles */\n      0x00\n        /* \"@openzeppelin/contracts/access/AccessControl.sol\":6982:6994  _roles[role] */\n      dup3\n      dup2\n      mstore\n      0x20\n      dup2\n      dup2\n      mstore\n      0x40\n      dup1\n      dup4\n      keccak256\n      sub(shl(0xa0, 0x01), 0x01)\n        /* \"@openzeppelin/contracts/access/AccessControl.sol\":6982:7011  _roles[role].members[account] */\n      dup6\n      and\n      dup5\n      mstore\n      swap1\n      swap2\n      mstore\n      swap1\n      keccak256\n        /* \"@openzeppelin/contracts/access/AccessControl.sol\":6982:7018  _roles[role].members[account] = true */\n      dup1\n      sload\n      not(0xff)\n      and\n        /* \"@openzeppelin/contracts/access/AccessControl.sol\":7014:7018  true */\n      0x01\n        /* \"@openzeppelin/contracts/access/AccessControl.sol\":6982:7018  _roles[role].members[account] = true */\n      or\n      swap1\n      sstore\n        /* \"@openzeppelin/contracts/access/AccessControl.sol\":7064:7076  _msgSender() */\n      tag_327\n        /* \"@openzeppelin/contracts/utils/Context.sol\":719:729  msg.sender */\n      caller\n      swap1\n        /* \"@openzeppelin/contracts/utils/Context.sol\":640:736  function _msgSender() internal view virtual returns (address) {... */\n      jump\n        /* \"@openzeppelin/contracts/access/AccessControl.sol\":7064:7076  _msgSender() */\n    tag_327:\n      sub(shl(0xa0, 0x01), 0x01)\n        /* \"@openzeppelin/contracts/access/AccessControl.sol\":7037:7077  RoleGranted(role, account, _msgSender()) */\n      and\n        /* \"@openzeppelin/contracts/access/AccessControl.sol\":7055:7062  account */\n      dup2\n      sub(shl(0xa0, 0x01), 0x01)\n        /* \"@openzeppelin/contracts/access/AccessControl.sol\":7037:7077  RoleGranted(role, account, _msgSender()) */\n      and\n        /* \"@openzeppelin/contracts/access/AccessControl.sol\":7049:7053  role */\n      dup4\n        /* \"@openzeppelin/contracts/access/AccessControl.sol\":7037:7077  RoleGranted(role, account, _msgSender()) */\n      0x2f8788117e7eff1d82e926ec794901d17c78024a50270940304540a733656f0d\n      mload(0x40)\n      mload(0x40)\n      dup1\n      swap2\n      sub\n      swap1\n      log4\n        /* \"@openzeppelin/contracts/access/AccessControl.sol\":6861:7094  function _grantRole(bytes32 role, address account) internal virtual {... */\n      pop\n      pop\n      jump\t// out\n        /* \"@openzeppelin/contracts/utils/structs/EnumerableSet.sol\":7612:7762  function add(AddressSet storage set, address value) internal returns (bool) {... */\n    tag_184:\n        /* \"@openzeppelin/contracts/utils/structs/EnumerableSet.sol\":7682:7686  bool */\n      0x00\n        /* \"@openzeppelin/contracts/utils/structs/EnumerableSet.sol\":7705:7755  _add(set._inner, bytes32(uint256(uint160(value)))) */\n      tag_272\n        /* \"@openzeppelin/contracts/utils/structs/EnumerableSet.sol\":7710:7713  set */\n      dup4\n      sub(shl(0xa0, 0x01), 0x01)\n        /* \"@openzeppelin/contracts/utils/structs/EnumerableSet.sol\":7730:7753  uint256(uint160(value)) */\n      dup5\n      and\n        /* \"@openzeppelin/contracts/utils/structs/EnumerableSet.sol\":7705:7709  _add */\n      tag_330\n        /* \"@openzeppelin/contracts/utils/structs/EnumerableSet.sol\":7705:7755  _add(set._inner, bytes32(uint256(uint160(value)))) */\n      jump\t// in\n        /* \"@openzeppelin/contracts/token/ERC20/extensions/ERC20Pausable.sol\":665:929  function _beforeTokenTransfer(... */\n    tag_185:\n        /* \"@openzeppelin/contracts/security/Pausable.sol\":1168:1175  _paused */\n      and(0xff, sload(0x07))\n        /* \"@openzeppelin/contracts/token/ERC20/extensions/ERC20Pausable.sol\":866:875  !paused() */\n      iszero\n        /* \"@openzeppelin/contracts/token/ERC20/extensions/ERC20Pausable.sol\":858:922  require(!paused(), \"ERC20Pausable: token transfer while paused\") */\n      tag_217\n      jumpi\n      mload(0x40)\n      shl(0xe5, 0x461bcd)\n      dup2\n      mstore\n        /* \"#utility.yul\":7649:7651   */\n      0x20\n        /* \"@openzeppelin/contracts/token/ERC20/extensions/ERC20Pausable.sol\":858:922  require(!paused(), \"ERC20Pausable: token transfer while paused\") */\n      0x04\n      dup3\n      add\n        /* \"#utility.yul\":7631:7652   */\n      mstore\n        /* \"#utility.yul\":7688:7690   */\n      0x2a\n        /* \"#utility.yul\":7668:7686   */\n      0x24\n      dup3\n      add\n        /* \"#utility.yul\":7661:7691   */\n      mstore\n        /* \"#utility.yul\":7727:7761   */\n      0x45524332305061757361626c653a20746f6b656e207472616e73666572207768\n        /* \"#utility.yul\":7707:7725   */\n      0x44\n      dup3\n      add\n        /* \"#utility.yul\":7700:7762   */\n      mstore\n      shl(0xb2, 0x1a5b19481c185d5cd959)\n        /* \"#utility.yul\":7778:7796   */\n      0x64\n      dup3\n      add\n        /* \"#utility.yul\":7771:7811   */\n      mstore\n        /* \"#utility.yul\":7828:7847   */\n      0x84\n      add\n        /* \"@openzeppelin/contracts/token/ERC20/extensions/ERC20Pausable.sol\":858:922  require(!paused(), \"ERC20Pausable: token transfer while paused\") */\n      tag_224\n        /* \"#utility.yul\":7447:7853   */\n      jump\n        /* \"@openzeppelin/contracts/access/AccessControl.sol\":2620:2822  function supportsInterface(bytes4 interfaceId) public view virtual override returns (bool) {... */\n    tag_190:\n        /* \"@openzeppelin/contracts/access/AccessControl.sol\":2705:2709  bool */\n      0x00\n      not(sub(shl(0xe0, 0x01), 0x01))\n        /* \"@openzeppelin/contracts/access/AccessControl.sol\":2728:2775  interfaceId == type(IAccessControl).interfaceId */\n      dup3\n      and\n      shl(0xe0, 0x7965db0b)\n      eq\n      dup1\n        /* \"@openzeppelin/contracts/access/AccessControl.sol\":2728:2815  interfaceId == type(IAccessControl).interfaceId || super.supportsInterface(interfaceId) */\n      tag_189\n      jumpi\n      pop\n      shl(0xe0, 0x01ffc9a7)\n      not(sub(shl(0xe0, 0x01), 0x01))\n        /* \"@openzeppelin/contracts/utils/introspection/ERC165.sol\":937:977  interfaceId == type(IERC165).interfaceId */\n      dup4\n      and\n      eq\n        /* \"@openzeppelin/contracts/access/AccessControl.sol\":2779:2815  super.supportsInterface(interfaceId) */\n      tag_189\n        /* \"@openzeppelin/contracts/utils/introspection/ERC165.sol\":829:984  function supportsInterface(bytes4 interfaceId) public view virtual override returns (bool) {... */\n      jump\n        /* \"@openzeppelin/contracts/token/ERC20/ERC20.sol\":10123:10493  function _approve(... */\n    tag_202:\n      sub(shl(0xa0, 0x01), 0x01)\n        /* \"@openzeppelin/contracts/token/ERC20/ERC20.sol\":10254:10273  owner != address(0) */\n      dup4\n      and\n        /* \"@openzeppelin/contracts/token/ERC20/ERC20.sol\":10246:10314  require(owner != address(0), \"ERC20: approve from the zero address\") */\n      tag_344\n      jumpi\n      mload(0x40)\n      shl(0xe5, 0x461bcd)\n      dup2\n      mstore\n        /* \"#utility.yul\":8060:8062   */\n      0x20\n        /* \"@openzeppelin/contracts/token/ERC20/ERC20.sol\":10246:10314  require(owner != address(0), \"ERC20: approve from the zero address\") */\n      0x04\n      dup3\n      add\n        /* \"#utility.yul\":8042:8063   */\n      mstore\n        /* \"#utility.yul\":8099:8101   */\n      0x24\n        /* \"#utility.yul\":8079:8097   */\n      dup1\n      dup3\n      add\n        /* \"#utility.yul\":8072:8102   */\n      mstore\n        /* \"#utility.yul\":8138:8172   */\n      0x45524332303a20617070726f76652066726f6d20746865207a65726f20616464\n        /* \"#utility.yul\":8118:8136   */\n      0x44\n      dup3\n      add\n        /* \"#utility.yul\":8111:8173   */\n      mstore\n      shl(0xe0, 0x72657373)\n        /* \"#utility.yul\":8189:8207   */\n      0x64\n      dup3\n      add\n        /* \"#utility.yul\":8182:8216   */\n      mstore\n        /* \"#utility.yul\":8233:8252   */\n      0x84\n      add\n        /* \"@openzeppelin/contracts/token/ERC20/ERC20.sol\":10246:10314  require(owner != address(0), \"ERC20: approve from the zero address\") */\n      tag_224\n        /* \"#utility.yul\":7858:8258   */\n      jump\n        /* \"@openzeppelin/contracts/token/ERC20/ERC20.sol\":10246:10314  require(owner != address(0), \"ERC20: approve from the zero address\") */\n    tag_344:\n      sub(shl(0xa0, 0x01), 0x01)\n        /* \"@openzeppelin/contracts/token/ERC20/ERC20.sol\":10332:10353  spender != address(0) */\n      dup3\n      and\n        /* \"@openzeppelin/contracts/token/ERC20/ERC20.sol\":10324:10392  require(spender != address(0), \"ERC20: approve to the zero address\") */\n      tag_347\n      jumpi\n      mload(0x40)\n      shl(0xe5, 0x461bcd)\n      dup2\n      mstore\n        /* \"#utility.yul\":8465:8467   */\n      0x20\n        /* \"@openzeppelin/contracts/token/ERC20/ERC20.sol\":10324:10392  require(spender != address(0), \"ERC20: approve to the zero address\") */\n      0x04\n      dup3\n      add\n        /* \"#utility.yul\":8447:8468   */\n      mstore\n        /* \"#utility.yul\":8504:8506   */\n      0x22\n        /* \"#utility.yul\":8484:8502   */\n      0x24\n      dup3\n      add\n        /* \"#utility.yul\":8477:8507   */\n      mstore\n        /* \"#utility.yul\":8543:8577   */\n      0x45524332303a20617070726f766520746f20746865207a65726f206164647265\n        /* \"#utility.yul\":8523:8541   */\n      0x44\n      dup3\n      add\n        /* \"#utility.yul\":8516:8578   */\n      mstore\n      shl(0xf0, 0x7373)\n        /* \"#utility.yul\":8594:8612   */\n      0x64\n      dup3\n      add\n        /* \"#utility.yul\":8587:8619   */\n      mstore\n        /* \"#utility.yul\":8636:8655   */\n      0x84\n      add\n        /* \"@openzeppelin/contracts/token/ERC20/ERC20.sol\":10324:10392  require(spender != address(0), \"ERC20: approve to the zero address\") */\n      tag_224\n        /* \"#utility.yul\":8263:8661   */\n      jump\n        /* \"@openzeppelin/contracts/token/ERC20/ERC20.sol\":10324:10392  require(spender != address(0), \"ERC20: approve to the zero address\") */\n    tag_347:\n      sub(shl(0xa0, 0x01), 0x01)\n        /* \"@openzeppelin/contracts/token/ERC20/ERC20.sol\":10403:10421  _allowances[owner] */\n      dup4\n      dup2\n      and\n      0x00\n      dup2\n      dup2\n      mstore\n        /* \"@openzeppelin/contracts/token/ERC20/ERC20.sol\":10403:10414  _allowances */\n      0x03\n        /* \"@openzeppelin/contracts/token/ERC20/ERC20.sol\":10403:10421  _allowances[owner] */\n      0x20\n      swap1\n      dup2\n      mstore\n      0x40\n      dup1\n      dup4\n      keccak256\n        /* \"@openzeppelin/contracts/token/ERC20/ERC20.sol\":10403:10430  _allowances[owner][spender] */\n      swap5\n      dup8\n      and\n      dup1\n      dup5\n      mstore\n      swap5\n      dup3\n      mstore\n      swap2\n      dup3\n      swap1\n      keccak256\n        /* \"@openzeppelin/contracts/token/ERC20/ERC20.sol\":10403:10439  _allowances[owner][spender] = amount */\n      dup6\n      swap1\n      sstore\n        /* \"@openzeppelin/contracts/token/ERC20/ERC20.sol\":10454:10486  Approval(owner, spender, amount) */\n      swap1\n      mload\n        /* \"#utility.yul\":1731:1756   */\n      dup5\n      dup2\n      mstore\n        /* \"@openzeppelin/contracts/token/ERC20/ERC20.sol\":10454:10486  Approval(owner, spender, amount) */\n      0x8c5be1e5ebec7d5bd14f71427d1e84f3dd0314c0f7b2291e5b200ac8c7c3b925\n      swap2\n        /* \"#utility.yul\":1704:1722   */\n      add\n        /* \"@openzeppelin/contracts/token/ERC20/ERC20.sol\":10454:10486  Approval(owner, spender, amount) */\n      mload(0x40)\n      dup1\n      swap2\n      sub\n      swap1\n      log3\n        /* \"@openzeppelin/contracts/token/ERC20/ERC20.sol\":10123:10493  function _approve(... */\n      pop\n      pop\n      pop\n      jump\t// out\n        /* \"@openzeppelin/contracts/token/ERC20/ERC20.sol\":10770:11211  function _spendAllowance(... */\n    tag_207:\n      sub(shl(0xa0, 0x01), 0x01)\n        /* \"@openzeppelin/contracts/token/ERC20/ERC20.sol\":4091:4109  _allowances[owner] */\n      dup4\n      dup2\n      and\n        /* \"@openzeppelin/contracts/token/ERC20/ERC20.sol\":10900:10924  uint256 currentAllowance */\n      0x00\n        /* \"@openzeppelin/contracts/token/ERC20/ERC20.sol\":4091:4109  _allowances[owner] */\n      swap1\n      dup2\n      mstore\n        /* \"@openzeppelin/contracts/token/ERC20/ERC20.sol\":4091:4102  _allowances */\n      0x03\n        /* \"@openzeppelin/contracts/token/ERC20/ERC20.sol\":4091:4109  _allowances[owner] */\n      0x20\n      swap1\n      dup2\n      mstore\n      0x40\n      dup1\n      dup4\n      keccak256\n        /* \"@openzeppelin/contracts/token/ERC20/ERC20.sol\":4091:4118  _allowances[owner][spender] */\n      swap4\n      dup7\n      and\n      dup4\n      mstore\n      swap3\n      swap1\n      mstore\n      keccak256\n      sload\n      not(0x00)\n        /* \"@openzeppelin/contracts/token/ERC20/ERC20.sol\":10966:11003  currentAllowance != type(uint256).max */\n      dup2\n      eq\n        /* \"@openzeppelin/contracts/token/ERC20/ERC20.sol\":10962:11205  if (currentAllowance != type(uint256).max) {... */\n      tag_357\n      jumpi\n        /* \"@openzeppelin/contracts/token/ERC20/ERC20.sol\":11047:11053  amount */\n      dup2\n        /* \"@openzeppelin/contracts/token/ERC20/ERC20.sol\":11027:11043  currentAllowance */\n      dup2\n        /* \"@openzeppelin/contracts/token/ERC20/ERC20.sol\":11027:11053  currentAllowance >= amount */\n      lt\n      iszero\n        /* \"@openzeppelin/contracts/token/ERC20/ERC20.sol\":11019:11087  require(currentAllowance >= amount, \"ERC20: insufficient allowance\") */\n      tag_354\n      jumpi\n      mload(0x40)\n      shl(0xe5, 0x461bcd)\n      dup2\n      mstore\n        /* \"#utility.yul\":8868:8870   */\n      0x20\n        /* \"@openzeppelin/contracts/token/ERC20/ERC20.sol\":11019:11087  require(currentAllowance >= amount, \"ERC20: insufficient allowance\") */\n      0x04\n      dup3\n      add\n        /* \"#utility.yul\":8850:8871   */\n      mstore\n        /* \"#utility.yul\":8907:8909   */\n      0x1d\n        /* \"#utility.yul\":8887:8905   */\n      0x24\n      dup3\n      add\n        /* \"#utility.yul\":8880:8910   */\n      mstore\n        /* \"#utility.yul\":8946:8977   */\n      0x45524332303a20696e73756666696369656e7420616c6c6f77616e6365000000\n        /* \"#utility.yul\":8926:8944   */\n      0x44\n      dup3\n      add\n        /* \"#utility.yul\":8919:8978   */\n      mstore\n        /* \"#utility.yul\":8995:9013   */\n      0x64\n      add\n        /* \"@openzeppelin/contracts/token/ERC20/ERC20.sol\":11019:11087  require(currentAllowance >= amount, \"ERC20: insufficient allowance\") */\n      tag_224\n        /* \"#utility.yul\":8666:9019   */\n      jump\n        /* \"@openzeppelin/contracts/token/ERC20/ERC20.sol\":11019:11087  require(currentAllowance >= amount, \"ERC20: insufficient allowance\") */\n    tag_354:\n        /* \"@openzeppelin/contracts/token/ERC20/ERC20.sol\":11129:11180  _approve(owner, spender, currentAllowance - amount) */\n      tag_357\n        /* \"@openzeppelin/contracts/token/ERC20/ERC20.sol\":11138:11143  owner */\n      dup5\n        /* \"@openzeppelin/contracts/token/ERC20/ERC20.sol\":11145:11152  spender */\n      dup5\n        /* \"@openzeppelin/contracts/token/ERC20/ERC20.sol\":11173:11179  amount */\n      dup5\n        /* \"@openzeppelin/contracts/token/ERC20/ERC20.sol\":11154:11170  currentAllowance */\n      dup5\n        /* \"@openzeppelin/contracts/token/ERC20/ERC20.sol\":11154:11179  currentAllowance - amount */\n      sub\n        /* \"@openzeppelin/contracts/token/ERC20/ERC20.sol\":11129:11137  _approve */\n      tag_202\n        /* \"@openzeppelin/contracts/token/ERC20/ERC20.sol\":11129:11180  _approve(owner, spender, currentAllowance - amount) */\n      jump\t// in\n    tag_357:\n        /* \"@openzeppelin/contracts/token/ERC20/ERC20.sol\":10890:11211  {... */\n      pop\n        /* \"@openzeppelin/contracts/token/ERC20/ERC20.sol\":10770:11211  function _spendAllowance(... */\n      pop\n      pop\n      pop\n      jump\t// out\n        /* \"contracts/HatTokenV2.sol\":3595:4037  function _transfer(... */\n    tag_209:\n      sub(shl(0xa0, 0x01), 0x01)\n        /* \"contracts/HatTokenV2.sol\":3723:3744  _liquidityFrees[from] */\n      dup4\n      and\n      0x00\n      swap1\n      dup2\n      mstore\n        /* \"contracts/HatTokenV2.sol\":3723:3738  _liquidityFrees */\n      0x0c\n        /* \"contracts/HatTokenV2.sol\":3723:3744  _liquidityFrees[from] */\n      0x20\n      mstore\n      0x40\n      swap1\n      keccak256\n      sload\n      0xff\n      and\n      dup1\n        /* \"contracts/HatTokenV2.sol\":3723:3767  _liquidityFrees[from] || _liquidityFrees[to] */\n      tag_359\n      jumpi\n      pop\n      sub(shl(0xa0, 0x01), 0x01)\n        /* \"contracts/HatTokenV2.sol\":3748:3767  _liquidityFrees[to] */\n      dup3\n      and\n      0x00\n      swap1\n      dup2\n      mstore\n        /* \"contracts/HatTokenV2.sol\":3748:3763  _liquidityFrees */\n      0x0c\n        /* \"contracts/HatTokenV2.sol\":3748:3767  _liquidityFrees[to] */\n      0x20\n      mstore\n      0x40\n      swap1\n      keccak256\n      sload\n      0xff\n      and\n        /* \"contracts/HatTokenV2.sol\":3723:3767  _liquidityFrees[from] || _liquidityFrees[to] */\n    tag_359:\n        /* \"contracts/HatTokenV2.sol\":3719:3839  if (_liquidityFrees[from] || _liquidityFrees[to]) {... */\n      iszero\n      tag_361\n      jumpi\n        /* \"contracts/HatTokenV2.sol\":3784:3817  super._transfer(from, to, amount) */\n      tag_361\n        /* \"contracts/HatTokenV2.sol\":3800:3804  from */\n      dup4\n        /* \"contracts/HatTokenV2.sol\":3806:3808  to */\n      dup4\n        /* \"contracts/HatTokenV2.sol\":3810:3816  amount */\n      dup4\n        /* \"contracts/HatTokenV2.sol\":3784:3799  super._transfer */\n      tag_362\n        /* \"contracts/HatTokenV2.sol\":3784:3817  super._transfer(from, to, amount) */\n      jump\t// in\n    tag_361:\n        /* \"contracts/HatTokenV2.sol\":3855:3866  uint256 fee */\n      0x00\n        /* \"contracts/HatTokenV2.sol\":3869:3904  amount.mul(_liquidityFee).div(1000) */\n      tag_364\n        /* \"contracts/HatTokenV2.sol\":3899:3903  1000 */\n      0x03e8\n        /* \"contracts/HatTokenV2.sol\":3869:3894  amount.mul(_liquidityFee) */\n      tag_365\n        /* \"contracts/HatTokenV2.sol\":3880:3893  _liquidityFee */\n      sload(0x08)\n        /* \"contracts/HatTokenV2.sol\":3869:3875  amount */\n      dup6\n        /* \"contracts/HatTokenV2.sol\":3869:3879  amount.mul */\n      tag_366\n      swap1\n        /* \"contracts/HatTokenV2.sol\":3869:3894  amount.mul(_liquidityFee) */\n      swap2\n      swap1\n      0xffffffff\n      and\n      jump\t// in\n    tag_365:\n        /* \"contracts/HatTokenV2.sol\":3869:3898  amount.mul(_liquidityFee).div */\n      swap1\n      tag_367\n        /* \"contracts/HatTokenV2.sol\":3869:3904  amount.mul(_liquidityFee).div(1000) */\n      jump\t// in\n    tag_364:\n        /* \"contracts/HatTokenV2.sol\":3855:3904  uint256 fee = amount.mul(_liquidityFee).div(1000) */\n      swap1\n      pop\n        /* \"contracts/HatTokenV2.sol\":3915:3928  amount -= fee */\n      tag_368\n        /* \"contracts/HatTokenV2.sol\":3855:3904  uint256 fee = amount.mul(_liquidityFee).div(1000) */\n      dup2\n        /* \"contracts/HatTokenV2.sol\":3915:3928  amount -= fee */\n      dup4\n      tag_369\n      jump\t// in\n    tag_368:\n      swap2\n      pop\n        /* \"contracts/HatTokenV2.sol\":3941:3974  super._transfer(from, to, amount) */\n      tag_370\n        /* \"contracts/HatTokenV2.sol\":3957:3961  from */\n      dup5\n        /* \"contracts/HatTokenV2.sol\":3963:3965  to */\n      dup5\n        /* \"contracts/HatTokenV2.sol\":3967:3973  amount */\n      dup5\n        /* \"contracts/HatTokenV2.sol\":3941:3956  super._transfer */\n      tag_362\n        /* \"contracts/HatTokenV2.sol\":3941:3974  super._transfer(from, to, amount) */\n      jump\t// in\n    tag_370:\n        /* \"contracts/HatTokenV2.sol\":4007:4023  _liquidityKeeper */\n      sload(0x09)\n        /* \"contracts/HatTokenV2.sol\":3985:4029  super._transfer(from, _liquidityKeeper, fee) */\n      tag_357\n      swap1\n        /* \"contracts/HatTokenV2.sol\":4001:4005  from */\n      dup6\n      swap1\n      sub(shl(0xa0, 0x01), 0x01)\n        /* \"contracts/HatTokenV2.sol\":4007:4023  _liquidityKeeper */\n      and\n        /* \"contracts/HatTokenV2.sol\":4025:4028  fee */\n      dup4\n        /* \"contracts/HatTokenV2.sol\":3985:4000  super._transfer */\n      tag_362\n        /* \"contracts/HatTokenV2.sol\":3985:4029  super._transfer(from, _liquidityKeeper, fee) */\n      jump\t// in\n        /* \"@openzeppelin/contracts/access/AccessControl.sol\":3335:3827  function _checkRole(bytes32 role, address account) internal view virtual {... */\n    tag_215:\n        /* \"@openzeppelin/contracts/access/AccessControl.sol\":3423:3445  hasRole(role, account) */\n      tag_373\n        /* \"@openzeppelin/contracts/access/AccessControl.sol\":3431:3435  role */\n      dup3\n        /* \"@openzeppelin/contracts/access/AccessControl.sol\":3437:3444  account */\n      dup3\n        /* \"@openzeppelin/contracts/access/AccessControl.sol\":3423:3430  hasRole */\n      tag_132\n        /* \"@openzeppelin/contracts/access/AccessControl.sol\":3423:3445  hasRole(role, account) */\n      jump\t// in\n    tag_373:\n        /* \"@openzeppelin/contracts/access/AccessControl.sol\":3418:3821  if (!hasRole(role, account)) {... */\n      tag_236\n      jumpi\n        /* \"@openzeppelin/contracts/access/AccessControl.sol\":3606:3647  Strings.toHexString(uint160(account), 20) */\n      tag_375\n        /* \"@openzeppelin/contracts/access/AccessControl.sol\":3634:3641  account */\n      dup2\n      sub(shl(0xa0, 0x01), 0x01)\n        /* \"@openzeppelin/contracts/access/AccessControl.sol\":3606:3647  Strings.toHexString(uint160(account), 20) */\n      and\n        /* \"@openzeppelin/contracts/access/AccessControl.sol\":3644:3646  20 */\n      0x14\n        /* \"@openzeppelin/contracts/access/AccessControl.sol\":3606:3625  Strings.toHexString */\n      tag_376\n        /* \"@openzeppelin/contracts/access/AccessControl.sol\":3606:3647  Strings.toHexString(uint160(account), 20) */\n      jump\t// in\n    tag_375:\n        /* \"@openzeppelin/contracts/access/AccessControl.sol\":3718:3756  Strings.toHexString(uint256(role), 32) */\n      tag_377\n        /* \"@openzeppelin/contracts/access/AccessControl.sol\":3746:3750  role */\n      dup4\n        /* \"@openzeppelin/contracts/access/AccessControl.sol\":3753:3755  32 */\n      0x20\n        /* \"@openzeppelin/contracts/access/AccessControl.sol\":3718:3737  Strings.toHexString */\n      tag_376\n        /* \"@openzeppelin/contracts/access/AccessControl.sol\":3718:3756  Strings.toHexString(uint256(role), 32) */\n      jump\t// in\n    tag_377:\n        /* \"@openzeppelin/contracts/access/AccessControl.sol\":3513:3778  abi.encodePacked(... */\n      add(0x20, mload(0x40))\n      tag_378\n      swap3\n      swap2\n      swap1\n      tag_379\n      jump\t// in\n    tag_378:\n      0x40\n      dup1\n      mload\n      not(0x1f)\n      dup2\n      dup5\n      sub\n      add\n      dup2\n      mstore\n      swap1\n      dup3\n      swap1\n      mstore\n      shl(0xe5, 0x461bcd)\n        /* \"@openzeppelin/contracts/access/AccessControl.sol\":3461:3810  revert(... */\n      dup3\n      mstore\n      tag_224\n      swap2\n      0x04\n      add\n      tag_55\n      jump\t// in\n        /* \"@openzeppelin/contracts/access/AccessControlEnumerable.sol\":1978:2144  function _grantRole(bytes32 role, address account) internal virtual override {... */\n    tag_218:\n        /* \"@openzeppelin/contracts/access/AccessControlEnumerable.sol\":2065:2096  super._grantRole(role, account) */\n      tag_382\n        /* \"@openzeppelin/contracts/access/AccessControlEnumerable.sol\":2082:2086  role */\n      dup3\n        /* \"@openzeppelin/contracts/access/AccessControlEnumerable.sol\":2088:2095  account */\n      dup3\n        /* \"@openzeppelin/contracts/access/AccessControlEnumerable.sol\":2065:2081  super._grantRole */\n      tag_183\n        /* \"@openzeppelin/contracts/access/AccessControlEnumerable.sol\":2065:2096  super._grantRole(role, account) */\n      jump\t// in\n    tag_382:\n        /* \"@openzeppelin/contracts/access/AccessControlEnumerable.sol\":2106:2124  _roleMembers[role] */\n      0x00\n      dup3\n      dup2\n      mstore\n        /* \"@openzeppelin/contracts/access/AccessControlEnumerable.sol\":2106:2118  _roleMembers */\n      0x01\n        /* \"@openzeppelin/contracts/access/AccessControlEnumerable.sol\":2106:2124  _roleMembers[role] */\n      0x20\n      mstore\n      0x40\n      swap1\n      keccak256\n        /* \"@openzeppelin/contracts/access/AccessControlEnumerable.sol\":2106:2137  _roleMembers[role].add(account) */\n      tag_217\n      swap1\n        /* \"@openzeppelin/contracts/access/AccessControlEnumerable.sol\":2129:2136  account */\n      dup3\n        /* \"@openzeppelin/contracts/access/AccessControlEnumerable.sol\":2106:2128  _roleMembers[role].add */\n      tag_184\n        /* \"@openzeppelin/contracts/access/AccessControlEnumerable.sol\":2106:2137  _roleMembers[role].add(account) */\n      jump\t// in\n        /* \"@openzeppelin/contracts/access/AccessControlEnumerable.sol\":2233:2404  function _revokeRole(bytes32 role, address account) internal virtual override {... */\n    tag_237:\n        /* \"@openzeppelin/contracts/access/AccessControlEnumerable.sol\":2321:2353  super._revokeRole(role, account) */\n      tag_385\n        /* \"@openzeppelin/contracts/access/AccessControlEnumerable.sol\":2339:2343  role */\n      dup3\n        /* \"@openzeppelin/contracts/access/AccessControlEnumerable.sol\":2345:2352  account */\n      dup3\n        /* \"@openzeppelin/contracts/access/AccessControlEnumerable.sol\":2321:2338  super._revokeRole */\n      tag_386\n        /* \"@openzeppelin/contracts/access/AccessControlEnumerable.sol\":2321:2353  super._revokeRole(role, account) */\n      jump\t// in\n    tag_385:\n        /* \"@openzeppelin/contracts/access/AccessControlEnumerable.sol\":2363:2381  _roleMembers[role] */\n      0x00\n      dup3\n      dup2\n      mstore\n        /* \"@openzeppelin/contracts/access/AccessControlEnumerable.sol\":2363:2375  _roleMembers */\n      0x01\n        /* \"@openzeppelin/contracts/access/AccessControlEnumerable.sol\":2363:2381  _roleMembers[role] */\n      0x20\n      mstore\n      0x40\n      swap1\n      keccak256\n        /* \"@openzeppelin/contracts/access/AccessControlEnumerable.sol\":2363:2397  _roleMembers[role].remove(account) */\n      tag_217\n      swap1\n        /* \"@openzeppelin/contracts/access/AccessControlEnumerable.sol\":2389:2396  account */\n      dup3\n        /* \"@openzeppelin/contracts/access/AccessControlEnumerable.sol\":2363:2388  _roleMembers[role].remove */\n      tag_388\n        /* \"@openzeppelin/contracts/access/AccessControlEnumerable.sol\":2363:2397  _roleMembers[role].remove(account) */\n      jump\t// in\n        /* \"@openzeppelin/contracts/token/ERC20/ERC20.sol\":9124:9700  function _burn(address account, uint256 amount) internal virtual {... */\n    tag_246:\n      sub(shl(0xa0, 0x01), 0x01)\n        /* \"@openzeppelin/contracts/token/ERC20/ERC20.sol\":9207:9228  account != address(0) */\n      dup3\n      and\n        /* \"@openzeppelin/contracts/token/ERC20/ERC20.sol\":9199:9266  require(account != address(0), \"ERC20: burn from the zero address\") */\n      tag_390\n      jumpi\n      mload(0x40)\n      shl(0xe5, 0x461bcd)\n      dup2\n      mstore\n        /* \"#utility.yul\":10147:10149   */\n      0x20\n        /* \"@openzeppelin/contracts/token/ERC20/ERC20.sol\":9199:9266  require(account != address(0), \"ERC20: burn from the zero address\") */\n      0x04\n      dup3\n      add\n        /* \"#utility.yul\":10129:10150   */\n      mstore\n        /* \"#utility.yul\":10186:10188   */\n      0x21\n        /* \"#utility.yul\":10166:10184   */\n      0x24\n      dup3\n      add\n        /* \"#utility.yul\":10159:10189   */\n      mstore\n        /* \"#utility.yul\":10225:10259   */\n      0x45524332303a206275726e2066726f6d20746865207a65726f20616464726573\n        /* \"#utility.yul\":10205:10223   */\n      0x44\n      dup3\n      add\n        /* \"#utility.yul\":10198:10260   */\n      mstore\n      shl(0xf8, 0x73)\n        /* \"#utility.yul\":10276:10294   */\n      0x64\n      dup3\n      add\n        /* \"#utility.yul\":10269:10300   */\n      mstore\n        /* \"#utility.yul\":10317:10336   */\n      0x84\n      add\n        /* \"@openzeppelin/contracts/token/ERC20/ERC20.sol\":9199:9266  require(account != address(0), \"ERC20: burn from the zero address\") */\n      tag_224\n        /* \"#utility.yul\":9945:10342   */\n      jump\n        /* \"@openzeppelin/contracts/token/ERC20/ERC20.sol\":9199:9266  require(account != address(0), \"ERC20: burn from the zero address\") */\n    tag_390:\n        /* \"@openzeppelin/contracts/token/ERC20/ERC20.sol\":9277:9326  _beforeTokenTransfer(account, address(0), amount) */\n      tag_393\n        /* \"@openzeppelin/contracts/token/ERC20/ERC20.sol\":9298:9305  account */\n      dup3\n        /* \"@openzeppelin/contracts/token/ERC20/ERC20.sol\":9315:9316  0 */\n      0x00\n        /* \"@openzeppelin/contracts/token/ERC20/ERC20.sol\":9319:9325  amount */\n      dup4\n        /* \"@openzeppelin/contracts/token/ERC20/ERC20.sol\":9277:9297  _beforeTokenTransfer */\n      tag_394\n        /* \"@openzeppelin/contracts/token/ERC20/ERC20.sol\":9277:9326  _beforeTokenTransfer(account, address(0), amount) */\n      jump\t// in\n    tag_393:\n      sub(shl(0xa0, 0x01), 0x01)\n        /* \"@openzeppelin/contracts/token/ERC20/ERC20.sol\":9362:9380  _balances[account] */\n      dup3\n      and\n        /* \"@openzeppelin/contracts/token/ERC20/ERC20.sol\":9337:9359  uint256 accountBalance */\n      0x00\n        /* \"@openzeppelin/contracts/token/ERC20/ERC20.sol\":9362:9380  _balances[account] */\n      swap1\n      dup2\n      mstore\n        /* \"@openzeppelin/contracts/token/ERC20/ERC20.sol\":9362:9371  _balances */\n      0x02\n        /* \"@openzeppelin/contracts/token/ERC20/ERC20.sol\":9362:9380  _balances[account] */\n      0x20\n      mstore\n      0x40\n      swap1\n      keccak256\n      sload\n        /* \"@openzeppelin/contracts/token/ERC20/ERC20.sol\":9398:9422  accountBalance >= amount */\n      dup2\n      dup2\n      lt\n      iszero\n        /* \"@openzeppelin/contracts/token/ERC20/ERC20.sol\":9390:9461  require(accountBalance >= amount, \"ERC20: burn amount exceeds balance\") */\n      tag_395\n      jumpi\n      mload(0x40)\n      shl(0xe5, 0x461bcd)\n      dup2\n      mstore\n        /* \"#utility.yul\":10549:10551   */\n      0x20\n        /* \"@openzeppelin/contracts/token/ERC20/ERC20.sol\":9390:9461  require(accountBalance >= amount, \"ERC20: burn amount exceeds balance\") */\n      0x04\n      dup3\n      add\n        /* \"#utility.yul\":10531:10552   */\n      mstore\n        /* \"#utility.yul\":10588:10590   */\n      0x22\n        /* \"#utility.yul\":10568:10586   */\n      0x24\n      dup3\n      add\n        /* \"#utility.yul\":10561:10591   */\n      mstore\n        /* \"#utility.yul\":10627:10661   */\n      0x45524332303a206275726e20616d6f756e7420657863656564732062616c616e\n        /* \"#utility.yul\":10607:10625   */\n      0x44\n      dup3\n      add\n        /* \"#utility.yul\":10600:10662   */\n      mstore\n      shl(0xf0, 0x6365)\n        /* \"#utility.yul\":10678:10696   */\n      0x64\n      dup3\n      add\n        /* \"#utility.yul\":10671:10703   */\n      mstore\n        /* \"#utility.yul\":10720:10739   */\n      0x84\n      add\n        /* \"@openzeppelin/contracts/token/ERC20/ERC20.sol\":9390:9461  require(accountBalance >= amount, \"ERC20: burn amount exceeds balance\") */\n      tag_224\n        /* \"#utility.yul\":10347:10745   */\n      jump\n        /* \"@openzeppelin/contracts/token/ERC20/ERC20.sol\":9390:9461  require(accountBalance >= amount, \"ERC20: burn amount exceeds balance\") */\n    tag_395:\n      sub(shl(0xa0, 0x01), 0x01)\n        /* \"@openzeppelin/contracts/token/ERC20/ERC20.sol\":9495:9513  _balances[account] */\n      dup4\n      and\n      0x00\n      swap1\n      dup2\n      mstore\n        /* \"@openzeppelin/contracts/token/ERC20/ERC20.sol\":9495:9504  _balances */\n      0x02\n        /* \"@openzeppelin/contracts/token/ERC20/ERC20.sol\":9495:9513  _balances[account] */\n      0x20\n      mstore\n      0x40\n      dup2\n      keccak256\n        /* \"@openzeppelin/contracts/token/ERC20/ERC20.sol\":9516:9539  accountBalance - amount */\n      dup4\n      dup4\n      sub\n        /* \"@openzeppelin/contracts/token/ERC20/ERC20.sol\":9495:9539  _balances[account] = accountBalance - amount */\n      swap1\n      sstore\n        /* \"@openzeppelin/contracts/token/ERC20/ERC20.sol\":9559:9571  _totalSupply */\n      0x04\n        /* \"@openzeppelin/contracts/token/ERC20/ERC20.sol\":9559:9581  _totalSupply -= amount */\n      dup1\n      sload\n        /* \"@openzeppelin/contracts/token/ERC20/ERC20.sol\":9533:9539  amount */\n      dup5\n      swap3\n        /* \"@openzeppelin/contracts/token/ERC20/ERC20.sol\":9495:9513  _balances[account] */\n      swap1\n        /* \"@openzeppelin/contracts/token/ERC20/ERC20.sol\":9559:9581  _totalSupply -= amount */\n      tag_398\n      swap1\n        /* \"@openzeppelin/contracts/token/ERC20/ERC20.sol\":9533:9539  amount */\n      dup5\n      swap1\n        /* \"@openzeppelin/contracts/token/ERC20/ERC20.sol\":9559:9581  _totalSupply -= amount */\n      tag_369\n      jump\t// in\n    tag_398:\n      swap1\n      swap2\n      sstore\n      pop\n      pop\n        /* \"@openzeppelin/contracts/token/ERC20/ERC20.sol\":9597:9634  Transfer(account, address(0), amount) */\n      mload(0x40)\n        /* \"#utility.yul\":1731:1756   */\n      dup3\n      dup2\n      mstore\n        /* \"@openzeppelin/contracts/token/ERC20/ERC20.sol\":9623:9624  0 */\n      0x00\n      swap1\n      sub(shl(0xa0, 0x01), 0x01)\n        /* \"@openzeppelin/contracts/token/ERC20/ERC20.sol\":9597:9634  Transfer(account, address(0), amount) */\n      dup6\n      and\n      swap1\n      0xddf252ad1be2c89b69c2b068fc378daa952ba7f163c4a11628f55a4df523b3ef\n      swap1\n        /* \"#utility.yul\":1719:1721   */\n      0x20\n        /* \"#utility.yul\":1704:1722   */\n      add\n        /* \"@openzeppelin/contracts/token/ERC20/ERC20.sol\":9597:9634  Transfer(account, address(0), amount) */\n      mload(0x40)\n      dup1\n      swap2\n      sub\n      swap1\n      log3\n        /* \"@openzeppelin/contracts/access/AccessControl.sol\":4387:4532  function grantRole(bytes32 role, address account) public virtual override onlyRole(getRoleAdmin(role)) {... */\n      pop\n      pop\n      pop\n      jump\t// out\n        /* \"@openzeppelin/contracts/access/Ownable.sol\":2270:2457  function _transferOwnership(address newOwner) internal virtual {... */\n    tag_256:\n        /* \"@openzeppelin/contracts/access/Ownable.sol\":2362:2368  _owner */\n      0x07\n      dup1\n      sload\n      sub(shl(0xa0, 0x01), 0x01)\n        /* \"@openzeppelin/contracts/access/Ownable.sol\":2378:2395  _owner = newOwner */\n      dup4\n      dup2\n      and\n        /* \"@openzeppelin/contracts/access/Ownable.sol\":2362:2368  _owner */\n      0x0100\n        /* \"@openzeppelin/contracts/access/Ownable.sol\":2378:2395  _owner = newOwner */\n      dup2\n      dup2\n      mul\n      not(sub(shl(0xa8, 0x01), 0x0100))\n      dup6\n      and\n      or\n      swap1\n      swap5\n      sstore\n        /* \"@openzeppelin/contracts/access/Ownable.sol\":2410:2450  OwnershipTransferred(oldOwner, newOwner) */\n      mload(0x40)\n        /* \"@openzeppelin/contracts/access/Ownable.sol\":2362:2368  _owner */\n      swap4\n      swap1\n      swap3\n      div\n      and\n      swap2\n      dup3\n      swap1\n        /* \"@openzeppelin/contracts/access/Ownable.sol\":2410:2450  OwnershipTransferred(oldOwner, newOwner) */\n      0x8be0079c531659141344cd1fd0a4f28419497f9722a3daafe3b4186f6b6457e0\n      swap1\n        /* \"@openzeppelin/contracts/access/Ownable.sol\":2343:2359  address oldOwner */\n      0x00\n      swap1\n        /* \"@openzeppelin/contracts/access/Ownable.sol\":2410:2450  OwnershipTransferred(oldOwner, newOwner) */\n      log3\n        /* \"@openzeppelin/contracts/access/Ownable.sol\":2333:2457  {... */\n      pop\n        /* \"@openzeppelin/contracts/access/Ownable.sol\":2270:2457  function _transferOwnership(address newOwner) internal virtual {... */\n      pop\n      jump\t// out\n        /* \"@openzeppelin/contracts/utils/structs/EnumerableSet.sol\":8870:9026  function at(AddressSet storage set, uint256 index) internal view returns (address) {... */\n    tag_273:\n        /* \"@openzeppelin/contracts/utils/structs/EnumerableSet.sol\":8944:8951  address */\n      0x00\n        /* \"@openzeppelin/contracts/utils/structs/EnumerableSet.sol\":8994:9016  _at(set._inner, index) */\n      tag_272\n        /* \"@openzeppelin/contracts/utils/structs/EnumerableSet.sol\":8998:9001  set */\n      dup4\n        /* \"@openzeppelin/contracts/utils/structs/EnumerableSet.sol\":9010:9015  index */\n      dup4\n        /* \"@openzeppelin/contracts/utils/structs/EnumerableSet.sol\":8994:8997  _at */\n      tag_405\n        /* \"@openzeppelin/contracts/utils/structs/EnumerableSet.sol\":8994:9016  _at(set._inner, index) */\n      jump\t// in\n        /* \"@openzeppelin/contracts/utils/structs/EnumerableSet.sol\":8413:8528  function length(AddressSet storage set) internal view returns (uint256) {... */\n    tag_299:\n        /* \"@openzeppelin/contracts/utils/structs/EnumerableSet.sol\":8476:8483  uint256 */\n      0x00\n        /* \"@openzeppelin/contracts/utils/structs/EnumerableSet.sol\":8502:8521  _length(set._inner) */\n      tag_189\n        /* \"@openzeppelin/contracts/utils/structs/EnumerableSet.sol\":8510:8513  set */\n      dup3\n        /* \"@openzeppelin/contracts/utils/structs/EnumerableSet.sol\":4028:4046  set._values.length */\n      sload\n      swap1\n        /* \"@openzeppelin/contracts/utils/structs/EnumerableSet.sol\":3946:4053  function _length(Set storage set) private view returns (uint256) {... */\n      jump\n        /* \"@openzeppelin/contracts/utils/structs/EnumerableSet.sol\":1697:2101  function _add(Set storage set, bytes32 value) private returns (bool) {... */\n    tag_330:\n        /* \"@openzeppelin/contracts/utils/structs/EnumerableSet.sol\":1760:1764  bool */\n      0x00\n        /* \"@openzeppelin/contracts/utils/structs/EnumerableSet.sol\":3834:3853  set._indexes[value] */\n      dup2\n      dup2\n      mstore\n        /* \"@openzeppelin/contracts/utils/structs/EnumerableSet.sol\":3834:3846  set._indexes */\n      0x01\n      dup4\n      add\n        /* \"@openzeppelin/contracts/utils/structs/EnumerableSet.sol\":3834:3853  set._indexes[value] */\n      0x20\n      mstore\n      0x40\n      dup2\n      keccak256\n      sload\n        /* \"@openzeppelin/contracts/utils/structs/EnumerableSet.sol\":1776:2095  if (!_contains(set, value)) {... */\n      tag_412\n      jumpi\n      pop\n        /* \"@openzeppelin/contracts/utils/structs/EnumerableSet.sol\":1818:1841  set._values.push(value) */\n      dup2\n      sload\n      0x01\n      dup2\n      dup2\n      add\n      dup5\n      sstore\n        /* \"@openzeppelin/contracts/utils/structs/EnumerableSet.sol\":1818:1829  set._values */\n      0x00\n        /* \"@openzeppelin/contracts/utils/structs/EnumerableSet.sol\":1818:1841  set._values.push(value) */\n      dup5\n      dup2\n      mstore\n      0x20\n      dup1\n      dup3\n      keccak256\n      swap1\n      swap4\n      add\n      dup5\n      swap1\n      sstore\n        /* \"@openzeppelin/contracts/utils/structs/EnumerableSet.sol\":1998:2016  set._values.length */\n      dup5\n      sload\n        /* \"@openzeppelin/contracts/utils/structs/EnumerableSet.sol\":1976:1995  set._indexes[value] */\n      dup5\n      dup3\n      mstore\n        /* \"@openzeppelin/contracts/utils/structs/EnumerableSet.sol\":1976:1988  set._indexes */\n      dup3\n      dup7\n      add\n        /* \"@openzeppelin/contracts/utils/structs/EnumerableSet.sol\":1976:1995  set._indexes[value] */\n      swap1\n      swap4\n      mstore\n      0x40\n      swap1\n      keccak256\n        /* \"@openzeppelin/contracts/utils/structs/EnumerableSet.sol\":1976:2016  set._indexes[value] = set._values.length */\n      swap2\n      swap1\n      swap2\n      sstore\n        /* \"@openzeppelin/contracts/utils/structs/EnumerableSet.sol\":2030:2041  return true */\n      jump(tag_189)\n        /* \"@openzeppelin/contracts/utils/structs/EnumerableSet.sol\":1776:2095  if (!_contains(set, value)) {... */\n    tag_412:\n      pop\n        /* \"@openzeppelin/contracts/utils/structs/EnumerableSet.sol\":2079:2084  false */\n      0x00\n        /* \"@openzeppelin/contracts/utils/structs/EnumerableSet.sol\":2072:2084  return false */\n      jump(tag_189)\n        /* \"@openzeppelin/contracts/token/ERC20/ERC20.sol\":7488:8139  function _transfer(... */\n    tag_362:\n      sub(shl(0xa0, 0x01), 0x01)\n        /* \"@openzeppelin/contracts/token/ERC20/ERC20.sol\":7614:7632  from != address(0) */\n      dup4\n      and\n        /* \"@openzeppelin/contracts/token/ERC20/ERC20.sol\":7606:7674  require(from != address(0), \"ERC20: transfer from the zero address\") */\n      tag_417\n      jumpi\n      mload(0x40)\n      shl(0xe5, 0x461bcd)\n      dup2\n      mstore\n        /* \"#utility.yul\":10952:10954   */\n      0x20\n        /* \"@openzeppelin/contracts/token/ERC20/ERC20.sol\":7606:7674  require(from != address(0), \"ERC20: transfer from the zero address\") */\n      0x04\n      dup3\n      add\n        /* \"#utility.yul\":10934:10955   */\n      mstore\n        /* \"#utility.yul\":10991:10993   */\n      0x25\n        /* \"#utility.yul\":10971:10989   */\n      0x24\n      dup3\n      add\n        /* \"#utility.yul\":10964:10994   */\n      mstore\n        /* \"#utility.yul\":11030:11064   */\n      0x45524332303a207472616e736665722066726f6d20746865207a65726f206164\n        /* \"#utility.yul\":11010:11028   */\n      0x44\n      dup3\n      add\n        /* \"#utility.yul\":11003:11065   */\n      mstore\n      shl(0xd8, 0x6472657373)\n        /* \"#utility.yul\":11081:11099   */\n      0x64\n      dup3\n      add\n        /* \"#utility.yul\":11074:11109   */\n      mstore\n        /* \"#utility.yul\":11126:11145   */\n      0x84\n      add\n        /* \"@openzeppelin/contracts/token/ERC20/ERC20.sol\":7606:7674  require(from != address(0), \"ERC20: transfer from the zero address\") */\n      tag_224\n        /* \"#utility.yul\":10750:11151   */\n      jump\n        /* \"@openzeppelin/contracts/token/ERC20/ERC20.sol\":7606:7674  require(from != address(0), \"ERC20: transfer from the zero address\") */\n    tag_417:\n      sub(shl(0xa0, 0x01), 0x01)\n        /* \"@openzeppelin/contracts/token/ERC20/ERC20.sol\":7692:7708  to != address(0) */\n      dup3\n      and\n        /* \"@openzeppelin/contracts/token/ERC20/ERC20.sol\":7684:7748  require(to != address(0), \"ERC20: transfer to the zero address\") */\n      tag_420\n      jumpi\n      mload(0x40)\n      shl(0xe5, 0x461bcd)\n      dup2\n      mstore\n        /* \"#utility.yul\":11358:11360   */\n      0x20\n        /* \"@openzeppelin/contracts/token/ERC20/ERC20.sol\":7684:7748  require(to != address(0), \"ERC20: transfer to the zero address\") */\n      0x04\n      dup3\n      add\n        /* \"#utility.yul\":11340:11361   */\n      mstore\n        /* \"#utility.yul\":11397:11399   */\n      0x23\n        /* \"#utility.yul\":11377:11395   */\n      0x24\n      dup3\n      add\n        /* \"#utility.yul\":11370:11400   */\n      mstore\n        /* \"#utility.yul\":11436:11470   */\n      0x45524332303a207472616e7366657220746f20746865207a65726f2061646472\n        /* \"#utility.yul\":11416:11434   */\n      0x44\n      dup3\n      add\n        /* \"#utility.yul\":11409:11471   */\n      mstore\n      shl(0xe8, 0x657373)\n        /* \"#utility.yul\":11487:11505   */\n      0x64\n      dup3\n      add\n        /* \"#utility.yul\":11480:11513   */\n      mstore\n        /* \"#utility.yul\":11530:11549   */\n      0x84\n      add\n        /* \"@openzeppelin/contracts/token/ERC20/ERC20.sol\":7684:7748  require(to != address(0), \"ERC20: transfer to the zero address\") */\n      tag_224\n        /* \"#utility.yul\":11156:11555   */\n      jump\n        /* \"@openzeppelin/contracts/token/ERC20/ERC20.sol\":7684:7748  require(to != address(0), \"ERC20: transfer to the zero address\") */\n    tag_420:\n        /* \"@openzeppelin/contracts/token/ERC20/ERC20.sol\":7759:7797  _beforeTokenTransfer(from, to, amount) */\n      tag_423\n        /* \"@openzeppelin/contracts/token/ERC20/ERC20.sol\":7780:7784  from */\n      dup4\n        /* \"@openzeppelin/contracts/token/ERC20/ERC20.sol\":7786:7788  to */\n      dup4\n        /* \"@openzeppelin/contracts/token/ERC20/ERC20.sol\":7790:7796  amount */\n      dup4\n        /* \"@openzeppelin/contracts/token/ERC20/ERC20.sol\":7759:7779  _beforeTokenTransfer */\n      tag_394\n        /* \"@openzeppelin/contracts/token/ERC20/ERC20.sol\":7759:7797  _beforeTokenTransfer(from, to, amount) */\n      jump\t// in\n    tag_423:\n      sub(shl(0xa0, 0x01), 0x01)\n        /* \"@openzeppelin/contracts/token/ERC20/ERC20.sol\":7830:7845  _balances[from] */\n      dup4\n      and\n        /* \"@openzeppelin/contracts/token/ERC20/ERC20.sol\":7808:7827  uint256 fromBalance */\n      0x00\n        /* \"@openzeppelin/contracts/token/ERC20/ERC20.sol\":7830:7845  _balances[from] */\n      swap1\n      dup2\n      mstore\n        /* \"@openzeppelin/contracts/token/ERC20/ERC20.sol\":7830:7839  _balances */\n      0x02\n        /* \"@openzeppelin/contracts/token/ERC20/ERC20.sol\":7830:7845  _balances[from] */\n      0x20\n      mstore\n      0x40\n      swap1\n      keccak256\n      sload\n        /* \"@openzeppelin/contracts/token/ERC20/ERC20.sol\":7863:7884  fromBalance >= amount */\n      dup2\n      dup2\n      lt\n      iszero\n        /* \"@openzeppelin/contracts/token/ERC20/ERC20.sol\":7855:7927  require(fromBalance >= amount, \"ERC20: transfer amount exceeds balance\") */\n      tag_424\n      jumpi\n      mload(0x40)\n      shl(0xe5, 0x461bcd)\n      dup2\n      mstore\n        /* \"#utility.yul\":11762:11764   */\n      0x20\n        /* \"@openzeppelin/contracts/token/ERC20/ERC20.sol\":7855:7927  require(fromBalance >= amount, \"ERC20: transfer amount exceeds balance\") */\n      0x04\n      dup3\n      add\n        /* \"#utility.yul\":11744:11765   */\n      mstore\n        /* \"#utility.yul\":11801:11803   */\n      0x26\n        /* \"#utility.yul\":11781:11799   */\n      0x24\n      dup3\n      add\n        /* \"#utility.yul\":11774:11804   */\n      mstore\n        /* \"#utility.yul\":11840:11874   */\n      0x45524332303a207472616e7366657220616d6f756e7420657863656564732062\n        /* \"#utility.yul\":11820:11838   */\n      0x44\n      dup3\n      add\n        /* \"#utility.yul\":11813:11875   */\n      mstore\n      shl(0xd0, 0x616c616e6365)\n        /* \"#utility.yul\":11891:11909   */\n      0x64\n      dup3\n      add\n        /* \"#utility.yul\":11884:11920   */\n      mstore\n        /* \"#utility.yul\":11937:11956   */\n      0x84\n      add\n        /* \"@openzeppelin/contracts/token/ERC20/ERC20.sol\":7855:7927  require(fromBalance >= amount, \"ERC20: transfer amount exceeds balance\") */\n      tag_224\n        /* \"#utility.yul\":11560:11962   */\n      jump\n        /* \"@openzeppelin/contracts/token/ERC20/ERC20.sol\":7855:7927  require(fromBalance >= amount, \"ERC20: transfer amount exceeds balance\") */\n    tag_424:\n      sub(shl(0xa0, 0x01), 0x01)\n        /* \"@openzeppelin/contracts/token/ERC20/ERC20.sol\":7961:7976  _balances[from] */\n      dup1\n      dup6\n      and\n      0x00\n      swap1\n      dup2\n      mstore\n        /* \"@openzeppelin/contracts/token/ERC20/ERC20.sol\":7961:7970  _balances */\n      0x02\n        /* \"@openzeppelin/contracts/token/ERC20/ERC20.sol\":7961:7976  _balances[from] */\n      0x20\n      mstore\n      0x40\n      dup1\n      dup3\n      keccak256\n        /* \"@openzeppelin/contracts/token/ERC20/ERC20.sol\":7979:7999  fromBalance - amount */\n      dup6\n      dup6\n      sub\n        /* \"@openzeppelin/contracts/token/ERC20/ERC20.sol\":7961:7999  _balances[from] = fromBalance - amount */\n      swap1\n      sstore\n        /* \"@openzeppelin/contracts/token/ERC20/ERC20.sol\":8019:8032  _balances[to] */\n      swap2\n      dup6\n      and\n      dup2\n      mstore\n      swap1\n      dup2\n      keccak256\n        /* \"@openzeppelin/contracts/token/ERC20/ERC20.sol\":8019:8042  _balances[to] += amount */\n      dup1\n      sload\n        /* \"@openzeppelin/contracts/token/ERC20/ERC20.sol\":7993:7999  amount */\n      dup5\n      swap3\n        /* \"@openzeppelin/contracts/token/ERC20/ERC20.sol\":7961:7976  _balances[from] */\n      swap1\n        /* \"@openzeppelin/contracts/token/ERC20/ERC20.sol\":8019:8042  _balances[to] += amount */\n      tag_427\n      swap1\n        /* \"@openzeppelin/contracts/token/ERC20/ERC20.sol\":7993:7999  amount */\n      dup5\n      swap1\n        /* \"@openzeppelin/contracts/token/ERC20/ERC20.sol\":8019:8042  _balances[to] += amount */\n      tag_242\n      jump\t// in\n    tag_427:\n      swap3\n      pop\n      pop\n      dup2\n      swap1\n      sstore\n      pop\n        /* \"@openzeppelin/contracts/token/ERC20/ERC20.sol\":8073:8075  to */\n      dup3\n      sub(shl(0xa0, 0x01), 0x01)\n        /* \"@openzeppelin/contracts/token/ERC20/ERC20.sol\":8058:8084  Transfer(from, to, amount) */\n      and\n        /* \"@openzeppelin/contracts/token/ERC20/ERC20.sol\":8067:8071  from */\n      dup5\n      sub(shl(0xa0, 0x01), 0x01)\n        /* \"@openzeppelin/contracts/token/ERC20/ERC20.sol\":8058:8084  Transfer(from, to, amount) */\n      and\n      0xddf252ad1be2c89b69c2b068fc378daa952ba7f163c4a11628f55a4df523b3ef\n        /* \"@openzeppelin/contracts/token/ERC20/ERC20.sol\":8077:8083  amount */\n      dup5\n        /* \"@openzeppelin/contracts/token/ERC20/ERC20.sol\":8058:8084  Transfer(from, to, amount) */\n      mload(0x40)\n      tag_428\n      swap2\n        /* \"#utility.yul\":1731:1756   */\n      dup2\n      mstore\n        /* \"#utility.yul\":1719:1721   */\n      0x20\n        /* \"#utility.yul\":1704:1722   */\n      add\n      swap1\n        /* \"#utility.yul\":1585:1762   */\n      jump\n        /* \"@openzeppelin/contracts/token/ERC20/ERC20.sol\":8058:8084  Transfer(from, to, amount) */\n    tag_428:\n      mload(0x40)\n      dup1\n      swap2\n      sub\n      swap1\n      log3\n        /* \"@openzeppelin/contracts/token/ERC20/ERC20.sol\":8095:8132  _afterTokenTransfer(from, to, amount) */\n      tag_357\n        /* \"@openzeppelin/contracts/access/AccessControl.sol\":4387:4532  function grantRole(bytes32 role, address account) public virtual override onlyRole(getRoleAdmin(role)) {... */\n      jump\n        /* \"@openzeppelin/contracts/utils/math/SafeMath.sol\":3451:3547  function mul(uint256 a, uint256 b) internal pure returns (uint256) {... */\n    tag_366:\n        /* \"@openzeppelin/contracts/utils/math/SafeMath.sol\":3509:3516  uint256 */\n      0x00\n        /* \"@openzeppelin/contracts/utils/math/SafeMath.sol\":3535:3540  a * b */\n      tag_272\n        /* \"@openzeppelin/contracts/utils/math/SafeMath.sol\":3539:3540  b */\n      dup3\n        /* \"@openzeppelin/contracts/utils/math/SafeMath.sol\":3535:3536  a */\n      dup5\n        /* \"@openzeppelin/contracts/utils/math/SafeMath.sol\":3535:3540  a * b */\n      tag_432\n      jump\t// in\n        /* \"@openzeppelin/contracts/utils/math/SafeMath.sol\":3836:3932  function div(uint256 a, uint256 b) internal pure returns (uint256) {... */\n    tag_367:\n        /* \"@openzeppelin/contracts/utils/math/SafeMath.sol\":3894:3901  uint256 */\n      0x00\n        /* \"@openzeppelin/contracts/utils/math/SafeMath.sol\":3920:3925  a / b */\n      tag_272\n        /* \"@openzeppelin/contracts/utils/math/SafeMath.sol\":3924:3925  b */\n      dup3\n        /* \"@openzeppelin/contracts/utils/math/SafeMath.sol\":3920:3921  a */\n      dup5\n        /* \"@openzeppelin/contracts/utils/math/SafeMath.sol\":3920:3925  a / b */\n      tag_435\n      jump\t// in\n        /* \"@openzeppelin/contracts/utils/Strings.sol\":1588:2029  function toHexString(uint256 value, uint256 length) internal pure returns (string memory) {... */\n    tag_376:\n        /* \"@openzeppelin/contracts/utils/Strings.sol\":1663:1676  string memory */\n      0x60\n        /* \"@openzeppelin/contracts/utils/Strings.sol\":1688:1707  bytes memory buffer */\n      0x00\n        /* \"@openzeppelin/contracts/utils/Strings.sol\":1720:1730  2 * length */\n      tag_437\n        /* \"@openzeppelin/contracts/utils/Strings.sol\":1724:1730  length */\n      dup4\n        /* \"@openzeppelin/contracts/utils/Strings.sol\":1720:1721  2 */\n      0x02\n        /* \"@openzeppelin/contracts/utils/Strings.sol\":1720:1730  2 * length */\n      tag_432\n      jump\t// in\n    tag_437:\n        /* \"@openzeppelin/contracts/utils/Strings.sol\":1720:1734  2 * length + 2 */\n      tag_438\n      swap1\n        /* \"@openzeppelin/contracts/utils/Strings.sol\":1733:1734  2 */\n      0x02\n        /* \"@openzeppelin/contracts/utils/Strings.sol\":1720:1734  2 * length + 2 */\n      tag_242\n      jump\t// in\n    tag_438:\n        /* \"@openzeppelin/contracts/utils/Strings.sol\":1710:1735  new bytes(2 * length + 2) */\n      0xffffffffffffffff\n      dup2\n      gt\n      iszero\n      tag_440\n      jumpi\n      tag_440\n      tag_441\n      jump\t// in\n    tag_440:\n      mload(0x40)\n      swap1\n      dup1\n      dup3\n      mstore\n      dup1\n      0x1f\n      add\n      not(0x1f)\n      and\n      0x20\n      add\n      dup3\n      add\n      0x40\n      mstore\n      dup1\n      iszero\n      tag_442\n      jumpi\n      0x20\n      dup3\n      add\n      dup2\n      dup1\n      calldatasize\n      dup4\n      calldatacopy\n      add\n      swap1\n      pop\n    tag_442:\n      pop\n        /* \"@openzeppelin/contracts/utils/Strings.sol\":1688:1735  bytes memory buffer = new bytes(2 * length + 2) */\n      swap1\n      pop\n      shl(0xfc, 0x03)\n        /* \"@openzeppelin/contracts/utils/Strings.sol\":1745:1751  buffer */\n      dup2\n        /* \"@openzeppelin/contracts/utils/Strings.sol\":1752:1753  0 */\n      0x00\n        /* \"@openzeppelin/contracts/utils/Strings.sol\":1745:1754  buffer[0] */\n      dup2\n      mload\n      dup2\n      lt\n      tag_444\n      jumpi\n      tag_444\n      tag_445\n      jump\t// in\n    tag_444:\n      0x20\n      add\n      add\n        /* \"@openzeppelin/contracts/utils/Strings.sol\":1745:1760  buffer[0] = \"0\" */\n      swap1\n      not(sub(shl(0xf8, 0x01), 0x01))\n      and\n      swap1\n      dup2\n      0x00\n      byte\n      swap1\n      mstore8\n      pop\n      shl(0xfb, 0x0f)\n        /* \"@openzeppelin/contracts/utils/Strings.sol\":1770:1776  buffer */\n      dup2\n        /* \"@openzeppelin/contracts/utils/Strings.sol\":1777:1778  1 */\n      0x01\n        /* \"@openzeppelin/contracts/utils/Strings.sol\":1770:1779  buffer[1] */\n      dup2\n      mload\n      dup2\n      lt\n      tag_447\n      jumpi\n      tag_447\n      tag_445\n      jump\t// in\n    tag_447:\n      0x20\n      add\n      add\n        /* \"@openzeppelin/contracts/utils/Strings.sol\":1770:1785  buffer[1] = \"x\" */\n      swap1\n      not(sub(shl(0xf8, 0x01), 0x01))\n      and\n      swap1\n      dup2\n      0x00\n      byte\n      swap1\n      mstore8\n      pop\n        /* \"@openzeppelin/contracts/utils/Strings.sol\":1800:1809  uint256 i */\n      0x00\n        /* \"@openzeppelin/contracts/utils/Strings.sol\":1812:1822  2 * length */\n      tag_451\n        /* \"@openzeppelin/contracts/utils/Strings.sol\":1816:1822  length */\n      dup5\n        /* \"@openzeppelin/contracts/utils/Strings.sol\":1812:1813  2 */\n      0x02\n        /* \"@openzeppelin/contracts/utils/Strings.sol\":1812:1822  2 * length */\n      tag_432\n      jump\t// in\n    tag_451:\n        /* \"@openzeppelin/contracts/utils/Strings.sol\":1812:1826  2 * length + 1 */\n      tag_452\n      swap1\n        /* \"@openzeppelin/contracts/utils/Strings.sol\":1825:1826  1 */\n      0x01\n        /* \"@openzeppelin/contracts/utils/Strings.sol\":1812:1826  2 * length + 1 */\n      tag_242\n      jump\t// in\n    tag_452:\n        /* \"@openzeppelin/contracts/utils/Strings.sol\":1800:1826  uint256 i = 2 * length + 1 */\n      swap1\n      pop\n        /* \"@openzeppelin/contracts/utils/Strings.sol\":1795:1927  for (uint256 i = 2 * length + 1; i > 1; --i) {... */\n    tag_448:\n        /* \"@openzeppelin/contracts/utils/Strings.sol\":1832:1833  1 */\n      0x01\n        /* \"@openzeppelin/contracts/utils/Strings.sol\":1828:1829  i */\n      dup2\n        /* \"@openzeppelin/contracts/utils/Strings.sol\":1828:1833  i > 1 */\n      gt\n        /* \"@openzeppelin/contracts/utils/Strings.sol\":1795:1927  for (uint256 i = 2 * length + 1; i > 1; --i) {... */\n      iszero\n      tag_449\n      jumpi\n      shl(0x81, 0x181899199a1a9b1b9c1cb0b131b232b3)\n        /* \"@openzeppelin/contracts/utils/Strings.sol\":1879:1884  value */\n      dup6\n        /* \"@openzeppelin/contracts/utils/Strings.sol\":1887:1890  0xf */\n      0x0f\n        /* \"@openzeppelin/contracts/utils/Strings.sol\":1879:1890  value & 0xf */\n      and\n        /* \"@openzeppelin/contracts/utils/Strings.sol\":1866:1891  _HEX_SYMBOLS[value & 0xf] */\n      0x10\n      dup2\n      lt\n      tag_454\n      jumpi\n      tag_454\n      tag_445\n      jump\t// in\n    tag_454:\n      byte\n      0xf8\n      shl\n        /* \"@openzeppelin/contracts/utils/Strings.sol\":1854:1860  buffer */\n      dup3\n        /* \"@openzeppelin/contracts/utils/Strings.sol\":1861:1862  i */\n      dup3\n        /* \"@openzeppelin/contracts/utils/Strings.sol\":1854:1863  buffer[i] */\n      dup2\n      mload\n      dup2\n      lt\n      tag_456\n      jumpi\n      tag_456\n      tag_445\n      jump\t// in\n    tag_456:\n      0x20\n      add\n      add\n        /* \"@openzeppelin/contracts/utils/Strings.sol\":1854:1891  buffer[i] = _HEX_SYMBOLS[value & 0xf] */\n      swap1\n      not(sub(shl(0xf8, 0x01), 0x01))\n      and\n      swap1\n      dup2\n      0x00\n      byte\n      swap1\n      mstore8\n      pop\n        /* \"@openzeppelin/contracts/utils/Strings.sol\":1915:1916  4 */\n      0x04\n        /* \"@openzeppelin/contracts/utils/Strings.sol\":1905:1916  value >>= 4 */\n      swap5\n      swap1\n      swap5\n      shr\n      swap4\n        /* \"@openzeppelin/contracts/utils/Strings.sol\":1835:1838  --i */\n      tag_457\n      dup2\n      tag_458\n      jump\t// in\n    tag_457:\n      swap1\n      pop\n        /* \"@openzeppelin/contracts/utils/Strings.sol\":1795:1927  for (uint256 i = 2 * length + 1; i > 1; --i) {... */\n      jump(tag_448)\n    tag_449:\n      pop\n        /* \"@openzeppelin/contracts/utils/Strings.sol\":1944:1954  value == 0 */\n      dup4\n      iszero\n        /* \"@openzeppelin/contracts/utils/Strings.sol\":1936:1991  require(value == 0, \"Strings: hex length insufficient\") */\n      tag_272\n      jumpi\n      mload(0x40)\n      shl(0xe5, 0x461bcd)\n      dup2\n      mstore\n        /* \"#utility.yul\":12969:12971   */\n      0x20\n        /* \"@openzeppelin/contracts/utils/Strings.sol\":1936:1991  require(value == 0, \"Strings: hex length insufficient\") */\n      0x04\n      dup3\n      add\n        /* \"#utility.yul\":12951:12972   */\n      dup2\n      swap1\n      mstore\n        /* \"#utility.yul\":12988:13006   */\n      0x24\n      dup3\n      add\n        /* \"#utility.yul\":12981:13011   */\n      mstore\n        /* \"#utility.yul\":13047:13081   */\n      0x537472696e67733a20686578206c656e67746820696e73756666696369656e74\n        /* \"#utility.yul\":13027:13045   */\n      0x44\n      dup3\n      add\n        /* \"#utility.yul\":13020:13082   */\n      mstore\n        /* \"#utility.yul\":13099:13117   */\n      0x64\n      add\n        /* \"@openzeppelin/contracts/utils/Strings.sol\":1936:1991  require(value == 0, \"Strings: hex length insufficient\") */\n      tag_224\n        /* \"#utility.yul\":12767:13123   */\n      jump\n        /* \"@openzeppelin/contracts/access/AccessControl.sol\":7219:7453  function _revokeRole(bytes32 role, address account) internal virtual {... */\n    tag_386:\n        /* \"@openzeppelin/contracts/access/AccessControl.sol\":7302:7324  hasRole(role, account) */\n      tag_463\n        /* \"@openzeppelin/contracts/access/AccessControl.sol\":7310:7314  role */\n      dup3\n        /* \"@openzeppelin/contracts/access/AccessControl.sol\":7316:7323  account */\n      dup3\n        /* \"@openzeppelin/contracts/access/AccessControl.sol\":7302:7309  hasRole */\n      tag_132\n        /* \"@openzeppelin/contracts/access/AccessControl.sol\":7302:7324  hasRole(role, account) */\n      jump\t// in\n    tag_463:\n        /* \"@openzeppelin/contracts/access/AccessControl.sol\":7298:7447  if (hasRole(role, account)) {... */\n      iszero\n      tag_236\n      jumpi\n        /* \"@openzeppelin/contracts/access/AccessControl.sol\":7372:7377  false */\n      0x00\n        /* \"@openzeppelin/contracts/access/AccessControl.sol\":7340:7352  _roles[role] */\n      dup3\n      dup2\n      mstore\n      0x20\n      dup2\n      dup2\n      mstore\n      0x40\n      dup1\n      dup4\n      keccak256\n      sub(shl(0xa0, 0x01), 0x01)\n        /* \"@openzeppelin/contracts/access/AccessControl.sol\":7340:7369  _roles[role].members[account] */\n      dup6\n      and\n      dup1\n      dup6\n      mstore\n      swap3\n      mstore\n      dup1\n      dup4\n      keccak256\n        /* \"@openzeppelin/contracts/access/AccessControl.sol\":7340:7377  _roles[role].members[account] = false */\n      dup1\n      sload\n      not(0xff)\n      and\n      swap1\n      sstore\n        /* \"@openzeppelin/contracts/access/AccessControl.sol\":7396:7436  RoleRevoked(role, account, _msgSender()) */\n      mload\n        /* \"@openzeppelin/contracts/utils/Context.sol\":719:729  msg.sender */\n      caller\n      swap3\n        /* \"@openzeppelin/contracts/access/AccessControl.sol\":7340:7352  _roles[role] */\n      dup6\n      swap2\n        /* \"@openzeppelin/contracts/access/AccessControl.sol\":7396:7436  RoleRevoked(role, account, _msgSender()) */\n      0xf6391f5c32d9c69d2a47ea670b442974b53935d1edc7fd64eb21e047a839171b\n      swap2\n        /* \"@openzeppelin/contracts/access/AccessControl.sol\":7372:7377  false */\n      swap1\n        /* \"@openzeppelin/contracts/access/AccessControl.sol\":7396:7436  RoleRevoked(role, account, _msgSender()) */\n      log4\n        /* \"@openzeppelin/contracts/access/AccessControl.sol\":7219:7453  function _revokeRole(bytes32 role, address account) internal virtual {... */\n      pop\n      pop\n      jump\t// out\n        /* \"@openzeppelin/contracts/utils/structs/EnumerableSet.sol\":7930:8086  function remove(AddressSet storage set, address value) internal returns (bool) {... */\n    tag_388:\n        /* \"@openzeppelin/contracts/utils/structs/EnumerableSet.sol\":8003:8007  bool */\n      0x00\n        /* \"@openzeppelin/contracts/utils/structs/EnumerableSet.sol\":8026:8079  _remove(set._inner, bytes32(uint256(uint160(value)))) */\n      tag_272\n        /* \"@openzeppelin/contracts/utils/structs/EnumerableSet.sol\":8034:8037  set */\n      dup4\n      sub(shl(0xa0, 0x01), 0x01)\n        /* \"@openzeppelin/contracts/utils/structs/EnumerableSet.sol\":8054:8077  uint256(uint160(value)) */\n      dup5\n      and\n        /* \"@openzeppelin/contracts/utils/structs/EnumerableSet.sol\":8026:8033  _remove */\n      tag_468\n        /* \"@openzeppelin/contracts/utils/structs/EnumerableSet.sol\":8026:8079  _remove(set._inner, bytes32(uint256(uint160(value)))) */\n      jump\t// in\n        /* \"contracts/HatTokenV2.sol\":1444:1919  function _beforeTokenTransfer(... */\n    tag_394:\n      sub(shl(0xa0, 0x01), 0x01)\n        /* \"contracts/HatTokenV2.sol\":1632:1651  _blockSenders[from] */\n      dup4\n      and\n      0x00\n      swap1\n      dup2\n      mstore\n        /* \"contracts/HatTokenV2.sol\":1632:1645  _blockSenders */\n      0x0a\n        /* \"contracts/HatTokenV2.sol\":1632:1651  _blockSenders[from] */\n      0x20\n      mstore\n      0x40\n      swap1\n      keccak256\n      sload\n      0xff\n      and\n        /* \"contracts/HatTokenV2.sol\":1631:1651  !_blockSenders[from] */\n      iszero\n        /* \"contracts/HatTokenV2.sol\":1609:1725  require(... */\n      tag_470\n      jumpi\n      mload(0x40)\n      shl(0xe5, 0x461bcd)\n      dup2\n      mstore\n        /* \"#utility.yul\":13330:13332   */\n      0x20\n        /* \"contracts/HatTokenV2.sol\":1609:1725  require(... */\n      0x04\n      dup3\n      add\n        /* \"#utility.yul\":13312:13333   */\n      mstore\n        /* \"#utility.yul\":13369:13371   */\n      0x2e\n        /* \"#utility.yul\":13349:13367   */\n      0x24\n      dup3\n      add\n        /* \"#utility.yul\":13342:13372   */\n      mstore\n        /* \"#utility.yul\":13408:13442   */\n      0x4865726f204177616b656e20546f6b656e3a207468652073656e646572206861\n        /* \"#utility.yul\":13388:13406   */\n      0x44\n      dup3\n      add\n        /* \"#utility.yul\":13381:13443   */\n      mstore\n      shl(0x92, 0x1cc81899595b88189b1bd8dad959)\n        /* \"#utility.yul\":13459:13477   */\n      0x64\n      dup3\n      add\n        /* \"#utility.yul\":13452:13496   */\n      mstore\n        /* \"#utility.yul\":13513:13532   */\n      0x84\n      add\n        /* \"contracts/HatTokenV2.sol\":1609:1725  require(... */\n      tag_224\n        /* \"#utility.yul\":13128:13538   */\n      jump\n        /* \"contracts/HatTokenV2.sol\":1609:1725  require(... */\n    tag_470:\n      sub(shl(0xa0, 0x01), 0x01)\n        /* \"contracts/HatTokenV2.sol\":1759:1778  _blockReceivers[to] */\n      dup3\n      and\n      0x00\n      swap1\n      dup2\n      mstore\n        /* \"contracts/HatTokenV2.sol\":1759:1774  _blockReceivers */\n      0x0b\n        /* \"contracts/HatTokenV2.sol\":1759:1778  _blockReceivers[to] */\n      0x20\n      mstore\n      0x40\n      swap1\n      keccak256\n      sload\n      0xff\n      and\n        /* \"contracts/HatTokenV2.sol\":1758:1778  !_blockReceivers[to] */\n      iszero\n        /* \"contracts/HatTokenV2.sol\":1736:1854  require(... */\n      tag_473\n      jumpi\n      mload(0x40)\n      shl(0xe5, 0x461bcd)\n      dup2\n      mstore\n        /* \"#utility.yul\":13745:13747   */\n      0x20\n        /* \"contracts/HatTokenV2.sol\":1736:1854  require(... */\n      0x04\n      dup3\n      add\n        /* \"#utility.yul\":13727:13748   */\n      mstore\n        /* \"#utility.yul\":13784:13786   */\n      0x30\n        /* \"#utility.yul\":13764:13782   */\n      0x24\n      dup3\n      add\n        /* \"#utility.yul\":13757:13787   */\n      mstore\n        /* \"#utility.yul\":13823:13857   */\n      0x4865726f204177616b656e20546f6b656e3a2074686520726563656976657220\n        /* \"#utility.yul\":13803:13821   */\n      0x44\n      dup3\n      add\n        /* \"#utility.yul\":13796:13858   */\n      mstore\n      shl(0x82, 0x1a185cc81899595b88189b1bd8dad959)\n        /* \"#utility.yul\":13874:13892   */\n      0x64\n      dup3\n      add\n        /* \"#utility.yul\":13867:13913   */\n      mstore\n        /* \"#utility.yul\":13930:13949   */\n      0x84\n      add\n        /* \"contracts/HatTokenV2.sol\":1736:1854  require(... */\n      tag_224\n        /* \"#utility.yul\":13543:13955   */\n      jump\n        /* \"contracts/HatTokenV2.sol\":1736:1854  require(... */\n    tag_473:\n        /* \"contracts/HatTokenV2.sol\":1867:1911  super._beforeTokenTransfer(from, to, amount) */\n      tag_217\n        /* \"contracts/HatTokenV2.sol\":1894:1898  from */\n      dup4\n        /* \"contracts/HatTokenV2.sol\":1900:1902  to */\n      dup4\n        /* \"contracts/HatTokenV2.sol\":1904:1910  amount */\n      dup4\n        /* \"contracts/HatTokenV2.sol\":1867:1893  super._beforeTokenTransfer */\n      tag_185\n        /* \"contracts/HatTokenV2.sol\":1867:1911  super._beforeTokenTransfer(from, to, amount) */\n      jump\t// in\n        /* \"@openzeppelin/contracts/utils/structs/EnumerableSet.sol\":4395:4513  function _at(Set storage set, uint256 index) private view returns (bytes32) {... */\n    tag_405:\n        /* \"@openzeppelin/contracts/utils/structs/EnumerableSet.sol\":4462:4469  bytes32 */\n      0x00\n        /* \"@openzeppelin/contracts/utils/structs/EnumerableSet.sol\":4488:4491  set */\n      dup3\n        /* \"@openzeppelin/contracts/utils/structs/EnumerableSet.sol\":4488:4499  set._values */\n      0x00\n      add\n        /* \"@openzeppelin/contracts/utils/structs/EnumerableSet.sol\":4500:4505  index */\n      dup3\n        /* \"@openzeppelin/contracts/utils/structs/EnumerableSet.sol\":4488:4506  set._values[index] */\n      dup2\n      sload\n      dup2\n      lt\n      tag_480\n      jumpi\n      tag_480\n      tag_445\n      jump\t// in\n    tag_480:\n      swap1\n      0x00\n      mstore\n      keccak256(0x00, 0x20)\n      add\n      sload\n        /* \"@openzeppelin/contracts/utils/structs/EnumerableSet.sol\":4481:4506  return set._values[index] */\n      swap1\n      pop\n        /* \"@openzeppelin/contracts/utils/structs/EnumerableSet.sol\":4395:4513  function _at(Set storage set, uint256 index) private view returns (bytes32) {... */\n      swap3\n      swap2\n      pop\n      pop\n      jump\t// out\n        /* \"@openzeppelin/contracts/utils/structs/EnumerableSet.sol\":2269:3657  function _remove(Set storage set, bytes32 value) private returns (bool) {... */\n    tag_468:\n        /* \"@openzeppelin/contracts/utils/structs/EnumerableSet.sol\":2335:2339  bool */\n      0x00\n        /* \"@openzeppelin/contracts/utils/structs/EnumerableSet.sol\":2472:2491  set._indexes[value] */\n      dup2\n      dup2\n      mstore\n        /* \"@openzeppelin/contracts/utils/structs/EnumerableSet.sol\":2472:2484  set._indexes */\n      0x01\n      dup4\n      add\n        /* \"@openzeppelin/contracts/utils/structs/EnumerableSet.sol\":2472:2491  set._indexes[value] */\n      0x20\n      mstore\n      0x40\n      dup2\n      keccak256\n      sload\n        /* \"@openzeppelin/contracts/utils/structs/EnumerableSet.sol\":2506:2521  valueIndex != 0 */\n      dup1\n      iszero\n        /* \"@openzeppelin/contracts/utils/structs/EnumerableSet.sol\":2502:3651  if (valueIndex != 0) {... */\n      tag_485\n      jumpi\n        /* \"@openzeppelin/contracts/utils/structs/EnumerableSet.sol\":2875:2896  uint256 toDeleteIndex */\n      0x00\n        /* \"@openzeppelin/contracts/utils/structs/EnumerableSet.sol\":2899:2913  valueIndex - 1 */\n      tag_486\n        /* \"@openzeppelin/contracts/utils/structs/EnumerableSet.sol\":2912:2913  1 */\n      0x01\n        /* \"@openzeppelin/contracts/utils/structs/EnumerableSet.sol\":2899:2909  valueIndex */\n      dup4\n        /* \"@openzeppelin/contracts/utils/structs/EnumerableSet.sol\":2899:2913  valueIndex - 1 */\n      tag_369\n      jump\t// in\n    tag_486:\n        /* \"@openzeppelin/contracts/utils/structs/EnumerableSet.sol\":2947:2965  set._values.length */\n      dup6\n      sload\n        /* \"@openzeppelin/contracts/utils/structs/EnumerableSet.sol\":2875:2913  uint256 toDeleteIndex = valueIndex - 1 */\n      swap1\n      swap2\n      pop\n        /* \"@openzeppelin/contracts/utils/structs/EnumerableSet.sol\":2927:2944  uint256 lastIndex */\n      0x00\n      swap1\n        /* \"@openzeppelin/contracts/utils/structs/EnumerableSet.sol\":2947:2969  set._values.length - 1 */\n      tag_487\n      swap1\n        /* \"@openzeppelin/contracts/utils/structs/EnumerableSet.sol\":2968:2969  1 */\n      0x01\n      swap1\n        /* \"@openzeppelin/contracts/utils/structs/EnumerableSet.sol\":2947:2969  set._values.length - 1 */\n      tag_369\n      jump\t// in\n    tag_487:\n        /* \"@openzeppelin/contracts/utils/structs/EnumerableSet.sol\":2927:2969  uint256 lastIndex = set._values.length - 1 */\n      swap1\n      pop\n        /* \"@openzeppelin/contracts/utils/structs/EnumerableSet.sol\":3001:3014  toDeleteIndex */\n      dup2\n        /* \"@openzeppelin/contracts/utils/structs/EnumerableSet.sol\":2988:2997  lastIndex */\n      dup2\n        /* \"@openzeppelin/contracts/utils/structs/EnumerableSet.sol\":2988:3014  lastIndex != toDeleteIndex */\n      eq\n        /* \"@openzeppelin/contracts/utils/structs/EnumerableSet.sol\":2984:3382  if (lastIndex != toDeleteIndex) {... */\n      tag_488\n      jumpi\n        /* \"@openzeppelin/contracts/utils/structs/EnumerableSet.sol\":3034:3051  bytes32 lastvalue */\n      0x00\n        /* \"@openzeppelin/contracts/utils/structs/EnumerableSet.sol\":3054:3057  set */\n      dup7\n        /* \"@openzeppelin/contracts/utils/structs/EnumerableSet.sol\":3054:3065  set._values */\n      0x00\n      add\n        /* \"@openzeppelin/contracts/utils/structs/EnumerableSet.sol\":3066:3075  lastIndex */\n      dup3\n        /* \"@openzeppelin/contracts/utils/structs/EnumerableSet.sol\":3054:3076  set._values[lastIndex] */\n      dup2\n      sload\n      dup2\n      lt\n      tag_490\n      jumpi\n      tag_490\n      tag_445\n      jump\t// in\n    tag_490:\n      swap1\n      0x00\n      mstore\n      keccak256(0x00, 0x20)\n      add\n      sload\n        /* \"@openzeppelin/contracts/utils/structs/EnumerableSet.sol\":3034:3076  bytes32 lastvalue = set._values[lastIndex] */\n      swap1\n      pop\n        /* \"@openzeppelin/contracts/utils/structs/EnumerableSet.sol\":3205:3214  lastvalue */\n      dup1\n        /* \"@openzeppelin/contracts/utils/structs/EnumerableSet.sol\":3176:3179  set */\n      dup8\n        /* \"@openzeppelin/contracts/utils/structs/EnumerableSet.sol\":3176:3187  set._values */\n      0x00\n      add\n        /* \"@openzeppelin/contracts/utils/structs/EnumerableSet.sol\":3188:3201  toDeleteIndex */\n      dup5\n        /* \"@openzeppelin/contracts/utils/structs/EnumerableSet.sol\":3176:3202  set._values[toDeleteIndex] */\n      dup2\n      sload\n      dup2\n      lt\n      tag_493\n      jumpi\n      tag_493\n      tag_445\n      jump\t// in\n    tag_493:\n      0x00\n      swap2\n      dup3\n      mstore\n      0x20\n      dup1\n      dup4\n      keccak256\n      swap1\n      swap2\n      add\n        /* \"@openzeppelin/contracts/utils/structs/EnumerableSet.sol\":3176:3214  set._values[toDeleteIndex] = lastvalue */\n      swap3\n      swap1\n      swap3\n      sstore\n        /* \"@openzeppelin/contracts/utils/structs/EnumerableSet.sol\":3288:3311  set._indexes[lastvalue] */\n      swap2\n      dup3\n      mstore\n        /* \"@openzeppelin/contracts/utils/structs/EnumerableSet.sol\":3288:3300  set._indexes */\n      0x01\n      dup9\n      add\n        /* \"@openzeppelin/contracts/utils/structs/EnumerableSet.sol\":3288:3311  set._indexes[lastvalue] */\n      swap1\n      mstore\n      0x40\n      swap1\n      keccak256\n        /* \"@openzeppelin/contracts/utils/structs/EnumerableSet.sol\":3288:3324  set._indexes[lastvalue] = valueIndex */\n      dup4\n      swap1\n      sstore\n        /* \"@openzeppelin/contracts/utils/structs/EnumerableSet.sol\":2984:3382  if (lastIndex != toDeleteIndex) {... */\n    tag_488:\n        /* \"@openzeppelin/contracts/utils/structs/EnumerableSet.sol\":3460:3477  set._values.pop() */\n      dup6\n      sload\n        /* \"@openzeppelin/contracts/utils/structs/EnumerableSet.sol\":3460:3463  set */\n      dup7\n      swap1\n        /* \"@openzeppelin/contracts/utils/structs/EnumerableSet.sol\":3460:3477  set._values.pop() */\n      dup1\n      tag_496\n      jumpi\n      tag_496\n      tag_497\n      jump\t// in\n    tag_496:\n      0x01\n      swap1\n      sub\n      dup2\n      dup2\n      swap1\n      0x00\n      mstore\n      keccak256(0x00, 0x20)\n      add\n      0x00\n      swap1\n      sstore\n      swap1\n      sstore\n        /* \"@openzeppelin/contracts/utils/structs/EnumerableSet.sol\":3552:3555  set */\n      dup6\n        /* \"@openzeppelin/contracts/utils/structs/EnumerableSet.sol\":3552:3564  set._indexes */\n      0x01\n      add\n        /* \"@openzeppelin/contracts/utils/structs/EnumerableSet.sol\":3552:3571  set._indexes[value] */\n      0x00\n        /* \"@openzeppelin/contracts/utils/structs/EnumerableSet.sol\":3565:3570  value */\n      dup7\n        /* \"@openzeppelin/contracts/utils/structs/EnumerableSet.sol\":3552:3571  set._indexes[value] */\n      dup2\n      mstore\n      0x20\n      add\n      swap1\n      dup2\n      mstore\n      0x20\n      add\n      0x00\n      keccak256\n        /* \"@openzeppelin/contracts/utils/structs/EnumerableSet.sol\":3545:3571  delete set._indexes[value] */\n      0x00\n      swap1\n      sstore\n        /* \"@openzeppelin/contracts/utils/structs/EnumerableSet.sol\":3593:3597  true */\n      0x01\n        /* \"@openzeppelin/contracts/utils/structs/EnumerableSet.sol\":3586:3597  return true */\n      swap4\n      pop\n      pop\n      pop\n      pop\n      jump(tag_189)\n        /* \"@openzeppelin/contracts/utils/structs/EnumerableSet.sol\":2502:3651  if (valueIndex != 0) {... */\n    tag_485:\n        /* \"@openzeppelin/contracts/utils/structs/EnumerableSet.sol\":3635:3640  false */\n      0x00\n        /* \"@openzeppelin/contracts/utils/structs/EnumerableSet.sol\":3628:3640  return false */\n      swap2\n      pop\n      pop\n      jump(tag_189)\n        /* \"#utility.yul\":14:300   */\n    tag_48:\n        /* \"#utility.yul\":72:78   */\n      0x00\n        /* \"#utility.yul\":125:127   */\n      0x20\n        /* \"#utility.yul\":113:122   */\n      dup3\n        /* \"#utility.yul\":104:111   */\n      dup5\n        /* \"#utility.yul\":100:123   */\n      sub\n        /* \"#utility.yul\":96:128   */\n      slt\n        /* \"#utility.yul\":93:145   */\n      iszero\n      tag_506\n      jumpi\n        /* \"#utility.yul\":141:142   */\n      0x00\n        /* \"#utility.yul\":138:139   */\n      dup1\n        /* \"#utility.yul\":131:143   */\n      revert\n        /* \"#utility.yul\":93:145   */\n    tag_506:\n        /* \"#utility.yul\":167:190   */\n      dup2\n      calldataload\n      not(sub(shl(0xe0, 0x01), 0x01))\n        /* \"#utility.yul\":219:251   */\n      dup2\n      and\n        /* \"#utility.yul\":209:252   */\n      dup2\n      eq\n        /* \"#utility.yul\":199:270   */\n      tag_272\n      jumpi\n        /* \"#utility.yul\":266:267   */\n      0x00\n        /* \"#utility.yul\":263:264   */\n      dup1\n        /* \"#utility.yul\":256:268   */\n      revert\n        /* \"#utility.yul\":497:755   */\n    tag_500:\n        /* \"#utility.yul\":569:570   */\n      0x00\n        /* \"#utility.yul\":579:692   */\n    tag_510:\n        /* \"#utility.yul\":593:599   */\n      dup4\n        /* \"#utility.yul\":590:591   */\n      dup2\n        /* \"#utility.yul\":587:600   */\n      lt\n        /* \"#utility.yul\":579:692   */\n      iszero\n      tag_512\n      jumpi\n        /* \"#utility.yul\":669:680   */\n      dup2\n      dup2\n      add\n        /* \"#utility.yul\":663:681   */\n      mload\n        /* \"#utility.yul\":650:661   */\n      dup4\n      dup3\n      add\n        /* \"#utility.yul\":643:682   */\n      mstore\n        /* \"#utility.yul\":615:617   */\n      0x20\n        /* \"#utility.yul\":608:618   */\n      add\n        /* \"#utility.yul\":579:692   */\n      jump(tag_510)\n    tag_512:\n        /* \"#utility.yul\":710:716   */\n      dup4\n        /* \"#utility.yul\":707:708   */\n      dup2\n        /* \"#utility.yul\":704:717   */\n      gt\n        /* \"#utility.yul\":701:749   */\n      iszero\n      tag_357\n      jumpi\n      pop\n      pop\n        /* \"#utility.yul\":745:746   */\n      0x00\n        /* \"#utility.yul\":727:743   */\n      swap2\n      add\n        /* \"#utility.yul\":720:747   */\n      mstore\n        /* \"#utility.yul\":497:755   */\n      jump\t// out\n        /* \"#utility.yul\":760:1143   */\n    tag_55:\n        /* \"#utility.yul\":909:911   */\n      0x20\n        /* \"#utility.yul\":898:907   */\n      dup2\n        /* \"#utility.yul\":891:912   */\n      mstore\n        /* \"#utility.yul\":872:876   */\n      0x00\n        /* \"#utility.yul\":941:947   */\n      dup3\n        /* \"#utility.yul\":935:948   */\n      mload\n        /* \"#utility.yul\":984:990   */\n      dup1\n        /* \"#utility.yul\":979:981   */\n      0x20\n        /* \"#utility.yul\":968:977   */\n      dup5\n        /* \"#utility.yul\":964:982   */\n      add\n        /* \"#utility.yul\":957:991   */\n      mstore\n        /* \"#utility.yul\":1000:1066   */\n      tag_515\n        /* \"#utility.yul\":1059:1065   */\n      dup2\n        /* \"#utility.yul\":1054:1056   */\n      0x40\n        /* \"#utility.yul\":1043:1052   */\n      dup6\n        /* \"#utility.yul\":1039:1057   */\n      add\n        /* \"#utility.yul\":1034:1036   */\n      0x20\n        /* \"#utility.yul\":1026:1032   */\n      dup8\n        /* \"#utility.yul\":1022:1037   */\n      add\n        /* \"#utility.yul\":1000:1066   */\n      tag_500\n      jump\t// in\n    tag_515:\n        /* \"#utility.yul\":1127:1129   */\n      0x1f\n        /* \"#utility.yul\":1106:1121   */\n      add\n      not(0x1f)\n        /* \"#utility.yul\":1102:1131   */\n      and\n        /* \"#utility.yul\":1087:1132   */\n      swap2\n      swap1\n      swap2\n      add\n        /* \"#utility.yul\":1134:1136   */\n      0x40\n        /* \"#utility.yul\":1083:1137   */\n      add\n      swap3\n        /* \"#utility.yul\":760:1143   */\n      swap2\n      pop\n      pop\n      jump\t// out\n        /* \"#utility.yul\":1148:1321   */\n    tag_501:\n        /* \"#utility.yul\":1216:1236   */\n      dup1\n      calldataload\n      sub(shl(0xa0, 0x01), 0x01)\n        /* \"#utility.yul\":1265:1296   */\n      dup2\n      and\n        /* \"#utility.yul\":1255:1297   */\n      dup2\n      eq\n        /* \"#utility.yul\":1245:1315   */\n      tag_517\n      jumpi\n        /* \"#utility.yul\":1311:1312   */\n      0x00\n        /* \"#utility.yul\":1308:1309   */\n      dup1\n        /* \"#utility.yul\":1301:1313   */\n      revert\n        /* \"#utility.yul\":1245:1315   */\n    tag_517:\n        /* \"#utility.yul\":1148:1321   */\n      swap2\n      swap1\n      pop\n      jump\t// out\n        /* \"#utility.yul\":1326:1580   */\n    tag_58:\n        /* \"#utility.yul\":1394:1400   */\n      0x00\n        /* \"#utility.yul\":1402:1408   */\n      dup1\n        /* \"#utility.yul\":1455:1457   */\n      0x40\n        /* \"#utility.yul\":1443:1452   */\n      dup4\n        /* \"#utility.yul\":1434:1441   */\n      dup6\n        /* \"#utility.yul\":1430:1453   */\n      sub\n        /* \"#utility.yul\":1426:1458   */\n      slt\n        /* \"#utility.yul\":1423:1475   */\n      iszero\n      tag_519\n      jumpi\n        /* \"#utility.yul\":1471:1472   */\n      0x00\n        /* \"#utility.yul\":1468:1469   */\n      dup1\n        /* \"#utility.yul\":1461:1473   */\n      revert\n        /* \"#utility.yul\":1423:1475   */\n    tag_519:\n        /* \"#utility.yul\":1494:1523   */\n      tag_520\n        /* \"#utility.yul\":1513:1522   */\n      dup4\n        /* \"#utility.yul\":1494:1523   */\n      tag_501\n      jump\t// in\n    tag_520:\n        /* \"#utility.yul\":1484:1523   */\n      swap5\n        /* \"#utility.yul\":1570:1572   */\n      0x20\n        /* \"#utility.yul\":1555:1573   */\n      swap4\n      swap1\n      swap4\n      add\n        /* \"#utility.yul\":1542:1574   */\n      calldataload\n      swap4\n      pop\n      pop\n      pop\n        /* \"#utility.yul\":1326:1580   */\n      jump\t// out\n        /* \"#utility.yul\":1767:2095   */\n    tag_67:\n        /* \"#utility.yul\":1844:1850   */\n      0x00\n        /* \"#utility.yul\":1852:1858   */\n      dup1\n        /* \"#utility.yul\":1860:1866   */\n      0x00\n        /* \"#utility.yul\":1913:1915   */\n      0x60\n        /* \"#utility.yul\":1901:1910   */\n      dup5\n        /* \"#utility.yul\":1892:1899   */\n      dup7\n        /* \"#utility.yul\":1888:1911   */\n      sub\n        /* \"#utility.yul\":1884:1916   */\n      slt\n        /* \"#utility.yul\":1881:1933   */\n      iszero\n      tag_523\n      jumpi\n        /* \"#utility.yul\":1929:1930   */\n      0x00\n        /* \"#utility.yul\":1926:1927   */\n      dup1\n        /* \"#utility.yul\":1919:1931   */\n      revert\n        /* \"#utility.yul\":1881:1933   */\n    tag_523:\n        /* \"#utility.yul\":1952:1981   */\n      tag_524\n        /* \"#utility.yul\":1971:1980   */\n      dup5\n        /* \"#utility.yul\":1952:1981   */\n      tag_501\n      jump\t// in\n    tag_524:\n        /* \"#utility.yul\":1942:1981   */\n      swap3\n      pop\n        /* \"#utility.yul\":2000:2038   */\n      tag_525\n        /* \"#utility.yul\":2034:2036   */\n      0x20\n        /* \"#utility.yul\":2023:2032   */\n      dup6\n        /* \"#utility.yul\":2019:2037   */\n      add\n        /* \"#utility.yul\":2000:2038   */\n      tag_501\n      jump\t// in\n    tag_525:\n        /* \"#utility.yul\":1990:2038   */\n      swap2\n      pop\n        /* \"#utility.yul\":2085:2087   */\n      0x40\n        /* \"#utility.yul\":2074:2083   */\n      dup5\n        /* \"#utility.yul\":2070:2088   */\n      add\n        /* \"#utility.yul\":2057:2089   */\n      calldataload\n        /* \"#utility.yul\":2047:2089   */\n      swap1\n      pop\n        /* \"#utility.yul\":1767:2095   */\n      swap3\n      pop\n      swap3\n      pop\n      swap3\n      jump\t// out\n        /* \"#utility.yul\":2100:2280   */\n    tag_72:\n        /* \"#utility.yul\":2159:2165   */\n      0x00\n        /* \"#utility.yul\":2212:2214   */\n      0x20\n        /* \"#utility.yul\":2200:2209   */\n      dup3\n        /* \"#utility.yul\":2191:2198   */\n      dup5\n        /* \"#utility.yul\":2187:2210   */\n      sub\n        /* \"#utility.yul\":2183:2215   */\n      slt\n        /* \"#utility.yul\":2180:2232   */\n      iszero\n      tag_527\n      jumpi\n        /* \"#utility.yul\":2228:2229   */\n      0x00\n        /* \"#utility.yul\":2225:2226   */\n      dup1\n        /* \"#utility.yul\":2218:2230   */\n      revert\n        /* \"#utility.yul\":2180:2232   */\n    tag_527:\n      pop\n        /* \"#utility.yul\":2251:2274   */\n      calldataload\n      swap2\n        /* \"#utility.yul\":2100:2280   */\n      swap1\n      pop\n      jump\t// out\n        /* \"#utility.yul\":2467:2721   */\n    tag_78:\n        /* \"#utility.yul\":2535:2541   */\n      0x00\n        /* \"#utility.yul\":2543:2549   */\n      dup1\n        /* \"#utility.yul\":2596:2598   */\n      0x40\n        /* \"#utility.yul\":2584:2593   */\n      dup4\n        /* \"#utility.yul\":2575:2582   */\n      dup6\n        /* \"#utility.yul\":2571:2594   */\n      sub\n        /* \"#utility.yul\":2567:2599   */\n      slt\n        /* \"#utility.yul\":2564:2616   */\n      iszero\n      tag_530\n      jumpi\n        /* \"#utility.yul\":2612:2613   */\n      0x00\n        /* \"#utility.yul\":2609:2610   */\n      dup1\n        /* \"#utility.yul\":2602:2614   */\n      revert\n        /* \"#utility.yul\":2564:2616   */\n    tag_530:\n        /* \"#utility.yul\":2648:2657   */\n      dup3\n        /* \"#utility.yul\":2635:2658   */\n      calldataload\n        /* \"#utility.yul\":2625:2658   */\n      swap2\n      pop\n        /* \"#utility.yul\":2677:2715   */\n      tag_531\n        /* \"#utility.yul\":2711:2713   */\n      0x20\n        /* \"#utility.yul\":2700:2709   */\n      dup5\n        /* \"#utility.yul\":2696:2714   */\n      add\n        /* \"#utility.yul\":2677:2715   */\n      tag_501\n      jump\t// in\n    tag_531:\n        /* \"#utility.yul\":2667:2715   */\n      swap1\n      pop\n        /* \"#utility.yul\":2467:2721   */\n      swap3\n      pop\n      swap3\n      swap1\n      pop\n      jump\t// out\n        /* \"#utility.yul\":3100:3286   */\n    tag_103:\n        /* \"#utility.yul\":3159:3165   */\n      0x00\n        /* \"#utility.yul\":3212:3214   */\n      0x20\n        /* \"#utility.yul\":3200:3209   */\n      dup3\n        /* \"#utility.yul\":3191:3198   */\n      dup5\n        /* \"#utility.yul\":3187:3210   */\n      sub\n        /* \"#utility.yul\":3183:3215   */\n      slt\n        /* \"#utility.yul\":3180:3232   */\n      iszero\n      tag_536\n      jumpi\n        /* \"#utility.yul\":3228:3229   */\n      0x00\n        /* \"#utility.yul\":3225:3226   */\n      dup1\n        /* \"#utility.yul\":3218:3230   */\n      revert\n        /* \"#utility.yul\":3180:3232   */\n    tag_536:\n        /* \"#utility.yul\":3251:3280   */\n      tag_272\n        /* \"#utility.yul\":3270:3279   */\n      dup3\n        /* \"#utility.yul\":3251:3280   */\n      tag_501\n      jump\t// in\n        /* \"#utility.yul\":3499:3659   */\n    tag_502:\n        /* \"#utility.yul\":3564:3584   */\n      dup1\n      calldataload\n        /* \"#utility.yul\":3620:3633   */\n      dup1\n      iszero\n        /* \"#utility.yul\":3613:3634   */\n      iszero\n        /* \"#utility.yul\":3603:3635   */\n      dup2\n      eq\n        /* \"#utility.yul\":3593:3653   */\n      tag_517\n      jumpi\n        /* \"#utility.yul\":3649:3650   */\n      0x00\n        /* \"#utility.yul\":3646:3647   */\n      dup1\n        /* \"#utility.yul\":3639:3651   */\n      revert\n        /* \"#utility.yul\":3664:3986   */\n    tag_120:\n        /* \"#utility.yul\":3735:3741   */\n      0x00\n        /* \"#utility.yul\":3743:3749   */\n      dup1\n        /* \"#utility.yul\":3751:3757   */\n      0x00\n        /* \"#utility.yul\":3804:3806   */\n      0x60\n        /* \"#utility.yul\":3792:3801   */\n      dup5\n        /* \"#utility.yul\":3783:3790   */\n      dup7\n        /* \"#utility.yul\":3779:3802   */\n      sub\n        /* \"#utility.yul\":3775:3807   */\n      slt\n        /* \"#utility.yul\":3772:3824   */\n      iszero\n      tag_542\n      jumpi\n        /* \"#utility.yul\":3820:3821   */\n      0x00\n        /* \"#utility.yul\":3817:3818   */\n      dup1\n        /* \"#utility.yul\":3810:3822   */\n      revert\n        /* \"#utility.yul\":3772:3824   */\n    tag_542:\n        /* \"#utility.yul\":3843:3872   */\n      tag_543\n        /* \"#utility.yul\":3862:3871   */\n      dup5\n        /* \"#utility.yul\":3843:3872   */\n      tag_501\n      jump\t// in\n    tag_543:\n        /* \"#utility.yul\":3833:3872   */\n      swap3\n      pop\n        /* \"#utility.yul\":3891:3926   */\n      tag_544\n        /* \"#utility.yul\":3922:3924   */\n      0x20\n        /* \"#utility.yul\":3911:3920   */\n      dup6\n        /* \"#utility.yul\":3907:3925   */\n      add\n        /* \"#utility.yul\":3891:3926   */\n      tag_502\n      jump\t// in\n    tag_544:\n        /* \"#utility.yul\":3881:3926   */\n      swap2\n      pop\n        /* \"#utility.yul\":3945:3980   */\n      tag_545\n        /* \"#utility.yul\":3976:3978   */\n      0x40\n        /* \"#utility.yul\":3965:3974   */\n      dup6\n        /* \"#utility.yul\":3961:3979   */\n      add\n        /* \"#utility.yul\":3945:3980   */\n      tag_502\n      jump\t// in\n    tag_545:\n        /* \"#utility.yul\":3935:3980   */\n      swap1\n      pop\n        /* \"#utility.yul\":3664:3986   */\n      swap3\n      pop\n      swap3\n      pop\n      swap3\n      jump\t// out\n        /* \"#utility.yul\":3991:4239   */\n    tag_127:\n        /* \"#utility.yul\":4059:4065   */\n      0x00\n        /* \"#utility.yul\":4067:4073   */\n      dup1\n        /* \"#utility.yul\":4120:4122   */\n      0x40\n        /* \"#utility.yul\":4108:4117   */\n      dup4\n        /* \"#utility.yul\":4099:4106   */\n      dup6\n        /* \"#utility.yul\":4095:4118   */\n      sub\n        /* \"#utility.yul\":4091:4123   */\n      slt\n        /* \"#utility.yul\":4088:4140   */\n      iszero\n      tag_547\n      jumpi\n        /* \"#utility.yul\":4136:4137   */\n      0x00\n        /* \"#utility.yul\":4133:4134   */\n      dup1\n        /* \"#utility.yul\":4126:4138   */\n      revert\n        /* \"#utility.yul\":4088:4140   */\n    tag_547:\n      pop\n      pop\n        /* \"#utility.yul\":4159:4182   */\n      dup1\n      calldataload\n      swap3\n        /* \"#utility.yul\":4229:4231   */\n      0x20\n        /* \"#utility.yul\":4214:4232   */\n      swap1\n      swap2\n      add\n        /* \"#utility.yul\":4201:4233   */\n      calldataload\n      swap2\n      pop\n        /* \"#utility.yul\":3991:4239   */\n      jump\t// out\n        /* \"#utility.yul\":4244:4504   */\n    tag_166:\n        /* \"#utility.yul\":4312:4318   */\n      0x00\n        /* \"#utility.yul\":4320:4326   */\n      dup1\n        /* \"#utility.yul\":4373:4375   */\n      0x40\n        /* \"#utility.yul\":4361:4370   */\n      dup4\n        /* \"#utility.yul\":4352:4359   */\n      dup6\n        /* \"#utility.yul\":4348:4371   */\n      sub\n        /* \"#utility.yul\":4344:4376   */\n      slt\n        /* \"#utility.yul\":4341:4393   */\n      iszero\n      tag_549\n      jumpi\n        /* \"#utility.yul\":4389:4390   */\n      0x00\n        /* \"#utility.yul\":4386:4387   */\n      dup1\n        /* \"#utility.yul\":4379:4391   */\n      revert\n        /* \"#utility.yul\":4341:4393   */\n    tag_549:\n        /* \"#utility.yul\":4412:4441   */\n      tag_550\n        /* \"#utility.yul\":4431:4440   */\n      dup4\n        /* \"#utility.yul\":4412:4441   */\n      tag_501\n      jump\t// in\n    tag_550:\n        /* \"#utility.yul\":4402:4441   */\n      swap2\n      pop\n        /* \"#utility.yul\":4460:4498   */\n      tag_531\n        /* \"#utility.yul\":4494:4496   */\n      0x20\n        /* \"#utility.yul\":4483:4492   */\n      dup5\n        /* \"#utility.yul\":4479:4497   */\n      add\n        /* \"#utility.yul\":4460:4498   */\n      tag_501\n      jump\t// in\n        /* \"#utility.yul\":4782:5162   */\n    tag_193:\n        /* \"#utility.yul\":4861:4862   */\n      0x01\n        /* \"#utility.yul\":4857:4869   */\n      dup2\n      dup2\n      shr\n      swap1\n        /* \"#utility.yul\":4904:4916   */\n      dup3\n      and\n      dup1\n        /* \"#utility.yul\":4925:4986   */\n      tag_554\n      jumpi\n        /* \"#utility.yul\":4979:4983   */\n      0x7f\n        /* \"#utility.yul\":4971:4977   */\n      dup3\n        /* \"#utility.yul\":4967:4984   */\n      and\n        /* \"#utility.yul\":4957:4984   */\n      swap2\n      pop\n        /* \"#utility.yul\":4925:4986   */\n    tag_554:\n        /* \"#utility.yul\":5032:5034   */\n      0x20\n        /* \"#utility.yul\":5024:5030   */\n      dup3\n        /* \"#utility.yul\":5021:5035   */\n      lt\n        /* \"#utility.yul\":5001:5019   */\n      dup2\n        /* \"#utility.yul\":4998:5036   */\n      sub\n        /* \"#utility.yul\":4995:5156   */\n      tag_555\n      jumpi\n        /* \"#utility.yul\":5078:5088   */\n      0x4e487b71\n        /* \"#utility.yul\":5073:5076   */\n      0xe0\n        /* \"#utility.yul\":5069:5089   */\n      shl\n        /* \"#utility.yul\":5066:5067   */\n      0x00\n        /* \"#utility.yul\":5059:5090   */\n      mstore\n        /* \"#utility.yul\":5113:5117   */\n      0x22\n        /* \"#utility.yul\":5110:5111   */\n      0x04\n        /* \"#utility.yul\":5103:5118   */\n      mstore\n        /* \"#utility.yul\":5141:5145   */\n      0x24\n        /* \"#utility.yul\":5138:5139   */\n      0x00\n        /* \"#utility.yul\":5131:5146   */\n      revert\n        /* \"#utility.yul\":4995:5156   */\n    tag_555:\n      pop\n        /* \"#utility.yul\":4782:5162   */\n      swap2\n      swap1\n      pop\n      jump\t// out\n        /* \"#utility.yul\":5167:5523   */\n    tag_225:\n        /* \"#utility.yul\":5369:5371   */\n      0x20\n        /* \"#utility.yul\":5351:5372   */\n      dup1\n      dup3\n      mstore\n        /* \"#utility.yul\":5388:5406   */\n      dup2\n      dup2\n      add\n        /* \"#utility.yul\":5381:5411   */\n      mstore\n        /* \"#utility.yul\":5447:5481   */\n      0x4f776e61626c653a2063616c6c6572206973206e6f7420746865206f776e6572\n        /* \"#utility.yul\":5442:5444   */\n      0x40\n        /* \"#utility.yul\":5427:5445   */\n      dup3\n      add\n        /* \"#utility.yul\":5420:5482   */\n      mstore\n        /* \"#utility.yul\":5514:5516   */\n      0x60\n        /* \"#utility.yul\":5499:5517   */\n      add\n      swap1\n        /* \"#utility.yul\":5167:5523   */\n      jump\t// out\n        /* \"#utility.yul\":6369:6496   */\n    tag_503:\n        /* \"#utility.yul\":6430:6440   */\n      0x4e487b71\n        /* \"#utility.yul\":6425:6428   */\n      0xe0\n        /* \"#utility.yul\":6421:6441   */\n      shl\n        /* \"#utility.yul\":6418:6419   */\n      0x00\n        /* \"#utility.yul\":6411:6442   */\n      mstore\n        /* \"#utility.yul\":6461:6465   */\n      0x11\n        /* \"#utility.yul\":6458:6459   */\n      0x04\n        /* \"#utility.yul\":6451:6466   */\n      mstore\n        /* \"#utility.yul\":6485:6489   */\n      0x24\n        /* \"#utility.yul\":6482:6483   */\n      0x00\n        /* \"#utility.yul\":6475:6490   */\n      revert\n        /* \"#utility.yul\":6501:6629   */\n    tag_242:\n        /* \"#utility.yul\":6541:6544   */\n      0x00\n        /* \"#utility.yul\":6572:6573   */\n      dup3\n        /* \"#utility.yul\":6568:6574   */\n      not\n        /* \"#utility.yul\":6565:6566   */\n      dup3\n        /* \"#utility.yul\":6562:6575   */\n      gt\n        /* \"#utility.yul\":6559:6598   */\n      iszero\n      tag_562\n      jumpi\n        /* \"#utility.yul\":6578:6596   */\n      tag_562\n      tag_503\n      jump\t// in\n    tag_562:\n      pop\n        /* \"#utility.yul\":6614:6623   */\n      add\n      swap1\n        /* \"#utility.yul\":6501:6629   */\n      jump\t// out\n        /* \"#utility.yul\":9024:9149   */\n    tag_369:\n        /* \"#utility.yul\":9064:9068   */\n      0x00\n        /* \"#utility.yul\":9092:9093   */\n      dup3\n        /* \"#utility.yul\":9089:9090   */\n      dup3\n        /* \"#utility.yul\":9086:9094   */\n      lt\n        /* \"#utility.yul\":9083:9117   */\n      iszero\n      tag_571\n      jumpi\n        /* \"#utility.yul\":9097:9115   */\n      tag_571\n      tag_503\n      jump\t// in\n    tag_571:\n      pop\n        /* \"#utility.yul\":9134:9143   */\n      sub\n      swap1\n        /* \"#utility.yul\":9024:9149   */\n      jump\t// out\n        /* \"#utility.yul\":9154:9940   */\n    tag_379:\n        /* \"#utility.yul\":9565:9590   */\n      0x416363657373436f6e74726f6c3a206163636f756e7420000000000000000000\n        /* \"#utility.yul\":9560:9563   */\n      dup2\n        /* \"#utility.yul\":9553:9591   */\n      mstore\n        /* \"#utility.yul\":9535:9538   */\n      0x00\n        /* \"#utility.yul\":9620:9626   */\n      dup4\n        /* \"#utility.yul\":9614:9627   */\n      mload\n        /* \"#utility.yul\":9636:9698   */\n      tag_573\n        /* \"#utility.yul\":9691:9697   */\n      dup2\n        /* \"#utility.yul\":9686:9688   */\n      0x17\n        /* \"#utility.yul\":9681:9684   */\n      dup6\n        /* \"#utility.yul\":9677:9689   */\n      add\n        /* \"#utility.yul\":9670:9674   */\n      0x20\n        /* \"#utility.yul\":9662:9668   */\n      dup9\n        /* \"#utility.yul\":9658:9675   */\n      add\n        /* \"#utility.yul\":9636:9698   */\n      tag_500\n      jump\t// in\n    tag_573:\n      shl(0x7d, 0x01034b99036b4b9b9b4b733903937b6329)\n        /* \"#utility.yul\":9757:9759   */\n      0x17\n        /* \"#utility.yul\":9717:9733   */\n      swap2\n      dup5\n      add\n        /* \"#utility.yul\":9749:9760   */\n      swap2\n      dup3\n      add\n        /* \"#utility.yul\":9742:9782   */\n      mstore\n        /* \"#utility.yul\":9807:9820   */\n      dup4\n      mload\n        /* \"#utility.yul\":9829:9892   */\n      tag_574\n        /* \"#utility.yul\":9807:9820   */\n      dup2\n        /* \"#utility.yul\":9878:9880   */\n      0x28\n        /* \"#utility.yul\":9870:9881   */\n      dup5\n      add\n        /* \"#utility.yul\":9863:9867   */\n      0x20\n        /* \"#utility.yul\":9851:9868   */\n      dup9\n      add\n        /* \"#utility.yul\":9829:9892   */\n      tag_500\n      jump\t// in\n    tag_574:\n        /* \"#utility.yul\":9912:9929   */\n      add\n        /* \"#utility.yul\":9931:9933   */\n      0x28\n        /* \"#utility.yul\":9908:9934   */\n      add\n      swap5\n        /* \"#utility.yul\":9154:9940   */\n      swap4\n      pop\n      pop\n      pop\n      pop\n      jump\t// out\n        /* \"#utility.yul\":11967:12135   */\n    tag_432:\n        /* \"#utility.yul\":12007:12014   */\n      0x00\n        /* \"#utility.yul\":12073:12074   */\n      dup2\n        /* \"#utility.yul\":12069:12070   */\n      0x00\n        /* \"#utility.yul\":12065:12071   */\n      not\n        /* \"#utility.yul\":12061:12075   */\n      div\n        /* \"#utility.yul\":12058:12059   */\n      dup4\n        /* \"#utility.yul\":12055:12076   */\n      gt\n        /* \"#utility.yul\":12050:12051   */\n      dup3\n        /* \"#utility.yul\":12043:12052   */\n      iszero\n        /* \"#utility.yul\":12036:12053   */\n      iszero\n        /* \"#utility.yul\":12032:12077   */\n      and\n        /* \"#utility.yul\":12029:12100   */\n      iszero\n      tag_582\n      jumpi\n        /* \"#utility.yul\":12080:12098   */\n      tag_582\n      tag_503\n      jump\t// in\n    tag_582:\n      pop\n        /* \"#utility.yul\":12120:12129   */\n      mul\n      swap1\n        /* \"#utility.yul\":11967:12135   */\n      jump\t// out\n        /* \"#utility.yul\":12140:12357   */\n    tag_435:\n        /* \"#utility.yul\":12180:12181   */\n      0x00\n        /* \"#utility.yul\":12206:12207   */\n      dup3\n        /* \"#utility.yul\":12196:12328   */\n      tag_584\n      jumpi\n        /* \"#utility.yul\":12250:12260   */\n      0x4e487b71\n        /* \"#utility.yul\":12245:12248   */\n      0xe0\n        /* \"#utility.yul\":12241:12261   */\n      shl\n        /* \"#utility.yul\":12238:12239   */\n      0x00\n        /* \"#utility.yul\":12231:12262   */\n      mstore\n        /* \"#utility.yul\":12285:12289   */\n      0x12\n        /* \"#utility.yul\":12282:12283   */\n      0x04\n        /* \"#utility.yul\":12275:12290   */\n      mstore\n        /* \"#utility.yul\":12313:12317   */\n      0x24\n        /* \"#utility.yul\":12310:12311   */\n      0x00\n        /* \"#utility.yul\":12303:12318   */\n      revert\n        /* \"#utility.yul\":12196:12328   */\n    tag_584:\n      pop\n        /* \"#utility.yul\":12342:12351   */\n      div\n      swap1\n        /* \"#utility.yul\":12140:12357   */\n      jump\t// out\n        /* \"#utility.yul\":12362:12489   */\n    tag_441:\n        /* \"#utility.yul\":12423:12433   */\n      0x4e487b71\n        /* \"#utility.yul\":12418:12421   */\n      0xe0\n        /* \"#utility.yul\":12414:12434   */\n      shl\n        /* \"#utility.yul\":12411:12412   */\n      0x00\n        /* \"#utility.yul\":12404:12435   */\n      mstore\n        /* \"#utility.yul\":12454:12458   */\n      0x41\n        /* \"#utility.yul\":12451:12452   */\n      0x04\n        /* \"#utility.yul\":12444:12459   */\n      mstore\n        /* \"#utility.yul\":12478:12482   */\n      0x24\n        /* \"#utility.yul\":12475:12476   */\n      0x00\n        /* \"#utility.yul\":12468:12483   */\n      revert\n        /* \"#utility.yul\":12494:12621   */\n    tag_445:\n        /* \"#utility.yul\":12555:12565   */\n      0x4e487b71\n        /* \"#utility.yul\":12550:12553   */\n      0xe0\n        /* \"#utility.yul\":12546:12566   */\n      shl\n        /* \"#utility.yul\":12543:12544   */\n      0x00\n        /* \"#utility.yul\":12536:12567   */\n      mstore\n        /* \"#utility.yul\":12586:12590   */\n      0x32\n        /* \"#utility.yul\":12583:12584   */\n      0x04\n        /* \"#utility.yul\":12576:12591   */\n      mstore\n        /* \"#utility.yul\":12610:12614   */\n      0x24\n        /* \"#utility.yul\":12607:12608   */\n      0x00\n        /* \"#utility.yul\":12600:12615   */\n      revert\n        /* \"#utility.yul\":12626:12762   */\n    tag_458:\n        /* \"#utility.yul\":12665:12668   */\n      0x00\n        /* \"#utility.yul\":12693:12698   */\n      dup2\n        /* \"#utility.yul\":12683:12722   */\n      tag_589\n      jumpi\n        /* \"#utility.yul\":12702:12720   */\n      tag_589\n      tag_503\n      jump\t// in\n    tag_589:\n      pop\n      not(0x00)\n        /* \"#utility.yul\":12738:12756   */\n      add\n      swap1\n        /* \"#utility.yul\":12626:12762   */\n      jump\t// out\n        /* \"#utility.yul\":13960:14087   */\n    tag_497:\n        /* \"#utility.yul\":14021:14031   */\n      0x4e487b71\n        /* \"#utility.yul\":14016:14019   */\n      0xe0\n        /* \"#utility.yul\":14012:14032   */\n      shl\n        /* \"#utility.yul\":14009:14010   */\n      0x00\n        /* \"#utility.yul\":14002:14033   */\n      mstore\n        /* \"#utility.yul\":14052:14056   */\n      0x31\n        /* \"#utility.yul\":14049:14050   */\n      0x04\n        /* \"#utility.yul\":14042:14057   */\n      mstore\n        /* \"#utility.yul\":14076:14080   */\n      0x24\n        /* \"#utility.yul\":14073:14074   */\n      0x00\n        /* \"#utility.yul\":14066:14081   */\n      revert\n\n    auxdata: 0xa26469706673582212208c07753cef65e25fc61f05f734b08d9500ff824f6de0adeec0d63e93eef198d664736f6c634300080d0033\n}\n",
				"bytecode": {
					"linkReferences": {},
					"object": "60806040523480156200001157600080fd5b50604051620023ac380380620023ac83398101604081905262000034916200070a565b8151829082906200004d90600590602085019062000597565b5080516200006390600690602084019062000597565b50506007805460ff19169055506200007b3362000143565b620000886000336200019d565b620000b47f9f2df0fed2c77648de5860a4cc508cd0818c85b8b8a1ab4ceeef8d981c8956a6336200019d565b620000e07f65d7a28e3265b37a6474929f336521b332c1681b933f6cb9f3376673440d862a336200019d565b6032600855620000fd60075461010090046001600160a01b031690565b600980546001600160a01b0319166001600160a01b039283161790556007546200013b91610100909104166b033b2e3c9fd0803ce8000000620001ad565b5050620007d7565b600780546001600160a01b03838116610100818102610100600160a81b031985161790945560405193909204169182907f8be0079c531659141344cd1fd0a4f28419497f9722a3daafe3b4186f6b6457e090600090a35050565b620001a98282620002a4565b5050565b6001600160a01b038216620002095760405162461bcd60e51b815260206004820152601f60248201527f45524332303a206d696e7420746f20746865207a65726f20616464726573730060448201526064015b60405180910390fd5b6200021760008383620002e7565b80600460008282546200022b919062000774565b90915550506001600160a01b038216600090815260026020526040812080548392906200025a90849062000774565b90915550506040518181526001600160a01b038316906000907fddf252ad1be2c89b69c2b068fc378daa952ba7f163c4a11628f55a4df523b3ef9060200160405180910390a35050565b620002bb82826200040560201b62000b431760201c565b6000828152600160209081526040909120620002e291839062000bc7620004a5821b17901c565b505050565b6001600160a01b0383166000908152600a602052604090205460ff1615620003695760405162461bcd60e51b815260206004820152602e60248201527f4865726f204177616b656e20546f6b656e3a207468652073656e64657220686160448201526d1cc81899595b88189b1bd8dad95960921b606482015260840162000200565b6001600160a01b0382166000908152600b602052604090205460ff1615620003ed5760405162461bcd60e51b815260206004820152603060248201527f4865726f204177616b656e20546f6b656e3a207468652072656365697665722060448201526f1a185cc81899595b88189b1bd8dad95960821b606482015260840162000200565b620002e2838383620004c560201b62000bdc1760201c565b6000828152602081815260408083206001600160a01b038516845290915290205460ff16620001a9576000828152602081815260408083206001600160a01b03851684529091529020805460ff19166001179055620004613390565b6001600160a01b0316816001600160a01b0316837f2f8788117e7eff1d82e926ec794901d17c78024a50270940304540a733656f0d60405160405180910390a45050565b6000620004bc836001600160a01b03841662000545565b90505b92915050565b620004dd838383620002e260201b620006831760201c565b60075460ff1615620002e25760405162461bcd60e51b815260206004820152602a60248201527f45524332305061757361626c653a20746f6b656e207472616e736665722077686044820152691a5b19481c185d5cd95960b21b606482015260840162000200565b60008181526001830160205260408120546200058e57508154600181810184556000848152602080822090930184905584548482528286019093526040902091909155620004bf565b506000620004bf565b828054620005a5906200079b565b90600052602060002090601f016020900481019282620005c9576000855562000614565b82601f10620005e457805160ff191683800117855562000614565b8280016001018555821562000614579182015b8281111562000614578251825591602001919060010190620005f7565b506200062292915062000626565b5090565b5b8082111562000622576000815560010162000627565b634e487b7160e01b600052604160045260246000fd5b600082601f8301126200066557600080fd5b81516001600160401b03808211156200068257620006826200063d565b604051601f8301601f19908116603f01168101908282118183101715620006ad57620006ad6200063d565b81604052838152602092508683858801011115620006ca57600080fd5b600091505b83821015620006ee5785820183015181830184015290820190620006cf565b83821115620007005760008385830101525b9695505050505050565b600080604083850312156200071e57600080fd5b82516001600160401b03808211156200073657600080fd5b620007448683870162000653565b935060208501519150808211156200075b57600080fd5b506200076a8582860162000653565b9150509250929050565b600082198211156200079657634e487b7160e01b600052601160045260246000fd5b500190565b600181811c90821680620007b057607f821691505b602082108103620007d157634e487b7160e01b600052602260045260246000fd5b50919050565b611bc580620007e76000396000f3fe608060405234801561001057600080fd5b506004361061021c5760003560e01c80638bea933411610125578063a9059cbb116100ad578063dd62ed3e1161007c578063dd62ed3e1461048a578063e5962195146104c3578063e63ab1e914610517578063eefb9be21461053e578063f2fde38b1461055157600080fd5b8063a9059cbb1461042a578063ca15c8731461043d578063d539139314610450578063d547741f1461047757600080fd5b806395d89b41116100f457806395d89b41146103ec57806398118cb4146103f4578063a128471f146103fc578063a217fddf1461040f578063a457c2d71461041757600080fd5b80638bea9334146103b35780638da5cb5b1461039d5780639010d07c146103c657806391d14854146103d957600080fd5b806336568abe116101a857806370a082311161017757806370a0823114610334578063715018a61461035d57806379cc6790146103655780637f257c3e14610378578063893d20e81461039d57600080fd5b806336568abe146102f0578063395093511461030357806342966c68146103165780635c975abb1461032957600080fd5b806323b872dd116101ef57806323b872dd14610283578063248a9ca3146102965780632f2ff15d146102b9578063313ce567146102ce578063357bf15c146102dd57600080fd5b806301ffc9a71461022157806306fdde0314610249578063095ea7b31461025e57806318160ddd14610271575b600080fd5b61023461022f3660046117c2565b610564565b60405190151581526020015b60405180910390f35b61025161058f565b6040516102409190611818565b61023461026c366004611867565b610621565b6004545b604051908152602001610240565b610234610291366004611891565b610639565b6102756102a43660046118cd565b60009081526020819052604090206001015490565b6102cc6102c73660046118e6565b61065d565b005b60405160128152602001610240565b6102cc6102eb3660046118cd565b610688565b6102cc6102fe3660046118e6565b61073e565b610234610311366004611867565b6107bc565b6102cc6103243660046118cd565b6107fb565b60075460ff16610234565b610275610342366004611912565b6001600160a01b031660009081526002602052604090205490565b6102cc610808565b6102cc610373366004611867565b610844565b6009546001600160a01b03165b6040516001600160a01b039091168152602001610240565b60075461010090046001600160a01b0316610385565b6102cc6103c136600461193d565b610859565b6103856103d4366004611980565b6108cb565b6102346103e73660046118e6565b6108ea565b610251610913565b600854610275565b6102cc61040a366004611912565b610922565b610275600081565b610234610425366004611867565b610974565b610234610438366004611867565b610a06565b61027561044b3660046118cd565b610a14565b6102757f9f2df0fed2c77648de5860a4cc508cd0818c85b8b8a1ab4ceeef8d981c8956a681565b6102cc6104853660046118e6565b610a2b565b6102756104983660046119a2565b6001600160a01b03918216600090815260036020908152604080832093909416825291909152205490565b6105006104d1366004611912565b6001600160a01b03166000908152600a6020908152604080832054600b9092529091205460ff91821692911690565b604080519215158352901515602083015201610240565b6102757f65d7a28e3265b37a6474929f336521b332c1681b933f6cb9f3376673440d862a81565b6102cc61054c366004611912565b610a51565b6102cc61055f366004611912565b610aa5565b60006001600160e01b03198216635a05180f60e01b1480610589575061058982610c42565b92915050565b60606005805461059e906119cc565b80601f01602080910402602001604051908101604052809291908181526020018280546105ca906119cc565b80156106175780601f106105ec57610100808354040283529160200191610617565b820191906000526020600020905b8154815290600101906020018083116105fa57829003601f168201915b5050505050905090565b60003361062f818585610c77565b5060019392505050565b600033610647858285610d9b565b610652858585610e2d565b506001949350505050565b6000828152602081905260409020600101546106798133610ed0565b6106838383610f34565b505050565b6007546001600160a01b036101009091041633146106c15760405162461bcd60e51b81526004016106b890611a06565b60405180910390fd5b6103e88111156107395760405162461bcd60e51b815260206004820152603860248201527f4865726f204177616b656e20546f6b656e3a206c69717569646974792066656560448201527f206d757374206265747765656e203020616e642031303030000000000000000060648201526084016106b8565b600855565b6001600160a01b03811633146107ae5760405162461bcd60e51b815260206004820152602f60248201527f416363657373436f6e74726f6c3a2063616e206f6e6c792072656e6f756e636560448201526e103937b632b9903337b91039b2b63360891b60648201526084016106b8565b6107b88282610f56565b5050565b3360008181526003602090815260408083206001600160a01b038716845290915281205490919061062f90829086906107f6908790611a51565b610c77565b6108053382610f78565b50565b6007546001600160a01b036101009091041633146108385760405162461bcd60e51b81526004016106b890611a06565b61084260006110d2565b565b61084f823383610d9b565b6107b88282610f78565b6007546001600160a01b036101009091041633146108895760405162461bcd60e51b81526004016106b890611a06565b6001600160a01b039092166000908152600a60209081526040808320805494151560ff19958616179055600b9091529020805492151592909116919091179055565b60008281526001602052604081206108e3908361112c565b9392505050565b6000918252602082815260408084206001600160a01b0393909316845291905290205460ff1690565b60606006805461059e906119cc565b6007546001600160a01b036101009091041633146109525760405162461bcd60e51b81526004016106b890611a06565b600980546001600160a01b0319166001600160a01b0392909216919091179055565b3360008181526003602090815260408083206001600160a01b0387168452909152812054909190838110156109f95760405162461bcd60e51b815260206004820152602560248201527f45524332303a2064656372656173656420616c6c6f77616e63652062656c6f77604482015264207a65726f60d81b60648201526084016106b8565b6106528286868403610c77565b60003361062f818585610e2d565b600081815260016020526040812061058990611138565b600082815260208190526040902060010154610a478133610ed0565b6106838383610f56565b6007546001600160a01b03610100909104163314610a815760405162461bcd60e51b81526004016106b890611a06565b6001600160a01b03166000908152600c60205260409020805460ff19166001179055565b6007546001600160a01b03610100909104163314610ad55760405162461bcd60e51b81526004016106b890611a06565b6001600160a01b038116610b3a5760405162461bcd60e51b815260206004820152602660248201527f4f776e61626c653a206e6577206f776e657220697320746865207a65726f206160448201526564647265737360d01b60648201526084016106b8565b610805816110d2565b610b4d82826108ea565b6107b8576000828152602081815260408083206001600160a01b03851684529091529020805460ff19166001179055610b833390565b6001600160a01b0316816001600160a01b0316837f2f8788117e7eff1d82e926ec794901d17c78024a50270940304540a733656f0d60405160405180910390a45050565b60006108e3836001600160a01b038416611142565b60075460ff16156106835760405162461bcd60e51b815260206004820152602a60248201527f45524332305061757361626c653a20746f6b656e207472616e736665722077686044820152691a5b19481c185d5cd95960b21b60648201526084016106b8565b60006001600160e01b03198216637965db0b60e01b148061058957506301ffc9a760e01b6001600160e01b0319831614610589565b6001600160a01b038316610cd95760405162461bcd60e51b8152602060048201526024808201527f45524332303a20617070726f76652066726f6d20746865207a65726f206164646044820152637265737360e01b60648201526084016106b8565b6001600160a01b038216610d3a5760405162461bcd60e51b815260206004820152602260248201527f45524332303a20617070726f766520746f20746865207a65726f206164647265604482015261737360f01b60648201526084016106b8565b6001600160a01b0383811660008181526003602090815260408083209487168084529482529182902085905590518481527f8c5be1e5ebec7d5bd14f71427d1e84f3dd0314c0f7b2291e5b200ac8c7c3b925910160405180910390a3505050565b6001600160a01b038381166000908152600360209081526040808320938616835292905220546000198114610e275781811015610e1a5760405162461bcd60e51b815260206004820152601d60248201527f45524332303a20696e73756666696369656e7420616c6c6f77616e636500000060448201526064016106b8565b610e278484848403610c77565b50505050565b6001600160a01b0383166000908152600c602052604090205460ff1680610e6c57506001600160a01b0382166000908152600c602052604090205460ff165b15610e7c57610e7c838383611191565b6000610e9f6103e8610e996008548561136a90919063ffffffff16565b90611376565b9050610eab8183611a69565b9150610eb8848484611191565b600954610e279085906001600160a01b031683611191565b610eda82826108ea565b6107b857610ef2816001600160a01b03166014611382565b610efd836020611382565b604051602001610f0e929190611a80565b60408051601f198184030181529082905262461bcd60e51b82526106b891600401611818565b610f3e8282610b43565b60008281526001602052604090206106839082610bc7565b610f60828261151e565b60008281526001602052604090206106839082611583565b6001600160a01b038216610fd85760405162461bcd60e51b815260206004820152602160248201527f45524332303a206275726e2066726f6d20746865207a65726f206164647265736044820152607360f81b60648201526084016106b8565b610fe482600083611598565b6001600160a01b038216600090815260026020526040902054818110156110585760405162461bcd60e51b815260206004820152602260248201527f45524332303a206275726e20616d6f756e7420657863656564732062616c616e604482015261636560f01b60648201526084016106b8565b6001600160a01b0383166000908152600260205260408120838303905560048054849290611087908490611a69565b90915550506040518281526000906001600160a01b038516907fddf252ad1be2c89b69c2b068fc378daa952ba7f163c4a11628f55a4df523b3ef9060200160405180910390a3505050565b600780546001600160a01b03838116610100818102610100600160a81b031985161790945560405193909204169182907f8be0079c531659141344cd1fd0a4f28419497f9722a3daafe3b4186f6b6457e090600090a35050565b60006108e383836116a5565b6000610589825490565b600081815260018301602052604081205461118957508154600181810184556000848152602080822090930184905584548482528286019093526040902091909155610589565b506000610589565b6001600160a01b0383166111f55760405162461bcd60e51b815260206004820152602560248201527f45524332303a207472616e736665722066726f6d20746865207a65726f206164604482015264647265737360d81b60648201526084016106b8565b6001600160a01b0382166112575760405162461bcd60e51b815260206004820152602360248201527f45524332303a207472616e7366657220746f20746865207a65726f206164647260448201526265737360e81b60648201526084016106b8565b611262838383611598565b6001600160a01b038316600090815260026020526040902054818110156112da5760405162461bcd60e51b815260206004820152602660248201527f45524332303a207472616e7366657220616d6f756e7420657863656564732062604482015265616c616e636560d01b60648201526084016106b8565b6001600160a01b03808516600090815260026020526040808220858503905591851681529081208054849290611311908490611a51565b92505081905550826001600160a01b0316846001600160a01b03167fddf252ad1be2c89b69c2b068fc378daa952ba7f163c4a11628f55a4df523b3ef8460405161135d91815260200190565b60405180910390a3610e27565b60006108e38284611af5565b60006108e38284611b14565b60606000611391836002611af5565b61139c906002611a51565b67ffffffffffffffff8111156113b4576113b4611b36565b6040519080825280601f01601f1916602001820160405280156113de576020820181803683370190505b509050600360fc1b816000815181106113f9576113f9611b4c565b60200101906001600160f81b031916908160001a905350600f60fb1b8160018151811061142857611428611b4c565b60200101906001600160f81b031916908160001a905350600061144c846002611af5565b611457906001611a51565b90505b60018111156114cf576f181899199a1a9b1b9c1cb0b131b232b360811b85600f166010811061148b5761148b611b4c565b1a60f81b8282815181106114a1576114a1611b4c565b60200101906001600160f81b031916908160001a90535060049490941c936114c881611b62565b905061145a565b5083156108e35760405162461bcd60e51b815260206004820181905260248201527f537472696e67733a20686578206c656e67746820696e73756666696369656e7460448201526064016106b8565b61152882826108ea565b156107b8576000828152602081815260408083206001600160a01b0385168085529252808320805460ff1916905551339285917ff6391f5c32d9c69d2a47ea670b442974b53935d1edc7fd64eb21e047a839171b9190a45050565b60006108e3836001600160a01b0384166116cf565b6001600160a01b0383166000908152600a602052604090205460ff16156116185760405162461bcd60e51b815260206004820152602e60248201527f4865726f204177616b656e20546f6b656e3a207468652073656e64657220686160448201526d1cc81899595b88189b1bd8dad95960921b60648201526084016106b8565b6001600160a01b0382166000908152600b602052604090205460ff161561169a5760405162461bcd60e51b815260206004820152603060248201527f4865726f204177616b656e20546f6b656e3a207468652072656365697665722060448201526f1a185cc81899595b88189b1bd8dad95960821b60648201526084016106b8565b610683838383610bdc565b60008260000182815481106116bc576116bc611b4c565b9060005260206000200154905092915050565b600081815260018301602052604081205480156117b85760006116f3600183611a69565b855490915060009061170790600190611a69565b905081811461176c57600086600001828154811061172757611727611b4c565b906000526020600020015490508087600001848154811061174a5761174a611b4c565b6000918252602080832090910192909255918252600188019052604090208390555b855486908061177d5761177d611b79565b600190038181906000526020600020016000905590558560010160008681526020019081526020016000206000905560019350505050610589565b6000915050610589565b6000602082840312156117d457600080fd5b81356001600160e01b0319811681146108e357600080fd5b60005b838110156118075781810151838201526020016117ef565b83811115610e275750506000910152565b60208152600082518060208401526118378160408501602087016117ec565b601f01601f19169190910160400192915050565b80356001600160a01b038116811461186257600080fd5b919050565b6000806040838503121561187a57600080fd5b6118838361184b565b946020939093013593505050565b6000806000606084860312156118a657600080fd5b6118af8461184b565b92506118bd6020850161184b565b9150604084013590509250925092565b6000602082840312156118df57600080fd5b5035919050565b600080604083850312156118f957600080fd5b823591506119096020840161184b565b90509250929050565b60006020828403121561192457600080fd5b6108e38261184b565b8035801515811461186257600080fd5b60008060006060848603121561195257600080fd5b61195b8461184b565b92506119696020850161192d565b91506119776040850161192d565b90509250925092565b6000806040838503121561199357600080fd5b50508035926020909101359150565b600080604083850312156119b557600080fd5b6119be8361184b565b91506119096020840161184b565b600181811c908216806119e057607f821691505b602082108103611a0057634e487b7160e01b600052602260045260246000fd5b50919050565b6020808252818101527f4f776e61626c653a2063616c6c6572206973206e6f7420746865206f776e6572604082015260600190565b634e487b7160e01b600052601160045260246000fd5b60008219821115611a6457611a64611a3b565b500190565b600082821015611a7b57611a7b611a3b565b500390565b7f416363657373436f6e74726f6c3a206163636f756e7420000000000000000000815260008351611ab88160178501602088016117ec565b7001034b99036b4b9b9b4b733903937b6329607d1b6017918401918201528351611ae98160288401602088016117ec565b01602801949350505050565b6000816000190483118215151615611b0f57611b0f611a3b565b500290565b600082611b3157634e487b7160e01b600052601260045260246000fd5b500490565b634e487b7160e01b600052604160045260246000fd5b634e487b7160e01b600052603260045260246000fd5b600081611b7157611b71611a3b565b506000190190565b634e487b7160e01b600052603160045260246000fdfea26469706673582212208c07753cef65e25fc61f05f734b08d9500ff824f6de0adeec0d63e93eef198d664736f6c634300080d0033",
					"opcodes": "PUSH1 0x80 PUSH1 0x40 MSTORE CALLVALUE DUP1 ISZERO PUSH3 0x11 JUMPI PUSH1 0x0 DUP1 REVERT JUMPDEST POP PUSH1 0x40 MLOAD PUSH3 0x23AC CODESIZE SUB DUP1 PUSH3 0x23AC DUP4 CODECOPY DUP2 ADD PUSH1 0x40 DUP2 SWAP1 MSTORE PUSH3 0x34 SWAP2 PUSH3 0x70A JUMP JUMPDEST DUP2 MLOAD DUP3 SWAP1 DUP3 SWAP1 PUSH3 0x4D SWAP1 PUSH1 0x5 SWAP1 PUSH1 0x20 DUP6 ADD SWAP1 PUSH3 0x597 JUMP JUMPDEST POP DUP1 MLOAD PUSH3 0x63 SWAP1 PUSH1 0x6 SWAP1 PUSH1 0x20 DUP5 ADD SWAP1 PUSH3 0x597 JUMP JUMPDEST POP POP PUSH1 0x7 DUP1 SLOAD PUSH1 0xFF NOT AND SWAP1 SSTORE POP PUSH3 0x7B CALLER PUSH3 0x143 JUMP JUMPDEST PUSH3 0x88 PUSH1 0x0 CALLER PUSH3 0x19D JUMP JUMPDEST PUSH3 0xB4 PUSH32 0x9F2DF0FED2C77648DE5860A4CC508CD0818C85B8B8A1AB4CEEEF8D981C8956A6 CALLER PUSH3 0x19D JUMP JUMPDEST PUSH3 0xE0 PUSH32 0x65D7A28E3265B37A6474929F336521B332C1681B933F6CB9F3376673440D862A CALLER PUSH3 0x19D JUMP JUMPDEST PUSH1 0x32 PUSH1 0x8 SSTORE PUSH3 0xFD PUSH1 0x7 SLOAD PUSH2 0x100 SWAP1 DIV PUSH1 0x1 PUSH1 0x1 PUSH1 0xA0 SHL SUB AND SWAP1 JUMP JUMPDEST PUSH1 0x9 DUP1 SLOAD PUSH1 0x1 PUSH1 0x1 PUSH1 0xA0 SHL SUB NOT AND PUSH1 0x1 PUSH1 0x1 PUSH1 0xA0 SHL SUB SWAP3 DUP4 AND OR SWAP1 SSTORE PUSH1 0x7 SLOAD PUSH3 0x13B SWAP2 PUSH2 0x100 SWAP1 SWAP2 DIV AND PUSH12 0x33B2E3C9FD0803CE8000000 PUSH3 0x1AD JUMP JUMPDEST POP POP PUSH3 0x7D7 JUMP JUMPDEST PUSH1 0x7 DUP1 SLOAD PUSH1 0x1 PUSH1 0x1 PUSH1 0xA0 SHL SUB DUP4 DUP2 AND PUSH2 0x100 DUP2 DUP2 MUL PUSH2 0x100 PUSH1 0x1 PUSH1 0xA8 SHL SUB NOT DUP6 AND OR SWAP1 SWAP5 SSTORE PUSH1 0x40 MLOAD SWAP4 SWAP1 SWAP3 DIV AND SWAP2 DUP3 SWAP1 PUSH32 0x8BE0079C531659141344CD1FD0A4F28419497F9722A3DAAFE3B4186F6B6457E0 SWAP1 PUSH1 0x0 SWAP1 LOG3 POP POP JUMP JUMPDEST PUSH3 0x1A9 DUP3 DUP3 PUSH3 0x2A4 JUMP JUMPDEST POP POP JUMP JUMPDEST PUSH1 0x1 PUSH1 0x1 PUSH1 0xA0 SHL SUB DUP3 AND PUSH3 0x209 JUMPI PUSH1 0x40 MLOAD PUSH3 0x461BCD PUSH1 0xE5 SHL DUP2 MSTORE PUSH1 0x20 PUSH1 0x4 DUP3 ADD MSTORE PUSH1 0x1F PUSH1 0x24 DUP3 ADD MSTORE PUSH32 0x45524332303A206D696E7420746F20746865207A65726F206164647265737300 PUSH1 0x44 DUP3 ADD MSTORE PUSH1 0x64 ADD JUMPDEST PUSH1 0x40 MLOAD DUP1 SWAP2 SUB SWAP1 REVERT JUMPDEST PUSH3 0x217 PUSH1 0x0 DUP4 DUP4 PUSH3 0x2E7 JUMP JUMPDEST DUP1 PUSH1 0x4 PUSH1 0x0 DUP3 DUP3 SLOAD PUSH3 0x22B SWAP2 SWAP1 PUSH3 0x774 JUMP JUMPDEST SWAP1 SWAP2 SSTORE POP POP PUSH1 0x1 PUSH1 0x1 PUSH1 0xA0 SHL SUB DUP3 AND PUSH1 0x0 SWAP1 DUP2 MSTORE PUSH1 0x2 PUSH1 0x20 MSTORE PUSH1 0x40 DUP2 KECCAK256 DUP1 SLOAD DUP4 SWAP3 SWAP1 PUSH3 0x25A SWAP1 DUP5 SWAP1 PUSH3 0x774 JUMP JUMPDEST SWAP1 SWAP2 SSTORE POP POP PUSH1 0x40 MLOAD DUP2 DUP2 MSTORE PUSH1 0x1 PUSH1 0x1 PUSH1 0xA0 SHL SUB DUP4 AND SWAP1 PUSH1 0x0 SWAP1 PUSH32 0xDDF252AD1BE2C89B69C2B068FC378DAA952BA7F163C4A11628F55A4DF523B3EF SWAP1 PUSH1 0x20 ADD PUSH1 0x40 MLOAD DUP1 SWAP2 SUB SWAP1 LOG3 POP POP JUMP JUMPDEST PUSH3 0x2BB DUP3 DUP3 PUSH3 0x405 PUSH1 0x20 SHL PUSH3 0xB43 OR PUSH1 0x20 SHR JUMP JUMPDEST PUSH1 0x0 DUP3 DUP2 MSTORE PUSH1 0x1 PUSH1 0x20 SWAP1 DUP2 MSTORE PUSH1 0x40 SWAP1 SWAP2 KECCAK256 PUSH3 0x2E2 SWAP2 DUP4 SWAP1 PUSH3 0xBC7 PUSH3 0x4A5 DUP3 SHL OR SWAP1 SHR JUMP JUMPDEST POP POP POP JUMP JUMPDEST PUSH1 0x1 PUSH1 0x1 PUSH1 0xA0 SHL SUB DUP4 AND PUSH1 0x0 SWAP1 DUP2 MSTORE PUSH1 0xA PUSH1 0x20 MSTORE PUSH1 0x40 SWAP1 KECCAK256 SLOAD PUSH1 0xFF AND ISZERO PUSH3 0x369 JUMPI PUSH1 0x40 MLOAD PUSH3 0x461BCD PUSH1 0xE5 SHL DUP2 MSTORE PUSH1 0x20 PUSH1 0x4 DUP3 ADD MSTORE PUSH1 0x2E PUSH1 0x24 DUP3 ADD MSTORE PUSH32 0x4865726F204177616B656E20546F6B656E3A207468652073656E646572206861 PUSH1 0x44 DUP3 ADD MSTORE PUSH14 0x1CC81899595B88189B1BD8DAD959 PUSH1 0x92 SHL PUSH1 0x64 DUP3 ADD MSTORE PUSH1 0x84 ADD PUSH3 0x200 JUMP JUMPDEST PUSH1 0x1 PUSH1 0x1 PUSH1 0xA0 SHL SUB DUP3 AND PUSH1 0x0 SWAP1 DUP2 MSTORE PUSH1 0xB PUSH1 0x20 MSTORE PUSH1 0x40 SWAP1 KECCAK256 SLOAD PUSH1 0xFF AND ISZERO PUSH3 0x3ED JUMPI PUSH1 0x40 MLOAD PUSH3 0x461BCD PUSH1 0xE5 SHL DUP2 MSTORE PUSH1 0x20 PUSH1 0x4 DUP3 ADD MSTORE PUSH1 0x30 PUSH1 0x24 DUP3 ADD MSTORE PUSH32 0x4865726F204177616B656E20546F6B656E3A2074686520726563656976657220 PUSH1 0x44 DUP3 ADD MSTORE PUSH16 0x1A185CC81899595B88189B1BD8DAD959 PUSH1 0x82 SHL PUSH1 0x64 DUP3 ADD MSTORE PUSH1 0x84 ADD PUSH3 0x200 JUMP JUMPDEST PUSH3 0x2E2 DUP4 DUP4 DUP4 PUSH3 0x4C5 PUSH1 0x20 SHL PUSH3 0xBDC OR PUSH1 0x20 SHR JUMP JUMPDEST PUSH1 0x0 DUP3 DUP2 MSTORE PUSH1 0x20 DUP2 DUP2 MSTORE PUSH1 0x40 DUP1 DUP4 KECCAK256 PUSH1 0x1 PUSH1 0x1 PUSH1 0xA0 SHL SUB DUP6 AND DUP5 MSTORE SWAP1 SWAP2 MSTORE SWAP1 KECCAK256 SLOAD PUSH1 0xFF AND PUSH3 0x1A9 JUMPI PUSH1 0x0 DUP3 DUP2 MSTORE PUSH1 0x20 DUP2 DUP2 MSTORE PUSH1 0x40 DUP1 DUP4 KECCAK256 PUSH1 0x1 PUSH1 0x1 PUSH1 0xA0 SHL SUB DUP6 AND DUP5 MSTORE SWAP1 SWAP2 MSTORE SWAP1 KECCAK256 DUP1 SLOAD PUSH1 0xFF NOT AND PUSH1 0x1 OR SWAP1 SSTORE PUSH3 0x461 CALLER SWAP1 JUMP JUMPDEST PUSH1 0x1 PUSH1 0x1 PUSH1 0xA0 SHL SUB AND DUP2 PUSH1 0x1 PUSH1 0x1 PUSH1 0xA0 SHL SUB AND DUP4 PUSH32 0x2F8788117E7EFF1D82E926EC794901D17C78024A50270940304540A733656F0D PUSH1 0x40 MLOAD PUSH1 0x40 MLOAD DUP1 SWAP2 SUB SWAP1 LOG4 POP POP JUMP JUMPDEST PUSH1 0x0 PUSH3 0x4BC DUP4 PUSH1 0x1 PUSH1 0x1 PUSH1 0xA0 SHL SUB DUP5 AND PUSH3 0x545 JUMP JUMPDEST SWAP1 POP JUMPDEST SWAP3 SWAP2 POP POP JUMP JUMPDEST PUSH3 0x4DD DUP4 DUP4 DUP4 PUSH3 0x2E2 PUSH1 0x20 SHL PUSH3 0x683 OR PUSH1 0x20 SHR JUMP JUMPDEST PUSH1 0x7 SLOAD PUSH1 0xFF AND ISZERO PUSH3 0x2E2 JUMPI PUSH1 0x40 MLOAD PUSH3 0x461BCD PUSH1 0xE5 SHL DUP2 MSTORE PUSH1 0x20 PUSH1 0x4 DUP3 ADD MSTORE PUSH1 0x2A PUSH1 0x24 DUP3 ADD MSTORE PUSH32 0x45524332305061757361626C653A20746F6B656E207472616E73666572207768 PUSH1 0x44 DUP3 ADD MSTORE PUSH10 0x1A5B19481C185D5CD959 PUSH1 0xB2 SHL PUSH1 0x64 DUP3 ADD MSTORE PUSH1 0x84 ADD PUSH3 0x200 JUMP JUMPDEST PUSH1 0x0 DUP2 DUP2 MSTORE PUSH1 0x1 DUP4 ADD PUSH1 0x20 MSTORE PUSH1 0x40 DUP2 KECCAK256 SLOAD PUSH3 0x58E JUMPI POP DUP2 SLOAD PUSH1 0x1 DUP2 DUP2 ADD DUP5 SSTORE PUSH1 0x0 DUP5 DUP2 MSTORE PUSH1 0x20 DUP1 DUP3 KECCAK256 SWAP1 SWAP4 ADD DUP5 SWAP1 SSTORE DUP5 SLOAD DUP5 DUP3 MSTORE DUP3 DUP7 ADD SWAP1 SWAP4 MSTORE PUSH1 0x40 SWAP1 KECCAK256 SWAP2 SWAP1 SWAP2 SSTORE PUSH3 0x4BF JUMP JUMPDEST POP PUSH1 0x0 PUSH3 0x4BF JUMP JUMPDEST DUP3 DUP1 SLOAD PUSH3 0x5A5 SWAP1 PUSH3 0x79B JUMP JUMPDEST SWAP1 PUSH1 0x0 MSTORE PUSH1 0x20 PUSH1 0x0 KECCAK256 SWAP1 PUSH1 0x1F ADD PUSH1 0x20 SWAP1 DIV DUP2 ADD SWAP3 DUP3 PUSH3 0x5C9 JUMPI PUSH1 0x0 DUP6 SSTORE PUSH3 0x614 JUMP JUMPDEST DUP3 PUSH1 0x1F LT PUSH3 0x5E4 JUMPI DUP1 MLOAD PUSH1 0xFF NOT AND DUP4 DUP1 ADD OR DUP6 SSTORE PUSH3 0x614 JUMP JUMPDEST DUP3 DUP1 ADD PUSH1 0x1 ADD DUP6 SSTORE DUP3 ISZERO PUSH3 0x614 JUMPI SWAP2 DUP3 ADD JUMPDEST DUP3 DUP2 GT ISZERO PUSH3 0x614 JUMPI DUP3 MLOAD DUP3 SSTORE SWAP2 PUSH1 0x20 ADD SWAP2 SWAP1 PUSH1 0x1 ADD SWAP1 PUSH3 0x5F7 JUMP JUMPDEST POP PUSH3 0x622 SWAP3 SWAP2 POP PUSH3 0x626 JUMP JUMPDEST POP SWAP1 JUMP JUMPDEST JUMPDEST DUP1 DUP3 GT ISZERO PUSH3 0x622 JUMPI PUSH1 0x0 DUP2 SSTORE PUSH1 0x1 ADD PUSH3 0x627 JUMP JUMPDEST PUSH4 0x4E487B71 PUSH1 0xE0 SHL PUSH1 0x0 MSTORE PUSH1 0x41 PUSH1 0x4 MSTORE PUSH1 0x24 PUSH1 0x0 REVERT JUMPDEST PUSH1 0x0 DUP3 PUSH1 0x1F DUP4 ADD SLT PUSH3 0x665 JUMPI PUSH1 0x0 DUP1 REVERT JUMPDEST DUP2 MLOAD PUSH1 0x1 PUSH1 0x1 PUSH1 0x40 SHL SUB DUP1 DUP3 GT ISZERO PUSH3 0x682 JUMPI PUSH3 0x682 PUSH3 0x63D JUMP JUMPDEST PUSH1 0x40 MLOAD PUSH1 0x1F DUP4 ADD PUSH1 0x1F NOT SWAP1 DUP2 AND PUSH1 0x3F ADD AND DUP2 ADD SWAP1 DUP3 DUP3 GT DUP2 DUP4 LT OR ISZERO PUSH3 0x6AD JUMPI PUSH3 0x6AD PUSH3 0x63D JUMP JUMPDEST DUP2 PUSH1 0x40 MSTORE DUP4 DUP2 MSTORE PUSH1 0x20 SWAP3 POP DUP7 DUP4 DUP6 DUP9 ADD ADD GT ISZERO PUSH3 0x6CA JUMPI PUSH1 0x0 DUP1 REVERT JUMPDEST PUSH1 0x0 SWAP2 POP JUMPDEST DUP4 DUP3 LT ISZERO PUSH3 0x6EE JUMPI DUP6 DUP3 ADD DUP4 ADD MLOAD DUP2 DUP4 ADD DUP5 ADD MSTORE SWAP1 DUP3 ADD SWAP1 PUSH3 0x6CF JUMP JUMPDEST DUP4 DUP3 GT ISZERO PUSH3 0x700 JUMPI PUSH1 0x0 DUP4 DUP6 DUP4 ADD ADD MSTORE JUMPDEST SWAP7 SWAP6 POP POP POP POP POP POP JUMP JUMPDEST PUSH1 0x0 DUP1 PUSH1 0x40 DUP4 DUP6 SUB SLT ISZERO PUSH3 0x71E JUMPI PUSH1 0x0 DUP1 REVERT JUMPDEST DUP3 MLOAD PUSH1 0x1 PUSH1 0x1 PUSH1 0x40 SHL SUB DUP1 DUP3 GT ISZERO PUSH3 0x736 JUMPI PUSH1 0x0 DUP1 REVERT JUMPDEST PUSH3 0x744 DUP7 DUP4 DUP8 ADD PUSH3 0x653 JUMP JUMPDEST SWAP4 POP PUSH1 0x20 DUP6 ADD MLOAD SWAP2 POP DUP1 DUP3 GT ISZERO PUSH3 0x75B JUMPI PUSH1 0x0 DUP1 REVERT JUMPDEST POP PUSH3 0x76A DUP6 DUP3 DUP7 ADD PUSH3 0x653 JUMP JUMPDEST SWAP2 POP POP SWAP3 POP SWAP3 SWAP1 POP JUMP JUMPDEST PUSH1 0x0 DUP3 NOT DUP3 GT ISZERO PUSH3 0x796 JUMPI PUSH4 0x4E487B71 PUSH1 0xE0 SHL PUSH1 0x0 MSTORE PUSH1 0x11 PUSH1 0x4 MSTORE PUSH1 0x24 PUSH1 0x0 REVERT JUMPDEST POP ADD SWAP1 JUMP JUMPDEST PUSH1 0x1 DUP2 DUP2 SHR SWAP1 DUP3 AND DUP1 PUSH3 0x7B0 JUMPI PUSH1 0x7F DUP3 AND SWAP2 POP JUMPDEST PUSH1 0x20 DUP3 LT DUP2 SUB PUSH3 0x7D1 JUMPI PUSH4 0x4E487B71 PUSH1 0xE0 SHL PUSH1 0x0 MSTORE PUSH1 0x22 PUSH1 0x4 MSTORE PUSH1 0x24 PUSH1 0x0 REVERT JUMPDEST POP SWAP2 SWAP1 POP JUMP JUMPDEST PUSH2 0x1BC5 DUP1 PUSH3 0x7E7 PUSH1 0x0 CODECOPY PUSH1 0x0 RETURN INVALID PUSH1 0x80 PUSH1 0x40 MSTORE CALLVALUE DUP1 ISZERO PUSH2 0x10 JUMPI PUSH1 0x0 DUP1 REVERT JUMPDEST POP PUSH1 0x4 CALLDATASIZE LT PUSH2 0x21C JUMPI PUSH1 0x0 CALLDATALOAD PUSH1 0xE0 SHR DUP1 PUSH4 0x8BEA9334 GT PUSH2 0x125 JUMPI DUP1 PUSH4 0xA9059CBB GT PUSH2 0xAD JUMPI DUP1 PUSH4 0xDD62ED3E GT PUSH2 0x7C JUMPI DUP1 PUSH4 0xDD62ED3E EQ PUSH2 0x48A JUMPI DUP1 PUSH4 0xE5962195 EQ PUSH2 0x4C3 JUMPI DUP1 PUSH4 0xE63AB1E9 EQ PUSH2 0x517 JUMPI DUP1 PUSH4 0xEEFB9BE2 EQ PUSH2 0x53E JUMPI DUP1 PUSH4 0xF2FDE38B EQ PUSH2 0x551 JUMPI PUSH1 0x0 DUP1 REVERT JUMPDEST DUP1 PUSH4 0xA9059CBB EQ PUSH2 0x42A JUMPI DUP1 PUSH4 0xCA15C873 EQ PUSH2 0x43D JUMPI DUP1 PUSH4 0xD5391393 EQ PUSH2 0x450 JUMPI DUP1 PUSH4 0xD547741F EQ PUSH2 0x477 JUMPI PUSH1 0x0 DUP1 REVERT JUMPDEST DUP1 PUSH4 0x95D89B41 GT PUSH2 0xF4 JUMPI DUP1 PUSH4 0x95D89B41 EQ PUSH2 0x3EC JUMPI DUP1 PUSH4 0x98118CB4 EQ PUSH2 0x3F4 JUMPI DUP1 PUSH4 0xA128471F EQ PUSH2 0x3FC JUMPI DUP1 PUSH4 0xA217FDDF EQ PUSH2 0x40F JUMPI DUP1 PUSH4 0xA457C2D7 EQ PUSH2 0x417 JUMPI PUSH1 0x0 DUP1 REVERT JUMPDEST DUP1 PUSH4 0x8BEA9334 EQ PUSH2 0x3B3 JUMPI DUP1 PUSH4 0x8DA5CB5B EQ PUSH2 0x39D JUMPI DUP1 PUSH4 0x9010D07C EQ PUSH2 0x3C6 JUMPI DUP1 PUSH4 0x91D14854 EQ PUSH2 0x3D9 JUMPI PUSH1 0x0 DUP1 REVERT JUMPDEST DUP1 PUSH4 0x36568ABE GT PUSH2 0x1A8 JUMPI DUP1 PUSH4 0x70A08231 GT PUSH2 0x177 JUMPI DUP1 PUSH4 0x70A08231 EQ PUSH2 0x334 JUMPI DUP1 PUSH4 0x715018A6 EQ PUSH2 0x35D JUMPI DUP1 PUSH4 0x79CC6790 EQ PUSH2 0x365 JUMPI DUP1 PUSH4 0x7F257C3E EQ PUSH2 0x378 JUMPI DUP1 PUSH4 0x893D20E8 EQ PUSH2 0x39D JUMPI PUSH1 0x0 DUP1 REVERT JUMPDEST DUP1 PUSH4 0x36568ABE EQ PUSH2 0x2F0 JUMPI DUP1 PUSH4 0x39509351 EQ PUSH2 0x303 JUMPI DUP1 PUSH4 0x42966C68 EQ PUSH2 0x316 JUMPI DUP1 PUSH4 0x5C975ABB EQ PUSH2 0x329 JUMPI PUSH1 0x0 DUP1 REVERT JUMPDEST DUP1 PUSH4 0x23B872DD GT PUSH2 0x1EF JUMPI DUP1 PUSH4 0x23B872DD EQ PUSH2 0x283 JUMPI DUP1 PUSH4 0x248A9CA3 EQ PUSH2 0x296 JUMPI DUP1 PUSH4 0x2F2FF15D EQ PUSH2 0x2B9 JUMPI DUP1 PUSH4 0x313CE567 EQ PUSH2 0x2CE JUMPI DUP1 PUSH4 0x357BF15C EQ PUSH2 0x2DD JUMPI PUSH1 0x0 DUP1 REVERT JUMPDEST DUP1 PUSH4 0x1FFC9A7 EQ PUSH2 0x221 JUMPI DUP1 PUSH4 0x6FDDE03 EQ PUSH2 0x249 JUMPI DUP1 PUSH4 0x95EA7B3 EQ PUSH2 0x25E JUMPI DUP1 PUSH4 0x18160DDD EQ PUSH2 0x271 JUMPI JUMPDEST PUSH1 0x0 DUP1 REVERT JUMPDEST PUSH2 0x234 PUSH2 0x22F CALLDATASIZE PUSH1 0x4 PUSH2 0x17C2 JUMP JUMPDEST PUSH2 0x564 JUMP JUMPDEST PUSH1 0x40 MLOAD SWAP1 ISZERO ISZERO DUP2 MSTORE PUSH1 0x20 ADD JUMPDEST PUSH1 0x40 MLOAD DUP1 SWAP2 SUB SWAP1 RETURN JUMPDEST PUSH2 0x251 PUSH2 0x58F JUMP JUMPDEST PUSH1 0x40 MLOAD PUSH2 0x240 SWAP2 SWAP1 PUSH2 0x1818 JUMP JUMPDEST PUSH2 0x234 PUSH2 0x26C CALLDATASIZE PUSH1 0x4 PUSH2 0x1867 JUMP JUMPDEST PUSH2 0x621 JUMP JUMPDEST PUSH1 0x4 SLOAD JUMPDEST PUSH1 0x40 MLOAD SWAP1 DUP2 MSTORE PUSH1 0x20 ADD PUSH2 0x240 JUMP JUMPDEST PUSH2 0x234 PUSH2 0x291 CALLDATASIZE PUSH1 0x4 PUSH2 0x1891 JUMP JUMPDEST PUSH2 0x639 JUMP JUMPDEST PUSH2 0x275 PUSH2 0x2A4 CALLDATASIZE PUSH1 0x4 PUSH2 0x18CD JUMP JUMPDEST PUSH1 0x0 SWAP1 DUP2 MSTORE PUSH1 0x20 DUP2 SWAP1 MSTORE PUSH1 0x40 SWAP1 KECCAK256 PUSH1 0x1 ADD SLOAD SWAP1 JUMP JUMPDEST PUSH2 0x2CC PUSH2 0x2C7 CALLDATASIZE PUSH1 0x4 PUSH2 0x18E6 JUMP JUMPDEST PUSH2 0x65D JUMP JUMPDEST STOP JUMPDEST PUSH1 0x40 MLOAD PUSH1 0x12 DUP2 MSTORE PUSH1 0x20 ADD PUSH2 0x240 JUMP JUMPDEST PUSH2 0x2CC PUSH2 0x2EB CALLDATASIZE PUSH1 0x4 PUSH2 0x18CD JUMP JUMPDEST PUSH2 0x688 JUMP JUMPDEST PUSH2 0x2CC PUSH2 0x2FE CALLDATASIZE PUSH1 0x4 PUSH2 0x18E6 JUMP JUMPDEST PUSH2 0x73E JUMP JUMPDEST PUSH2 0x234 PUSH2 0x311 CALLDATASIZE PUSH1 0x4 PUSH2 0x1867 JUMP JUMPDEST PUSH2 0x7BC JUMP JUMPDEST PUSH2 0x2CC PUSH2 0x324 CALLDATASIZE PUSH1 0x4 PUSH2 0x18CD JUMP JUMPDEST PUSH2 0x7FB JUMP JUMPDEST PUSH1 0x7 SLOAD PUSH1 0xFF AND PUSH2 0x234 JUMP JUMPDEST PUSH2 0x275 PUSH2 0x342 CALLDATASIZE PUSH1 0x4 PUSH2 0x1912 JUMP JUMPDEST PUSH1 0x1 PUSH1 0x1 PUSH1 0xA0 SHL SUB AND PUSH1 0x0 SWAP1 DUP2 MSTORE PUSH1 0x2 PUSH1 0x20 MSTORE PUSH1 0x40 SWAP1 KECCAK256 SLOAD SWAP1 JUMP JUMPDEST PUSH2 0x2CC PUSH2 0x808 JUMP JUMPDEST PUSH2 0x2CC PUSH2 0x373 CALLDATASIZE PUSH1 0x4 PUSH2 0x1867 JUMP JUMPDEST PUSH2 0x844 JUMP JUMPDEST PUSH1 0x9 SLOAD PUSH1 0x1 PUSH1 0x1 PUSH1 0xA0 SHL SUB AND JUMPDEST PUSH1 0x40 MLOAD PUSH1 0x1 PUSH1 0x1 PUSH1 0xA0 SHL SUB SWAP1 SWAP2 AND DUP2 MSTORE PUSH1 0x20 ADD PUSH2 0x240 JUMP JUMPDEST PUSH1 0x7 SLOAD PUSH2 0x100 SWAP1 DIV PUSH1 0x1 PUSH1 0x1 PUSH1 0xA0 SHL SUB AND PUSH2 0x385 JUMP JUMPDEST PUSH2 0x2CC PUSH2 0x3C1 CALLDATASIZE PUSH1 0x4 PUSH2 0x193D JUMP JUMPDEST PUSH2 0x859 JUMP JUMPDEST PUSH2 0x385 PUSH2 0x3D4 CALLDATASIZE PUSH1 0x4 PUSH2 0x1980 JUMP JUMPDEST PUSH2 0x8CB JUMP JUMPDEST PUSH2 0x234 PUSH2 0x3E7 CALLDATASIZE PUSH1 0x4 PUSH2 0x18E6 JUMP JUMPDEST PUSH2 0x8EA JUMP JUMPDEST PUSH2 0x251 PUSH2 0x913 JUMP JUMPDEST PUSH1 0x8 SLOAD PUSH2 0x275 JUMP JUMPDEST PUSH2 0x2CC PUSH2 0x40A CALLDATASIZE PUSH1 0x4 PUSH2 0x1912 JUMP JUMPDEST PUSH2 0x922 JUMP JUMPDEST PUSH2 0x275 PUSH1 0x0 DUP2 JUMP JUMPDEST PUSH2 0x234 PUSH2 0x425 CALLDATASIZE PUSH1 0x4 PUSH2 0x1867 JUMP JUMPDEST PUSH2 0x974 JUMP JUMPDEST PUSH2 0x234 PUSH2 0x438 CALLDATASIZE PUSH1 0x4 PUSH2 0x1867 JUMP JUMPDEST PUSH2 0xA06 JUMP JUMPDEST PUSH2 0x275 PUSH2 0x44B CALLDATASIZE PUSH1 0x4 PUSH2 0x18CD JUMP JUMPDEST PUSH2 0xA14 JUMP JUMPDEST PUSH2 0x275 PUSH32 0x9F2DF0FED2C77648DE5860A4CC508CD0818C85B8B8A1AB4CEEEF8D981C8956A6 DUP2 JUMP JUMPDEST PUSH2 0x2CC PUSH2 0x485 CALLDATASIZE PUSH1 0x4 PUSH2 0x18E6 JUMP JUMPDEST PUSH2 0xA2B JUMP JUMPDEST PUSH2 0x275 PUSH2 0x498 CALLDATASIZE PUSH1 0x4 PUSH2 0x19A2 JUMP JUMPDEST PUSH1 0x1 PUSH1 0x1 PUSH1 0xA0 SHL SUB SWAP2 DUP3 AND PUSH1 0x0 SWAP1 DUP2 MSTORE PUSH1 0x3 PUSH1 0x20 SWAP1 DUP2 MSTORE PUSH1 0x40 DUP1 DUP4 KECCAK256 SWAP4 SWAP1 SWAP5 AND DUP3 MSTORE SWAP2 SWAP1 SWAP2 MSTORE KECCAK256 SLOAD SWAP1 JUMP JUMPDEST PUSH2 0x500 PUSH2 0x4D1 CALLDATASIZE PUSH1 0x4 PUSH2 0x1912 JUMP JUMPDEST PUSH1 0x1 PUSH1 0x1 PUSH1 0xA0 SHL SUB AND PUSH1 0x0 SWAP1 DUP2 MSTORE PUSH1 0xA PUSH1 0x20 SWAP1 DUP2 MSTORE PUSH1 0x40 DUP1 DUP4 KECCAK256 SLOAD PUSH1 0xB SWAP1 SWAP3 MSTORE SWAP1 SWAP2 KECCAK256 SLOAD PUSH1 0xFF SWAP2 DUP3 AND SWAP3 SWAP2 AND SWAP1 JUMP JUMPDEST PUSH1 0x40 DUP1 MLOAD SWAP3 ISZERO ISZERO DUP4 MSTORE SWAP1 ISZERO ISZERO PUSH1 0x20 DUP4 ADD MSTORE ADD PUSH2 0x240 JUMP JUMPDEST PUSH2 0x275 PUSH32 0x65D7A28E3265B37A6474929F336521B332C1681B933F6CB9F3376673440D862A DUP2 JUMP JUMPDEST PUSH2 0x2CC PUSH2 0x54C CALLDATASIZE PUSH1 0x4 PUSH2 0x1912 JUMP JUMPDEST PUSH2 0xA51 JUMP JUMPDEST PUSH2 0x2CC PUSH2 0x55F CALLDATASIZE PUSH1 0x4 PUSH2 0x1912 JUMP JUMPDEST PUSH2 0xAA5 JUMP JUMPDEST PUSH1 0x0 PUSH1 0x1 PUSH1 0x1 PUSH1 0xE0 SHL SUB NOT DUP3 AND PUSH4 0x5A05180F PUSH1 0xE0 SHL EQ DUP1 PUSH2 0x589 JUMPI POP PUSH2 0x589 DUP3 PUSH2 0xC42 JUMP JUMPDEST SWAP3 SWAP2 POP POP JUMP JUMPDEST PUSH1 0x60 PUSH1 0x5 DUP1 SLOAD PUSH2 0x59E SWAP1 PUSH2 0x19CC JUMP JUMPDEST DUP1 PUSH1 0x1F ADD PUSH1 0x20 DUP1 SWAP2 DIV MUL PUSH1 0x20 ADD PUSH1 0x40 MLOAD SWAP1 DUP2 ADD PUSH1 0x40 MSTORE DUP1 SWAP3 SWAP2 SWAP1 DUP2 DUP2 MSTORE PUSH1 0x20 ADD DUP3 DUP1 SLOAD PUSH2 0x5CA SWAP1 PUSH2 0x19CC JUMP JUMPDEST DUP1 ISZERO PUSH2 0x617 JUMPI DUP1 PUSH1 0x1F LT PUSH2 0x5EC JUMPI PUSH2 0x100 DUP1 DUP4 SLOAD DIV MUL DUP4 MSTORE SWAP2 PUSH1 0x20 ADD SWAP2 PUSH2 0x617 JUMP JUMPDEST DUP3 ADD SWAP2 SWAP1 PUSH1 0x0 MSTORE PUSH1 0x20 PUSH1 0x0 KECCAK256 SWAP1 JUMPDEST DUP2 SLOAD DUP2 MSTORE SWAP1 PUSH1 0x1 ADD SWAP1 PUSH1 0x20 ADD DUP1 DUP4 GT PUSH2 0x5FA JUMPI DUP3 SWAP1 SUB PUSH1 0x1F AND DUP3 ADD SWAP2 JUMPDEST POP POP POP POP POP SWAP1 POP SWAP1 JUMP JUMPDEST PUSH1 0x0 CALLER PUSH2 0x62F DUP2 DUP6 DUP6 PUSH2 0xC77 JUMP JUMPDEST POP PUSH1 0x1 SWAP4 SWAP3 POP POP POP JUMP JUMPDEST PUSH1 0x0 CALLER PUSH2 0x647 DUP6 DUP3 DUP6 PUSH2 0xD9B JUMP JUMPDEST PUSH2 0x652 DUP6 DUP6 DUP6 PUSH2 0xE2D JUMP JUMPDEST POP PUSH1 0x1 SWAP5 SWAP4 POP POP POP POP JUMP JUMPDEST PUSH1 0x0 DUP3 DUP2 MSTORE PUSH1 0x20 DUP2 SWAP1 MSTORE PUSH1 0x40 SWAP1 KECCAK256 PUSH1 0x1 ADD SLOAD PUSH2 0x679 DUP2 CALLER PUSH2 0xED0 JUMP JUMPDEST PUSH2 0x683 DUP4 DUP4 PUSH2 0xF34 JUMP JUMPDEST POP POP POP JUMP JUMPDEST PUSH1 0x7 SLOAD PUSH1 0x1 PUSH1 0x1 PUSH1 0xA0 SHL SUB PUSH2 0x100 SWAP1 SWAP2 DIV AND CALLER EQ PUSH2 0x6C1 JUMPI PUSH1 0x40 MLOAD PUSH3 0x461BCD PUSH1 0xE5 SHL DUP2 MSTORE PUSH1 0x4 ADD PUSH2 0x6B8 SWAP1 PUSH2 0x1A06 JUMP JUMPDEST PUSH1 0x40 MLOAD DUP1 SWAP2 SUB SWAP1 REVERT JUMPDEST PUSH2 0x3E8 DUP2 GT ISZERO PUSH2 0x739 JUMPI PUSH1 0x40 MLOAD PUSH3 0x461BCD PUSH1 0xE5 SHL DUP2 MSTORE PUSH1 0x20 PUSH1 0x4 DUP3 ADD MSTORE PUSH1 0x38 PUSH1 0x24 DUP3 ADD MSTORE PUSH32 0x4865726F204177616B656E20546F6B656E3A206C697175696469747920666565 PUSH1 0x44 DUP3 ADD MSTORE PUSH32 0x206D757374206265747765656E203020616E6420313030300000000000000000 PUSH1 0x64 DUP3 ADD MSTORE PUSH1 0x84 ADD PUSH2 0x6B8 JUMP JUMPDEST PUSH1 0x8 SSTORE JUMP JUMPDEST PUSH1 0x1 PUSH1 0x1 PUSH1 0xA0 SHL SUB DUP2 AND CALLER EQ PUSH2 0x7AE JUMPI PUSH1 0x40 MLOAD PUSH3 0x461BCD PUSH1 0xE5 SHL DUP2 MSTORE PUSH1 0x20 PUSH1 0x4 DUP3 ADD MSTORE PUSH1 0x2F PUSH1 0x24 DUP3 ADD MSTORE PUSH32 0x416363657373436F6E74726F6C3A2063616E206F6E6C792072656E6F756E6365 PUSH1 0x44 DUP3 ADD MSTORE PUSH15 0x103937B632B9903337B91039B2B633 PUSH1 0x89 SHL PUSH1 0x64 DUP3 ADD MSTORE PUSH1 0x84 ADD PUSH2 0x6B8 JUMP JUMPDEST PUSH2 0x7B8 DUP3 DUP3 PUSH2 0xF56 JUMP JUMPDEST POP POP JUMP JUMPDEST CALLER PUSH1 0x0 DUP2 DUP2 MSTORE PUSH1 0x3 PUSH1 0x20 SWAP1 DUP2 MSTORE PUSH1 0x40 DUP1 DUP4 KECCAK256 PUSH1 0x1 PUSH1 0x1 PUSH1 0xA0 SHL SUB DUP8 AND DUP5 MSTORE SWAP1 SWAP2 MSTORE DUP2 KECCAK256 SLOAD SWAP1 SWAP2 SWAP1 PUSH2 0x62F SWAP1 DUP3 SWAP1 DUP7 SWAP1 PUSH2 0x7F6 SWAP1 DUP8 SWAP1 PUSH2 0x1A51 JUMP JUMPDEST PUSH2 0xC77 JUMP JUMPDEST PUSH2 0x805 CALLER DUP3 PUSH2 0xF78 JUMP JUMPDEST POP JUMP JUMPDEST PUSH1 0x7 SLOAD PUSH1 0x1 PUSH1 0x1 PUSH1 0xA0 SHL SUB PUSH2 0x100 SWAP1 SWAP2 DIV AND CALLER EQ PUSH2 0x838 JUMPI PUSH1 0x40 MLOAD PUSH3 0x461BCD PUSH1 0xE5 SHL DUP2 MSTORE PUSH1 0x4 ADD PUSH2 0x6B8 SWAP1 PUSH2 0x1A06 JUMP JUMPDEST PUSH2 0x842 PUSH1 0x0 PUSH2 0x10D2 JUMP JUMPDEST JUMP JUMPDEST PUSH2 0x84F DUP3 CALLER DUP4 PUSH2 0xD9B JUMP JUMPDEST PUSH2 0x7B8 DUP3 DUP3 PUSH2 0xF78 JUMP JUMPDEST PUSH1 0x7 SLOAD PUSH1 0x1 PUSH1 0x1 PUSH1 0xA0 SHL SUB PUSH2 0x100 SWAP1 SWAP2 DIV AND CALLER EQ PUSH2 0x889 JUMPI PUSH1 0x40 MLOAD PUSH3 0x461BCD PUSH1 0xE5 SHL DUP2 MSTORE PUSH1 0x4 ADD PUSH2 0x6B8 SWAP1 PUSH2 0x1A06 JUMP JUMPDEST PUSH1 0x1 PUSH1 0x1 PUSH1 0xA0 SHL SUB SWAP1 SWAP3 AND PUSH1 0x0 SWAP1 DUP2 MSTORE PUSH1 0xA PUSH1 0x20 SWAP1 DUP2 MSTORE PUSH1 0x40 DUP1 DUP4 KECCAK256 DUP1 SLOAD SWAP5 ISZERO ISZERO PUSH1 0xFF NOT SWAP6 DUP7 AND OR SWAP1 SSTORE PUSH1 0xB SWAP1 SWAP2 MSTORE SWAP1 KECCAK256 DUP1 SLOAD SWAP3 ISZERO ISZERO SWAP3 SWAP1 SWAP2 AND SWAP2 SWAP1 SWAP2 OR SWAP1 SSTORE JUMP JUMPDEST PUSH1 0x0 DUP3 DUP2 MSTORE PUSH1 0x1 PUSH1 0x20 MSTORE PUSH1 0x40 DUP2 KECCAK256 PUSH2 0x8E3 SWAP1 DUP4 PUSH2 0x112C JUMP JUMPDEST SWAP4 SWAP3 POP POP POP JUMP JUMPDEST PUSH1 0x0 SWAP2 DUP3 MSTORE PUSH1 0x20 DUP3 DUP2 MSTORE PUSH1 0x40 DUP1 DUP5 KECCAK256 PUSH1 0x1 PUSH1 0x1 PUSH1 0xA0 SHL SUB SWAP4 SWAP1 SWAP4 AND DUP5 MSTORE SWAP2 SWAP1 MSTORE SWAP1 KECCAK256 SLOAD PUSH1 0xFF AND SWAP1 JUMP JUMPDEST PUSH1 0x60 PUSH1 0x6 DUP1 SLOAD PUSH2 0x59E SWAP1 PUSH2 0x19CC JUMP JUMPDEST PUSH1 0x7 SLOAD PUSH1 0x1 PUSH1 0x1 PUSH1 0xA0 SHL SUB PUSH2 0x100 SWAP1 SWAP2 DIV AND CALLER EQ PUSH2 0x952 JUMPI PUSH1 0x40 MLOAD PUSH3 0x461BCD PUSH1 0xE5 SHL DUP2 MSTORE PUSH1 0x4 ADD PUSH2 0x6B8 SWAP1 PUSH2 0x1A06 JUMP JUMPDEST PUSH1 0x9 DUP1 SLOAD PUSH1 0x1 PUSH1 0x1 PUSH1 0xA0 SHL SUB NOT AND PUSH1 0x1 PUSH1 0x1 PUSH1 0xA0 SHL SUB SWAP3 SWAP1 SWAP3 AND SWAP2 SWAP1 SWAP2 OR SWAP1 SSTORE JUMP JUMPDEST CALLER PUSH1 0x0 DUP2 DUP2 MSTORE PUSH1 0x3 PUSH1 0x20 SWAP1 DUP2 MSTORE PUSH1 0x40 DUP1 DUP4 KECCAK256 PUSH1 0x1 PUSH1 0x1 PUSH1 0xA0 SHL SUB DUP8 AND DUP5 MSTORE SWAP1 SWAP2 MSTORE DUP2 KECCAK256 SLOAD SWAP1 SWAP2 SWAP1 DUP4 DUP2 LT ISZERO PUSH2 0x9F9 JUMPI PUSH1 0x40 MLOAD PUSH3 0x461BCD PUSH1 0xE5 SHL DUP2 MSTORE PUSH1 0x20 PUSH1 0x4 DUP3 ADD MSTORE PUSH1 0x25 PUSH1 0x24 DUP3 ADD MSTORE PUSH32 0x45524332303A2064656372656173656420616C6C6F77616E63652062656C6F77 PUSH1 0x44 DUP3 ADD MSTORE PUSH5 0x207A65726F PUSH1 0xD8 SHL PUSH1 0x64 DUP3 ADD MSTORE PUSH1 0x84 ADD PUSH2 0x6B8 JUMP JUMPDEST PUSH2 0x652 DUP3 DUP7 DUP7 DUP5 SUB PUSH2 0xC77 JUMP JUMPDEST PUSH1 0x0 CALLER PUSH2 0x62F DUP2 DUP6 DUP6 PUSH2 0xE2D JUMP JUMPDEST PUSH1 0x0 DUP2 DUP2 MSTORE PUSH1 0x1 PUSH1 0x20 MSTORE PUSH1 0x40 DUP2 KECCAK256 PUSH2 0x589 SWAP1 PUSH2 0x1138 JUMP JUMPDEST PUSH1 0x0 DUP3 DUP2 MSTORE PUSH1 0x20 DUP2 SWAP1 MSTORE PUSH1 0x40 SWAP1 KECCAK256 PUSH1 0x1 ADD SLOAD PUSH2 0xA47 DUP2 CALLER PUSH2 0xED0 JUMP JUMPDEST PUSH2 0x683 DUP4 DUP4 PUSH2 0xF56 JUMP JUMPDEST PUSH1 0x7 SLOAD PUSH1 0x1 PUSH1 0x1 PUSH1 0xA0 SHL SUB PUSH2 0x100 SWAP1 SWAP2 DIV AND CALLER EQ PUSH2 0xA81 JUMPI PUSH1 0x40 MLOAD PUSH3 0x461BCD PUSH1 0xE5 SHL DUP2 MSTORE PUSH1 0x4 ADD PUSH2 0x6B8 SWAP1 PUSH2 0x1A06 JUMP JUMPDEST PUSH1 0x1 PUSH1 0x1 PUSH1 0xA0 SHL SUB AND PUSH1 0x0 SWAP1 DUP2 MSTORE PUSH1 0xC PUSH1 0x20 MSTORE PUSH1 0x40 SWAP1 KECCAK256 DUP1 SLOAD PUSH1 0xFF NOT AND PUSH1 0x1 OR SWAP1 SSTORE JUMP JUMPDEST PUSH1 0x7 SLOAD PUSH1 0x1 PUSH1 0x1 PUSH1 0xA0 SHL SUB PUSH2 0x100 SWAP1 SWAP2 DIV AND CALLER EQ PUSH2 0xAD5 JUMPI PUSH1 0x40 MLOAD PUSH3 0x461BCD PUSH1 0xE5 SHL DUP2 MSTORE PUSH1 0x4 ADD PUSH2 0x6B8 SWAP1 PUSH2 0x1A06 JUMP JUMPDEST PUSH1 0x1 PUSH1 0x1 PUSH1 0xA0 SHL SUB DUP2 AND PUSH2 0xB3A JUMPI PUSH1 0x40 MLOAD PUSH3 0x461BCD PUSH1 0xE5 SHL DUP2 MSTORE PUSH1 0x20 PUSH1 0x4 DUP3 ADD MSTORE PUSH1 0x26 PUSH1 0x24 DUP3 ADD MSTORE PUSH32 0x4F776E61626C653A206E6577206F776E657220697320746865207A65726F2061 PUSH1 0x44 DUP3 ADD MSTORE PUSH6 0x646472657373 PUSH1 0xD0 SHL PUSH1 0x64 DUP3 ADD MSTORE PUSH1 0x84 ADD PUSH2 0x6B8 JUMP JUMPDEST PUSH2 0x805 DUP2 PUSH2 0x10D2 JUMP JUMPDEST PUSH2 0xB4D DUP3 DUP3 PUSH2 0x8EA JUMP JUMPDEST PUSH2 0x7B8 JUMPI PUSH1 0x0 DUP3 DUP2 MSTORE PUSH1 0x20 DUP2 DUP2 MSTORE PUSH1 0x40 DUP1 DUP4 KECCAK256 PUSH1 0x1 PUSH1 0x1 PUSH1 0xA0 SHL SUB DUP6 AND DUP5 MSTORE SWAP1 SWAP2 MSTORE SWAP1 KECCAK256 DUP1 SLOAD PUSH1 0xFF NOT AND PUSH1 0x1 OR SWAP1 SSTORE PUSH2 0xB83 CALLER SWAP1 JUMP JUMPDEST PUSH1 0x1 PUSH1 0x1 PUSH1 0xA0 SHL SUB AND DUP2 PUSH1 0x1 PUSH1 0x1 PUSH1 0xA0 SHL SUB AND DUP4 PUSH32 0x2F8788117E7EFF1D82E926EC794901D17C78024A50270940304540A733656F0D PUSH1 0x40 MLOAD PUSH1 0x40 MLOAD DUP1 SWAP2 SUB SWAP1 LOG4 POP POP JUMP JUMPDEST PUSH1 0x0 PUSH2 0x8E3 DUP4 PUSH1 0x1 PUSH1 0x1 PUSH1 0xA0 SHL SUB DUP5 AND PUSH2 0x1142 JUMP JUMPDEST PUSH1 0x7 SLOAD PUSH1 0xFF AND ISZERO PUSH2 0x683 JUMPI PUSH1 0x40 MLOAD PUSH3 0x461BCD PUSH1 0xE5 SHL DUP2 MSTORE PUSH1 0x20 PUSH1 0x4 DUP3 ADD MSTORE PUSH1 0x2A PUSH1 0x24 DUP3 ADD MSTORE PUSH32 0x45524332305061757361626C653A20746F6B656E207472616E73666572207768 PUSH1 0x44 DUP3 ADD MSTORE PUSH10 0x1A5B19481C185D5CD959 PUSH1 0xB2 SHL PUSH1 0x64 DUP3 ADD MSTORE PUSH1 0x84 ADD PUSH2 0x6B8 JUMP JUMPDEST PUSH1 0x0 PUSH1 0x1 PUSH1 0x1 PUSH1 0xE0 SHL SUB NOT DUP3 AND PUSH4 0x7965DB0B PUSH1 0xE0 SHL EQ DUP1 PUSH2 0x589 JUMPI POP PUSH4 0x1FFC9A7 PUSH1 0xE0 SHL PUSH1 0x1 PUSH1 0x1 PUSH1 0xE0 SHL SUB NOT DUP4 AND EQ PUSH2 0x589 JUMP JUMPDEST PUSH1 0x1 PUSH1 0x1 PUSH1 0xA0 SHL SUB DUP4 AND PUSH2 0xCD9 JUMPI PUSH1 0x40 MLOAD PUSH3 0x461BCD PUSH1 0xE5 SHL DUP2 MSTORE PUSH1 0x20 PUSH1 0x4 DUP3 ADD MSTORE PUSH1 0x24 DUP1 DUP3 ADD MSTORE PUSH32 0x45524332303A20617070726F76652066726F6D20746865207A65726F20616464 PUSH1 0x44 DUP3 ADD MSTORE PUSH4 0x72657373 PUSH1 0xE0 SHL PUSH1 0x64 DUP3 ADD MSTORE PUSH1 0x84 ADD PUSH2 0x6B8 JUMP JUMPDEST PUSH1 0x1 PUSH1 0x1 PUSH1 0xA0 SHL SUB DUP3 AND PUSH2 0xD3A JUMPI PUSH1 0x40 MLOAD PUSH3 0x461BCD PUSH1 0xE5 SHL DUP2 MSTORE PUSH1 0x20 PUSH1 0x4 DUP3 ADD MSTORE PUSH1 0x22 PUSH1 0x24 DUP3 ADD MSTORE PUSH32 0x45524332303A20617070726F766520746F20746865207A65726F206164647265 PUSH1 0x44 DUP3 ADD MSTORE PUSH2 0x7373 PUSH1 0xF0 SHL PUSH1 0x64 DUP3 ADD MSTORE PUSH1 0x84 ADD PUSH2 0x6B8 JUMP JUMPDEST PUSH1 0x1 PUSH1 0x1 PUSH1 0xA0 SHL SUB DUP4 DUP2 AND PUSH1 0x0 DUP2 DUP2 MSTORE PUSH1 0x3 PUSH1 0x20 SWAP1 DUP2 MSTORE PUSH1 0x40 DUP1 DUP4 KECCAK256 SWAP5 DUP8 AND DUP1 DUP5 MSTORE SWAP5 DUP3 MSTORE SWAP2 DUP3 SWAP1 KECCAK256 DUP6 SWAP1 SSTORE SWAP1 MLOAD DUP5 DUP2 MSTORE PUSH32 0x8C5BE1E5EBEC7D5BD14F71427D1E84F3DD0314C0F7B2291E5B200AC8C7C3B925 SWAP2 ADD PUSH1 0x40 MLOAD DUP1 SWAP2 SUB SWAP1 LOG3 POP POP POP JUMP JUMPDEST PUSH1 0x1 PUSH1 0x1 PUSH1 0xA0 SHL SUB DUP4 DUP2 AND PUSH1 0x0 SWAP1 DUP2 MSTORE PUSH1 0x3 PUSH1 0x20 SWAP1 DUP2 MSTORE PUSH1 0x40 DUP1 DUP4 KECCAK256 SWAP4 DUP7 AND DUP4 MSTORE SWAP3 SWAP1 MSTORE KECCAK256 SLOAD PUSH1 0x0 NOT DUP2 EQ PUSH2 0xE27 JUMPI DUP2 DUP2 LT ISZERO PUSH2 0xE1A JUMPI PUSH1 0x40 MLOAD PUSH3 0x461BCD PUSH1 0xE5 SHL DUP2 MSTORE PUSH1 0x20 PUSH1 0x4 DUP3 ADD MSTORE PUSH1 0x1D PUSH1 0x24 DUP3 ADD MSTORE PUSH32 0x45524332303A20696E73756666696369656E7420616C6C6F77616E6365000000 PUSH1 0x44 DUP3 ADD MSTORE PUSH1 0x64 ADD PUSH2 0x6B8 JUMP JUMPDEST PUSH2 0xE27 DUP5 DUP5 DUP5 DUP5 SUB PUSH2 0xC77 JUMP JUMPDEST POP POP POP POP JUMP JUMPDEST PUSH1 0x1 PUSH1 0x1 PUSH1 0xA0 SHL SUB DUP4 AND PUSH1 0x0 SWAP1 DUP2 MSTORE PUSH1 0xC PUSH1 0x20 MSTORE PUSH1 0x40 SWAP1 KECCAK256 SLOAD PUSH1 0xFF AND DUP1 PUSH2 0xE6C JUMPI POP PUSH1 0x1 PUSH1 0x1 PUSH1 0xA0 SHL SUB DUP3 AND PUSH1 0x0 SWAP1 DUP2 MSTORE PUSH1 0xC PUSH1 0x20 MSTORE PUSH1 0x40 SWAP1 KECCAK256 SLOAD PUSH1 0xFF AND JUMPDEST ISZERO PUSH2 0xE7C JUMPI PUSH2 0xE7C DUP4 DUP4 DUP4 PUSH2 0x1191 JUMP JUMPDEST PUSH1 0x0 PUSH2 0xE9F PUSH2 0x3E8 PUSH2 0xE99 PUSH1 0x8 SLOAD DUP6 PUSH2 0x136A SWAP1 SWAP2 SWAP1 PUSH4 0xFFFFFFFF AND JUMP JUMPDEST SWAP1 PUSH2 0x1376 JUMP JUMPDEST SWAP1 POP PUSH2 0xEAB DUP2 DUP4 PUSH2 0x1A69 JUMP JUMPDEST SWAP2 POP PUSH2 0xEB8 DUP5 DUP5 DUP5 PUSH2 0x1191 JUMP JUMPDEST PUSH1 0x9 SLOAD PUSH2 0xE27 SWAP1 DUP6 SWAP1 PUSH1 0x1 PUSH1 0x1 PUSH1 0xA0 SHL SUB AND DUP4 PUSH2 0x1191 JUMP JUMPDEST PUSH2 0xEDA DUP3 DUP3 PUSH2 0x8EA JUMP JUMPDEST PUSH2 0x7B8 JUMPI PUSH2 0xEF2 DUP2 PUSH1 0x1 PUSH1 0x1 PUSH1 0xA0 SHL SUB AND PUSH1 0x14 PUSH2 0x1382 JUMP JUMPDEST PUSH2 0xEFD DUP4 PUSH1 0x20 PUSH2 0x1382 JUMP JUMPDEST PUSH1 0x40 MLOAD PUSH1 0x20 ADD PUSH2 0xF0E SWAP3 SWAP2 SWAP1 PUSH2 0x1A80 JUMP JUMPDEST PUSH1 0x40 DUP1 MLOAD PUSH1 0x1F NOT DUP2 DUP5 SUB ADD DUP2 MSTORE SWAP1 DUP3 SWAP1 MSTORE PUSH3 0x461BCD PUSH1 0xE5 SHL DUP3 MSTORE PUSH2 0x6B8 SWAP2 PUSH1 0x4 ADD PUSH2 0x1818 JUMP JUMPDEST PUSH2 0xF3E DUP3 DUP3 PUSH2 0xB43 JUMP JUMPDEST PUSH1 0x0 DUP3 DUP2 MSTORE PUSH1 0x1 PUSH1 0x20 MSTORE PUSH1 0x40 SWAP1 KECCAK256 PUSH2 0x683 SWAP1 DUP3 PUSH2 0xBC7 JUMP JUMPDEST PUSH2 0xF60 DUP3 DUP3 PUSH2 0x151E JUMP JUMPDEST PUSH1 0x0 DUP3 DUP2 MSTORE PUSH1 0x1 PUSH1 0x20 MSTORE PUSH1 0x40 SWAP1 KECCAK256 PUSH2 0x683 SWAP1 DUP3 PUSH2 0x1583 JUMP JUMPDEST PUSH1 0x1 PUSH1 0x1 PUSH1 0xA0 SHL SUB DUP3 AND PUSH2 0xFD8 JUMPI PUSH1 0x40 MLOAD PUSH3 0x461BCD PUSH1 0xE5 SHL DUP2 MSTORE PUSH1 0x20 PUSH1 0x4 DUP3 ADD MSTORE PUSH1 0x21 PUSH1 0x24 DUP3 ADD MSTORE PUSH32 0x45524332303A206275726E2066726F6D20746865207A65726F20616464726573 PUSH1 0x44 DUP3 ADD MSTORE PUSH1 0x73 PUSH1 0xF8 SHL PUSH1 0x64 DUP3 ADD MSTORE PUSH1 0x84 ADD PUSH2 0x6B8 JUMP JUMPDEST PUSH2 0xFE4 DUP3 PUSH1 0x0 DUP4 PUSH2 0x1598 JUMP JUMPDEST PUSH1 0x1 PUSH1 0x1 PUSH1 0xA0 SHL SUB DUP3 AND PUSH1 0x0 SWAP1 DUP2 MSTORE PUSH1 0x2 PUSH1 0x20 MSTORE PUSH1 0x40 SWAP1 KECCAK256 SLOAD DUP2 DUP2 LT ISZERO PUSH2 0x1058 JUMPI PUSH1 0x40 MLOAD PUSH3 0x461BCD PUSH1 0xE5 SHL DUP2 MSTORE PUSH1 0x20 PUSH1 0x4 DUP3 ADD MSTORE PUSH1 0x22 PUSH1 0x24 DUP3 ADD MSTORE PUSH32 0x45524332303A206275726E20616D6F756E7420657863656564732062616C616E PUSH1 0x44 DUP3 ADD MSTORE PUSH2 0x6365 PUSH1 0xF0 SHL PUSH1 0x64 DUP3 ADD MSTORE PUSH1 0x84 ADD PUSH2 0x6B8 JUMP JUMPDEST PUSH1 0x1 PUSH1 0x1 PUSH1 0xA0 SHL SUB DUP4 AND PUSH1 0x0 SWAP1 DUP2 MSTORE PUSH1 0x2 PUSH1 0x20 MSTORE PUSH1 0x40 DUP2 KECCAK256 DUP4 DUP4 SUB SWAP1 SSTORE PUSH1 0x4 DUP1 SLOAD DUP5 SWAP3 SWAP1 PUSH2 0x1087 SWAP1 DUP5 SWAP1 PUSH2 0x1A69 JUMP JUMPDEST SWAP1 SWAP2 SSTORE POP POP PUSH1 0x40 MLOAD DUP3 DUP2 MSTORE PUSH1 0x0 SWAP1 PUSH1 0x1 PUSH1 0x1 PUSH1 0xA0 SHL SUB DUP6 AND SWAP1 PUSH32 0xDDF252AD1BE2C89B69C2B068FC378DAA952BA7F163C4A11628F55A4DF523B3EF SWAP1 PUSH1 0x20 ADD PUSH1 0x40 MLOAD DUP1 SWAP2 SUB SWAP1 LOG3 POP POP POP JUMP JUMPDEST PUSH1 0x7 DUP1 SLOAD PUSH1 0x1 PUSH1 0x1 PUSH1 0xA0 SHL SUB DUP4 DUP2 AND PUSH2 0x100 DUP2 DUP2 MUL PUSH2 0x100 PUSH1 0x1 PUSH1 0xA8 SHL SUB NOT DUP6 AND OR SWAP1 SWAP5 SSTORE PUSH1 0x40 MLOAD SWAP4 SWAP1 SWAP3 DIV AND SWAP2 DUP3 SWAP1 PUSH32 0x8BE0079C531659141344CD1FD0A4F28419497F9722A3DAAFE3B4186F6B6457E0 SWAP1 PUSH1 0x0 SWAP1 LOG3 POP POP JUMP JUMPDEST PUSH1 0x0 PUSH2 0x8E3 DUP4 DUP4 PUSH2 0x16A5 JUMP JUMPDEST PUSH1 0x0 PUSH2 0x589 DUP3 SLOAD SWAP1 JUMP JUMPDEST PUSH1 0x0 DUP2 DUP2 MSTORE PUSH1 0x1 DUP4 ADD PUSH1 0x20 MSTORE PUSH1 0x40 DUP2 KECCAK256 SLOAD PUSH2 0x1189 JUMPI POP DUP2 SLOAD PUSH1 0x1 DUP2 DUP2 ADD DUP5 SSTORE PUSH1 0x0 DUP5 DUP2 MSTORE PUSH1 0x20 DUP1 DUP3 KECCAK256 SWAP1 SWAP4 ADD DUP5 SWAP1 SSTORE DUP5 SLOAD DUP5 DUP3 MSTORE DUP3 DUP7 ADD SWAP1 SWAP4 MSTORE PUSH1 0x40 SWAP1 KECCAK256 SWAP2 SWAP1 SWAP2 SSTORE PUSH2 0x589 JUMP JUMPDEST POP PUSH1 0x0 PUSH2 0x589 JUMP JUMPDEST PUSH1 0x1 PUSH1 0x1 PUSH1 0xA0 SHL SUB DUP4 AND PUSH2 0x11F5 JUMPI PUSH1 0x40 MLOAD PUSH3 0x461BCD PUSH1 0xE5 SHL DUP2 MSTORE PUSH1 0x20 PUSH1 0x4 DUP3 ADD MSTORE PUSH1 0x25 PUSH1 0x24 DUP3 ADD MSTORE PUSH32 0x45524332303A207472616E736665722066726F6D20746865207A65726F206164 PUSH1 0x44 DUP3 ADD MSTORE PUSH5 0x6472657373 PUSH1 0xD8 SHL PUSH1 0x64 DUP3 ADD MSTORE PUSH1 0x84 ADD PUSH2 0x6B8 JUMP JUMPDEST PUSH1 0x1 PUSH1 0x1 PUSH1 0xA0 SHL SUB DUP3 AND PUSH2 0x1257 JUMPI PUSH1 0x40 MLOAD PUSH3 0x461BCD PUSH1 0xE5 SHL DUP2 MSTORE PUSH1 0x20 PUSH1 0x4 DUP3 ADD MSTORE PUSH1 0x23 PUSH1 0x24 DUP3 ADD MSTORE PUSH32 0x45524332303A207472616E7366657220746F20746865207A65726F2061646472 PUSH1 0x44 DUP3 ADD MSTORE PUSH3 0x657373 PUSH1 0xE8 SHL PUSH1 0x64 DUP3 ADD MSTORE PUSH1 0x84 ADD PUSH2 0x6B8 JUMP JUMPDEST PUSH2 0x1262 DUP4 DUP4 DUP4 PUSH2 0x1598 JUMP JUMPDEST PUSH1 0x1 PUSH1 0x1 PUSH1 0xA0 SHL SUB DUP4 AND PUSH1 0x0 SWAP1 DUP2 MSTORE PUSH1 0x2 PUSH1 0x20 MSTORE PUSH1 0x40 SWAP1 KECCAK256 SLOAD DUP2 DUP2 LT ISZERO PUSH2 0x12DA JUMPI PUSH1 0x40 MLOAD PUSH3 0x461BCD PUSH1 0xE5 SHL DUP2 MSTORE PUSH1 0x20 PUSH1 0x4 DUP3 ADD MSTORE PUSH1 0x26 PUSH1 0x24 DUP3 ADD MSTORE PUSH32 0x45524332303A207472616E7366657220616D6F756E7420657863656564732062 PUSH1 0x44 DUP3 ADD MSTORE PUSH6 0x616C616E6365 PUSH1 0xD0 SHL PUSH1 0x64 DUP3 ADD MSTORE PUSH1 0x84 ADD PUSH2 0x6B8 JUMP JUMPDEST PUSH1 0x1 PUSH1 0x1 PUSH1 0xA0 SHL SUB DUP1 DUP6 AND PUSH1 0x0 SWAP1 DUP2 MSTORE PUSH1 0x2 PUSH1 0x20 MSTORE PUSH1 0x40 DUP1 DUP3 KECCAK256 DUP6 DUP6 SUB SWAP1 SSTORE SWAP2 DUP6 AND DUP2 MSTORE SWAP1 DUP2 KECCAK256 DUP1 SLOAD DUP5 SWAP3 SWAP1 PUSH2 0x1311 SWAP1 DUP5 SWAP1 PUSH2 0x1A51 JUMP JUMPDEST SWAP3 POP POP DUP2 SWAP1 SSTORE POP DUP3 PUSH1 0x1 PUSH1 0x1 PUSH1 0xA0 SHL SUB AND DUP5 PUSH1 0x1 PUSH1 0x1 PUSH1 0xA0 SHL SUB AND PUSH32 0xDDF252AD1BE2C89B69C2B068FC378DAA952BA7F163C4A11628F55A4DF523B3EF DUP5 PUSH1 0x40 MLOAD PUSH2 0x135D SWAP2 DUP2 MSTORE PUSH1 0x20 ADD SWAP1 JUMP JUMPDEST PUSH1 0x40 MLOAD DUP1 SWAP2 SUB SWAP1 LOG3 PUSH2 0xE27 JUMP JUMPDEST PUSH1 0x0 PUSH2 0x8E3 DUP3 DUP5 PUSH2 0x1AF5 JUMP JUMPDEST PUSH1 0x0 PUSH2 0x8E3 DUP3 DUP5 PUSH2 0x1B14 JUMP JUMPDEST PUSH1 0x60 PUSH1 0x0 PUSH2 0x1391 DUP4 PUSH1 0x2 PUSH2 0x1AF5 JUMP JUMPDEST PUSH2 0x139C SWAP1 PUSH1 0x2 PUSH2 0x1A51 JUMP JUMPDEST PUSH8 0xFFFFFFFFFFFFFFFF DUP2 GT ISZERO PUSH2 0x13B4 JUMPI PUSH2 0x13B4 PUSH2 0x1B36 JUMP JUMPDEST PUSH1 0x40 MLOAD SWAP1 DUP1 DUP3 MSTORE DUP1 PUSH1 0x1F ADD PUSH1 0x1F NOT AND PUSH1 0x20 ADD DUP3 ADD PUSH1 0x40 MSTORE DUP1 ISZERO PUSH2 0x13DE JUMPI PUSH1 0x20 DUP3 ADD DUP2 DUP1 CALLDATASIZE DUP4 CALLDATACOPY ADD SWAP1 POP JUMPDEST POP SWAP1 POP PUSH1 0x3 PUSH1 0xFC SHL DUP2 PUSH1 0x0 DUP2 MLOAD DUP2 LT PUSH2 0x13F9 JUMPI PUSH2 0x13F9 PUSH2 0x1B4C JUMP JUMPDEST PUSH1 0x20 ADD ADD SWAP1 PUSH1 0x1 PUSH1 0x1 PUSH1 0xF8 SHL SUB NOT AND SWAP1 DUP2 PUSH1 0x0 BYTE SWAP1 MSTORE8 POP PUSH1 0xF PUSH1 0xFB SHL DUP2 PUSH1 0x1 DUP2 MLOAD DUP2 LT PUSH2 0x1428 JUMPI PUSH2 0x1428 PUSH2 0x1B4C JUMP JUMPDEST PUSH1 0x20 ADD ADD SWAP1 PUSH1 0x1 PUSH1 0x1 PUSH1 0xF8 SHL SUB NOT AND SWAP1 DUP2 PUSH1 0x0 BYTE SWAP1 MSTORE8 POP PUSH1 0x0 PUSH2 0x144C DUP5 PUSH1 0x2 PUSH2 0x1AF5 JUMP JUMPDEST PUSH2 0x1457 SWAP1 PUSH1 0x1 PUSH2 0x1A51 JUMP JUMPDEST SWAP1 POP JUMPDEST PUSH1 0x1 DUP2 GT ISZERO PUSH2 0x14CF JUMPI PUSH16 0x181899199A1A9B1B9C1CB0B131B232B3 PUSH1 0x81 SHL DUP6 PUSH1 0xF AND PUSH1 0x10 DUP2 LT PUSH2 0x148B JUMPI PUSH2 0x148B PUSH2 0x1B4C JUMP JUMPDEST BYTE PUSH1 0xF8 SHL DUP3 DUP3 DUP2 MLOAD DUP2 LT PUSH2 0x14A1 JUMPI PUSH2 0x14A1 PUSH2 0x1B4C JUMP JUMPDEST PUSH1 0x20 ADD ADD SWAP1 PUSH1 0x1 PUSH1 0x1 PUSH1 0xF8 SHL SUB NOT AND SWAP1 DUP2 PUSH1 0x0 BYTE SWAP1 MSTORE8 POP PUSH1 0x4 SWAP5 SWAP1 SWAP5 SHR SWAP4 PUSH2 0x14C8 DUP2 PUSH2 0x1B62 JUMP JUMPDEST SWAP1 POP PUSH2 0x145A JUMP JUMPDEST POP DUP4 ISZERO PUSH2 0x8E3 JUMPI PUSH1 0x40 MLOAD PUSH3 0x461BCD PUSH1 0xE5 SHL DUP2 MSTORE PUSH1 0x20 PUSH1 0x4 DUP3 ADD DUP2 SWAP1 MSTORE PUSH1 0x24 DUP3 ADD MSTORE PUSH32 0x537472696E67733A20686578206C656E67746820696E73756666696369656E74 PUSH1 0x44 DUP3 ADD MSTORE PUSH1 0x64 ADD PUSH2 0x6B8 JUMP JUMPDEST PUSH2 0x1528 DUP3 DUP3 PUSH2 0x8EA JUMP JUMPDEST ISZERO PUSH2 0x7B8 JUMPI PUSH1 0x0 DUP3 DUP2 MSTORE PUSH1 0x20 DUP2 DUP2 MSTORE PUSH1 0x40 DUP1 DUP4 KECCAK256 PUSH1 0x1 PUSH1 0x1 PUSH1 0xA0 SHL SUB DUP6 AND DUP1 DUP6 MSTORE SWAP3 MSTORE DUP1 DUP4 KECCAK256 DUP1 SLOAD PUSH1 0xFF NOT AND SWAP1 SSTORE MLOAD CALLER SWAP3 DUP6 SWAP2 PUSH32 0xF6391F5C32D9C69D2A47EA670B442974B53935D1EDC7FD64EB21E047A839171B SWAP2 SWAP1 LOG4 POP POP JUMP JUMPDEST PUSH1 0x0 PUSH2 0x8E3 DUP4 PUSH1 0x1 PUSH1 0x1 PUSH1 0xA0 SHL SUB DUP5 AND PUSH2 0x16CF JUMP JUMPDEST PUSH1 0x1 PUSH1 0x1 PUSH1 0xA0 SHL SUB DUP4 AND PUSH1 0x0 SWAP1 DUP2 MSTORE PUSH1 0xA PUSH1 0x20 MSTORE PUSH1 0x40 SWAP1 KECCAK256 SLOAD PUSH1 0xFF AND ISZERO PUSH2 0x1618 JUMPI PUSH1 0x40 MLOAD PUSH3 0x461BCD PUSH1 0xE5 SHL DUP2 MSTORE PUSH1 0x20 PUSH1 0x4 DUP3 ADD MSTORE PUSH1 0x2E PUSH1 0x24 DUP3 ADD MSTORE PUSH32 0x4865726F204177616B656E20546F6B656E3A207468652073656E646572206861 PUSH1 0x44 DUP3 ADD MSTORE PUSH14 0x1CC81899595B88189B1BD8DAD959 PUSH1 0x92 SHL PUSH1 0x64 DUP3 ADD MSTORE PUSH1 0x84 ADD PUSH2 0x6B8 JUMP JUMPDEST PUSH1 0x1 PUSH1 0x1 PUSH1 0xA0 SHL SUB DUP3 AND PUSH1 0x0 SWAP1 DUP2 MSTORE PUSH1 0xB PUSH1 0x20 MSTORE PUSH1 0x40 SWAP1 KECCAK256 SLOAD PUSH1 0xFF AND ISZERO PUSH2 0x169A JUMPI PUSH1 0x40 MLOAD PUSH3 0x461BCD PUSH1 0xE5 SHL DUP2 MSTORE PUSH1 0x20 PUSH1 0x4 DUP3 ADD MSTORE PUSH1 0x30 PUSH1 0x24 DUP3 ADD MSTORE PUSH32 0x4865726F204177616B656E20546F6B656E3A2074686520726563656976657220 PUSH1 0x44 DUP3 ADD MSTORE PUSH16 0x1A185CC81899595B88189B1BD8DAD959 PUSH1 0x82 SHL PUSH1 0x64 DUP3 ADD MSTORE PUSH1 0x84 ADD PUSH2 0x6B8 JUMP JUMPDEST PUSH2 0x683 DUP4 DUP4 DUP4 PUSH2 0xBDC JUMP JUMPDEST PUSH1 0x0 DUP3 PUSH1 0x0 ADD DUP3 DUP2 SLOAD DUP2 LT PUSH2 0x16BC JUMPI PUSH2 0x16BC PUSH2 0x1B4C JUMP JUMPDEST SWAP1 PUSH1 0x0 MSTORE PUSH1 0x20 PUSH1 0x0 KECCAK256 ADD SLOAD SWAP1 POP SWAP3 SWAP2 POP POP JUMP JUMPDEST PUSH1 0x0 DUP2 DUP2 MSTORE PUSH1 0x1 DUP4 ADD PUSH1 0x20 MSTORE PUSH1 0x40 DUP2 KECCAK256 SLOAD DUP1 ISZERO PUSH2 0x17B8 JUMPI PUSH1 0x0 PUSH2 0x16F3 PUSH1 0x1 DUP4 PUSH2 0x1A69 JUMP JUMPDEST DUP6 SLOAD SWAP1 SWAP2 POP PUSH1 0x0 SWAP1 PUSH2 0x1707 SWAP1 PUSH1 0x1 SWAP1 PUSH2 0x1A69 JUMP JUMPDEST SWAP1 POP DUP2 DUP2 EQ PUSH2 0x176C JUMPI PUSH1 0x0 DUP7 PUSH1 0x0 ADD DUP3 DUP2 SLOAD DUP2 LT PUSH2 0x1727 JUMPI PUSH2 0x1727 PUSH2 0x1B4C JUMP JUMPDEST SWAP1 PUSH1 0x0 MSTORE PUSH1 0x20 PUSH1 0x0 KECCAK256 ADD SLOAD SWAP1 POP DUP1 DUP8 PUSH1 0x0 ADD DUP5 DUP2 SLOAD DUP2 LT PUSH2 0x174A JUMPI PUSH2 0x174A PUSH2 0x1B4C JUMP JUMPDEST PUSH1 0x0 SWAP2 DUP3 MSTORE PUSH1 0x20 DUP1 DUP4 KECCAK256 SWAP1 SWAP2 ADD SWAP3 SWAP1 SWAP3 SSTORE SWAP2 DUP3 MSTORE PUSH1 0x1 DUP9 ADD SWAP1 MSTORE PUSH1 0x40 SWAP1 KECCAK256 DUP4 SWAP1 SSTORE JUMPDEST DUP6 SLOAD DUP7 SWAP1 DUP1 PUSH2 0x177D JUMPI PUSH2 0x177D PUSH2 0x1B79 JUMP JUMPDEST PUSH1 0x1 SWAP1 SUB DUP2 DUP2 SWAP1 PUSH1 0x0 MSTORE PUSH1 0x20 PUSH1 0x0 KECCAK256 ADD PUSH1 0x0 SWAP1 SSTORE SWAP1 SSTORE DUP6 PUSH1 0x1 ADD PUSH1 0x0 DUP7 DUP2 MSTORE PUSH1 0x20 ADD SWAP1 DUP2 MSTORE PUSH1 0x20 ADD PUSH1 0x0 KECCAK256 PUSH1 0x0 SWAP1 SSTORE PUSH1 0x1 SWAP4 POP POP POP POP PUSH2 0x589 JUMP JUMPDEST PUSH1 0x0 SWAP2 POP POP PUSH2 0x589 JUMP JUMPDEST PUSH1 0x0 PUSH1 0x20 DUP3 DUP5 SUB SLT ISZERO PUSH2 0x17D4 JUMPI PUSH1 0x0 DUP1 REVERT JUMPDEST DUP2 CALLDATALOAD PUSH1 0x1 PUSH1 0x1 PUSH1 0xE0 SHL SUB NOT DUP2 AND DUP2 EQ PUSH2 0x8E3 JUMPI PUSH1 0x0 DUP1 REVERT JUMPDEST PUSH1 0x0 JUMPDEST DUP4 DUP2 LT ISZERO PUSH2 0x1807 JUMPI DUP2 DUP2 ADD MLOAD DUP4 DUP3 ADD MSTORE PUSH1 0x20 ADD PUSH2 0x17EF JUMP JUMPDEST DUP4 DUP2 GT ISZERO PUSH2 0xE27 JUMPI POP POP PUSH1 0x0 SWAP2 ADD MSTORE JUMP JUMPDEST PUSH1 0x20 DUP2 MSTORE PUSH1 0x0 DUP3 MLOAD DUP1 PUSH1 0x20 DUP5 ADD MSTORE PUSH2 0x1837 DUP2 PUSH1 0x40 DUP6 ADD PUSH1 0x20 DUP8 ADD PUSH2 0x17EC JUMP JUMPDEST PUSH1 0x1F ADD PUSH1 0x1F NOT AND SWAP2 SWAP1 SWAP2 ADD PUSH1 0x40 ADD SWAP3 SWAP2 POP POP JUMP JUMPDEST DUP1 CALLDATALOAD PUSH1 0x1 PUSH1 0x1 PUSH1 0xA0 SHL SUB DUP2 AND DUP2 EQ PUSH2 0x1862 JUMPI PUSH1 0x0 DUP1 REVERT JUMPDEST SWAP2 SWAP1 POP JUMP JUMPDEST PUSH1 0x0 DUP1 PUSH1 0x40 DUP4 DUP6 SUB SLT ISZERO PUSH2 0x187A JUMPI PUSH1 0x0 DUP1 REVERT JUMPDEST PUSH2 0x1883 DUP4 PUSH2 0x184B JUMP JUMPDEST SWAP5 PUSH1 0x20 SWAP4 SWAP1 SWAP4 ADD CALLDATALOAD SWAP4 POP POP POP JUMP JUMPDEST PUSH1 0x0 DUP1 PUSH1 0x0 PUSH1 0x60 DUP5 DUP7 SUB SLT ISZERO PUSH2 0x18A6 JUMPI PUSH1 0x0 DUP1 REVERT JUMPDEST PUSH2 0x18AF DUP5 PUSH2 0x184B JUMP JUMPDEST SWAP3 POP PUSH2 0x18BD PUSH1 0x20 DUP6 ADD PUSH2 0x184B JUMP JUMPDEST SWAP2 POP PUSH1 0x40 DUP5 ADD CALLDATALOAD SWAP1 POP SWAP3 POP SWAP3 POP SWAP3 JUMP JUMPDEST PUSH1 0x0 PUSH1 0x20 DUP3 DUP5 SUB SLT ISZERO PUSH2 0x18DF JUMPI PUSH1 0x0 DUP1 REVERT JUMPDEST POP CALLDATALOAD SWAP2 SWAP1 POP JUMP JUMPDEST PUSH1 0x0 DUP1 PUSH1 0x40 DUP4 DUP6 SUB SLT ISZERO PUSH2 0x18F9 JUMPI PUSH1 0x0 DUP1 REVERT JUMPDEST DUP3 CALLDATALOAD SWAP2 POP PUSH2 0x1909 PUSH1 0x20 DUP5 ADD PUSH2 0x184B JUMP JUMPDEST SWAP1 POP SWAP3 POP SWAP3 SWAP1 POP JUMP JUMPDEST PUSH1 0x0 PUSH1 0x20 DUP3 DUP5 SUB SLT ISZERO PUSH2 0x1924 JUMPI PUSH1 0x0 DUP1 REVERT JUMPDEST PUSH2 0x8E3 DUP3 PUSH2 0x184B JUMP JUMPDEST DUP1 CALLDATALOAD DUP1 ISZERO ISZERO DUP2 EQ PUSH2 0x1862 JUMPI PUSH1 0x0 DUP1 REVERT JUMPDEST PUSH1 0x0 DUP1 PUSH1 0x0 PUSH1 0x60 DUP5 DUP7 SUB SLT ISZERO PUSH2 0x1952 JUMPI PUSH1 0x0 DUP1 REVERT JUMPDEST PUSH2 0x195B DUP5 PUSH2 0x184B JUMP JUMPDEST SWAP3 POP PUSH2 0x1969 PUSH1 0x20 DUP6 ADD PUSH2 0x192D JUMP JUMPDEST SWAP2 POP PUSH2 0x1977 PUSH1 0x40 DUP6 ADD PUSH2 0x192D JUMP JUMPDEST SWAP1 POP SWAP3 POP SWAP3 POP SWAP3 JUMP JUMPDEST PUSH1 0x0 DUP1 PUSH1 0x40 DUP4 DUP6 SUB SLT ISZERO PUSH2 0x1993 JUMPI PUSH1 0x0 DUP1 REVERT JUMPDEST POP POP DUP1 CALLDATALOAD SWAP3 PUSH1 0x20 SWAP1 SWAP2 ADD CALLDATALOAD SWAP2 POP JUMP JUMPDEST PUSH1 0x0 DUP1 PUSH1 0x40 DUP4 DUP6 SUB SLT ISZERO PUSH2 0x19B5 JUMPI PUSH1 0x0 DUP1 REVERT JUMPDEST PUSH2 0x19BE DUP4 PUSH2 0x184B JUMP JUMPDEST SWAP2 POP PUSH2 0x1909 PUSH1 0x20 DUP5 ADD PUSH2 0x184B JUMP JUMPDEST PUSH1 0x1 DUP2 DUP2 SHR SWAP1 DUP3 AND DUP1 PUSH2 0x19E0 JUMPI PUSH1 0x7F DUP3 AND SWAP2 POP JUMPDEST PUSH1 0x20 DUP3 LT DUP2 SUB PUSH2 0x1A00 JUMPI PUSH4 0x4E487B71 PUSH1 0xE0 SHL PUSH1 0x0 MSTORE PUSH1 0x22 PUSH1 0x4 MSTORE PUSH1 0x24 PUSH1 0x0 REVERT JUMPDEST POP SWAP2 SWAP1 POP JUMP JUMPDEST PUSH1 0x20 DUP1 DUP3 MSTORE DUP2 DUP2 ADD MSTORE PUSH32 0x4F776E61626C653A2063616C6C6572206973206E6F7420746865206F776E6572 PUSH1 0x40 DUP3 ADD MSTORE PUSH1 0x60 ADD SWAP1 JUMP JUMPDEST PUSH4 0x4E487B71 PUSH1 0xE0 SHL PUSH1 0x0 MSTORE PUSH1 0x11 PUSH1 0x4 MSTORE PUSH1 0x24 PUSH1 0x0 REVERT JUMPDEST PUSH1 0x0 DUP3 NOT DUP3 GT ISZERO PUSH2 0x1A64 JUMPI PUSH2 0x1A64 PUSH2 0x1A3B JUMP JUMPDEST POP ADD SWAP1 JUMP JUMPDEST PUSH1 0x0 DUP3 DUP3 LT ISZERO PUSH2 0x1A7B JUMPI PUSH2 0x1A7B PUSH2 0x1A3B JUMP JUMPDEST POP SUB SWAP1 JUMP JUMPDEST PUSH32 0x416363657373436F6E74726F6C3A206163636F756E7420000000000000000000 DUP2 MSTORE PUSH1 0x0 DUP4 MLOAD PUSH2 0x1AB8 DUP2 PUSH1 0x17 DUP6 ADD PUSH1 0x20 DUP9 ADD PUSH2 0x17EC JUMP JUMPDEST PUSH17 0x1034B99036B4B9B9B4B733903937B6329 PUSH1 0x7D SHL PUSH1 0x17 SWAP2 DUP5 ADD SWAP2 DUP3 ADD MSTORE DUP4 MLOAD PUSH2 0x1AE9 DUP2 PUSH1 0x28 DUP5 ADD PUSH1 0x20 DUP9 ADD PUSH2 0x17EC JUMP JUMPDEST ADD PUSH1 0x28 ADD SWAP5 SWAP4 POP POP POP POP JUMP JUMPDEST PUSH1 0x0 DUP2 PUSH1 0x0 NOT DIV DUP4 GT DUP3 ISZERO ISZERO AND ISZERO PUSH2 0x1B0F JUMPI PUSH2 0x1B0F PUSH2 0x1A3B JUMP JUMPDEST POP MUL SWAP1 JUMP JUMPDEST PUSH1 0x0 DUP3 PUSH2 0x1B31 JUMPI PUSH4 0x4E487B71 PUSH1 0xE0 SHL PUSH1 0x0 MSTORE PUSH1 0x12 PUSH1 0x4 MSTORE PUSH1 0x24 PUSH1 0x0 REVERT JUMPDEST POP DIV SWAP1 JUMP JUMPDEST PUSH4 0x4E487B71 PUSH1 0xE0 SHL PUSH1 0x0 MSTORE PUSH1 0x41 PUSH1 0x4 MSTORE PUSH1 0x24 PUSH1 0x0 REVERT JUMPDEST PUSH4 0x4E487B71 PUSH1 0xE0 SHL PUSH1 0x0 MSTORE PUSH1 0x32 PUSH1 0x4 MSTORE PUSH1 0x24 PUSH1 0x0 REVERT JUMPDEST PUSH1 0x0 DUP2 PUSH2 0x1B71 JUMPI PUSH2 0x1B71 PUSH2 0x1A3B JUMP JUMPDEST POP PUSH1 0x0 NOT ADD SWAP1 JUMP JUMPDEST PUSH4 0x4E487B71 PUSH1 0xE0 SHL PUSH1 0x0 MSTORE PUSH1 0x31 PUSH1 0x4 MSTORE PUSH1 0x24 PUSH1 0x0 REVERT INVALID LOG2 PUSH5 0x6970667358 0x22 SLT KECCAK256 DUP13 SMOD PUSH22 0x3CEF65E25FC61F05F734B08D9500FF824F6DE0ADEEC0 0xD6 RETURNDATACOPY SWAP4 0xEE CALL SWAP9 0xD6 PUSH5 0x736F6C6343 STOP ADDMOD 0xD STOP CALLER "
				},
				"gasEstimates": {
					"creation": {
						"codeDepositCost": "1421800",
						"executionCost": "infinite",
						"totalCost": "infinite"
					},
					"external": {
						"DEFAULT_ADMIN_ROLE()": "306",
						"MINTER_ROLE()": "284",
						"PAUSER_ROLE()": "283",
						"addLiquidityFree(address)": "26874",
						"allowance(address,address)": "infinite",
						"approve(address,uint256)": "24681",
						"balanceOf(address)": "2582",
						"blockUser(address,bool,bool)": "infinite",
						"blocked(address)": "4823",
						"burn(uint256)": "infinite",
						"burnFrom(address,uint256)": "infinite",
						"decimals()": "289",
						"decreaseAllowance(address,uint256)": "27022",
						"getOwner()": "2475",
						"getRoleAdmin(bytes32)": "2515",
						"getRoleMember(bytes32,uint256)": "infinite",
						"getRoleMemberCount(bytes32)": "infinite",
						"grantRole(bytes32,address)": "infinite",
						"hasRole(bytes32,address)": "2763",
						"increaseAllowance(address,uint256)": "27002",
						"liquidityFee()": "2359",
						"liquidityKeeper()": "2431",
						"name()": "infinite",
						"owner()": "2410",
						"paused()": "2405",
						"renounceOwnership()": "28217",
						"renounceRole(bytes32,address)": "infinite",
						"revokeRole(bytes32,address)": "infinite",
						"setLiquidityFee(uint256)": "24638",
						"setLiquidityKeeper(address)": "26814",
						"supportsInterface(bytes4)": "infinite",
						"symbol()": "infinite",
						"totalSupply()": "2394",
						"transfer(address,uint256)": "infinite",
						"transferFrom(address,address,uint256)": "infinite",
						"transferOwnership(address)": "28477"
					},
					"internal": {
						"_beforeTokenTransfer(address,address,uint256)": "infinite",
						"_transfer(address,address,uint256)": "infinite"
					}
				},
				"methodIdentifiers": {
					"DEFAULT_ADMIN_ROLE()": "a217fddf",
					"MINTER_ROLE()": "d5391393",
					"PAUSER_ROLE()": "e63ab1e9",
					"addLiquidityFree(address)": "eefb9be2",
					"allowance(address,address)": "dd62ed3e",
					"approve(address,uint256)": "095ea7b3",
					"balanceOf(address)": "70a08231",
					"blockUser(address,bool,bool)": "8bea9334",
					"blocked(address)": "e5962195",
					"burn(uint256)": "42966c68",
					"burnFrom(address,uint256)": "79cc6790",
					"decimals()": "313ce567",
					"decreaseAllowance(address,uint256)": "a457c2d7",
					"getOwner()": "893d20e8",
					"getRoleAdmin(bytes32)": "248a9ca3",
					"getRoleMember(bytes32,uint256)": "9010d07c",
					"getRoleMemberCount(bytes32)": "ca15c873",
					"grantRole(bytes32,address)": "2f2ff15d",
					"hasRole(bytes32,address)": "91d14854",
					"increaseAllowance(address,uint256)": "39509351",
					"liquidityFee()": "98118cb4",
					"liquidityKeeper()": "7f257c3e",
					"name()": "06fdde03",
					"owner()": "8da5cb5b",
					"paused()": "5c975abb",
					"renounceOwnership()": "715018a6",
					"renounceRole(bytes32,address)": "36568abe",
					"revokeRole(bytes32,address)": "d547741f",
					"setLiquidityFee(uint256)": "357bf15c",
					"setLiquidityKeeper(address)": "a128471f",
					"supportsInterface(bytes4)": "01ffc9a7",
					"symbol()": "95d89b41",
					"totalSupply()": "18160ddd",
					"transfer(address,uint256)": "a9059cbb",
					"transferFrom(address,address,uint256)": "23b872dd",
					"transferOwnership(address)": "f2fde38b"
				}
			},
			"userdoc": {
				"kind": "user",
				"methods": {},
				"version": 1
			}
		}
	}
}