{
	"contracts/HatTokenV2.sol": {
		"HatTokenV2": {
			"abi": [
				{
					"inputs": [
						{
							"internalType": "string",
							"name": "name",
							"type": "string"
						},
						{
							"internalType": "string",
							"name": "symbol",
							"type": "string"
						}
					],
					"stateMutability": "nonpayable",
					"type": "constructor"
				},
				{
					"anonymous": false,
					"inputs": [
						{
							"indexed": true,
							"internalType": "address",
							"name": "owner",
							"type": "address"
						},
						{
							"indexed": true,
							"internalType": "address",
							"name": "spender",
							"type": "address"
						},
						{
							"indexed": false,
							"internalType": "uint256",
							"name": "value",
							"type": "uint256"
						}
					],
					"name": "Approval",
					"type": "event"
				},
				{
					"anonymous": false,
					"inputs": [
						{
							"indexed": true,
							"internalType": "address",
							"name": "previousOwner",
							"type": "address"
						},
						{
							"indexed": true,
							"internalType": "address",
							"name": "newOwner",
							"type": "address"
						}
					],
					"name": "OwnershipTransferred",
					"type": "event"
				},
				{
					"anonymous": false,
					"inputs": [
						{
							"indexed": true,
							"internalType": "address",
							"name": "from",
							"type": "address"
						},
						{
							"indexed": true,
							"internalType": "address",
							"name": "to",
							"type": "address"
						},
						{
							"indexed": false,
							"internalType": "uint256",
							"name": "value",
							"type": "uint256"
						}
					],
					"name": "Transfer",
					"type": "event"
				},
				{
					"inputs": [
						{
							"internalType": "address",
							"name": "owner",
							"type": "address"
						},
						{
							"internalType": "address",
							"name": "spender",
							"type": "address"
						}
					],
					"name": "allowance",
					"outputs": [
						{
							"internalType": "uint256",
							"name": "",
							"type": "uint256"
						}
					],
					"stateMutability": "view",
					"type": "function"
				},
				{
					"inputs": [
						{
							"internalType": "address",
							"name": "spender",
							"type": "address"
						},
						{
							"internalType": "uint256",
							"name": "amount",
							"type": "uint256"
						}
					],
					"name": "approve",
					"outputs": [
						{
							"internalType": "bool",
							"name": "",
							"type": "bool"
						}
					],
					"stateMutability": "nonpayable",
					"type": "function"
				},
				{
					"inputs": [
						{
							"internalType": "address",
							"name": "account",
							"type": "address"
						}
					],
					"name": "balanceOf",
					"outputs": [
						{
							"internalType": "uint256",
							"name": "",
							"type": "uint256"
						}
					],
					"stateMutability": "view",
					"type": "function"
				},
				{
					"inputs": [
						{
							"internalType": "address",
							"name": "user",
							"type": "address"
						},
						{
							"internalType": "bool",
							"name": "can_send",
							"type": "bool"
						},
						{
							"internalType": "bool",
							"name": "can_receive",
							"type": "bool"
						}
					],
					"name": "blockUser",
					"outputs": [],
					"stateMutability": "nonpayable",
					"type": "function"
				},
				{
					"inputs": [
						{
							"internalType": "address",
							"name": "user",
							"type": "address"
						}
					],
					"name": "blocked",
					"outputs": [
						{
							"internalType": "bool",
							"name": "",
							"type": "bool"
						},
						{
							"internalType": "bool",
							"name": "",
							"type": "bool"
						}
					],
					"stateMutability": "view",
					"type": "function"
				},
				{
					"inputs": [
						{
							"internalType": "uint256",
							"name": "amount",
							"type": "uint256"
						}
					],
					"name": "burn",
					"outputs": [],
					"stateMutability": "nonpayable",
					"type": "function"
				},
				{
					"inputs": [
						{
							"internalType": "address",
							"name": "account",
							"type": "address"
						},
						{
							"internalType": "uint256",
							"name": "amount",
							"type": "uint256"
						}
					],
					"name": "burnFrom",
					"outputs": [],
					"stateMutability": "nonpayable",
					"type": "function"
				},
				{
					"inputs": [],
					"name": "decimals",
					"outputs": [
						{
							"internalType": "uint8",
							"name": "",
							"type": "uint8"
						}
					],
					"stateMutability": "view",
					"type": "function"
				},
				{
					"inputs": [
						{
							"internalType": "address",
							"name": "spender",
							"type": "address"
						},
						{
							"internalType": "uint256",
							"name": "subtractedValue",
							"type": "uint256"
						}
					],
					"name": "decreaseAllowance",
					"outputs": [
						{
							"internalType": "bool",
							"name": "",
							"type": "bool"
						}
					],
					"stateMutability": "nonpayable",
					"type": "function"
				},
				{
					"inputs": [],
					"name": "getOwner",
					"outputs": [
						{
							"internalType": "address",
							"name": "",
							"type": "address"
						}
					],
					"stateMutability": "view",
					"type": "function"
				},
				{
					"inputs": [
						{
							"internalType": "address",
							"name": "spender",
							"type": "address"
						},
						{
							"internalType": "uint256",
							"name": "addedValue",
							"type": "uint256"
						}
					],
					"name": "increaseAllowance",
					"outputs": [
						{
							"internalType": "bool",
							"name": "",
							"type": "bool"
						}
					],
					"stateMutability": "nonpayable",
					"type": "function"
				},
				{
					"inputs": [],
					"name": "liquidityFee",
					"outputs": [
						{
							"internalType": "uint256",
							"name": "",
							"type": "uint256"
						}
					],
					"stateMutability": "view",
					"type": "function"
				},
				{
					"inputs": [],
					"name": "liquidityKeeper",
					"outputs": [
						{
							"internalType": "address",
							"name": "",
							"type": "address"
						}
					],
					"stateMutability": "view",
					"type": "function"
				},
				{
					"inputs": [],
					"name": "name",
					"outputs": [
						{
							"internalType": "string",
							"name": "",
							"type": "string"
						}
					],
					"stateMutability": "view",
					"type": "function"
				},
				{
					"inputs": [],
					"name": "owner",
					"outputs": [
						{
							"internalType": "address",
							"name": "",
							"type": "address"
						}
					],
					"stateMutability": "view",
					"type": "function"
				},
				{
					"inputs": [],
					"name": "renounceOwnership",
					"outputs": [],
					"stateMutability": "nonpayable",
					"type": "function"
				},
				{
					"inputs": [
						{
							"internalType": "uint256",
							"name": "fee",
							"type": "uint256"
						}
					],
					"name": "setLiquidityFee",
					"outputs": [],
					"stateMutability": "nonpayable",
					"type": "function"
				},
				{
					"inputs": [
						{
							"internalType": "address",
							"name": "keeper",
							"type": "address"
						}
					],
					"name": "setLiquidityKeeper",
					"outputs": [],
					"stateMutability": "nonpayable",
					"type": "function"
				},
				{
					"inputs": [],
					"name": "symbol",
					"outputs": [
						{
							"internalType": "string",
							"name": "",
							"type": "string"
						}
					],
					"stateMutability": "view",
					"type": "function"
				},
				{
					"inputs": [],
					"name": "totalSupply",
					"outputs": [
						{
							"internalType": "uint256",
							"name": "",
							"type": "uint256"
						}
					],
					"stateMutability": "view",
					"type": "function"
				},
				{
					"inputs": [
						{
							"internalType": "address",
							"name": "to",
							"type": "address"
						},
						{
							"internalType": "uint256",
							"name": "amount",
							"type": "uint256"
						}
					],
					"name": "transfer",
					"outputs": [
						{
							"internalType": "bool",
							"name": "",
							"type": "bool"
						}
					],
					"stateMutability": "nonpayable",
					"type": "function"
				},
				{
					"inputs": [
						{
							"internalType": "address",
							"name": "from",
							"type": "address"
						},
						{
							"internalType": "address",
							"name": "to",
							"type": "address"
						},
						{
							"internalType": "uint256",
							"name": "amount",
							"type": "uint256"
						}
					],
					"name": "transferFrom",
					"outputs": [
						{
							"internalType": "bool",
							"name": "",
							"type": "bool"
						}
					],
					"stateMutability": "nonpayable",
					"type": "function"
				},
				{
					"inputs": [
						{
							"internalType": "address",
							"name": "newOwner",
							"type": "address"
						}
					],
					"name": "transferOwnership",
					"outputs": [],
					"stateMutability": "nonpayable",
					"type": "function"
				}
			],
			"devdoc": {
				"kind": "dev",
				"methods": {
					"allowance(address,address)": {
						"details": "See {IERC20-allowance}."
					},
					"approve(address,uint256)": {
						"details": "See {IERC20-approve}. NOTE: If `amount` is the maximum `uint256`, the allowance is not updated on `transferFrom`. This is semantically equivalent to an infinite approval. Requirements: - `spender` cannot be the zero address."
					},
					"balanceOf(address)": {
						"details": "See {IERC20-balanceOf}."
					},
					"burn(uint256)": {
						"details": "Destroys `amount` tokens from the caller. See {ERC20-_burn}."
					},
					"burnFrom(address,uint256)": {
						"details": "Destroys `amount` tokens from `account`, deducting from the caller's allowance. See {ERC20-_burn} and {ERC20-allowance}. Requirements: - the caller must have allowance for ``accounts``'s tokens of at least `amount`."
					},
					"constructor": {
						"details": "Set liquidity fee and keeper See {ERC20-constructor}."
					},
					"decimals()": {
						"details": "Returns the number of decimals used to get its user representation. For example, if `decimals` equals `2`, a balance of `505` tokens should be displayed to a user as `5.05` (`505 / 10 ** 2`). Tokens usually opt for a value of 18, imitating the relationship between Ether and Wei. This is the value {ERC20} uses, unless this function is overridden; NOTE: This information is only used for _display_ purposes: it in no way affects any of the arithmetic of the contract, including {IERC20-balanceOf} and {IERC20-transfer}."
					},
					"decreaseAllowance(address,uint256)": {
						"details": "Atomically decreases the allowance granted to `spender` by the caller. This is an alternative to {approve} that can be used as a mitigation for problems described in {IERC20-approve}. Emits an {Approval} event indicating the updated allowance. Requirements: - `spender` cannot be the zero address. - `spender` must have allowance for the caller of at least `subtractedValue`."
					},
					"getOwner()": {
						"details": "Returns the bep token owner."
					},
					"increaseAllowance(address,uint256)": {
						"details": "Atomically increases the allowance granted to `spender` by the caller. This is an alternative to {approve} that can be used as a mitigation for problems described in {IERC20-approve}. Emits an {Approval} event indicating the updated allowance. Requirements: - `spender` cannot be the zero address."
					},
					"name()": {
						"details": "Returns the name of the token."
					},
					"owner()": {
						"details": "Returns the address of the current owner."
					},
					"renounceOwnership()": {
						"details": "Leaves the contract without owner. It will not be possible to call `onlyOwner` functions anymore. Can only be called by the current owner. NOTE: Renouncing ownership will leave the contract without an owner, thereby removing any functionality that is only available to the owner."
					},
					"symbol()": {
						"details": "Returns the symbol of the token, usually a shorter version of the name."
					},
					"totalSupply()": {
						"details": "See {IERC20-totalSupply}."
					},
					"transfer(address,uint256)": {
						"details": "See {IERC20-transfer}. Requirements: - `to` cannot be the zero address. - the caller must have a balance of at least `amount`."
					},
					"transferFrom(address,address,uint256)": {
						"details": "See {IERC20-transferFrom}. Emits an {Approval} event indicating the updated allowance. This is not required by the EIP. See the note at the beginning of {ERC20}. NOTE: Does not update the allowance if the current allowance is the maximum `uint256`. Requirements: - `from` and `to` cannot be the zero address. - `from` must have a balance of at least `amount`. - the caller must have allowance for ``from``'s tokens of at least `amount`."
					},
					"transferOwnership(address)": {
						"details": "Transfers ownership of the contract to a new account (`newOwner`). Can only be called by the current owner."
					}
				},
				"version": 1
			},
			"evm": {
				"assembly": "    /* \"contracts/HatTokenV2.sol\":364:3249  contract HatTokenV2 is Context, ERC20, ERC20Burnable, Ownable {... */\n  mstore(0x40, 0x80)\n    /* \"contracts/HatTokenV2.sol\":724:915  constructor(string memory name, string memory symbol) ERC20(name, symbol) {... */\n  callvalue\n  dup1\n  iszero\n  tag_1\n  jumpi\n  0x00\n  dup1\n  revert\ntag_1:\n  pop\n  mload(0x40)\n  sub(codesize, bytecodeSize)\n  dup1\n  bytecodeSize\n  dup4\n  codecopy\n  dup2\n  add\n  0x40\n  dup2\n  swap1\n  mstore\n  tag_2\n  swap2\n  tag_3\n  jump\t// in\ntag_2:\n    /* \"@openzeppelin/contracts/token/ERC20/ERC20.sol\":2044:2057  _name = name_ */\n  dup2\n  mload\n    /* \"contracts/HatTokenV2.sol\":784:788  name */\n  dup3\n  swap1\n    /* \"contracts/HatTokenV2.sol\":790:796  symbol */\n  dup3\n  swap1\n    /* \"@openzeppelin/contracts/token/ERC20/ERC20.sol\":2044:2057  _name = name_ */\n  tag_8\n  swap1\n    /* \"@openzeppelin/contracts/token/ERC20/ERC20.sol\":2044:2049  _name */\n  0x03\n  swap1\n    /* \"@openzeppelin/contracts/token/ERC20/ERC20.sol\":2044:2057  _name = name_ */\n  0x20\n  dup6\n  add\n  swap1\n  tag_9\n  jump\t// in\ntag_8:\n  pop\n    /* \"@openzeppelin/contracts/token/ERC20/ERC20.sol\":2067:2084  _symbol = symbol_ */\n  dup1\n  mload\n  tag_10\n  swap1\n    /* \"@openzeppelin/contracts/token/ERC20/ERC20.sol\":2067:2074  _symbol */\n  0x04\n  swap1\n    /* \"@openzeppelin/contracts/token/ERC20/ERC20.sol\":2067:2084  _symbol = symbol_ */\n  0x20\n  dup5\n  add\n  swap1\n  tag_9\n  jump\t// in\ntag_10:\n  pop\n    /* \"@openzeppelin/contracts/token/ERC20/ERC20.sol\":1978:2091  constructor(string memory name_, string memory symbol_) {... */\n  pop\n  pop\n    /* \"@openzeppelin/contracts/access/Ownable.sol\":921:953  _transferOwnership(_msgSender()) */\n  tag_12\n    /* \"@openzeppelin/contracts/access/Ownable.sol\":940:952  _msgSender() */\n  tag_13\n    /* \"@openzeppelin/contracts/access/Ownable.sol\":940:950  _msgSender */\n  shl(0x20, tag_14)\n    /* \"@openzeppelin/contracts/access/Ownable.sol\":940:952  _msgSender() */\n  0x20\n  shr\n  jump\t// in\ntag_13:\n    /* \"@openzeppelin/contracts/access/Ownable.sol\":921:939  _transferOwnership */\n  tag_15\n    /* \"@openzeppelin/contracts/access/Ownable.sol\":921:953  _transferOwnership(_msgSender()) */\n  jump\t// in\ntag_12:\n    /* \"contracts/HatTokenV2.sol\":825:827  50 */\n  0x32\n    /* \"contracts/HatTokenV2.sol\":809:822  _liquidityFee */\n  0x06\n    /* \"contracts/HatTokenV2.sol\":809:827  _liquidityFee = 50 */\n  sstore\n    /* \"@openzeppelin/contracts/access/Ownable.sol\":1108:1114  _owner */\n  sload(0x05)\n    /* \"contracts/HatTokenV2.sol\":838:854  _liquidityKeeper */\n  0x07\n    /* \"contracts/HatTokenV2.sol\":838:864  _liquidityKeeper = owner() */\n  dup1\n  sload\n  not(sub(shl(0xa0, 0x01), 0x01))\n  and\n  sub(shl(0xa0, 0x01), 0x01)\n    /* \"@openzeppelin/contracts/access/Ownable.sol\":1108:1114  _owner */\n  swap1\n  swap3\n  and\n    /* \"contracts/HatTokenV2.sol\":838:864  _liquidityKeeper = owner() */\n  swap2\n  dup3\n  or\n  swap1\n  sstore\n    /* \"contracts/HatTokenV2.sol\":877:907  _mint(owner(), 10**9 * 10**18) */\n  tag_19\n  swap1\n    /* \"contracts/HatTokenV2.sol\":892:906  10**9 * 10**18 */\n  0x033b2e3c9fd0803ce8000000\n    /* \"contracts/HatTokenV2.sol\":877:882  _mint */\n  tag_21\n    /* \"contracts/HatTokenV2.sol\":877:907  _mint(owner(), 10**9 * 10**18) */\n  jump\t// in\ntag_19:\n    /* \"contracts/HatTokenV2.sol\":724:915  constructor(string memory name, string memory symbol) ERC20(name, symbol) {... */\n  pop\n  pop\n    /* \"contracts/HatTokenV2.sol\":364:3249  contract HatTokenV2 is Context, ERC20, ERC20Burnable, Ownable {... */\n  jump(tag_63)\n    /* \"@openzeppelin/contracts/utils/Context.sol\":640:736  function _msgSender() internal view virtual returns (address) {... */\ntag_14:\n    /* \"@openzeppelin/contracts/utils/Context.sol\":719:729  msg.sender */\n  caller\n  swap1\n    /* \"@openzeppelin/contracts/utils/Context.sol\":640:736  function _msgSender() internal view virtual returns (address) {... */\n  jump\t// out\n    /* \"@openzeppelin/contracts/access/Ownable.sol\":2270:2457  function _transferOwnership(address newOwner) internal virtual {... */\ntag_15:\n    /* \"@openzeppelin/contracts/access/Ownable.sol\":2362:2368  _owner */\n  0x05\n  dup1\n  sload\n  sub(shl(0xa0, 0x01), 0x01)\n    /* \"@openzeppelin/contracts/access/Ownable.sol\":2378:2395  _owner = newOwner */\n  dup4\n  dup2\n  and\n  not(sub(shl(0xa0, 0x01), 0x01))\n  dup4\n  and\n  dup2\n  or\n  swap1\n  swap4\n  sstore\n    /* \"@openzeppelin/contracts/access/Ownable.sol\":2410:2450  OwnershipTransferred(oldOwner, newOwner) */\n  mload(0x40)\n    /* \"@openzeppelin/contracts/access/Ownable.sol\":2362:2368  _owner */\n  swap2\n  and\n  swap2\n    /* \"@openzeppelin/contracts/access/Ownable.sol\":2378:2395  _owner = newOwner */\n  swap1\n    /* \"@openzeppelin/contracts/access/Ownable.sol\":2362:2368  _owner */\n  dup3\n  swap1\n    /* \"@openzeppelin/contracts/access/Ownable.sol\":2410:2450  OwnershipTransferred(oldOwner, newOwner) */\n  0x8be0079c531659141344cd1fd0a4f28419497f9722a3daafe3b4186f6b6457e0\n  swap1\n    /* \"@openzeppelin/contracts/access/Ownable.sol\":2343:2359  address oldOwner */\n  0x00\n  swap1\n    /* \"@openzeppelin/contracts/access/Ownable.sol\":2410:2450  OwnershipTransferred(oldOwner, newOwner) */\n  log3\n    /* \"@openzeppelin/contracts/access/Ownable.sol\":2333:2457  {... */\n  pop\n    /* \"@openzeppelin/contracts/access/Ownable.sol\":2270:2457  function _transferOwnership(address newOwner) internal virtual {... */\n  pop\n  jump\t// out\n    /* \"@openzeppelin/contracts/token/ERC20/ERC20.sol\":8415:8804  function _mint(address account, uint256 amount) internal virtual {... */\ntag_21:\n  sub(shl(0xa0, 0x01), 0x01)\n    /* \"@openzeppelin/contracts/token/ERC20/ERC20.sol\":8498:8519  account != address(0) */\n  dup3\n  and\n    /* \"@openzeppelin/contracts/token/ERC20/ERC20.sol\":8490:8555  require(account != address(0), \"ERC20: mint to the zero address\") */\n  tag_27\n  jumpi\n  mload(0x40)\n  shl(0xe5, 0x461bcd)\n  dup2\n  mstore\n    /* \"#utility.yul\":1805:1807   */\n  0x20\n    /* \"@openzeppelin/contracts/token/ERC20/ERC20.sol\":8490:8555  require(account != address(0), \"ERC20: mint to the zero address\") */\n  0x04\n  dup3\n  add\n    /* \"#utility.yul\":1787:1808   */\n  mstore\n    /* \"#utility.yul\":1844:1846   */\n  0x1f\n    /* \"#utility.yul\":1824:1842   */\n  0x24\n  dup3\n  add\n    /* \"#utility.yul\":1817:1847   */\n  mstore\n    /* \"#utility.yul\":1883:1916   */\n  0x45524332303a206d696e7420746f20746865207a65726f206164647265737300\n    /* \"#utility.yul\":1863:1881   */\n  0x44\n  dup3\n  add\n    /* \"#utility.yul\":1856:1917   */\n  mstore\n    /* \"#utility.yul\":1934:1952   */\n  0x64\n  add\n    /* \"@openzeppelin/contracts/token/ERC20/ERC20.sol\":8490:8555  require(account != address(0), \"ERC20: mint to the zero address\") */\ntag_28:\n  mload(0x40)\n  dup1\n  swap2\n  sub\n  swap1\n  revert\ntag_27:\n    /* \"@openzeppelin/contracts/token/ERC20/ERC20.sol\":8566:8615  _beforeTokenTransfer(address(0), account, amount) */\n  tag_30\n    /* \"@openzeppelin/contracts/token/ERC20/ERC20.sol\":8595:8596  0 */\n  0x00\n    /* \"@openzeppelin/contracts/token/ERC20/ERC20.sol\":8599:8606  account */\n  dup4\n    /* \"@openzeppelin/contracts/token/ERC20/ERC20.sol\":8608:8614  amount */\n  dup4\n    /* \"@openzeppelin/contracts/token/ERC20/ERC20.sol\":8566:8586  _beforeTokenTransfer */\n  tag_31\n    /* \"@openzeppelin/contracts/token/ERC20/ERC20.sol\":8566:8615  _beforeTokenTransfer(address(0), account, amount) */\n  jump\t// in\ntag_30:\n    /* \"@openzeppelin/contracts/token/ERC20/ERC20.sol\":8642:8648  amount */\n  dup1\n    /* \"@openzeppelin/contracts/token/ERC20/ERC20.sol\":8626:8638  _totalSupply */\n  0x02\n  0x00\n    /* \"@openzeppelin/contracts/token/ERC20/ERC20.sol\":8626:8648  _totalSupply += amount */\n  dup3\n  dup3\n  sload\n  tag_32\n  swap2\n  swap1\n  tag_33\n  jump\t// in\ntag_32:\n  swap1\n  swap2\n  sstore\n  pop\n  pop\n  sub(shl(0xa0, 0x01), 0x01)\n    /* \"@openzeppelin/contracts/token/ERC20/ERC20.sol\":8658:8676  _balances[account] */\n  dup3\n  and\n    /* \"@openzeppelin/contracts/token/ERC20/ERC20.sol\":8658:8667  _balances */\n  0x00\n    /* \"@openzeppelin/contracts/token/ERC20/ERC20.sol\":8658:8676  _balances[account] */\n  swap1\n  dup2\n  mstore\n  0x20\n  dup2\n  swap1\n  mstore\n  0x40\n  dup2\n  keccak256\n    /* \"@openzeppelin/contracts/token/ERC20/ERC20.sol\":8658:8686  _balances[account] += amount */\n  dup1\n  sload\n    /* \"@openzeppelin/contracts/token/ERC20/ERC20.sol\":8680:8686  amount */\n  dup4\n  swap3\n    /* \"@openzeppelin/contracts/token/ERC20/ERC20.sol\":8658:8667  _balances */\n  swap1\n    /* \"@openzeppelin/contracts/token/ERC20/ERC20.sol\":8658:8686  _balances[account] += amount */\n  tag_34\n  swap1\n    /* \"@openzeppelin/contracts/token/ERC20/ERC20.sol\":8680:8686  amount */\n  dup5\n  swap1\n    /* \"@openzeppelin/contracts/token/ERC20/ERC20.sol\":8658:8686  _balances[account] += amount */\n  tag_33\n  jump\t// in\ntag_34:\n  swap1\n  swap2\n  sstore\n  pop\n  pop\n    /* \"@openzeppelin/contracts/token/ERC20/ERC20.sol\":8701:8738  Transfer(address(0), account, amount) */\n  mload(0x40)\n    /* \"#utility.yul\":2339:2364   */\n  dup2\n  dup2\n  mstore\n  sub(shl(0xa0, 0x01), 0x01)\n    /* \"@openzeppelin/contracts/token/ERC20/ERC20.sol\":8701:8738  Transfer(address(0), account, amount) */\n  dup4\n  and\n  swap1\n    /* \"@openzeppelin/contracts/token/ERC20/ERC20.sol\":8718:8719  0 */\n  0x00\n  swap1\n    /* \"@openzeppelin/contracts/token/ERC20/ERC20.sol\":8701:8738  Transfer(address(0), account, amount) */\n  0xddf252ad1be2c89b69c2b068fc378daa952ba7f163c4a11628f55a4df523b3ef\n  swap1\n    /* \"#utility.yul\":2327:2329   */\n  0x20\n    /* \"#utility.yul\":2312:2330   */\n  add\n    /* \"@openzeppelin/contracts/token/ERC20/ERC20.sol\":8701:8738  Transfer(address(0), account, amount) */\n  mload(0x40)\n  dup1\n  swap2\n  sub\n  swap1\n  log3\n    /* \"@openzeppelin/contracts/token/ERC20/ERC20.sol\":8415:8804  function _mint(address account, uint256 amount) internal virtual {... */\n  pop\n  pop\n  jump\t// out\n    /* \"contracts/HatTokenV2.sol\":923:1376  function _beforeTokenTransfer(... */\ntag_31:\n  sub(shl(0xa0, 0x01), 0x01)\n    /* \"contracts/HatTokenV2.sol\":1089:1108  _blockSenders[from] */\n  dup4\n  and\n  0x00\n  swap1\n  dup2\n  mstore\n    /* \"contracts/HatTokenV2.sol\":1089:1102  _blockSenders */\n  0x08\n    /* \"contracts/HatTokenV2.sol\":1089:1108  _blockSenders[from] */\n  0x20\n  mstore\n  0x40\n  swap1\n  keccak256\n  sload\n  0xff\n  and\n    /* \"contracts/HatTokenV2.sol\":1088:1108  !_blockSenders[from] */\n  iszero\n    /* \"contracts/HatTokenV2.sol\":1066:1182  require(... */\n  tag_40\n  jumpi\n  mload(0x40)\n  shl(0xe5, 0x461bcd)\n  dup2\n  mstore\n    /* \"#utility.yul\":2577:2579   */\n  0x20\n    /* \"contracts/HatTokenV2.sol\":1066:1182  require(... */\n  0x04\n  dup3\n  add\n    /* \"#utility.yul\":2559:2580   */\n  mstore\n    /* \"#utility.yul\":2616:2618   */\n  0x2e\n    /* \"#utility.yul\":2596:2614   */\n  0x24\n  dup3\n  add\n    /* \"#utility.yul\":2589:2619   */\n  mstore\n    /* \"#utility.yul\":2655:2689   */\n  0x4865726f204177616b656e20546f6b656e3a207468652073656e646572206861\n    /* \"#utility.yul\":2635:2653   */\n  0x44\n  dup3\n  add\n    /* \"#utility.yul\":2628:2690   */\n  mstore\n  shl(0x92, 0x1cc81899595b88189b1bd8dad959)\n    /* \"#utility.yul\":2706:2724   */\n  0x64\n  dup3\n  add\n    /* \"#utility.yul\":2699:2743   */\n  mstore\n    /* \"#utility.yul\":2760:2779   */\n  0x84\n  add\n    /* \"contracts/HatTokenV2.sol\":1066:1182  require(... */\n  tag_28\n    /* \"#utility.yul\":2375:2785   */\n  jump\n    /* \"contracts/HatTokenV2.sol\":1066:1182  require(... */\ntag_40:\n  sub(shl(0xa0, 0x01), 0x01)\n    /* \"contracts/HatTokenV2.sol\":1216:1235  _blockReceivers[to] */\n  dup3\n  and\n  0x00\n  swap1\n  dup2\n  mstore\n    /* \"contracts/HatTokenV2.sol\":1216:1231  _blockReceivers */\n  0x09\n    /* \"contracts/HatTokenV2.sol\":1216:1235  _blockReceivers[to] */\n  0x20\n  mstore\n  0x40\n  swap1\n  keccak256\n  sload\n  0xff\n  and\n    /* \"contracts/HatTokenV2.sol\":1215:1235  !_blockReceivers[to] */\n  iszero\n    /* \"contracts/HatTokenV2.sol\":1193:1311  require(... */\n  tag_43\n  jumpi\n  mload(0x40)\n  shl(0xe5, 0x461bcd)\n  dup2\n  mstore\n    /* \"#utility.yul\":2992:2994   */\n  0x20\n    /* \"contracts/HatTokenV2.sol\":1193:1311  require(... */\n  0x04\n  dup3\n  add\n    /* \"#utility.yul\":2974:2995   */\n  mstore\n    /* \"#utility.yul\":3031:3033   */\n  0x30\n    /* \"#utility.yul\":3011:3029   */\n  0x24\n  dup3\n  add\n    /* \"#utility.yul\":3004:3034   */\n  mstore\n    /* \"#utility.yul\":3070:3104   */\n  0x4865726f204177616b656e20546f6b656e3a2074686520726563656976657220\n    /* \"#utility.yul\":3050:3068   */\n  0x44\n  dup3\n  add\n    /* \"#utility.yul\":3043:3105   */\n  mstore\n  shl(0x82, 0x1a185cc81899595b88189b1bd8dad959)\n    /* \"#utility.yul\":3121:3139   */\n  0x64\n  dup3\n  add\n    /* \"#utility.yul\":3114:3160   */\n  mstore\n    /* \"#utility.yul\":3177:3196   */\n  0x84\n  add\n    /* \"contracts/HatTokenV2.sol\":1193:1311  require(... */\n  tag_28\n    /* \"#utility.yul\":2790:3202   */\n  jump\n    /* \"contracts/HatTokenV2.sol\":1193:1311  require(... */\ntag_43:\n    /* \"contracts/HatTokenV2.sol\":1324:1368  super._beforeTokenTransfer(from, to, amount) */\n  tag_46\n    /* \"contracts/HatTokenV2.sol\":1351:1355  from */\n  dup4\n    /* \"contracts/HatTokenV2.sol\":1357:1359  to */\n  dup4\n    /* \"contracts/HatTokenV2.sol\":1361:1367  amount */\n  dup4\n    /* \"contracts/HatTokenV2.sol\":1324:1350  super._beforeTokenTransfer */\n  or(tag_0_117, shl(0x20, tag_46))\n    /* \"contracts/HatTokenV2.sol\":1324:1368  super._beforeTokenTransfer(from, to, amount) */\n  0x20\n  shr\n  jump\t// in\ntag_46:\n    /* \"contracts/HatTokenV2.sol\":923:1376  function _beforeTokenTransfer(... */\n  pop\n  pop\n  pop\n  jump\t// out\n    /* \"contracts/HatTokenV2.sol\":364:3249  contract HatTokenV2 is Context, ERC20, ERC20Burnable, Ownable {... */\ntag_9:\n  dup3\n  dup1\n  sload\n  tag_50\n  swap1\n  tag_51\n  jump\t// in\ntag_50:\n  swap1\n  0x00\n  mstore\n  keccak256(0x00, 0x20)\n  swap1\n  0x1f\n  add\n  0x20\n  swap1\n  div\n  dup2\n  add\n  swap3\n  dup3\n  tag_53\n  jumpi\n  0x00\n  dup6\n  sstore\n  jump(tag_56)\ntag_53:\n  dup3\n  0x1f\n  lt\n  tag_54\n  jumpi\n  dup1\n  mload\n  not(0xff)\n  and\n  dup4\n  dup1\n  add\n  or\n  dup6\n  sstore\n  jump(tag_56)\ntag_54:\n  dup3\n  dup1\n  add\n  0x01\n  add\n  dup6\n  sstore\n  dup3\n  iszero\n  tag_56\n  jumpi\n  swap2\n  dup3\n  add\ntag_55:\n  dup3\n  dup2\n  gt\n  iszero\n  tag_56\n  jumpi\n  dup3\n  mload\n  dup3\n  sstore\n  swap2\n  0x20\n  add\n  swap2\n  swap1\n  0x01\n  add\n  swap1\n  jump(tag_55)\ntag_56:\n  pop\n  tag_57\n  swap3\n  swap2\n  pop\n  tag_58\n  jump\t// in\ntag_57:\n  pop\n  swap1\n  jump\t// out\ntag_58:\ntag_59:\n  dup1\n  dup3\n  gt\n  iszero\n  tag_57\n  jumpi\n  0x00\n  dup2\n  sstore\n  0x01\n  add\n  jump(tag_59)\n    /* \"#utility.yul\":14:141   */\ntag_61:\n    /* \"#utility.yul\":75:85   */\n  0x4e487b71\n    /* \"#utility.yul\":70:73   */\n  0xe0\n    /* \"#utility.yul\":66:86   */\n  shl\n    /* \"#utility.yul\":63:64   */\n  0x00\n    /* \"#utility.yul\":56:87   */\n  mstore\n    /* \"#utility.yul\":106:110   */\n  0x41\n    /* \"#utility.yul\":103:104   */\n  0x04\n    /* \"#utility.yul\":96:111   */\n  mstore\n    /* \"#utility.yul\":130:134   */\n  0x24\n    /* \"#utility.yul\":127:128   */\n  0x00\n    /* \"#utility.yul\":120:135   */\n  revert\n    /* \"#utility.yul\":146:1031   */\ntag_62:\n    /* \"#utility.yul\":200:205   */\n  0x00\n    /* \"#utility.yul\":253:256   */\n  dup3\n    /* \"#utility.yul\":246:250   */\n  0x1f\n    /* \"#utility.yul\":238:244   */\n  dup4\n    /* \"#utility.yul\":234:251   */\n  add\n    /* \"#utility.yul\":230:257   */\n  slt\n    /* \"#utility.yul\":220:275   */\n  tag_66\n  jumpi\n    /* \"#utility.yul\":271:272   */\n  0x00\n    /* \"#utility.yul\":268:269   */\n  dup1\n    /* \"#utility.yul\":261:273   */\n  revert\n    /* \"#utility.yul\":220:275   */\ntag_66:\n    /* \"#utility.yul\":294:307   */\n  dup2\n  mload\n  sub(shl(0x40, 0x01), 0x01)\n    /* \"#utility.yul\":356:366   */\n  dup1\n  dup3\n  gt\n    /* \"#utility.yul\":353:389   */\n  iszero\n  tag_68\n  jumpi\n    /* \"#utility.yul\":369:387   */\n  tag_68\n  tag_61\n  jump\t// in\ntag_68:\n    /* \"#utility.yul\":444:446   */\n  0x40\n    /* \"#utility.yul\":438:447   */\n  mload\n    /* \"#utility.yul\":412:414   */\n  0x1f\n    /* \"#utility.yul\":498:511   */\n  dup4\n  add\n  not(0x1f)\n    /* \"#utility.yul\":494:516   */\n  swap1\n  dup2\n  and\n    /* \"#utility.yul\":518:520   */\n  0x3f\n    /* \"#utility.yul\":490:521   */\n  add\n    /* \"#utility.yul\":486:526   */\n  and\n    /* \"#utility.yul\":474:527   */\n  dup2\n  add\n  swap1\n    /* \"#utility.yul\":542:560   */\n  dup3\n  dup3\n  gt\n    /* \"#utility.yul\":562:584   */\n  dup2\n  dup4\n  lt\n    /* \"#utility.yul\":539:585   */\n  or\n    /* \"#utility.yul\":536:608   */\n  iszero\n  tag_70\n  jumpi\n    /* \"#utility.yul\":588:606   */\n  tag_70\n  tag_61\n  jump\t// in\ntag_70:\n    /* \"#utility.yul\":628:638   */\n  dup2\n    /* \"#utility.yul\":624:626   */\n  0x40\n    /* \"#utility.yul\":617:639   */\n  mstore\n    /* \"#utility.yul\":663:665   */\n  dup4\n    /* \"#utility.yul\":655:661   */\n  dup2\n    /* \"#utility.yul\":648:666   */\n  mstore\n    /* \"#utility.yul\":685:689   */\n  0x20\n    /* \"#utility.yul\":675:689   */\n  swap3\n  pop\n    /* \"#utility.yul\":730:733   */\n  dup7\n    /* \"#utility.yul\":725:727   */\n  dup4\n    /* \"#utility.yul\":720:722   */\n  dup6\n    /* \"#utility.yul\":712:718   */\n  dup9\n    /* \"#utility.yul\":708:723   */\n  add\n    /* \"#utility.yul\":704:728   */\n  add\n    /* \"#utility.yul\":701:734   */\n  gt\n    /* \"#utility.yul\":698:751   */\n  iszero\n  tag_71\n  jumpi\n    /* \"#utility.yul\":747:748   */\n  0x00\n    /* \"#utility.yul\":744:745   */\n  dup1\n    /* \"#utility.yul\":737:749   */\n  revert\n    /* \"#utility.yul\":698:751   */\ntag_71:\n    /* \"#utility.yul\":769:770   */\n  0x00\n    /* \"#utility.yul\":760:770   */\n  swap2\n  pop\n    /* \"#utility.yul\":779:912   */\ntag_72:\n    /* \"#utility.yul\":793:795   */\n  dup4\n    /* \"#utility.yul\":790:791   */\n  dup3\n    /* \"#utility.yul\":787:796   */\n  lt\n    /* \"#utility.yul\":779:912   */\n  iszero\n  tag_74\n  jumpi\n    /* \"#utility.yul\":881:895   */\n  dup6\n  dup3\n  add\n    /* \"#utility.yul\":877:900   */\n  dup4\n  add\n    /* \"#utility.yul\":871:901   */\n  mload\n    /* \"#utility.yul\":850:864   */\n  dup2\n  dup4\n  add\n    /* \"#utility.yul\":846:869   */\n  dup5\n  add\n    /* \"#utility.yul\":839:902   */\n  mstore\n    /* \"#utility.yul\":804:814   */\n  swap1\n  dup3\n  add\n  swap1\n    /* \"#utility.yul\":779:912   */\n  jump(tag_72)\ntag_74:\n    /* \"#utility.yul\":930:932   */\n  dup4\n    /* \"#utility.yul\":927:928   */\n  dup3\n    /* \"#utility.yul\":924:933   */\n  gt\n    /* \"#utility.yul\":921:1001   */\n  iszero\n  tag_75\n  jumpi\n    /* \"#utility.yul\":989:990   */\n  0x00\n    /* \"#utility.yul\":984:986   */\n  dup4\n    /* \"#utility.yul\":979:981   */\n  dup6\n    /* \"#utility.yul\":971:977   */\n  dup4\n    /* \"#utility.yul\":967:982   */\n  add\n    /* \"#utility.yul\":963:987   */\n  add\n    /* \"#utility.yul\":956:991   */\n  mstore\n    /* \"#utility.yul\":921:1001   */\ntag_75:\n    /* \"#utility.yul\":1019:1025   */\n  swap7\n    /* \"#utility.yul\":146:1031   */\n  swap6\n  pop\n  pop\n  pop\n  pop\n  pop\n  pop\n  jump\t// out\n    /* \"#utility.yul\":1036:1598   */\ntag_3:\n    /* \"#utility.yul\":1135:1141   */\n  0x00\n    /* \"#utility.yul\":1143:1149   */\n  dup1\n    /* \"#utility.yul\":1196:1198   */\n  0x40\n    /* \"#utility.yul\":1184:1193   */\n  dup4\n    /* \"#utility.yul\":1175:1182   */\n  dup6\n    /* \"#utility.yul\":1171:1194   */\n  sub\n    /* \"#utility.yul\":1167:1199   */\n  slt\n    /* \"#utility.yul\":1164:1216   */\n  iszero\n  tag_77\n  jumpi\n    /* \"#utility.yul\":1212:1213   */\n  0x00\n    /* \"#utility.yul\":1209:1210   */\n  dup1\n    /* \"#utility.yul\":1202:1214   */\n  revert\n    /* \"#utility.yul\":1164:1216   */\ntag_77:\n    /* \"#utility.yul\":1239:1255   */\n  dup3\n  mload\n  sub(shl(0x40, 0x01), 0x01)\n    /* \"#utility.yul\":1304:1318   */\n  dup1\n  dup3\n  gt\n    /* \"#utility.yul\":1301:1335   */\n  iszero\n  tag_78\n  jumpi\n    /* \"#utility.yul\":1331:1332   */\n  0x00\n    /* \"#utility.yul\":1328:1329   */\n  dup1\n    /* \"#utility.yul\":1321:1333   */\n  revert\n    /* \"#utility.yul\":1301:1335   */\ntag_78:\n    /* \"#utility.yul\":1354:1415   */\n  tag_79\n    /* \"#utility.yul\":1407:1414   */\n  dup7\n    /* \"#utility.yul\":1398:1404   */\n  dup4\n    /* \"#utility.yul\":1387:1396   */\n  dup8\n    /* \"#utility.yul\":1383:1405   */\n  add\n    /* \"#utility.yul\":1354:1415   */\n  tag_62\n  jump\t// in\ntag_79:\n    /* \"#utility.yul\":1344:1415   */\n  swap4\n  pop\n    /* \"#utility.yul\":1461:1463   */\n  0x20\n    /* \"#utility.yul\":1450:1459   */\n  dup6\n    /* \"#utility.yul\":1446:1464   */\n  add\n    /* \"#utility.yul\":1440:1465   */\n  mload\n    /* \"#utility.yul\":1424:1465   */\n  swap2\n  pop\n    /* \"#utility.yul\":1490:1492   */\n  dup1\n    /* \"#utility.yul\":1480:1488   */\n  dup3\n    /* \"#utility.yul\":1477:1493   */\n  gt\n    /* \"#utility.yul\":1474:1510   */\n  iszero\n  tag_80\n  jumpi\n    /* \"#utility.yul\":1506:1507   */\n  0x00\n    /* \"#utility.yul\":1503:1504   */\n  dup1\n    /* \"#utility.yul\":1496:1508   */\n  revert\n    /* \"#utility.yul\":1474:1510   */\ntag_80:\n  pop\n    /* \"#utility.yul\":1529:1592   */\n  tag_81\n    /* \"#utility.yul\":1584:1591   */\n  dup6\n    /* \"#utility.yul\":1573:1581   */\n  dup3\n    /* \"#utility.yul\":1562:1571   */\n  dup7\n    /* \"#utility.yul\":1558:1582   */\n  add\n    /* \"#utility.yul\":1529:1592   */\n  tag_62\n  jump\t// in\ntag_81:\n    /* \"#utility.yul\":1519:1592   */\n  swap2\n  pop\n  pop\n    /* \"#utility.yul\":1036:1598   */\n  swap3\n  pop\n  swap3\n  swap1\n  pop\n  jump\t// out\n    /* \"#utility.yul\":1963:2188   */\ntag_33:\n    /* \"#utility.yul\":2003:2006   */\n  0x00\n    /* \"#utility.yul\":2034:2035   */\n  dup3\n    /* \"#utility.yul\":2030:2036   */\n  not\n    /* \"#utility.yul\":2027:2028   */\n  dup3\n    /* \"#utility.yul\":2024:2037   */\n  gt\n    /* \"#utility.yul\":2021:2157   */\n  iszero\n  tag_84\n  jumpi\n    /* \"#utility.yul\":2079:2089   */\n  0x4e487b71\n    /* \"#utility.yul\":2074:2077   */\n  0xe0\n    /* \"#utility.yul\":2070:2090   */\n  shl\n    /* \"#utility.yul\":2067:2068   */\n  0x00\n    /* \"#utility.yul\":2060:2091   */\n  mstore\n    /* \"#utility.yul\":2114:2118   */\n  0x11\n    /* \"#utility.yul\":2111:2112   */\n  0x04\n    /* \"#utility.yul\":2104:2119   */\n  mstore\n    /* \"#utility.yul\":2142:2146   */\n  0x24\n    /* \"#utility.yul\":2139:2140   */\n  0x00\n    /* \"#utility.yul\":2132:2147   */\n  revert\n    /* \"#utility.yul\":2021:2157   */\ntag_84:\n  pop\n    /* \"#utility.yul\":2173:2182   */\n  add\n  swap1\n    /* \"#utility.yul\":1963:2188   */\n  jump\t// out\n    /* \"#utility.yul\":3207:3587   */\ntag_51:\n    /* \"#utility.yul\":3286:3287   */\n  0x01\n    /* \"#utility.yul\":3282:3294   */\n  dup2\n  dup2\n  shr\n  swap1\n    /* \"#utility.yul\":3329:3341   */\n  dup3\n  and\n  dup1\n    /* \"#utility.yul\":3350:3411   */\n  tag_89\n  jumpi\n    /* \"#utility.yul\":3404:3408   */\n  0x7f\n    /* \"#utility.yul\":3396:3402   */\n  dup3\n    /* \"#utility.yul\":3392:3409   */\n  and\n    /* \"#utility.yul\":3382:3409   */\n  swap2\n  pop\n    /* \"#utility.yul\":3350:3411   */\ntag_89:\n    /* \"#utility.yul\":3457:3459   */\n  0x20\n    /* \"#utility.yul\":3449:3455   */\n  dup3\n    /* \"#utility.yul\":3446:3460   */\n  lt\n    /* \"#utility.yul\":3426:3444   */\n  dup2\n    /* \"#utility.yul\":3423:3461   */\n  sub\n    /* \"#utility.yul\":3420:3581   */\n  tag_90\n  jumpi\n    /* \"#utility.yul\":3503:3513   */\n  0x4e487b71\n    /* \"#utility.yul\":3498:3501   */\n  0xe0\n    /* \"#utility.yul\":3494:3514   */\n  shl\n    /* \"#utility.yul\":3491:3492   */\n  0x00\n    /* \"#utility.yul\":3484:3515   */\n  mstore\n    /* \"#utility.yul\":3538:3542   */\n  0x22\n    /* \"#utility.yul\":3535:3536   */\n  0x04\n    /* \"#utility.yul\":3528:3543   */\n  mstore\n    /* \"#utility.yul\":3566:3570   */\n  0x24\n    /* \"#utility.yul\":3563:3564   */\n  0x00\n    /* \"#utility.yul\":3556:3571   */\n  revert\n    /* \"#utility.yul\":3420:3581   */\ntag_90:\n  pop\n    /* \"#utility.yul\":3207:3587   */\n  swap2\n  swap1\n  pop\n  jump\t// out\ntag_63:\n    /* \"contracts/HatTokenV2.sol\":364:3249  contract HatTokenV2 is Context, ERC20, ERC20Burnable, Ownable {... */\n  dataSize(sub_0)\n  dup1\n  dataOffset(sub_0)\n  0x00\n  codecopy\n  0x00\n  return\nstop\n\nsub_0: assembly {\n        /* \"contracts/HatTokenV2.sol\":364:3249  contract HatTokenV2 is Context, ERC20, ERC20Burnable, Ownable {... */\n      mstore(0x40, 0x80)\n      callvalue\n      dup1\n      iszero\n      tag_1\n      jumpi\n      0x00\n      dup1\n      revert\n    tag_1:\n      pop\n      jumpi(tag_2, lt(calldatasize, 0x04))\n      shr(0xe0, calldataload(0x00))\n      dup1\n      0x7f257c3e\n      gt\n      tag_26\n      jumpi\n      dup1\n      0xa128471f\n      gt\n      tag_27\n      jumpi\n      dup1\n      0xa128471f\n      eq\n      tag_20\n      jumpi\n      dup1\n      0xa457c2d7\n      eq\n      tag_21\n      jumpi\n      dup1\n      0xa9059cbb\n      eq\n      tag_22\n      jumpi\n      dup1\n      0xdd62ed3e\n      eq\n      tag_23\n      jumpi\n      dup1\n      0xe5962195\n      eq\n      tag_24\n      jumpi\n      dup1\n      0xf2fde38b\n      eq\n      tag_25\n      jumpi\n      0x00\n      dup1\n      revert\n    tag_27:\n      dup1\n      0x7f257c3e\n      eq\n      tag_14\n      jumpi\n      dup1\n      0x893d20e8\n      eq\n      tag_15\n      jumpi\n      dup1\n      0x8bea9334\n      eq\n      tag_16\n      jumpi\n      dup1\n      0x8da5cb5b\n      eq\n      tag_17\n      jumpi\n      dup1\n      0x95d89b41\n      eq\n      tag_18\n      jumpi\n      dup1\n      0x98118cb4\n      eq\n      tag_19\n      jumpi\n      0x00\n      dup1\n      revert\n    tag_26:\n      dup1\n      0x357bf15c\n      gt\n      tag_28\n      jumpi\n      dup1\n      0x357bf15c\n      eq\n      tag_8\n      jumpi\n      dup1\n      0x39509351\n      eq\n      tag_9\n      jumpi\n      dup1\n      0x42966c68\n      eq\n      tag_10\n      jumpi\n      dup1\n      0x70a08231\n      eq\n      tag_11\n      jumpi\n      dup1\n      0x715018a6\n      eq\n      tag_12\n      jumpi\n      dup1\n      0x79cc6790\n      eq\n      tag_13\n      jumpi\n      0x00\n      dup1\n      revert\n    tag_28:\n      dup1\n      0x06fdde03\n      eq\n      tag_3\n      jumpi\n      dup1\n      0x095ea7b3\n      eq\n      tag_4\n      jumpi\n      dup1\n      0x18160ddd\n      eq\n      tag_5\n      jumpi\n      dup1\n      0x23b872dd\n      eq\n      tag_6\n      jumpi\n      dup1\n      0x313ce567\n      eq\n      tag_7\n      jumpi\n    tag_2:\n      0x00\n      dup1\n      revert\n        /* \"@openzeppelin/contracts/token/ERC20/ERC20.sol\":2156:2254  function name() public view virtual override returns (string memory) {... */\n    tag_3:\n      tag_29\n      tag_30\n      jump\t// in\n    tag_29:\n      mload(0x40)\n      tag_31\n      swap2\n      swap1\n      tag_32\n      jump\t// in\n    tag_31:\n      mload(0x40)\n      dup1\n      swap2\n      sub\n      swap1\n      return\n        /* \"@openzeppelin/contracts/token/ERC20/ERC20.sol\":4433:4630  function approve(address spender, uint256 amount) public virtual override returns (bool) {... */\n    tag_4:\n      tag_33\n      tag_34\n      calldatasize\n      0x04\n      tag_35\n      jump\t// in\n    tag_34:\n      tag_36\n      jump\t// in\n    tag_33:\n      mload(0x40)\n        /* \"#utility.yul\":1218:1232   */\n      swap1\n      iszero\n        /* \"#utility.yul\":1211:1233   */\n      iszero\n        /* \"#utility.yul\":1193:1234   */\n      dup2\n      mstore\n        /* \"#utility.yul\":1181:1183   */\n      0x20\n        /* \"#utility.yul\":1166:1184   */\n      add\n        /* \"@openzeppelin/contracts/token/ERC20/ERC20.sol\":4433:4630  function approve(address spender, uint256 amount) public virtual override returns (bool) {... */\n      tag_31\n        /* \"#utility.yul\":1053:1240   */\n      jump\n        /* \"@openzeppelin/contracts/token/ERC20/ERC20.sol\":3244:3350  function totalSupply() public view virtual override returns (uint256) {... */\n    tag_5:\n        /* \"@openzeppelin/contracts/token/ERC20/ERC20.sol\":3331:3343  _totalSupply */\n      sload(0x02)\n        /* \"@openzeppelin/contracts/token/ERC20/ERC20.sol\":3244:3350  function totalSupply() public view virtual override returns (uint256) {... */\n    tag_39:\n      mload(0x40)\n        /* \"#utility.yul\":1391:1416   */\n      swap1\n      dup2\n      mstore\n        /* \"#utility.yul\":1379:1381   */\n      0x20\n        /* \"#utility.yul\":1364:1382   */\n      add\n        /* \"@openzeppelin/contracts/token/ERC20/ERC20.sol\":3244:3350  function totalSupply() public view virtual override returns (uint256) {... */\n      tag_31\n        /* \"#utility.yul\":1245:1422   */\n      jump\n        /* \"@openzeppelin/contracts/token/ERC20/ERC20.sol\":5192:5478  function transferFrom(... */\n    tag_6:\n      tag_33\n      tag_44\n      calldatasize\n      0x04\n      tag_45\n      jump\t// in\n    tag_44:\n      tag_46\n      jump\t// in\n        /* \"@openzeppelin/contracts/token/ERC20/ERC20.sol\":3093:3184  function decimals() public view virtual override returns (uint8) {... */\n    tag_7:\n      mload(0x40)\n        /* \"@openzeppelin/contracts/token/ERC20/ERC20.sol\":3175:3177  18 */\n      0x12\n        /* \"#utility.yul\":1902:1938   */\n      dup2\n      mstore\n        /* \"#utility.yul\":1890:1892   */\n      0x20\n        /* \"#utility.yul\":1875:1893   */\n      add\n        /* \"@openzeppelin/contracts/token/ERC20/ERC20.sol\":3093:3184  function decimals() public view virtual override returns (uint8) {... */\n      tag_31\n        /* \"#utility.yul\":1760:1944   */\n      jump\n        /* \"contracts/HatTokenV2.sol\":2113:2348  function setLiquidityFee(uint256 fee) public onlyOwner {... */\n    tag_8:\n      tag_52\n      tag_53\n      calldatasize\n      0x04\n      tag_54\n      jump\t// in\n    tag_53:\n      tag_55\n      jump\t// in\n    tag_52:\n      stop\n        /* \"@openzeppelin/contracts/token/ERC20/ERC20.sol\":5873:6109  function increaseAllowance(address spender, uint256 addedValue) public virtual returns (bool) {... */\n    tag_9:\n      tag_33\n      tag_57\n      calldatasize\n      0x04\n      tag_35\n      jump\t// in\n    tag_57:\n      tag_58\n      jump\t// in\n        /* \"@openzeppelin/contracts/token/ERC20/extensions/ERC20Burnable.sol\":578:667  function burn(uint256 amount) public virtual {... */\n    tag_10:\n      tag_52\n      tag_61\n      calldatasize\n      0x04\n      tag_54\n      jump\t// in\n    tag_61:\n      tag_62\n      jump\t// in\n        /* \"@openzeppelin/contracts/token/ERC20/ERC20.sol\":3408:3533  function balanceOf(address account) public view virtual override returns (uint256) {... */\n    tag_11:\n      tag_39\n      tag_64\n      calldatasize\n      0x04\n      tag_65\n      jump\t// in\n    tag_64:\n      sub(shl(0xa0, 0x01), 0x01)\n        /* \"@openzeppelin/contracts/token/ERC20/ERC20.sol\":3508:3526  _balances[account] */\n      and\n        /* \"@openzeppelin/contracts/token/ERC20/ERC20.sol\":3482:3489  uint256 */\n      0x00\n        /* \"@openzeppelin/contracts/token/ERC20/ERC20.sol\":3508:3526  _balances[account] */\n      swap1\n      dup2\n      mstore\n      0x20\n      dup2\n      swap1\n      mstore\n      0x40\n      swap1\n      keccak256\n      sload\n      swap1\n        /* \"@openzeppelin/contracts/token/ERC20/ERC20.sol\":3408:3533  function balanceOf(address account) public view virtual override returns (uint256) {... */\n      jump\n        /* \"@openzeppelin/contracts/access/Ownable.sol\":1668:1769  function renounceOwnership() public virtual onlyOwner {... */\n    tag_12:\n      tag_52\n      tag_69\n      jump\t// in\n        /* \"@openzeppelin/contracts/token/ERC20/extensions/ERC20Burnable.sol\":973:1134  function burnFrom(address account, uint256 amount) public virtual {... */\n    tag_13:\n      tag_52\n      tag_71\n      calldatasize\n      0x04\n      tag_35\n      jump\t// in\n    tag_71:\n      tag_72\n      jump\t// in\n        /* \"contracts/HatTokenV2.sol\":1640:1741  function liquidityKeeper() external view returns (address) {... */\n    tag_14:\n        /* \"contracts/HatTokenV2.sol\":1717:1733  _liquidityKeeper */\n      and(sub(shl(0xa0, 0x01), 0x01), sload(0x07))\n        /* \"contracts/HatTokenV2.sol\":1640:1741  function liquidityKeeper() external view returns (address) {... */\n    tag_73:\n      mload(0x40)\n      sub(shl(0xa0, 0x01), 0x01)\n        /* \"#utility.yul\":2489:2521   */\n      swap1\n      swap2\n      and\n        /* \"#utility.yul\":2471:2522   */\n      dup2\n      mstore\n        /* \"#utility.yul\":2459:2461   */\n      0x20\n        /* \"#utility.yul\":2444:2462   */\n      add\n        /* \"contracts/HatTokenV2.sol\":1640:1741  function liquidityKeeper() external view returns (address) {... */\n      tag_31\n        /* \"#utility.yul\":2325:2528   */\n      jump\n        /* \"contracts/HatTokenV2.sol\":1444:1529  function getOwner() external view returns (address) {... */\n    tag_15:\n      tag_73\n      tag_78\n      jump\t// in\n        /* \"contracts/HatTokenV2.sol\":1893:2105  function blockUser(... */\n    tag_16:\n      tag_52\n      tag_81\n      calldatasize\n      0x04\n      tag_82\n      jump\t// in\n    tag_81:\n      tag_83\n      jump\t// in\n        /* \"@openzeppelin/contracts/access/Ownable.sol\":1036:1121  function owner() public view virtual returns (address) {... */\n    tag_17:\n        /* \"@openzeppelin/contracts/access/Ownable.sol\":1108:1114  _owner */\n      and(sub(shl(0xa0, 0x01), 0x01), sload(0x05))\n        /* \"@openzeppelin/contracts/access/Ownable.sol\":1036:1121  function owner() public view virtual returns (address) {... */\n      jump(tag_73)\n        /* \"@openzeppelin/contracts/token/ERC20/ERC20.sol\":2367:2469  function symbol() public view virtual override returns (string memory) {... */\n    tag_18:\n      tag_29\n      tag_88\n      jump\t// in\n        /* \"contracts/HatTokenV2.sol\":1537:1632  function liquidityFee() external view returns (uint256) {... */\n    tag_19:\n        /* \"contracts/HatTokenV2.sol\":1611:1624  _liquidityFee */\n      sload(0x06)\n        /* \"contracts/HatTokenV2.sol\":1537:1632  function liquidityFee() external view returns (uint256) {... */\n      jump(tag_39)\n        /* \"contracts/HatTokenV2.sol\":2356:2461  function setLiquidityKeeper(address keeper) public onlyOwner {... */\n    tag_20:\n      tag_52\n      tag_94\n      calldatasize\n      0x04\n      tag_65\n      jump\t// in\n    tag_94:\n      tag_95\n      jump\t// in\n        /* \"@openzeppelin/contracts/token/ERC20/ERC20.sol\":6596:7025  function decreaseAllowance(address spender, uint256 subtractedValue) public virtual returns (bool) {... */\n    tag_21:\n      tag_33\n      tag_97\n      calldatasize\n      0x04\n      tag_35\n      jump\t// in\n    tag_97:\n      tag_98\n      jump\t// in\n        /* \"@openzeppelin/contracts/token/ERC20/ERC20.sol\":3729:3918  function transfer(address to, uint256 amount) public virtual override returns (bool) {... */\n    tag_22:\n      tag_33\n      tag_101\n      calldatasize\n      0x04\n      tag_35\n      jump\t// in\n    tag_101:\n      tag_102\n      jump\t// in\n        /* \"@openzeppelin/contracts/token/ERC20/ERC20.sol\":3976:4125  function allowance(address owner, address spender) public view virtual override returns (uint256) {... */\n    tag_23:\n      tag_39\n      tag_105\n      calldatasize\n      0x04\n      tag_106\n      jump\t// in\n    tag_105:\n      sub(shl(0xa0, 0x01), 0x01)\n        /* \"@openzeppelin/contracts/token/ERC20/ERC20.sol\":4091:4109  _allowances[owner] */\n      swap2\n      dup3\n      and\n        /* \"@openzeppelin/contracts/token/ERC20/ERC20.sol\":4065:4072  uint256 */\n      0x00\n        /* \"@openzeppelin/contracts/token/ERC20/ERC20.sol\":4091:4109  _allowances[owner] */\n      swap1\n      dup2\n      mstore\n        /* \"@openzeppelin/contracts/token/ERC20/ERC20.sol\":4091:4102  _allowances */\n      0x01\n        /* \"@openzeppelin/contracts/token/ERC20/ERC20.sol\":4091:4109  _allowances[owner] */\n      0x20\n      swap1\n      dup2\n      mstore\n      0x40\n      dup1\n      dup4\n      keccak256\n        /* \"@openzeppelin/contracts/token/ERC20/ERC20.sol\":4091:4118  _allowances[owner][spender] */\n      swap4\n      swap1\n      swap5\n      and\n      dup3\n      mstore\n      swap2\n      swap1\n      swap2\n      mstore\n      keccak256\n      sload\n      swap1\n        /* \"@openzeppelin/contracts/token/ERC20/ERC20.sol\":3976:4125  function allowance(address owner, address spender) public view virtual override returns (uint256) {... */\n      jump\n        /* \"contracts/HatTokenV2.sol\":1749:1885  function blocked(address user) external view returns (bool, bool) {... */\n    tag_24:\n      tag_109\n      tag_110\n      calldatasize\n      0x04\n      tag_65\n      jump\t// in\n    tag_110:\n      sub(shl(0xa0, 0x01), 0x01)\n        /* \"contracts/HatTokenV2.sol\":1834:1853  _blockSenders[user] */\n      and\n        /* \"contracts/HatTokenV2.sol\":1803:1807  bool */\n      0x00\n        /* \"contracts/HatTokenV2.sol\":1834:1853  _blockSenders[user] */\n      swap1\n      dup2\n      mstore\n        /* \"contracts/HatTokenV2.sol\":1834:1847  _blockSenders */\n      0x08\n        /* \"contracts/HatTokenV2.sol\":1834:1853  _blockSenders[user] */\n      0x20\n      swap1\n      dup2\n      mstore\n      0x40\n      dup1\n      dup4\n      keccak256\n      sload\n        /* \"contracts/HatTokenV2.sol\":1855:1870  _blockReceivers */\n      0x09\n        /* \"contracts/HatTokenV2.sol\":1855:1876  _blockReceivers[user] */\n      swap1\n      swap3\n      mstore\n      swap1\n      swap2\n      keccak256\n      sload\n        /* \"contracts/HatTokenV2.sol\":1834:1853  _blockSenders[user] */\n      0xff\n      swap2\n      dup3\n      and\n      swap3\n        /* \"contracts/HatTokenV2.sol\":1855:1876  _blockReceivers[user] */\n      swap2\n      and\n      swap1\n        /* \"contracts/HatTokenV2.sol\":1749:1885  function blocked(address user) external view returns (bool, bool) {... */\n      jump\n    tag_109:\n      0x40\n      dup1\n      mload\n        /* \"#utility.yul\":3477:3491   */\n      swap3\n      iszero\n        /* \"#utility.yul\":3470:3492   */\n      iszero\n        /* \"#utility.yul\":3452:3493   */\n      dup4\n      mstore\n        /* \"#utility.yul\":3536:3550   */\n      swap1\n      iszero\n        /* \"#utility.yul\":3529:3551   */\n      iszero\n        /* \"#utility.yul\":3524:3526   */\n      0x20\n        /* \"#utility.yul\":3509:3527   */\n      dup4\n      add\n        /* \"#utility.yul\":3502:3552   */\n      mstore\n        /* \"#utility.yul\":3425:3443   */\n      add\n        /* \"contracts/HatTokenV2.sol\":1749:1885  function blocked(address user) external view returns (bool, bool) {... */\n      tag_31\n        /* \"#utility.yul\":3290:3558   */\n      jump\n        /* \"@openzeppelin/contracts/access/Ownable.sol\":1918:2116  function transferOwnership(address newOwner) public virtual onlyOwner {... */\n    tag_25:\n      tag_52\n      tag_115\n      calldatasize\n      0x04\n      tag_65\n      jump\t// in\n    tag_115:\n      tag_116\n      jump\t// in\n        /* \"@openzeppelin/contracts/token/ERC20/ERC20.sol\":2156:2254  function name() public view virtual override returns (string memory) {... */\n    tag_30:\n        /* \"@openzeppelin/contracts/token/ERC20/ERC20.sol\":2210:2223  string memory */\n      0x60\n        /* \"@openzeppelin/contracts/token/ERC20/ERC20.sol\":2242:2247  _name */\n      0x03\n        /* \"@openzeppelin/contracts/token/ERC20/ERC20.sol\":2235:2247  return _name */\n      dup1\n      sload\n      tag_119\n      swap1\n      tag_120\n      jump\t// in\n    tag_119:\n      dup1\n      0x1f\n      add\n      0x20\n      dup1\n      swap2\n      div\n      mul\n      0x20\n      add\n      mload(0x40)\n      swap1\n      dup2\n      add\n      0x40\n      mstore\n      dup1\n      swap3\n      swap2\n      swap1\n      dup2\n      dup2\n      mstore\n      0x20\n      add\n      dup3\n      dup1\n      sload\n      tag_121\n      swap1\n      tag_120\n      jump\t// in\n    tag_121:\n      dup1\n      iszero\n      tag_122\n      jumpi\n      dup1\n      0x1f\n      lt\n      tag_123\n      jumpi\n      0x0100\n      dup1\n      dup4\n      sload\n      div\n      mul\n      dup4\n      mstore\n      swap2\n      0x20\n      add\n      swap2\n      jump(tag_122)\n    tag_123:\n      dup3\n      add\n      swap2\n      swap1\n      0x00\n      mstore\n      keccak256(0x00, 0x20)\n      swap1\n    tag_124:\n      dup2\n      sload\n      dup2\n      mstore\n      swap1\n      0x01\n      add\n      swap1\n      0x20\n      add\n      dup1\n      dup4\n      gt\n      tag_124\n      jumpi\n      dup3\n      swap1\n      sub\n      0x1f\n      and\n      dup3\n      add\n      swap2\n    tag_122:\n      pop\n      pop\n      pop\n      pop\n      pop\n      swap1\n      pop\n        /* \"@openzeppelin/contracts/token/ERC20/ERC20.sol\":2156:2254  function name() public view virtual override returns (string memory) {... */\n      swap1\n      jump\t// out\n        /* \"@openzeppelin/contracts/token/ERC20/ERC20.sol\":4433:4630  function approve(address spender, uint256 amount) public virtual override returns (bool) {... */\n    tag_36:\n        /* \"@openzeppelin/contracts/token/ERC20/ERC20.sol\":4516:4520  bool */\n      0x00\n        /* \"@openzeppelin/contracts/utils/Context.sol\":719:729  msg.sender */\n      caller\n        /* \"@openzeppelin/contracts/token/ERC20/ERC20.sol\":4570:4602  _approve(owner, spender, amount) */\n      tag_128\n        /* \"@openzeppelin/contracts/utils/Context.sol\":719:729  msg.sender */\n      dup2\n        /* \"@openzeppelin/contracts/token/ERC20/ERC20.sol\":4586:4593  spender */\n      dup6\n        /* \"@openzeppelin/contracts/token/ERC20/ERC20.sol\":4595:4601  amount */\n      dup6\n        /* \"@openzeppelin/contracts/token/ERC20/ERC20.sol\":4570:4578  _approve */\n      tag_129\n        /* \"@openzeppelin/contracts/token/ERC20/ERC20.sol\":4570:4602  _approve(owner, spender, amount) */\n      jump\t// in\n    tag_128:\n      pop\n        /* \"@openzeppelin/contracts/token/ERC20/ERC20.sol\":4619:4623  true */\n      0x01\n      swap4\n        /* \"@openzeppelin/contracts/token/ERC20/ERC20.sol\":4433:4630  function approve(address spender, uint256 amount) public virtual override returns (bool) {... */\n      swap3\n      pop\n      pop\n      pop\n      jump\t// out\n        /* \"@openzeppelin/contracts/token/ERC20/ERC20.sol\":5192:5478  function transferFrom(... */\n    tag_46:\n        /* \"@openzeppelin/contracts/token/ERC20/ERC20.sol\":5319:5323  bool */\n      0x00\n        /* \"@openzeppelin/contracts/utils/Context.sol\":719:729  msg.sender */\n      caller\n        /* \"@openzeppelin/contracts/token/ERC20/ERC20.sol\":5375:5413  _spendAllowance(from, spender, amount) */\n      tag_133\n        /* \"@openzeppelin/contracts/token/ERC20/ERC20.sol\":5391:5395  from */\n      dup6\n        /* \"@openzeppelin/contracts/utils/Context.sol\":719:729  msg.sender */\n      dup3\n        /* \"@openzeppelin/contracts/token/ERC20/ERC20.sol\":5406:5412  amount */\n      dup6\n        /* \"@openzeppelin/contracts/token/ERC20/ERC20.sol\":5375:5390  _spendAllowance */\n      tag_134\n        /* \"@openzeppelin/contracts/token/ERC20/ERC20.sol\":5375:5413  _spendAllowance(from, spender, amount) */\n      jump\t// in\n    tag_133:\n        /* \"@openzeppelin/contracts/token/ERC20/ERC20.sol\":5423:5450  _transfer(from, to, amount) */\n      tag_135\n        /* \"@openzeppelin/contracts/token/ERC20/ERC20.sol\":5433:5437  from */\n      dup6\n        /* \"@openzeppelin/contracts/token/ERC20/ERC20.sol\":5439:5441  to */\n      dup6\n        /* \"@openzeppelin/contracts/token/ERC20/ERC20.sol\":5443:5449  amount */\n      dup6\n        /* \"@openzeppelin/contracts/token/ERC20/ERC20.sol\":5423:5432  _transfer */\n      tag_136\n        /* \"@openzeppelin/contracts/token/ERC20/ERC20.sol\":5423:5450  _transfer(from, to, amount) */\n      jump\t// in\n    tag_135:\n      pop\n        /* \"@openzeppelin/contracts/token/ERC20/ERC20.sol\":5467:5471  true */\n      0x01\n      swap5\n        /* \"@openzeppelin/contracts/token/ERC20/ERC20.sol\":5192:5478  function transferFrom(... */\n      swap4\n      pop\n      pop\n      pop\n      pop\n      jump\t// out\n        /* \"contracts/HatTokenV2.sol\":2113:2348  function setLiquidityFee(uint256 fee) public onlyOwner {... */\n    tag_55:\n        /* \"@openzeppelin/contracts/access/Ownable.sol\":1108:1114  _owner */\n      and(sub(shl(0xa0, 0x01), 0x01), sload(0x05))\n        /* \"@openzeppelin/contracts/utils/Context.sol\":719:729  msg.sender */\n      caller\n        /* \"@openzeppelin/contracts/access/Ownable.sol\":1248:1271  owner() == _msgSender() */\n      eq\n        /* \"@openzeppelin/contracts/access/Ownable.sol\":1240:1308  require(owner() == _msgSender(), \"Ownable: caller is not the owner\") */\n      tag_141\n      jumpi\n      mload(0x40)\n      shl(0xe5, 0x461bcd)\n      dup2\n      mstore\n      0x04\n      add\n      tag_142\n      swap1\n      tag_143\n      jump\t// in\n    tag_142:\n      mload(0x40)\n      dup1\n      swap2\n      sub\n      swap1\n      revert\n    tag_141:\n        /* \"contracts/HatTokenV2.sol\":2220:2224  1000 */\n      0x03e8\n        /* \"contracts/HatTokenV2.sol\":2213:2216  fee */\n      dup2\n        /* \"contracts/HatTokenV2.sol\":2213:2224  fee <= 1000 */\n      gt\n      iszero\n        /* \"contracts/HatTokenV2.sol\":2179:2308  require(... */\n      tag_146\n      jumpi\n      mload(0x40)\n      shl(0xe5, 0x461bcd)\n      dup2\n      mstore\n        /* \"#utility.yul\":4511:4513   */\n      0x20\n        /* \"contracts/HatTokenV2.sol\":2179:2308  require(... */\n      0x04\n      dup3\n      add\n        /* \"#utility.yul\":4493:4514   */\n      mstore\n        /* \"#utility.yul\":4550:4552   */\n      0x38\n        /* \"#utility.yul\":4530:4548   */\n      0x24\n      dup3\n      add\n        /* \"#utility.yul\":4523:4553   */\n      mstore\n        /* \"#utility.yul\":4589:4623   */\n      0x4865726f204177616b656e20546f6b656e3a206c697175696469747920666565\n        /* \"#utility.yul\":4569:4587   */\n      0x44\n      dup3\n      add\n        /* \"#utility.yul\":4562:4624   */\n      mstore\n        /* \"#utility.yul\":4660:4686   */\n      0x206d757374206265747765656e203020616e6420313030300000000000000000\n        /* \"#utility.yul\":4640:4658   */\n      0x64\n      dup3\n      add\n        /* \"#utility.yul\":4633:4687   */\n      mstore\n        /* \"#utility.yul\":4704:4723   */\n      0x84\n      add\n        /* \"contracts/HatTokenV2.sol\":2179:2308  require(... */\n      tag_142\n        /* \"#utility.yul\":4309:4729   */\n      jump\n        /* \"contracts/HatTokenV2.sol\":2179:2308  require(... */\n    tag_146:\n        /* \"contracts/HatTokenV2.sol\":2321:2334  _liquidityFee */\n      0x06\n        /* \"contracts/HatTokenV2.sol\":2321:2340  _liquidityFee = fee */\n      sstore\n        /* \"contracts/HatTokenV2.sol\":2113:2348  function setLiquidityFee(uint256 fee) public onlyOwner {... */\n      jump\t// out\n        /* \"@openzeppelin/contracts/token/ERC20/ERC20.sol\":5873:6109  function increaseAllowance(address spender, uint256 addedValue) public virtual returns (bool) {... */\n    tag_58:\n        /* \"@openzeppelin/contracts/utils/Context.sol\":719:729  msg.sender */\n      caller\n        /* \"@openzeppelin/contracts/token/ERC20/ERC20.sol\":5961:5965  bool */\n      0x00\n        /* \"@openzeppelin/contracts/token/ERC20/ERC20.sol\":6040:6058  _allowances[owner] */\n      dup2\n      dup2\n      mstore\n        /* \"@openzeppelin/contracts/token/ERC20/ERC20.sol\":6040:6051  _allowances */\n      0x01\n        /* \"@openzeppelin/contracts/token/ERC20/ERC20.sol\":6040:6058  _allowances[owner] */\n      0x20\n      swap1\n      dup2\n      mstore\n      0x40\n      dup1\n      dup4\n      keccak256\n      sub(shl(0xa0, 0x01), 0x01)\n        /* \"@openzeppelin/contracts/token/ERC20/ERC20.sol\":6040:6067  _allowances[owner][spender] */\n      dup8\n      and\n      dup5\n      mstore\n      swap1\n      swap2\n      mstore\n      dup2\n      keccak256\n      sload\n        /* \"@openzeppelin/contracts/token/ERC20/ERC20.sol\":5961:5965  bool */\n      swap1\n      swap2\n        /* \"@openzeppelin/contracts/utils/Context.sol\":719:729  msg.sender */\n      swap1\n        /* \"@openzeppelin/contracts/token/ERC20/ERC20.sol\":6015:6081  _approve(owner, spender, _allowances[owner][spender] + addedValue) */\n      tag_128\n      swap1\n        /* \"@openzeppelin/contracts/utils/Context.sol\":719:729  msg.sender */\n      dup3\n      swap1\n        /* \"@openzeppelin/contracts/token/ERC20/ERC20.sol\":6040:6067  _allowances[owner][spender] */\n      dup7\n      swap1\n        /* \"@openzeppelin/contracts/token/ERC20/ERC20.sol\":6040:6080  _allowances[owner][spender] + addedValue */\n      tag_152\n      swap1\n        /* \"@openzeppelin/contracts/token/ERC20/ERC20.sol\":6070:6080  addedValue */\n      dup8\n      swap1\n        /* \"@openzeppelin/contracts/token/ERC20/ERC20.sol\":6040:6080  _allowances[owner][spender] + addedValue */\n      tag_153\n      jump\t// in\n    tag_152:\n        /* \"@openzeppelin/contracts/token/ERC20/ERC20.sol\":6015:6023  _approve */\n      tag_129\n        /* \"@openzeppelin/contracts/token/ERC20/ERC20.sol\":6015:6081  _approve(owner, spender, _allowances[owner][spender] + addedValue) */\n      jump\t// in\n        /* \"@openzeppelin/contracts/token/ERC20/extensions/ERC20Burnable.sol\":578:667  function burn(uint256 amount) public virtual {... */\n    tag_62:\n        /* \"@openzeppelin/contracts/token/ERC20/extensions/ERC20Burnable.sol\":633:660  _burn(_msgSender(), amount) */\n      tag_155\n        /* \"@openzeppelin/contracts/utils/Context.sol\":719:729  msg.sender */\n      caller\n        /* \"@openzeppelin/contracts/token/ERC20/extensions/ERC20Burnable.sol\":653:659  amount */\n      dup3\n        /* \"@openzeppelin/contracts/token/ERC20/extensions/ERC20Burnable.sol\":633:638  _burn */\n      tag_157\n        /* \"@openzeppelin/contracts/token/ERC20/extensions/ERC20Burnable.sol\":633:660  _burn(_msgSender(), amount) */\n      jump\t// in\n    tag_155:\n        /* \"@openzeppelin/contracts/token/ERC20/extensions/ERC20Burnable.sol\":578:667  function burn(uint256 amount) public virtual {... */\n      pop\n      jump\t// out\n        /* \"@openzeppelin/contracts/access/Ownable.sol\":1668:1769  function renounceOwnership() public virtual onlyOwner {... */\n    tag_69:\n        /* \"@openzeppelin/contracts/access/Ownable.sol\":1108:1114  _owner */\n      and(sub(shl(0xa0, 0x01), 0x01), sload(0x05))\n        /* \"@openzeppelin/contracts/utils/Context.sol\":719:729  msg.sender */\n      caller\n        /* \"@openzeppelin/contracts/access/Ownable.sol\":1248:1271  owner() == _msgSender() */\n      eq\n        /* \"@openzeppelin/contracts/access/Ownable.sol\":1240:1308  require(owner() == _msgSender(), \"Ownable: caller is not the owner\") */\n      tag_162\n      jumpi\n      mload(0x40)\n      shl(0xe5, 0x461bcd)\n      dup2\n      mstore\n      0x04\n      add\n      tag_142\n      swap1\n      tag_143\n      jump\t// in\n    tag_162:\n        /* \"@openzeppelin/contracts/access/Ownable.sol\":1732:1762  _transferOwnership(address(0)) */\n      tag_165\n        /* \"@openzeppelin/contracts/access/Ownable.sol\":1759:1760  0 */\n      0x00\n        /* \"@openzeppelin/contracts/access/Ownable.sol\":1732:1750  _transferOwnership */\n      tag_166\n        /* \"@openzeppelin/contracts/access/Ownable.sol\":1732:1762  _transferOwnership(address(0)) */\n      jump\t// in\n    tag_165:\n        /* \"@openzeppelin/contracts/access/Ownable.sol\":1668:1769  function renounceOwnership() public virtual onlyOwner {... */\n      jump\t// out\n        /* \"@openzeppelin/contracts/token/ERC20/extensions/ERC20Burnable.sol\":973:1134  function burnFrom(address account, uint256 amount) public virtual {... */\n    tag_72:\n        /* \"@openzeppelin/contracts/token/ERC20/extensions/ERC20Burnable.sol\":1049:1095  _spendAllowance(account, _msgSender(), amount) */\n      tag_168\n        /* \"@openzeppelin/contracts/token/ERC20/extensions/ERC20Burnable.sol\":1065:1072  account */\n      dup3\n        /* \"@openzeppelin/contracts/utils/Context.sol\":719:729  msg.sender */\n      caller\n        /* \"@openzeppelin/contracts/token/ERC20/extensions/ERC20Burnable.sol\":1088:1094  amount */\n      dup4\n        /* \"@openzeppelin/contracts/token/ERC20/extensions/ERC20Burnable.sol\":1049:1064  _spendAllowance */\n      tag_134\n        /* \"@openzeppelin/contracts/token/ERC20/extensions/ERC20Burnable.sol\":1049:1095  _spendAllowance(account, _msgSender(), amount) */\n      jump\t// in\n    tag_168:\n        /* \"@openzeppelin/contracts/token/ERC20/extensions/ERC20Burnable.sol\":1105:1127  _burn(account, amount) */\n      tag_170\n        /* \"@openzeppelin/contracts/token/ERC20/extensions/ERC20Burnable.sol\":1111:1118  account */\n      dup3\n        /* \"@openzeppelin/contracts/token/ERC20/extensions/ERC20Burnable.sol\":1120:1126  amount */\n      dup3\n        /* \"@openzeppelin/contracts/token/ERC20/extensions/ERC20Burnable.sol\":1105:1110  _burn */\n      tag_157\n        /* \"@openzeppelin/contracts/token/ERC20/extensions/ERC20Burnable.sol\":1105:1127  _burn(account, amount) */\n      jump\t// in\n    tag_170:\n        /* \"@openzeppelin/contracts/token/ERC20/extensions/ERC20Burnable.sol\":973:1134  function burnFrom(address account, uint256 amount) public virtual {... */\n      pop\n      pop\n      jump\t// out\n        /* \"contracts/HatTokenV2.sol\":1444:1529  function getOwner() external view returns (address) {... */\n    tag_78:\n        /* \"contracts/HatTokenV2.sol\":1487:1494  address */\n      0x00\n        /* \"contracts/HatTokenV2.sol\":1514:1521  owner() */\n      tag_173\n        /* \"@openzeppelin/contracts/access/Ownable.sol\":1108:1114  _owner */\n      and(sub(shl(0xa0, 0x01), 0x01), sload(0x05))\n      swap1\n        /* \"@openzeppelin/contracts/access/Ownable.sol\":1036:1121  function owner() public view virtual returns (address) {... */\n      jump\n        /* \"contracts/HatTokenV2.sol\":1514:1521  owner() */\n    tag_173:\n        /* \"contracts/HatTokenV2.sol\":1507:1521  return owner() */\n      swap1\n      pop\n        /* \"contracts/HatTokenV2.sol\":1444:1529  function getOwner() external view returns (address) {... */\n      swap1\n      jump\t// out\n        /* \"contracts/HatTokenV2.sol\":1893:2105  function blockUser(... */\n    tag_83:\n        /* \"@openzeppelin/contracts/access/Ownable.sol\":1108:1114  _owner */\n      and(sub(shl(0xa0, 0x01), 0x01), sload(0x05))\n        /* \"@openzeppelin/contracts/utils/Context.sol\":719:729  msg.sender */\n      caller\n        /* \"@openzeppelin/contracts/access/Ownable.sol\":1248:1271  owner() == _msgSender() */\n      eq\n        /* \"@openzeppelin/contracts/access/Ownable.sol\":1240:1308  require(owner() == _msgSender(), \"Ownable: caller is not the owner\") */\n      tag_177\n      jumpi\n      mload(0x40)\n      shl(0xe5, 0x461bcd)\n      dup2\n      mstore\n      0x04\n      add\n      tag_142\n      swap1\n      tag_143\n      jump\t// in\n    tag_177:\n      sub(shl(0xa0, 0x01), 0x01)\n        /* \"contracts/HatTokenV2.sol\":2021:2040  _blockSenders[user] */\n      swap1\n      swap3\n      and\n      0x00\n      swap1\n      dup2\n      mstore\n        /* \"contracts/HatTokenV2.sol\":2021:2034  _blockSenders */\n      0x08\n        /* \"contracts/HatTokenV2.sol\":2021:2040  _blockSenders[user] */\n      0x20\n      swap1\n      dup2\n      mstore\n      0x40\n      dup1\n      dup4\n      keccak256\n        /* \"contracts/HatTokenV2.sol\":2021:2051  _blockSenders[user] = can_send */\n      dup1\n      sload\n      swap5\n      iszero\n      iszero\n      not(0xff)\n      swap6\n      dup7\n      and\n      or\n      swap1\n      sstore\n        /* \"contracts/HatTokenV2.sol\":2062:2077  _blockReceivers */\n      0x09\n        /* \"contracts/HatTokenV2.sol\":2062:2083  _blockReceivers[user] */\n      swap1\n      swap2\n      mstore\n      swap1\n      keccak256\n        /* \"contracts/HatTokenV2.sol\":2062:2097  _blockReceivers[user] = can_receive */\n      dup1\n      sload\n      swap3\n      iszero\n      iszero\n      swap3\n      swap1\n      swap2\n      and\n      swap2\n      swap1\n      swap2\n      or\n      swap1\n      sstore\n        /* \"contracts/HatTokenV2.sol\":1893:2105  function blockUser(... */\n      jump\t// out\n        /* \"@openzeppelin/contracts/token/ERC20/ERC20.sol\":2367:2469  function symbol() public view virtual override returns (string memory) {... */\n    tag_88:\n        /* \"@openzeppelin/contracts/token/ERC20/ERC20.sol\":2423:2436  string memory */\n      0x60\n        /* \"@openzeppelin/contracts/token/ERC20/ERC20.sol\":2455:2462  _symbol */\n      0x04\n        /* \"@openzeppelin/contracts/token/ERC20/ERC20.sol\":2448:2462  return _symbol */\n      dup1\n      sload\n      tag_119\n      swap1\n      tag_120\n      jump\t// in\n        /* \"contracts/HatTokenV2.sol\":2356:2461  function setLiquidityKeeper(address keeper) public onlyOwner {... */\n    tag_95:\n        /* \"@openzeppelin/contracts/access/Ownable.sol\":1108:1114  _owner */\n      and(sub(shl(0xa0, 0x01), 0x01), sload(0x05))\n        /* \"@openzeppelin/contracts/utils/Context.sol\":719:729  msg.sender */\n      caller\n        /* \"@openzeppelin/contracts/access/Ownable.sol\":1248:1271  owner() == _msgSender() */\n      eq\n        /* \"@openzeppelin/contracts/access/Ownable.sol\":1240:1308  require(owner() == _msgSender(), \"Ownable: caller is not the owner\") */\n      tag_191\n      jumpi\n      mload(0x40)\n      shl(0xe5, 0x461bcd)\n      dup2\n      mstore\n      0x04\n      add\n      tag_142\n      swap1\n      tag_143\n      jump\t// in\n    tag_191:\n        /* \"contracts/HatTokenV2.sol\":2428:2444  _liquidityKeeper */\n      0x07\n        /* \"contracts/HatTokenV2.sol\":2428:2453  _liquidityKeeper = keeper */\n      dup1\n      sload\n      not(sub(shl(0xa0, 0x01), 0x01))\n      and\n      sub(shl(0xa0, 0x01), 0x01)\n      swap3\n      swap1\n      swap3\n      and\n      swap2\n      swap1\n      swap2\n      or\n      swap1\n      sstore\n        /* \"contracts/HatTokenV2.sol\":2356:2461  function setLiquidityKeeper(address keeper) public onlyOwner {... */\n      jump\t// out\n        /* \"@openzeppelin/contracts/token/ERC20/ERC20.sol\":6596:7025  function decreaseAllowance(address spender, uint256 subtractedValue) public virtual returns (bool) {... */\n    tag_98:\n        /* \"@openzeppelin/contracts/utils/Context.sol\":719:729  msg.sender */\n      caller\n        /* \"@openzeppelin/contracts/token/ERC20/ERC20.sol\":6689:6693  bool */\n      0x00\n        /* \"@openzeppelin/contracts/token/ERC20/ERC20.sol\":6770:6788  _allowances[owner] */\n      dup2\n      dup2\n      mstore\n        /* \"@openzeppelin/contracts/token/ERC20/ERC20.sol\":6770:6781  _allowances */\n      0x01\n        /* \"@openzeppelin/contracts/token/ERC20/ERC20.sol\":6770:6788  _allowances[owner] */\n      0x20\n      swap1\n      dup2\n      mstore\n      0x40\n      dup1\n      dup4\n      keccak256\n      sub(shl(0xa0, 0x01), 0x01)\n        /* \"@openzeppelin/contracts/token/ERC20/ERC20.sol\":6770:6797  _allowances[owner][spender] */\n      dup8\n      and\n      dup5\n      mstore\n      swap1\n      swap2\n      mstore\n      dup2\n      keccak256\n      sload\n        /* \"@openzeppelin/contracts/token/ERC20/ERC20.sol\":6689:6693  bool */\n      swap1\n      swap2\n        /* \"@openzeppelin/contracts/utils/Context.sol\":719:729  msg.sender */\n      swap1\n        /* \"@openzeppelin/contracts/token/ERC20/ERC20.sol\":6815:6850  currentAllowance >= subtractedValue */\n      dup4\n      dup2\n      lt\n      iszero\n        /* \"@openzeppelin/contracts/token/ERC20/ERC20.sol\":6807:6892  require(currentAllowance >= subtractedValue, \"ERC20: decreased allowance below zero\") */\n      tag_196\n      jumpi\n      mload(0x40)\n      shl(0xe5, 0x461bcd)\n      dup2\n      mstore\n        /* \"#utility.yul\":5201:5203   */\n      0x20\n        /* \"@openzeppelin/contracts/token/ERC20/ERC20.sol\":6807:6892  require(currentAllowance >= subtractedValue, \"ERC20: decreased allowance below zero\") */\n      0x04\n      dup3\n      add\n        /* \"#utility.yul\":5183:5204   */\n      mstore\n        /* \"#utility.yul\":5240:5242   */\n      0x25\n        /* \"#utility.yul\":5220:5238   */\n      0x24\n      dup3\n      add\n        /* \"#utility.yul\":5213:5243   */\n      mstore\n        /* \"#utility.yul\":5279:5313   */\n      0x45524332303a2064656372656173656420616c6c6f77616e63652062656c6f77\n        /* \"#utility.yul\":5259:5277   */\n      0x44\n      dup3\n      add\n        /* \"#utility.yul\":5252:5314   */\n      mstore\n      shl(0xd8, 0x207a65726f)\n        /* \"#utility.yul\":5330:5348   */\n      0x64\n      dup3\n      add\n        /* \"#utility.yul\":5323:5358   */\n      mstore\n        /* \"#utility.yul\":5375:5394   */\n      0x84\n      add\n        /* \"@openzeppelin/contracts/token/ERC20/ERC20.sol\":6807:6892  require(currentAllowance >= subtractedValue, \"ERC20: decreased allowance below zero\") */\n      tag_142\n        /* \"#utility.yul\":4999:5400   */\n      jump\n        /* \"@openzeppelin/contracts/token/ERC20/ERC20.sol\":6807:6892  require(currentAllowance >= subtractedValue, \"ERC20: decreased allowance below zero\") */\n    tag_196:\n        /* \"@openzeppelin/contracts/token/ERC20/ERC20.sol\":6926:6986  _approve(owner, spender, currentAllowance - subtractedValue) */\n      tag_135\n        /* \"@openzeppelin/contracts/token/ERC20/ERC20.sol\":6935:6940  owner */\n      dup3\n        /* \"@openzeppelin/contracts/token/ERC20/ERC20.sol\":6942:6949  spender */\n      dup7\n        /* \"@openzeppelin/contracts/token/ERC20/ERC20.sol\":6970:6985  subtractedValue */\n      dup7\n        /* \"@openzeppelin/contracts/token/ERC20/ERC20.sol\":6951:6967  currentAllowance */\n      dup5\n        /* \"@openzeppelin/contracts/token/ERC20/ERC20.sol\":6951:6985  currentAllowance - subtractedValue */\n      sub\n        /* \"@openzeppelin/contracts/token/ERC20/ERC20.sol\":6926:6934  _approve */\n      tag_129\n        /* \"@openzeppelin/contracts/token/ERC20/ERC20.sol\":6926:6986  _approve(owner, spender, currentAllowance - subtractedValue) */\n      jump\t// in\n        /* \"@openzeppelin/contracts/token/ERC20/ERC20.sol\":3729:3918  function transfer(address to, uint256 amount) public virtual override returns (bool) {... */\n    tag_102:\n        /* \"@openzeppelin/contracts/token/ERC20/ERC20.sol\":3808:3812  bool */\n      0x00\n        /* \"@openzeppelin/contracts/utils/Context.sol\":719:729  msg.sender */\n      caller\n        /* \"@openzeppelin/contracts/token/ERC20/ERC20.sol\":3862:3890  _transfer(owner, to, amount) */\n      tag_128\n        /* \"@openzeppelin/contracts/utils/Context.sol\":719:729  msg.sender */\n      dup2\n        /* \"@openzeppelin/contracts/token/ERC20/ERC20.sol\":3879:3881  to */\n      dup6\n        /* \"@openzeppelin/contracts/token/ERC20/ERC20.sol\":3883:3889  amount */\n      dup6\n        /* \"@openzeppelin/contracts/token/ERC20/ERC20.sol\":3862:3871  _transfer */\n      tag_136\n        /* \"@openzeppelin/contracts/token/ERC20/ERC20.sol\":3862:3890  _transfer(owner, to, amount) */\n      jump\t// in\n        /* \"@openzeppelin/contracts/access/Ownable.sol\":1918:2116  function transferOwnership(address newOwner) public virtual onlyOwner {... */\n    tag_116:\n        /* \"@openzeppelin/contracts/access/Ownable.sol\":1108:1114  _owner */\n      and(sub(shl(0xa0, 0x01), 0x01), sload(0x05))\n        /* \"@openzeppelin/contracts/utils/Context.sol\":719:729  msg.sender */\n      caller\n        /* \"@openzeppelin/contracts/access/Ownable.sol\":1248:1271  owner() == _msgSender() */\n      eq\n        /* \"@openzeppelin/contracts/access/Ownable.sol\":1240:1308  require(owner() == _msgSender(), \"Ownable: caller is not the owner\") */\n      tag_208\n      jumpi\n      mload(0x40)\n      shl(0xe5, 0x461bcd)\n      dup2\n      mstore\n      0x04\n      add\n      tag_142\n      swap1\n      tag_143\n      jump\t// in\n    tag_208:\n      sub(shl(0xa0, 0x01), 0x01)\n        /* \"@openzeppelin/contracts/access/Ownable.sol\":2006:2028  newOwner != address(0) */\n      dup2\n      and\n        /* \"@openzeppelin/contracts/access/Ownable.sol\":1998:2071  require(newOwner != address(0), \"Ownable: new owner is the zero address\") */\n      tag_211\n      jumpi\n      mload(0x40)\n      shl(0xe5, 0x461bcd)\n      dup2\n      mstore\n        /* \"#utility.yul\":5607:5609   */\n      0x20\n        /* \"@openzeppelin/contracts/access/Ownable.sol\":1998:2071  require(newOwner != address(0), \"Ownable: new owner is the zero address\") */\n      0x04\n      dup3\n      add\n        /* \"#utility.yul\":5589:5610   */\n      mstore\n        /* \"#utility.yul\":5646:5648   */\n      0x26\n        /* \"#utility.yul\":5626:5644   */\n      0x24\n      dup3\n      add\n        /* \"#utility.yul\":5619:5649   */\n      mstore\n        /* \"#utility.yul\":5685:5719   */\n      0x4f776e61626c653a206e6577206f776e657220697320746865207a65726f2061\n        /* \"#utility.yul\":5665:5683   */\n      0x44\n      dup3\n      add\n        /* \"#utility.yul\":5658:5720   */\n      mstore\n      shl(0xd0, 0x646472657373)\n        /* \"#utility.yul\":5736:5754   */\n      0x64\n      dup3\n      add\n        /* \"#utility.yul\":5729:5765   */\n      mstore\n        /* \"#utility.yul\":5782:5801   */\n      0x84\n      add\n        /* \"@openzeppelin/contracts/access/Ownable.sol\":1998:2071  require(newOwner != address(0), \"Ownable: new owner is the zero address\") */\n      tag_142\n        /* \"#utility.yul\":5405:5807   */\n      jump\n        /* \"@openzeppelin/contracts/access/Ownable.sol\":1998:2071  require(newOwner != address(0), \"Ownable: new owner is the zero address\") */\n    tag_211:\n        /* \"@openzeppelin/contracts/access/Ownable.sol\":2081:2109  _transferOwnership(newOwner) */\n      tag_155\n        /* \"@openzeppelin/contracts/access/Ownable.sol\":2100:2108  newOwner */\n      dup2\n        /* \"@openzeppelin/contracts/access/Ownable.sol\":2081:2099  _transferOwnership */\n      tag_166\n        /* \"@openzeppelin/contracts/access/Ownable.sol\":2081:2109  _transferOwnership(newOwner) */\n      jump\t// in\n        /* \"@openzeppelin/contracts/token/ERC20/ERC20.sol\":11795:11916  function _beforeTokenTransfer(... */\n    tag_117:\n      pop\n      pop\n      pop\n      jump\t// out\n        /* \"@openzeppelin/contracts/token/ERC20/ERC20.sol\":10123:10493  function _approve(... */\n    tag_129:\n      sub(shl(0xa0, 0x01), 0x01)\n        /* \"@openzeppelin/contracts/token/ERC20/ERC20.sol\":10254:10273  owner != address(0) */\n      dup4\n      and\n        /* \"@openzeppelin/contracts/token/ERC20/ERC20.sol\":10246:10314  require(owner != address(0), \"ERC20: approve from the zero address\") */\n      tag_218\n      jumpi\n      mload(0x40)\n      shl(0xe5, 0x461bcd)\n      dup2\n      mstore\n        /* \"#utility.yul\":6014:6016   */\n      0x20\n        /* \"@openzeppelin/contracts/token/ERC20/ERC20.sol\":10246:10314  require(owner != address(0), \"ERC20: approve from the zero address\") */\n      0x04\n      dup3\n      add\n        /* \"#utility.yul\":5996:6017   */\n      mstore\n        /* \"#utility.yul\":6053:6055   */\n      0x24\n        /* \"#utility.yul\":6033:6051   */\n      dup1\n      dup3\n      add\n        /* \"#utility.yul\":6026:6056   */\n      mstore\n        /* \"#utility.yul\":6092:6126   */\n      0x45524332303a20617070726f76652066726f6d20746865207a65726f20616464\n        /* \"#utility.yul\":6072:6090   */\n      0x44\n      dup3\n      add\n        /* \"#utility.yul\":6065:6127   */\n      mstore\n      shl(0xe0, 0x72657373)\n        /* \"#utility.yul\":6143:6161   */\n      0x64\n      dup3\n      add\n        /* \"#utility.yul\":6136:6170   */\n      mstore\n        /* \"#utility.yul\":6187:6206   */\n      0x84\n      add\n        /* \"@openzeppelin/contracts/token/ERC20/ERC20.sol\":10246:10314  require(owner != address(0), \"ERC20: approve from the zero address\") */\n      tag_142\n        /* \"#utility.yul\":5812:6212   */\n      jump\n        /* \"@openzeppelin/contracts/token/ERC20/ERC20.sol\":10246:10314  require(owner != address(0), \"ERC20: approve from the zero address\") */\n    tag_218:\n      sub(shl(0xa0, 0x01), 0x01)\n        /* \"@openzeppelin/contracts/token/ERC20/ERC20.sol\":10332:10353  spender != address(0) */\n      dup3\n      and\n        /* \"@openzeppelin/contracts/token/ERC20/ERC20.sol\":10324:10392  require(spender != address(0), \"ERC20: approve to the zero address\") */\n      tag_221\n      jumpi\n      mload(0x40)\n      shl(0xe5, 0x461bcd)\n      dup2\n      mstore\n        /* \"#utility.yul\":6419:6421   */\n      0x20\n        /* \"@openzeppelin/contracts/token/ERC20/ERC20.sol\":10324:10392  require(spender != address(0), \"ERC20: approve to the zero address\") */\n      0x04\n      dup3\n      add\n        /* \"#utility.yul\":6401:6422   */\n      mstore\n        /* \"#utility.yul\":6458:6460   */\n      0x22\n        /* \"#utility.yul\":6438:6456   */\n      0x24\n      dup3\n      add\n        /* \"#utility.yul\":6431:6461   */\n      mstore\n        /* \"#utility.yul\":6497:6531   */\n      0x45524332303a20617070726f766520746f20746865207a65726f206164647265\n        /* \"#utility.yul\":6477:6495   */\n      0x44\n      dup3\n      add\n        /* \"#utility.yul\":6470:6532   */\n      mstore\n      shl(0xf0, 0x7373)\n        /* \"#utility.yul\":6548:6566   */\n      0x64\n      dup3\n      add\n        /* \"#utility.yul\":6541:6573   */\n      mstore\n        /* \"#utility.yul\":6590:6609   */\n      0x84\n      add\n        /* \"@openzeppelin/contracts/token/ERC20/ERC20.sol\":10324:10392  require(spender != address(0), \"ERC20: approve to the zero address\") */\n      tag_142\n        /* \"#utility.yul\":6217:6615   */\n      jump\n        /* \"@openzeppelin/contracts/token/ERC20/ERC20.sol\":10324:10392  require(spender != address(0), \"ERC20: approve to the zero address\") */\n    tag_221:\n      sub(shl(0xa0, 0x01), 0x01)\n        /* \"@openzeppelin/contracts/token/ERC20/ERC20.sol\":10403:10421  _allowances[owner] */\n      dup4\n      dup2\n      and\n      0x00\n      dup2\n      dup2\n      mstore\n        /* \"@openzeppelin/contracts/token/ERC20/ERC20.sol\":10403:10414  _allowances */\n      0x01\n        /* \"@openzeppelin/contracts/token/ERC20/ERC20.sol\":10403:10421  _allowances[owner] */\n      0x20\n      swap1\n      dup2\n      mstore\n      0x40\n      dup1\n      dup4\n      keccak256\n        /* \"@openzeppelin/contracts/token/ERC20/ERC20.sol\":10403:10430  _allowances[owner][spender] */\n      swap5\n      dup8\n      and\n      dup1\n      dup5\n      mstore\n      swap5\n      dup3\n      mstore\n      swap2\n      dup3\n      swap1\n      keccak256\n        /* \"@openzeppelin/contracts/token/ERC20/ERC20.sol\":10403:10439  _allowances[owner][spender] = amount */\n      dup6\n      swap1\n      sstore\n        /* \"@openzeppelin/contracts/token/ERC20/ERC20.sol\":10454:10486  Approval(owner, spender, amount) */\n      swap1\n      mload\n        /* \"#utility.yul\":1391:1416   */\n      dup5\n      dup2\n      mstore\n        /* \"@openzeppelin/contracts/token/ERC20/ERC20.sol\":10454:10486  Approval(owner, spender, amount) */\n      0x8c5be1e5ebec7d5bd14f71427d1e84f3dd0314c0f7b2291e5b200ac8c7c3b925\n      swap2\n        /* \"#utility.yul\":1364:1382   */\n      add\n        /* \"@openzeppelin/contracts/token/ERC20/ERC20.sol\":10454:10486  Approval(owner, spender, amount) */\n      mload(0x40)\n      dup1\n      swap2\n      sub\n      swap1\n      log3\n        /* \"@openzeppelin/contracts/token/ERC20/ERC20.sol\":10123:10493  function _approve(... */\n      pop\n      pop\n      pop\n      jump\t// out\n        /* \"@openzeppelin/contracts/token/ERC20/ERC20.sol\":10770:11211  function _spendAllowance(... */\n    tag_134:\n      sub(shl(0xa0, 0x01), 0x01)\n        /* \"@openzeppelin/contracts/token/ERC20/ERC20.sol\":4091:4109  _allowances[owner] */\n      dup4\n      dup2\n      and\n        /* \"@openzeppelin/contracts/token/ERC20/ERC20.sol\":10900:10924  uint256 currentAllowance */\n      0x00\n        /* \"@openzeppelin/contracts/token/ERC20/ERC20.sol\":4091:4109  _allowances[owner] */\n      swap1\n      dup2\n      mstore\n        /* \"@openzeppelin/contracts/token/ERC20/ERC20.sol\":4091:4102  _allowances */\n      0x01\n        /* \"@openzeppelin/contracts/token/ERC20/ERC20.sol\":4091:4109  _allowances[owner] */\n      0x20\n      swap1\n      dup2\n      mstore\n      0x40\n      dup1\n      dup4\n      keccak256\n        /* \"@openzeppelin/contracts/token/ERC20/ERC20.sol\":4091:4118  _allowances[owner][spender] */\n      swap4\n      dup7\n      and\n      dup4\n      mstore\n      swap3\n      swap1\n      mstore\n      keccak256\n      sload\n      not(0x00)\n        /* \"@openzeppelin/contracts/token/ERC20/ERC20.sol\":10966:11003  currentAllowance != type(uint256).max */\n      dup2\n      eq\n        /* \"@openzeppelin/contracts/token/ERC20/ERC20.sol\":10962:11205  if (currentAllowance != type(uint256).max) {... */\n      tag_231\n      jumpi\n        /* \"@openzeppelin/contracts/token/ERC20/ERC20.sol\":11047:11053  amount */\n      dup2\n        /* \"@openzeppelin/contracts/token/ERC20/ERC20.sol\":11027:11043  currentAllowance */\n      dup2\n        /* \"@openzeppelin/contracts/token/ERC20/ERC20.sol\":11027:11053  currentAllowance >= amount */\n      lt\n      iszero\n        /* \"@openzeppelin/contracts/token/ERC20/ERC20.sol\":11019:11087  require(currentAllowance >= amount, \"ERC20: insufficient allowance\") */\n      tag_228\n      jumpi\n      mload(0x40)\n      shl(0xe5, 0x461bcd)\n      dup2\n      mstore\n        /* \"#utility.yul\":6822:6824   */\n      0x20\n        /* \"@openzeppelin/contracts/token/ERC20/ERC20.sol\":11019:11087  require(currentAllowance >= amount, \"ERC20: insufficient allowance\") */\n      0x04\n      dup3\n      add\n        /* \"#utility.yul\":6804:6825   */\n      mstore\n        /* \"#utility.yul\":6861:6863   */\n      0x1d\n        /* \"#utility.yul\":6841:6859   */\n      0x24\n      dup3\n      add\n        /* \"#utility.yul\":6834:6864   */\n      mstore\n        /* \"#utility.yul\":6900:6931   */\n      0x45524332303a20696e73756666696369656e7420616c6c6f77616e6365000000\n        /* \"#utility.yul\":6880:6898   */\n      0x44\n      dup3\n      add\n        /* \"#utility.yul\":6873:6932   */\n      mstore\n        /* \"#utility.yul\":6949:6967   */\n      0x64\n      add\n        /* \"@openzeppelin/contracts/token/ERC20/ERC20.sol\":11019:11087  require(currentAllowance >= amount, \"ERC20: insufficient allowance\") */\n      tag_142\n        /* \"#utility.yul\":6620:6973   */\n      jump\n        /* \"@openzeppelin/contracts/token/ERC20/ERC20.sol\":11019:11087  require(currentAllowance >= amount, \"ERC20: insufficient allowance\") */\n    tag_228:\n        /* \"@openzeppelin/contracts/token/ERC20/ERC20.sol\":11129:11180  _approve(owner, spender, currentAllowance - amount) */\n      tag_231\n        /* \"@openzeppelin/contracts/token/ERC20/ERC20.sol\":11138:11143  owner */\n      dup5\n        /* \"@openzeppelin/contracts/token/ERC20/ERC20.sol\":11145:11152  spender */\n      dup5\n        /* \"@openzeppelin/contracts/token/ERC20/ERC20.sol\":11173:11179  amount */\n      dup5\n        /* \"@openzeppelin/contracts/token/ERC20/ERC20.sol\":11154:11170  currentAllowance */\n      dup5\n        /* \"@openzeppelin/contracts/token/ERC20/ERC20.sol\":11154:11179  currentAllowance - amount */\n      sub\n        /* \"@openzeppelin/contracts/token/ERC20/ERC20.sol\":11129:11137  _approve */\n      tag_129\n        /* \"@openzeppelin/contracts/token/ERC20/ERC20.sol\":11129:11180  _approve(owner, spender, currentAllowance - amount) */\n      jump\t// in\n    tag_231:\n        /* \"@openzeppelin/contracts/token/ERC20/ERC20.sol\":10890:11211  {... */\n      pop\n        /* \"@openzeppelin/contracts/token/ERC20/ERC20.sol\":10770:11211  function _spendAllowance(... */\n      pop\n      pop\n      pop\n      jump\t// out\n        /* \"contracts/HatTokenV2.sol\":2940:3246  function _transfer(... */\n    tag_136:\n        /* \"contracts/HatTokenV2.sol\":3064:3075  uint256 fee */\n      0x00\n        /* \"contracts/HatTokenV2.sol\":3078:3113  amount.mul(_liquidityFee).div(1000) */\n      tag_233\n        /* \"contracts/HatTokenV2.sol\":3108:3112  1000 */\n      0x03e8\n        /* \"contracts/HatTokenV2.sol\":3078:3103  amount.mul(_liquidityFee) */\n      tag_234\n        /* \"contracts/HatTokenV2.sol\":3089:3102  _liquidityFee */\n      sload(0x06)\n        /* \"contracts/HatTokenV2.sol\":3078:3084  amount */\n      dup6\n        /* \"contracts/HatTokenV2.sol\":3078:3088  amount.mul */\n      tag_235\n      swap1\n        /* \"contracts/HatTokenV2.sol\":3078:3103  amount.mul(_liquidityFee) */\n      swap2\n      swap1\n      0xffffffff\n      and\n      jump\t// in\n    tag_234:\n        /* \"contracts/HatTokenV2.sol\":3078:3107  amount.mul(_liquidityFee).div */\n      swap1\n      tag_236\n        /* \"contracts/HatTokenV2.sol\":3078:3113  amount.mul(_liquidityFee).div(1000) */\n      jump\t// in\n    tag_233:\n        /* \"contracts/HatTokenV2.sol\":3064:3113  uint256 fee = amount.mul(_liquidityFee).div(1000) */\n      swap1\n      pop\n        /* \"contracts/HatTokenV2.sol\":3124:3137  amount -= fee */\n      tag_237\n        /* \"contracts/HatTokenV2.sol\":3064:3113  uint256 fee = amount.mul(_liquidityFee).div(1000) */\n      dup2\n        /* \"contracts/HatTokenV2.sol\":3124:3137  amount -= fee */\n      dup4\n      tag_238\n      jump\t// in\n    tag_237:\n      swap2\n      pop\n        /* \"contracts/HatTokenV2.sol\":3150:3183  super._transfer(from, to, amount) */\n      tag_239\n        /* \"contracts/HatTokenV2.sol\":3166:3170  from */\n      dup5\n        /* \"contracts/HatTokenV2.sol\":3172:3174  to */\n      dup5\n        /* \"contracts/HatTokenV2.sol\":3176:3182  amount */\n      dup5\n        /* \"contracts/HatTokenV2.sol\":3150:3165  super._transfer */\n      tag_240\n        /* \"contracts/HatTokenV2.sol\":3150:3183  super._transfer(from, to, amount) */\n      jump\t// in\n    tag_239:\n        /* \"contracts/HatTokenV2.sol\":3216:3232  _liquidityKeeper */\n      sload(0x07)\n        /* \"contracts/HatTokenV2.sol\":3194:3238  super._transfer(from, _liquidityKeeper, fee) */\n      tag_231\n      swap1\n        /* \"contracts/HatTokenV2.sol\":3210:3214  from */\n      dup6\n      swap1\n      sub(shl(0xa0, 0x01), 0x01)\n        /* \"contracts/HatTokenV2.sol\":3216:3232  _liquidityKeeper */\n      and\n        /* \"contracts/HatTokenV2.sol\":3234:3237  fee */\n      dup4\n        /* \"contracts/HatTokenV2.sol\":3194:3209  super._transfer */\n      tag_240\n        /* \"contracts/HatTokenV2.sol\":3194:3238  super._transfer(from, _liquidityKeeper, fee) */\n      jump\t// in\n        /* \"@openzeppelin/contracts/token/ERC20/ERC20.sol\":9124:9700  function _burn(address account, uint256 amount) internal virtual {... */\n    tag_157:\n      sub(shl(0xa0, 0x01), 0x01)\n        /* \"@openzeppelin/contracts/token/ERC20/ERC20.sol\":9207:9228  account != address(0) */\n      dup3\n      and\n        /* \"@openzeppelin/contracts/token/ERC20/ERC20.sol\":9199:9266  require(account != address(0), \"ERC20: burn from the zero address\") */\n      tag_243\n      jumpi\n      mload(0x40)\n      shl(0xe5, 0x461bcd)\n      dup2\n      mstore\n        /* \"#utility.yul\":7310:7312   */\n      0x20\n        /* \"@openzeppelin/contracts/token/ERC20/ERC20.sol\":9199:9266  require(account != address(0), \"ERC20: burn from the zero address\") */\n      0x04\n      dup3\n      add\n        /* \"#utility.yul\":7292:7313   */\n      mstore\n        /* \"#utility.yul\":7349:7351   */\n      0x21\n        /* \"#utility.yul\":7329:7347   */\n      0x24\n      dup3\n      add\n        /* \"#utility.yul\":7322:7352   */\n      mstore\n        /* \"#utility.yul\":7388:7422   */\n      0x45524332303a206275726e2066726f6d20746865207a65726f20616464726573\n        /* \"#utility.yul\":7368:7386   */\n      0x44\n      dup3\n      add\n        /* \"#utility.yul\":7361:7423   */\n      mstore\n      shl(0xf8, 0x73)\n        /* \"#utility.yul\":7439:7457   */\n      0x64\n      dup3\n      add\n        /* \"#utility.yul\":7432:7463   */\n      mstore\n        /* \"#utility.yul\":7480:7499   */\n      0x84\n      add\n        /* \"@openzeppelin/contracts/token/ERC20/ERC20.sol\":9199:9266  require(account != address(0), \"ERC20: burn from the zero address\") */\n      tag_142\n        /* \"#utility.yul\":7108:7505   */\n      jump\n        /* \"@openzeppelin/contracts/token/ERC20/ERC20.sol\":9199:9266  require(account != address(0), \"ERC20: burn from the zero address\") */\n    tag_243:\n        /* \"@openzeppelin/contracts/token/ERC20/ERC20.sol\":9277:9326  _beforeTokenTransfer(account, address(0), amount) */\n      tag_246\n        /* \"@openzeppelin/contracts/token/ERC20/ERC20.sol\":9298:9305  account */\n      dup3\n        /* \"@openzeppelin/contracts/token/ERC20/ERC20.sol\":9315:9316  0 */\n      0x00\n        /* \"@openzeppelin/contracts/token/ERC20/ERC20.sol\":9319:9325  amount */\n      dup4\n        /* \"@openzeppelin/contracts/token/ERC20/ERC20.sol\":9277:9297  _beforeTokenTransfer */\n      tag_247\n        /* \"@openzeppelin/contracts/token/ERC20/ERC20.sol\":9277:9326  _beforeTokenTransfer(account, address(0), amount) */\n      jump\t// in\n    tag_246:\n      sub(shl(0xa0, 0x01), 0x01)\n        /* \"@openzeppelin/contracts/token/ERC20/ERC20.sol\":9362:9380  _balances[account] */\n      dup3\n      and\n        /* \"@openzeppelin/contracts/token/ERC20/ERC20.sol\":9337:9359  uint256 accountBalance */\n      0x00\n        /* \"@openzeppelin/contracts/token/ERC20/ERC20.sol\":9362:9380  _balances[account] */\n      swap1\n      dup2\n      mstore\n      0x20\n      dup2\n      swap1\n      mstore\n      0x40\n      swap1\n      keccak256\n      sload\n        /* \"@openzeppelin/contracts/token/ERC20/ERC20.sol\":9398:9422  accountBalance >= amount */\n      dup2\n      dup2\n      lt\n      iszero\n        /* \"@openzeppelin/contracts/token/ERC20/ERC20.sol\":9390:9461  require(accountBalance >= amount, \"ERC20: burn amount exceeds balance\") */\n      tag_248\n      jumpi\n      mload(0x40)\n      shl(0xe5, 0x461bcd)\n      dup2\n      mstore\n        /* \"#utility.yul\":7712:7714   */\n      0x20\n        /* \"@openzeppelin/contracts/token/ERC20/ERC20.sol\":9390:9461  require(accountBalance >= amount, \"ERC20: burn amount exceeds balance\") */\n      0x04\n      dup3\n      add\n        /* \"#utility.yul\":7694:7715   */\n      mstore\n        /* \"#utility.yul\":7751:7753   */\n      0x22\n        /* \"#utility.yul\":7731:7749   */\n      0x24\n      dup3\n      add\n        /* \"#utility.yul\":7724:7754   */\n      mstore\n        /* \"#utility.yul\":7790:7824   */\n      0x45524332303a206275726e20616d6f756e7420657863656564732062616c616e\n        /* \"#utility.yul\":7770:7788   */\n      0x44\n      dup3\n      add\n        /* \"#utility.yul\":7763:7825   */\n      mstore\n      shl(0xf0, 0x6365)\n        /* \"#utility.yul\":7841:7859   */\n      0x64\n      dup3\n      add\n        /* \"#utility.yul\":7834:7866   */\n      mstore\n        /* \"#utility.yul\":7883:7902   */\n      0x84\n      add\n        /* \"@openzeppelin/contracts/token/ERC20/ERC20.sol\":9390:9461  require(accountBalance >= amount, \"ERC20: burn amount exceeds balance\") */\n      tag_142\n        /* \"#utility.yul\":7510:7908   */\n      jump\n        /* \"@openzeppelin/contracts/token/ERC20/ERC20.sol\":9390:9461  require(accountBalance >= amount, \"ERC20: burn amount exceeds balance\") */\n    tag_248:\n      sub(shl(0xa0, 0x01), 0x01)\n        /* \"@openzeppelin/contracts/token/ERC20/ERC20.sol\":9495:9513  _balances[account] */\n      dup4\n      and\n        /* \"@openzeppelin/contracts/token/ERC20/ERC20.sol\":9495:9504  _balances */\n      0x00\n        /* \"@openzeppelin/contracts/token/ERC20/ERC20.sol\":9495:9513  _balances[account] */\n      swap1\n      dup2\n      mstore\n      0x20\n      dup2\n      swap1\n      mstore\n      0x40\n      dup2\n      keccak256\n        /* \"@openzeppelin/contracts/token/ERC20/ERC20.sol\":9516:9539  accountBalance - amount */\n      dup4\n      dup4\n      sub\n        /* \"@openzeppelin/contracts/token/ERC20/ERC20.sol\":9495:9539  _balances[account] = accountBalance - amount */\n      swap1\n      sstore\n        /* \"@openzeppelin/contracts/token/ERC20/ERC20.sol\":9559:9571  _totalSupply */\n      0x02\n        /* \"@openzeppelin/contracts/token/ERC20/ERC20.sol\":9559:9581  _totalSupply -= amount */\n      dup1\n      sload\n        /* \"@openzeppelin/contracts/token/ERC20/ERC20.sol\":9533:9539  amount */\n      dup5\n      swap3\n        /* \"@openzeppelin/contracts/token/ERC20/ERC20.sol\":9495:9504  _balances */\n      swap1\n        /* \"@openzeppelin/contracts/token/ERC20/ERC20.sol\":9559:9581  _totalSupply -= amount */\n      tag_251\n      swap1\n        /* \"@openzeppelin/contracts/token/ERC20/ERC20.sol\":9533:9539  amount */\n      dup5\n      swap1\n        /* \"@openzeppelin/contracts/token/ERC20/ERC20.sol\":9559:9581  _totalSupply -= amount */\n      tag_238\n      jump\t// in\n    tag_251:\n      swap1\n      swap2\n      sstore\n      pop\n      pop\n        /* \"@openzeppelin/contracts/token/ERC20/ERC20.sol\":9597:9634  Transfer(account, address(0), amount) */\n      mload(0x40)\n        /* \"#utility.yul\":1391:1416   */\n      dup3\n      dup2\n      mstore\n        /* \"@openzeppelin/contracts/token/ERC20/ERC20.sol\":9623:9624  0 */\n      0x00\n      swap1\n      sub(shl(0xa0, 0x01), 0x01)\n        /* \"@openzeppelin/contracts/token/ERC20/ERC20.sol\":9597:9634  Transfer(account, address(0), amount) */\n      dup6\n      and\n      swap1\n      0xddf252ad1be2c89b69c2b068fc378daa952ba7f163c4a11628f55a4df523b3ef\n      swap1\n        /* \"#utility.yul\":1379:1381   */\n      0x20\n        /* \"#utility.yul\":1364:1382   */\n      add\n        /* \"@openzeppelin/contracts/token/ERC20/ERC20.sol\":9597:9634  Transfer(account, address(0), amount) */\n      mload(0x40)\n      dup1\n      swap2\n      sub\n      swap1\n      log3\n        /* \"@openzeppelin/contracts/token/ERC20/ERC20.sol\":11795:11916  function _beforeTokenTransfer(... */\n      pop\n      pop\n      pop\n      jump\t// out\n        /* \"@openzeppelin/contracts/access/Ownable.sol\":2270:2457  function _transferOwnership(address newOwner) internal virtual {... */\n    tag_166:\n        /* \"@openzeppelin/contracts/access/Ownable.sol\":2362:2368  _owner */\n      0x05\n      dup1\n      sload\n      sub(shl(0xa0, 0x01), 0x01)\n        /* \"@openzeppelin/contracts/access/Ownable.sol\":2378:2395  _owner = newOwner */\n      dup4\n      dup2\n      and\n      not(sub(shl(0xa0, 0x01), 0x01))\n      dup4\n      and\n      dup2\n      or\n      swap1\n      swap4\n      sstore\n        /* \"@openzeppelin/contracts/access/Ownable.sol\":2410:2450  OwnershipTransferred(oldOwner, newOwner) */\n      mload(0x40)\n        /* \"@openzeppelin/contracts/access/Ownable.sol\":2362:2368  _owner */\n      swap2\n      and\n      swap2\n        /* \"@openzeppelin/contracts/access/Ownable.sol\":2378:2395  _owner = newOwner */\n      swap1\n        /* \"@openzeppelin/contracts/access/Ownable.sol\":2362:2368  _owner */\n      dup3\n      swap1\n        /* \"@openzeppelin/contracts/access/Ownable.sol\":2410:2450  OwnershipTransferred(oldOwner, newOwner) */\n      0x8be0079c531659141344cd1fd0a4f28419497f9722a3daafe3b4186f6b6457e0\n      swap1\n        /* \"@openzeppelin/contracts/access/Ownable.sol\":2343:2359  address oldOwner */\n      0x00\n      swap1\n        /* \"@openzeppelin/contracts/access/Ownable.sol\":2410:2450  OwnershipTransferred(oldOwner, newOwner) */\n      log3\n        /* \"@openzeppelin/contracts/access/Ownable.sol\":2333:2457  {... */\n      pop\n        /* \"@openzeppelin/contracts/access/Ownable.sol\":2270:2457  function _transferOwnership(address newOwner) internal virtual {... */\n      pop\n      jump\t// out\n        /* \"@openzeppelin/contracts/utils/math/SafeMath.sol\":3451:3547  function mul(uint256 a, uint256 b) internal pure returns (uint256) {... */\n    tag_235:\n        /* \"@openzeppelin/contracts/utils/math/SafeMath.sol\":3509:3516  uint256 */\n      0x00\n        /* \"@openzeppelin/contracts/utils/math/SafeMath.sol\":3535:3540  a * b */\n      tag_257\n        /* \"@openzeppelin/contracts/utils/math/SafeMath.sol\":3539:3540  b */\n      dup3\n        /* \"@openzeppelin/contracts/utils/math/SafeMath.sol\":3535:3536  a */\n      dup5\n        /* \"@openzeppelin/contracts/utils/math/SafeMath.sol\":3535:3540  a * b */\n      tag_258\n      jump\t// in\n    tag_257:\n        /* \"@openzeppelin/contracts/utils/math/SafeMath.sol\":3528:3540  return a * b */\n      swap4\n        /* \"@openzeppelin/contracts/utils/math/SafeMath.sol\":3451:3547  function mul(uint256 a, uint256 b) internal pure returns (uint256) {... */\n      swap3\n      pop\n      pop\n      pop\n      jump\t// out\n        /* \"@openzeppelin/contracts/utils/math/SafeMath.sol\":3836:3932  function div(uint256 a, uint256 b) internal pure returns (uint256) {... */\n    tag_236:\n        /* \"@openzeppelin/contracts/utils/math/SafeMath.sol\":3894:3901  uint256 */\n      0x00\n        /* \"@openzeppelin/contracts/utils/math/SafeMath.sol\":3920:3925  a / b */\n      tag_257\n        /* \"@openzeppelin/contracts/utils/math/SafeMath.sol\":3924:3925  b */\n      dup3\n        /* \"@openzeppelin/contracts/utils/math/SafeMath.sol\":3920:3921  a */\n      dup5\n        /* \"@openzeppelin/contracts/utils/math/SafeMath.sol\":3920:3925  a / b */\n      tag_261\n      jump\t// in\n        /* \"@openzeppelin/contracts/token/ERC20/ERC20.sol\":7488:8139  function _transfer(... */\n    tag_240:\n      sub(shl(0xa0, 0x01), 0x01)\n        /* \"@openzeppelin/contracts/token/ERC20/ERC20.sol\":7614:7632  from != address(0) */\n      dup4\n      and\n        /* \"@openzeppelin/contracts/token/ERC20/ERC20.sol\":7606:7674  require(from != address(0), \"ERC20: transfer from the zero address\") */\n      tag_263\n      jumpi\n      mload(0x40)\n      shl(0xe5, 0x461bcd)\n      dup2\n      mstore\n        /* \"#utility.yul\":8510:8512   */\n      0x20\n        /* \"@openzeppelin/contracts/token/ERC20/ERC20.sol\":7606:7674  require(from != address(0), \"ERC20: transfer from the zero address\") */\n      0x04\n      dup3\n      add\n        /* \"#utility.yul\":8492:8513   */\n      mstore\n        /* \"#utility.yul\":8549:8551   */\n      0x25\n        /* \"#utility.yul\":8529:8547   */\n      0x24\n      dup3\n      add\n        /* \"#utility.yul\":8522:8552   */\n      mstore\n        /* \"#utility.yul\":8588:8622   */\n      0x45524332303a207472616e736665722066726f6d20746865207a65726f206164\n        /* \"#utility.yul\":8568:8586   */\n      0x44\n      dup3\n      add\n        /* \"#utility.yul\":8561:8623   */\n      mstore\n      shl(0xd8, 0x6472657373)\n        /* \"#utility.yul\":8639:8657   */\n      0x64\n      dup3\n      add\n        /* \"#utility.yul\":8632:8667   */\n      mstore\n        /* \"#utility.yul\":8684:8703   */\n      0x84\n      add\n        /* \"@openzeppelin/contracts/token/ERC20/ERC20.sol\":7606:7674  require(from != address(0), \"ERC20: transfer from the zero address\") */\n      tag_142\n        /* \"#utility.yul\":8308:8709   */\n      jump\n        /* \"@openzeppelin/contracts/token/ERC20/ERC20.sol\":7606:7674  require(from != address(0), \"ERC20: transfer from the zero address\") */\n    tag_263:\n      sub(shl(0xa0, 0x01), 0x01)\n        /* \"@openzeppelin/contracts/token/ERC20/ERC20.sol\":7692:7708  to != address(0) */\n      dup3\n      and\n        /* \"@openzeppelin/contracts/token/ERC20/ERC20.sol\":7684:7748  require(to != address(0), \"ERC20: transfer to the zero address\") */\n      tag_266\n      jumpi\n      mload(0x40)\n      shl(0xe5, 0x461bcd)\n      dup2\n      mstore\n        /* \"#utility.yul\":8916:8918   */\n      0x20\n        /* \"@openzeppelin/contracts/token/ERC20/ERC20.sol\":7684:7748  require(to != address(0), \"ERC20: transfer to the zero address\") */\n      0x04\n      dup3\n      add\n        /* \"#utility.yul\":8898:8919   */\n      mstore\n        /* \"#utility.yul\":8955:8957   */\n      0x23\n        /* \"#utility.yul\":8935:8953   */\n      0x24\n      dup3\n      add\n        /* \"#utility.yul\":8928:8958   */\n      mstore\n        /* \"#utility.yul\":8994:9028   */\n      0x45524332303a207472616e7366657220746f20746865207a65726f2061646472\n        /* \"#utility.yul\":8974:8992   */\n      0x44\n      dup3\n      add\n        /* \"#utility.yul\":8967:9029   */\n      mstore\n      shl(0xe8, 0x657373)\n        /* \"#utility.yul\":9045:9063   */\n      0x64\n      dup3\n      add\n        /* \"#utility.yul\":9038:9071   */\n      mstore\n        /* \"#utility.yul\":9088:9107   */\n      0x84\n      add\n        /* \"@openzeppelin/contracts/token/ERC20/ERC20.sol\":7684:7748  require(to != address(0), \"ERC20: transfer to the zero address\") */\n      tag_142\n        /* \"#utility.yul\":8714:9113   */\n      jump\n        /* \"@openzeppelin/contracts/token/ERC20/ERC20.sol\":7684:7748  require(to != address(0), \"ERC20: transfer to the zero address\") */\n    tag_266:\n        /* \"@openzeppelin/contracts/token/ERC20/ERC20.sol\":7759:7797  _beforeTokenTransfer(from, to, amount) */\n      tag_269\n        /* \"@openzeppelin/contracts/token/ERC20/ERC20.sol\":7780:7784  from */\n      dup4\n        /* \"@openzeppelin/contracts/token/ERC20/ERC20.sol\":7786:7788  to */\n      dup4\n        /* \"@openzeppelin/contracts/token/ERC20/ERC20.sol\":7790:7796  amount */\n      dup4\n        /* \"@openzeppelin/contracts/token/ERC20/ERC20.sol\":7759:7779  _beforeTokenTransfer */\n      tag_247\n        /* \"@openzeppelin/contracts/token/ERC20/ERC20.sol\":7759:7797  _beforeTokenTransfer(from, to, amount) */\n      jump\t// in\n    tag_269:\n      sub(shl(0xa0, 0x01), 0x01)\n        /* \"@openzeppelin/contracts/token/ERC20/ERC20.sol\":7830:7845  _balances[from] */\n      dup4\n      and\n        /* \"@openzeppelin/contracts/token/ERC20/ERC20.sol\":7808:7827  uint256 fromBalance */\n      0x00\n        /* \"@openzeppelin/contracts/token/ERC20/ERC20.sol\":7830:7845  _balances[from] */\n      swap1\n      dup2\n      mstore\n      0x20\n      dup2\n      swap1\n      mstore\n      0x40\n      swap1\n      keccak256\n      sload\n        /* \"@openzeppelin/contracts/token/ERC20/ERC20.sol\":7863:7884  fromBalance >= amount */\n      dup2\n      dup2\n      lt\n      iszero\n        /* \"@openzeppelin/contracts/token/ERC20/ERC20.sol\":7855:7927  require(fromBalance >= amount, \"ERC20: transfer amount exceeds balance\") */\n      tag_270\n      jumpi\n      mload(0x40)\n      shl(0xe5, 0x461bcd)\n      dup2\n      mstore\n        /* \"#utility.yul\":9320:9322   */\n      0x20\n        /* \"@openzeppelin/contracts/token/ERC20/ERC20.sol\":7855:7927  require(fromBalance >= amount, \"ERC20: transfer amount exceeds balance\") */\n      0x04\n      dup3\n      add\n        /* \"#utility.yul\":9302:9323   */\n      mstore\n        /* \"#utility.yul\":9359:9361   */\n      0x26\n        /* \"#utility.yul\":9339:9357   */\n      0x24\n      dup3\n      add\n        /* \"#utility.yul\":9332:9362   */\n      mstore\n        /* \"#utility.yul\":9398:9432   */\n      0x45524332303a207472616e7366657220616d6f756e7420657863656564732062\n        /* \"#utility.yul\":9378:9396   */\n      0x44\n      dup3\n      add\n        /* \"#utility.yul\":9371:9433   */\n      mstore\n      shl(0xd0, 0x616c616e6365)\n        /* \"#utility.yul\":9449:9467   */\n      0x64\n      dup3\n      add\n        /* \"#utility.yul\":9442:9478   */\n      mstore\n        /* \"#utility.yul\":9495:9514   */\n      0x84\n      add\n        /* \"@openzeppelin/contracts/token/ERC20/ERC20.sol\":7855:7927  require(fromBalance >= amount, \"ERC20: transfer amount exceeds balance\") */\n      tag_142\n        /* \"#utility.yul\":9118:9520   */\n      jump\n        /* \"@openzeppelin/contracts/token/ERC20/ERC20.sol\":7855:7927  require(fromBalance >= amount, \"ERC20: transfer amount exceeds balance\") */\n    tag_270:\n      sub(shl(0xa0, 0x01), 0x01)\n        /* \"@openzeppelin/contracts/token/ERC20/ERC20.sol\":7961:7976  _balances[from] */\n      dup1\n      dup6\n      and\n        /* \"@openzeppelin/contracts/token/ERC20/ERC20.sol\":7961:7970  _balances */\n      0x00\n        /* \"@openzeppelin/contracts/token/ERC20/ERC20.sol\":7961:7976  _balances[from] */\n      swap1\n      dup2\n      mstore\n      0x20\n      dup2\n      swap1\n      mstore\n      0x40\n      dup1\n      dup3\n      keccak256\n        /* \"@openzeppelin/contracts/token/ERC20/ERC20.sol\":7979:7999  fromBalance - amount */\n      dup6\n      dup6\n      sub\n        /* \"@openzeppelin/contracts/token/ERC20/ERC20.sol\":7961:7999  _balances[from] = fromBalance - amount */\n      swap1\n      sstore\n        /* \"@openzeppelin/contracts/token/ERC20/ERC20.sol\":8019:8032  _balances[to] */\n      swap2\n      dup6\n      and\n      dup2\n      mstore\n      swap1\n      dup2\n      keccak256\n        /* \"@openzeppelin/contracts/token/ERC20/ERC20.sol\":8019:8042  _balances[to] += amount */\n      dup1\n      sload\n        /* \"@openzeppelin/contracts/token/ERC20/ERC20.sol\":7993:7999  amount */\n      dup5\n      swap3\n        /* \"@openzeppelin/contracts/token/ERC20/ERC20.sol\":7961:7970  _balances */\n      swap1\n        /* \"@openzeppelin/contracts/token/ERC20/ERC20.sol\":8019:8042  _balances[to] += amount */\n      tag_273\n      swap1\n        /* \"@openzeppelin/contracts/token/ERC20/ERC20.sol\":7993:7999  amount */\n      dup5\n      swap1\n        /* \"@openzeppelin/contracts/token/ERC20/ERC20.sol\":8019:8042  _balances[to] += amount */\n      tag_153\n      jump\t// in\n    tag_273:\n      swap3\n      pop\n      pop\n      dup2\n      swap1\n      sstore\n      pop\n        /* \"@openzeppelin/contracts/token/ERC20/ERC20.sol\":8073:8075  to */\n      dup3\n      sub(shl(0xa0, 0x01), 0x01)\n        /* \"@openzeppelin/contracts/token/ERC20/ERC20.sol\":8058:8084  Transfer(from, to, amount) */\n      and\n        /* \"@openzeppelin/contracts/token/ERC20/ERC20.sol\":8067:8071  from */\n      dup5\n      sub(shl(0xa0, 0x01), 0x01)\n        /* \"@openzeppelin/contracts/token/ERC20/ERC20.sol\":8058:8084  Transfer(from, to, amount) */\n      and\n      0xddf252ad1be2c89b69c2b068fc378daa952ba7f163c4a11628f55a4df523b3ef\n        /* \"@openzeppelin/contracts/token/ERC20/ERC20.sol\":8077:8083  amount */\n      dup5\n        /* \"@openzeppelin/contracts/token/ERC20/ERC20.sol\":8058:8084  Transfer(from, to, amount) */\n      mload(0x40)\n      tag_274\n      swap2\n        /* \"#utility.yul\":1391:1416   */\n      dup2\n      mstore\n        /* \"#utility.yul\":1379:1381   */\n      0x20\n        /* \"#utility.yul\":1364:1382   */\n      add\n      swap1\n        /* \"#utility.yul\":1245:1422   */\n      jump\n        /* \"@openzeppelin/contracts/token/ERC20/ERC20.sol\":8058:8084  Transfer(from, to, amount) */\n    tag_274:\n      mload(0x40)\n      dup1\n      swap2\n      sub\n      swap1\n      log3\n        /* \"@openzeppelin/contracts/token/ERC20/ERC20.sol\":8095:8132  _afterTokenTransfer(from, to, amount) */\n      tag_231\n        /* \"@openzeppelin/contracts/token/ERC20/ERC20.sol\":11795:11916  function _beforeTokenTransfer(... */\n      jump\n        /* \"contracts/HatTokenV2.sol\":923:1376  function _beforeTokenTransfer(... */\n    tag_247:\n      sub(shl(0xa0, 0x01), 0x01)\n        /* \"contracts/HatTokenV2.sol\":1089:1108  _blockSenders[from] */\n      dup4\n      and\n      0x00\n      swap1\n      dup2\n      mstore\n        /* \"contracts/HatTokenV2.sol\":1089:1102  _blockSenders */\n      0x08\n        /* \"contracts/HatTokenV2.sol\":1089:1108  _blockSenders[from] */\n      0x20\n      mstore\n      0x40\n      swap1\n      keccak256\n      sload\n      0xff\n      and\n        /* \"contracts/HatTokenV2.sol\":1088:1108  !_blockSenders[from] */\n      iszero\n        /* \"contracts/HatTokenV2.sol\":1066:1182  require(... */\n      tag_277\n      jumpi\n      mload(0x40)\n      shl(0xe5, 0x461bcd)\n      dup2\n      mstore\n        /* \"#utility.yul\":9727:9729   */\n      0x20\n        /* \"contracts/HatTokenV2.sol\":1066:1182  require(... */\n      0x04\n      dup3\n      add\n        /* \"#utility.yul\":9709:9730   */\n      mstore\n        /* \"#utility.yul\":9766:9768   */\n      0x2e\n        /* \"#utility.yul\":9746:9764   */\n      0x24\n      dup3\n      add\n        /* \"#utility.yul\":9739:9769   */\n      mstore\n        /* \"#utility.yul\":9805:9839   */\n      0x4865726f204177616b656e20546f6b656e3a207468652073656e646572206861\n        /* \"#utility.yul\":9785:9803   */\n      0x44\n      dup3\n      add\n        /* \"#utility.yul\":9778:9840   */\n      mstore\n      shl(0x92, 0x1cc81899595b88189b1bd8dad959)\n        /* \"#utility.yul\":9856:9874   */\n      0x64\n      dup3\n      add\n        /* \"#utility.yul\":9849:9893   */\n      mstore\n        /* \"#utility.yul\":9910:9929   */\n      0x84\n      add\n        /* \"contracts/HatTokenV2.sol\":1066:1182  require(... */\n      tag_142\n        /* \"#utility.yul\":9525:9935   */\n      jump\n        /* \"contracts/HatTokenV2.sol\":1066:1182  require(... */\n    tag_277:\n      sub(shl(0xa0, 0x01), 0x01)\n        /* \"contracts/HatTokenV2.sol\":1216:1235  _blockReceivers[to] */\n      dup3\n      and\n      0x00\n      swap1\n      dup2\n      mstore\n        /* \"contracts/HatTokenV2.sol\":1216:1231  _blockReceivers */\n      0x09\n        /* \"contracts/HatTokenV2.sol\":1216:1235  _blockReceivers[to] */\n      0x20\n      mstore\n      0x40\n      swap1\n      keccak256\n      sload\n      0xff\n      and\n        /* \"contracts/HatTokenV2.sol\":1215:1235  !_blockReceivers[to] */\n      iszero\n        /* \"contracts/HatTokenV2.sol\":1193:1311  require(... */\n      tag_117\n      jumpi\n      mload(0x40)\n      shl(0xe5, 0x461bcd)\n      dup2\n      mstore\n        /* \"#utility.yul\":10142:10144   */\n      0x20\n        /* \"contracts/HatTokenV2.sol\":1193:1311  require(... */\n      0x04\n      dup3\n      add\n        /* \"#utility.yul\":10124:10145   */\n      mstore\n        /* \"#utility.yul\":10181:10183   */\n      0x30\n        /* \"#utility.yul\":10161:10179   */\n      0x24\n      dup3\n      add\n        /* \"#utility.yul\":10154:10184   */\n      mstore\n        /* \"#utility.yul\":10220:10254   */\n      0x4865726f204177616b656e20546f6b656e3a2074686520726563656976657220\n        /* \"#utility.yul\":10200:10218   */\n      0x44\n      dup3\n      add\n        /* \"#utility.yul\":10193:10255   */\n      mstore\n      shl(0x82, 0x1a185cc81899595b88189b1bd8dad959)\n        /* \"#utility.yul\":10271:10289   */\n      0x64\n      dup3\n      add\n        /* \"#utility.yul\":10264:10310   */\n      mstore\n        /* \"#utility.yul\":10327:10346   */\n      0x84\n      add\n        /* \"contracts/HatTokenV2.sol\":1193:1311  require(... */\n      tag_142\n        /* \"#utility.yul\":9940:10352   */\n      jump\n        /* \"#utility.yul\":14:611   */\n    tag_32:\n        /* \"#utility.yul\":126:130   */\n      0x00\n        /* \"#utility.yul\":155:157   */\n      0x20\n        /* \"#utility.yul\":184:186   */\n      dup1\n        /* \"#utility.yul\":173:182   */\n      dup4\n        /* \"#utility.yul\":166:187   */\n      mstore\n        /* \"#utility.yul\":216:222   */\n      dup4\n        /* \"#utility.yul\":210:223   */\n      mload\n        /* \"#utility.yul\":259:265   */\n      dup1\n        /* \"#utility.yul\":254:256   */\n      dup3\n        /* \"#utility.yul\":243:252   */\n      dup6\n        /* \"#utility.yul\":239:257   */\n      add\n        /* \"#utility.yul\":232:266   */\n      mstore\n        /* \"#utility.yul\":284:285   */\n      0x00\n        /* \"#utility.yul\":294:434   */\n    tag_290:\n        /* \"#utility.yul\":308:314   */\n      dup2\n        /* \"#utility.yul\":305:306   */\n      dup2\n        /* \"#utility.yul\":302:315   */\n      lt\n        /* \"#utility.yul\":294:434   */\n      iszero\n      tag_292\n      jumpi\n        /* \"#utility.yul\":403:417   */\n      dup6\n      dup2\n      add\n        /* \"#utility.yul\":399:422   */\n      dup4\n      add\n        /* \"#utility.yul\":393:423   */\n      mload\n        /* \"#utility.yul\":369:386   */\n      dup6\n      dup3\n      add\n        /* \"#utility.yul\":388:390   */\n      0x40\n        /* \"#utility.yul\":365:391   */\n      add\n        /* \"#utility.yul\":358:424   */\n      mstore\n        /* \"#utility.yul\":323:333   */\n      dup3\n      add\n        /* \"#utility.yul\":294:434   */\n      jump(tag_290)\n    tag_292:\n        /* \"#utility.yul\":452:458   */\n      dup2\n        /* \"#utility.yul\":449:450   */\n      dup2\n        /* \"#utility.yul\":446:459   */\n      gt\n        /* \"#utility.yul\":443:534   */\n      iszero\n      tag_293\n      jumpi\n        /* \"#utility.yul\":522:523   */\n      0x00\n        /* \"#utility.yul\":517:519   */\n      0x40\n        /* \"#utility.yul\":508:514   */\n      dup4\n        /* \"#utility.yul\":497:506   */\n      dup8\n        /* \"#utility.yul\":493:515   */\n      add\n        /* \"#utility.yul\":489:520   */\n      add\n        /* \"#utility.yul\":482:524   */\n      mstore\n        /* \"#utility.yul\":443:534   */\n    tag_293:\n      pop\n        /* \"#utility.yul\":595:597   */\n      0x1f\n        /* \"#utility.yul\":574:589   */\n      add\n      not(0x1f)\n        /* \"#utility.yul\":570:599   */\n      and\n        /* \"#utility.yul\":555:600   */\n      swap3\n      swap1\n      swap3\n      add\n        /* \"#utility.yul\":602:604   */\n      0x40\n        /* \"#utility.yul\":551:605   */\n      add\n      swap4\n        /* \"#utility.yul\":14:611   */\n      swap3\n      pop\n      pop\n      pop\n      jump\t// out\n        /* \"#utility.yul\":616:789   */\n    tag_285:\n        /* \"#utility.yul\":684:704   */\n      dup1\n      calldataload\n      sub(shl(0xa0, 0x01), 0x01)\n        /* \"#utility.yul\":733:764   */\n      dup2\n      and\n        /* \"#utility.yul\":723:765   */\n      dup2\n      eq\n        /* \"#utility.yul\":713:783   */\n      tag_295\n      jumpi\n        /* \"#utility.yul\":779:780   */\n      0x00\n        /* \"#utility.yul\":776:777   */\n      dup1\n        /* \"#utility.yul\":769:781   */\n      revert\n        /* \"#utility.yul\":713:783   */\n    tag_295:\n        /* \"#utility.yul\":616:789   */\n      swap2\n      swap1\n      pop\n      jump\t// out\n        /* \"#utility.yul\":794:1048   */\n    tag_35:\n        /* \"#utility.yul\":862:868   */\n      0x00\n        /* \"#utility.yul\":870:876   */\n      dup1\n        /* \"#utility.yul\":923:925   */\n      0x40\n        /* \"#utility.yul\":911:920   */\n      dup4\n        /* \"#utility.yul\":902:909   */\n      dup6\n        /* \"#utility.yul\":898:921   */\n      sub\n        /* \"#utility.yul\":894:926   */\n      slt\n        /* \"#utility.yul\":891:943   */\n      iszero\n      tag_297\n      jumpi\n        /* \"#utility.yul\":939:940   */\n      0x00\n        /* \"#utility.yul\":936:937   */\n      dup1\n        /* \"#utility.yul\":929:941   */\n      revert\n        /* \"#utility.yul\":891:943   */\n    tag_297:\n        /* \"#utility.yul\":962:991   */\n      tag_298\n        /* \"#utility.yul\":981:990   */\n      dup4\n        /* \"#utility.yul\":962:991   */\n      tag_285\n      jump\t// in\n    tag_298:\n        /* \"#utility.yul\":952:991   */\n      swap5\n        /* \"#utility.yul\":1038:1040   */\n      0x20\n        /* \"#utility.yul\":1023:1041   */\n      swap4\n      swap1\n      swap4\n      add\n        /* \"#utility.yul\":1010:1042   */\n      calldataload\n      swap4\n      pop\n      pop\n      pop\n        /* \"#utility.yul\":794:1048   */\n      jump\t// out\n        /* \"#utility.yul\":1427:1755   */\n    tag_45:\n        /* \"#utility.yul\":1504:1510   */\n      0x00\n        /* \"#utility.yul\":1512:1518   */\n      dup1\n        /* \"#utility.yul\":1520:1526   */\n      0x00\n        /* \"#utility.yul\":1573:1575   */\n      0x60\n        /* \"#utility.yul\":1561:1570   */\n      dup5\n        /* \"#utility.yul\":1552:1559   */\n      dup7\n        /* \"#utility.yul\":1548:1571   */\n      sub\n        /* \"#utility.yul\":1544:1576   */\n      slt\n        /* \"#utility.yul\":1541:1593   */\n      iszero\n      tag_302\n      jumpi\n        /* \"#utility.yul\":1589:1590   */\n      0x00\n        /* \"#utility.yul\":1586:1587   */\n      dup1\n        /* \"#utility.yul\":1579:1591   */\n      revert\n        /* \"#utility.yul\":1541:1593   */\n    tag_302:\n        /* \"#utility.yul\":1612:1641   */\n      tag_303\n        /* \"#utility.yul\":1631:1640   */\n      dup5\n        /* \"#utility.yul\":1612:1641   */\n      tag_285\n      jump\t// in\n    tag_303:\n        /* \"#utility.yul\":1602:1641   */\n      swap3\n      pop\n        /* \"#utility.yul\":1660:1698   */\n      tag_304\n        /* \"#utility.yul\":1694:1696   */\n      0x20\n        /* \"#utility.yul\":1683:1692   */\n      dup6\n        /* \"#utility.yul\":1679:1697   */\n      add\n        /* \"#utility.yul\":1660:1698   */\n      tag_285\n      jump\t// in\n    tag_304:\n        /* \"#utility.yul\":1650:1698   */\n      swap2\n      pop\n        /* \"#utility.yul\":1745:1747   */\n      0x40\n        /* \"#utility.yul\":1734:1743   */\n      dup5\n        /* \"#utility.yul\":1730:1748   */\n      add\n        /* \"#utility.yul\":1717:1749   */\n      calldataload\n        /* \"#utility.yul\":1707:1749   */\n      swap1\n      pop\n        /* \"#utility.yul\":1427:1755   */\n      swap3\n      pop\n      swap3\n      pop\n      swap3\n      jump\t// out\n        /* \"#utility.yul\":1949:2129   */\n    tag_54:\n        /* \"#utility.yul\":2008:2014   */\n      0x00\n        /* \"#utility.yul\":2061:2063   */\n      0x20\n        /* \"#utility.yul\":2049:2058   */\n      dup3\n        /* \"#utility.yul\":2040:2047   */\n      dup5\n        /* \"#utility.yul\":2036:2059   */\n      sub\n        /* \"#utility.yul\":2032:2064   */\n      slt\n        /* \"#utility.yul\":2029:2081   */\n      iszero\n      tag_307\n      jumpi\n        /* \"#utility.yul\":2077:2078   */\n      0x00\n        /* \"#utility.yul\":2074:2075   */\n      dup1\n        /* \"#utility.yul\":2067:2079   */\n      revert\n        /* \"#utility.yul\":2029:2081   */\n    tag_307:\n      pop\n        /* \"#utility.yul\":2100:2123   */\n      calldataload\n      swap2\n        /* \"#utility.yul\":1949:2129   */\n      swap1\n      pop\n      jump\t// out\n        /* \"#utility.yul\":2134:2320   */\n    tag_65:\n        /* \"#utility.yul\":2193:2199   */\n      0x00\n        /* \"#utility.yul\":2246:2248   */\n      0x20\n        /* \"#utility.yul\":2234:2243   */\n      dup3\n        /* \"#utility.yul\":2225:2232   */\n      dup5\n        /* \"#utility.yul\":2221:2244   */\n      sub\n        /* \"#utility.yul\":2217:2249   */\n      slt\n        /* \"#utility.yul\":2214:2266   */\n      iszero\n      tag_309\n      jumpi\n        /* \"#utility.yul\":2262:2263   */\n      0x00\n        /* \"#utility.yul\":2259:2260   */\n      dup1\n        /* \"#utility.yul\":2252:2264   */\n      revert\n        /* \"#utility.yul\":2214:2266   */\n    tag_309:\n        /* \"#utility.yul\":2285:2314   */\n      tag_257\n        /* \"#utility.yul\":2304:2313   */\n      dup3\n        /* \"#utility.yul\":2285:2314   */\n      tag_285\n      jump\t// in\n        /* \"#utility.yul\":2533:2693   */\n    tag_286:\n        /* \"#utility.yul\":2598:2618   */\n      dup1\n      calldataload\n        /* \"#utility.yul\":2654:2667   */\n      dup1\n      iszero\n        /* \"#utility.yul\":2647:2668   */\n      iszero\n        /* \"#utility.yul\":2637:2669   */\n      dup2\n      eq\n        /* \"#utility.yul\":2627:2687   */\n      tag_295\n      jumpi\n        /* \"#utility.yul\":2683:2684   */\n      0x00\n        /* \"#utility.yul\":2680:2681   */\n      dup1\n        /* \"#utility.yul\":2673:2685   */\n      revert\n        /* \"#utility.yul\":2698:3020   */\n    tag_82:\n        /* \"#utility.yul\":2769:2775   */\n      0x00\n        /* \"#utility.yul\":2777:2783   */\n      dup1\n        /* \"#utility.yul\":2785:2791   */\n      0x00\n        /* \"#utility.yul\":2838:2840   */\n      0x60\n        /* \"#utility.yul\":2826:2835   */\n      dup5\n        /* \"#utility.yul\":2817:2824   */\n      dup7\n        /* \"#utility.yul\":2813:2836   */\n      sub\n        /* \"#utility.yul\":2809:2841   */\n      slt\n        /* \"#utility.yul\":2806:2858   */\n      iszero\n      tag_315\n      jumpi\n        /* \"#utility.yul\":2854:2855   */\n      0x00\n        /* \"#utility.yul\":2851:2852   */\n      dup1\n        /* \"#utility.yul\":2844:2856   */\n      revert\n        /* \"#utility.yul\":2806:2858   */\n    tag_315:\n        /* \"#utility.yul\":2877:2906   */\n      tag_316\n        /* \"#utility.yul\":2896:2905   */\n      dup5\n        /* \"#utility.yul\":2877:2906   */\n      tag_285\n      jump\t// in\n    tag_316:\n        /* \"#utility.yul\":2867:2906   */\n      swap3\n      pop\n        /* \"#utility.yul\":2925:2960   */\n      tag_317\n        /* \"#utility.yul\":2956:2958   */\n      0x20\n        /* \"#utility.yul\":2945:2954   */\n      dup6\n        /* \"#utility.yul\":2941:2959   */\n      add\n        /* \"#utility.yul\":2925:2960   */\n      tag_286\n      jump\t// in\n    tag_317:\n        /* \"#utility.yul\":2915:2960   */\n      swap2\n      pop\n        /* \"#utility.yul\":2979:3014   */\n      tag_318\n        /* \"#utility.yul\":3010:3012   */\n      0x40\n        /* \"#utility.yul\":2999:3008   */\n      dup6\n        /* \"#utility.yul\":2995:3013   */\n      add\n        /* \"#utility.yul\":2979:3014   */\n      tag_286\n      jump\t// in\n    tag_318:\n        /* \"#utility.yul\":2969:3014   */\n      swap1\n      pop\n        /* \"#utility.yul\":2698:3020   */\n      swap3\n      pop\n      swap3\n      pop\n      swap3\n      jump\t// out\n        /* \"#utility.yul\":3025:3285   */\n    tag_106:\n        /* \"#utility.yul\":3093:3099   */\n      0x00\n        /* \"#utility.yul\":3101:3107   */\n      dup1\n        /* \"#utility.yul\":3154:3156   */\n      0x40\n        /* \"#utility.yul\":3142:3151   */\n      dup4\n        /* \"#utility.yul\":3133:3140   */\n      dup6\n        /* \"#utility.yul\":3129:3152   */\n      sub\n        /* \"#utility.yul\":3125:3157   */\n      slt\n        /* \"#utility.yul\":3122:3174   */\n      iszero\n      tag_320\n      jumpi\n        /* \"#utility.yul\":3170:3171   */\n      0x00\n        /* \"#utility.yul\":3167:3168   */\n      dup1\n        /* \"#utility.yul\":3160:3172   */\n      revert\n        /* \"#utility.yul\":3122:3174   */\n    tag_320:\n        /* \"#utility.yul\":3193:3222   */\n      tag_321\n        /* \"#utility.yul\":3212:3221   */\n      dup4\n        /* \"#utility.yul\":3193:3222   */\n      tag_285\n      jump\t// in\n    tag_321:\n        /* \"#utility.yul\":3183:3222   */\n      swap2\n      pop\n        /* \"#utility.yul\":3241:3279   */\n      tag_322\n        /* \"#utility.yul\":3275:3277   */\n      0x20\n        /* \"#utility.yul\":3264:3273   */\n      dup5\n        /* \"#utility.yul\":3260:3278   */\n      add\n        /* \"#utility.yul\":3241:3279   */\n      tag_285\n      jump\t// in\n    tag_322:\n        /* \"#utility.yul\":3231:3279   */\n      swap1\n      pop\n        /* \"#utility.yul\":3025:3285   */\n      swap3\n      pop\n      swap3\n      swap1\n      pop\n      jump\t// out\n        /* \"#utility.yul\":3563:3943   */\n    tag_120:\n        /* \"#utility.yul\":3642:3643   */\n      0x01\n        /* \"#utility.yul\":3638:3650   */\n      dup2\n      dup2\n      shr\n      swap1\n        /* \"#utility.yul\":3685:3697   */\n      dup3\n      and\n      dup1\n        /* \"#utility.yul\":3706:3767   */\n      tag_325\n      jumpi\n        /* \"#utility.yul\":3760:3764   */\n      0x7f\n        /* \"#utility.yul\":3752:3758   */\n      dup3\n        /* \"#utility.yul\":3748:3765   */\n      and\n        /* \"#utility.yul\":3738:3765   */\n      swap2\n      pop\n        /* \"#utility.yul\":3706:3767   */\n    tag_325:\n        /* \"#utility.yul\":3813:3815   */\n      0x20\n        /* \"#utility.yul\":3805:3811   */\n      dup3\n        /* \"#utility.yul\":3802:3816   */\n      lt\n        /* \"#utility.yul\":3782:3800   */\n      dup2\n        /* \"#utility.yul\":3779:3817   */\n      sub\n        /* \"#utility.yul\":3776:3937   */\n      tag_326\n      jumpi\n        /* \"#utility.yul\":3859:3869   */\n      0x4e487b71\n        /* \"#utility.yul\":3854:3857   */\n      0xe0\n        /* \"#utility.yul\":3850:3870   */\n      shl\n        /* \"#utility.yul\":3847:3848   */\n      0x00\n        /* \"#utility.yul\":3840:3871   */\n      mstore\n        /* \"#utility.yul\":3894:3898   */\n      0x22\n        /* \"#utility.yul\":3891:3892   */\n      0x04\n        /* \"#utility.yul\":3884:3899   */\n      mstore\n        /* \"#utility.yul\":3922:3926   */\n      0x24\n        /* \"#utility.yul\":3919:3920   */\n      0x00\n        /* \"#utility.yul\":3912:3927   */\n      revert\n        /* \"#utility.yul\":3776:3937   */\n    tag_326:\n      pop\n        /* \"#utility.yul\":3563:3943   */\n      swap2\n      swap1\n      pop\n      jump\t// out\n        /* \"#utility.yul\":3948:4304   */\n    tag_143:\n        /* \"#utility.yul\":4150:4152   */\n      0x20\n        /* \"#utility.yul\":4132:4153   */\n      dup1\n      dup3\n      mstore\n        /* \"#utility.yul\":4169:4187   */\n      dup2\n      dup2\n      add\n        /* \"#utility.yul\":4162:4192   */\n      mstore\n        /* \"#utility.yul\":4228:4262   */\n      0x4f776e61626c653a2063616c6c6572206973206e6f7420746865206f776e6572\n        /* \"#utility.yul\":4223:4225   */\n      0x40\n        /* \"#utility.yul\":4208:4226   */\n      dup3\n      add\n        /* \"#utility.yul\":4201:4263   */\n      mstore\n        /* \"#utility.yul\":4295:4297   */\n      0x60\n        /* \"#utility.yul\":4280:4298   */\n      add\n      swap1\n        /* \"#utility.yul\":3948:4304   */\n      jump\t// out\n        /* \"#utility.yul\":4734:4861   */\n    tag_287:\n        /* \"#utility.yul\":4795:4805   */\n      0x4e487b71\n        /* \"#utility.yul\":4790:4793   */\n      0xe0\n        /* \"#utility.yul\":4786:4806   */\n      shl\n        /* \"#utility.yul\":4783:4784   */\n      0x00\n        /* \"#utility.yul\":4776:4807   */\n      mstore\n        /* \"#utility.yul\":4826:4830   */\n      0x11\n        /* \"#utility.yul\":4823:4824   */\n      0x04\n        /* \"#utility.yul\":4816:4831   */\n      mstore\n        /* \"#utility.yul\":4850:4854   */\n      0x24\n        /* \"#utility.yul\":4847:4848   */\n      0x00\n        /* \"#utility.yul\":4840:4855   */\n      revert\n        /* \"#utility.yul\":4866:4994   */\n    tag_153:\n        /* \"#utility.yul\":4906:4909   */\n      0x00\n        /* \"#utility.yul\":4937:4938   */\n      dup3\n        /* \"#utility.yul\":4933:4939   */\n      not\n        /* \"#utility.yul\":4930:4931   */\n      dup3\n        /* \"#utility.yul\":4927:4940   */\n      gt\n        /* \"#utility.yul\":4924:4963   */\n      iszero\n      tag_332\n      jumpi\n        /* \"#utility.yul\":4943:4961   */\n      tag_332\n      tag_287\n      jump\t// in\n    tag_332:\n      pop\n        /* \"#utility.yul\":4979:4988   */\n      add\n      swap1\n        /* \"#utility.yul\":4866:4994   */\n      jump\t// out\n        /* \"#utility.yul\":6978:7103   */\n    tag_238:\n        /* \"#utility.yul\":7018:7022   */\n      0x00\n        /* \"#utility.yul\":7046:7047   */\n      dup3\n        /* \"#utility.yul\":7043:7044   */\n      dup3\n        /* \"#utility.yul\":7040:7048   */\n      lt\n        /* \"#utility.yul\":7037:7071   */\n      iszero\n      tag_340\n      jumpi\n        /* \"#utility.yul\":7051:7069   */\n      tag_340\n      tag_287\n      jump\t// in\n    tag_340:\n      pop\n        /* \"#utility.yul\":7088:7097   */\n      sub\n      swap1\n        /* \"#utility.yul\":6978:7103   */\n      jump\t// out\n        /* \"#utility.yul\":7913:8081   */\n    tag_258:\n        /* \"#utility.yul\":7953:7960   */\n      0x00\n        /* \"#utility.yul\":8019:8020   */\n      dup2\n        /* \"#utility.yul\":8015:8016   */\n      0x00\n        /* \"#utility.yul\":8011:8017   */\n      not\n        /* \"#utility.yul\":8007:8021   */\n      div\n        /* \"#utility.yul\":8004:8005   */\n      dup4\n        /* \"#utility.yul\":8001:8022   */\n      gt\n        /* \"#utility.yul\":7996:7997   */\n      dup3\n        /* \"#utility.yul\":7989:7998   */\n      iszero\n        /* \"#utility.yul\":7982:7999   */\n      iszero\n        /* \"#utility.yul\":7978:8023   */\n      and\n        /* \"#utility.yul\":7975:8046   */\n      iszero\n      tag_345\n      jumpi\n        /* \"#utility.yul\":8026:8044   */\n      tag_345\n      tag_287\n      jump\t// in\n    tag_345:\n      pop\n        /* \"#utility.yul\":8066:8075   */\n      mul\n      swap1\n        /* \"#utility.yul\":7913:8081   */\n      jump\t// out\n        /* \"#utility.yul\":8086:8303   */\n    tag_261:\n        /* \"#utility.yul\":8126:8127   */\n      0x00\n        /* \"#utility.yul\":8152:8153   */\n      dup3\n        /* \"#utility.yul\":8142:8274   */\n      tag_347\n      jumpi\n        /* \"#utility.yul\":8196:8206   */\n      0x4e487b71\n        /* \"#utility.yul\":8191:8194   */\n      0xe0\n        /* \"#utility.yul\":8187:8207   */\n      shl\n        /* \"#utility.yul\":8184:8185   */\n      0x00\n        /* \"#utility.yul\":8177:8208   */\n      mstore\n        /* \"#utility.yul\":8231:8235   */\n      0x12\n        /* \"#utility.yul\":8228:8229   */\n      0x04\n        /* \"#utility.yul\":8221:8236   */\n      mstore\n        /* \"#utility.yul\":8259:8263   */\n      0x24\n        /* \"#utility.yul\":8256:8257   */\n      0x00\n        /* \"#utility.yul\":8249:8264   */\n      revert\n        /* \"#utility.yul\":8142:8274   */\n    tag_347:\n      pop\n        /* \"#utility.yul\":8288:8297   */\n      div\n      swap1\n        /* \"#utility.yul\":8086:8303   */\n      jump\t// out\n\n    auxdata: 0xa2646970667358221220c9db34060ed97ab15146c6577232afe8f6f1a7301a54dff267f9c59176f290eb64736f6c634300080d0033\n}\n",
				"bytecode": {
					"linkReferences": {},
					"object": "60806040523480156200001157600080fd5b50604051620016a8380380620016a88339810160408190526200003491620004a9565b8151829082906200004d90600390602085019062000336565b5080516200006390600490602084019062000336565b505050620000806200007a620000c660201b60201c565b620000ca565b6032600655600554600780546001600160a01b0319166001600160a01b039092169182179055620000be906b033b2e3c9fd0803ce80000006200011c565b505062000576565b3390565b600580546001600160a01b038381166001600160a01b0319831681179093556040519116919082907f8be0079c531659141344cd1fd0a4f28419497f9722a3daafe3b4186f6b6457e090600090a35050565b6001600160a01b038216620001785760405162461bcd60e51b815260206004820152601f60248201527f45524332303a206d696e7420746f20746865207a65726f20616464726573730060448201526064015b60405180910390fd5b620001866000838362000213565b80600260008282546200019a919062000513565b90915550506001600160a01b03821660009081526020819052604081208054839290620001c990849062000513565b90915550506040518181526001600160a01b038316906000907fddf252ad1be2c89b69c2b068fc378daa952ba7f163c4a11628f55a4df523b3ef9060200160405180910390a35050565b6001600160a01b03831660009081526008602052604090205460ff1615620002955760405162461bcd60e51b815260206004820152602e60248201527f4865726f204177616b656e20546f6b656e3a207468652073656e64657220686160448201526d1cc81899595b88189b1bd8dad95960921b60648201526084016200016f565b6001600160a01b03821660009081526009602052604090205460ff1615620003195760405162461bcd60e51b815260206004820152603060248201527f4865726f204177616b656e20546f6b656e3a207468652072656365697665722060448201526f1a185cc81899595b88189b1bd8dad95960821b60648201526084016200016f565b620003318383836200033160201b620007b11760201c565b505050565b82805462000344906200053a565b90600052602060002090601f016020900481019282620003685760008555620003b3565b82601f106200038357805160ff1916838001178555620003b3565b82800160010185558215620003b3579182015b82811115620003b357825182559160200191906001019062000396565b50620003c1929150620003c5565b5090565b5b80821115620003c15760008155600101620003c6565b634e487b7160e01b600052604160045260246000fd5b600082601f8301126200040457600080fd5b81516001600160401b0380821115620004215762000421620003dc565b604051601f8301601f19908116603f011681019082821181831017156200044c576200044c620003dc565b816040528381526020925086838588010111156200046957600080fd5b600091505b838210156200048d57858201830151818301840152908201906200046e565b838211156200049f5760008385830101525b9695505050505050565b60008060408385031215620004bd57600080fd5b82516001600160401b0380821115620004d557600080fd5b620004e386838701620003f2565b93506020850151915080821115620004fa57600080fd5b506200050985828601620003f2565b9150509250929050565b600082198211156200053557634e487b7160e01b600052601160045260246000fd5b500190565b600181811c908216806200054f57607f821691505b6020821081036200057057634e487b7160e01b600052602260045260246000fd5b50919050565b61112280620005866000396000f3fe608060405234801561001057600080fd5b506004361061014d5760003560e01c80637f257c3e116100c3578063a128471f1161007c578063a128471f146102a7578063a457c2d7146102ba578063a9059cbb146102cd578063dd62ed3e146102e0578063e596219514610319578063f2fde38b1461036d57600080fd5b80637f257c3e14610246578063893d20e81461026b5780638bea9334146102735780638da5cb5b1461028657806395d89b411461029757806398118cb41461029f57600080fd5b8063357bf15c11610115578063357bf15c146101c757806339509351146101dc57806342966c68146101ef57806370a0823114610202578063715018a61461022b57806379cc67901461023357600080fd5b806306fdde0314610152578063095ea7b31461017057806318160ddd1461019357806323b872dd146101a5578063313ce567146101b8575b600080fd5b61015a610380565b6040516101679190610e66565b60405180910390f35b61018361017e366004610ed7565b610412565b6040519015158152602001610167565b6002545b604051908152602001610167565b6101836101b3366004610f01565b61042a565b60405160128152602001610167565b6101da6101d5366004610f3d565b61044e565b005b6101836101ea366004610ed7565b6104fe565b6101da6101fd366004610f3d565b61053d565b610197610210366004610f56565b6001600160a01b031660009081526020819052604090205490565b6101da61054a565b6101da610241366004610ed7565b610580565b6007546001600160a01b03165b6040516001600160a01b039091168152602001610167565b610253610599565b6101da610281366004610f81565b6105b2565b6005546001600160a01b0316610253565b61015a61061e565b600654610197565b6101da6102b5366004610f56565b61062d565b6101836102c8366004610ed7565b610679565b6101836102db366004610ed7565b61070b565b6101976102ee366004610fc4565b6001600160a01b03918216600090815260016020908152604080832093909416825291909152205490565b610356610327366004610f56565b6001600160a01b031660009081526008602090815260408083205460099092529091205460ff91821692911690565b604080519215158352901515602083015201610167565b6101da61037b366004610f56565b610719565b60606003805461038f90610ff7565b80601f01602080910402602001604051908101604052809291908181526020018280546103bb90610ff7565b80156104085780601f106103dd57610100808354040283529160200191610408565b820191906000526020600020905b8154815290600101906020018083116103eb57829003601f168201915b5050505050905090565b6000336104208185856107b6565b5060019392505050565b6000336104388582856108da565b61044385858561096c565b506001949350505050565b6005546001600160a01b031633146104815760405162461bcd60e51b815260040161047890611031565b60405180910390fd5b6103e88111156104f95760405162461bcd60e51b815260206004820152603860248201527f4865726f204177616b656e20546f6b656e3a206c69717569646974792066656560448201527f206d757374206265747765656e203020616e64203130303000000000000000006064820152608401610478565b600655565b3360008181526001602090815260408083206001600160a01b0387168452909152812054909190610420908290869061053890879061107c565b6107b6565b61054733826109c0565b50565b6005546001600160a01b031633146105745760405162461bcd60e51b815260040161047890611031565b61057e6000610b1a565b565b61058b8233836108da565b61059582826109c0565b5050565b60006105ad6005546001600160a01b031690565b905090565b6005546001600160a01b031633146105dc5760405162461bcd60e51b815260040161047890611031565b6001600160a01b039092166000908152600860209081526040808320805494151560ff1995861617905560099091529020805492151592909116919091179055565b60606004805461038f90610ff7565b6005546001600160a01b031633146106575760405162461bcd60e51b815260040161047890611031565b600780546001600160a01b0319166001600160a01b0392909216919091179055565b3360008181526001602090815260408083206001600160a01b0387168452909152812054909190838110156106fe5760405162461bcd60e51b815260206004820152602560248201527f45524332303a2064656372656173656420616c6c6f77616e63652062656c6f77604482015264207a65726f60d81b6064820152608401610478565b61044382868684036107b6565b60003361042081858561096c565b6005546001600160a01b031633146107435760405162461bcd60e51b815260040161047890611031565b6001600160a01b0381166107a85760405162461bcd60e51b815260206004820152602660248201527f4f776e61626c653a206e6577206f776e657220697320746865207a65726f206160448201526564647265737360d01b6064820152608401610478565b61054781610b1a565b505050565b6001600160a01b0383166108185760405162461bcd60e51b8152602060048201526024808201527f45524332303a20617070726f76652066726f6d20746865207a65726f206164646044820152637265737360e01b6064820152608401610478565b6001600160a01b0382166108795760405162461bcd60e51b815260206004820152602260248201527f45524332303a20617070726f766520746f20746865207a65726f206164647265604482015261737360f01b6064820152608401610478565b6001600160a01b0383811660008181526001602090815260408083209487168084529482529182902085905590518481527f8c5be1e5ebec7d5bd14f71427d1e84f3dd0314c0f7b2291e5b200ac8c7c3b925910160405180910390a3505050565b6001600160a01b03838116600090815260016020908152604080832093861683529290522054600019811461096657818110156109595760405162461bcd60e51b815260206004820152601d60248201527f45524332303a20696e73756666696369656e7420616c6c6f77616e63650000006044820152606401610478565b61096684848484036107b6565b50505050565b600061098f6103e861098960065485610b6c90919063ffffffff16565b90610b7f565b905061099b8183611094565b91506109a8848484610b8b565b6007546109669085906001600160a01b031683610b8b565b6001600160a01b038216610a205760405162461bcd60e51b815260206004820152602160248201527f45524332303a206275726e2066726f6d20746865207a65726f206164647265736044820152607360f81b6064820152608401610478565b610a2c82600083610d64565b6001600160a01b03821660009081526020819052604090205481811015610aa05760405162461bcd60e51b815260206004820152602260248201527f45524332303a206275726e20616d6f756e7420657863656564732062616c616e604482015261636560f01b6064820152608401610478565b6001600160a01b0383166000908152602081905260408120838303905560028054849290610acf908490611094565b90915550506040518281526000906001600160a01b038516907fddf252ad1be2c89b69c2b068fc378daa952ba7f163c4a11628f55a4df523b3ef9060200160405180910390a3505050565b600580546001600160a01b038381166001600160a01b0319831681179093556040519116919082907f8be0079c531659141344cd1fd0a4f28419497f9722a3daafe3b4186f6b6457e090600090a35050565b6000610b7882846110ab565b9392505050565b6000610b7882846110ca565b6001600160a01b038316610bef5760405162461bcd60e51b815260206004820152602560248201527f45524332303a207472616e736665722066726f6d20746865207a65726f206164604482015264647265737360d81b6064820152608401610478565b6001600160a01b038216610c515760405162461bcd60e51b815260206004820152602360248201527f45524332303a207472616e7366657220746f20746865207a65726f206164647260448201526265737360e81b6064820152608401610478565b610c5c838383610d64565b6001600160a01b03831660009081526020819052604090205481811015610cd45760405162461bcd60e51b815260206004820152602660248201527f45524332303a207472616e7366657220616d6f756e7420657863656564732062604482015265616c616e636560d01b6064820152608401610478565b6001600160a01b03808516600090815260208190526040808220858503905591851681529081208054849290610d0b90849061107c565b92505081905550826001600160a01b0316846001600160a01b03167fddf252ad1be2c89b69c2b068fc378daa952ba7f163c4a11628f55a4df523b3ef84604051610d5791815260200190565b60405180910390a3610966565b6001600160a01b03831660009081526008602052604090205460ff1615610de45760405162461bcd60e51b815260206004820152602e60248201527f4865726f204177616b656e20546f6b656e3a207468652073656e64657220686160448201526d1cc81899595b88189b1bd8dad95960921b6064820152608401610478565b6001600160a01b03821660009081526009602052604090205460ff16156107b15760405162461bcd60e51b815260206004820152603060248201527f4865726f204177616b656e20546f6b656e3a207468652072656365697665722060448201526f1a185cc81899595b88189b1bd8dad95960821b6064820152608401610478565b600060208083528351808285015260005b81811015610e9357858101830151858201604001528201610e77565b81811115610ea5576000604083870101525b50601f01601f1916929092016040019392505050565b80356001600160a01b0381168114610ed257600080fd5b919050565b60008060408385031215610eea57600080fd5b610ef383610ebb565b946020939093013593505050565b600080600060608486031215610f1657600080fd5b610f1f84610ebb565b9250610f2d60208501610ebb565b9150604084013590509250925092565b600060208284031215610f4f57600080fd5b5035919050565b600060208284031215610f6857600080fd5b610b7882610ebb565b80358015158114610ed257600080fd5b600080600060608486031215610f9657600080fd5b610f9f84610ebb565b9250610fad60208501610f71565b9150610fbb60408501610f71565b90509250925092565b60008060408385031215610fd757600080fd5b610fe083610ebb565b9150610fee60208401610ebb565b90509250929050565b600181811c9082168061100b57607f821691505b60208210810361102b57634e487b7160e01b600052602260045260246000fd5b50919050565b6020808252818101527f4f776e61626c653a2063616c6c6572206973206e6f7420746865206f776e6572604082015260600190565b634e487b7160e01b600052601160045260246000fd5b6000821982111561108f5761108f611066565b500190565b6000828210156110a6576110a6611066565b500390565b60008160001904831182151516156110c5576110c5611066565b500290565b6000826110e757634e487b7160e01b600052601260045260246000fd5b50049056fea2646970667358221220c9db34060ed97ab15146c6577232afe8f6f1a7301a54dff267f9c59176f290eb64736f6c634300080d0033",
					"opcodes": "PUSH1 0x80 PUSH1 0x40 MSTORE CALLVALUE DUP1 ISZERO PUSH3 0x11 JUMPI PUSH1 0x0 DUP1 REVERT JUMPDEST POP PUSH1 0x40 MLOAD PUSH3 0x16A8 CODESIZE SUB DUP1 PUSH3 0x16A8 DUP4 CODECOPY DUP2 ADD PUSH1 0x40 DUP2 SWAP1 MSTORE PUSH3 0x34 SWAP2 PUSH3 0x4A9 JUMP JUMPDEST DUP2 MLOAD DUP3 SWAP1 DUP3 SWAP1 PUSH3 0x4D SWAP1 PUSH1 0x3 SWAP1 PUSH1 0x20 DUP6 ADD SWAP1 PUSH3 0x336 JUMP JUMPDEST POP DUP1 MLOAD PUSH3 0x63 SWAP1 PUSH1 0x4 SWAP1 PUSH1 0x20 DUP5 ADD SWAP1 PUSH3 0x336 JUMP JUMPDEST POP POP POP PUSH3 0x80 PUSH3 0x7A PUSH3 0xC6 PUSH1 0x20 SHL PUSH1 0x20 SHR JUMP JUMPDEST PUSH3 0xCA JUMP JUMPDEST PUSH1 0x32 PUSH1 0x6 SSTORE PUSH1 0x5 SLOAD PUSH1 0x7 DUP1 SLOAD PUSH1 0x1 PUSH1 0x1 PUSH1 0xA0 SHL SUB NOT AND PUSH1 0x1 PUSH1 0x1 PUSH1 0xA0 SHL SUB SWAP1 SWAP3 AND SWAP2 DUP3 OR SWAP1 SSTORE PUSH3 0xBE SWAP1 PUSH12 0x33B2E3C9FD0803CE8000000 PUSH3 0x11C JUMP JUMPDEST POP POP PUSH3 0x576 JUMP JUMPDEST CALLER SWAP1 JUMP JUMPDEST PUSH1 0x5 DUP1 SLOAD PUSH1 0x1 PUSH1 0x1 PUSH1 0xA0 SHL SUB DUP4 DUP2 AND PUSH1 0x1 PUSH1 0x1 PUSH1 0xA0 SHL SUB NOT DUP4 AND DUP2 OR SWAP1 SWAP4 SSTORE PUSH1 0x40 MLOAD SWAP2 AND SWAP2 SWAP1 DUP3 SWAP1 PUSH32 0x8BE0079C531659141344CD1FD0A4F28419497F9722A3DAAFE3B4186F6B6457E0 SWAP1 PUSH1 0x0 SWAP1 LOG3 POP POP JUMP JUMPDEST PUSH1 0x1 PUSH1 0x1 PUSH1 0xA0 SHL SUB DUP3 AND PUSH3 0x178 JUMPI PUSH1 0x40 MLOAD PUSH3 0x461BCD PUSH1 0xE5 SHL DUP2 MSTORE PUSH1 0x20 PUSH1 0x4 DUP3 ADD MSTORE PUSH1 0x1F PUSH1 0x24 DUP3 ADD MSTORE PUSH32 0x45524332303A206D696E7420746F20746865207A65726F206164647265737300 PUSH1 0x44 DUP3 ADD MSTORE PUSH1 0x64 ADD JUMPDEST PUSH1 0x40 MLOAD DUP1 SWAP2 SUB SWAP1 REVERT JUMPDEST PUSH3 0x186 PUSH1 0x0 DUP4 DUP4 PUSH3 0x213 JUMP JUMPDEST DUP1 PUSH1 0x2 PUSH1 0x0 DUP3 DUP3 SLOAD PUSH3 0x19A SWAP2 SWAP1 PUSH3 0x513 JUMP JUMPDEST SWAP1 SWAP2 SSTORE POP POP PUSH1 0x1 PUSH1 0x1 PUSH1 0xA0 SHL SUB DUP3 AND PUSH1 0x0 SWAP1 DUP2 MSTORE PUSH1 0x20 DUP2 SWAP1 MSTORE PUSH1 0x40 DUP2 KECCAK256 DUP1 SLOAD DUP4 SWAP3 SWAP1 PUSH3 0x1C9 SWAP1 DUP5 SWAP1 PUSH3 0x513 JUMP JUMPDEST SWAP1 SWAP2 SSTORE POP POP PUSH1 0x40 MLOAD DUP2 DUP2 MSTORE PUSH1 0x1 PUSH1 0x1 PUSH1 0xA0 SHL SUB DUP4 AND SWAP1 PUSH1 0x0 SWAP1 PUSH32 0xDDF252AD1BE2C89B69C2B068FC378DAA952BA7F163C4A11628F55A4DF523B3EF SWAP1 PUSH1 0x20 ADD PUSH1 0x40 MLOAD DUP1 SWAP2 SUB SWAP1 LOG3 POP POP JUMP JUMPDEST PUSH1 0x1 PUSH1 0x1 PUSH1 0xA0 SHL SUB DUP4 AND PUSH1 0x0 SWAP1 DUP2 MSTORE PUSH1 0x8 PUSH1 0x20 MSTORE PUSH1 0x40 SWAP1 KECCAK256 SLOAD PUSH1 0xFF AND ISZERO PUSH3 0x295 JUMPI PUSH1 0x40 MLOAD PUSH3 0x461BCD PUSH1 0xE5 SHL DUP2 MSTORE PUSH1 0x20 PUSH1 0x4 DUP3 ADD MSTORE PUSH1 0x2E PUSH1 0x24 DUP3 ADD MSTORE PUSH32 0x4865726F204177616B656E20546F6B656E3A207468652073656E646572206861 PUSH1 0x44 DUP3 ADD MSTORE PUSH14 0x1CC81899595B88189B1BD8DAD959 PUSH1 0x92 SHL PUSH1 0x64 DUP3 ADD MSTORE PUSH1 0x84 ADD PUSH3 0x16F JUMP JUMPDEST PUSH1 0x1 PUSH1 0x1 PUSH1 0xA0 SHL SUB DUP3 AND PUSH1 0x0 SWAP1 DUP2 MSTORE PUSH1 0x9 PUSH1 0x20 MSTORE PUSH1 0x40 SWAP1 KECCAK256 SLOAD PUSH1 0xFF AND ISZERO PUSH3 0x319 JUMPI PUSH1 0x40 MLOAD PUSH3 0x461BCD PUSH1 0xE5 SHL DUP2 MSTORE PUSH1 0x20 PUSH1 0x4 DUP3 ADD MSTORE PUSH1 0x30 PUSH1 0x24 DUP3 ADD MSTORE PUSH32 0x4865726F204177616B656E20546F6B656E3A2074686520726563656976657220 PUSH1 0x44 DUP3 ADD MSTORE PUSH16 0x1A185CC81899595B88189B1BD8DAD959 PUSH1 0x82 SHL PUSH1 0x64 DUP3 ADD MSTORE PUSH1 0x84 ADD PUSH3 0x16F JUMP JUMPDEST PUSH3 0x331 DUP4 DUP4 DUP4 PUSH3 0x331 PUSH1 0x20 SHL PUSH3 0x7B1 OR PUSH1 0x20 SHR JUMP JUMPDEST POP POP POP JUMP JUMPDEST DUP3 DUP1 SLOAD PUSH3 0x344 SWAP1 PUSH3 0x53A JUMP JUMPDEST SWAP1 PUSH1 0x0 MSTORE PUSH1 0x20 PUSH1 0x0 KECCAK256 SWAP1 PUSH1 0x1F ADD PUSH1 0x20 SWAP1 DIV DUP2 ADD SWAP3 DUP3 PUSH3 0x368 JUMPI PUSH1 0x0 DUP6 SSTORE PUSH3 0x3B3 JUMP JUMPDEST DUP3 PUSH1 0x1F LT PUSH3 0x383 JUMPI DUP1 MLOAD PUSH1 0xFF NOT AND DUP4 DUP1 ADD OR DUP6 SSTORE PUSH3 0x3B3 JUMP JUMPDEST DUP3 DUP1 ADD PUSH1 0x1 ADD DUP6 SSTORE DUP3 ISZERO PUSH3 0x3B3 JUMPI SWAP2 DUP3 ADD JUMPDEST DUP3 DUP2 GT ISZERO PUSH3 0x3B3 JUMPI DUP3 MLOAD DUP3 SSTORE SWAP2 PUSH1 0x20 ADD SWAP2 SWAP1 PUSH1 0x1 ADD SWAP1 PUSH3 0x396 JUMP JUMPDEST POP PUSH3 0x3C1 SWAP3 SWAP2 POP PUSH3 0x3C5 JUMP JUMPDEST POP SWAP1 JUMP JUMPDEST JUMPDEST DUP1 DUP3 GT ISZERO PUSH3 0x3C1 JUMPI PUSH1 0x0 DUP2 SSTORE PUSH1 0x1 ADD PUSH3 0x3C6 JUMP JUMPDEST PUSH4 0x4E487B71 PUSH1 0xE0 SHL PUSH1 0x0 MSTORE PUSH1 0x41 PUSH1 0x4 MSTORE PUSH1 0x24 PUSH1 0x0 REVERT JUMPDEST PUSH1 0x0 DUP3 PUSH1 0x1F DUP4 ADD SLT PUSH3 0x404 JUMPI PUSH1 0x0 DUP1 REVERT JUMPDEST DUP2 MLOAD PUSH1 0x1 PUSH1 0x1 PUSH1 0x40 SHL SUB DUP1 DUP3 GT ISZERO PUSH3 0x421 JUMPI PUSH3 0x421 PUSH3 0x3DC JUMP JUMPDEST PUSH1 0x40 MLOAD PUSH1 0x1F DUP4 ADD PUSH1 0x1F NOT SWAP1 DUP2 AND PUSH1 0x3F ADD AND DUP2 ADD SWAP1 DUP3 DUP3 GT DUP2 DUP4 LT OR ISZERO PUSH3 0x44C JUMPI PUSH3 0x44C PUSH3 0x3DC JUMP JUMPDEST DUP2 PUSH1 0x40 MSTORE DUP4 DUP2 MSTORE PUSH1 0x20 SWAP3 POP DUP7 DUP4 DUP6 DUP9 ADD ADD GT ISZERO PUSH3 0x469 JUMPI PUSH1 0x0 DUP1 REVERT JUMPDEST PUSH1 0x0 SWAP2 POP JUMPDEST DUP4 DUP3 LT ISZERO PUSH3 0x48D JUMPI DUP6 DUP3 ADD DUP4 ADD MLOAD DUP2 DUP4 ADD DUP5 ADD MSTORE SWAP1 DUP3 ADD SWAP1 PUSH3 0x46E JUMP JUMPDEST DUP4 DUP3 GT ISZERO PUSH3 0x49F JUMPI PUSH1 0x0 DUP4 DUP6 DUP4 ADD ADD MSTORE JUMPDEST SWAP7 SWAP6 POP POP POP POP POP POP JUMP JUMPDEST PUSH1 0x0 DUP1 PUSH1 0x40 DUP4 DUP6 SUB SLT ISZERO PUSH3 0x4BD JUMPI PUSH1 0x0 DUP1 REVERT JUMPDEST DUP3 MLOAD PUSH1 0x1 PUSH1 0x1 PUSH1 0x40 SHL SUB DUP1 DUP3 GT ISZERO PUSH3 0x4D5 JUMPI PUSH1 0x0 DUP1 REVERT JUMPDEST PUSH3 0x4E3 DUP7 DUP4 DUP8 ADD PUSH3 0x3F2 JUMP JUMPDEST SWAP4 POP PUSH1 0x20 DUP6 ADD MLOAD SWAP2 POP DUP1 DUP3 GT ISZERO PUSH3 0x4FA JUMPI PUSH1 0x0 DUP1 REVERT JUMPDEST POP PUSH3 0x509 DUP6 DUP3 DUP7 ADD PUSH3 0x3F2 JUMP JUMPDEST SWAP2 POP POP SWAP3 POP SWAP3 SWAP1 POP JUMP JUMPDEST PUSH1 0x0 DUP3 NOT DUP3 GT ISZERO PUSH3 0x535 JUMPI PUSH4 0x4E487B71 PUSH1 0xE0 SHL PUSH1 0x0 MSTORE PUSH1 0x11 PUSH1 0x4 MSTORE PUSH1 0x24 PUSH1 0x0 REVERT JUMPDEST POP ADD SWAP1 JUMP JUMPDEST PUSH1 0x1 DUP2 DUP2 SHR SWAP1 DUP3 AND DUP1 PUSH3 0x54F JUMPI PUSH1 0x7F DUP3 AND SWAP2 POP JUMPDEST PUSH1 0x20 DUP3 LT DUP2 SUB PUSH3 0x570 JUMPI PUSH4 0x4E487B71 PUSH1 0xE0 SHL PUSH1 0x0 MSTORE PUSH1 0x22 PUSH1 0x4 MSTORE PUSH1 0x24 PUSH1 0x0 REVERT JUMPDEST POP SWAP2 SWAP1 POP JUMP JUMPDEST PUSH2 0x1122 DUP1 PUSH3 0x586 PUSH1 0x0 CODECOPY PUSH1 0x0 RETURN INVALID PUSH1 0x80 PUSH1 0x40 MSTORE CALLVALUE DUP1 ISZERO PUSH2 0x10 JUMPI PUSH1 0x0 DUP1 REVERT JUMPDEST POP PUSH1 0x4 CALLDATASIZE LT PUSH2 0x14D JUMPI PUSH1 0x0 CALLDATALOAD PUSH1 0xE0 SHR DUP1 PUSH4 0x7F257C3E GT PUSH2 0xC3 JUMPI DUP1 PUSH4 0xA128471F GT PUSH2 0x7C JUMPI DUP1 PUSH4 0xA128471F EQ PUSH2 0x2A7 JUMPI DUP1 PUSH4 0xA457C2D7 EQ PUSH2 0x2BA JUMPI DUP1 PUSH4 0xA9059CBB EQ PUSH2 0x2CD JUMPI DUP1 PUSH4 0xDD62ED3E EQ PUSH2 0x2E0 JUMPI DUP1 PUSH4 0xE5962195 EQ PUSH2 0x319 JUMPI DUP1 PUSH4 0xF2FDE38B EQ PUSH2 0x36D JUMPI PUSH1 0x0 DUP1 REVERT JUMPDEST DUP1 PUSH4 0x7F257C3E EQ PUSH2 0x246 JUMPI DUP1 PUSH4 0x893D20E8 EQ PUSH2 0x26B JUMPI DUP1 PUSH4 0x8BEA9334 EQ PUSH2 0x273 JUMPI DUP1 PUSH4 0x8DA5CB5B EQ PUSH2 0x286 JUMPI DUP1 PUSH4 0x95D89B41 EQ PUSH2 0x297 JUMPI DUP1 PUSH4 0x98118CB4 EQ PUSH2 0x29F JUMPI PUSH1 0x0 DUP1 REVERT JUMPDEST DUP1 PUSH4 0x357BF15C GT PUSH2 0x115 JUMPI DUP1 PUSH4 0x357BF15C EQ PUSH2 0x1C7 JUMPI DUP1 PUSH4 0x39509351 EQ PUSH2 0x1DC JUMPI DUP1 PUSH4 0x42966C68 EQ PUSH2 0x1EF JUMPI DUP1 PUSH4 0x70A08231 EQ PUSH2 0x202 JUMPI DUP1 PUSH4 0x715018A6 EQ PUSH2 0x22B JUMPI DUP1 PUSH4 0x79CC6790 EQ PUSH2 0x233 JUMPI PUSH1 0x0 DUP1 REVERT JUMPDEST DUP1 PUSH4 0x6FDDE03 EQ PUSH2 0x152 JUMPI DUP1 PUSH4 0x95EA7B3 EQ PUSH2 0x170 JUMPI DUP1 PUSH4 0x18160DDD EQ PUSH2 0x193 JUMPI DUP1 PUSH4 0x23B872DD EQ PUSH2 0x1A5 JUMPI DUP1 PUSH4 0x313CE567 EQ PUSH2 0x1B8 JUMPI JUMPDEST PUSH1 0x0 DUP1 REVERT JUMPDEST PUSH2 0x15A PUSH2 0x380 JUMP JUMPDEST PUSH1 0x40 MLOAD PUSH2 0x167 SWAP2 SWAP1 PUSH2 0xE66 JUMP JUMPDEST PUSH1 0x40 MLOAD DUP1 SWAP2 SUB SWAP1 RETURN JUMPDEST PUSH2 0x183 PUSH2 0x17E CALLDATASIZE PUSH1 0x4 PUSH2 0xED7 JUMP JUMPDEST PUSH2 0x412 JUMP JUMPDEST PUSH1 0x40 MLOAD SWAP1 ISZERO ISZERO DUP2 MSTORE PUSH1 0x20 ADD PUSH2 0x167 JUMP JUMPDEST PUSH1 0x2 SLOAD JUMPDEST PUSH1 0x40 MLOAD SWAP1 DUP2 MSTORE PUSH1 0x20 ADD PUSH2 0x167 JUMP JUMPDEST PUSH2 0x183 PUSH2 0x1B3 CALLDATASIZE PUSH1 0x4 PUSH2 0xF01 JUMP JUMPDEST PUSH2 0x42A JUMP JUMPDEST PUSH1 0x40 MLOAD PUSH1 0x12 DUP2 MSTORE PUSH1 0x20 ADD PUSH2 0x167 JUMP JUMPDEST PUSH2 0x1DA PUSH2 0x1D5 CALLDATASIZE PUSH1 0x4 PUSH2 0xF3D JUMP JUMPDEST PUSH2 0x44E JUMP JUMPDEST STOP JUMPDEST PUSH2 0x183 PUSH2 0x1EA CALLDATASIZE PUSH1 0x4 PUSH2 0xED7 JUMP JUMPDEST PUSH2 0x4FE JUMP JUMPDEST PUSH2 0x1DA PUSH2 0x1FD CALLDATASIZE PUSH1 0x4 PUSH2 0xF3D JUMP JUMPDEST PUSH2 0x53D JUMP JUMPDEST PUSH2 0x197 PUSH2 0x210 CALLDATASIZE PUSH1 0x4 PUSH2 0xF56 JUMP JUMPDEST PUSH1 0x1 PUSH1 0x1 PUSH1 0xA0 SHL SUB AND PUSH1 0x0 SWAP1 DUP2 MSTORE PUSH1 0x20 DUP2 SWAP1 MSTORE PUSH1 0x40 SWAP1 KECCAK256 SLOAD SWAP1 JUMP JUMPDEST PUSH2 0x1DA PUSH2 0x54A JUMP JUMPDEST PUSH2 0x1DA PUSH2 0x241 CALLDATASIZE PUSH1 0x4 PUSH2 0xED7 JUMP JUMPDEST PUSH2 0x580 JUMP JUMPDEST PUSH1 0x7 SLOAD PUSH1 0x1 PUSH1 0x1 PUSH1 0xA0 SHL SUB AND JUMPDEST PUSH1 0x40 MLOAD PUSH1 0x1 PUSH1 0x1 PUSH1 0xA0 SHL SUB SWAP1 SWAP2 AND DUP2 MSTORE PUSH1 0x20 ADD PUSH2 0x167 JUMP JUMPDEST PUSH2 0x253 PUSH2 0x599 JUMP JUMPDEST PUSH2 0x1DA PUSH2 0x281 CALLDATASIZE PUSH1 0x4 PUSH2 0xF81 JUMP JUMPDEST PUSH2 0x5B2 JUMP JUMPDEST PUSH1 0x5 SLOAD PUSH1 0x1 PUSH1 0x1 PUSH1 0xA0 SHL SUB AND PUSH2 0x253 JUMP JUMPDEST PUSH2 0x15A PUSH2 0x61E JUMP JUMPDEST PUSH1 0x6 SLOAD PUSH2 0x197 JUMP JUMPDEST PUSH2 0x1DA PUSH2 0x2B5 CALLDATASIZE PUSH1 0x4 PUSH2 0xF56 JUMP JUMPDEST PUSH2 0x62D JUMP JUMPDEST PUSH2 0x183 PUSH2 0x2C8 CALLDATASIZE PUSH1 0x4 PUSH2 0xED7 JUMP JUMPDEST PUSH2 0x679 JUMP JUMPDEST PUSH2 0x183 PUSH2 0x2DB CALLDATASIZE PUSH1 0x4 PUSH2 0xED7 JUMP JUMPDEST PUSH2 0x70B JUMP JUMPDEST PUSH2 0x197 PUSH2 0x2EE CALLDATASIZE PUSH1 0x4 PUSH2 0xFC4 JUMP JUMPDEST PUSH1 0x1 PUSH1 0x1 PUSH1 0xA0 SHL SUB SWAP2 DUP3 AND PUSH1 0x0 SWAP1 DUP2 MSTORE PUSH1 0x1 PUSH1 0x20 SWAP1 DUP2 MSTORE PUSH1 0x40 DUP1 DUP4 KECCAK256 SWAP4 SWAP1 SWAP5 AND DUP3 MSTORE SWAP2 SWAP1 SWAP2 MSTORE KECCAK256 SLOAD SWAP1 JUMP JUMPDEST PUSH2 0x356 PUSH2 0x327 CALLDATASIZE PUSH1 0x4 PUSH2 0xF56 JUMP JUMPDEST PUSH1 0x1 PUSH1 0x1 PUSH1 0xA0 SHL SUB AND PUSH1 0x0 SWAP1 DUP2 MSTORE PUSH1 0x8 PUSH1 0x20 SWAP1 DUP2 MSTORE PUSH1 0x40 DUP1 DUP4 KECCAK256 SLOAD PUSH1 0x9 SWAP1 SWAP3 MSTORE SWAP1 SWAP2 KECCAK256 SLOAD PUSH1 0xFF SWAP2 DUP3 AND SWAP3 SWAP2 AND SWAP1 JUMP JUMPDEST PUSH1 0x40 DUP1 MLOAD SWAP3 ISZERO ISZERO DUP4 MSTORE SWAP1 ISZERO ISZERO PUSH1 0x20 DUP4 ADD MSTORE ADD PUSH2 0x167 JUMP JUMPDEST PUSH2 0x1DA PUSH2 0x37B CALLDATASIZE PUSH1 0x4 PUSH2 0xF56 JUMP JUMPDEST PUSH2 0x719 JUMP JUMPDEST PUSH1 0x60 PUSH1 0x3 DUP1 SLOAD PUSH2 0x38F SWAP1 PUSH2 0xFF7 JUMP JUMPDEST DUP1 PUSH1 0x1F ADD PUSH1 0x20 DUP1 SWAP2 DIV MUL PUSH1 0x20 ADD PUSH1 0x40 MLOAD SWAP1 DUP2 ADD PUSH1 0x40 MSTORE DUP1 SWAP3 SWAP2 SWAP1 DUP2 DUP2 MSTORE PUSH1 0x20 ADD DUP3 DUP1 SLOAD PUSH2 0x3BB SWAP1 PUSH2 0xFF7 JUMP JUMPDEST DUP1 ISZERO PUSH2 0x408 JUMPI DUP1 PUSH1 0x1F LT PUSH2 0x3DD JUMPI PUSH2 0x100 DUP1 DUP4 SLOAD DIV MUL DUP4 MSTORE SWAP2 PUSH1 0x20 ADD SWAP2 PUSH2 0x408 JUMP JUMPDEST DUP3 ADD SWAP2 SWAP1 PUSH1 0x0 MSTORE PUSH1 0x20 PUSH1 0x0 KECCAK256 SWAP1 JUMPDEST DUP2 SLOAD DUP2 MSTORE SWAP1 PUSH1 0x1 ADD SWAP1 PUSH1 0x20 ADD DUP1 DUP4 GT PUSH2 0x3EB JUMPI DUP3 SWAP1 SUB PUSH1 0x1F AND DUP3 ADD SWAP2 JUMPDEST POP POP POP POP POP SWAP1 POP SWAP1 JUMP JUMPDEST PUSH1 0x0 CALLER PUSH2 0x420 DUP2 DUP6 DUP6 PUSH2 0x7B6 JUMP JUMPDEST POP PUSH1 0x1 SWAP4 SWAP3 POP POP POP JUMP JUMPDEST PUSH1 0x0 CALLER PUSH2 0x438 DUP6 DUP3 DUP6 PUSH2 0x8DA JUMP JUMPDEST PUSH2 0x443 DUP6 DUP6 DUP6 PUSH2 0x96C JUMP JUMPDEST POP PUSH1 0x1 SWAP5 SWAP4 POP POP POP POP JUMP JUMPDEST PUSH1 0x5 SLOAD PUSH1 0x1 PUSH1 0x1 PUSH1 0xA0 SHL SUB AND CALLER EQ PUSH2 0x481 JUMPI PUSH1 0x40 MLOAD PUSH3 0x461BCD PUSH1 0xE5 SHL DUP2 MSTORE PUSH1 0x4 ADD PUSH2 0x478 SWAP1 PUSH2 0x1031 JUMP JUMPDEST PUSH1 0x40 MLOAD DUP1 SWAP2 SUB SWAP1 REVERT JUMPDEST PUSH2 0x3E8 DUP2 GT ISZERO PUSH2 0x4F9 JUMPI PUSH1 0x40 MLOAD PUSH3 0x461BCD PUSH1 0xE5 SHL DUP2 MSTORE PUSH1 0x20 PUSH1 0x4 DUP3 ADD MSTORE PUSH1 0x38 PUSH1 0x24 DUP3 ADD MSTORE PUSH32 0x4865726F204177616B656E20546F6B656E3A206C697175696469747920666565 PUSH1 0x44 DUP3 ADD MSTORE PUSH32 0x206D757374206265747765656E203020616E6420313030300000000000000000 PUSH1 0x64 DUP3 ADD MSTORE PUSH1 0x84 ADD PUSH2 0x478 JUMP JUMPDEST PUSH1 0x6 SSTORE JUMP JUMPDEST CALLER PUSH1 0x0 DUP2 DUP2 MSTORE PUSH1 0x1 PUSH1 0x20 SWAP1 DUP2 MSTORE PUSH1 0x40 DUP1 DUP4 KECCAK256 PUSH1 0x1 PUSH1 0x1 PUSH1 0xA0 SHL SUB DUP8 AND DUP5 MSTORE SWAP1 SWAP2 MSTORE DUP2 KECCAK256 SLOAD SWAP1 SWAP2 SWAP1 PUSH2 0x420 SWAP1 DUP3 SWAP1 DUP7 SWAP1 PUSH2 0x538 SWAP1 DUP8 SWAP1 PUSH2 0x107C JUMP JUMPDEST PUSH2 0x7B6 JUMP JUMPDEST PUSH2 0x547 CALLER DUP3 PUSH2 0x9C0 JUMP JUMPDEST POP JUMP JUMPDEST PUSH1 0x5 SLOAD PUSH1 0x1 PUSH1 0x1 PUSH1 0xA0 SHL SUB AND CALLER EQ PUSH2 0x574 JUMPI PUSH1 0x40 MLOAD PUSH3 0x461BCD PUSH1 0xE5 SHL DUP2 MSTORE PUSH1 0x4 ADD PUSH2 0x478 SWAP1 PUSH2 0x1031 JUMP JUMPDEST PUSH2 0x57E PUSH1 0x0 PUSH2 0xB1A JUMP JUMPDEST JUMP JUMPDEST PUSH2 0x58B DUP3 CALLER DUP4 PUSH2 0x8DA JUMP JUMPDEST PUSH2 0x595 DUP3 DUP3 PUSH2 0x9C0 JUMP JUMPDEST POP POP JUMP JUMPDEST PUSH1 0x0 PUSH2 0x5AD PUSH1 0x5 SLOAD PUSH1 0x1 PUSH1 0x1 PUSH1 0xA0 SHL SUB AND SWAP1 JUMP JUMPDEST SWAP1 POP SWAP1 JUMP JUMPDEST PUSH1 0x5 SLOAD PUSH1 0x1 PUSH1 0x1 PUSH1 0xA0 SHL SUB AND CALLER EQ PUSH2 0x5DC JUMPI PUSH1 0x40 MLOAD PUSH3 0x461BCD PUSH1 0xE5 SHL DUP2 MSTORE PUSH1 0x4 ADD PUSH2 0x478 SWAP1 PUSH2 0x1031 JUMP JUMPDEST PUSH1 0x1 PUSH1 0x1 PUSH1 0xA0 SHL SUB SWAP1 SWAP3 AND PUSH1 0x0 SWAP1 DUP2 MSTORE PUSH1 0x8 PUSH1 0x20 SWAP1 DUP2 MSTORE PUSH1 0x40 DUP1 DUP4 KECCAK256 DUP1 SLOAD SWAP5 ISZERO ISZERO PUSH1 0xFF NOT SWAP6 DUP7 AND OR SWAP1 SSTORE PUSH1 0x9 SWAP1 SWAP2 MSTORE SWAP1 KECCAK256 DUP1 SLOAD SWAP3 ISZERO ISZERO SWAP3 SWAP1 SWAP2 AND SWAP2 SWAP1 SWAP2 OR SWAP1 SSTORE JUMP JUMPDEST PUSH1 0x60 PUSH1 0x4 DUP1 SLOAD PUSH2 0x38F SWAP1 PUSH2 0xFF7 JUMP JUMPDEST PUSH1 0x5 SLOAD PUSH1 0x1 PUSH1 0x1 PUSH1 0xA0 SHL SUB AND CALLER EQ PUSH2 0x657 JUMPI PUSH1 0x40 MLOAD PUSH3 0x461BCD PUSH1 0xE5 SHL DUP2 MSTORE PUSH1 0x4 ADD PUSH2 0x478 SWAP1 PUSH2 0x1031 JUMP JUMPDEST PUSH1 0x7 DUP1 SLOAD PUSH1 0x1 PUSH1 0x1 PUSH1 0xA0 SHL SUB NOT AND PUSH1 0x1 PUSH1 0x1 PUSH1 0xA0 SHL SUB SWAP3 SWAP1 SWAP3 AND SWAP2 SWAP1 SWAP2 OR SWAP1 SSTORE JUMP JUMPDEST CALLER PUSH1 0x0 DUP2 DUP2 MSTORE PUSH1 0x1 PUSH1 0x20 SWAP1 DUP2 MSTORE PUSH1 0x40 DUP1 DUP4 KECCAK256 PUSH1 0x1 PUSH1 0x1 PUSH1 0xA0 SHL SUB DUP8 AND DUP5 MSTORE SWAP1 SWAP2 MSTORE DUP2 KECCAK256 SLOAD SWAP1 SWAP2 SWAP1 DUP4 DUP2 LT ISZERO PUSH2 0x6FE JUMPI PUSH1 0x40 MLOAD PUSH3 0x461BCD PUSH1 0xE5 SHL DUP2 MSTORE PUSH1 0x20 PUSH1 0x4 DUP3 ADD MSTORE PUSH1 0x25 PUSH1 0x24 DUP3 ADD MSTORE PUSH32 0x45524332303A2064656372656173656420616C6C6F77616E63652062656C6F77 PUSH1 0x44 DUP3 ADD MSTORE PUSH5 0x207A65726F PUSH1 0xD8 SHL PUSH1 0x64 DUP3 ADD MSTORE PUSH1 0x84 ADD PUSH2 0x478 JUMP JUMPDEST PUSH2 0x443 DUP3 DUP7 DUP7 DUP5 SUB PUSH2 0x7B6 JUMP JUMPDEST PUSH1 0x0 CALLER PUSH2 0x420 DUP2 DUP6 DUP6 PUSH2 0x96C JUMP JUMPDEST PUSH1 0x5 SLOAD PUSH1 0x1 PUSH1 0x1 PUSH1 0xA0 SHL SUB AND CALLER EQ PUSH2 0x743 JUMPI PUSH1 0x40 MLOAD PUSH3 0x461BCD PUSH1 0xE5 SHL DUP2 MSTORE PUSH1 0x4 ADD PUSH2 0x478 SWAP1 PUSH2 0x1031 JUMP JUMPDEST PUSH1 0x1 PUSH1 0x1 PUSH1 0xA0 SHL SUB DUP2 AND PUSH2 0x7A8 JUMPI PUSH1 0x40 MLOAD PUSH3 0x461BCD PUSH1 0xE5 SHL DUP2 MSTORE PUSH1 0x20 PUSH1 0x4 DUP3 ADD MSTORE PUSH1 0x26 PUSH1 0x24 DUP3 ADD MSTORE PUSH32 0x4F776E61626C653A206E6577206F776E657220697320746865207A65726F2061 PUSH1 0x44 DUP3 ADD MSTORE PUSH6 0x646472657373 PUSH1 0xD0 SHL PUSH1 0x64 DUP3 ADD MSTORE PUSH1 0x84 ADD PUSH2 0x478 JUMP JUMPDEST PUSH2 0x547 DUP2 PUSH2 0xB1A JUMP JUMPDEST POP POP POP JUMP JUMPDEST PUSH1 0x1 PUSH1 0x1 PUSH1 0xA0 SHL SUB DUP4 AND PUSH2 0x818 JUMPI PUSH1 0x40 MLOAD PUSH3 0x461BCD PUSH1 0xE5 SHL DUP2 MSTORE PUSH1 0x20 PUSH1 0x4 DUP3 ADD MSTORE PUSH1 0x24 DUP1 DUP3 ADD MSTORE PUSH32 0x45524332303A20617070726F76652066726F6D20746865207A65726F20616464 PUSH1 0x44 DUP3 ADD MSTORE PUSH4 0x72657373 PUSH1 0xE0 SHL PUSH1 0x64 DUP3 ADD MSTORE PUSH1 0x84 ADD PUSH2 0x478 JUMP JUMPDEST PUSH1 0x1 PUSH1 0x1 PUSH1 0xA0 SHL SUB DUP3 AND PUSH2 0x879 JUMPI PUSH1 0x40 MLOAD PUSH3 0x461BCD PUSH1 0xE5 SHL DUP2 MSTORE PUSH1 0x20 PUSH1 0x4 DUP3 ADD MSTORE PUSH1 0x22 PUSH1 0x24 DUP3 ADD MSTORE PUSH32 0x45524332303A20617070726F766520746F20746865207A65726F206164647265 PUSH1 0x44 DUP3 ADD MSTORE PUSH2 0x7373 PUSH1 0xF0 SHL PUSH1 0x64 DUP3 ADD MSTORE PUSH1 0x84 ADD PUSH2 0x478 JUMP JUMPDEST PUSH1 0x1 PUSH1 0x1 PUSH1 0xA0 SHL SUB DUP4 DUP2 AND PUSH1 0x0 DUP2 DUP2 MSTORE PUSH1 0x1 PUSH1 0x20 SWAP1 DUP2 MSTORE PUSH1 0x40 DUP1 DUP4 KECCAK256 SWAP5 DUP8 AND DUP1 DUP5 MSTORE SWAP5 DUP3 MSTORE SWAP2 DUP3 SWAP1 KECCAK256 DUP6 SWAP1 SSTORE SWAP1 MLOAD DUP5 DUP2 MSTORE PUSH32 0x8C5BE1E5EBEC7D5BD14F71427D1E84F3DD0314C0F7B2291E5B200AC8C7C3B925 SWAP2 ADD PUSH1 0x40 MLOAD DUP1 SWAP2 SUB SWAP1 LOG3 POP POP POP JUMP JUMPDEST PUSH1 0x1 PUSH1 0x1 PUSH1 0xA0 SHL SUB DUP4 DUP2 AND PUSH1 0x0 SWAP1 DUP2 MSTORE PUSH1 0x1 PUSH1 0x20 SWAP1 DUP2 MSTORE PUSH1 0x40 DUP1 DUP4 KECCAK256 SWAP4 DUP7 AND DUP4 MSTORE SWAP3 SWAP1 MSTORE KECCAK256 SLOAD PUSH1 0x0 NOT DUP2 EQ PUSH2 0x966 JUMPI DUP2 DUP2 LT ISZERO PUSH2 0x959 JUMPI PUSH1 0x40 MLOAD PUSH3 0x461BCD PUSH1 0xE5 SHL DUP2 MSTORE PUSH1 0x20 PUSH1 0x4 DUP3 ADD MSTORE PUSH1 0x1D PUSH1 0x24 DUP3 ADD MSTORE PUSH32 0x45524332303A20696E73756666696369656E7420616C6C6F77616E6365000000 PUSH1 0x44 DUP3 ADD MSTORE PUSH1 0x64 ADD PUSH2 0x478 JUMP JUMPDEST PUSH2 0x966 DUP5 DUP5 DUP5 DUP5 SUB PUSH2 0x7B6 JUMP JUMPDEST POP POP POP POP JUMP JUMPDEST PUSH1 0x0 PUSH2 0x98F PUSH2 0x3E8 PUSH2 0x989 PUSH1 0x6 SLOAD DUP6 PUSH2 0xB6C SWAP1 SWAP2 SWAP1 PUSH4 0xFFFFFFFF AND JUMP JUMPDEST SWAP1 PUSH2 0xB7F JUMP JUMPDEST SWAP1 POP PUSH2 0x99B DUP2 DUP4 PUSH2 0x1094 JUMP JUMPDEST SWAP2 POP PUSH2 0x9A8 DUP5 DUP5 DUP5 PUSH2 0xB8B JUMP JUMPDEST PUSH1 0x7 SLOAD PUSH2 0x966 SWAP1 DUP6 SWAP1 PUSH1 0x1 PUSH1 0x1 PUSH1 0xA0 SHL SUB AND DUP4 PUSH2 0xB8B JUMP JUMPDEST PUSH1 0x1 PUSH1 0x1 PUSH1 0xA0 SHL SUB DUP3 AND PUSH2 0xA20 JUMPI PUSH1 0x40 MLOAD PUSH3 0x461BCD PUSH1 0xE5 SHL DUP2 MSTORE PUSH1 0x20 PUSH1 0x4 DUP3 ADD MSTORE PUSH1 0x21 PUSH1 0x24 DUP3 ADD MSTORE PUSH32 0x45524332303A206275726E2066726F6D20746865207A65726F20616464726573 PUSH1 0x44 DUP3 ADD MSTORE PUSH1 0x73 PUSH1 0xF8 SHL PUSH1 0x64 DUP3 ADD MSTORE PUSH1 0x84 ADD PUSH2 0x478 JUMP JUMPDEST PUSH2 0xA2C DUP3 PUSH1 0x0 DUP4 PUSH2 0xD64 JUMP JUMPDEST PUSH1 0x1 PUSH1 0x1 PUSH1 0xA0 SHL SUB DUP3 AND PUSH1 0x0 SWAP1 DUP2 MSTORE PUSH1 0x20 DUP2 SWAP1 MSTORE PUSH1 0x40 SWAP1 KECCAK256 SLOAD DUP2 DUP2 LT ISZERO PUSH2 0xAA0 JUMPI PUSH1 0x40 MLOAD PUSH3 0x461BCD PUSH1 0xE5 SHL DUP2 MSTORE PUSH1 0x20 PUSH1 0x4 DUP3 ADD MSTORE PUSH1 0x22 PUSH1 0x24 DUP3 ADD MSTORE PUSH32 0x45524332303A206275726E20616D6F756E7420657863656564732062616C616E PUSH1 0x44 DUP3 ADD MSTORE PUSH2 0x6365 PUSH1 0xF0 SHL PUSH1 0x64 DUP3 ADD MSTORE PUSH1 0x84 ADD PUSH2 0x478 JUMP JUMPDEST PUSH1 0x1 PUSH1 0x1 PUSH1 0xA0 SHL SUB DUP4 AND PUSH1 0x0 SWAP1 DUP2 MSTORE PUSH1 0x20 DUP2 SWAP1 MSTORE PUSH1 0x40 DUP2 KECCAK256 DUP4 DUP4 SUB SWAP1 SSTORE PUSH1 0x2 DUP1 SLOAD DUP5 SWAP3 SWAP1 PUSH2 0xACF SWAP1 DUP5 SWAP1 PUSH2 0x1094 JUMP JUMPDEST SWAP1 SWAP2 SSTORE POP POP PUSH1 0x40 MLOAD DUP3 DUP2 MSTORE PUSH1 0x0 SWAP1 PUSH1 0x1 PUSH1 0x1 PUSH1 0xA0 SHL SUB DUP6 AND SWAP1 PUSH32 0xDDF252AD1BE2C89B69C2B068FC378DAA952BA7F163C4A11628F55A4DF523B3EF SWAP1 PUSH1 0x20 ADD PUSH1 0x40 MLOAD DUP1 SWAP2 SUB SWAP1 LOG3 POP POP POP JUMP JUMPDEST PUSH1 0x5 DUP1 SLOAD PUSH1 0x1 PUSH1 0x1 PUSH1 0xA0 SHL SUB DUP4 DUP2 AND PUSH1 0x1 PUSH1 0x1 PUSH1 0xA0 SHL SUB NOT DUP4 AND DUP2 OR SWAP1 SWAP4 SSTORE PUSH1 0x40 MLOAD SWAP2 AND SWAP2 SWAP1 DUP3 SWAP1 PUSH32 0x8BE0079C531659141344CD1FD0A4F28419497F9722A3DAAFE3B4186F6B6457E0 SWAP1 PUSH1 0x0 SWAP1 LOG3 POP POP JUMP JUMPDEST PUSH1 0x0 PUSH2 0xB78 DUP3 DUP5 PUSH2 0x10AB JUMP JUMPDEST SWAP4 SWAP3 POP POP POP JUMP JUMPDEST PUSH1 0x0 PUSH2 0xB78 DUP3 DUP5 PUSH2 0x10CA JUMP JUMPDEST PUSH1 0x1 PUSH1 0x1 PUSH1 0xA0 SHL SUB DUP4 AND PUSH2 0xBEF JUMPI PUSH1 0x40 MLOAD PUSH3 0x461BCD PUSH1 0xE5 SHL DUP2 MSTORE PUSH1 0x20 PUSH1 0x4 DUP3 ADD MSTORE PUSH1 0x25 PUSH1 0x24 DUP3 ADD MSTORE PUSH32 0x45524332303A207472616E736665722066726F6D20746865207A65726F206164 PUSH1 0x44 DUP3 ADD MSTORE PUSH5 0x6472657373 PUSH1 0xD8 SHL PUSH1 0x64 DUP3 ADD MSTORE PUSH1 0x84 ADD PUSH2 0x478 JUMP JUMPDEST PUSH1 0x1 PUSH1 0x1 PUSH1 0xA0 SHL SUB DUP3 AND PUSH2 0xC51 JUMPI PUSH1 0x40 MLOAD PUSH3 0x461BCD PUSH1 0xE5 SHL DUP2 MSTORE PUSH1 0x20 PUSH1 0x4 DUP3 ADD MSTORE PUSH1 0x23 PUSH1 0x24 DUP3 ADD MSTORE PUSH32 0x45524332303A207472616E7366657220746F20746865207A65726F2061646472 PUSH1 0x44 DUP3 ADD MSTORE PUSH3 0x657373 PUSH1 0xE8 SHL PUSH1 0x64 DUP3 ADD MSTORE PUSH1 0x84 ADD PUSH2 0x478 JUMP JUMPDEST PUSH2 0xC5C DUP4 DUP4 DUP4 PUSH2 0xD64 JUMP JUMPDEST PUSH1 0x1 PUSH1 0x1 PUSH1 0xA0 SHL SUB DUP4 AND PUSH1 0x0 SWAP1 DUP2 MSTORE PUSH1 0x20 DUP2 SWAP1 MSTORE PUSH1 0x40 SWAP1 KECCAK256 SLOAD DUP2 DUP2 LT ISZERO PUSH2 0xCD4 JUMPI PUSH1 0x40 MLOAD PUSH3 0x461BCD PUSH1 0xE5 SHL DUP2 MSTORE PUSH1 0x20 PUSH1 0x4 DUP3 ADD MSTORE PUSH1 0x26 PUSH1 0x24 DUP3 ADD MSTORE PUSH32 0x45524332303A207472616E7366657220616D6F756E7420657863656564732062 PUSH1 0x44 DUP3 ADD MSTORE PUSH6 0x616C616E6365 PUSH1 0xD0 SHL PUSH1 0x64 DUP3 ADD MSTORE PUSH1 0x84 ADD PUSH2 0x478 JUMP JUMPDEST PUSH1 0x1 PUSH1 0x1 PUSH1 0xA0 SHL SUB DUP1 DUP6 AND PUSH1 0x0 SWAP1 DUP2 MSTORE PUSH1 0x20 DUP2 SWAP1 MSTORE PUSH1 0x40 DUP1 DUP3 KECCAK256 DUP6 DUP6 SUB SWAP1 SSTORE SWAP2 DUP6 AND DUP2 MSTORE SWAP1 DUP2 KECCAK256 DUP1 SLOAD DUP5 SWAP3 SWAP1 PUSH2 0xD0B SWAP1 DUP5 SWAP1 PUSH2 0x107C JUMP JUMPDEST SWAP3 POP POP DUP2 SWAP1 SSTORE POP DUP3 PUSH1 0x1 PUSH1 0x1 PUSH1 0xA0 SHL SUB AND DUP5 PUSH1 0x1 PUSH1 0x1 PUSH1 0xA0 SHL SUB AND PUSH32 0xDDF252AD1BE2C89B69C2B068FC378DAA952BA7F163C4A11628F55A4DF523B3EF DUP5 PUSH1 0x40 MLOAD PUSH2 0xD57 SWAP2 DUP2 MSTORE PUSH1 0x20 ADD SWAP1 JUMP JUMPDEST PUSH1 0x40 MLOAD DUP1 SWAP2 SUB SWAP1 LOG3 PUSH2 0x966 JUMP JUMPDEST PUSH1 0x1 PUSH1 0x1 PUSH1 0xA0 SHL SUB DUP4 AND PUSH1 0x0 SWAP1 DUP2 MSTORE PUSH1 0x8 PUSH1 0x20 MSTORE PUSH1 0x40 SWAP1 KECCAK256 SLOAD PUSH1 0xFF AND ISZERO PUSH2 0xDE4 JUMPI PUSH1 0x40 MLOAD PUSH3 0x461BCD PUSH1 0xE5 SHL DUP2 MSTORE PUSH1 0x20 PUSH1 0x4 DUP3 ADD MSTORE PUSH1 0x2E PUSH1 0x24 DUP3 ADD MSTORE PUSH32 0x4865726F204177616B656E20546F6B656E3A207468652073656E646572206861 PUSH1 0x44 DUP3 ADD MSTORE PUSH14 0x1CC81899595B88189B1BD8DAD959 PUSH1 0x92 SHL PUSH1 0x64 DUP3 ADD MSTORE PUSH1 0x84 ADD PUSH2 0x478 JUMP JUMPDEST PUSH1 0x1 PUSH1 0x1 PUSH1 0xA0 SHL SUB DUP3 AND PUSH1 0x0 SWAP1 DUP2 MSTORE PUSH1 0x9 PUSH1 0x20 MSTORE PUSH1 0x40 SWAP1 KECCAK256 SLOAD PUSH1 0xFF AND ISZERO PUSH2 0x7B1 JUMPI PUSH1 0x40 MLOAD PUSH3 0x461BCD PUSH1 0xE5 SHL DUP2 MSTORE PUSH1 0x20 PUSH1 0x4 DUP3 ADD MSTORE PUSH1 0x30 PUSH1 0x24 DUP3 ADD MSTORE PUSH32 0x4865726F204177616B656E20546F6B656E3A2074686520726563656976657220 PUSH1 0x44 DUP3 ADD MSTORE PUSH16 0x1A185CC81899595B88189B1BD8DAD959 PUSH1 0x82 SHL PUSH1 0x64 DUP3 ADD MSTORE PUSH1 0x84 ADD PUSH2 0x478 JUMP JUMPDEST PUSH1 0x0 PUSH1 0x20 DUP1 DUP4 MSTORE DUP4 MLOAD DUP1 DUP3 DUP6 ADD MSTORE PUSH1 0x0 JUMPDEST DUP2 DUP2 LT ISZERO PUSH2 0xE93 JUMPI DUP6 DUP2 ADD DUP4 ADD MLOAD DUP6 DUP3 ADD PUSH1 0x40 ADD MSTORE DUP3 ADD PUSH2 0xE77 JUMP JUMPDEST DUP2 DUP2 GT ISZERO PUSH2 0xEA5 JUMPI PUSH1 0x0 PUSH1 0x40 DUP4 DUP8 ADD ADD MSTORE JUMPDEST POP PUSH1 0x1F ADD PUSH1 0x1F NOT AND SWAP3 SWAP1 SWAP3 ADD PUSH1 0x40 ADD SWAP4 SWAP3 POP POP POP JUMP JUMPDEST DUP1 CALLDATALOAD PUSH1 0x1 PUSH1 0x1 PUSH1 0xA0 SHL SUB DUP2 AND DUP2 EQ PUSH2 0xED2 JUMPI PUSH1 0x0 DUP1 REVERT JUMPDEST SWAP2 SWAP1 POP JUMP JUMPDEST PUSH1 0x0 DUP1 PUSH1 0x40 DUP4 DUP6 SUB SLT ISZERO PUSH2 0xEEA JUMPI PUSH1 0x0 DUP1 REVERT JUMPDEST PUSH2 0xEF3 DUP4 PUSH2 0xEBB JUMP JUMPDEST SWAP5 PUSH1 0x20 SWAP4 SWAP1 SWAP4 ADD CALLDATALOAD SWAP4 POP POP POP JUMP JUMPDEST PUSH1 0x0 DUP1 PUSH1 0x0 PUSH1 0x60 DUP5 DUP7 SUB SLT ISZERO PUSH2 0xF16 JUMPI PUSH1 0x0 DUP1 REVERT JUMPDEST PUSH2 0xF1F DUP5 PUSH2 0xEBB JUMP JUMPDEST SWAP3 POP PUSH2 0xF2D PUSH1 0x20 DUP6 ADD PUSH2 0xEBB JUMP JUMPDEST SWAP2 POP PUSH1 0x40 DUP5 ADD CALLDATALOAD SWAP1 POP SWAP3 POP SWAP3 POP SWAP3 JUMP JUMPDEST PUSH1 0x0 PUSH1 0x20 DUP3 DUP5 SUB SLT ISZERO PUSH2 0xF4F JUMPI PUSH1 0x0 DUP1 REVERT JUMPDEST POP CALLDATALOAD SWAP2 SWAP1 POP JUMP JUMPDEST PUSH1 0x0 PUSH1 0x20 DUP3 DUP5 SUB SLT ISZERO PUSH2 0xF68 JUMPI PUSH1 0x0 DUP1 REVERT JUMPDEST PUSH2 0xB78 DUP3 PUSH2 0xEBB JUMP JUMPDEST DUP1 CALLDATALOAD DUP1 ISZERO ISZERO DUP2 EQ PUSH2 0xED2 JUMPI PUSH1 0x0 DUP1 REVERT JUMPDEST PUSH1 0x0 DUP1 PUSH1 0x0 PUSH1 0x60 DUP5 DUP7 SUB SLT ISZERO PUSH2 0xF96 JUMPI PUSH1 0x0 DUP1 REVERT JUMPDEST PUSH2 0xF9F DUP5 PUSH2 0xEBB JUMP JUMPDEST SWAP3 POP PUSH2 0xFAD PUSH1 0x20 DUP6 ADD PUSH2 0xF71 JUMP JUMPDEST SWAP2 POP PUSH2 0xFBB PUSH1 0x40 DUP6 ADD PUSH2 0xF71 JUMP JUMPDEST SWAP1 POP SWAP3 POP SWAP3 POP SWAP3 JUMP JUMPDEST PUSH1 0x0 DUP1 PUSH1 0x40 DUP4 DUP6 SUB SLT ISZERO PUSH2 0xFD7 JUMPI PUSH1 0x0 DUP1 REVERT JUMPDEST PUSH2 0xFE0 DUP4 PUSH2 0xEBB JUMP JUMPDEST SWAP2 POP PUSH2 0xFEE PUSH1 0x20 DUP5 ADD PUSH2 0xEBB JUMP JUMPDEST SWAP1 POP SWAP3 POP SWAP3 SWAP1 POP JUMP JUMPDEST PUSH1 0x1 DUP2 DUP2 SHR SWAP1 DUP3 AND DUP1 PUSH2 0x100B JUMPI PUSH1 0x7F DUP3 AND SWAP2 POP JUMPDEST PUSH1 0x20 DUP3 LT DUP2 SUB PUSH2 0x102B JUMPI PUSH4 0x4E487B71 PUSH1 0xE0 SHL PUSH1 0x0 MSTORE PUSH1 0x22 PUSH1 0x4 MSTORE PUSH1 0x24 PUSH1 0x0 REVERT JUMPDEST POP SWAP2 SWAP1 POP JUMP JUMPDEST PUSH1 0x20 DUP1 DUP3 MSTORE DUP2 DUP2 ADD MSTORE PUSH32 0x4F776E61626C653A2063616C6C6572206973206E6F7420746865206F776E6572 PUSH1 0x40 DUP3 ADD MSTORE PUSH1 0x60 ADD SWAP1 JUMP JUMPDEST PUSH4 0x4E487B71 PUSH1 0xE0 SHL PUSH1 0x0 MSTORE PUSH1 0x11 PUSH1 0x4 MSTORE PUSH1 0x24 PUSH1 0x0 REVERT JUMPDEST PUSH1 0x0 DUP3 NOT DUP3 GT ISZERO PUSH2 0x108F JUMPI PUSH2 0x108F PUSH2 0x1066 JUMP JUMPDEST POP ADD SWAP1 JUMP JUMPDEST PUSH1 0x0 DUP3 DUP3 LT ISZERO PUSH2 0x10A6 JUMPI PUSH2 0x10A6 PUSH2 0x1066 JUMP JUMPDEST POP SUB SWAP1 JUMP JUMPDEST PUSH1 0x0 DUP2 PUSH1 0x0 NOT DIV DUP4 GT DUP3 ISZERO ISZERO AND ISZERO PUSH2 0x10C5 JUMPI PUSH2 0x10C5 PUSH2 0x1066 JUMP JUMPDEST POP MUL SWAP1 JUMP JUMPDEST PUSH1 0x0 DUP3 PUSH2 0x10E7 JUMPI PUSH4 0x4E487B71 PUSH1 0xE0 SHL PUSH1 0x0 MSTORE PUSH1 0x12 PUSH1 0x4 MSTORE PUSH1 0x24 PUSH1 0x0 REVERT JUMPDEST POP DIV SWAP1 JUMP INVALID LOG2 PUSH5 0x6970667358 0x22 SLT KECCAK256 0xC9 0xDB CALLVALUE MOD 0xE 0xD9 PUSH27 0xB15146C6577232AFE8F6F1A7301A54DFF267F9C59176F290EB6473 PUSH16 0x6C634300080D00330000000000000000 "
				},
				"gasEstimates": {
					"creation": {
						"codeDepositCost": "877200",
						"executionCost": "infinite",
						"totalCost": "infinite"
					},
					"external": {
						"allowance(address,address)": "infinite",
						"approve(address,uint256)": "24647",
						"balanceOf(address)": "2629",
						"blockUser(address,bool,bool)": "infinite",
						"blocked(address)": "4867",
						"burn(uint256)": "55381",
						"burnFrom(address,uint256)": "82110",
						"decimals()": "289",
						"decreaseAllowance(address,uint256)": "26944",
						"getOwner()": "2414",
						"increaseAllowance(address,uint256)": "26990",
						"liquidityFee()": "2425",
						"liquidityKeeper()": "2343",
						"name()": "infinite",
						"owner()": "2420",
						"renounceOwnership()": "28228",
						"setLiquidityFee(uint256)": "24513",
						"setLiquidityKeeper(address)": "26733",
						"symbol()": "infinite",
						"totalSupply()": "2349",
						"transfer(address,uint256)": "infinite",
						"transferFrom(address,address,uint256)": "infinite",
						"transferOwnership(address)": "28444"
					},
					"internal": {
						"_beforeTokenTransfer(address,address,uint256)": "infinite",
						"_transfer(address,address,uint256)": "infinite"
					}
				},
				"methodIdentifiers": {
					"allowance(address,address)": "dd62ed3e",
					"approve(address,uint256)": "095ea7b3",
					"balanceOf(address)": "70a08231",
					"blockUser(address,bool,bool)": "8bea9334",
					"blocked(address)": "e5962195",
					"burn(uint256)": "42966c68",
					"burnFrom(address,uint256)": "79cc6790",
					"decimals()": "313ce567",
					"decreaseAllowance(address,uint256)": "a457c2d7",
					"getOwner()": "893d20e8",
					"increaseAllowance(address,uint256)": "39509351",
					"liquidityFee()": "98118cb4",
					"liquidityKeeper()": "7f257c3e",
					"name()": "06fdde03",
					"owner()": "8da5cb5b",
					"renounceOwnership()": "715018a6",
					"setLiquidityFee(uint256)": "357bf15c",
					"setLiquidityKeeper(address)": "a128471f",
					"symbol()": "95d89b41",
					"totalSupply()": "18160ddd",
					"transfer(address,uint256)": "a9059cbb",
					"transferFrom(address,address,uint256)": "23b872dd",
					"transferOwnership(address)": "f2fde38b"
				}
			},
			"userdoc": {
				"kind": "user",
				"methods": {},
				"version": 1
			}
		}
	}
}