{
	"contracts/HatTokenV2.sol": {
		"HatToken": {
			"abi": [
				{
					"inputs": [
						{
							"internalType": "string",
							"name": "name",
							"type": "string"
						},
						{
							"internalType": "string",
							"name": "symbol",
							"type": "string"
						}
					],
					"stateMutability": "nonpayable",
					"type": "constructor"
				},
				{
					"anonymous": false,
					"inputs": [
						{
							"indexed": true,
							"internalType": "address",
							"name": "owner",
							"type": "address"
						},
						{
							"indexed": true,
							"internalType": "address",
							"name": "spender",
							"type": "address"
						},
						{
							"indexed": false,
							"internalType": "uint256",
							"name": "value",
							"type": "uint256"
						}
					],
					"name": "Approval",
					"type": "event"
				},
				{
					"anonymous": false,
					"inputs": [
						{
							"indexed": true,
							"internalType": "address",
							"name": "previousOwner",
							"type": "address"
						},
						{
							"indexed": true,
							"internalType": "address",
							"name": "newOwner",
							"type": "address"
						}
					],
					"name": "OwnershipTransferred",
					"type": "event"
				},
				{
					"anonymous": false,
					"inputs": [
						{
							"indexed": false,
							"internalType": "address",
							"name": "account",
							"type": "address"
						}
					],
					"name": "Paused",
					"type": "event"
				},
				{
					"anonymous": false,
					"inputs": [
						{
							"indexed": true,
							"internalType": "bytes32",
							"name": "role",
							"type": "bytes32"
						},
						{
							"indexed": true,
							"internalType": "bytes32",
							"name": "previousAdminRole",
							"type": "bytes32"
						},
						{
							"indexed": true,
							"internalType": "bytes32",
							"name": "newAdminRole",
							"type": "bytes32"
						}
					],
					"name": "RoleAdminChanged",
					"type": "event"
				},
				{
					"anonymous": false,
					"inputs": [
						{
							"indexed": true,
							"internalType": "bytes32",
							"name": "role",
							"type": "bytes32"
						},
						{
							"indexed": true,
							"internalType": "address",
							"name": "account",
							"type": "address"
						},
						{
							"indexed": true,
							"internalType": "address",
							"name": "sender",
							"type": "address"
						}
					],
					"name": "RoleGranted",
					"type": "event"
				},
				{
					"anonymous": false,
					"inputs": [
						{
							"indexed": true,
							"internalType": "bytes32",
							"name": "role",
							"type": "bytes32"
						},
						{
							"indexed": true,
							"internalType": "address",
							"name": "account",
							"type": "address"
						},
						{
							"indexed": true,
							"internalType": "address",
							"name": "sender",
							"type": "address"
						}
					],
					"name": "RoleRevoked",
					"type": "event"
				},
				{
					"anonymous": false,
					"inputs": [
						{
							"indexed": true,
							"internalType": "address",
							"name": "from",
							"type": "address"
						},
						{
							"indexed": true,
							"internalType": "address",
							"name": "to",
							"type": "address"
						},
						{
							"indexed": false,
							"internalType": "uint256",
							"name": "value",
							"type": "uint256"
						}
					],
					"name": "Transfer",
					"type": "event"
				},
				{
					"anonymous": false,
					"inputs": [
						{
							"indexed": false,
							"internalType": "address",
							"name": "account",
							"type": "address"
						}
					],
					"name": "Unpaused",
					"type": "event"
				},
				{
					"inputs": [],
					"name": "DEFAULT_ADMIN_ROLE",
					"outputs": [
						{
							"internalType": "bytes32",
							"name": "",
							"type": "bytes32"
						}
					],
					"stateMutability": "view",
					"type": "function"
				},
				{
					"inputs": [],
					"name": "MINTER_ROLE",
					"outputs": [
						{
							"internalType": "bytes32",
							"name": "",
							"type": "bytes32"
						}
					],
					"stateMutability": "view",
					"type": "function"
				},
				{
					"inputs": [],
					"name": "PAUSER_ROLE",
					"outputs": [
						{
							"internalType": "bytes32",
							"name": "",
							"type": "bytes32"
						}
					],
					"stateMutability": "view",
					"type": "function"
				},
				{
					"inputs": [
						{
							"internalType": "address",
							"name": "owner",
							"type": "address"
						},
						{
							"internalType": "address",
							"name": "spender",
							"type": "address"
						}
					],
					"name": "allowance",
					"outputs": [
						{
							"internalType": "uint256",
							"name": "",
							"type": "uint256"
						}
					],
					"stateMutability": "view",
					"type": "function"
				},
				{
					"inputs": [
						{
							"internalType": "address",
							"name": "spender",
							"type": "address"
						},
						{
							"internalType": "uint256",
							"name": "amount",
							"type": "uint256"
						}
					],
					"name": "approve",
					"outputs": [
						{
							"internalType": "bool",
							"name": "",
							"type": "bool"
						}
					],
					"stateMutability": "nonpayable",
					"type": "function"
				},
				{
					"inputs": [
						{
							"internalType": "address",
							"name": "account",
							"type": "address"
						}
					],
					"name": "balanceOf",
					"outputs": [
						{
							"internalType": "uint256",
							"name": "",
							"type": "uint256"
						}
					],
					"stateMutability": "view",
					"type": "function"
				},
				{
					"inputs": [
						{
							"internalType": "uint256",
							"name": "amount",
							"type": "uint256"
						}
					],
					"name": "burn",
					"outputs": [],
					"stateMutability": "nonpayable",
					"type": "function"
				},
				{
					"inputs": [
						{
							"internalType": "address",
							"name": "account",
							"type": "address"
						},
						{
							"internalType": "uint256",
							"name": "amount",
							"type": "uint256"
						}
					],
					"name": "burnFrom",
					"outputs": [],
					"stateMutability": "nonpayable",
					"type": "function"
				},
				{
					"inputs": [],
					"name": "decimals",
					"outputs": [
						{
							"internalType": "uint8",
							"name": "",
							"type": "uint8"
						}
					],
					"stateMutability": "view",
					"type": "function"
				},
				{
					"inputs": [
						{
							"internalType": "address",
							"name": "spender",
							"type": "address"
						},
						{
							"internalType": "uint256",
							"name": "subtractedValue",
							"type": "uint256"
						}
					],
					"name": "decreaseAllowance",
					"outputs": [
						{
							"internalType": "bool",
							"name": "",
							"type": "bool"
						}
					],
					"stateMutability": "nonpayable",
					"type": "function"
				},
				{
					"inputs": [],
					"name": "getOwner",
					"outputs": [
						{
							"internalType": "address",
							"name": "",
							"type": "address"
						}
					],
					"stateMutability": "view",
					"type": "function"
				},
				{
					"inputs": [
						{
							"internalType": "bytes32",
							"name": "role",
							"type": "bytes32"
						}
					],
					"name": "getRoleAdmin",
					"outputs": [
						{
							"internalType": "bytes32",
							"name": "",
							"type": "bytes32"
						}
					],
					"stateMutability": "view",
					"type": "function"
				},
				{
					"inputs": [
						{
							"internalType": "bytes32",
							"name": "role",
							"type": "bytes32"
						},
						{
							"internalType": "uint256",
							"name": "index",
							"type": "uint256"
						}
					],
					"name": "getRoleMember",
					"outputs": [
						{
							"internalType": "address",
							"name": "",
							"type": "address"
						}
					],
					"stateMutability": "view",
					"type": "function"
				},
				{
					"inputs": [
						{
							"internalType": "bytes32",
							"name": "role",
							"type": "bytes32"
						}
					],
					"name": "getRoleMemberCount",
					"outputs": [
						{
							"internalType": "uint256",
							"name": "",
							"type": "uint256"
						}
					],
					"stateMutability": "view",
					"type": "function"
				},
				{
					"inputs": [
						{
							"internalType": "bytes32",
							"name": "role",
							"type": "bytes32"
						},
						{
							"internalType": "address",
							"name": "account",
							"type": "address"
						}
					],
					"name": "grantRole",
					"outputs": [],
					"stateMutability": "nonpayable",
					"type": "function"
				},
				{
					"inputs": [
						{
							"internalType": "bytes32",
							"name": "role",
							"type": "bytes32"
						},
						{
							"internalType": "address",
							"name": "account",
							"type": "address"
						}
					],
					"name": "hasRole",
					"outputs": [
						{
							"internalType": "bool",
							"name": "",
							"type": "bool"
						}
					],
					"stateMutability": "view",
					"type": "function"
				},
				{
					"inputs": [
						{
							"internalType": "address",
							"name": "spender",
							"type": "address"
						},
						{
							"internalType": "uint256",
							"name": "addedValue",
							"type": "uint256"
						}
					],
					"name": "increaseAllowance",
					"outputs": [
						{
							"internalType": "bool",
							"name": "",
							"type": "bool"
						}
					],
					"stateMutability": "nonpayable",
					"type": "function"
				},
				{
					"inputs": [],
					"name": "name",
					"outputs": [
						{
							"internalType": "string",
							"name": "",
							"type": "string"
						}
					],
					"stateMutability": "view",
					"type": "function"
				},
				{
					"inputs": [],
					"name": "owner",
					"outputs": [
						{
							"internalType": "address",
							"name": "",
							"type": "address"
						}
					],
					"stateMutability": "view",
					"type": "function"
				},
				{
					"inputs": [],
					"name": "pause",
					"outputs": [],
					"stateMutability": "nonpayable",
					"type": "function"
				},
				{
					"inputs": [],
					"name": "paused",
					"outputs": [
						{
							"internalType": "bool",
							"name": "",
							"type": "bool"
						}
					],
					"stateMutability": "view",
					"type": "function"
				},
				{
					"inputs": [],
					"name": "renounceOwnership",
					"outputs": [],
					"stateMutability": "nonpayable",
					"type": "function"
				},
				{
					"inputs": [
						{
							"internalType": "bytes32",
							"name": "role",
							"type": "bytes32"
						},
						{
							"internalType": "address",
							"name": "account",
							"type": "address"
						}
					],
					"name": "renounceRole",
					"outputs": [],
					"stateMutability": "nonpayable",
					"type": "function"
				},
				{
					"inputs": [
						{
							"internalType": "bytes32",
							"name": "role",
							"type": "bytes32"
						},
						{
							"internalType": "address",
							"name": "account",
							"type": "address"
						}
					],
					"name": "revokeRole",
					"outputs": [],
					"stateMutability": "nonpayable",
					"type": "function"
				},
				{
					"inputs": [
						{
							"internalType": "uint256",
							"name": "fee",
							"type": "uint256"
						}
					],
					"name": "setLiquidityFee",
					"outputs": [],
					"stateMutability": "nonpayable",
					"type": "function"
				},
				{
					"inputs": [
						{
							"internalType": "address",
							"name": "keeper",
							"type": "address"
						}
					],
					"name": "setLiquidityKeeper",
					"outputs": [],
					"stateMutability": "nonpayable",
					"type": "function"
				},
				{
					"inputs": [
						{
							"internalType": "bytes4",
							"name": "interfaceId",
							"type": "bytes4"
						}
					],
					"name": "supportsInterface",
					"outputs": [
						{
							"internalType": "bool",
							"name": "",
							"type": "bool"
						}
					],
					"stateMutability": "view",
					"type": "function"
				},
				{
					"inputs": [],
					"name": "symbol",
					"outputs": [
						{
							"internalType": "string",
							"name": "",
							"type": "string"
						}
					],
					"stateMutability": "view",
					"type": "function"
				},
				{
					"inputs": [],
					"name": "totalSupply",
					"outputs": [
						{
							"internalType": "uint256",
							"name": "",
							"type": "uint256"
						}
					],
					"stateMutability": "view",
					"type": "function"
				},
				{
					"inputs": [
						{
							"internalType": "address",
							"name": "to",
							"type": "address"
						},
						{
							"internalType": "uint256",
							"name": "amount",
							"type": "uint256"
						}
					],
					"name": "transfer",
					"outputs": [
						{
							"internalType": "bool",
							"name": "",
							"type": "bool"
						}
					],
					"stateMutability": "nonpayable",
					"type": "function"
				},
				{
					"inputs": [
						{
							"internalType": "address",
							"name": "from",
							"type": "address"
						},
						{
							"internalType": "address",
							"name": "to",
							"type": "address"
						},
						{
							"internalType": "uint256",
							"name": "amount",
							"type": "uint256"
						}
					],
					"name": "transferFrom",
					"outputs": [
						{
							"internalType": "bool",
							"name": "",
							"type": "bool"
						}
					],
					"stateMutability": "nonpayable",
					"type": "function"
				},
				{
					"inputs": [
						{
							"internalType": "address",
							"name": "newOwner",
							"type": "address"
						}
					],
					"name": "transferOwnership",
					"outputs": [],
					"stateMutability": "nonpayable",
					"type": "function"
				},
				{
					"inputs": [],
					"name": "unpause",
					"outputs": [],
					"stateMutability": "nonpayable",
					"type": "function"
				}
			],
			"devdoc": {
				"kind": "dev",
				"methods": {
					"allowance(address,address)": {
						"details": "See {IERC20-allowance}."
					},
					"approve(address,uint256)": {
						"details": "See {IERC20-approve}. NOTE: If `amount` is the maximum `uint256`, the allowance is not updated on `transferFrom`. This is semantically equivalent to an infinite approval. Requirements: - `spender` cannot be the zero address."
					},
					"balanceOf(address)": {
						"details": "See {IERC20-balanceOf}."
					},
					"burn(uint256)": {
						"details": "Destroys `amount` tokens from the caller. See {ERC20-_burn}."
					},
					"burnFrom(address,uint256)": {
						"details": "Destroys `amount` tokens from `account`, deducting from the caller's allowance. See {ERC20-_burn} and {ERC20-allowance}. Requirements: - the caller must have allowance for ``accounts``'s tokens of at least `amount`."
					},
					"constructor": {
						"details": "Grants `DEFAULT_ADMIN_ROLE`, `MINTER_ROLE` and `PAUSER_ROLE` to the account that deploys the contract. See {ERC20-constructor}."
					},
					"decimals()": {
						"details": "Returns the number of decimals used to get its user representation. For example, if `decimals` equals `2`, a balance of `505` tokens should be displayed to a user as `5.05` (`505 / 10 ** 2`). Tokens usually opt for a value of 18, imitating the relationship between Ether and Wei. This is the value {ERC20} uses, unless this function is overridden; NOTE: This information is only used for _display_ purposes: it in no way affects any of the arithmetic of the contract, including {IERC20-balanceOf} and {IERC20-transfer}."
					},
					"decreaseAllowance(address,uint256)": {
						"details": "Atomically decreases the allowance granted to `spender` by the caller. This is an alternative to {approve} that can be used as a mitigation for problems described in {IERC20-approve}. Emits an {Approval} event indicating the updated allowance. Requirements: - `spender` cannot be the zero address. - `spender` must have allowance for the caller of at least `subtractedValue`."
					},
					"getOwner()": {
						"details": "Returns the bep token owner."
					},
					"getRoleAdmin(bytes32)": {
						"details": "Returns the admin role that controls `role`. See {grantRole} and {revokeRole}. To change a role's admin, use {_setRoleAdmin}."
					},
					"getRoleMember(bytes32,uint256)": {
						"details": "Returns one of the accounts that have `role`. `index` must be a value between 0 and {getRoleMemberCount}, non-inclusive. Role bearers are not sorted in any particular way, and their ordering may change at any point. WARNING: When using {getRoleMember} and {getRoleMemberCount}, make sure you perform all queries on the same block. See the following https://forum.openzeppelin.com/t/iterating-over-elements-on-enumerableset-in-openzeppelin-contracts/2296[forum post] for more information."
					},
					"getRoleMemberCount(bytes32)": {
						"details": "Returns the number of accounts that have `role`. Can be used together with {getRoleMember} to enumerate all bearers of a role."
					},
					"grantRole(bytes32,address)": {
						"details": "Grants `role` to `account`. If `account` had not been already granted `role`, emits a {RoleGranted} event. Requirements: - the caller must have ``role``'s admin role."
					},
					"hasRole(bytes32,address)": {
						"details": "Returns `true` if `account` has been granted `role`."
					},
					"increaseAllowance(address,uint256)": {
						"details": "Atomically increases the allowance granted to `spender` by the caller. This is an alternative to {approve} that can be used as a mitigation for problems described in {IERC20-approve}. Emits an {Approval} event indicating the updated allowance. Requirements: - `spender` cannot be the zero address."
					},
					"name()": {
						"details": "Returns the name of the token."
					},
					"owner()": {
						"details": "Returns the address of the current owner."
					},
					"pause()": {
						"details": "Pauses all token transfers. See {ERC20Pausable} and {Pausable-_pause}. Requirements: - the caller must have the `PAUSER_ROLE`."
					},
					"paused()": {
						"details": "Returns true if the contract is paused, and false otherwise."
					},
					"renounceOwnership()": {
						"details": "Leaves the contract without owner. It will not be possible to call `onlyOwner` functions anymore. Can only be called by the current owner. NOTE: Renouncing ownership will leave the contract without an owner, thereby removing any functionality that is only available to the owner."
					},
					"renounceRole(bytes32,address)": {
						"details": "Revokes `role` from the calling account. Roles are often managed via {grantRole} and {revokeRole}: this function's purpose is to provide a mechanism for accounts to lose their privileges if they are compromised (such as when a trusted device is misplaced). If the calling account had been revoked `role`, emits a {RoleRevoked} event. Requirements: - the caller must be `account`."
					},
					"revokeRole(bytes32,address)": {
						"details": "Revokes `role` from `account`. If `account` had been granted `role`, emits a {RoleRevoked} event. Requirements: - the caller must have ``role``'s admin role."
					},
					"supportsInterface(bytes4)": {
						"details": "See {IERC165-supportsInterface}."
					},
					"symbol()": {
						"details": "Returns the symbol of the token, usually a shorter version of the name."
					},
					"totalSupply()": {
						"details": "See {IERC20-totalSupply}."
					},
					"transfer(address,uint256)": {
						"details": "See {IERC20-transfer}. Requirements: - `to` cannot be the zero address. - the caller must have a balance of at least `amount`."
					},
					"transferFrom(address,address,uint256)": {
						"details": "See {IERC20-transferFrom}. Emits an {Approval} event indicating the updated allowance. This is not required by the EIP. See the note at the beginning of {ERC20}. NOTE: Does not update the allowance if the current allowance is the maximum `uint256`. Requirements: - `from` and `to` cannot be the zero address. - `from` must have a balance of at least `amount`. - the caller must have allowance for ``from``'s tokens of at least `amount`."
					},
					"transferOwnership(address)": {
						"details": "Transfers ownership of the contract to a new account (`newOwner`). Can only be called by the current owner."
					},
					"unpause()": {
						"details": "Unpauses all token transfers. See {ERC20Pausable} and {Pausable-_unpause}. Requirements: - the caller must have the `PAUSER_ROLE`."
					}
				},
				"version": 1
			},
			"evm": {
				"assembly": "    /* \"contracts/HatTokenV2.sol\":453:3535  contract HatToken is Context, AccessControlEnumerable, ERC20Burnable, ERC20Pausable, Ownable {... */\n  mstore(0x40, 0x80)\n    /* \"contracts/HatTokenV2.sol\":972:1283  constructor(string memory name, string memory symbol) ERC20(name, symbol) {... */\n  callvalue\n  dup1\n  iszero\n  tag_1\n  jumpi\n  0x00\n  dup1\n  revert\ntag_1:\n  pop\n  mload(0x40)\n  sub(codesize, bytecodeSize)\n  dup1\n  bytecodeSize\n  dup4\n  codecopy\n  dup2\n  add\n  0x40\n  dup2\n  swap1\n  mstore\n  tag_2\n  swap2\n  tag_3\n  jump\t// in\ntag_2:\n    /* \"@openzeppelin/contracts/token/ERC20/ERC20.sol\":2044:2057  _name = name_ */\n  dup2\n  mload\n    /* \"contracts/HatTokenV2.sol\":1032:1036  name */\n  dup3\n  swap1\n    /* \"contracts/HatTokenV2.sol\":1038:1044  symbol */\n  dup3\n  swap1\n    /* \"@openzeppelin/contracts/token/ERC20/ERC20.sol\":2044:2057  _name = name_ */\n  tag_9\n  swap1\n    /* \"@openzeppelin/contracts/token/ERC20/ERC20.sol\":2044:2049  _name */\n  0x05\n  swap1\n    /* \"@openzeppelin/contracts/token/ERC20/ERC20.sol\":2044:2057  _name = name_ */\n  0x20\n  dup6\n  add\n  swap1\n  tag_10\n  jump\t// in\ntag_9:\n  pop\n    /* \"@openzeppelin/contracts/token/ERC20/ERC20.sol\":2067:2084  _symbol = symbol_ */\n  dup1\n  mload\n  tag_11\n  swap1\n    /* \"@openzeppelin/contracts/token/ERC20/ERC20.sol\":2067:2074  _symbol */\n  0x06\n  swap1\n    /* \"@openzeppelin/contracts/token/ERC20/ERC20.sol\":2067:2084  _symbol = symbol_ */\n  0x20\n  dup5\n  add\n  swap1\n  tag_10\n  jump\t// in\ntag_11:\n  pop\n  pop\n    /* \"@openzeppelin/contracts/security/Pausable.sol\":981:988  _paused */\n  0x07\n    /* \"@openzeppelin/contracts/security/Pausable.sol\":981:996  _paused = false */\n  dup1\n  sload\n  not(0xff)\n  and\n  swap1\n  sstore\n  pop\n    /* \"@openzeppelin/contracts/access/Ownable.sol\":921:953  _transferOwnership(_msgSender()) */\n  tag_14\n    /* \"@openzeppelin/contracts/utils/Context.sol\":719:729  msg.sender */\n  caller\n    /* \"@openzeppelin/contracts/access/Ownable.sol\":921:939  _transferOwnership */\n  tag_17\n    /* \"@openzeppelin/contracts/access/Ownable.sol\":921:953  _transferOwnership(_msgSender()) */\n  jump\t// in\ntag_14:\n    /* \"contracts/HatTokenV2.sol\":1057:1101  _setupRole(DEFAULT_ADMIN_ROLE, _msgSender()) */\n  tag_19\n    /* \"@openzeppelin/contracts/access/AccessControl.sol\":2072:2076  0x00 */\n  0x00\n    /* \"@openzeppelin/contracts/utils/Context.sol\":719:729  msg.sender */\n  caller\n    /* \"contracts/HatTokenV2.sol\":1057:1067  _setupRole */\n  tag_21\n    /* \"contracts/HatTokenV2.sol\":1057:1101  _setupRole(DEFAULT_ADMIN_ROLE, _msgSender()) */\n  jump\t// in\ntag_19:\n    /* \"contracts/HatTokenV2.sol\":1114:1151  _setupRole(MINTER_ROLE, _msgSender()) */\n  tag_22\n    /* \"contracts/HatTokenV2.sol\":626:650  keccak256(\"MINTER_ROLE\") */\n  0x9f2df0fed2c77648de5860a4cc508cd0818c85b8b8a1ab4ceeef8d981c8956a6\n    /* \"@openzeppelin/contracts/utils/Context.sol\":719:729  msg.sender */\n  caller\n    /* \"contracts/HatTokenV2.sol\":1057:1067  _setupRole */\n  tag_21\n    /* \"contracts/HatTokenV2.sol\":1057:1101  _setupRole(DEFAULT_ADMIN_ROLE, _msgSender()) */\n  jump\t// in\n    /* \"contracts/HatTokenV2.sol\":1114:1151  _setupRole(MINTER_ROLE, _msgSender()) */\ntag_22:\n    /* \"contracts/HatTokenV2.sol\":1162:1199  _setupRole(PAUSER_ROLE, _msgSender()) */\n  tag_24\n    /* \"contracts/HatTokenV2.sol\":695:719  keccak256(\"PAUSER_ROLE\") */\n  0x65d7a28e3265b37a6474929f336521b332c1681b933f6cb9f3376673440d862a\n    /* \"@openzeppelin/contracts/utils/Context.sol\":719:729  msg.sender */\n  caller\n    /* \"contracts/HatTokenV2.sol\":1057:1067  _setupRole */\n  tag_21\n    /* \"contracts/HatTokenV2.sol\":1057:1101  _setupRole(DEFAULT_ADMIN_ROLE, _msgSender()) */\n  jump\t// in\n    /* \"contracts/HatTokenV2.sol\":1162:1199  _setupRole(PAUSER_ROLE, _msgSender()) */\ntag_24:\n    /* \"contracts/HatTokenV2.sol\":1231:1238  owner() */\n  tag_26\n    /* \"@openzeppelin/contracts/access/Ownable.sol\":1108:1114  _owner */\n  sload(0x07)\n  0x0100\n  swap1\n  div\n  sub(shl(0xa0, 0x01), 0x01)\n  and\n  swap1\n    /* \"@openzeppelin/contracts/access/Ownable.sol\":1036:1121  function owner() public view virtual returns (address) {... */\n  jump\n    /* \"contracts/HatTokenV2.sol\":1231:1238  owner() */\ntag_26:\n    /* \"contracts/HatTokenV2.sol\":1212:1228  _liquidityKeeper */\n  0x09\n    /* \"contracts/HatTokenV2.sol\":1212:1238  _liquidityKeeper = owner() */\n  dup1\n  sload\n  not(sub(shl(0xa0, 0x01), 0x01))\n  and\n  sub(shl(0xa0, 0x01), 0x01)\n  swap3\n  dup4\n  and\n  or\n  swap1\n  sstore\n    /* \"@openzeppelin/contracts/access/Ownable.sol\":1108:1114  _owner */\n  sload(0x07)\n    /* \"contracts/HatTokenV2.sol\":1249:1275  _mint(owner(), 1000000000) */\n  tag_28\n  swap2\n    /* \"@openzeppelin/contracts/access/Ownable.sol\":1108:1114  _owner */\n  0x0100\n  swap1\n  swap2\n  div\n  and\n    /* \"contracts/HatTokenV2.sol\":1264:1274  1000000000 */\n  0x3b9aca00\n    /* \"contracts/HatTokenV2.sol\":1249:1254  _mint */\n  tag_30\n    /* \"contracts/HatTokenV2.sol\":1249:1275  _mint(owner(), 1000000000) */\n  jump\t// in\ntag_28:\n    /* \"contracts/HatTokenV2.sol\":972:1283  constructor(string memory name, string memory symbol) ERC20(name, symbol) {... */\n  pop\n  pop\n    /* \"contracts/HatTokenV2.sol\":453:3535  contract HatToken is Context, AccessControlEnumerable, ERC20Burnable, ERC20Pausable, Ownable {... */\n  jump(tag_99)\n    /* \"@openzeppelin/contracts/access/Ownable.sol\":2270:2457  function _transferOwnership(address newOwner) internal virtual {... */\ntag_17:\n    /* \"@openzeppelin/contracts/access/Ownable.sol\":2362:2368  _owner */\n  0x07\n  dup1\n  sload\n  sub(shl(0xa0, 0x01), 0x01)\n    /* \"@openzeppelin/contracts/access/Ownable.sol\":2378:2395  _owner = newOwner */\n  dup4\n  dup2\n  and\n    /* \"@openzeppelin/contracts/access/Ownable.sol\":2362:2368  _owner */\n  0x0100\n    /* \"@openzeppelin/contracts/access/Ownable.sol\":2378:2395  _owner = newOwner */\n  dup2\n  dup2\n  mul\n  not(sub(shl(0xa8, 0x01), 0x0100))\n  dup6\n  and\n  or\n  swap1\n  swap5\n  sstore\n    /* \"@openzeppelin/contracts/access/Ownable.sol\":2410:2450  OwnershipTransferred(oldOwner, newOwner) */\n  mload(0x40)\n    /* \"@openzeppelin/contracts/access/Ownable.sol\":2362:2368  _owner */\n  swap4\n  swap1\n  swap3\n  div\n  and\n  swap2\n  dup3\n  swap1\n    /* \"@openzeppelin/contracts/access/Ownable.sol\":2410:2450  OwnershipTransferred(oldOwner, newOwner) */\n  0x8be0079c531659141344cd1fd0a4f28419497f9722a3daafe3b4186f6b6457e0\n  swap1\n    /* \"@openzeppelin/contracts/access/Ownable.sol\":2343:2359  address oldOwner */\n  0x00\n  swap1\n    /* \"@openzeppelin/contracts/access/Ownable.sol\":2410:2450  OwnershipTransferred(oldOwner, newOwner) */\n  log3\n    /* \"@openzeppelin/contracts/access/Ownable.sol\":2333:2457  {... */\n  pop\n    /* \"@openzeppelin/contracts/access/Ownable.sol\":2270:2457  function _transferOwnership(address newOwner) internal virtual {... */\n  pop\n  jump\t// out\n    /* \"@openzeppelin/contracts/access/AccessControl.sol\":6257:6367  function _setupRole(bytes32 role, address account) internal virtual {... */\ntag_21:\n    /* \"@openzeppelin/contracts/access/AccessControl.sol\":6335:6360  _grantRole(role, account) */\n  tag_35\n    /* \"@openzeppelin/contracts/access/AccessControl.sol\":6346:6350  role */\n  dup3\n    /* \"@openzeppelin/contracts/access/AccessControl.sol\":6352:6359  account */\n  dup3\n    /* \"@openzeppelin/contracts/access/AccessControl.sol\":6335:6345  _grantRole */\n  tag_36\n    /* \"@openzeppelin/contracts/access/AccessControl.sol\":6335:6360  _grantRole(role, account) */\n  jump\t// in\ntag_35:\n    /* \"@openzeppelin/contracts/access/AccessControl.sol\":6257:6367  function _setupRole(bytes32 role, address account) internal virtual {... */\n  pop\n  pop\n  jump\t// out\n    /* \"@openzeppelin/contracts/token/ERC20/ERC20.sol\":8415:8804  function _mint(address account, uint256 amount) internal virtual {... */\ntag_30:\n  sub(shl(0xa0, 0x01), 0x01)\n    /* \"@openzeppelin/contracts/token/ERC20/ERC20.sol\":8498:8519  account != address(0) */\n  dup3\n  and\n    /* \"@openzeppelin/contracts/token/ERC20/ERC20.sol\":8490:8555  require(account != address(0), \"ERC20: mint to the zero address\") */\n  tag_39\n  jumpi\n  mload(0x40)\n  shl(0xe5, 0x461bcd)\n  dup2\n  mstore\n    /* \"#utility.yul\":1805:1807   */\n  0x20\n    /* \"@openzeppelin/contracts/token/ERC20/ERC20.sol\":8490:8555  require(account != address(0), \"ERC20: mint to the zero address\") */\n  0x04\n  dup3\n  add\n    /* \"#utility.yul\":1787:1808   */\n  mstore\n    /* \"#utility.yul\":1844:1846   */\n  0x1f\n    /* \"#utility.yul\":1824:1842   */\n  0x24\n  dup3\n  add\n    /* \"#utility.yul\":1817:1847   */\n  mstore\n    /* \"#utility.yul\":1883:1916   */\n  0x45524332303a206d696e7420746f20746865207a65726f206164647265737300\n    /* \"#utility.yul\":1863:1881   */\n  0x44\n  dup3\n  add\n    /* \"#utility.yul\":1856:1917   */\n  mstore\n    /* \"#utility.yul\":1934:1952   */\n  0x64\n  add\n    /* \"@openzeppelin/contracts/token/ERC20/ERC20.sol\":8490:8555  require(account != address(0), \"ERC20: mint to the zero address\") */\ntag_40:\n  mload(0x40)\n  dup1\n  swap2\n  sub\n  swap1\n  revert\ntag_39:\n    /* \"@openzeppelin/contracts/token/ERC20/ERC20.sol\":8566:8615  _beforeTokenTransfer(address(0), account, amount) */\n  tag_42\n    /* \"@openzeppelin/contracts/token/ERC20/ERC20.sol\":8595:8596  0 */\n  0x00\n    /* \"@openzeppelin/contracts/token/ERC20/ERC20.sol\":8599:8606  account */\n  dup4\n    /* \"@openzeppelin/contracts/token/ERC20/ERC20.sol\":8608:8614  amount */\n  dup4\n    /* \"@openzeppelin/contracts/token/ERC20/ERC20.sol\":8566:8586  _beforeTokenTransfer */\n  tag_43\n    /* \"@openzeppelin/contracts/token/ERC20/ERC20.sol\":8566:8615  _beforeTokenTransfer(address(0), account, amount) */\n  jump\t// in\ntag_42:\n    /* \"@openzeppelin/contracts/token/ERC20/ERC20.sol\":8642:8648  amount */\n  dup1\n    /* \"@openzeppelin/contracts/token/ERC20/ERC20.sol\":8626:8638  _totalSupply */\n  0x04\n  0x00\n    /* \"@openzeppelin/contracts/token/ERC20/ERC20.sol\":8626:8648  _totalSupply += amount */\n  dup3\n  dup3\n  sload\n  tag_44\n  swap2\n  swap1\n  tag_45\n  jump\t// in\ntag_44:\n  swap1\n  swap2\n  sstore\n  pop\n  pop\n  sub(shl(0xa0, 0x01), 0x01)\n    /* \"@openzeppelin/contracts/token/ERC20/ERC20.sol\":8658:8676  _balances[account] */\n  dup3\n  and\n  0x00\n  swap1\n  dup2\n  mstore\n    /* \"@openzeppelin/contracts/token/ERC20/ERC20.sol\":8658:8667  _balances */\n  0x02\n    /* \"@openzeppelin/contracts/token/ERC20/ERC20.sol\":8658:8676  _balances[account] */\n  0x20\n  mstore\n  0x40\n  dup2\n  keccak256\n    /* \"@openzeppelin/contracts/token/ERC20/ERC20.sol\":8658:8686  _balances[account] += amount */\n  dup1\n  sload\n    /* \"@openzeppelin/contracts/token/ERC20/ERC20.sol\":8680:8686  amount */\n  dup4\n  swap3\n    /* \"@openzeppelin/contracts/token/ERC20/ERC20.sol\":8658:8676  _balances[account] */\n  swap1\n    /* \"@openzeppelin/contracts/token/ERC20/ERC20.sol\":8658:8686  _balances[account] += amount */\n  tag_46\n  swap1\n    /* \"@openzeppelin/contracts/token/ERC20/ERC20.sol\":8680:8686  amount */\n  dup5\n  swap1\n    /* \"@openzeppelin/contracts/token/ERC20/ERC20.sol\":8658:8686  _balances[account] += amount */\n  tag_45\n  jump\t// in\ntag_46:\n  swap1\n  swap2\n  sstore\n  pop\n  pop\n    /* \"@openzeppelin/contracts/token/ERC20/ERC20.sol\":8701:8738  Transfer(address(0), account, amount) */\n  mload(0x40)\n    /* \"#utility.yul\":2339:2364   */\n  dup2\n  dup2\n  mstore\n  sub(shl(0xa0, 0x01), 0x01)\n    /* \"@openzeppelin/contracts/token/ERC20/ERC20.sol\":8701:8738  Transfer(address(0), account, amount) */\n  dup4\n  and\n  swap1\n    /* \"@openzeppelin/contracts/token/ERC20/ERC20.sol\":8718:8719  0 */\n  0x00\n  swap1\n    /* \"@openzeppelin/contracts/token/ERC20/ERC20.sol\":8701:8738  Transfer(address(0), account, amount) */\n  0xddf252ad1be2c89b69c2b068fc378daa952ba7f163c4a11628f55a4df523b3ef\n  swap1\n    /* \"#utility.yul\":2327:2329   */\n  0x20\n    /* \"#utility.yul\":2312:2330   */\n  add\n    /* \"@openzeppelin/contracts/token/ERC20/ERC20.sol\":8701:8738  Transfer(address(0), account, amount) */\n  mload(0x40)\n  dup1\n  swap2\n  sub\n  swap1\n  log3\n    /* \"@openzeppelin/contracts/access/AccessControl.sol\":6257:6367  function _setupRole(bytes32 role, address account) internal virtual {... */\n  pop\n  pop\n  jump\t// out\n    /* \"@openzeppelin/contracts/access/AccessControlEnumerable.sol\":1978:2144  function _grantRole(bytes32 role, address account) internal virtual override {... */\ntag_36:\n    /* \"@openzeppelin/contracts/access/AccessControlEnumerable.sol\":2065:2096  super._grantRole(role, account) */\n  tag_52\n    /* \"@openzeppelin/contracts/access/AccessControlEnumerable.sol\":2082:2086  role */\n  dup3\n    /* \"@openzeppelin/contracts/access/AccessControlEnumerable.sol\":2088:2095  account */\n  dup3\n    /* \"@openzeppelin/contracts/access/AccessControlEnumerable.sol\":2065:2081  super._grantRole */\n  or(tag_0_166, shl(0x20, tag_53))\n    /* \"@openzeppelin/contracts/access/AccessControlEnumerable.sol\":2065:2096  super._grantRole(role, account) */\n  0x20\n  shr\n  jump\t// in\ntag_52:\n    /* \"@openzeppelin/contracts/access/AccessControlEnumerable.sol\":2106:2124  _roleMembers[role] */\n  0x00\n  dup3\n  dup2\n  mstore\n    /* \"@openzeppelin/contracts/access/AccessControlEnumerable.sol\":2106:2118  _roleMembers */\n  0x01\n    /* \"@openzeppelin/contracts/access/AccessControlEnumerable.sol\":2106:2124  _roleMembers[role] */\n  0x20\n  swap1\n  dup2\n  mstore\n  0x40\n  swap1\n  swap2\n  keccak256\n    /* \"@openzeppelin/contracts/access/AccessControlEnumerable.sol\":2106:2137  _roleMembers[role].add(account) */\n  tag_54\n  swap2\n    /* \"@openzeppelin/contracts/access/AccessControlEnumerable.sol\":2129:2136  account */\n  dup4\n  swap1\n    /* \"@openzeppelin/contracts/access/AccessControlEnumerable.sol\":2106:2128  _roleMembers[role].add */\n  tag_0_167\n  tag_55\n  dup3\n  shl\n  or\n    /* \"@openzeppelin/contracts/access/AccessControlEnumerable.sol\":2106:2137  _roleMembers[role].add(account) */\n  swap1\n  shr\n  jump\t// in\ntag_54:\n  pop\n    /* \"@openzeppelin/contracts/access/AccessControlEnumerable.sol\":1978:2144  function _grantRole(bytes32 role, address account) internal virtual override {... */\n  pop\n  pop\n  jump\t// out\n    /* \"contracts/HatTokenV2.sol\":2061:2278  function _beforeTokenTransfer(... */\ntag_43:\n    /* \"contracts/HatTokenV2.sol\":2226:2270  super._beforeTokenTransfer(from, to, amount) */\n  tag_54\n    /* \"contracts/HatTokenV2.sol\":2253:2257  from */\n  dup4\n    /* \"contracts/HatTokenV2.sol\":2259:2261  to */\n  dup4\n    /* \"contracts/HatTokenV2.sol\":2263:2269  amount */\n  dup4\n    /* \"contracts/HatTokenV2.sol\":2226:2252  super._beforeTokenTransfer */\n  or(tag_0_168, shl(0x20, tag_58))\n    /* \"contracts/HatTokenV2.sol\":2226:2270  super._beforeTokenTransfer(from, to, amount) */\n  0x20\n  shr\n  jump\t// in\n    /* \"@openzeppelin/contracts/access/AccessControl.sol\":6861:7094  function _grantRole(bytes32 role, address account) internal virtual {... */\ntag_53:\n    /* \"@openzeppelin/contracts/access/AccessControl.sol\":2995:2999  bool */\n  0x00\n    /* \"@openzeppelin/contracts/access/AccessControl.sol\":3018:3030  _roles[role] */\n  dup3\n  dup2\n  mstore\n  0x20\n  dup2\n  dup2\n  mstore\n  0x40\n  dup1\n  dup4\n  keccak256\n  sub(shl(0xa0, 0x01), 0x01)\n    /* \"@openzeppelin/contracts/access/AccessControl.sol\":3018:3047  _roles[role].members[account] */\n  dup6\n  and\n  dup5\n  mstore\n  swap1\n  swap2\n  mstore\n  swap1\n  keccak256\n  sload\n  0xff\n  and\n    /* \"@openzeppelin/contracts/access/AccessControl.sol\":6939:7088  if (!hasRole(role, account)) {... */\n  tag_35\n  jumpi\n    /* \"@openzeppelin/contracts/access/AccessControl.sol\":6982:6988  _roles */\n  0x00\n    /* \"@openzeppelin/contracts/access/AccessControl.sol\":6982:6994  _roles[role] */\n  dup3\n  dup2\n  mstore\n  0x20\n  dup2\n  dup2\n  mstore\n  0x40\n  dup1\n  dup4\n  keccak256\n  sub(shl(0xa0, 0x01), 0x01)\n    /* \"@openzeppelin/contracts/access/AccessControl.sol\":6982:7011  _roles[role].members[account] */\n  dup6\n  and\n  dup5\n  mstore\n  swap1\n  swap2\n  mstore\n  swap1\n  keccak256\n    /* \"@openzeppelin/contracts/access/AccessControl.sol\":6982:7018  _roles[role].members[account] = true */\n  dup1\n  sload\n  not(0xff)\n  and\n    /* \"@openzeppelin/contracts/access/AccessControl.sol\":7014:7018  true */\n  0x01\n    /* \"@openzeppelin/contracts/access/AccessControl.sol\":6982:7018  _roles[role].members[account] = true */\n  or\n  swap1\n  sstore\n    /* \"@openzeppelin/contracts/access/AccessControl.sol\":7064:7076  _msgSender() */\n  tag_64\n    /* \"@openzeppelin/contracts/utils/Context.sol\":719:729  msg.sender */\n  caller\n  swap1\n    /* \"@openzeppelin/contracts/utils/Context.sol\":640:736  function _msgSender() internal view virtual returns (address) {... */\n  jump\n    /* \"@openzeppelin/contracts/access/AccessControl.sol\":7064:7076  _msgSender() */\ntag_64:\n  sub(shl(0xa0, 0x01), 0x01)\n    /* \"@openzeppelin/contracts/access/AccessControl.sol\":7037:7077  RoleGranted(role, account, _msgSender()) */\n  and\n    /* \"@openzeppelin/contracts/access/AccessControl.sol\":7055:7062  account */\n  dup2\n  sub(shl(0xa0, 0x01), 0x01)\n    /* \"@openzeppelin/contracts/access/AccessControl.sol\":7037:7077  RoleGranted(role, account, _msgSender()) */\n  and\n    /* \"@openzeppelin/contracts/access/AccessControl.sol\":7049:7053  role */\n  dup4\n    /* \"@openzeppelin/contracts/access/AccessControl.sol\":7037:7077  RoleGranted(role, account, _msgSender()) */\n  0x2f8788117e7eff1d82e926ec794901d17c78024a50270940304540a733656f0d\n  mload(0x40)\n  mload(0x40)\n  dup1\n  swap2\n  sub\n  swap1\n  log4\n    /* \"@openzeppelin/contracts/access/AccessControl.sol\":6861:7094  function _grantRole(bytes32 role, address account) internal virtual {... */\n  pop\n  pop\n  jump\t// out\n    /* \"@openzeppelin/contracts/utils/structs/EnumerableSet.sol\":7612:7762  function add(AddressSet storage set, address value) internal returns (bool) {... */\ntag_55:\n    /* \"@openzeppelin/contracts/utils/structs/EnumerableSet.sol\":7682:7686  bool */\n  0x00\n    /* \"@openzeppelin/contracts/utils/structs/EnumerableSet.sol\":7705:7755  _add(set._inner, bytes32(uint256(uint160(value)))) */\n  tag_66\n    /* \"@openzeppelin/contracts/utils/structs/EnumerableSet.sol\":7710:7713  set */\n  dup4\n  sub(shl(0xa0, 0x01), 0x01)\n    /* \"@openzeppelin/contracts/utils/structs/EnumerableSet.sol\":7730:7753  uint256(uint160(value)) */\n  dup5\n  and\n    /* \"@openzeppelin/contracts/utils/structs/EnumerableSet.sol\":7705:7709  _add */\n  tag_67\n    /* \"@openzeppelin/contracts/utils/structs/EnumerableSet.sol\":7705:7755  _add(set._inner, bytes32(uint256(uint160(value)))) */\n  jump\t// in\ntag_66:\n    /* \"@openzeppelin/contracts/utils/structs/EnumerableSet.sol\":7698:7755  return _add(set._inner, bytes32(uint256(uint160(value)))) */\n  swap1\n  pop\n    /* \"@openzeppelin/contracts/utils/structs/EnumerableSet.sol\":7612:7762  function add(AddressSet storage set, address value) internal returns (bool) {... */\ntag_65:\n  swap3\n  swap2\n  pop\n  pop\n  jump\t// out\n    /* \"@openzeppelin/contracts/token/ERC20/extensions/ERC20Pausable.sol\":665:929  function _beforeTokenTransfer(... */\ntag_58:\n    /* \"@openzeppelin/contracts/token/ERC20/extensions/ERC20Pausable.sol\":803:847  super._beforeTokenTransfer(from, to, amount) */\n  tag_69\n    /* \"@openzeppelin/contracts/token/ERC20/extensions/ERC20Pausable.sol\":830:834  from */\n  dup4\n    /* \"@openzeppelin/contracts/token/ERC20/extensions/ERC20Pausable.sol\":836:838  to */\n  dup4\n    /* \"@openzeppelin/contracts/token/ERC20/extensions/ERC20Pausable.sol\":840:846  amount */\n  dup4\n    /* \"@openzeppelin/contracts/token/ERC20/extensions/ERC20Pausable.sol\":803:829  super._beforeTokenTransfer */\n  or(tag_0_200, shl(0x20, tag_54))\n    /* \"@openzeppelin/contracts/token/ERC20/extensions/ERC20Pausable.sol\":803:847  super._beforeTokenTransfer(from, to, amount) */\n  0x20\n  shr\n  jump\t// in\ntag_69:\n    /* \"@openzeppelin/contracts/security/Pausable.sol\":1168:1175  _paused */\n  and(0xff, sload(0x07))\n    /* \"@openzeppelin/contracts/token/ERC20/extensions/ERC20Pausable.sol\":866:875  !paused() */\n  iszero\n    /* \"@openzeppelin/contracts/token/ERC20/extensions/ERC20Pausable.sol\":858:922  require(!paused(), \"ERC20Pausable: token transfer while paused\") */\n  tag_54\n  jumpi\n  mload(0x40)\n  shl(0xe5, 0x461bcd)\n  dup2\n  mstore\n    /* \"#utility.yul\":2577:2579   */\n  0x20\n    /* \"@openzeppelin/contracts/token/ERC20/extensions/ERC20Pausable.sol\":858:922  require(!paused(), \"ERC20Pausable: token transfer while paused\") */\n  0x04\n  dup3\n  add\n    /* \"#utility.yul\":2559:2580   */\n  mstore\n    /* \"#utility.yul\":2616:2618   */\n  0x2a\n    /* \"#utility.yul\":2596:2614   */\n  0x24\n  dup3\n  add\n    /* \"#utility.yul\":2589:2619   */\n  mstore\n    /* \"#utility.yul\":2655:2689   */\n  0x45524332305061757361626c653a20746f6b656e207472616e73666572207768\n    /* \"#utility.yul\":2635:2653   */\n  0x44\n  dup3\n  add\n    /* \"#utility.yul\":2628:2690   */\n  mstore\n  shl(0xb2, 0x1a5b19481c185d5cd959)\n    /* \"#utility.yul\":2706:2724   */\n  0x64\n  dup3\n  add\n    /* \"#utility.yul\":2699:2739   */\n  mstore\n    /* \"#utility.yul\":2756:2775   */\n  0x84\n  add\n    /* \"@openzeppelin/contracts/token/ERC20/extensions/ERC20Pausable.sol\":858:922  require(!paused(), \"ERC20Pausable: token transfer while paused\") */\n  tag_40\n    /* \"#utility.yul\":2375:2781   */\n  jump\n    /* \"@openzeppelin/contracts/utils/structs/EnumerableSet.sol\":1697:2101  function _add(Set storage set, bytes32 value) private returns (bool) {... */\ntag_67:\n    /* \"@openzeppelin/contracts/utils/structs/EnumerableSet.sol\":1760:1764  bool */\n  0x00\n    /* \"@openzeppelin/contracts/utils/structs/EnumerableSet.sol\":3834:3853  set._indexes[value] */\n  dup2\n  dup2\n  mstore\n    /* \"@openzeppelin/contracts/utils/structs/EnumerableSet.sol\":3834:3846  set._indexes */\n  0x01\n  dup4\n  add\n    /* \"@openzeppelin/contracts/utils/structs/EnumerableSet.sol\":3834:3853  set._indexes[value] */\n  0x20\n  mstore\n  0x40\n  dup2\n  keccak256\n  sload\n    /* \"@openzeppelin/contracts/utils/structs/EnumerableSet.sol\":1776:2095  if (!_contains(set, value)) {... */\n  tag_80\n  jumpi\n  pop\n    /* \"@openzeppelin/contracts/utils/structs/EnumerableSet.sol\":1818:1841  set._values.push(value) */\n  dup2\n  sload\n  0x01\n  dup2\n  dup2\n  add\n  dup5\n  sstore\n    /* \"@openzeppelin/contracts/utils/structs/EnumerableSet.sol\":1818:1829  set._values */\n  0x00\n    /* \"@openzeppelin/contracts/utils/structs/EnumerableSet.sol\":1818:1841  set._values.push(value) */\n  dup5\n  dup2\n  mstore\n  0x20\n  dup1\n  dup3\n  keccak256\n  swap1\n  swap4\n  add\n  dup5\n  swap1\n  sstore\n    /* \"@openzeppelin/contracts/utils/structs/EnumerableSet.sol\":1998:2016  set._values.length */\n  dup5\n  sload\n    /* \"@openzeppelin/contracts/utils/structs/EnumerableSet.sol\":1976:1995  set._indexes[value] */\n  dup5\n  dup3\n  mstore\n    /* \"@openzeppelin/contracts/utils/structs/EnumerableSet.sol\":1976:1988  set._indexes */\n  dup3\n  dup7\n  add\n    /* \"@openzeppelin/contracts/utils/structs/EnumerableSet.sol\":1976:1995  set._indexes[value] */\n  swap1\n  swap4\n  mstore\n  0x40\n  swap1\n  keccak256\n    /* \"@openzeppelin/contracts/utils/structs/EnumerableSet.sol\":1976:2016  set._indexes[value] = set._values.length */\n  swap2\n  swap1\n  swap2\n  sstore\n    /* \"@openzeppelin/contracts/utils/structs/EnumerableSet.sol\":2030:2041  return true */\n  jump(tag_65)\n    /* \"@openzeppelin/contracts/utils/structs/EnumerableSet.sol\":1776:2095  if (!_contains(set, value)) {... */\ntag_80:\n  pop\n    /* \"@openzeppelin/contracts/utils/structs/EnumerableSet.sol\":2079:2084  false */\n  0x00\n    /* \"@openzeppelin/contracts/utils/structs/EnumerableSet.sol\":2072:2084  return false */\n  jump(tag_65)\n    /* \"contracts/HatTokenV2.sol\":453:3535  contract HatToken is Context, AccessControlEnumerable, ERC20Burnable, ERC20Pausable, Ownable {... */\ntag_10:\n  dup3\n  dup1\n  sload\n  tag_86\n  swap1\n  tag_87\n  jump\t// in\ntag_86:\n  swap1\n  0x00\n  mstore\n  keccak256(0x00, 0x20)\n  swap1\n  0x1f\n  add\n  0x20\n  swap1\n  div\n  dup2\n  add\n  swap3\n  dup3\n  tag_89\n  jumpi\n  0x00\n  dup6\n  sstore\n  jump(tag_92)\ntag_89:\n  dup3\n  0x1f\n  lt\n  tag_90\n  jumpi\n  dup1\n  mload\n  not(0xff)\n  and\n  dup4\n  dup1\n  add\n  or\n  dup6\n  sstore\n  jump(tag_92)\ntag_90:\n  dup3\n  dup1\n  add\n  0x01\n  add\n  dup6\n  sstore\n  dup3\n  iszero\n  tag_92\n  jumpi\n  swap2\n  dup3\n  add\ntag_91:\n  dup3\n  dup2\n  gt\n  iszero\n  tag_92\n  jumpi\n  dup3\n  mload\n  dup3\n  sstore\n  swap2\n  0x20\n  add\n  swap2\n  swap1\n  0x01\n  add\n  swap1\n  jump(tag_91)\ntag_92:\n  pop\n  tag_93\n  swap3\n  swap2\n  pop\n  tag_94\n  jump\t// in\ntag_93:\n  pop\n  swap1\n  jump\t// out\ntag_94:\ntag_95:\n  dup1\n  dup3\n  gt\n  iszero\n  tag_93\n  jumpi\n  0x00\n  dup2\n  sstore\n  0x01\n  add\n  jump(tag_95)\n    /* \"#utility.yul\":14:141   */\ntag_97:\n    /* \"#utility.yul\":75:85   */\n  0x4e487b71\n    /* \"#utility.yul\":70:73   */\n  0xe0\n    /* \"#utility.yul\":66:86   */\n  shl\n    /* \"#utility.yul\":63:64   */\n  0x00\n    /* \"#utility.yul\":56:87   */\n  mstore\n    /* \"#utility.yul\":106:110   */\n  0x41\n    /* \"#utility.yul\":103:104   */\n  0x04\n    /* \"#utility.yul\":96:111   */\n  mstore\n    /* \"#utility.yul\":130:134   */\n  0x24\n    /* \"#utility.yul\":127:128   */\n  0x00\n    /* \"#utility.yul\":120:135   */\n  revert\n    /* \"#utility.yul\":146:1031   */\ntag_98:\n    /* \"#utility.yul\":200:205   */\n  0x00\n    /* \"#utility.yul\":253:256   */\n  dup3\n    /* \"#utility.yul\":246:250   */\n  0x1f\n    /* \"#utility.yul\":238:244   */\n  dup4\n    /* \"#utility.yul\":234:251   */\n  add\n    /* \"#utility.yul\":230:257   */\n  slt\n    /* \"#utility.yul\":220:275   */\n  tag_102\n  jumpi\n    /* \"#utility.yul\":271:272   */\n  0x00\n    /* \"#utility.yul\":268:269   */\n  dup1\n    /* \"#utility.yul\":261:273   */\n  revert\n    /* \"#utility.yul\":220:275   */\ntag_102:\n    /* \"#utility.yul\":294:307   */\n  dup2\n  mload\n  sub(shl(0x40, 0x01), 0x01)\n    /* \"#utility.yul\":356:366   */\n  dup1\n  dup3\n  gt\n    /* \"#utility.yul\":353:389   */\n  iszero\n  tag_104\n  jumpi\n    /* \"#utility.yul\":369:387   */\n  tag_104\n  tag_97\n  jump\t// in\ntag_104:\n    /* \"#utility.yul\":444:446   */\n  0x40\n    /* \"#utility.yul\":438:447   */\n  mload\n    /* \"#utility.yul\":412:414   */\n  0x1f\n    /* \"#utility.yul\":498:511   */\n  dup4\n  add\n  not(0x1f)\n    /* \"#utility.yul\":494:516   */\n  swap1\n  dup2\n  and\n    /* \"#utility.yul\":518:520   */\n  0x3f\n    /* \"#utility.yul\":490:521   */\n  add\n    /* \"#utility.yul\":486:526   */\n  and\n    /* \"#utility.yul\":474:527   */\n  dup2\n  add\n  swap1\n    /* \"#utility.yul\":542:560   */\n  dup3\n  dup3\n  gt\n    /* \"#utility.yul\":562:584   */\n  dup2\n  dup4\n  lt\n    /* \"#utility.yul\":539:585   */\n  or\n    /* \"#utility.yul\":536:608   */\n  iszero\n  tag_106\n  jumpi\n    /* \"#utility.yul\":588:606   */\n  tag_106\n  tag_97\n  jump\t// in\ntag_106:\n    /* \"#utility.yul\":628:638   */\n  dup2\n    /* \"#utility.yul\":624:626   */\n  0x40\n    /* \"#utility.yul\":617:639   */\n  mstore\n    /* \"#utility.yul\":663:665   */\n  dup4\n    /* \"#utility.yul\":655:661   */\n  dup2\n    /* \"#utility.yul\":648:666   */\n  mstore\n    /* \"#utility.yul\":685:689   */\n  0x20\n    /* \"#utility.yul\":675:689   */\n  swap3\n  pop\n    /* \"#utility.yul\":730:733   */\n  dup7\n    /* \"#utility.yul\":725:727   */\n  dup4\n    /* \"#utility.yul\":720:722   */\n  dup6\n    /* \"#utility.yul\":712:718   */\n  dup9\n    /* \"#utility.yul\":708:723   */\n  add\n    /* \"#utility.yul\":704:728   */\n  add\n    /* \"#utility.yul\":701:734   */\n  gt\n    /* \"#utility.yul\":698:751   */\n  iszero\n  tag_107\n  jumpi\n    /* \"#utility.yul\":747:748   */\n  0x00\n    /* \"#utility.yul\":744:745   */\n  dup1\n    /* \"#utility.yul\":737:749   */\n  revert\n    /* \"#utility.yul\":698:751   */\ntag_107:\n    /* \"#utility.yul\":769:770   */\n  0x00\n    /* \"#utility.yul\":760:770   */\n  swap2\n  pop\n    /* \"#utility.yul\":779:912   */\ntag_108:\n    /* \"#utility.yul\":793:795   */\n  dup4\n    /* \"#utility.yul\":790:791   */\n  dup3\n    /* \"#utility.yul\":787:796   */\n  lt\n    /* \"#utility.yul\":779:912   */\n  iszero\n  tag_110\n  jumpi\n    /* \"#utility.yul\":881:895   */\n  dup6\n  dup3\n  add\n    /* \"#utility.yul\":877:900   */\n  dup4\n  add\n    /* \"#utility.yul\":871:901   */\n  mload\n    /* \"#utility.yul\":850:864   */\n  dup2\n  dup4\n  add\n    /* \"#utility.yul\":846:869   */\n  dup5\n  add\n    /* \"#utility.yul\":839:902   */\n  mstore\n    /* \"#utility.yul\":804:814   */\n  swap1\n  dup3\n  add\n  swap1\n    /* \"#utility.yul\":779:912   */\n  jump(tag_108)\ntag_110:\n    /* \"#utility.yul\":930:932   */\n  dup4\n    /* \"#utility.yul\":927:928   */\n  dup3\n    /* \"#utility.yul\":924:933   */\n  gt\n    /* \"#utility.yul\":921:1001   */\n  iszero\n  tag_111\n  jumpi\n    /* \"#utility.yul\":989:990   */\n  0x00\n    /* \"#utility.yul\":984:986   */\n  dup4\n    /* \"#utility.yul\":979:981   */\n  dup6\n    /* \"#utility.yul\":971:977   */\n  dup4\n    /* \"#utility.yul\":967:982   */\n  add\n    /* \"#utility.yul\":963:987   */\n  add\n    /* \"#utility.yul\":956:991   */\n  mstore\n    /* \"#utility.yul\":921:1001   */\ntag_111:\n    /* \"#utility.yul\":1019:1025   */\n  swap7\n    /* \"#utility.yul\":146:1031   */\n  swap6\n  pop\n  pop\n  pop\n  pop\n  pop\n  pop\n  jump\t// out\n    /* \"#utility.yul\":1036:1598   */\ntag_3:\n    /* \"#utility.yul\":1135:1141   */\n  0x00\n    /* \"#utility.yul\":1143:1149   */\n  dup1\n    /* \"#utility.yul\":1196:1198   */\n  0x40\n    /* \"#utility.yul\":1184:1193   */\n  dup4\n    /* \"#utility.yul\":1175:1182   */\n  dup6\n    /* \"#utility.yul\":1171:1194   */\n  sub\n    /* \"#utility.yul\":1167:1199   */\n  slt\n    /* \"#utility.yul\":1164:1216   */\n  iszero\n  tag_113\n  jumpi\n    /* \"#utility.yul\":1212:1213   */\n  0x00\n    /* \"#utility.yul\":1209:1210   */\n  dup1\n    /* \"#utility.yul\":1202:1214   */\n  revert\n    /* \"#utility.yul\":1164:1216   */\ntag_113:\n    /* \"#utility.yul\":1239:1255   */\n  dup3\n  mload\n  sub(shl(0x40, 0x01), 0x01)\n    /* \"#utility.yul\":1304:1318   */\n  dup1\n  dup3\n  gt\n    /* \"#utility.yul\":1301:1335   */\n  iszero\n  tag_114\n  jumpi\n    /* \"#utility.yul\":1331:1332   */\n  0x00\n    /* \"#utility.yul\":1328:1329   */\n  dup1\n    /* \"#utility.yul\":1321:1333   */\n  revert\n    /* \"#utility.yul\":1301:1335   */\ntag_114:\n    /* \"#utility.yul\":1354:1415   */\n  tag_115\n    /* \"#utility.yul\":1407:1414   */\n  dup7\n    /* \"#utility.yul\":1398:1404   */\n  dup4\n    /* \"#utility.yul\":1387:1396   */\n  dup8\n    /* \"#utility.yul\":1383:1405   */\n  add\n    /* \"#utility.yul\":1354:1415   */\n  tag_98\n  jump\t// in\ntag_115:\n    /* \"#utility.yul\":1344:1415   */\n  swap4\n  pop\n    /* \"#utility.yul\":1461:1463   */\n  0x20\n    /* \"#utility.yul\":1450:1459   */\n  dup6\n    /* \"#utility.yul\":1446:1464   */\n  add\n    /* \"#utility.yul\":1440:1465   */\n  mload\n    /* \"#utility.yul\":1424:1465   */\n  swap2\n  pop\n    /* \"#utility.yul\":1490:1492   */\n  dup1\n    /* \"#utility.yul\":1480:1488   */\n  dup3\n    /* \"#utility.yul\":1477:1493   */\n  gt\n    /* \"#utility.yul\":1474:1510   */\n  iszero\n  tag_116\n  jumpi\n    /* \"#utility.yul\":1506:1507   */\n  0x00\n    /* \"#utility.yul\":1503:1504   */\n  dup1\n    /* \"#utility.yul\":1496:1508   */\n  revert\n    /* \"#utility.yul\":1474:1510   */\ntag_116:\n  pop\n    /* \"#utility.yul\":1529:1592   */\n  tag_117\n    /* \"#utility.yul\":1584:1591   */\n  dup6\n    /* \"#utility.yul\":1573:1581   */\n  dup3\n    /* \"#utility.yul\":1562:1571   */\n  dup7\n    /* \"#utility.yul\":1558:1582   */\n  add\n    /* \"#utility.yul\":1529:1592   */\n  tag_98\n  jump\t// in\ntag_117:\n    /* \"#utility.yul\":1519:1592   */\n  swap2\n  pop\n  pop\n    /* \"#utility.yul\":1036:1598   */\n  swap3\n  pop\n  swap3\n  swap1\n  pop\n  jump\t// out\n    /* \"#utility.yul\":1963:2188   */\ntag_45:\n    /* \"#utility.yul\":2003:2006   */\n  0x00\n    /* \"#utility.yul\":2034:2035   */\n  dup3\n    /* \"#utility.yul\":2030:2036   */\n  not\n    /* \"#utility.yul\":2027:2028   */\n  dup3\n    /* \"#utility.yul\":2024:2037   */\n  gt\n    /* \"#utility.yul\":2021:2157   */\n  iszero\n  tag_120\n  jumpi\n    /* \"#utility.yul\":2079:2089   */\n  0x4e487b71\n    /* \"#utility.yul\":2074:2077   */\n  0xe0\n    /* \"#utility.yul\":2070:2090   */\n  shl\n    /* \"#utility.yul\":2067:2068   */\n  0x00\n    /* \"#utility.yul\":2060:2091   */\n  mstore\n    /* \"#utility.yul\":2114:2118   */\n  0x11\n    /* \"#utility.yul\":2111:2112   */\n  0x04\n    /* \"#utility.yul\":2104:2119   */\n  mstore\n    /* \"#utility.yul\":2142:2146   */\n  0x24\n    /* \"#utility.yul\":2139:2140   */\n  0x00\n    /* \"#utility.yul\":2132:2147   */\n  revert\n    /* \"#utility.yul\":2021:2157   */\ntag_120:\n  pop\n    /* \"#utility.yul\":2173:2182   */\n  add\n  swap1\n    /* \"#utility.yul\":1963:2188   */\n  jump\t// out\n    /* \"#utility.yul\":2786:3166   */\ntag_87:\n    /* \"#utility.yul\":2865:2866   */\n  0x01\n    /* \"#utility.yul\":2861:2873   */\n  dup2\n  dup2\n  shr\n  swap1\n    /* \"#utility.yul\":2908:2920   */\n  dup3\n  and\n  dup1\n    /* \"#utility.yul\":2929:2990   */\n  tag_124\n  jumpi\n    /* \"#utility.yul\":2983:2987   */\n  0x7f\n    /* \"#utility.yul\":2975:2981   */\n  dup3\n    /* \"#utility.yul\":2971:2988   */\n  and\n    /* \"#utility.yul\":2961:2988   */\n  swap2\n  pop\n    /* \"#utility.yul\":2929:2990   */\ntag_124:\n    /* \"#utility.yul\":3036:3038   */\n  0x20\n    /* \"#utility.yul\":3028:3034   */\n  dup3\n    /* \"#utility.yul\":3025:3039   */\n  lt\n    /* \"#utility.yul\":3005:3023   */\n  dup2\n    /* \"#utility.yul\":3002:3040   */\n  eq\n    /* \"#utility.yul\":2999:3160   */\n  iszero\n  tag_125\n  jumpi\n    /* \"#utility.yul\":3082:3092   */\n  0x4e487b71\n    /* \"#utility.yul\":3077:3080   */\n  0xe0\n    /* \"#utility.yul\":3073:3093   */\n  shl\n    /* \"#utility.yul\":3070:3071   */\n  0x00\n    /* \"#utility.yul\":3063:3094   */\n  mstore\n    /* \"#utility.yul\":3117:3121   */\n  0x22\n    /* \"#utility.yul\":3114:3115   */\n  0x04\n    /* \"#utility.yul\":3107:3122   */\n  mstore\n    /* \"#utility.yul\":3145:3149   */\n  0x24\n    /* \"#utility.yul\":3142:3143   */\n  0x00\n    /* \"#utility.yul\":3135:3150   */\n  revert\n    /* \"#utility.yul\":2999:3160   */\ntag_125:\n  pop\n    /* \"#utility.yul\":2786:3166   */\n  swap2\n  swap1\n  pop\n  jump\t// out\ntag_99:\n    /* \"contracts/HatTokenV2.sol\":453:3535  contract HatToken is Context, AccessControlEnumerable, ERC20Burnable, ERC20Pausable, Ownable {... */\n  dataSize(sub_0)\n  dup1\n  dataOffset(sub_0)\n  0x00\n  codecopy\n  0x00\n  return\nstop\n\nsub_0: assembly {\n        /* \"contracts/HatTokenV2.sol\":453:3535  contract HatToken is Context, AccessControlEnumerable, ERC20Burnable, ERC20Pausable, Ownable {... */\n      mstore(0x40, 0x80)\n      callvalue\n      dup1\n      iszero\n      tag_1\n      jumpi\n      0x00\n      dup1\n      revert\n    tag_1:\n      pop\n      jumpi(tag_2, lt(calldatasize, 0x04))\n      shr(0xe0, calldataload(0x00))\n      dup1\n      0x79cc6790\n      gt\n      tag_36\n      jumpi\n      dup1\n      0xa217fddf\n      gt\n      tag_37\n      jumpi\n      dup1\n      0xd5391393\n      gt\n      tag_38\n      jumpi\n      dup1\n      0xd5391393\n      eq\n      tag_31\n      jumpi\n      dup1\n      0xd547741f\n      eq\n      tag_32\n      jumpi\n      dup1\n      0xdd62ed3e\n      eq\n      tag_33\n      jumpi\n      dup1\n      0xe63ab1e9\n      eq\n      tag_34\n      jumpi\n      dup1\n      0xf2fde38b\n      eq\n      tag_35\n      jumpi\n      0x00\n      dup1\n      revert\n    tag_38:\n      dup1\n      0xa217fddf\n      eq\n      tag_27\n      jumpi\n      dup1\n      0xa457c2d7\n      eq\n      tag_28\n      jumpi\n      dup1\n      0xa9059cbb\n      eq\n      tag_29\n      jumpi\n      dup1\n      0xca15c873\n      eq\n      tag_30\n      jumpi\n      0x00\n      dup1\n      revert\n    tag_37:\n      dup1\n      0x9010d07c\n      gt\n      tag_39\n      jumpi\n      dup1\n      0x9010d07c\n      eq\n      tag_23\n      jumpi\n      dup1\n      0x91d14854\n      eq\n      tag_24\n      jumpi\n      dup1\n      0x95d89b41\n      eq\n      tag_25\n      jumpi\n      dup1\n      0xa128471f\n      eq\n      tag_26\n      jumpi\n      0x00\n      dup1\n      revert\n    tag_39:\n      dup1\n      0x79cc6790\n      eq\n      tag_19\n      jumpi\n      dup1\n      0x8456cb59\n      eq\n      tag_20\n      jumpi\n      dup1\n      0x893d20e8\n      eq\n      tag_21\n      jumpi\n      dup1\n      0x8da5cb5b\n      eq\n      tag_22\n      jumpi\n      0x00\n      dup1\n      revert\n    tag_36:\n      dup1\n      0x357bf15c\n      gt\n      tag_40\n      jumpi\n      dup1\n      0x42966c68\n      gt\n      tag_41\n      jumpi\n      dup1\n      0x42966c68\n      eq\n      tag_15\n      jumpi\n      dup1\n      0x5c975abb\n      eq\n      tag_16\n      jumpi\n      dup1\n      0x70a08231\n      eq\n      tag_17\n      jumpi\n      dup1\n      0x715018a6\n      eq\n      tag_18\n      jumpi\n      0x00\n      dup1\n      revert\n    tag_41:\n      dup1\n      0x357bf15c\n      eq\n      tag_11\n      jumpi\n      dup1\n      0x36568abe\n      eq\n      tag_12\n      jumpi\n      dup1\n      0x39509351\n      eq\n      tag_13\n      jumpi\n      dup1\n      0x3f4ba83a\n      eq\n      tag_14\n      jumpi\n      0x00\n      dup1\n      revert\n    tag_40:\n      dup1\n      0x23b872dd\n      gt\n      tag_42\n      jumpi\n      dup1\n      0x23b872dd\n      eq\n      tag_7\n      jumpi\n      dup1\n      0x248a9ca3\n      eq\n      tag_8\n      jumpi\n      dup1\n      0x2f2ff15d\n      eq\n      tag_9\n      jumpi\n      dup1\n      0x313ce567\n      eq\n      tag_10\n      jumpi\n      0x00\n      dup1\n      revert\n    tag_42:\n      dup1\n      0x01ffc9a7\n      eq\n      tag_3\n      jumpi\n      dup1\n      0x06fdde03\n      eq\n      tag_4\n      jumpi\n      dup1\n      0x095ea7b3\n      eq\n      tag_5\n      jumpi\n      dup1\n      0x18160ddd\n      eq\n      tag_6\n      jumpi\n    tag_2:\n      0x00\n      dup1\n      revert\n        /* \"@openzeppelin/contracts/access/AccessControlEnumerable.sol\":634:846  function supportsInterface(bytes4 interfaceId) public view virtual override returns (bool) {... */\n    tag_3:\n      tag_43\n      tag_44\n      calldatasize\n      0x04\n      tag_45\n      jump\t// in\n    tag_44:\n      tag_46\n      jump\t// in\n    tag_43:\n      mload(0x40)\n        /* \"#utility.yul\":470:484   */\n      swap1\n      iszero\n        /* \"#utility.yul\":463:485   */\n      iszero\n        /* \"#utility.yul\":445:486   */\n      dup2\n      mstore\n        /* \"#utility.yul\":433:435   */\n      0x20\n        /* \"#utility.yul\":418:436   */\n      add\n        /* \"@openzeppelin/contracts/access/AccessControlEnumerable.sol\":634:846  function supportsInterface(bytes4 interfaceId) public view virtual override returns (bool) {... */\n    tag_47:\n      mload(0x40)\n      dup1\n      swap2\n      sub\n      swap1\n      return\n        /* \"@openzeppelin/contracts/token/ERC20/ERC20.sol\":2156:2254  function name() public view virtual override returns (string memory) {... */\n    tag_4:\n      tag_49\n      tag_50\n      jump\t// in\n    tag_49:\n      mload(0x40)\n      tag_47\n      swap2\n      swap1\n      tag_52\n      jump\t// in\n        /* \"@openzeppelin/contracts/token/ERC20/ERC20.sol\":4433:4630  function approve(address spender, uint256 amount) public virtual override returns (bool) {... */\n    tag_5:\n      tag_43\n      tag_54\n      calldatasize\n      0x04\n      tag_55\n      jump\t// in\n    tag_54:\n      tag_56\n      jump\t// in\n        /* \"@openzeppelin/contracts/token/ERC20/ERC20.sol\":3244:3350  function totalSupply() public view virtual override returns (uint256) {... */\n    tag_6:\n        /* \"@openzeppelin/contracts/token/ERC20/ERC20.sol\":3331:3343  _totalSupply */\n      sload(0x04)\n        /* \"@openzeppelin/contracts/token/ERC20/ERC20.sol\":3244:3350  function totalSupply() public view virtual override returns (uint256) {... */\n    tag_58:\n      mload(0x40)\n        /* \"#utility.yul\":1731:1756   */\n      swap1\n      dup2\n      mstore\n        /* \"#utility.yul\":1719:1721   */\n      0x20\n        /* \"#utility.yul\":1704:1722   */\n      add\n        /* \"@openzeppelin/contracts/token/ERC20/ERC20.sol\":3244:3350  function totalSupply() public view virtual override returns (uint256) {... */\n      tag_47\n        /* \"#utility.yul\":1585:1762   */\n      jump\n        /* \"@openzeppelin/contracts/token/ERC20/ERC20.sol\":5192:5478  function transferFrom(... */\n    tag_7:\n      tag_43\n      tag_63\n      calldatasize\n      0x04\n      tag_64\n      jump\t// in\n    tag_63:\n      tag_65\n      jump\t// in\n        /* \"@openzeppelin/contracts/access/AccessControl.sol\":4008:4137  function getRoleAdmin(bytes32 role) public view virtual override returns (bytes32) {... */\n    tag_8:\n      tag_58\n      tag_68\n      calldatasize\n      0x04\n      tag_69\n      jump\t// in\n    tag_68:\n        /* \"@openzeppelin/contracts/access/AccessControl.sol\":4082:4089  bytes32 */\n      0x00\n        /* \"@openzeppelin/contracts/access/AccessControl.sol\":4108:4120  _roles[role] */\n      swap1\n      dup2\n      mstore\n      0x20\n      dup2\n      swap1\n      mstore\n      0x40\n      swap1\n      keccak256\n        /* \"@openzeppelin/contracts/access/AccessControl.sol\":4108:4130  _roles[role].adminRole */\n      0x01\n      add\n      sload\n      swap1\n        /* \"@openzeppelin/contracts/access/AccessControl.sol\":4008:4137  function getRoleAdmin(bytes32 role) public view virtual override returns (bytes32) {... */\n      jump\n        /* \"@openzeppelin/contracts/access/AccessControl.sol\":4387:4532  function grantRole(bytes32 role, address account) public virtual override onlyRole(getRoleAdmin(role)) {... */\n    tag_9:\n      tag_73\n      tag_74\n      calldatasize\n      0x04\n      tag_75\n      jump\t// in\n    tag_74:\n      tag_76\n      jump\t// in\n    tag_73:\n      stop\n        /* \"@openzeppelin/contracts/token/ERC20/ERC20.sol\":3093:3184  function decimals() public view virtual override returns (uint8) {... */\n    tag_10:\n      mload(0x40)\n        /* \"@openzeppelin/contracts/token/ERC20/ERC20.sol\":3175:3177  18 */\n      0x12\n        /* \"#utility.yul\":2868:2904   */\n      dup2\n      mstore\n        /* \"#utility.yul\":2856:2858   */\n      0x20\n        /* \"#utility.yul\":2841:2859   */\n      add\n        /* \"@openzeppelin/contracts/token/ERC20/ERC20.sol\":3093:3184  function decimals() public view virtual override returns (uint8) {... */\n      tag_47\n        /* \"#utility.yul\":2726:2910   */\n      jump\n        /* \"contracts/HatTokenV2.sol\":2439:2635  function setLiquidityFee(uint256 fee) public onlyOwner {... */\n    tag_11:\n      tag_73\n      tag_82\n      calldatasize\n      0x04\n      tag_69\n      jump\t// in\n    tag_82:\n      tag_84\n      jump\t// in\n        /* \"@openzeppelin/contracts/access/AccessControl.sol\":5404:5618  function renounceRole(bytes32 role, address account) public virtual override {... */\n    tag_12:\n      tag_73\n      tag_86\n      calldatasize\n      0x04\n      tag_75\n      jump\t// in\n    tag_86:\n      tag_87\n      jump\t// in\n        /* \"@openzeppelin/contracts/token/ERC20/ERC20.sol\":5873:6109  function increaseAllowance(address spender, uint256 addedValue) public virtual returns (bool) {... */\n    tag_13:\n      tag_43\n      tag_89\n      calldatasize\n      0x04\n      tag_55\n      jump\t// in\n    tag_89:\n      tag_90\n      jump\t// in\n        /* \"contracts/HatTokenV2.sol\":1881:2053  function unpause() public virtual {... */\n    tag_14:\n      tag_73\n      tag_93\n      jump\t// in\n        /* \"@openzeppelin/contracts/token/ERC20/extensions/ERC20Burnable.sol\":578:667  function burn(uint256 amount) public virtual {... */\n    tag_15:\n      tag_73\n      tag_95\n      calldatasize\n      0x04\n      tag_69\n      jump\t// in\n    tag_95:\n      tag_96\n      jump\t// in\n        /* \"@openzeppelin/contracts/security/Pausable.sol\":1098:1182  function paused() public view virtual returns (bool) {... */\n    tag_16:\n        /* \"@openzeppelin/contracts/security/Pausable.sol\":1168:1175  _paused */\n      and(0xff, sload(0x07))\n        /* \"@openzeppelin/contracts/security/Pausable.sol\":1098:1182  function paused() public view virtual returns (bool) {... */\n      jump(tag_43)\n        /* \"@openzeppelin/contracts/token/ERC20/ERC20.sol\":3408:3533  function balanceOf(address account) public view virtual override returns (uint256) {... */\n    tag_17:\n      tag_58\n      tag_101\n      calldatasize\n      0x04\n      tag_102\n      jump\t// in\n    tag_101:\n      sub(shl(0xa0, 0x01), 0x01)\n        /* \"@openzeppelin/contracts/token/ERC20/ERC20.sol\":3508:3526  _balances[account] */\n      and\n        /* \"@openzeppelin/contracts/token/ERC20/ERC20.sol\":3482:3489  uint256 */\n      0x00\n        /* \"@openzeppelin/contracts/token/ERC20/ERC20.sol\":3508:3526  _balances[account] */\n      swap1\n      dup2\n      mstore\n        /* \"@openzeppelin/contracts/token/ERC20/ERC20.sol\":3508:3517  _balances */\n      0x02\n        /* \"@openzeppelin/contracts/token/ERC20/ERC20.sol\":3508:3526  _balances[account] */\n      0x20\n      mstore\n      0x40\n      swap1\n      keccak256\n      sload\n      swap1\n        /* \"@openzeppelin/contracts/token/ERC20/ERC20.sol\":3408:3533  function balanceOf(address account) public view virtual override returns (uint256) {... */\n      jump\n        /* \"@openzeppelin/contracts/access/Ownable.sol\":1668:1769  function renounceOwnership() public virtual onlyOwner {... */\n    tag_18:\n      tag_73\n      tag_106\n      jump\t// in\n        /* \"@openzeppelin/contracts/token/ERC20/extensions/ERC20Burnable.sol\":973:1134  function burnFrom(address account, uint256 amount) public virtual {... */\n    tag_19:\n      tag_73\n      tag_108\n      calldatasize\n      0x04\n      tag_55\n      jump\t// in\n    tag_108:\n      tag_109\n      jump\t// in\n        /* \"contracts/HatTokenV2.sol\":1497:1663  function pause() public virtual {... */\n    tag_20:\n      tag_73\n      tag_111\n      jump\t// in\n        /* \"contracts/HatTokenV2.sol\":2346:2431  function getOwner() external view returns (address) {... */\n    tag_21:\n        /* \"@openzeppelin/contracts/access/Ownable.sol\":1108:1114  _owner */\n      sload(0x07)\n      0x0100\n      swap1\n      div\n      sub(shl(0xa0, 0x01), 0x01)\n      and\n        /* \"contracts/HatTokenV2.sol\":2346:2431  function getOwner() external view returns (address) {... */\n    tag_112:\n      mload(0x40)\n      sub(shl(0xa0, 0x01), 0x01)\n        /* \"#utility.yul\":3455:3487   */\n      swap1\n      swap2\n      and\n        /* \"#utility.yul\":3437:3488   */\n      dup2\n      mstore\n        /* \"#utility.yul\":3425:3427   */\n      0x20\n        /* \"#utility.yul\":3410:3428   */\n      add\n        /* \"contracts/HatTokenV2.sol\":2346:2431  function getOwner() external view returns (address) {... */\n      tag_47\n        /* \"#utility.yul\":3291:3494   */\n      jump\n        /* \"@openzeppelin/contracts/access/Ownable.sol\":1036:1121  function owner() public view virtual returns (address) {... */\n    tag_22:\n        /* \"@openzeppelin/contracts/access/Ownable.sol\":1108:1114  _owner */\n      sload(0x07)\n      0x0100\n      swap1\n      div\n      sub(shl(0xa0, 0x01), 0x01)\n      and\n        /* \"@openzeppelin/contracts/access/Ownable.sol\":1036:1121  function owner() public view virtual returns (address) {... */\n      jump(tag_112)\n        /* \"@openzeppelin/contracts/access/AccessControlEnumerable.sol\":1431:1582  function getRoleMember(bytes32 role, uint256 index) public view virtual override returns (address) {... */\n    tag_23:\n      tag_112\n      tag_120\n      calldatasize\n      0x04\n      tag_121\n      jump\t// in\n    tag_120:\n      tag_122\n      jump\t// in\n        /* \"@openzeppelin/contracts/access/AccessControl.sol\":2909:3054  function hasRole(bytes32 role, address account) public view virtual override returns (bool) {... */\n    tag_24:\n      tag_43\n      tag_125\n      calldatasize\n      0x04\n      tag_75\n      jump\t// in\n    tag_125:\n      tag_126\n      jump\t// in\n        /* \"@openzeppelin/contracts/token/ERC20/ERC20.sol\":2367:2469  function symbol() public view virtual override returns (string memory) {... */\n    tag_25:\n      tag_49\n      tag_129\n      jump\t// in\n        /* \"contracts/HatTokenV2.sol\":2643:2748  function setLiquidityKeeper(address keeper) public onlyOwner {... */\n    tag_26:\n      tag_73\n      tag_132\n      calldatasize\n      0x04\n      tag_102\n      jump\t// in\n    tag_132:\n      tag_133\n      jump\t// in\n        /* \"@openzeppelin/contracts/access/AccessControl.sol\":2027:2076  bytes32 public constant DEFAULT_ADMIN_ROLE = 0x00 */\n    tag_27:\n      tag_58\n        /* \"@openzeppelin/contracts/access/AccessControl.sol\":2072:2076  0x00 */\n      0x00\n        /* \"@openzeppelin/contracts/access/AccessControl.sol\":2027:2076  bytes32 public constant DEFAULT_ADMIN_ROLE = 0x00 */\n      dup2\n      jump\n        /* \"@openzeppelin/contracts/token/ERC20/ERC20.sol\":6596:7025  function decreaseAllowance(address spender, uint256 subtractedValue) public virtual returns (bool) {... */\n    tag_28:\n      tag_43\n      tag_138\n      calldatasize\n      0x04\n      tag_55\n      jump\t// in\n    tag_138:\n      tag_139\n      jump\t// in\n        /* \"@openzeppelin/contracts/token/ERC20/ERC20.sol\":3729:3918  function transfer(address to, uint256 amount) public virtual override returns (bool) {... */\n    tag_29:\n      tag_43\n      tag_142\n      calldatasize\n      0x04\n      tag_55\n      jump\t// in\n    tag_142:\n      tag_143\n      jump\t// in\n        /* \"@openzeppelin/contracts/access/AccessControlEnumerable.sol\":1750:1890  function getRoleMemberCount(bytes32 role) public view virtual override returns (uint256) {... */\n    tag_30:\n      tag_58\n      tag_146\n      calldatasize\n      0x04\n      tag_69\n      jump\t// in\n    tag_146:\n      tag_147\n      jump\t// in\n        /* \"contracts/HatTokenV2.sol\":588:650  bytes32 public constant MINTER_ROLE = keccak256(\"MINTER_ROLE\") */\n    tag_31:\n      tag_58\n        /* \"contracts/HatTokenV2.sol\":626:650  keccak256(\"MINTER_ROLE\") */\n      0x9f2df0fed2c77648de5860a4cc508cd0818c85b8b8a1ab4ceeef8d981c8956a6\n        /* \"contracts/HatTokenV2.sol\":588:650  bytes32 public constant MINTER_ROLE = keccak256(\"MINTER_ROLE\") */\n      dup2\n      jump\n        /* \"@openzeppelin/contracts/access/AccessControl.sol\":4766:4913  function revokeRole(bytes32 role, address account) public virtual override onlyRole(getRoleAdmin(role)) {... */\n    tag_32:\n      tag_73\n      tag_153\n      calldatasize\n      0x04\n      tag_75\n      jump\t// in\n    tag_153:\n      tag_154\n      jump\t// in\n        /* \"@openzeppelin/contracts/token/ERC20/ERC20.sol\":3976:4125  function allowance(address owner, address spender) public view virtual override returns (uint256) {... */\n    tag_33:\n      tag_58\n      tag_156\n      calldatasize\n      0x04\n      tag_157\n      jump\t// in\n    tag_156:\n      sub(shl(0xa0, 0x01), 0x01)\n        /* \"@openzeppelin/contracts/token/ERC20/ERC20.sol\":4091:4109  _allowances[owner] */\n      swap2\n      dup3\n      and\n        /* \"@openzeppelin/contracts/token/ERC20/ERC20.sol\":4065:4072  uint256 */\n      0x00\n        /* \"@openzeppelin/contracts/token/ERC20/ERC20.sol\":4091:4109  _allowances[owner] */\n      swap1\n      dup2\n      mstore\n        /* \"@openzeppelin/contracts/token/ERC20/ERC20.sol\":4091:4102  _allowances */\n      0x03\n        /* \"@openzeppelin/contracts/token/ERC20/ERC20.sol\":4091:4109  _allowances[owner] */\n      0x20\n      swap1\n      dup2\n      mstore\n      0x40\n      dup1\n      dup4\n      keccak256\n        /* \"@openzeppelin/contracts/token/ERC20/ERC20.sol\":4091:4118  _allowances[owner][spender] */\n      swap4\n      swap1\n      swap5\n      and\n      dup3\n      mstore\n      swap2\n      swap1\n      swap2\n      mstore\n      keccak256\n      sload\n      swap1\n        /* \"@openzeppelin/contracts/token/ERC20/ERC20.sol\":3976:4125  function allowance(address owner, address spender) public view virtual override returns (uint256) {... */\n      jump\n        /* \"contracts/HatTokenV2.sol\":657:719  bytes32 public constant PAUSER_ROLE = keccak256(\"PAUSER_ROLE\") */\n    tag_34:\n      tag_58\n        /* \"contracts/HatTokenV2.sol\":695:719  keccak256(\"PAUSER_ROLE\") */\n      0x65d7a28e3265b37a6474929f336521b332c1681b933f6cb9f3376673440d862a\n        /* \"contracts/HatTokenV2.sol\":657:719  bytes32 public constant PAUSER_ROLE = keccak256(\"PAUSER_ROLE\") */\n      dup2\n      jump\n        /* \"@openzeppelin/contracts/access/Ownable.sol\":1918:2116  function transferOwnership(address newOwner) public virtual onlyOwner {... */\n    tag_35:\n      tag_73\n      tag_164\n      calldatasize\n      0x04\n      tag_102\n      jump\t// in\n    tag_164:\n      tag_165\n      jump\t// in\n        /* \"@openzeppelin/contracts/access/AccessControlEnumerable.sol\":634:846  function supportsInterface(bytes4 interfaceId) public view virtual override returns (bool) {... */\n    tag_46:\n        /* \"@openzeppelin/contracts/access/AccessControlEnumerable.sol\":719:723  bool */\n      0x00\n      not(sub(shl(0xe0, 0x01), 0x01))\n        /* \"@openzeppelin/contracts/access/AccessControlEnumerable.sol\":742:799  interfaceId == type(IAccessControlEnumerable).interfaceId */\n      dup3\n      and\n      shl(0xe0, 0x5a05180f)\n      eq\n      dup1\n        /* \"@openzeppelin/contracts/access/AccessControlEnumerable.sol\":742:839  interfaceId == type(IAccessControlEnumerable).interfaceId || super.supportsInterface(interfaceId) */\n      tag_172\n      jumpi\n      pop\n        /* \"@openzeppelin/contracts/access/AccessControlEnumerable.sol\":803:839  super.supportsInterface(interfaceId) */\n      tag_172\n        /* \"@openzeppelin/contracts/access/AccessControlEnumerable.sol\":827:838  interfaceId */\n      dup3\n        /* \"@openzeppelin/contracts/access/AccessControlEnumerable.sol\":803:826  super.supportsInterface */\n      tag_173\n        /* \"@openzeppelin/contracts/access/AccessControlEnumerable.sol\":803:839  super.supportsInterface(interfaceId) */\n      jump\t// in\n    tag_172:\n        /* \"@openzeppelin/contracts/access/AccessControlEnumerable.sol\":735:839  return interfaceId == type(IAccessControlEnumerable).interfaceId || super.supportsInterface(interfaceId) */\n      swap3\n        /* \"@openzeppelin/contracts/access/AccessControlEnumerable.sol\":634:846  function supportsInterface(bytes4 interfaceId) public view virtual override returns (bool) {... */\n      swap2\n      pop\n      pop\n      jump\t// out\n        /* \"@openzeppelin/contracts/token/ERC20/ERC20.sol\":2156:2254  function name() public view virtual override returns (string memory) {... */\n    tag_50:\n        /* \"@openzeppelin/contracts/token/ERC20/ERC20.sol\":2210:2223  string memory */\n      0x60\n        /* \"@openzeppelin/contracts/token/ERC20/ERC20.sol\":2242:2247  _name */\n      0x05\n        /* \"@openzeppelin/contracts/token/ERC20/ERC20.sol\":2235:2247  return _name */\n      dup1\n      sload\n      tag_175\n      swap1\n      tag_176\n      jump\t// in\n    tag_175:\n      dup1\n      0x1f\n      add\n      0x20\n      dup1\n      swap2\n      div\n      mul\n      0x20\n      add\n      mload(0x40)\n      swap1\n      dup2\n      add\n      0x40\n      mstore\n      dup1\n      swap3\n      swap2\n      swap1\n      dup2\n      dup2\n      mstore\n      0x20\n      add\n      dup3\n      dup1\n      sload\n      tag_177\n      swap1\n      tag_176\n      jump\t// in\n    tag_177:\n      dup1\n      iszero\n      tag_178\n      jumpi\n      dup1\n      0x1f\n      lt\n      tag_179\n      jumpi\n      0x0100\n      dup1\n      dup4\n      sload\n      div\n      mul\n      dup4\n      mstore\n      swap2\n      0x20\n      add\n      swap2\n      jump(tag_178)\n    tag_179:\n      dup3\n      add\n      swap2\n      swap1\n      0x00\n      mstore\n      keccak256(0x00, 0x20)\n      swap1\n    tag_180:\n      dup2\n      sload\n      dup2\n      mstore\n      swap1\n      0x01\n      add\n      swap1\n      0x20\n      add\n      dup1\n      dup4\n      gt\n      tag_180\n      jumpi\n      dup3\n      swap1\n      sub\n      0x1f\n      and\n      dup3\n      add\n      swap2\n    tag_178:\n      pop\n      pop\n      pop\n      pop\n      pop\n      swap1\n      pop\n        /* \"@openzeppelin/contracts/token/ERC20/ERC20.sol\":2156:2254  function name() public view virtual override returns (string memory) {... */\n      swap1\n      jump\t// out\n        /* \"@openzeppelin/contracts/token/ERC20/ERC20.sol\":4433:4630  function approve(address spender, uint256 amount) public virtual override returns (bool) {... */\n    tag_56:\n        /* \"@openzeppelin/contracts/token/ERC20/ERC20.sol\":4516:4520  bool */\n      0x00\n        /* \"@openzeppelin/contracts/utils/Context.sol\":719:729  msg.sender */\n      caller\n        /* \"@openzeppelin/contracts/token/ERC20/ERC20.sol\":4570:4602  _approve(owner, spender, amount) */\n      tag_184\n        /* \"@openzeppelin/contracts/utils/Context.sol\":719:729  msg.sender */\n      dup2\n        /* \"@openzeppelin/contracts/token/ERC20/ERC20.sol\":4586:4593  spender */\n      dup6\n        /* \"@openzeppelin/contracts/token/ERC20/ERC20.sol\":4595:4601  amount */\n      dup6\n        /* \"@openzeppelin/contracts/token/ERC20/ERC20.sol\":4570:4578  _approve */\n      tag_185\n        /* \"@openzeppelin/contracts/token/ERC20/ERC20.sol\":4570:4602  _approve(owner, spender, amount) */\n      jump\t// in\n    tag_184:\n      pop\n        /* \"@openzeppelin/contracts/token/ERC20/ERC20.sol\":4619:4623  true */\n      0x01\n      swap4\n        /* \"@openzeppelin/contracts/token/ERC20/ERC20.sol\":4433:4630  function approve(address spender, uint256 amount) public virtual override returns (bool) {... */\n      swap3\n      pop\n      pop\n      pop\n      jump\t// out\n        /* \"@openzeppelin/contracts/token/ERC20/ERC20.sol\":5192:5478  function transferFrom(... */\n    tag_65:\n        /* \"@openzeppelin/contracts/token/ERC20/ERC20.sol\":5319:5323  bool */\n      0x00\n        /* \"@openzeppelin/contracts/utils/Context.sol\":719:729  msg.sender */\n      caller\n        /* \"@openzeppelin/contracts/token/ERC20/ERC20.sol\":5375:5413  _spendAllowance(from, spender, amount) */\n      tag_189\n        /* \"@openzeppelin/contracts/token/ERC20/ERC20.sol\":5391:5395  from */\n      dup6\n        /* \"@openzeppelin/contracts/utils/Context.sol\":719:729  msg.sender */\n      dup3\n        /* \"@openzeppelin/contracts/token/ERC20/ERC20.sol\":5406:5412  amount */\n      dup6\n        /* \"@openzeppelin/contracts/token/ERC20/ERC20.sol\":5375:5390  _spendAllowance */\n      tag_190\n        /* \"@openzeppelin/contracts/token/ERC20/ERC20.sol\":5375:5413  _spendAllowance(from, spender, amount) */\n      jump\t// in\n    tag_189:\n        /* \"@openzeppelin/contracts/token/ERC20/ERC20.sol\":5423:5450  _transfer(from, to, amount) */\n      tag_191\n        /* \"@openzeppelin/contracts/token/ERC20/ERC20.sol\":5433:5437  from */\n      dup6\n        /* \"@openzeppelin/contracts/token/ERC20/ERC20.sol\":5439:5441  to */\n      dup6\n        /* \"@openzeppelin/contracts/token/ERC20/ERC20.sol\":5443:5449  amount */\n      dup6\n        /* \"@openzeppelin/contracts/token/ERC20/ERC20.sol\":5423:5432  _transfer */\n      tag_192\n        /* \"@openzeppelin/contracts/token/ERC20/ERC20.sol\":5423:5450  _transfer(from, to, amount) */\n      jump\t// in\n    tag_191:\n      pop\n        /* \"@openzeppelin/contracts/token/ERC20/ERC20.sol\":5467:5471  true */\n      0x01\n      swap5\n        /* \"@openzeppelin/contracts/token/ERC20/ERC20.sol\":5192:5478  function transferFrom(... */\n      swap4\n      pop\n      pop\n      pop\n      pop\n      jump\t// out\n        /* \"@openzeppelin/contracts/access/AccessControl.sol\":4387:4532  function grantRole(bytes32 role, address account) public virtual override onlyRole(getRoleAdmin(role)) {... */\n    tag_76:\n        /* \"@openzeppelin/contracts/access/AccessControl.sol\":4082:4089  bytes32 */\n      0x00\n        /* \"@openzeppelin/contracts/access/AccessControl.sol\":4108:4120  _roles[role] */\n      dup3\n      dup2\n      mstore\n      0x20\n      dup2\n      swap1\n      mstore\n      0x40\n      swap1\n      keccak256\n        /* \"@openzeppelin/contracts/access/AccessControl.sol\":4108:4130  _roles[role].adminRole */\n      0x01\n      add\n      sload\n        /* \"@openzeppelin/contracts/access/AccessControl.sol\":2505:2535  _checkRole(role, _msgSender()) */\n      tag_196\n        /* \"@openzeppelin/contracts/access/AccessControl.sol\":2516:2520  role */\n      dup2\n        /* \"@openzeppelin/contracts/utils/Context.sol\":719:729  msg.sender */\n      caller\n        /* \"@openzeppelin/contracts/access/AccessControl.sol\":2505:2515  _checkRole */\n      tag_198\n        /* \"@openzeppelin/contracts/access/AccessControl.sol\":2505:2535  _checkRole(role, _msgSender()) */\n      jump\t// in\n    tag_196:\n        /* \"@openzeppelin/contracts/access/AccessControl.sol\":4500:4525  _grantRole(role, account) */\n      tag_200\n        /* \"@openzeppelin/contracts/access/AccessControl.sol\":4511:4515  role */\n      dup4\n        /* \"@openzeppelin/contracts/access/AccessControl.sol\":4517:4524  account */\n      dup4\n        /* \"@openzeppelin/contracts/access/AccessControl.sol\":4500:4510  _grantRole */\n      tag_201\n        /* \"@openzeppelin/contracts/access/AccessControl.sol\":4500:4525  _grantRole(role, account) */\n      jump\t// in\n    tag_200:\n        /* \"@openzeppelin/contracts/access/AccessControl.sol\":4387:4532  function grantRole(bytes32 role, address account) public virtual override onlyRole(getRoleAdmin(role)) {... */\n      pop\n      pop\n      pop\n      jump\t// out\n        /* \"contracts/HatTokenV2.sol\":2439:2635  function setLiquidityFee(uint256 fee) public onlyOwner {... */\n    tag_84:\n        /* \"@openzeppelin/contracts/access/Ownable.sol\":1108:1114  _owner */\n      sload(0x07)\n      sub(shl(0xa0, 0x01), 0x01)\n      0x0100\n      swap1\n      swap2\n      div\n      and\n        /* \"@openzeppelin/contracts/utils/Context.sol\":719:729  msg.sender */\n      caller\n        /* \"@openzeppelin/contracts/access/Ownable.sol\":1248:1271  owner() == _msgSender() */\n      eq\n        /* \"@openzeppelin/contracts/access/Ownable.sol\":1240:1308  require(owner() == _msgSender(), \"Ownable: caller is not the owner\") */\n      tag_206\n      jumpi\n      mload(0x40)\n      shl(0xe5, 0x461bcd)\n      dup2\n      mstore\n      0x04\n      add\n      tag_207\n      swap1\n      tag_208\n      jump\t// in\n    tag_207:\n      mload(0x40)\n      dup1\n      swap2\n      sub\n      swap1\n      revert\n    tag_206:\n        /* \"contracts/HatTokenV2.sol\":2532:2535  100 */\n      0x64\n        /* \"contracts/HatTokenV2.sol\":2525:2528  fee */\n      dup2\n        /* \"contracts/HatTokenV2.sol\":2525:2535  fee <= 100 */\n      gt\n      iszero\n        /* \"contracts/HatTokenV2.sol\":2505:2595  require(fee >= 0 && fee <= 100, \"Hero Awaken Token: liquidity fee must between 0 and 100\") */\n      tag_211\n      jumpi\n      mload(0x40)\n      shl(0xe5, 0x461bcd)\n      dup2\n      mstore\n        /* \"#utility.yul\":4965:4967   */\n      0x20\n        /* \"contracts/HatTokenV2.sol\":2505:2595  require(fee >= 0 && fee <= 100, \"Hero Awaken Token: liquidity fee must between 0 and 100\") */\n      0x04\n      dup3\n      add\n        /* \"#utility.yul\":4947:4968   */\n      mstore\n        /* \"#utility.yul\":5004:5006   */\n      0x37\n        /* \"#utility.yul\":4984:5002   */\n      0x24\n      dup3\n      add\n        /* \"#utility.yul\":4977:5007   */\n      mstore\n        /* \"#utility.yul\":5043:5077   */\n      0x4865726f204177616b656e20546f6b656e3a206c697175696469747920666565\n        /* \"#utility.yul\":5023:5041   */\n      0x44\n      dup3\n      add\n        /* \"#utility.yul\":5016:5078   */\n      mstore\n        /* \"#utility.yul\":5114:5139   */\n      0x206d757374206265747765656e203020616e6420313030000000000000000000\n        /* \"#utility.yul\":5094:5112   */\n      0x64\n      dup3\n      add\n        /* \"#utility.yul\":5087:5140   */\n      mstore\n        /* \"#utility.yul\":5157:5176   */\n      0x84\n      add\n        /* \"contracts/HatTokenV2.sol\":2505:2595  require(fee >= 0 && fee <= 100, \"Hero Awaken Token: liquidity fee must between 0 and 100\") */\n      tag_207\n        /* \"#utility.yul\":4763:5182   */\n      jump\n        /* \"contracts/HatTokenV2.sol\":2505:2595  require(fee >= 0 && fee <= 100, \"Hero Awaken Token: liquidity fee must between 0 and 100\") */\n    tag_211:\n        /* \"contracts/HatTokenV2.sol\":2608:2621  _liquidityFee */\n      0x08\n        /* \"contracts/HatTokenV2.sol\":2608:2627  _liquidityFee = fee */\n      sstore\n        /* \"contracts/HatTokenV2.sol\":2439:2635  function setLiquidityFee(uint256 fee) public onlyOwner {... */\n      jump\t// out\n        /* \"@openzeppelin/contracts/access/AccessControl.sol\":5404:5618  function renounceRole(bytes32 role, address account) public virtual override {... */\n    tag_87:\n      sub(shl(0xa0, 0x01), 0x01)\n        /* \"@openzeppelin/contracts/access/AccessControl.sol\":5499:5522  account == _msgSender() */\n      dup2\n      and\n        /* \"@openzeppelin/contracts/utils/Context.sol\":719:729  msg.sender */\n      caller\n        /* \"@openzeppelin/contracts/access/AccessControl.sol\":5499:5522  account == _msgSender() */\n      eq\n        /* \"@openzeppelin/contracts/access/AccessControl.sol\":5491:5574  require(account == _msgSender(), \"AccessControl: can only renounce roles for self\") */\n      tag_216\n      jumpi\n      mload(0x40)\n      shl(0xe5, 0x461bcd)\n      dup2\n      mstore\n        /* \"#utility.yul\":5389:5391   */\n      0x20\n        /* \"@openzeppelin/contracts/access/AccessControl.sol\":5491:5574  require(account == _msgSender(), \"AccessControl: can only renounce roles for self\") */\n      0x04\n      dup3\n      add\n        /* \"#utility.yul\":5371:5392   */\n      mstore\n        /* \"#utility.yul\":5428:5430   */\n      0x2f\n        /* \"#utility.yul\":5408:5426   */\n      0x24\n      dup3\n      add\n        /* \"#utility.yul\":5401:5431   */\n      mstore\n        /* \"#utility.yul\":5467:5501   */\n      0x416363657373436f6e74726f6c3a2063616e206f6e6c792072656e6f756e6365\n        /* \"#utility.yul\":5447:5465   */\n      0x44\n      dup3\n      add\n        /* \"#utility.yul\":5440:5502   */\n      mstore\n      shl(0x89, 0x103937b632b9903337b91039b2b633)\n        /* \"#utility.yul\":5518:5536   */\n      0x64\n      dup3\n      add\n        /* \"#utility.yul\":5511:5556   */\n      mstore\n        /* \"#utility.yul\":5573:5592   */\n      0x84\n      add\n        /* \"@openzeppelin/contracts/access/AccessControl.sol\":5491:5574  require(account == _msgSender(), \"AccessControl: can only renounce roles for self\") */\n      tag_207\n        /* \"#utility.yul\":5187:5598   */\n      jump\n        /* \"@openzeppelin/contracts/access/AccessControl.sol\":5491:5574  require(account == _msgSender(), \"AccessControl: can only renounce roles for self\") */\n    tag_216:\n        /* \"@openzeppelin/contracts/access/AccessControl.sol\":5585:5611  _revokeRole(role, account) */\n      tag_219\n        /* \"@openzeppelin/contracts/access/AccessControl.sol\":5597:5601  role */\n      dup3\n        /* \"@openzeppelin/contracts/access/AccessControl.sol\":5603:5610  account */\n      dup3\n        /* \"@openzeppelin/contracts/access/AccessControl.sol\":5585:5596  _revokeRole */\n      tag_220\n        /* \"@openzeppelin/contracts/access/AccessControl.sol\":5585:5611  _revokeRole(role, account) */\n      jump\t// in\n    tag_219:\n        /* \"@openzeppelin/contracts/access/AccessControl.sol\":5404:5618  function renounceRole(bytes32 role, address account) public virtual override {... */\n      pop\n      pop\n      jump\t// out\n        /* \"@openzeppelin/contracts/token/ERC20/ERC20.sol\":5873:6109  function increaseAllowance(address spender, uint256 addedValue) public virtual returns (bool) {... */\n    tag_90:\n        /* \"@openzeppelin/contracts/utils/Context.sol\":719:729  msg.sender */\n      caller\n        /* \"@openzeppelin/contracts/token/ERC20/ERC20.sol\":5961:5965  bool */\n      0x00\n        /* \"@openzeppelin/contracts/token/ERC20/ERC20.sol\":6040:6058  _allowances[owner] */\n      dup2\n      dup2\n      mstore\n        /* \"@openzeppelin/contracts/token/ERC20/ERC20.sol\":6040:6051  _allowances */\n      0x03\n        /* \"@openzeppelin/contracts/token/ERC20/ERC20.sol\":6040:6058  _allowances[owner] */\n      0x20\n      swap1\n      dup2\n      mstore\n      0x40\n      dup1\n      dup4\n      keccak256\n      sub(shl(0xa0, 0x01), 0x01)\n        /* \"@openzeppelin/contracts/token/ERC20/ERC20.sol\":6040:6067  _allowances[owner][spender] */\n      dup8\n      and\n      dup5\n      mstore\n      swap1\n      swap2\n      mstore\n      dup2\n      keccak256\n      sload\n        /* \"@openzeppelin/contracts/token/ERC20/ERC20.sol\":5961:5965  bool */\n      swap1\n      swap2\n        /* \"@openzeppelin/contracts/utils/Context.sol\":719:729  msg.sender */\n      swap1\n        /* \"@openzeppelin/contracts/token/ERC20/ERC20.sol\":6015:6081  _approve(owner, spender, _allowances[owner][spender] + addedValue) */\n      tag_184\n      swap1\n        /* \"@openzeppelin/contracts/utils/Context.sol\":719:729  msg.sender */\n      dup3\n      swap1\n        /* \"@openzeppelin/contracts/token/ERC20/ERC20.sol\":6040:6067  _allowances[owner][spender] */\n      dup7\n      swap1\n        /* \"@openzeppelin/contracts/token/ERC20/ERC20.sol\":6040:6080  _allowances[owner][spender] + addedValue */\n      tag_224\n      swap1\n        /* \"@openzeppelin/contracts/token/ERC20/ERC20.sol\":6070:6080  addedValue */\n      dup8\n      swap1\n        /* \"@openzeppelin/contracts/token/ERC20/ERC20.sol\":6040:6080  _allowances[owner][spender] + addedValue */\n      tag_225\n      jump\t// in\n    tag_224:\n        /* \"@openzeppelin/contracts/token/ERC20/ERC20.sol\":6015:6023  _approve */\n      tag_185\n        /* \"@openzeppelin/contracts/token/ERC20/ERC20.sol\":6015:6081  _approve(owner, spender, _allowances[owner][spender] + addedValue) */\n      jump\t// in\n        /* \"contracts/HatTokenV2.sol\":1881:2053  function unpause() public virtual {... */\n    tag_93:\n        /* \"contracts/HatTokenV2.sol\":1934:1968  hasRole(PAUSER_ROLE, _msgSender()) */\n      tag_227\n        /* \"contracts/HatTokenV2.sol\":695:719  keccak256(\"PAUSER_ROLE\") */\n      0x65d7a28e3265b37a6474929f336521b332c1681b933f6cb9f3376673440d862a\n        /* \"@openzeppelin/contracts/utils/Context.sol\":719:729  msg.sender */\n      caller\n        /* \"@openzeppelin/contracts/access/AccessControl.sol\":2909:3054  function hasRole(bytes32 role, address account) public view virtual override returns (bool) {... */\n      tag_126\n      jump\t// in\n        /* \"contracts/HatTokenV2.sol\":1934:1968  hasRole(PAUSER_ROLE, _msgSender()) */\n    tag_227:\n        /* \"contracts/HatTokenV2.sol\":1926:2024  require(hasRole(PAUSER_ROLE, _msgSender()), \"Hero Awaken Token: must have pauser role to unpause\") */\n      tag_229\n      jumpi\n      mload(0x40)\n      shl(0xe5, 0x461bcd)\n      dup2\n      mstore\n        /* \"#utility.yul\":6070:6072   */\n      0x20\n        /* \"contracts/HatTokenV2.sol\":1926:2024  require(hasRole(PAUSER_ROLE, _msgSender()), \"Hero Awaken Token: must have pauser role to unpause\") */\n      0x04\n      dup3\n      add\n        /* \"#utility.yul\":6052:6073   */\n      mstore\n        /* \"#utility.yul\":6109:6111   */\n      0x33\n        /* \"#utility.yul\":6089:6107   */\n      0x24\n      dup3\n      add\n        /* \"#utility.yul\":6082:6112   */\n      mstore\n        /* \"#utility.yul\":6148:6182   */\n      0x4865726f204177616b656e20546f6b656e3a206d757374206861766520706175\n        /* \"#utility.yul\":6128:6146   */\n      0x44\n      dup3\n      add\n        /* \"#utility.yul\":6121:6183   */\n      mstore\n      shl(0x68, 0x73657220726f6c6520746f20756e7061757365)\n        /* \"#utility.yul\":6199:6217   */\n      0x64\n      dup3\n      add\n        /* \"#utility.yul\":6192:6241   */\n      mstore\n        /* \"#utility.yul\":6258:6277   */\n      0x84\n      add\n        /* \"contracts/HatTokenV2.sol\":1926:2024  require(hasRole(PAUSER_ROLE, _msgSender()), \"Hero Awaken Token: must have pauser role to unpause\") */\n      tag_207\n        /* \"#utility.yul\":5868:6283   */\n      jump\n        /* \"contracts/HatTokenV2.sol\":1926:2024  require(hasRole(PAUSER_ROLE, _msgSender()), \"Hero Awaken Token: must have pauser role to unpause\") */\n    tag_229:\n        /* \"contracts/HatTokenV2.sol\":2035:2045  _unpause() */\n      tag_232\n        /* \"contracts/HatTokenV2.sol\":2035:2043  _unpause */\n      tag_233\n        /* \"contracts/HatTokenV2.sol\":2035:2045  _unpause() */\n      jump\t// in\n    tag_232:\n        /* \"contracts/HatTokenV2.sol\":1881:2053  function unpause() public virtual {... */\n      jump\t// out\n        /* \"@openzeppelin/contracts/token/ERC20/extensions/ERC20Burnable.sol\":578:667  function burn(uint256 amount) public virtual {... */\n    tag_96:\n        /* \"@openzeppelin/contracts/token/ERC20/extensions/ERC20Burnable.sol\":633:660  _burn(_msgSender(), amount) */\n      tag_235\n        /* \"@openzeppelin/contracts/utils/Context.sol\":719:729  msg.sender */\n      caller\n        /* \"@openzeppelin/contracts/token/ERC20/extensions/ERC20Burnable.sol\":653:659  amount */\n      dup3\n        /* \"@openzeppelin/contracts/token/ERC20/extensions/ERC20Burnable.sol\":633:638  _burn */\n      tag_237\n        /* \"@openzeppelin/contracts/token/ERC20/extensions/ERC20Burnable.sol\":633:660  _burn(_msgSender(), amount) */\n      jump\t// in\n    tag_235:\n        /* \"@openzeppelin/contracts/token/ERC20/extensions/ERC20Burnable.sol\":578:667  function burn(uint256 amount) public virtual {... */\n      pop\n      jump\t// out\n        /* \"@openzeppelin/contracts/access/Ownable.sol\":1668:1769  function renounceOwnership() public virtual onlyOwner {... */\n    tag_106:\n        /* \"@openzeppelin/contracts/access/Ownable.sol\":1108:1114  _owner */\n      sload(0x07)\n      sub(shl(0xa0, 0x01), 0x01)\n      0x0100\n      swap1\n      swap2\n      div\n      and\n        /* \"@openzeppelin/contracts/utils/Context.sol\":719:729  msg.sender */\n      caller\n        /* \"@openzeppelin/contracts/access/Ownable.sol\":1248:1271  owner() == _msgSender() */\n      eq\n        /* \"@openzeppelin/contracts/access/Ownable.sol\":1240:1308  require(owner() == _msgSender(), \"Ownable: caller is not the owner\") */\n      tag_243\n      jumpi\n      mload(0x40)\n      shl(0xe5, 0x461bcd)\n      dup2\n      mstore\n      0x04\n      add\n      tag_207\n      swap1\n      tag_208\n      jump\t// in\n    tag_243:\n        /* \"@openzeppelin/contracts/access/Ownable.sol\":1732:1762  _transferOwnership(address(0)) */\n      tag_232\n        /* \"@openzeppelin/contracts/access/Ownable.sol\":1759:1760  0 */\n      0x00\n        /* \"@openzeppelin/contracts/access/Ownable.sol\":1732:1750  _transferOwnership */\n      tag_247\n        /* \"@openzeppelin/contracts/access/Ownable.sol\":1732:1762  _transferOwnership(address(0)) */\n      jump\t// in\n        /* \"@openzeppelin/contracts/token/ERC20/extensions/ERC20Burnable.sol\":973:1134  function burnFrom(address account, uint256 amount) public virtual {... */\n    tag_109:\n        /* \"@openzeppelin/contracts/token/ERC20/extensions/ERC20Burnable.sol\":1049:1095  _spendAllowance(account, _msgSender(), amount) */\n      tag_249\n        /* \"@openzeppelin/contracts/token/ERC20/extensions/ERC20Burnable.sol\":1065:1072  account */\n      dup3\n        /* \"@openzeppelin/contracts/utils/Context.sol\":719:729  msg.sender */\n      caller\n        /* \"@openzeppelin/contracts/token/ERC20/extensions/ERC20Burnable.sol\":1088:1094  amount */\n      dup4\n        /* \"@openzeppelin/contracts/token/ERC20/extensions/ERC20Burnable.sol\":1049:1064  _spendAllowance */\n      tag_190\n        /* \"@openzeppelin/contracts/token/ERC20/extensions/ERC20Burnable.sol\":1049:1095  _spendAllowance(account, _msgSender(), amount) */\n      jump\t// in\n    tag_249:\n        /* \"@openzeppelin/contracts/token/ERC20/extensions/ERC20Burnable.sol\":1105:1127  _burn(account, amount) */\n      tag_219\n        /* \"@openzeppelin/contracts/token/ERC20/extensions/ERC20Burnable.sol\":1111:1118  account */\n      dup3\n        /* \"@openzeppelin/contracts/token/ERC20/extensions/ERC20Burnable.sol\":1120:1126  amount */\n      dup3\n        /* \"@openzeppelin/contracts/token/ERC20/extensions/ERC20Burnable.sol\":1105:1110  _burn */\n      tag_237\n        /* \"@openzeppelin/contracts/token/ERC20/extensions/ERC20Burnable.sol\":1105:1127  _burn(account, amount) */\n      jump\t// in\n        /* \"contracts/HatTokenV2.sol\":1497:1663  function pause() public virtual {... */\n    tag_111:\n        /* \"contracts/HatTokenV2.sol\":1548:1582  hasRole(PAUSER_ROLE, _msgSender()) */\n      tag_253\n        /* \"contracts/HatTokenV2.sol\":695:719  keccak256(\"PAUSER_ROLE\") */\n      0x65d7a28e3265b37a6474929f336521b332c1681b933f6cb9f3376673440d862a\n        /* \"@openzeppelin/contracts/utils/Context.sol\":719:729  msg.sender */\n      caller\n        /* \"@openzeppelin/contracts/access/AccessControl.sol\":2909:3054  function hasRole(bytes32 role, address account) public view virtual override returns (bool) {... */\n      tag_126\n      jump\t// in\n        /* \"contracts/HatTokenV2.sol\":1548:1582  hasRole(PAUSER_ROLE, _msgSender()) */\n    tag_253:\n        /* \"contracts/HatTokenV2.sol\":1540:1636  require(hasRole(PAUSER_ROLE, _msgSender()), \"Hero Awaken Token: must have pauser role to pause\") */\n      tag_255\n      jumpi\n      mload(0x40)\n      shl(0xe5, 0x461bcd)\n      dup2\n      mstore\n        /* \"#utility.yul\":6490:6492   */\n      0x20\n        /* \"contracts/HatTokenV2.sol\":1540:1636  require(hasRole(PAUSER_ROLE, _msgSender()), \"Hero Awaken Token: must have pauser role to pause\") */\n      0x04\n      dup3\n      add\n        /* \"#utility.yul\":6472:6493   */\n      mstore\n        /* \"#utility.yul\":6529:6531   */\n      0x31\n        /* \"#utility.yul\":6509:6527   */\n      0x24\n      dup3\n      add\n        /* \"#utility.yul\":6502:6532   */\n      mstore\n        /* \"#utility.yul\":6568:6602   */\n      0x4865726f204177616b656e20546f6b656e3a206d757374206861766520706175\n        /* \"#utility.yul\":6548:6566   */\n      0x44\n      dup3\n      add\n        /* \"#utility.yul\":6541:6603   */\n      mstore\n      shl(0x78, 0x73657220726f6c6520746f207061757365)\n        /* \"#utility.yul\":6619:6637   */\n      0x64\n      dup3\n      add\n        /* \"#utility.yul\":6612:6659   */\n      mstore\n        /* \"#utility.yul\":6676:6695   */\n      0x84\n      add\n        /* \"contracts/HatTokenV2.sol\":1540:1636  require(hasRole(PAUSER_ROLE, _msgSender()), \"Hero Awaken Token: must have pauser role to pause\") */\n      tag_207\n        /* \"#utility.yul\":6288:6701   */\n      jump\n        /* \"contracts/HatTokenV2.sol\":1540:1636  require(hasRole(PAUSER_ROLE, _msgSender()), \"Hero Awaken Token: must have pauser role to pause\") */\n    tag_255:\n        /* \"contracts/HatTokenV2.sol\":1647:1655  _pause() */\n      tag_232\n        /* \"contracts/HatTokenV2.sol\":1647:1653  _pause */\n      tag_259\n        /* \"contracts/HatTokenV2.sol\":1647:1655  _pause() */\n      jump\t// in\n        /* \"@openzeppelin/contracts/access/AccessControlEnumerable.sol\":1431:1582  function getRoleMember(bytes32 role, uint256 index) public view virtual override returns (address) {... */\n    tag_122:\n        /* \"@openzeppelin/contracts/access/AccessControlEnumerable.sol\":1521:1528  address */\n      0x00\n        /* \"@openzeppelin/contracts/access/AccessControlEnumerable.sol\":1547:1565  _roleMembers[role] */\n      dup3\n      dup2\n      mstore\n        /* \"@openzeppelin/contracts/access/AccessControlEnumerable.sol\":1547:1559  _roleMembers */\n      0x01\n        /* \"@openzeppelin/contracts/access/AccessControlEnumerable.sol\":1547:1565  _roleMembers[role] */\n      0x20\n      mstore\n      0x40\n      dup2\n      keccak256\n        /* \"@openzeppelin/contracts/access/AccessControlEnumerable.sol\":1547:1575  _roleMembers[role].at(index) */\n      tag_264\n      swap1\n        /* \"@openzeppelin/contracts/access/AccessControlEnumerable.sol\":1569:1574  index */\n      dup4\n        /* \"@openzeppelin/contracts/access/AccessControlEnumerable.sol\":1547:1568  _roleMembers[role].at */\n      tag_265\n        /* \"@openzeppelin/contracts/access/AccessControlEnumerable.sol\":1547:1575  _roleMembers[role].at(index) */\n      jump\t// in\n    tag_264:\n        /* \"@openzeppelin/contracts/access/AccessControlEnumerable.sol\":1540:1575  return _roleMembers[role].at(index) */\n      swap4\n        /* \"@openzeppelin/contracts/access/AccessControlEnumerable.sol\":1431:1582  function getRoleMember(bytes32 role, uint256 index) public view virtual override returns (address) {... */\n      swap3\n      pop\n      pop\n      pop\n      jump\t// out\n        /* \"@openzeppelin/contracts/access/AccessControl.sol\":2909:3054  function hasRole(bytes32 role, address account) public view virtual override returns (bool) {... */\n    tag_126:\n        /* \"@openzeppelin/contracts/access/AccessControl.sol\":2995:2999  bool */\n      0x00\n        /* \"@openzeppelin/contracts/access/AccessControl.sol\":3018:3030  _roles[role] */\n      swap2\n      dup3\n      mstore\n      0x20\n      dup3\n      dup2\n      mstore\n      0x40\n      dup1\n      dup5\n      keccak256\n      sub(shl(0xa0, 0x01), 0x01)\n        /* \"@openzeppelin/contracts/access/AccessControl.sol\":3018:3047  _roles[role].members[account] */\n      swap4\n      swap1\n      swap4\n      and\n      dup5\n      mstore\n      swap2\n      swap1\n      mstore\n      swap1\n      keccak256\n      sload\n      0xff\n      and\n      swap1\n        /* \"@openzeppelin/contracts/access/AccessControl.sol\":2909:3054  function hasRole(bytes32 role, address account) public view virtual override returns (bool) {... */\n      jump\t// out\n        /* \"@openzeppelin/contracts/token/ERC20/ERC20.sol\":2367:2469  function symbol() public view virtual override returns (string memory) {... */\n    tag_129:\n        /* \"@openzeppelin/contracts/token/ERC20/ERC20.sol\":2423:2436  string memory */\n      0x60\n        /* \"@openzeppelin/contracts/token/ERC20/ERC20.sol\":2455:2462  _symbol */\n      0x06\n        /* \"@openzeppelin/contracts/token/ERC20/ERC20.sol\":2448:2462  return _symbol */\n      dup1\n      sload\n      tag_175\n      swap1\n      tag_176\n      jump\t// in\n        /* \"contracts/HatTokenV2.sol\":2643:2748  function setLiquidityKeeper(address keeper) public onlyOwner {... */\n    tag_133:\n        /* \"@openzeppelin/contracts/access/Ownable.sol\":1108:1114  _owner */\n      sload(0x07)\n      sub(shl(0xa0, 0x01), 0x01)\n      0x0100\n      swap1\n      swap2\n      div\n      and\n        /* \"@openzeppelin/contracts/utils/Context.sol\":719:729  msg.sender */\n      caller\n        /* \"@openzeppelin/contracts/access/Ownable.sol\":1248:1271  owner() == _msgSender() */\n      eq\n        /* \"@openzeppelin/contracts/access/Ownable.sol\":1240:1308  require(owner() == _msgSender(), \"Ownable: caller is not the owner\") */\n      tag_276\n      jumpi\n      mload(0x40)\n      shl(0xe5, 0x461bcd)\n      dup2\n      mstore\n      0x04\n      add\n      tag_207\n      swap1\n      tag_208\n      jump\t// in\n    tag_276:\n        /* \"contracts/HatTokenV2.sol\":2715:2731  _liquidityKeeper */\n      0x09\n        /* \"contracts/HatTokenV2.sol\":2715:2740  _liquidityKeeper = keeper */\n      dup1\n      sload\n      not(sub(shl(0xa0, 0x01), 0x01))\n      and\n      sub(shl(0xa0, 0x01), 0x01)\n      swap3\n      swap1\n      swap3\n      and\n      swap2\n      swap1\n      swap2\n      or\n      swap1\n      sstore\n        /* \"contracts/HatTokenV2.sol\":2643:2748  function setLiquidityKeeper(address keeper) public onlyOwner {... */\n      jump\t// out\n        /* \"@openzeppelin/contracts/token/ERC20/ERC20.sol\":6596:7025  function decreaseAllowance(address spender, uint256 subtractedValue) public virtual returns (bool) {... */\n    tag_139:\n        /* \"@openzeppelin/contracts/utils/Context.sol\":719:729  msg.sender */\n      caller\n        /* \"@openzeppelin/contracts/token/ERC20/ERC20.sol\":6689:6693  bool */\n      0x00\n        /* \"@openzeppelin/contracts/token/ERC20/ERC20.sol\":6770:6788  _allowances[owner] */\n      dup2\n      dup2\n      mstore\n        /* \"@openzeppelin/contracts/token/ERC20/ERC20.sol\":6770:6781  _allowances */\n      0x03\n        /* \"@openzeppelin/contracts/token/ERC20/ERC20.sol\":6770:6788  _allowances[owner] */\n      0x20\n      swap1\n      dup2\n      mstore\n      0x40\n      dup1\n      dup4\n      keccak256\n      sub(shl(0xa0, 0x01), 0x01)\n        /* \"@openzeppelin/contracts/token/ERC20/ERC20.sol\":6770:6797  _allowances[owner][spender] */\n      dup8\n      and\n      dup5\n      mstore\n      swap1\n      swap2\n      mstore\n      dup2\n      keccak256\n      sload\n        /* \"@openzeppelin/contracts/token/ERC20/ERC20.sol\":6689:6693  bool */\n      swap1\n      swap2\n        /* \"@openzeppelin/contracts/utils/Context.sol\":719:729  msg.sender */\n      swap1\n        /* \"@openzeppelin/contracts/token/ERC20/ERC20.sol\":6815:6850  currentAllowance >= subtractedValue */\n      dup4\n      dup2\n      lt\n      iszero\n        /* \"@openzeppelin/contracts/token/ERC20/ERC20.sol\":6807:6892  require(currentAllowance >= subtractedValue, \"ERC20: decreased allowance below zero\") */\n      tag_281\n      jumpi\n      mload(0x40)\n      shl(0xe5, 0x461bcd)\n      dup2\n      mstore\n        /* \"#utility.yul\":6908:6910   */\n      0x20\n        /* \"@openzeppelin/contracts/token/ERC20/ERC20.sol\":6807:6892  require(currentAllowance >= subtractedValue, \"ERC20: decreased allowance below zero\") */\n      0x04\n      dup3\n      add\n        /* \"#utility.yul\":6890:6911   */\n      mstore\n        /* \"#utility.yul\":6947:6949   */\n      0x25\n        /* \"#utility.yul\":6927:6945   */\n      0x24\n      dup3\n      add\n        /* \"#utility.yul\":6920:6950   */\n      mstore\n        /* \"#utility.yul\":6986:7020   */\n      0x45524332303a2064656372656173656420616c6c6f77616e63652062656c6f77\n        /* \"#utility.yul\":6966:6984   */\n      0x44\n      dup3\n      add\n        /* \"#utility.yul\":6959:7021   */\n      mstore\n      shl(0xd8, 0x207a65726f)\n        /* \"#utility.yul\":7037:7055   */\n      0x64\n      dup3\n      add\n        /* \"#utility.yul\":7030:7065   */\n      mstore\n        /* \"#utility.yul\":7082:7101   */\n      0x84\n      add\n        /* \"@openzeppelin/contracts/token/ERC20/ERC20.sol\":6807:6892  require(currentAllowance >= subtractedValue, \"ERC20: decreased allowance below zero\") */\n      tag_207\n        /* \"#utility.yul\":6706:7107   */\n      jump\n        /* \"@openzeppelin/contracts/token/ERC20/ERC20.sol\":6807:6892  require(currentAllowance >= subtractedValue, \"ERC20: decreased allowance below zero\") */\n    tag_281:\n        /* \"@openzeppelin/contracts/token/ERC20/ERC20.sol\":6926:6986  _approve(owner, spender, currentAllowance - subtractedValue) */\n      tag_191\n        /* \"@openzeppelin/contracts/token/ERC20/ERC20.sol\":6935:6940  owner */\n      dup3\n        /* \"@openzeppelin/contracts/token/ERC20/ERC20.sol\":6942:6949  spender */\n      dup7\n        /* \"@openzeppelin/contracts/token/ERC20/ERC20.sol\":6970:6985  subtractedValue */\n      dup7\n        /* \"@openzeppelin/contracts/token/ERC20/ERC20.sol\":6951:6967  currentAllowance */\n      dup5\n        /* \"@openzeppelin/contracts/token/ERC20/ERC20.sol\":6951:6985  currentAllowance - subtractedValue */\n      sub\n        /* \"@openzeppelin/contracts/token/ERC20/ERC20.sol\":6926:6934  _approve */\n      tag_185\n        /* \"@openzeppelin/contracts/token/ERC20/ERC20.sol\":6926:6986  _approve(owner, spender, currentAllowance - subtractedValue) */\n      jump\t// in\n        /* \"@openzeppelin/contracts/token/ERC20/ERC20.sol\":3729:3918  function transfer(address to, uint256 amount) public virtual override returns (bool) {... */\n    tag_143:\n        /* \"@openzeppelin/contracts/token/ERC20/ERC20.sol\":3808:3812  bool */\n      0x00\n        /* \"@openzeppelin/contracts/utils/Context.sol\":719:729  msg.sender */\n      caller\n        /* \"@openzeppelin/contracts/token/ERC20/ERC20.sol\":3862:3890  _transfer(owner, to, amount) */\n      tag_184\n        /* \"@openzeppelin/contracts/utils/Context.sol\":719:729  msg.sender */\n      dup2\n        /* \"@openzeppelin/contracts/token/ERC20/ERC20.sol\":3879:3881  to */\n      dup6\n        /* \"@openzeppelin/contracts/token/ERC20/ERC20.sol\":3883:3889  amount */\n      dup6\n        /* \"@openzeppelin/contracts/token/ERC20/ERC20.sol\":3862:3871  _transfer */\n      tag_192\n        /* \"@openzeppelin/contracts/token/ERC20/ERC20.sol\":3862:3890  _transfer(owner, to, amount) */\n      jump\t// in\n        /* \"@openzeppelin/contracts/access/AccessControlEnumerable.sol\":1750:1890  function getRoleMemberCount(bytes32 role) public view virtual override returns (uint256) {... */\n    tag_147:\n        /* \"@openzeppelin/contracts/access/AccessControlEnumerable.sol\":1830:1837  uint256 */\n      0x00\n        /* \"@openzeppelin/contracts/access/AccessControlEnumerable.sol\":1856:1874  _roleMembers[role] */\n      dup2\n      dup2\n      mstore\n        /* \"@openzeppelin/contracts/access/AccessControlEnumerable.sol\":1856:1868  _roleMembers */\n      0x01\n        /* \"@openzeppelin/contracts/access/AccessControlEnumerable.sol\":1856:1874  _roleMembers[role] */\n      0x20\n      mstore\n      0x40\n      dup2\n      keccak256\n        /* \"@openzeppelin/contracts/access/AccessControlEnumerable.sol\":1856:1883  _roleMembers[role].length() */\n      tag_172\n      swap1\n        /* \"@openzeppelin/contracts/access/AccessControlEnumerable.sol\":1856:1881  _roleMembers[role].length */\n      tag_290\n        /* \"@openzeppelin/contracts/access/AccessControlEnumerable.sol\":1856:1883  _roleMembers[role].length() */\n      jump\t// in\n        /* \"@openzeppelin/contracts/access/AccessControl.sol\":4766:4913  function revokeRole(bytes32 role, address account) public virtual override onlyRole(getRoleAdmin(role)) {... */\n    tag_154:\n        /* \"@openzeppelin/contracts/access/AccessControl.sol\":4082:4089  bytes32 */\n      0x00\n        /* \"@openzeppelin/contracts/access/AccessControl.sol\":4108:4120  _roles[role] */\n      dup3\n      dup2\n      mstore\n      0x20\n      dup2\n      swap1\n      mstore\n      0x40\n      swap1\n      keccak256\n        /* \"@openzeppelin/contracts/access/AccessControl.sol\":4108:4130  _roles[role].adminRole */\n      0x01\n      add\n      sload\n        /* \"@openzeppelin/contracts/access/AccessControl.sol\":2505:2535  _checkRole(role, _msgSender()) */\n      tag_293\n        /* \"@openzeppelin/contracts/access/AccessControl.sol\":2516:2520  role */\n      dup2\n        /* \"@openzeppelin/contracts/utils/Context.sol\":719:729  msg.sender */\n      caller\n        /* \"@openzeppelin/contracts/access/AccessControl.sol\":2505:2515  _checkRole */\n      tag_198\n        /* \"@openzeppelin/contracts/access/AccessControl.sol\":2505:2535  _checkRole(role, _msgSender()) */\n      jump\t// in\n    tag_293:\n        /* \"@openzeppelin/contracts/access/AccessControl.sol\":4880:4906  _revokeRole(role, account) */\n      tag_200\n        /* \"@openzeppelin/contracts/access/AccessControl.sol\":4892:4896  role */\n      dup4\n        /* \"@openzeppelin/contracts/access/AccessControl.sol\":4898:4905  account */\n      dup4\n        /* \"@openzeppelin/contracts/access/AccessControl.sol\":4880:4891  _revokeRole */\n      tag_220\n        /* \"@openzeppelin/contracts/access/AccessControl.sol\":4880:4906  _revokeRole(role, account) */\n      jump\t// in\n        /* \"@openzeppelin/contracts/access/Ownable.sol\":1918:2116  function transferOwnership(address newOwner) public virtual onlyOwner {... */\n    tag_165:\n        /* \"@openzeppelin/contracts/access/Ownable.sol\":1108:1114  _owner */\n      sload(0x07)\n      sub(shl(0xa0, 0x01), 0x01)\n      0x0100\n      swap1\n      swap2\n      div\n      and\n        /* \"@openzeppelin/contracts/utils/Context.sol\":719:729  msg.sender */\n      caller\n        /* \"@openzeppelin/contracts/access/Ownable.sol\":1248:1271  owner() == _msgSender() */\n      eq\n        /* \"@openzeppelin/contracts/access/Ownable.sol\":1240:1308  require(owner() == _msgSender(), \"Ownable: caller is not the owner\") */\n      tag_301\n      jumpi\n      mload(0x40)\n      shl(0xe5, 0x461bcd)\n      dup2\n      mstore\n      0x04\n      add\n      tag_207\n      swap1\n      tag_208\n      jump\t// in\n    tag_301:\n      sub(shl(0xa0, 0x01), 0x01)\n        /* \"@openzeppelin/contracts/access/Ownable.sol\":2006:2028  newOwner != address(0) */\n      dup2\n      and\n        /* \"@openzeppelin/contracts/access/Ownable.sol\":1998:2071  require(newOwner != address(0), \"Ownable: new owner is the zero address\") */\n      tag_304\n      jumpi\n      mload(0x40)\n      shl(0xe5, 0x461bcd)\n      dup2\n      mstore\n        /* \"#utility.yul\":7314:7316   */\n      0x20\n        /* \"@openzeppelin/contracts/access/Ownable.sol\":1998:2071  require(newOwner != address(0), \"Ownable: new owner is the zero address\") */\n      0x04\n      dup3\n      add\n        /* \"#utility.yul\":7296:7317   */\n      mstore\n        /* \"#utility.yul\":7353:7355   */\n      0x26\n        /* \"#utility.yul\":7333:7351   */\n      0x24\n      dup3\n      add\n        /* \"#utility.yul\":7326:7356   */\n      mstore\n        /* \"#utility.yul\":7392:7426   */\n      0x4f776e61626c653a206e6577206f776e657220697320746865207a65726f2061\n        /* \"#utility.yul\":7372:7390   */\n      0x44\n      dup3\n      add\n        /* \"#utility.yul\":7365:7427   */\n      mstore\n      shl(0xd0, 0x646472657373)\n        /* \"#utility.yul\":7443:7461   */\n      0x64\n      dup3\n      add\n        /* \"#utility.yul\":7436:7472   */\n      mstore\n        /* \"#utility.yul\":7489:7508   */\n      0x84\n      add\n        /* \"@openzeppelin/contracts/access/Ownable.sol\":1998:2071  require(newOwner != address(0), \"Ownable: new owner is the zero address\") */\n      tag_207\n        /* \"#utility.yul\":7112:7514   */\n      jump\n        /* \"@openzeppelin/contracts/access/Ownable.sol\":1998:2071  require(newOwner != address(0), \"Ownable: new owner is the zero address\") */\n    tag_304:\n        /* \"@openzeppelin/contracts/access/Ownable.sol\":2081:2109  _transferOwnership(newOwner) */\n      tag_235\n        /* \"@openzeppelin/contracts/access/Ownable.sol\":2100:2108  newOwner */\n      dup2\n        /* \"@openzeppelin/contracts/access/Ownable.sol\":2081:2099  _transferOwnership */\n      tag_247\n        /* \"@openzeppelin/contracts/access/Ownable.sol\":2081:2109  _transferOwnership(newOwner) */\n      jump\t// in\n        /* \"@openzeppelin/contracts/access/AccessControl.sol\":6861:7094  function _grantRole(bytes32 role, address account) internal virtual {... */\n    tag_166:\n        /* \"@openzeppelin/contracts/access/AccessControl.sol\":6944:6966  hasRole(role, account) */\n      tag_309\n        /* \"@openzeppelin/contracts/access/AccessControl.sol\":6952:6956  role */\n      dup3\n        /* \"@openzeppelin/contracts/access/AccessControl.sol\":6958:6965  account */\n      dup3\n        /* \"@openzeppelin/contracts/access/AccessControl.sol\":6944:6951  hasRole */\n      tag_126\n        /* \"@openzeppelin/contracts/access/AccessControl.sol\":6944:6966  hasRole(role, account) */\n      jump\t// in\n    tag_309:\n        /* \"@openzeppelin/contracts/access/AccessControl.sol\":6939:7088  if (!hasRole(role, account)) {... */\n      tag_219\n      jumpi\n        /* \"@openzeppelin/contracts/access/AccessControl.sol\":6982:6988  _roles */\n      0x00\n        /* \"@openzeppelin/contracts/access/AccessControl.sol\":6982:6994  _roles[role] */\n      dup3\n      dup2\n      mstore\n      0x20\n      dup2\n      dup2\n      mstore\n      0x40\n      dup1\n      dup4\n      keccak256\n      sub(shl(0xa0, 0x01), 0x01)\n        /* \"@openzeppelin/contracts/access/AccessControl.sol\":6982:7011  _roles[role].members[account] */\n      dup6\n      and\n      dup5\n      mstore\n      swap1\n      swap2\n      mstore\n      swap1\n      keccak256\n        /* \"@openzeppelin/contracts/access/AccessControl.sol\":6982:7018  _roles[role].members[account] = true */\n      dup1\n      sload\n      not(0xff)\n      and\n        /* \"@openzeppelin/contracts/access/AccessControl.sol\":7014:7018  true */\n      0x01\n        /* \"@openzeppelin/contracts/access/AccessControl.sol\":6982:7018  _roles[role].members[account] = true */\n      or\n      swap1\n      sstore\n        /* \"@openzeppelin/contracts/access/AccessControl.sol\":7064:7076  _msgSender() */\n      tag_311\n        /* \"@openzeppelin/contracts/utils/Context.sol\":719:729  msg.sender */\n      caller\n      swap1\n        /* \"@openzeppelin/contracts/utils/Context.sol\":640:736  function _msgSender() internal view virtual returns (address) {... */\n      jump\n        /* \"@openzeppelin/contracts/access/AccessControl.sol\":7064:7076  _msgSender() */\n    tag_311:\n      sub(shl(0xa0, 0x01), 0x01)\n        /* \"@openzeppelin/contracts/access/AccessControl.sol\":7037:7077  RoleGranted(role, account, _msgSender()) */\n      and\n        /* \"@openzeppelin/contracts/access/AccessControl.sol\":7055:7062  account */\n      dup2\n      sub(shl(0xa0, 0x01), 0x01)\n        /* \"@openzeppelin/contracts/access/AccessControl.sol\":7037:7077  RoleGranted(role, account, _msgSender()) */\n      and\n        /* \"@openzeppelin/contracts/access/AccessControl.sol\":7049:7053  role */\n      dup4\n        /* \"@openzeppelin/contracts/access/AccessControl.sol\":7037:7077  RoleGranted(role, account, _msgSender()) */\n      0x2f8788117e7eff1d82e926ec794901d17c78024a50270940304540a733656f0d\n      mload(0x40)\n      mload(0x40)\n      dup1\n      swap2\n      sub\n      swap1\n      log4\n        /* \"@openzeppelin/contracts/access/AccessControl.sol\":6861:7094  function _grantRole(bytes32 role, address account) internal virtual {... */\n      pop\n      pop\n      jump\t// out\n        /* \"@openzeppelin/contracts/utils/structs/EnumerableSet.sol\":7612:7762  function add(AddressSet storage set, address value) internal returns (bool) {... */\n    tag_167:\n        /* \"@openzeppelin/contracts/utils/structs/EnumerableSet.sol\":7682:7686  bool */\n      0x00\n        /* \"@openzeppelin/contracts/utils/structs/EnumerableSet.sol\":7705:7755  _add(set._inner, bytes32(uint256(uint160(value)))) */\n      tag_264\n        /* \"@openzeppelin/contracts/utils/structs/EnumerableSet.sol\":7710:7713  set */\n      dup4\n      sub(shl(0xa0, 0x01), 0x01)\n        /* \"@openzeppelin/contracts/utils/structs/EnumerableSet.sol\":7730:7753  uint256(uint160(value)) */\n      dup5\n      and\n        /* \"@openzeppelin/contracts/utils/structs/EnumerableSet.sol\":7705:7709  _add */\n      tag_314\n        /* \"@openzeppelin/contracts/utils/structs/EnumerableSet.sol\":7705:7755  _add(set._inner, bytes32(uint256(uint160(value)))) */\n      jump\t// in\n        /* \"@openzeppelin/contracts/token/ERC20/extensions/ERC20Pausable.sol\":665:929  function _beforeTokenTransfer(... */\n    tag_168:\n        /* \"@openzeppelin/contracts/security/Pausable.sol\":1168:1175  _paused */\n      and(0xff, sload(0x07))\n        /* \"@openzeppelin/contracts/token/ERC20/extensions/ERC20Pausable.sol\":866:875  !paused() */\n      iszero\n        /* \"@openzeppelin/contracts/token/ERC20/extensions/ERC20Pausable.sol\":858:922  require(!paused(), \"ERC20Pausable: token transfer while paused\") */\n      tag_200\n      jumpi\n      mload(0x40)\n      shl(0xe5, 0x461bcd)\n      dup2\n      mstore\n        /* \"#utility.yul\":7721:7723   */\n      0x20\n        /* \"@openzeppelin/contracts/token/ERC20/extensions/ERC20Pausable.sol\":858:922  require(!paused(), \"ERC20Pausable: token transfer while paused\") */\n      0x04\n      dup3\n      add\n        /* \"#utility.yul\":7703:7724   */\n      mstore\n        /* \"#utility.yul\":7760:7762   */\n      0x2a\n        /* \"#utility.yul\":7740:7758   */\n      0x24\n      dup3\n      add\n        /* \"#utility.yul\":7733:7763   */\n      mstore\n        /* \"#utility.yul\":7799:7833   */\n      0x45524332305061757361626c653a20746f6b656e207472616e73666572207768\n        /* \"#utility.yul\":7779:7797   */\n      0x44\n      dup3\n      add\n        /* \"#utility.yul\":7772:7834   */\n      mstore\n      shl(0xb2, 0x1a5b19481c185d5cd959)\n        /* \"#utility.yul\":7850:7868   */\n      0x64\n      dup3\n      add\n        /* \"#utility.yul\":7843:7883   */\n      mstore\n        /* \"#utility.yul\":7900:7919   */\n      0x84\n      add\n        /* \"@openzeppelin/contracts/token/ERC20/extensions/ERC20Pausable.sol\":858:922  require(!paused(), \"ERC20Pausable: token transfer while paused\") */\n      tag_207\n        /* \"#utility.yul\":7519:7925   */\n      jump\n        /* \"@openzeppelin/contracts/access/AccessControl.sol\":2620:2822  function supportsInterface(bytes4 interfaceId) public view virtual override returns (bool) {... */\n    tag_173:\n        /* \"@openzeppelin/contracts/access/AccessControl.sol\":2705:2709  bool */\n      0x00\n      not(sub(shl(0xe0, 0x01), 0x01))\n        /* \"@openzeppelin/contracts/access/AccessControl.sol\":2728:2775  interfaceId == type(IAccessControl).interfaceId */\n      dup3\n      and\n      shl(0xe0, 0x7965db0b)\n      eq\n      dup1\n        /* \"@openzeppelin/contracts/access/AccessControl.sol\":2728:2815  interfaceId == type(IAccessControl).interfaceId || super.supportsInterface(interfaceId) */\n      tag_172\n      jumpi\n      pop\n      shl(0xe0, 0x01ffc9a7)\n      not(sub(shl(0xe0, 0x01), 0x01))\n        /* \"@openzeppelin/contracts/utils/introspection/ERC165.sol\":937:977  interfaceId == type(IERC165).interfaceId */\n      dup4\n      and\n      eq\n        /* \"@openzeppelin/contracts/access/AccessControl.sol\":2779:2815  super.supportsInterface(interfaceId) */\n      tag_172\n        /* \"@openzeppelin/contracts/utils/introspection/ERC165.sol\":829:984  function supportsInterface(bytes4 interfaceId) public view virtual override returns (bool) {... */\n      jump\n        /* \"@openzeppelin/contracts/token/ERC20/ERC20.sol\":10123:10493  function _approve(... */\n    tag_185:\n      sub(shl(0xa0, 0x01), 0x01)\n        /* \"@openzeppelin/contracts/token/ERC20/ERC20.sol\":10254:10273  owner != address(0) */\n      dup4\n      and\n        /* \"@openzeppelin/contracts/token/ERC20/ERC20.sol\":10246:10314  require(owner != address(0), \"ERC20: approve from the zero address\") */\n      tag_328\n      jumpi\n      mload(0x40)\n      shl(0xe5, 0x461bcd)\n      dup2\n      mstore\n        /* \"#utility.yul\":8132:8134   */\n      0x20\n        /* \"@openzeppelin/contracts/token/ERC20/ERC20.sol\":10246:10314  require(owner != address(0), \"ERC20: approve from the zero address\") */\n      0x04\n      dup3\n      add\n        /* \"#utility.yul\":8114:8135   */\n      mstore\n        /* \"#utility.yul\":8171:8173   */\n      0x24\n        /* \"#utility.yul\":8151:8169   */\n      dup1\n      dup3\n      add\n        /* \"#utility.yul\":8144:8174   */\n      mstore\n        /* \"#utility.yul\":8210:8244   */\n      0x45524332303a20617070726f76652066726f6d20746865207a65726f20616464\n        /* \"#utility.yul\":8190:8208   */\n      0x44\n      dup3\n      add\n        /* \"#utility.yul\":8183:8245   */\n      mstore\n      shl(0xe0, 0x72657373)\n        /* \"#utility.yul\":8261:8279   */\n      0x64\n      dup3\n      add\n        /* \"#utility.yul\":8254:8288   */\n      mstore\n        /* \"#utility.yul\":8305:8324   */\n      0x84\n      add\n        /* \"@openzeppelin/contracts/token/ERC20/ERC20.sol\":10246:10314  require(owner != address(0), \"ERC20: approve from the zero address\") */\n      tag_207\n        /* \"#utility.yul\":7930:8330   */\n      jump\n        /* \"@openzeppelin/contracts/token/ERC20/ERC20.sol\":10246:10314  require(owner != address(0), \"ERC20: approve from the zero address\") */\n    tag_328:\n      sub(shl(0xa0, 0x01), 0x01)\n        /* \"@openzeppelin/contracts/token/ERC20/ERC20.sol\":10332:10353  spender != address(0) */\n      dup3\n      and\n        /* \"@openzeppelin/contracts/token/ERC20/ERC20.sol\":10324:10392  require(spender != address(0), \"ERC20: approve to the zero address\") */\n      tag_331\n      jumpi\n      mload(0x40)\n      shl(0xe5, 0x461bcd)\n      dup2\n      mstore\n        /* \"#utility.yul\":8537:8539   */\n      0x20\n        /* \"@openzeppelin/contracts/token/ERC20/ERC20.sol\":10324:10392  require(spender != address(0), \"ERC20: approve to the zero address\") */\n      0x04\n      dup3\n      add\n        /* \"#utility.yul\":8519:8540   */\n      mstore\n        /* \"#utility.yul\":8576:8578   */\n      0x22\n        /* \"#utility.yul\":8556:8574   */\n      0x24\n      dup3\n      add\n        /* \"#utility.yul\":8549:8579   */\n      mstore\n        /* \"#utility.yul\":8615:8649   */\n      0x45524332303a20617070726f766520746f20746865207a65726f206164647265\n        /* \"#utility.yul\":8595:8613   */\n      0x44\n      dup3\n      add\n        /* \"#utility.yul\":8588:8650   */\n      mstore\n      shl(0xf0, 0x7373)\n        /* \"#utility.yul\":8666:8684   */\n      0x64\n      dup3\n      add\n        /* \"#utility.yul\":8659:8691   */\n      mstore\n        /* \"#utility.yul\":8708:8727   */\n      0x84\n      add\n        /* \"@openzeppelin/contracts/token/ERC20/ERC20.sol\":10324:10392  require(spender != address(0), \"ERC20: approve to the zero address\") */\n      tag_207\n        /* \"#utility.yul\":8335:8733   */\n      jump\n        /* \"@openzeppelin/contracts/token/ERC20/ERC20.sol\":10324:10392  require(spender != address(0), \"ERC20: approve to the zero address\") */\n    tag_331:\n      sub(shl(0xa0, 0x01), 0x01)\n        /* \"@openzeppelin/contracts/token/ERC20/ERC20.sol\":10403:10421  _allowances[owner] */\n      dup4\n      dup2\n      and\n      0x00\n      dup2\n      dup2\n      mstore\n        /* \"@openzeppelin/contracts/token/ERC20/ERC20.sol\":10403:10414  _allowances */\n      0x03\n        /* \"@openzeppelin/contracts/token/ERC20/ERC20.sol\":10403:10421  _allowances[owner] */\n      0x20\n      swap1\n      dup2\n      mstore\n      0x40\n      dup1\n      dup4\n      keccak256\n        /* \"@openzeppelin/contracts/token/ERC20/ERC20.sol\":10403:10430  _allowances[owner][spender] */\n      swap5\n      dup8\n      and\n      dup1\n      dup5\n      mstore\n      swap5\n      dup3\n      mstore\n      swap2\n      dup3\n      swap1\n      keccak256\n        /* \"@openzeppelin/contracts/token/ERC20/ERC20.sol\":10403:10439  _allowances[owner][spender] = amount */\n      dup6\n      swap1\n      sstore\n        /* \"@openzeppelin/contracts/token/ERC20/ERC20.sol\":10454:10486  Approval(owner, spender, amount) */\n      swap1\n      mload\n        /* \"#utility.yul\":1731:1756   */\n      dup5\n      dup2\n      mstore\n        /* \"@openzeppelin/contracts/token/ERC20/ERC20.sol\":10454:10486  Approval(owner, spender, amount) */\n      0x8c5be1e5ebec7d5bd14f71427d1e84f3dd0314c0f7b2291e5b200ac8c7c3b925\n      swap2\n        /* \"#utility.yul\":1704:1722   */\n      add\n        /* \"@openzeppelin/contracts/token/ERC20/ERC20.sol\":10454:10486  Approval(owner, spender, amount) */\n      mload(0x40)\n      dup1\n      swap2\n      sub\n      swap1\n      log3\n        /* \"@openzeppelin/contracts/token/ERC20/ERC20.sol\":10123:10493  function _approve(... */\n      pop\n      pop\n      pop\n      jump\t// out\n        /* \"@openzeppelin/contracts/token/ERC20/ERC20.sol\":10770:11211  function _spendAllowance(... */\n    tag_190:\n      sub(shl(0xa0, 0x01), 0x01)\n        /* \"@openzeppelin/contracts/token/ERC20/ERC20.sol\":4091:4109  _allowances[owner] */\n      dup4\n      dup2\n      and\n        /* \"@openzeppelin/contracts/token/ERC20/ERC20.sol\":10900:10924  uint256 currentAllowance */\n      0x00\n        /* \"@openzeppelin/contracts/token/ERC20/ERC20.sol\":4091:4109  _allowances[owner] */\n      swap1\n      dup2\n      mstore\n        /* \"@openzeppelin/contracts/token/ERC20/ERC20.sol\":4091:4102  _allowances */\n      0x03\n        /* \"@openzeppelin/contracts/token/ERC20/ERC20.sol\":4091:4109  _allowances[owner] */\n      0x20\n      swap1\n      dup2\n      mstore\n      0x40\n      dup1\n      dup4\n      keccak256\n        /* \"@openzeppelin/contracts/token/ERC20/ERC20.sol\":4091:4118  _allowances[owner][spender] */\n      swap4\n      dup7\n      and\n      dup4\n      mstore\n      swap3\n      swap1\n      mstore\n      keccak256\n      sload\n      not(0x00)\n        /* \"@openzeppelin/contracts/token/ERC20/ERC20.sol\":10966:11003  currentAllowance != type(uint256).max */\n      dup2\n      eq\n        /* \"@openzeppelin/contracts/token/ERC20/ERC20.sol\":10962:11205  if (currentAllowance != type(uint256).max) {... */\n      tag_341\n      jumpi\n        /* \"@openzeppelin/contracts/token/ERC20/ERC20.sol\":11047:11053  amount */\n      dup2\n        /* \"@openzeppelin/contracts/token/ERC20/ERC20.sol\":11027:11043  currentAllowance */\n      dup2\n        /* \"@openzeppelin/contracts/token/ERC20/ERC20.sol\":11027:11053  currentAllowance >= amount */\n      lt\n      iszero\n        /* \"@openzeppelin/contracts/token/ERC20/ERC20.sol\":11019:11087  require(currentAllowance >= amount, \"ERC20: insufficient allowance\") */\n      tag_338\n      jumpi\n      mload(0x40)\n      shl(0xe5, 0x461bcd)\n      dup2\n      mstore\n        /* \"#utility.yul\":8940:8942   */\n      0x20\n        /* \"@openzeppelin/contracts/token/ERC20/ERC20.sol\":11019:11087  require(currentAllowance >= amount, \"ERC20: insufficient allowance\") */\n      0x04\n      dup3\n      add\n        /* \"#utility.yul\":8922:8943   */\n      mstore\n        /* \"#utility.yul\":8979:8981   */\n      0x1d\n        /* \"#utility.yul\":8959:8977   */\n      0x24\n      dup3\n      add\n        /* \"#utility.yul\":8952:8982   */\n      mstore\n        /* \"#utility.yul\":9018:9049   */\n      0x45524332303a20696e73756666696369656e7420616c6c6f77616e6365000000\n        /* \"#utility.yul\":8998:9016   */\n      0x44\n      dup3\n      add\n        /* \"#utility.yul\":8991:9050   */\n      mstore\n        /* \"#utility.yul\":9067:9085   */\n      0x64\n      add\n        /* \"@openzeppelin/contracts/token/ERC20/ERC20.sol\":11019:11087  require(currentAllowance >= amount, \"ERC20: insufficient allowance\") */\n      tag_207\n        /* \"#utility.yul\":8738:9091   */\n      jump\n        /* \"@openzeppelin/contracts/token/ERC20/ERC20.sol\":11019:11087  require(currentAllowance >= amount, \"ERC20: insufficient allowance\") */\n    tag_338:\n        /* \"@openzeppelin/contracts/token/ERC20/ERC20.sol\":11129:11180  _approve(owner, spender, currentAllowance - amount) */\n      tag_341\n        /* \"@openzeppelin/contracts/token/ERC20/ERC20.sol\":11138:11143  owner */\n      dup5\n        /* \"@openzeppelin/contracts/token/ERC20/ERC20.sol\":11145:11152  spender */\n      dup5\n        /* \"@openzeppelin/contracts/token/ERC20/ERC20.sol\":11173:11179  amount */\n      dup5\n        /* \"@openzeppelin/contracts/token/ERC20/ERC20.sol\":11154:11170  currentAllowance */\n      dup5\n        /* \"@openzeppelin/contracts/token/ERC20/ERC20.sol\":11154:11179  currentAllowance - amount */\n      sub\n        /* \"@openzeppelin/contracts/token/ERC20/ERC20.sol\":11129:11137  _approve */\n      tag_185\n        /* \"@openzeppelin/contracts/token/ERC20/ERC20.sol\":11129:11180  _approve(owner, spender, currentAllowance - amount) */\n      jump\t// in\n    tag_341:\n        /* \"@openzeppelin/contracts/token/ERC20/ERC20.sol\":10890:11211  {... */\n      pop\n        /* \"@openzeppelin/contracts/token/ERC20/ERC20.sol\":10770:11211  function _spendAllowance(... */\n      pop\n      pop\n      pop\n      jump\t// out\n        /* \"contracts/HatTokenV2.sol\":3227:3532  function _transfer(... */\n    tag_192:\n        /* \"contracts/HatTokenV2.sol\":3351:3362  uint256 fee */\n      0x00\n        /* \"contracts/HatTokenV2.sol\":3365:3399  amount.mul(_liquidityFee).div(100) */\n      tag_343\n        /* \"contracts/HatTokenV2.sol\":3395:3398  100 */\n      0x64\n        /* \"contracts/HatTokenV2.sol\":3365:3390  amount.mul(_liquidityFee) */\n      tag_344\n        /* \"contracts/HatTokenV2.sol\":3376:3389  _liquidityFee */\n      sload(0x08)\n        /* \"contracts/HatTokenV2.sol\":3365:3371  amount */\n      dup6\n        /* \"contracts/HatTokenV2.sol\":3365:3375  amount.mul */\n      tag_345\n      swap1\n        /* \"contracts/HatTokenV2.sol\":3365:3390  amount.mul(_liquidityFee) */\n      swap2\n      swap1\n      0xffffffff\n      and\n      jump\t// in\n    tag_344:\n        /* \"contracts/HatTokenV2.sol\":3365:3394  amount.mul(_liquidityFee).div */\n      swap1\n      tag_346\n        /* \"contracts/HatTokenV2.sol\":3365:3399  amount.mul(_liquidityFee).div(100) */\n      jump\t// in\n    tag_343:\n        /* \"contracts/HatTokenV2.sol\":3351:3399  uint256 fee = amount.mul(_liquidityFee).div(100) */\n      swap1\n      pop\n        /* \"contracts/HatTokenV2.sol\":3410:3423  amount -= fee */\n      tag_347\n        /* \"contracts/HatTokenV2.sol\":3351:3399  uint256 fee = amount.mul(_liquidityFee).div(100) */\n      dup2\n        /* \"contracts/HatTokenV2.sol\":3410:3423  amount -= fee */\n      dup4\n      tag_348\n      jump\t// in\n    tag_347:\n      swap2\n      pop\n        /* \"contracts/HatTokenV2.sol\":3436:3469  super._transfer(from, to, amount) */\n      tag_349\n        /* \"contracts/HatTokenV2.sol\":3452:3456  from */\n      dup5\n        /* \"contracts/HatTokenV2.sol\":3458:3460  to */\n      dup5\n        /* \"contracts/HatTokenV2.sol\":3462:3468  amount */\n      dup5\n        /* \"contracts/HatTokenV2.sol\":3436:3451  super._transfer */\n      tag_350\n        /* \"contracts/HatTokenV2.sol\":3436:3469  super._transfer(from, to, amount) */\n      jump\t// in\n    tag_349:\n        /* \"contracts/HatTokenV2.sol\":3502:3518  _liquidityKeeper */\n      sload(0x09)\n        /* \"contracts/HatTokenV2.sol\":3480:3524  super._transfer(from, _liquidityKeeper, fee) */\n      tag_341\n      swap1\n        /* \"contracts/HatTokenV2.sol\":3496:3500  from */\n      dup6\n      swap1\n      sub(shl(0xa0, 0x01), 0x01)\n        /* \"contracts/HatTokenV2.sol\":3502:3518  _liquidityKeeper */\n      and\n        /* \"contracts/HatTokenV2.sol\":3520:3523  fee */\n      dup4\n        /* \"contracts/HatTokenV2.sol\":3480:3495  super._transfer */\n      tag_350\n        /* \"contracts/HatTokenV2.sol\":3480:3524  super._transfer(from, _liquidityKeeper, fee) */\n      jump\t// in\n        /* \"@openzeppelin/contracts/access/AccessControl.sol\":3335:3827  function _checkRole(bytes32 role, address account) internal view virtual {... */\n    tag_198:\n        /* \"@openzeppelin/contracts/access/AccessControl.sol\":3423:3445  hasRole(role, account) */\n      tag_353\n        /* \"@openzeppelin/contracts/access/AccessControl.sol\":3431:3435  role */\n      dup3\n        /* \"@openzeppelin/contracts/access/AccessControl.sol\":3437:3444  account */\n      dup3\n        /* \"@openzeppelin/contracts/access/AccessControl.sol\":3423:3430  hasRole */\n      tag_126\n        /* \"@openzeppelin/contracts/access/AccessControl.sol\":3423:3445  hasRole(role, account) */\n      jump\t// in\n    tag_353:\n        /* \"@openzeppelin/contracts/access/AccessControl.sol\":3418:3821  if (!hasRole(role, account)) {... */\n      tag_219\n      jumpi\n        /* \"@openzeppelin/contracts/access/AccessControl.sol\":3606:3647  Strings.toHexString(uint160(account), 20) */\n      tag_355\n        /* \"@openzeppelin/contracts/access/AccessControl.sol\":3634:3641  account */\n      dup2\n      sub(shl(0xa0, 0x01), 0x01)\n        /* \"@openzeppelin/contracts/access/AccessControl.sol\":3606:3647  Strings.toHexString(uint160(account), 20) */\n      and\n        /* \"@openzeppelin/contracts/access/AccessControl.sol\":3644:3646  20 */\n      0x14\n        /* \"@openzeppelin/contracts/access/AccessControl.sol\":3606:3625  Strings.toHexString */\n      tag_356\n        /* \"@openzeppelin/contracts/access/AccessControl.sol\":3606:3647  Strings.toHexString(uint160(account), 20) */\n      jump\t// in\n    tag_355:\n        /* \"@openzeppelin/contracts/access/AccessControl.sol\":3718:3756  Strings.toHexString(uint256(role), 32) */\n      tag_357\n        /* \"@openzeppelin/contracts/access/AccessControl.sol\":3746:3750  role */\n      dup4\n        /* \"@openzeppelin/contracts/access/AccessControl.sol\":3753:3755  32 */\n      0x20\n        /* \"@openzeppelin/contracts/access/AccessControl.sol\":3718:3737  Strings.toHexString */\n      tag_356\n        /* \"@openzeppelin/contracts/access/AccessControl.sol\":3718:3756  Strings.toHexString(uint256(role), 32) */\n      jump\t// in\n    tag_357:\n        /* \"@openzeppelin/contracts/access/AccessControl.sol\":3513:3778  abi.encodePacked(... */\n      add(0x20, mload(0x40))\n      tag_358\n      swap3\n      swap2\n      swap1\n      tag_359\n      jump\t// in\n    tag_358:\n      0x40\n      dup1\n      mload\n      not(0x1f)\n      dup2\n      dup5\n      sub\n      add\n      dup2\n      mstore\n      swap1\n      dup3\n      swap1\n      mstore\n      shl(0xe5, 0x461bcd)\n        /* \"@openzeppelin/contracts/access/AccessControl.sol\":3461:3810  revert(... */\n      dup3\n      mstore\n      tag_207\n      swap2\n      0x04\n      add\n      tag_52\n      jump\t// in\n        /* \"@openzeppelin/contracts/access/AccessControlEnumerable.sol\":1978:2144  function _grantRole(bytes32 role, address account) internal virtual override {... */\n    tag_201:\n        /* \"@openzeppelin/contracts/access/AccessControlEnumerable.sol\":2065:2096  super._grantRole(role, account) */\n      tag_362\n        /* \"@openzeppelin/contracts/access/AccessControlEnumerable.sol\":2082:2086  role */\n      dup3\n        /* \"@openzeppelin/contracts/access/AccessControlEnumerable.sol\":2088:2095  account */\n      dup3\n        /* \"@openzeppelin/contracts/access/AccessControlEnumerable.sol\":2065:2081  super._grantRole */\n      tag_166\n        /* \"@openzeppelin/contracts/access/AccessControlEnumerable.sol\":2065:2096  super._grantRole(role, account) */\n      jump\t// in\n    tag_362:\n        /* \"@openzeppelin/contracts/access/AccessControlEnumerable.sol\":2106:2124  _roleMembers[role] */\n      0x00\n      dup3\n      dup2\n      mstore\n        /* \"@openzeppelin/contracts/access/AccessControlEnumerable.sol\":2106:2118  _roleMembers */\n      0x01\n        /* \"@openzeppelin/contracts/access/AccessControlEnumerable.sol\":2106:2124  _roleMembers[role] */\n      0x20\n      mstore\n      0x40\n      swap1\n      keccak256\n        /* \"@openzeppelin/contracts/access/AccessControlEnumerable.sol\":2106:2137  _roleMembers[role].add(account) */\n      tag_200\n      swap1\n        /* \"@openzeppelin/contracts/access/AccessControlEnumerable.sol\":2129:2136  account */\n      dup3\n        /* \"@openzeppelin/contracts/access/AccessControlEnumerable.sol\":2106:2128  _roleMembers[role].add */\n      tag_167\n        /* \"@openzeppelin/contracts/access/AccessControlEnumerable.sol\":2106:2137  _roleMembers[role].add(account) */\n      jump\t// in\n        /* \"@openzeppelin/contracts/access/AccessControlEnumerable.sol\":2233:2404  function _revokeRole(bytes32 role, address account) internal virtual override {... */\n    tag_220:\n        /* \"@openzeppelin/contracts/access/AccessControlEnumerable.sol\":2321:2353  super._revokeRole(role, account) */\n      tag_365\n        /* \"@openzeppelin/contracts/access/AccessControlEnumerable.sol\":2339:2343  role */\n      dup3\n        /* \"@openzeppelin/contracts/access/AccessControlEnumerable.sol\":2345:2352  account */\n      dup3\n        /* \"@openzeppelin/contracts/access/AccessControlEnumerable.sol\":2321:2338  super._revokeRole */\n      tag_366\n        /* \"@openzeppelin/contracts/access/AccessControlEnumerable.sol\":2321:2353  super._revokeRole(role, account) */\n      jump\t// in\n    tag_365:\n        /* \"@openzeppelin/contracts/access/AccessControlEnumerable.sol\":2363:2381  _roleMembers[role] */\n      0x00\n      dup3\n      dup2\n      mstore\n        /* \"@openzeppelin/contracts/access/AccessControlEnumerable.sol\":2363:2375  _roleMembers */\n      0x01\n        /* \"@openzeppelin/contracts/access/AccessControlEnumerable.sol\":2363:2381  _roleMembers[role] */\n      0x20\n      mstore\n      0x40\n      swap1\n      keccak256\n        /* \"@openzeppelin/contracts/access/AccessControlEnumerable.sol\":2363:2397  _roleMembers[role].remove(account) */\n      tag_200\n      swap1\n        /* \"@openzeppelin/contracts/access/AccessControlEnumerable.sol\":2389:2396  account */\n      dup3\n        /* \"@openzeppelin/contracts/access/AccessControlEnumerable.sol\":2363:2388  _roleMembers[role].remove */\n      tag_368\n        /* \"@openzeppelin/contracts/access/AccessControlEnumerable.sol\":2363:2397  _roleMembers[role].remove(account) */\n      jump\t// in\n        /* \"@openzeppelin/contracts/security/Pausable.sol\":2110:2227  function _unpause() internal virtual whenPaused {... */\n    tag_233:\n        /* \"@openzeppelin/contracts/security/Pausable.sol\":1168:1175  _paused */\n      and(0xff, sload(0x07))\n        /* \"@openzeppelin/contracts/security/Pausable.sol\":1669:1710  require(paused(), \"Pausable: not paused\") */\n      tag_371\n      jumpi\n      mload(0x40)\n      shl(0xe5, 0x461bcd)\n      dup2\n      mstore\n        /* \"#utility.yul\":10219:10221   */\n      0x20\n        /* \"@openzeppelin/contracts/security/Pausable.sol\":1669:1710  require(paused(), \"Pausable: not paused\") */\n      0x04\n      dup3\n      add\n        /* \"#utility.yul\":10201:10222   */\n      mstore\n        /* \"#utility.yul\":10258:10260   */\n      0x14\n        /* \"#utility.yul\":10238:10256   */\n      0x24\n      dup3\n      add\n        /* \"#utility.yul\":10231:10261   */\n      mstore\n      shl(0x62, 0x14185d5cd8589b194e881b9bdd081c185d5cd959)\n        /* \"#utility.yul\":10277:10295   */\n      0x44\n      dup3\n      add\n        /* \"#utility.yul\":10270:10320   */\n      mstore\n        /* \"#utility.yul\":10337:10355   */\n      0x64\n      add\n        /* \"@openzeppelin/contracts/security/Pausable.sol\":1669:1710  require(paused(), \"Pausable: not paused\") */\n      tag_207\n        /* \"#utility.yul\":10017:10361   */\n      jump\n        /* \"@openzeppelin/contracts/security/Pausable.sol\":1669:1710  require(paused(), \"Pausable: not paused\") */\n    tag_371:\n        /* \"@openzeppelin/contracts/security/Pausable.sol\":2168:2175  _paused */\n      0x07\n        /* \"@openzeppelin/contracts/security/Pausable.sol\":2168:2183  _paused = false */\n      dup1\n      sload\n      not(0xff)\n      and\n      swap1\n      sstore\n        /* \"@openzeppelin/contracts/security/Pausable.sol\":2198:2220  Unpaused(_msgSender()) */\n      0x5db9ee0a495bf2e6ff9c91a7834c1ba4fdd244a5e8aa4e537bd38aeae4b073aa\n        /* \"@openzeppelin/contracts/utils/Context.sol\":719:729  msg.sender */\n      caller\n        /* \"@openzeppelin/contracts/security/Pausable.sol\":2207:2219  _msgSender() */\n    tag_375:\n        /* \"@openzeppelin/contracts/security/Pausable.sol\":2198:2220  Unpaused(_msgSender()) */\n      mload(0x40)\n      sub(shl(0xa0, 0x01), 0x01)\n        /* \"#utility.yul\":3455:3487   */\n      swap1\n      swap2\n      and\n        /* \"#utility.yul\":3437:3488   */\n      dup2\n      mstore\n        /* \"#utility.yul\":3425:3427   */\n      0x20\n        /* \"#utility.yul\":3410:3428   */\n      add\n        /* \"@openzeppelin/contracts/security/Pausable.sol\":2198:2220  Unpaused(_msgSender()) */\n      mload(0x40)\n      dup1\n      swap2\n      sub\n      swap1\n      log1\n        /* \"@openzeppelin/contracts/security/Pausable.sol\":2110:2227  function _unpause() internal virtual whenPaused {... */\n      jump\t// out\n        /* \"@openzeppelin/contracts/token/ERC20/ERC20.sol\":9124:9700  function _burn(address account, uint256 amount) internal virtual {... */\n    tag_237:\n      sub(shl(0xa0, 0x01), 0x01)\n        /* \"@openzeppelin/contracts/token/ERC20/ERC20.sol\":9207:9228  account != address(0) */\n      dup3\n      and\n        /* \"@openzeppelin/contracts/token/ERC20/ERC20.sol\":9199:9266  require(account != address(0), \"ERC20: burn from the zero address\") */\n      tag_378\n      jumpi\n      mload(0x40)\n      shl(0xe5, 0x461bcd)\n      dup2\n      mstore\n        /* \"#utility.yul\":10568:10570   */\n      0x20\n        /* \"@openzeppelin/contracts/token/ERC20/ERC20.sol\":9199:9266  require(account != address(0), \"ERC20: burn from the zero address\") */\n      0x04\n      dup3\n      add\n        /* \"#utility.yul\":10550:10571   */\n      mstore\n        /* \"#utility.yul\":10607:10609   */\n      0x21\n        /* \"#utility.yul\":10587:10605   */\n      0x24\n      dup3\n      add\n        /* \"#utility.yul\":10580:10610   */\n      mstore\n        /* \"#utility.yul\":10646:10680   */\n      0x45524332303a206275726e2066726f6d20746865207a65726f20616464726573\n        /* \"#utility.yul\":10626:10644   */\n      0x44\n      dup3\n      add\n        /* \"#utility.yul\":10619:10681   */\n      mstore\n      shl(0xf8, 0x73)\n        /* \"#utility.yul\":10697:10715   */\n      0x64\n      dup3\n      add\n        /* \"#utility.yul\":10690:10721   */\n      mstore\n        /* \"#utility.yul\":10738:10757   */\n      0x84\n      add\n        /* \"@openzeppelin/contracts/token/ERC20/ERC20.sol\":9199:9266  require(account != address(0), \"ERC20: burn from the zero address\") */\n      tag_207\n        /* \"#utility.yul\":10366:10763   */\n      jump\n        /* \"@openzeppelin/contracts/token/ERC20/ERC20.sol\":9199:9266  require(account != address(0), \"ERC20: burn from the zero address\") */\n    tag_378:\n        /* \"@openzeppelin/contracts/token/ERC20/ERC20.sol\":9277:9326  _beforeTokenTransfer(account, address(0), amount) */\n      tag_381\n        /* \"@openzeppelin/contracts/token/ERC20/ERC20.sol\":9298:9305  account */\n      dup3\n        /* \"@openzeppelin/contracts/token/ERC20/ERC20.sol\":9315:9316  0 */\n      0x00\n        /* \"@openzeppelin/contracts/token/ERC20/ERC20.sol\":9319:9325  amount */\n      dup4\n        /* \"@openzeppelin/contracts/token/ERC20/ERC20.sol\":9277:9297  _beforeTokenTransfer */\n      tag_382\n        /* \"@openzeppelin/contracts/token/ERC20/ERC20.sol\":9277:9326  _beforeTokenTransfer(account, address(0), amount) */\n      jump\t// in\n    tag_381:\n      sub(shl(0xa0, 0x01), 0x01)\n        /* \"@openzeppelin/contracts/token/ERC20/ERC20.sol\":9362:9380  _balances[account] */\n      dup3\n      and\n        /* \"@openzeppelin/contracts/token/ERC20/ERC20.sol\":9337:9359  uint256 accountBalance */\n      0x00\n        /* \"@openzeppelin/contracts/token/ERC20/ERC20.sol\":9362:9380  _balances[account] */\n      swap1\n      dup2\n      mstore\n        /* \"@openzeppelin/contracts/token/ERC20/ERC20.sol\":9362:9371  _balances */\n      0x02\n        /* \"@openzeppelin/contracts/token/ERC20/ERC20.sol\":9362:9380  _balances[account] */\n      0x20\n      mstore\n      0x40\n      swap1\n      keccak256\n      sload\n        /* \"@openzeppelin/contracts/token/ERC20/ERC20.sol\":9398:9422  accountBalance >= amount */\n      dup2\n      dup2\n      lt\n      iszero\n        /* \"@openzeppelin/contracts/token/ERC20/ERC20.sol\":9390:9461  require(accountBalance >= amount, \"ERC20: burn amount exceeds balance\") */\n      tag_383\n      jumpi\n      mload(0x40)\n      shl(0xe5, 0x461bcd)\n      dup2\n      mstore\n        /* \"#utility.yul\":10970:10972   */\n      0x20\n        /* \"@openzeppelin/contracts/token/ERC20/ERC20.sol\":9390:9461  require(accountBalance >= amount, \"ERC20: burn amount exceeds balance\") */\n      0x04\n      dup3\n      add\n        /* \"#utility.yul\":10952:10973   */\n      mstore\n        /* \"#utility.yul\":11009:11011   */\n      0x22\n        /* \"#utility.yul\":10989:11007   */\n      0x24\n      dup3\n      add\n        /* \"#utility.yul\":10982:11012   */\n      mstore\n        /* \"#utility.yul\":11048:11082   */\n      0x45524332303a206275726e20616d6f756e7420657863656564732062616c616e\n        /* \"#utility.yul\":11028:11046   */\n      0x44\n      dup3\n      add\n        /* \"#utility.yul\":11021:11083   */\n      mstore\n      shl(0xf0, 0x6365)\n        /* \"#utility.yul\":11099:11117   */\n      0x64\n      dup3\n      add\n        /* \"#utility.yul\":11092:11124   */\n      mstore\n        /* \"#utility.yul\":11141:11160   */\n      0x84\n      add\n        /* \"@openzeppelin/contracts/token/ERC20/ERC20.sol\":9390:9461  require(accountBalance >= amount, \"ERC20: burn amount exceeds balance\") */\n      tag_207\n        /* \"#utility.yul\":10768:11166   */\n      jump\n        /* \"@openzeppelin/contracts/token/ERC20/ERC20.sol\":9390:9461  require(accountBalance >= amount, \"ERC20: burn amount exceeds balance\") */\n    tag_383:\n      sub(shl(0xa0, 0x01), 0x01)\n        /* \"@openzeppelin/contracts/token/ERC20/ERC20.sol\":9495:9513  _balances[account] */\n      dup4\n      and\n      0x00\n      swap1\n      dup2\n      mstore\n        /* \"@openzeppelin/contracts/token/ERC20/ERC20.sol\":9495:9504  _balances */\n      0x02\n        /* \"@openzeppelin/contracts/token/ERC20/ERC20.sol\":9495:9513  _balances[account] */\n      0x20\n      mstore\n      0x40\n      dup2\n      keccak256\n        /* \"@openzeppelin/contracts/token/ERC20/ERC20.sol\":9516:9539  accountBalance - amount */\n      dup4\n      dup4\n      sub\n        /* \"@openzeppelin/contracts/token/ERC20/ERC20.sol\":9495:9539  _balances[account] = accountBalance - amount */\n      swap1\n      sstore\n        /* \"@openzeppelin/contracts/token/ERC20/ERC20.sol\":9559:9571  _totalSupply */\n      0x04\n        /* \"@openzeppelin/contracts/token/ERC20/ERC20.sol\":9559:9581  _totalSupply -= amount */\n      dup1\n      sload\n        /* \"@openzeppelin/contracts/token/ERC20/ERC20.sol\":9533:9539  amount */\n      dup5\n      swap3\n        /* \"@openzeppelin/contracts/token/ERC20/ERC20.sol\":9495:9513  _balances[account] */\n      swap1\n        /* \"@openzeppelin/contracts/token/ERC20/ERC20.sol\":9559:9581  _totalSupply -= amount */\n      tag_386\n      swap1\n        /* \"@openzeppelin/contracts/token/ERC20/ERC20.sol\":9533:9539  amount */\n      dup5\n      swap1\n        /* \"@openzeppelin/contracts/token/ERC20/ERC20.sol\":9559:9581  _totalSupply -= amount */\n      tag_348\n      jump\t// in\n    tag_386:\n      swap1\n      swap2\n      sstore\n      pop\n      pop\n        /* \"@openzeppelin/contracts/token/ERC20/ERC20.sol\":9597:9634  Transfer(account, address(0), amount) */\n      mload(0x40)\n        /* \"#utility.yul\":1731:1756   */\n      dup3\n      dup2\n      mstore\n        /* \"@openzeppelin/contracts/token/ERC20/ERC20.sol\":9623:9624  0 */\n      0x00\n      swap1\n      sub(shl(0xa0, 0x01), 0x01)\n        /* \"@openzeppelin/contracts/token/ERC20/ERC20.sol\":9597:9634  Transfer(account, address(0), amount) */\n      dup6\n      and\n      swap1\n      0xddf252ad1be2c89b69c2b068fc378daa952ba7f163c4a11628f55a4df523b3ef\n      swap1\n        /* \"#utility.yul\":1719:1721   */\n      0x20\n        /* \"#utility.yul\":1704:1722   */\n      add\n        /* \"@openzeppelin/contracts/token/ERC20/ERC20.sol\":9597:9634  Transfer(account, address(0), amount) */\n      mload(0x40)\n      dup1\n      swap2\n      sub\n      swap1\n      log3\n        /* \"@openzeppelin/contracts/access/AccessControl.sol\":4387:4532  function grantRole(bytes32 role, address account) public virtual override onlyRole(getRoleAdmin(role)) {... */\n      pop\n      pop\n      pop\n      jump\t// out\n        /* \"@openzeppelin/contracts/access/Ownable.sol\":2270:2457  function _transferOwnership(address newOwner) internal virtual {... */\n    tag_247:\n        /* \"@openzeppelin/contracts/access/Ownable.sol\":2362:2368  _owner */\n      0x07\n      dup1\n      sload\n      sub(shl(0xa0, 0x01), 0x01)\n        /* \"@openzeppelin/contracts/access/Ownable.sol\":2378:2395  _owner = newOwner */\n      dup4\n      dup2\n      and\n        /* \"@openzeppelin/contracts/access/Ownable.sol\":2362:2368  _owner */\n      0x0100\n        /* \"@openzeppelin/contracts/access/Ownable.sol\":2378:2395  _owner = newOwner */\n      dup2\n      dup2\n      mul\n      not(sub(shl(0xa8, 0x01), 0x0100))\n      dup6\n      and\n      or\n      swap1\n      swap5\n      sstore\n        /* \"@openzeppelin/contracts/access/Ownable.sol\":2410:2450  OwnershipTransferred(oldOwner, newOwner) */\n      mload(0x40)\n        /* \"@openzeppelin/contracts/access/Ownable.sol\":2362:2368  _owner */\n      swap4\n      swap1\n      swap3\n      div\n      and\n      swap2\n      dup3\n      swap1\n        /* \"@openzeppelin/contracts/access/Ownable.sol\":2410:2450  OwnershipTransferred(oldOwner, newOwner) */\n      0x8be0079c531659141344cd1fd0a4f28419497f9722a3daafe3b4186f6b6457e0\n      swap1\n        /* \"@openzeppelin/contracts/access/Ownable.sol\":2343:2359  address oldOwner */\n      0x00\n      swap1\n        /* \"@openzeppelin/contracts/access/Ownable.sol\":2410:2450  OwnershipTransferred(oldOwner, newOwner) */\n      log3\n        /* \"@openzeppelin/contracts/access/Ownable.sol\":2333:2457  {... */\n      pop\n        /* \"@openzeppelin/contracts/access/Ownable.sol\":2270:2457  function _transferOwnership(address newOwner) internal virtual {... */\n      pop\n      jump\t// out\n        /* \"@openzeppelin/contracts/security/Pausable.sol\":1863:1978  function _pause() internal virtual whenNotPaused {... */\n    tag_259:\n        /* \"@openzeppelin/contracts/security/Pausable.sol\":1168:1175  _paused */\n      and(0xff, sload(0x07))\n        /* \"@openzeppelin/contracts/security/Pausable.sol\":1411:1420  !paused() */\n      iszero\n        /* \"@openzeppelin/contracts/security/Pausable.sol\":1403:1441  require(!paused(), \"Pausable: paused\") */\n      tag_393\n      jumpi\n      mload(0x40)\n      shl(0xe5, 0x461bcd)\n      dup2\n      mstore\n        /* \"#utility.yul\":11373:11375   */\n      0x20\n        /* \"@openzeppelin/contracts/security/Pausable.sol\":1403:1441  require(!paused(), \"Pausable: paused\") */\n      0x04\n      dup3\n      add\n        /* \"#utility.yul\":11355:11376   */\n      mstore\n        /* \"#utility.yul\":11412:11414   */\n      0x10\n        /* \"#utility.yul\":11392:11410   */\n      0x24\n      dup3\n      add\n        /* \"#utility.yul\":11385:11415   */\n      mstore\n      shl(0x82, 0x14185d5cd8589b194e881c185d5cd959)\n        /* \"#utility.yul\":11431:11449   */\n      0x44\n      dup3\n      add\n        /* \"#utility.yul\":11424:11470   */\n      mstore\n        /* \"#utility.yul\":11487:11505   */\n      0x64\n      add\n        /* \"@openzeppelin/contracts/security/Pausable.sol\":1403:1441  require(!paused(), \"Pausable: paused\") */\n      tag_207\n        /* \"#utility.yul\":11171:11511   */\n      jump\n        /* \"@openzeppelin/contracts/security/Pausable.sol\":1403:1441  require(!paused(), \"Pausable: paused\") */\n    tag_393:\n        /* \"@openzeppelin/contracts/security/Pausable.sol\":1922:1929  _paused */\n      0x07\n        /* \"@openzeppelin/contracts/security/Pausable.sol\":1922:1936  _paused = true */\n      dup1\n      sload\n      not(0xff)\n      and\n        /* \"@openzeppelin/contracts/security/Pausable.sol\":1932:1936  true */\n      0x01\n        /* \"@openzeppelin/contracts/security/Pausable.sol\":1922:1936  _paused = true */\n      or\n      swap1\n      sstore\n        /* \"@openzeppelin/contracts/security/Pausable.sol\":1951:1971  Paused(_msgSender()) */\n      0x62e78cea01bee320cd4e420270b5ea74000d11b0c9f74754ebdbfc544b05a258\n        /* \"@openzeppelin/contracts/security/Pausable.sol\":1958:1970  _msgSender() */\n      tag_375\n        /* \"@openzeppelin/contracts/utils/Context.sol\":719:729  msg.sender */\n      caller\n      swap1\n        /* \"@openzeppelin/contracts/utils/Context.sol\":640:736  function _msgSender() internal view virtual returns (address) {... */\n      jump\n        /* \"@openzeppelin/contracts/utils/structs/EnumerableSet.sol\":8870:9026  function at(AddressSet storage set, uint256 index) internal view returns (address) {... */\n    tag_265:\n        /* \"@openzeppelin/contracts/utils/structs/EnumerableSet.sol\":8944:8951  address */\n      0x00\n        /* \"@openzeppelin/contracts/utils/structs/EnumerableSet.sol\":8994:9016  _at(set._inner, index) */\n      tag_264\n        /* \"@openzeppelin/contracts/utils/structs/EnumerableSet.sol\":8998:9001  set */\n      dup4\n        /* \"@openzeppelin/contracts/utils/structs/EnumerableSet.sol\":9010:9015  index */\n      dup4\n        /* \"@openzeppelin/contracts/utils/structs/EnumerableSet.sol\":8994:8997  _at */\n      tag_401\n        /* \"@openzeppelin/contracts/utils/structs/EnumerableSet.sol\":8994:9016  _at(set._inner, index) */\n      jump\t// in\n        /* \"@openzeppelin/contracts/utils/structs/EnumerableSet.sol\":8413:8528  function length(AddressSet storage set) internal view returns (uint256) {... */\n    tag_290:\n        /* \"@openzeppelin/contracts/utils/structs/EnumerableSet.sol\":8476:8483  uint256 */\n      0x00\n        /* \"@openzeppelin/contracts/utils/structs/EnumerableSet.sol\":8502:8521  _length(set._inner) */\n      tag_172\n        /* \"@openzeppelin/contracts/utils/structs/EnumerableSet.sol\":8510:8513  set */\n      dup3\n        /* \"@openzeppelin/contracts/utils/structs/EnumerableSet.sol\":4028:4046  set._values.length */\n      sload\n      swap1\n        /* \"@openzeppelin/contracts/utils/structs/EnumerableSet.sol\":3946:4053  function _length(Set storage set) private view returns (uint256) {... */\n      jump\n        /* \"@openzeppelin/contracts/utils/structs/EnumerableSet.sol\":1697:2101  function _add(Set storage set, bytes32 value) private returns (bool) {... */\n    tag_314:\n        /* \"@openzeppelin/contracts/utils/structs/EnumerableSet.sol\":1760:1764  bool */\n      0x00\n        /* \"@openzeppelin/contracts/utils/structs/EnumerableSet.sol\":3834:3853  set._indexes[value] */\n      dup2\n      dup2\n      mstore\n        /* \"@openzeppelin/contracts/utils/structs/EnumerableSet.sol\":3834:3846  set._indexes */\n      0x01\n      dup4\n      add\n        /* \"@openzeppelin/contracts/utils/structs/EnumerableSet.sol\":3834:3853  set._indexes[value] */\n      0x20\n      mstore\n      0x40\n      dup2\n      keccak256\n      sload\n        /* \"@openzeppelin/contracts/utils/structs/EnumerableSet.sol\":1776:2095  if (!_contains(set, value)) {... */\n      tag_408\n      jumpi\n      pop\n        /* \"@openzeppelin/contracts/utils/structs/EnumerableSet.sol\":1818:1841  set._values.push(value) */\n      dup2\n      sload\n      0x01\n      dup2\n      dup2\n      add\n      dup5\n      sstore\n        /* \"@openzeppelin/contracts/utils/structs/EnumerableSet.sol\":1818:1829  set._values */\n      0x00\n        /* \"@openzeppelin/contracts/utils/structs/EnumerableSet.sol\":1818:1841  set._values.push(value) */\n      dup5\n      dup2\n      mstore\n      0x20\n      dup1\n      dup3\n      keccak256\n      swap1\n      swap4\n      add\n      dup5\n      swap1\n      sstore\n        /* \"@openzeppelin/contracts/utils/structs/EnumerableSet.sol\":1998:2016  set._values.length */\n      dup5\n      sload\n        /* \"@openzeppelin/contracts/utils/structs/EnumerableSet.sol\":1976:1995  set._indexes[value] */\n      dup5\n      dup3\n      mstore\n        /* \"@openzeppelin/contracts/utils/structs/EnumerableSet.sol\":1976:1988  set._indexes */\n      dup3\n      dup7\n      add\n        /* \"@openzeppelin/contracts/utils/structs/EnumerableSet.sol\":1976:1995  set._indexes[value] */\n      swap1\n      swap4\n      mstore\n      0x40\n      swap1\n      keccak256\n        /* \"@openzeppelin/contracts/utils/structs/EnumerableSet.sol\":1976:2016  set._indexes[value] = set._values.length */\n      swap2\n      swap1\n      swap2\n      sstore\n        /* \"@openzeppelin/contracts/utils/structs/EnumerableSet.sol\":2030:2041  return true */\n      jump(tag_172)\n        /* \"@openzeppelin/contracts/utils/structs/EnumerableSet.sol\":1776:2095  if (!_contains(set, value)) {... */\n    tag_408:\n      pop\n        /* \"@openzeppelin/contracts/utils/structs/EnumerableSet.sol\":2079:2084  false */\n      0x00\n        /* \"@openzeppelin/contracts/utils/structs/EnumerableSet.sol\":2072:2084  return false */\n      jump(tag_172)\n        /* \"@openzeppelin/contracts/utils/math/SafeMath.sol\":3451:3547  function mul(uint256 a, uint256 b) internal pure returns (uint256) {... */\n    tag_345:\n        /* \"@openzeppelin/contracts/utils/math/SafeMath.sol\":3509:3516  uint256 */\n      0x00\n        /* \"@openzeppelin/contracts/utils/math/SafeMath.sol\":3535:3540  a * b */\n      tag_264\n        /* \"@openzeppelin/contracts/utils/math/SafeMath.sol\":3539:3540  b */\n      dup3\n        /* \"@openzeppelin/contracts/utils/math/SafeMath.sol\":3535:3536  a */\n      dup5\n        /* \"@openzeppelin/contracts/utils/math/SafeMath.sol\":3535:3540  a * b */\n      tag_414\n      jump\t// in\n        /* \"@openzeppelin/contracts/utils/math/SafeMath.sol\":3836:3932  function div(uint256 a, uint256 b) internal pure returns (uint256) {... */\n    tag_346:\n        /* \"@openzeppelin/contracts/utils/math/SafeMath.sol\":3894:3901  uint256 */\n      0x00\n        /* \"@openzeppelin/contracts/utils/math/SafeMath.sol\":3920:3925  a / b */\n      tag_264\n        /* \"@openzeppelin/contracts/utils/math/SafeMath.sol\":3924:3925  b */\n      dup3\n        /* \"@openzeppelin/contracts/utils/math/SafeMath.sol\":3920:3921  a */\n      dup5\n        /* \"@openzeppelin/contracts/utils/math/SafeMath.sol\":3920:3925  a / b */\n      tag_417\n      jump\t// in\n        /* \"@openzeppelin/contracts/token/ERC20/ERC20.sol\":7488:8139  function _transfer(... */\n    tag_350:\n      sub(shl(0xa0, 0x01), 0x01)\n        /* \"@openzeppelin/contracts/token/ERC20/ERC20.sol\":7614:7632  from != address(0) */\n      dup4\n      and\n        /* \"@openzeppelin/contracts/token/ERC20/ERC20.sol\":7606:7674  require(from != address(0), \"ERC20: transfer from the zero address\") */\n      tag_419\n      jumpi\n      mload(0x40)\n      shl(0xe5, 0x461bcd)\n      dup2\n      mstore\n        /* \"#utility.yul\":12113:12115   */\n      0x20\n        /* \"@openzeppelin/contracts/token/ERC20/ERC20.sol\":7606:7674  require(from != address(0), \"ERC20: transfer from the zero address\") */\n      0x04\n      dup3\n      add\n        /* \"#utility.yul\":12095:12116   */\n      mstore\n        /* \"#utility.yul\":12152:12154   */\n      0x25\n        /* \"#utility.yul\":12132:12150   */\n      0x24\n      dup3\n      add\n        /* \"#utility.yul\":12125:12155   */\n      mstore\n        /* \"#utility.yul\":12191:12225   */\n      0x45524332303a207472616e736665722066726f6d20746865207a65726f206164\n        /* \"#utility.yul\":12171:12189   */\n      0x44\n      dup3\n      add\n        /* \"#utility.yul\":12164:12226   */\n      mstore\n      shl(0xd8, 0x6472657373)\n        /* \"#utility.yul\":12242:12260   */\n      0x64\n      dup3\n      add\n        /* \"#utility.yul\":12235:12270   */\n      mstore\n        /* \"#utility.yul\":12287:12306   */\n      0x84\n      add\n        /* \"@openzeppelin/contracts/token/ERC20/ERC20.sol\":7606:7674  require(from != address(0), \"ERC20: transfer from the zero address\") */\n      tag_207\n        /* \"#utility.yul\":11911:12312   */\n      jump\n        /* \"@openzeppelin/contracts/token/ERC20/ERC20.sol\":7606:7674  require(from != address(0), \"ERC20: transfer from the zero address\") */\n    tag_419:\n      sub(shl(0xa0, 0x01), 0x01)\n        /* \"@openzeppelin/contracts/token/ERC20/ERC20.sol\":7692:7708  to != address(0) */\n      dup3\n      and\n        /* \"@openzeppelin/contracts/token/ERC20/ERC20.sol\":7684:7748  require(to != address(0), \"ERC20: transfer to the zero address\") */\n      tag_422\n      jumpi\n      mload(0x40)\n      shl(0xe5, 0x461bcd)\n      dup2\n      mstore\n        /* \"#utility.yul\":12519:12521   */\n      0x20\n        /* \"@openzeppelin/contracts/token/ERC20/ERC20.sol\":7684:7748  require(to != address(0), \"ERC20: transfer to the zero address\") */\n      0x04\n      dup3\n      add\n        /* \"#utility.yul\":12501:12522   */\n      mstore\n        /* \"#utility.yul\":12558:12560   */\n      0x23\n        /* \"#utility.yul\":12538:12556   */\n      0x24\n      dup3\n      add\n        /* \"#utility.yul\":12531:12561   */\n      mstore\n        /* \"#utility.yul\":12597:12631   */\n      0x45524332303a207472616e7366657220746f20746865207a65726f2061646472\n        /* \"#utility.yul\":12577:12595   */\n      0x44\n      dup3\n      add\n        /* \"#utility.yul\":12570:12632   */\n      mstore\n      shl(0xe8, 0x657373)\n        /* \"#utility.yul\":12648:12666   */\n      0x64\n      dup3\n      add\n        /* \"#utility.yul\":12641:12674   */\n      mstore\n        /* \"#utility.yul\":12691:12710   */\n      0x84\n      add\n        /* \"@openzeppelin/contracts/token/ERC20/ERC20.sol\":7684:7748  require(to != address(0), \"ERC20: transfer to the zero address\") */\n      tag_207\n        /* \"#utility.yul\":12317:12716   */\n      jump\n        /* \"@openzeppelin/contracts/token/ERC20/ERC20.sol\":7684:7748  require(to != address(0), \"ERC20: transfer to the zero address\") */\n    tag_422:\n        /* \"@openzeppelin/contracts/token/ERC20/ERC20.sol\":7759:7797  _beforeTokenTransfer(from, to, amount) */\n      tag_425\n        /* \"@openzeppelin/contracts/token/ERC20/ERC20.sol\":7780:7784  from */\n      dup4\n        /* \"@openzeppelin/contracts/token/ERC20/ERC20.sol\":7786:7788  to */\n      dup4\n        /* \"@openzeppelin/contracts/token/ERC20/ERC20.sol\":7790:7796  amount */\n      dup4\n        /* \"@openzeppelin/contracts/token/ERC20/ERC20.sol\":7759:7779  _beforeTokenTransfer */\n      tag_382\n        /* \"@openzeppelin/contracts/token/ERC20/ERC20.sol\":7759:7797  _beforeTokenTransfer(from, to, amount) */\n      jump\t// in\n    tag_425:\n      sub(shl(0xa0, 0x01), 0x01)\n        /* \"@openzeppelin/contracts/token/ERC20/ERC20.sol\":7830:7845  _balances[from] */\n      dup4\n      and\n        /* \"@openzeppelin/contracts/token/ERC20/ERC20.sol\":7808:7827  uint256 fromBalance */\n      0x00\n        /* \"@openzeppelin/contracts/token/ERC20/ERC20.sol\":7830:7845  _balances[from] */\n      swap1\n      dup2\n      mstore\n        /* \"@openzeppelin/contracts/token/ERC20/ERC20.sol\":7830:7839  _balances */\n      0x02\n        /* \"@openzeppelin/contracts/token/ERC20/ERC20.sol\":7830:7845  _balances[from] */\n      0x20\n      mstore\n      0x40\n      swap1\n      keccak256\n      sload\n        /* \"@openzeppelin/contracts/token/ERC20/ERC20.sol\":7863:7884  fromBalance >= amount */\n      dup2\n      dup2\n      lt\n      iszero\n        /* \"@openzeppelin/contracts/token/ERC20/ERC20.sol\":7855:7927  require(fromBalance >= amount, \"ERC20: transfer amount exceeds balance\") */\n      tag_426\n      jumpi\n      mload(0x40)\n      shl(0xe5, 0x461bcd)\n      dup2\n      mstore\n        /* \"#utility.yul\":12923:12925   */\n      0x20\n        /* \"@openzeppelin/contracts/token/ERC20/ERC20.sol\":7855:7927  require(fromBalance >= amount, \"ERC20: transfer amount exceeds balance\") */\n      0x04\n      dup3\n      add\n        /* \"#utility.yul\":12905:12926   */\n      mstore\n        /* \"#utility.yul\":12962:12964   */\n      0x26\n        /* \"#utility.yul\":12942:12960   */\n      0x24\n      dup3\n      add\n        /* \"#utility.yul\":12935:12965   */\n      mstore\n        /* \"#utility.yul\":13001:13035   */\n      0x45524332303a207472616e7366657220616d6f756e7420657863656564732062\n        /* \"#utility.yul\":12981:12999   */\n      0x44\n      dup3\n      add\n        /* \"#utility.yul\":12974:13036   */\n      mstore\n      shl(0xd0, 0x616c616e6365)\n        /* \"#utility.yul\":13052:13070   */\n      0x64\n      dup3\n      add\n        /* \"#utility.yul\":13045:13081   */\n      mstore\n        /* \"#utility.yul\":13098:13117   */\n      0x84\n      add\n        /* \"@openzeppelin/contracts/token/ERC20/ERC20.sol\":7855:7927  require(fromBalance >= amount, \"ERC20: transfer amount exceeds balance\") */\n      tag_207\n        /* \"#utility.yul\":12721:13123   */\n      jump\n        /* \"@openzeppelin/contracts/token/ERC20/ERC20.sol\":7855:7927  require(fromBalance >= amount, \"ERC20: transfer amount exceeds balance\") */\n    tag_426:\n      sub(shl(0xa0, 0x01), 0x01)\n        /* \"@openzeppelin/contracts/token/ERC20/ERC20.sol\":7961:7976  _balances[from] */\n      dup1\n      dup6\n      and\n      0x00\n      swap1\n      dup2\n      mstore\n        /* \"@openzeppelin/contracts/token/ERC20/ERC20.sol\":7961:7970  _balances */\n      0x02\n        /* \"@openzeppelin/contracts/token/ERC20/ERC20.sol\":7961:7976  _balances[from] */\n      0x20\n      mstore\n      0x40\n      dup1\n      dup3\n      keccak256\n        /* \"@openzeppelin/contracts/token/ERC20/ERC20.sol\":7979:7999  fromBalance - amount */\n      dup6\n      dup6\n      sub\n        /* \"@openzeppelin/contracts/token/ERC20/ERC20.sol\":7961:7999  _balances[from] = fromBalance - amount */\n      swap1\n      sstore\n        /* \"@openzeppelin/contracts/token/ERC20/ERC20.sol\":8019:8032  _balances[to] */\n      swap2\n      dup6\n      and\n      dup2\n      mstore\n      swap1\n      dup2\n      keccak256\n        /* \"@openzeppelin/contracts/token/ERC20/ERC20.sol\":8019:8042  _balances[to] += amount */\n      dup1\n      sload\n        /* \"@openzeppelin/contracts/token/ERC20/ERC20.sol\":7993:7999  amount */\n      dup5\n      swap3\n        /* \"@openzeppelin/contracts/token/ERC20/ERC20.sol\":7961:7976  _balances[from] */\n      swap1\n        /* \"@openzeppelin/contracts/token/ERC20/ERC20.sol\":8019:8042  _balances[to] += amount */\n      tag_429\n      swap1\n        /* \"@openzeppelin/contracts/token/ERC20/ERC20.sol\":7993:7999  amount */\n      dup5\n      swap1\n        /* \"@openzeppelin/contracts/token/ERC20/ERC20.sol\":8019:8042  _balances[to] += amount */\n      tag_225\n      jump\t// in\n    tag_429:\n      swap3\n      pop\n      pop\n      dup2\n      swap1\n      sstore\n      pop\n        /* \"@openzeppelin/contracts/token/ERC20/ERC20.sol\":8073:8075  to */\n      dup3\n      sub(shl(0xa0, 0x01), 0x01)\n        /* \"@openzeppelin/contracts/token/ERC20/ERC20.sol\":8058:8084  Transfer(from, to, amount) */\n      and\n        /* \"@openzeppelin/contracts/token/ERC20/ERC20.sol\":8067:8071  from */\n      dup5\n      sub(shl(0xa0, 0x01), 0x01)\n        /* \"@openzeppelin/contracts/token/ERC20/ERC20.sol\":8058:8084  Transfer(from, to, amount) */\n      and\n      0xddf252ad1be2c89b69c2b068fc378daa952ba7f163c4a11628f55a4df523b3ef\n        /* \"@openzeppelin/contracts/token/ERC20/ERC20.sol\":8077:8083  amount */\n      dup5\n        /* \"@openzeppelin/contracts/token/ERC20/ERC20.sol\":8058:8084  Transfer(from, to, amount) */\n      mload(0x40)\n      tag_430\n      swap2\n        /* \"#utility.yul\":1731:1756   */\n      dup2\n      mstore\n        /* \"#utility.yul\":1719:1721   */\n      0x20\n        /* \"#utility.yul\":1704:1722   */\n      add\n      swap1\n        /* \"#utility.yul\":1585:1762   */\n      jump\n        /* \"@openzeppelin/contracts/token/ERC20/ERC20.sol\":8058:8084  Transfer(from, to, amount) */\n    tag_430:\n      mload(0x40)\n      dup1\n      swap2\n      sub\n      swap1\n      log3\n        /* \"@openzeppelin/contracts/token/ERC20/ERC20.sol\":8095:8132  _afterTokenTransfer(from, to, amount) */\n      tag_341\n        /* \"@openzeppelin/contracts/access/AccessControl.sol\":4387:4532  function grantRole(bytes32 role, address account) public virtual override onlyRole(getRoleAdmin(role)) {... */\n      jump\n        /* \"@openzeppelin/contracts/utils/Strings.sol\":1588:2029  function toHexString(uint256 value, uint256 length) internal pure returns (string memory) {... */\n    tag_356:\n        /* \"@openzeppelin/contracts/utils/Strings.sol\":1663:1676  string memory */\n      0x60\n        /* \"@openzeppelin/contracts/utils/Strings.sol\":1688:1707  bytes memory buffer */\n      0x00\n        /* \"@openzeppelin/contracts/utils/Strings.sol\":1720:1730  2 * length */\n      tag_433\n        /* \"@openzeppelin/contracts/utils/Strings.sol\":1724:1730  length */\n      dup4\n        /* \"@openzeppelin/contracts/utils/Strings.sol\":1720:1721  2 */\n      0x02\n        /* \"@openzeppelin/contracts/utils/Strings.sol\":1720:1730  2 * length */\n      tag_414\n      jump\t// in\n    tag_433:\n        /* \"@openzeppelin/contracts/utils/Strings.sol\":1720:1734  2 * length + 2 */\n      tag_434\n      swap1\n        /* \"@openzeppelin/contracts/utils/Strings.sol\":1733:1734  2 */\n      0x02\n        /* \"@openzeppelin/contracts/utils/Strings.sol\":1720:1734  2 * length + 2 */\n      tag_225\n      jump\t// in\n    tag_434:\n        /* \"@openzeppelin/contracts/utils/Strings.sol\":1710:1735  new bytes(2 * length + 2) */\n      0xffffffffffffffff\n      dup2\n      gt\n      iszero\n      tag_436\n      jumpi\n      tag_436\n      tag_437\n      jump\t// in\n    tag_436:\n      mload(0x40)\n      swap1\n      dup1\n      dup3\n      mstore\n      dup1\n      0x1f\n      add\n      not(0x1f)\n      and\n      0x20\n      add\n      dup3\n      add\n      0x40\n      mstore\n      dup1\n      iszero\n      tag_438\n      jumpi\n      0x20\n      dup3\n      add\n      dup2\n      dup1\n      calldatasize\n      dup4\n      calldatacopy\n      add\n      swap1\n      pop\n    tag_438:\n      pop\n        /* \"@openzeppelin/contracts/utils/Strings.sol\":1688:1735  bytes memory buffer = new bytes(2 * length + 2) */\n      swap1\n      pop\n      shl(0xfc, 0x03)\n        /* \"@openzeppelin/contracts/utils/Strings.sol\":1745:1751  buffer */\n      dup2\n        /* \"@openzeppelin/contracts/utils/Strings.sol\":1752:1753  0 */\n      0x00\n        /* \"@openzeppelin/contracts/utils/Strings.sol\":1745:1754  buffer[0] */\n      dup2\n      mload\n      dup2\n      lt\n      tag_440\n      jumpi\n      tag_440\n      tag_441\n      jump\t// in\n    tag_440:\n      0x20\n      add\n      add\n        /* \"@openzeppelin/contracts/utils/Strings.sol\":1745:1760  buffer[0] = \"0\" */\n      swap1\n      not(sub(shl(0xf8, 0x01), 0x01))\n      and\n      swap1\n      dup2\n      0x00\n      byte\n      swap1\n      mstore8\n      pop\n      shl(0xfb, 0x0f)\n        /* \"@openzeppelin/contracts/utils/Strings.sol\":1770:1776  buffer */\n      dup2\n        /* \"@openzeppelin/contracts/utils/Strings.sol\":1777:1778  1 */\n      0x01\n        /* \"@openzeppelin/contracts/utils/Strings.sol\":1770:1779  buffer[1] */\n      dup2\n      mload\n      dup2\n      lt\n      tag_443\n      jumpi\n      tag_443\n      tag_441\n      jump\t// in\n    tag_443:\n      0x20\n      add\n      add\n        /* \"@openzeppelin/contracts/utils/Strings.sol\":1770:1785  buffer[1] = \"x\" */\n      swap1\n      not(sub(shl(0xf8, 0x01), 0x01))\n      and\n      swap1\n      dup2\n      0x00\n      byte\n      swap1\n      mstore8\n      pop\n        /* \"@openzeppelin/contracts/utils/Strings.sol\":1800:1809  uint256 i */\n      0x00\n        /* \"@openzeppelin/contracts/utils/Strings.sol\":1812:1822  2 * length */\n      tag_447\n        /* \"@openzeppelin/contracts/utils/Strings.sol\":1816:1822  length */\n      dup5\n        /* \"@openzeppelin/contracts/utils/Strings.sol\":1812:1813  2 */\n      0x02\n        /* \"@openzeppelin/contracts/utils/Strings.sol\":1812:1822  2 * length */\n      tag_414\n      jump\t// in\n    tag_447:\n        /* \"@openzeppelin/contracts/utils/Strings.sol\":1812:1826  2 * length + 1 */\n      tag_448\n      swap1\n        /* \"@openzeppelin/contracts/utils/Strings.sol\":1825:1826  1 */\n      0x01\n        /* \"@openzeppelin/contracts/utils/Strings.sol\":1812:1826  2 * length + 1 */\n      tag_225\n      jump\t// in\n    tag_448:\n        /* \"@openzeppelin/contracts/utils/Strings.sol\":1800:1826  uint256 i = 2 * length + 1 */\n      swap1\n      pop\n        /* \"@openzeppelin/contracts/utils/Strings.sol\":1795:1927  for (uint256 i = 2 * length + 1; i > 1; --i) {... */\n    tag_444:\n        /* \"@openzeppelin/contracts/utils/Strings.sol\":1832:1833  1 */\n      0x01\n        /* \"@openzeppelin/contracts/utils/Strings.sol\":1828:1829  i */\n      dup2\n        /* \"@openzeppelin/contracts/utils/Strings.sol\":1828:1833  i > 1 */\n      gt\n        /* \"@openzeppelin/contracts/utils/Strings.sol\":1795:1927  for (uint256 i = 2 * length + 1; i > 1; --i) {... */\n      iszero\n      tag_445\n      jumpi\n      shl(0x81, 0x181899199a1a9b1b9c1cb0b131b232b3)\n        /* \"@openzeppelin/contracts/utils/Strings.sol\":1879:1884  value */\n      dup6\n        /* \"@openzeppelin/contracts/utils/Strings.sol\":1887:1890  0xf */\n      0x0f\n        /* \"@openzeppelin/contracts/utils/Strings.sol\":1879:1890  value & 0xf */\n      and\n        /* \"@openzeppelin/contracts/utils/Strings.sol\":1866:1891  _HEX_SYMBOLS[value & 0xf] */\n      0x10\n      dup2\n      lt\n      tag_450\n      jumpi\n      tag_450\n      tag_441\n      jump\t// in\n    tag_450:\n      byte\n      0xf8\n      shl\n        /* \"@openzeppelin/contracts/utils/Strings.sol\":1854:1860  buffer */\n      dup3\n        /* \"@openzeppelin/contracts/utils/Strings.sol\":1861:1862  i */\n      dup3\n        /* \"@openzeppelin/contracts/utils/Strings.sol\":1854:1863  buffer[i] */\n      dup2\n      mload\n      dup2\n      lt\n      tag_452\n      jumpi\n      tag_452\n      tag_441\n      jump\t// in\n    tag_452:\n      0x20\n      add\n      add\n        /* \"@openzeppelin/contracts/utils/Strings.sol\":1854:1891  buffer[i] = _HEX_SYMBOLS[value & 0xf] */\n      swap1\n      not(sub(shl(0xf8, 0x01), 0x01))\n      and\n      swap1\n      dup2\n      0x00\n      byte\n      swap1\n      mstore8\n      pop\n        /* \"@openzeppelin/contracts/utils/Strings.sol\":1915:1916  4 */\n      0x04\n        /* \"@openzeppelin/contracts/utils/Strings.sol\":1905:1916  value >>= 4 */\n      swap5\n      swap1\n      swap5\n      shr\n      swap4\n        /* \"@openzeppelin/contracts/utils/Strings.sol\":1835:1838  --i */\n      tag_453\n      dup2\n      tag_454\n      jump\t// in\n    tag_453:\n      swap1\n      pop\n        /* \"@openzeppelin/contracts/utils/Strings.sol\":1795:1927  for (uint256 i = 2 * length + 1; i > 1; --i) {... */\n      jump(tag_444)\n    tag_445:\n      pop\n        /* \"@openzeppelin/contracts/utils/Strings.sol\":1944:1954  value == 0 */\n      dup4\n      iszero\n        /* \"@openzeppelin/contracts/utils/Strings.sol\":1936:1991  require(value == 0, \"Strings: hex length insufficient\") */\n      tag_264\n      jumpi\n      mload(0x40)\n      shl(0xe5, 0x461bcd)\n      dup2\n      mstore\n        /* \"#utility.yul\":13735:13737   */\n      0x20\n        /* \"@openzeppelin/contracts/utils/Strings.sol\":1936:1991  require(value == 0, \"Strings: hex length insufficient\") */\n      0x04\n      dup3\n      add\n        /* \"#utility.yul\":13717:13738   */\n      dup2\n      swap1\n      mstore\n        /* \"#utility.yul\":13754:13772   */\n      0x24\n      dup3\n      add\n        /* \"#utility.yul\":13747:13777   */\n      mstore\n        /* \"#utility.yul\":13813:13847   */\n      0x537472696e67733a20686578206c656e67746820696e73756666696369656e74\n        /* \"#utility.yul\":13793:13811   */\n      0x44\n      dup3\n      add\n        /* \"#utility.yul\":13786:13848   */\n      mstore\n        /* \"#utility.yul\":13865:13883   */\n      0x64\n      add\n        /* \"@openzeppelin/contracts/utils/Strings.sol\":1936:1991  require(value == 0, \"Strings: hex length insufficient\") */\n      tag_207\n        /* \"#utility.yul\":13533:13889   */\n      jump\n        /* \"@openzeppelin/contracts/access/AccessControl.sol\":7219:7453  function _revokeRole(bytes32 role, address account) internal virtual {... */\n    tag_366:\n        /* \"@openzeppelin/contracts/access/AccessControl.sol\":7302:7324  hasRole(role, account) */\n      tag_459\n        /* \"@openzeppelin/contracts/access/AccessControl.sol\":7310:7314  role */\n      dup3\n        /* \"@openzeppelin/contracts/access/AccessControl.sol\":7316:7323  account */\n      dup3\n        /* \"@openzeppelin/contracts/access/AccessControl.sol\":7302:7309  hasRole */\n      tag_126\n        /* \"@openzeppelin/contracts/access/AccessControl.sol\":7302:7324  hasRole(role, account) */\n      jump\t// in\n    tag_459:\n        /* \"@openzeppelin/contracts/access/AccessControl.sol\":7298:7447  if (hasRole(role, account)) {... */\n      iszero\n      tag_219\n      jumpi\n        /* \"@openzeppelin/contracts/access/AccessControl.sol\":7372:7377  false */\n      0x00\n        /* \"@openzeppelin/contracts/access/AccessControl.sol\":7340:7352  _roles[role] */\n      dup3\n      dup2\n      mstore\n      0x20\n      dup2\n      dup2\n      mstore\n      0x40\n      dup1\n      dup4\n      keccak256\n      sub(shl(0xa0, 0x01), 0x01)\n        /* \"@openzeppelin/contracts/access/AccessControl.sol\":7340:7369  _roles[role].members[account] */\n      dup6\n      and\n      dup1\n      dup6\n      mstore\n      swap3\n      mstore\n      dup1\n      dup4\n      keccak256\n        /* \"@openzeppelin/contracts/access/AccessControl.sol\":7340:7377  _roles[role].members[account] = false */\n      dup1\n      sload\n      not(0xff)\n      and\n      swap1\n      sstore\n        /* \"@openzeppelin/contracts/access/AccessControl.sol\":7396:7436  RoleRevoked(role, account, _msgSender()) */\n      mload\n        /* \"@openzeppelin/contracts/utils/Context.sol\":719:729  msg.sender */\n      caller\n      swap3\n        /* \"@openzeppelin/contracts/access/AccessControl.sol\":7340:7352  _roles[role] */\n      dup6\n      swap2\n        /* \"@openzeppelin/contracts/access/AccessControl.sol\":7396:7436  RoleRevoked(role, account, _msgSender()) */\n      0xf6391f5c32d9c69d2a47ea670b442974b53935d1edc7fd64eb21e047a839171b\n      swap2\n        /* \"@openzeppelin/contracts/access/AccessControl.sol\":7372:7377  false */\n      swap1\n        /* \"@openzeppelin/contracts/access/AccessControl.sol\":7396:7436  RoleRevoked(role, account, _msgSender()) */\n      log4\n        /* \"@openzeppelin/contracts/access/AccessControl.sol\":7219:7453  function _revokeRole(bytes32 role, address account) internal virtual {... */\n      pop\n      pop\n      jump\t// out\n        /* \"@openzeppelin/contracts/utils/structs/EnumerableSet.sol\":7930:8086  function remove(AddressSet storage set, address value) internal returns (bool) {... */\n    tag_368:\n        /* \"@openzeppelin/contracts/utils/structs/EnumerableSet.sol\":8003:8007  bool */\n      0x00\n        /* \"@openzeppelin/contracts/utils/structs/EnumerableSet.sol\":8026:8079  _remove(set._inner, bytes32(uint256(uint160(value)))) */\n      tag_264\n        /* \"@openzeppelin/contracts/utils/structs/EnumerableSet.sol\":8034:8037  set */\n      dup4\n      sub(shl(0xa0, 0x01), 0x01)\n        /* \"@openzeppelin/contracts/utils/structs/EnumerableSet.sol\":8054:8077  uint256(uint160(value)) */\n      dup5\n      and\n        /* \"@openzeppelin/contracts/utils/structs/EnumerableSet.sol\":8026:8033  _remove */\n      tag_464\n        /* \"@openzeppelin/contracts/utils/structs/EnumerableSet.sol\":8026:8079  _remove(set._inner, bytes32(uint256(uint160(value)))) */\n      jump\t// in\n        /* \"contracts/HatTokenV2.sol\":2061:2278  function _beforeTokenTransfer(... */\n    tag_382:\n        /* \"contracts/HatTokenV2.sol\":2226:2270  super._beforeTokenTransfer(from, to, amount) */\n      tag_200\n        /* \"contracts/HatTokenV2.sol\":2253:2257  from */\n      dup4\n        /* \"contracts/HatTokenV2.sol\":2259:2261  to */\n      dup4\n        /* \"contracts/HatTokenV2.sol\":2263:2269  amount */\n      dup4\n        /* \"contracts/HatTokenV2.sol\":2226:2252  super._beforeTokenTransfer */\n      tag_168\n        /* \"contracts/HatTokenV2.sol\":2226:2270  super._beforeTokenTransfer(from, to, amount) */\n      jump\t// in\n        /* \"@openzeppelin/contracts/utils/structs/EnumerableSet.sol\":4395:4513  function _at(Set storage set, uint256 index) private view returns (bytes32) {... */\n    tag_401:\n        /* \"@openzeppelin/contracts/utils/structs/EnumerableSet.sol\":4462:4469  bytes32 */\n      0x00\n        /* \"@openzeppelin/contracts/utils/structs/EnumerableSet.sol\":4488:4491  set */\n      dup3\n        /* \"@openzeppelin/contracts/utils/structs/EnumerableSet.sol\":4488:4499  set._values */\n      0x00\n      add\n        /* \"@openzeppelin/contracts/utils/structs/EnumerableSet.sol\":4500:4505  index */\n      dup3\n        /* \"@openzeppelin/contracts/utils/structs/EnumerableSet.sol\":4488:4506  set._values[index] */\n      dup2\n      sload\n      dup2\n      lt\n      tag_470\n      jumpi\n      tag_470\n      tag_441\n      jump\t// in\n    tag_470:\n      swap1\n      0x00\n      mstore\n      keccak256(0x00, 0x20)\n      add\n      sload\n        /* \"@openzeppelin/contracts/utils/structs/EnumerableSet.sol\":4481:4506  return set._values[index] */\n      swap1\n      pop\n        /* \"@openzeppelin/contracts/utils/structs/EnumerableSet.sol\":4395:4513  function _at(Set storage set, uint256 index) private view returns (bytes32) {... */\n      swap3\n      swap2\n      pop\n      pop\n      jump\t// out\n        /* \"@openzeppelin/contracts/utils/structs/EnumerableSet.sol\":2269:3657  function _remove(Set storage set, bytes32 value) private returns (bool) {... */\n    tag_464:\n        /* \"@openzeppelin/contracts/utils/structs/EnumerableSet.sol\":2335:2339  bool */\n      0x00\n        /* \"@openzeppelin/contracts/utils/structs/EnumerableSet.sol\":2472:2491  set._indexes[value] */\n      dup2\n      dup2\n      mstore\n        /* \"@openzeppelin/contracts/utils/structs/EnumerableSet.sol\":2472:2484  set._indexes */\n      0x01\n      dup4\n      add\n        /* \"@openzeppelin/contracts/utils/structs/EnumerableSet.sol\":2472:2491  set._indexes[value] */\n      0x20\n      mstore\n      0x40\n      dup2\n      keccak256\n      sload\n        /* \"@openzeppelin/contracts/utils/structs/EnumerableSet.sol\":2506:2521  valueIndex != 0 */\n      dup1\n      iszero\n        /* \"@openzeppelin/contracts/utils/structs/EnumerableSet.sol\":2502:3651  if (valueIndex != 0) {... */\n      tag_475\n      jumpi\n        /* \"@openzeppelin/contracts/utils/structs/EnumerableSet.sol\":2875:2896  uint256 toDeleteIndex */\n      0x00\n        /* \"@openzeppelin/contracts/utils/structs/EnumerableSet.sol\":2899:2913  valueIndex - 1 */\n      tag_476\n        /* \"@openzeppelin/contracts/utils/structs/EnumerableSet.sol\":2912:2913  1 */\n      0x01\n        /* \"@openzeppelin/contracts/utils/structs/EnumerableSet.sol\":2899:2909  valueIndex */\n      dup4\n        /* \"@openzeppelin/contracts/utils/structs/EnumerableSet.sol\":2899:2913  valueIndex - 1 */\n      tag_348\n      jump\t// in\n    tag_476:\n        /* \"@openzeppelin/contracts/utils/structs/EnumerableSet.sol\":2947:2965  set._values.length */\n      dup6\n      sload\n        /* \"@openzeppelin/contracts/utils/structs/EnumerableSet.sol\":2875:2913  uint256 toDeleteIndex = valueIndex - 1 */\n      swap1\n      swap2\n      pop\n        /* \"@openzeppelin/contracts/utils/structs/EnumerableSet.sol\":2927:2944  uint256 lastIndex */\n      0x00\n      swap1\n        /* \"@openzeppelin/contracts/utils/structs/EnumerableSet.sol\":2947:2969  set._values.length - 1 */\n      tag_477\n      swap1\n        /* \"@openzeppelin/contracts/utils/structs/EnumerableSet.sol\":2968:2969  1 */\n      0x01\n      swap1\n        /* \"@openzeppelin/contracts/utils/structs/EnumerableSet.sol\":2947:2969  set._values.length - 1 */\n      tag_348\n      jump\t// in\n    tag_477:\n        /* \"@openzeppelin/contracts/utils/structs/EnumerableSet.sol\":2927:2969  uint256 lastIndex = set._values.length - 1 */\n      swap1\n      pop\n        /* \"@openzeppelin/contracts/utils/structs/EnumerableSet.sol\":3001:3014  toDeleteIndex */\n      dup2\n        /* \"@openzeppelin/contracts/utils/structs/EnumerableSet.sol\":2988:2997  lastIndex */\n      dup2\n        /* \"@openzeppelin/contracts/utils/structs/EnumerableSet.sol\":2988:3014  lastIndex != toDeleteIndex */\n      eq\n        /* \"@openzeppelin/contracts/utils/structs/EnumerableSet.sol\":2984:3382  if (lastIndex != toDeleteIndex) {... */\n      tag_478\n      jumpi\n        /* \"@openzeppelin/contracts/utils/structs/EnumerableSet.sol\":3034:3051  bytes32 lastvalue */\n      0x00\n        /* \"@openzeppelin/contracts/utils/structs/EnumerableSet.sol\":3054:3057  set */\n      dup7\n        /* \"@openzeppelin/contracts/utils/structs/EnumerableSet.sol\":3054:3065  set._values */\n      0x00\n      add\n        /* \"@openzeppelin/contracts/utils/structs/EnumerableSet.sol\":3066:3075  lastIndex */\n      dup3\n        /* \"@openzeppelin/contracts/utils/structs/EnumerableSet.sol\":3054:3076  set._values[lastIndex] */\n      dup2\n      sload\n      dup2\n      lt\n      tag_480\n      jumpi\n      tag_480\n      tag_441\n      jump\t// in\n    tag_480:\n      swap1\n      0x00\n      mstore\n      keccak256(0x00, 0x20)\n      add\n      sload\n        /* \"@openzeppelin/contracts/utils/structs/EnumerableSet.sol\":3034:3076  bytes32 lastvalue = set._values[lastIndex] */\n      swap1\n      pop\n        /* \"@openzeppelin/contracts/utils/structs/EnumerableSet.sol\":3205:3214  lastvalue */\n      dup1\n        /* \"@openzeppelin/contracts/utils/structs/EnumerableSet.sol\":3176:3179  set */\n      dup8\n        /* \"@openzeppelin/contracts/utils/structs/EnumerableSet.sol\":3176:3187  set._values */\n      0x00\n      add\n        /* \"@openzeppelin/contracts/utils/structs/EnumerableSet.sol\":3188:3201  toDeleteIndex */\n      dup5\n        /* \"@openzeppelin/contracts/utils/structs/EnumerableSet.sol\":3176:3202  set._values[toDeleteIndex] */\n      dup2\n      sload\n      dup2\n      lt\n      tag_483\n      jumpi\n      tag_483\n      tag_441\n      jump\t// in\n    tag_483:\n      0x00\n      swap2\n      dup3\n      mstore\n      0x20\n      dup1\n      dup4\n      keccak256\n      swap1\n      swap2\n      add\n        /* \"@openzeppelin/contracts/utils/structs/EnumerableSet.sol\":3176:3214  set._values[toDeleteIndex] = lastvalue */\n      swap3\n      swap1\n      swap3\n      sstore\n        /* \"@openzeppelin/contracts/utils/structs/EnumerableSet.sol\":3288:3311  set._indexes[lastvalue] */\n      swap2\n      dup3\n      mstore\n        /* \"@openzeppelin/contracts/utils/structs/EnumerableSet.sol\":3288:3300  set._indexes */\n      0x01\n      dup9\n      add\n        /* \"@openzeppelin/contracts/utils/structs/EnumerableSet.sol\":3288:3311  set._indexes[lastvalue] */\n      swap1\n      mstore\n      0x40\n      swap1\n      keccak256\n        /* \"@openzeppelin/contracts/utils/structs/EnumerableSet.sol\":3288:3324  set._indexes[lastvalue] = valueIndex */\n      dup4\n      swap1\n      sstore\n        /* \"@openzeppelin/contracts/utils/structs/EnumerableSet.sol\":2984:3382  if (lastIndex != toDeleteIndex) {... */\n    tag_478:\n        /* \"@openzeppelin/contracts/utils/structs/EnumerableSet.sol\":3460:3477  set._values.pop() */\n      dup6\n      sload\n        /* \"@openzeppelin/contracts/utils/structs/EnumerableSet.sol\":3460:3463  set */\n      dup7\n      swap1\n        /* \"@openzeppelin/contracts/utils/structs/EnumerableSet.sol\":3460:3477  set._values.pop() */\n      dup1\n      tag_486\n      jumpi\n      tag_486\n      tag_487\n      jump\t// in\n    tag_486:\n      0x01\n      swap1\n      sub\n      dup2\n      dup2\n      swap1\n      0x00\n      mstore\n      keccak256(0x00, 0x20)\n      add\n      0x00\n      swap1\n      sstore\n      swap1\n      sstore\n        /* \"@openzeppelin/contracts/utils/structs/EnumerableSet.sol\":3552:3555  set */\n      dup6\n        /* \"@openzeppelin/contracts/utils/structs/EnumerableSet.sol\":3552:3564  set._indexes */\n      0x01\n      add\n        /* \"@openzeppelin/contracts/utils/structs/EnumerableSet.sol\":3552:3571  set._indexes[value] */\n      0x00\n        /* \"@openzeppelin/contracts/utils/structs/EnumerableSet.sol\":3565:3570  value */\n      dup7\n        /* \"@openzeppelin/contracts/utils/structs/EnumerableSet.sol\":3552:3571  set._indexes[value] */\n      dup2\n      mstore\n      0x20\n      add\n      swap1\n      dup2\n      mstore\n      0x20\n      add\n      0x00\n      keccak256\n        /* \"@openzeppelin/contracts/utils/structs/EnumerableSet.sol\":3545:3571  delete set._indexes[value] */\n      0x00\n      swap1\n      sstore\n        /* \"@openzeppelin/contracts/utils/structs/EnumerableSet.sol\":3593:3597  true */\n      0x01\n        /* \"@openzeppelin/contracts/utils/structs/EnumerableSet.sol\":3586:3597  return true */\n      swap4\n      pop\n      pop\n      pop\n      pop\n      jump(tag_172)\n        /* \"@openzeppelin/contracts/utils/structs/EnumerableSet.sol\":2502:3651  if (valueIndex != 0) {... */\n    tag_475:\n        /* \"@openzeppelin/contracts/utils/structs/EnumerableSet.sol\":3635:3640  false */\n      0x00\n        /* \"@openzeppelin/contracts/utils/structs/EnumerableSet.sol\":3628:3640  return false */\n      swap2\n      pop\n      pop\n      jump(tag_172)\n        /* \"#utility.yul\":14:300   */\n    tag_45:\n        /* \"#utility.yul\":72:78   */\n      0x00\n        /* \"#utility.yul\":125:127   */\n      0x20\n        /* \"#utility.yul\":113:122   */\n      dup3\n        /* \"#utility.yul\":104:111   */\n      dup5\n        /* \"#utility.yul\":100:123   */\n      sub\n        /* \"#utility.yul\":96:128   */\n      slt\n        /* \"#utility.yul\":93:145   */\n      iszero\n      tag_495\n      jumpi\n        /* \"#utility.yul\":141:142   */\n      0x00\n        /* \"#utility.yul\":138:139   */\n      dup1\n        /* \"#utility.yul\":131:143   */\n      revert\n        /* \"#utility.yul\":93:145   */\n    tag_495:\n        /* \"#utility.yul\":167:190   */\n      dup2\n      calldataload\n      not(sub(shl(0xe0, 0x01), 0x01))\n        /* \"#utility.yul\":219:251   */\n      dup2\n      and\n        /* \"#utility.yul\":209:252   */\n      dup2\n      eq\n        /* \"#utility.yul\":199:270   */\n      tag_264\n      jumpi\n        /* \"#utility.yul\":266:267   */\n      0x00\n        /* \"#utility.yul\":263:264   */\n      dup1\n        /* \"#utility.yul\":256:268   */\n      revert\n        /* \"#utility.yul\":497:755   */\n    tag_490:\n        /* \"#utility.yul\":569:570   */\n      0x00\n        /* \"#utility.yul\":579:692   */\n    tag_499:\n        /* \"#utility.yul\":593:599   */\n      dup4\n        /* \"#utility.yul\":590:591   */\n      dup2\n        /* \"#utility.yul\":587:600   */\n      lt\n        /* \"#utility.yul\":579:692   */\n      iszero\n      tag_501\n      jumpi\n        /* \"#utility.yul\":669:680   */\n      dup2\n      dup2\n      add\n        /* \"#utility.yul\":663:681   */\n      mload\n        /* \"#utility.yul\":650:661   */\n      dup4\n      dup3\n      add\n        /* \"#utility.yul\":643:682   */\n      mstore\n        /* \"#utility.yul\":615:617   */\n      0x20\n        /* \"#utility.yul\":608:618   */\n      add\n        /* \"#utility.yul\":579:692   */\n      jump(tag_499)\n    tag_501:\n        /* \"#utility.yul\":710:716   */\n      dup4\n        /* \"#utility.yul\":707:708   */\n      dup2\n        /* \"#utility.yul\":704:717   */\n      gt\n        /* \"#utility.yul\":701:749   */\n      iszero\n      tag_341\n      jumpi\n      pop\n      pop\n        /* \"#utility.yul\":745:746   */\n      0x00\n        /* \"#utility.yul\":727:743   */\n      swap2\n      add\n        /* \"#utility.yul\":720:747   */\n      mstore\n        /* \"#utility.yul\":497:755   */\n      jump\t// out\n        /* \"#utility.yul\":760:1143   */\n    tag_52:\n        /* \"#utility.yul\":909:911   */\n      0x20\n        /* \"#utility.yul\":898:907   */\n      dup2\n        /* \"#utility.yul\":891:912   */\n      mstore\n        /* \"#utility.yul\":872:876   */\n      0x00\n        /* \"#utility.yul\":941:947   */\n      dup3\n        /* \"#utility.yul\":935:948   */\n      mload\n        /* \"#utility.yul\":984:990   */\n      dup1\n        /* \"#utility.yul\":979:981   */\n      0x20\n        /* \"#utility.yul\":968:977   */\n      dup5\n        /* \"#utility.yul\":964:982   */\n      add\n        /* \"#utility.yul\":957:991   */\n      mstore\n        /* \"#utility.yul\":1000:1066   */\n      tag_504\n        /* \"#utility.yul\":1059:1065   */\n      dup2\n        /* \"#utility.yul\":1054:1056   */\n      0x40\n        /* \"#utility.yul\":1043:1052   */\n      dup6\n        /* \"#utility.yul\":1039:1057   */\n      add\n        /* \"#utility.yul\":1034:1036   */\n      0x20\n        /* \"#utility.yul\":1026:1032   */\n      dup8\n        /* \"#utility.yul\":1022:1037   */\n      add\n        /* \"#utility.yul\":1000:1066   */\n      tag_490\n      jump\t// in\n    tag_504:\n        /* \"#utility.yul\":1127:1129   */\n      0x1f\n        /* \"#utility.yul\":1106:1121   */\n      add\n      not(0x1f)\n        /* \"#utility.yul\":1102:1131   */\n      and\n        /* \"#utility.yul\":1087:1132   */\n      swap2\n      swap1\n      swap2\n      add\n        /* \"#utility.yul\":1134:1136   */\n      0x40\n        /* \"#utility.yul\":1083:1137   */\n      add\n      swap3\n        /* \"#utility.yul\":760:1143   */\n      swap2\n      pop\n      pop\n      jump\t// out\n        /* \"#utility.yul\":1148:1321   */\n    tag_491:\n        /* \"#utility.yul\":1216:1236   */\n      dup1\n      calldataload\n      sub(shl(0xa0, 0x01), 0x01)\n        /* \"#utility.yul\":1265:1296   */\n      dup2\n      and\n        /* \"#utility.yul\":1255:1297   */\n      dup2\n      eq\n        /* \"#utility.yul\":1245:1315   */\n      tag_506\n      jumpi\n        /* \"#utility.yul\":1311:1312   */\n      0x00\n        /* \"#utility.yul\":1308:1309   */\n      dup1\n        /* \"#utility.yul\":1301:1313   */\n      revert\n        /* \"#utility.yul\":1245:1315   */\n    tag_506:\n        /* \"#utility.yul\":1148:1321   */\n      swap2\n      swap1\n      pop\n      jump\t// out\n        /* \"#utility.yul\":1326:1580   */\n    tag_55:\n        /* \"#utility.yul\":1394:1400   */\n      0x00\n        /* \"#utility.yul\":1402:1408   */\n      dup1\n        /* \"#utility.yul\":1455:1457   */\n      0x40\n        /* \"#utility.yul\":1443:1452   */\n      dup4\n        /* \"#utility.yul\":1434:1441   */\n      dup6\n        /* \"#utility.yul\":1430:1453   */\n      sub\n        /* \"#utility.yul\":1426:1458   */\n      slt\n        /* \"#utility.yul\":1423:1475   */\n      iszero\n      tag_508\n      jumpi\n        /* \"#utility.yul\":1471:1472   */\n      0x00\n        /* \"#utility.yul\":1468:1469   */\n      dup1\n        /* \"#utility.yul\":1461:1473   */\n      revert\n        /* \"#utility.yul\":1423:1475   */\n    tag_508:\n        /* \"#utility.yul\":1494:1523   */\n      tag_509\n        /* \"#utility.yul\":1513:1522   */\n      dup4\n        /* \"#utility.yul\":1494:1523   */\n      tag_491\n      jump\t// in\n    tag_509:\n        /* \"#utility.yul\":1484:1523   */\n      swap5\n        /* \"#utility.yul\":1570:1572   */\n      0x20\n        /* \"#utility.yul\":1555:1573   */\n      swap4\n      swap1\n      swap4\n      add\n        /* \"#utility.yul\":1542:1574   */\n      calldataload\n      swap4\n      pop\n      pop\n      pop\n        /* \"#utility.yul\":1326:1580   */\n      jump\t// out\n        /* \"#utility.yul\":1767:2095   */\n    tag_64:\n        /* \"#utility.yul\":1844:1850   */\n      0x00\n        /* \"#utility.yul\":1852:1858   */\n      dup1\n        /* \"#utility.yul\":1860:1866   */\n      0x00\n        /* \"#utility.yul\":1913:1915   */\n      0x60\n        /* \"#utility.yul\":1901:1910   */\n      dup5\n        /* \"#utility.yul\":1892:1899   */\n      dup7\n        /* \"#utility.yul\":1888:1911   */\n      sub\n        /* \"#utility.yul\":1884:1916   */\n      slt\n        /* \"#utility.yul\":1881:1933   */\n      iszero\n      tag_512\n      jumpi\n        /* \"#utility.yul\":1929:1930   */\n      0x00\n        /* \"#utility.yul\":1926:1927   */\n      dup1\n        /* \"#utility.yul\":1919:1931   */\n      revert\n        /* \"#utility.yul\":1881:1933   */\n    tag_512:\n        /* \"#utility.yul\":1952:1981   */\n      tag_513\n        /* \"#utility.yul\":1971:1980   */\n      dup5\n        /* \"#utility.yul\":1952:1981   */\n      tag_491\n      jump\t// in\n    tag_513:\n        /* \"#utility.yul\":1942:1981   */\n      swap3\n      pop\n        /* \"#utility.yul\":2000:2038   */\n      tag_514\n        /* \"#utility.yul\":2034:2036   */\n      0x20\n        /* \"#utility.yul\":2023:2032   */\n      dup6\n        /* \"#utility.yul\":2019:2037   */\n      add\n        /* \"#utility.yul\":2000:2038   */\n      tag_491\n      jump\t// in\n    tag_514:\n        /* \"#utility.yul\":1990:2038   */\n      swap2\n      pop\n        /* \"#utility.yul\":2085:2087   */\n      0x40\n        /* \"#utility.yul\":2074:2083   */\n      dup5\n        /* \"#utility.yul\":2070:2088   */\n      add\n        /* \"#utility.yul\":2057:2089   */\n      calldataload\n        /* \"#utility.yul\":2047:2089   */\n      swap1\n      pop\n        /* \"#utility.yul\":1767:2095   */\n      swap3\n      pop\n      swap3\n      pop\n      swap3\n      jump\t// out\n        /* \"#utility.yul\":2100:2280   */\n    tag_69:\n        /* \"#utility.yul\":2159:2165   */\n      0x00\n        /* \"#utility.yul\":2212:2214   */\n      0x20\n        /* \"#utility.yul\":2200:2209   */\n      dup3\n        /* \"#utility.yul\":2191:2198   */\n      dup5\n        /* \"#utility.yul\":2187:2210   */\n      sub\n        /* \"#utility.yul\":2183:2215   */\n      slt\n        /* \"#utility.yul\":2180:2232   */\n      iszero\n      tag_516\n      jumpi\n        /* \"#utility.yul\":2228:2229   */\n      0x00\n        /* \"#utility.yul\":2225:2226   */\n      dup1\n        /* \"#utility.yul\":2218:2230   */\n      revert\n        /* \"#utility.yul\":2180:2232   */\n    tag_516:\n      pop\n        /* \"#utility.yul\":2251:2274   */\n      calldataload\n      swap2\n        /* \"#utility.yul\":2100:2280   */\n      swap1\n      pop\n      jump\t// out\n        /* \"#utility.yul\":2467:2721   */\n    tag_75:\n        /* \"#utility.yul\":2535:2541   */\n      0x00\n        /* \"#utility.yul\":2543:2549   */\n      dup1\n        /* \"#utility.yul\":2596:2598   */\n      0x40\n        /* \"#utility.yul\":2584:2593   */\n      dup4\n        /* \"#utility.yul\":2575:2582   */\n      dup6\n        /* \"#utility.yul\":2571:2594   */\n      sub\n        /* \"#utility.yul\":2567:2599   */\n      slt\n        /* \"#utility.yul\":2564:2616   */\n      iszero\n      tag_519\n      jumpi\n        /* \"#utility.yul\":2612:2613   */\n      0x00\n        /* \"#utility.yul\":2609:2610   */\n      dup1\n        /* \"#utility.yul\":2602:2614   */\n      revert\n        /* \"#utility.yul\":2564:2616   */\n    tag_519:\n        /* \"#utility.yul\":2648:2657   */\n      dup3\n        /* \"#utility.yul\":2635:2658   */\n      calldataload\n        /* \"#utility.yul\":2625:2658   */\n      swap2\n      pop\n        /* \"#utility.yul\":2677:2715   */\n      tag_520\n        /* \"#utility.yul\":2711:2713   */\n      0x20\n        /* \"#utility.yul\":2700:2709   */\n      dup5\n        /* \"#utility.yul\":2696:2714   */\n      add\n        /* \"#utility.yul\":2677:2715   */\n      tag_491\n      jump\t// in\n    tag_520:\n        /* \"#utility.yul\":2667:2715   */\n      swap1\n      pop\n        /* \"#utility.yul\":2467:2721   */\n      swap3\n      pop\n      swap3\n      swap1\n      pop\n      jump\t// out\n        /* \"#utility.yul\":3100:3286   */\n    tag_102:\n        /* \"#utility.yul\":3159:3165   */\n      0x00\n        /* \"#utility.yul\":3212:3214   */\n      0x20\n        /* \"#utility.yul\":3200:3209   */\n      dup3\n        /* \"#utility.yul\":3191:3198   */\n      dup5\n        /* \"#utility.yul\":3187:3210   */\n      sub\n        /* \"#utility.yul\":3183:3215   */\n      slt\n        /* \"#utility.yul\":3180:3232   */\n      iszero\n      tag_525\n      jumpi\n        /* \"#utility.yul\":3228:3229   */\n      0x00\n        /* \"#utility.yul\":3225:3226   */\n      dup1\n        /* \"#utility.yul\":3218:3230   */\n      revert\n        /* \"#utility.yul\":3180:3232   */\n    tag_525:\n        /* \"#utility.yul\":3251:3280   */\n      tag_264\n        /* \"#utility.yul\":3270:3279   */\n      dup3\n        /* \"#utility.yul\":3251:3280   */\n      tag_491\n      jump\t// in\n        /* \"#utility.yul\":3499:3747   */\n    tag_121:\n        /* \"#utility.yul\":3567:3573   */\n      0x00\n        /* \"#utility.yul\":3575:3581   */\n      dup1\n        /* \"#utility.yul\":3628:3630   */\n      0x40\n        /* \"#utility.yul\":3616:3625   */\n      dup4\n        /* \"#utility.yul\":3607:3614   */\n      dup6\n        /* \"#utility.yul\":3603:3626   */\n      sub\n        /* \"#utility.yul\":3599:3631   */\n      slt\n        /* \"#utility.yul\":3596:3648   */\n      iszero\n      tag_529\n      jumpi\n        /* \"#utility.yul\":3644:3645   */\n      0x00\n        /* \"#utility.yul\":3641:3642   */\n      dup1\n        /* \"#utility.yul\":3634:3646   */\n      revert\n        /* \"#utility.yul\":3596:3648   */\n    tag_529:\n      pop\n      pop\n        /* \"#utility.yul\":3667:3690   */\n      dup1\n      calldataload\n      swap3\n        /* \"#utility.yul\":3737:3739   */\n      0x20\n        /* \"#utility.yul\":3722:3740   */\n      swap1\n      swap2\n      add\n        /* \"#utility.yul\":3709:3741   */\n      calldataload\n      swap2\n      pop\n        /* \"#utility.yul\":3499:3747   */\n      jump\t// out\n        /* \"#utility.yul\":3752:4012   */\n    tag_157:\n        /* \"#utility.yul\":3820:3826   */\n      0x00\n        /* \"#utility.yul\":3828:3834   */\n      dup1\n        /* \"#utility.yul\":3881:3883   */\n      0x40\n        /* \"#utility.yul\":3869:3878   */\n      dup4\n        /* \"#utility.yul\":3860:3867   */\n      dup6\n        /* \"#utility.yul\":3856:3879   */\n      sub\n        /* \"#utility.yul\":3852:3884   */\n      slt\n        /* \"#utility.yul\":3849:3901   */\n      iszero\n      tag_531\n      jumpi\n        /* \"#utility.yul\":3897:3898   */\n      0x00\n        /* \"#utility.yul\":3894:3895   */\n      dup1\n        /* \"#utility.yul\":3887:3899   */\n      revert\n        /* \"#utility.yul\":3849:3901   */\n    tag_531:\n        /* \"#utility.yul\":3920:3949   */\n      tag_532\n        /* \"#utility.yul\":3939:3948   */\n      dup4\n        /* \"#utility.yul\":3920:3949   */\n      tag_491\n      jump\t// in\n    tag_532:\n        /* \"#utility.yul\":3910:3949   */\n      swap2\n      pop\n        /* \"#utility.yul\":3968:4006   */\n      tag_520\n        /* \"#utility.yul\":4002:4004   */\n      0x20\n        /* \"#utility.yul\":3991:4000   */\n      dup5\n        /* \"#utility.yul\":3987:4005   */\n      add\n        /* \"#utility.yul\":3968:4006   */\n      tag_491\n      jump\t// in\n        /* \"#utility.yul\":4017:4397   */\n    tag_176:\n        /* \"#utility.yul\":4096:4097   */\n      0x01\n        /* \"#utility.yul\":4092:4104   */\n      dup2\n      dup2\n      shr\n      swap1\n        /* \"#utility.yul\":4139:4151   */\n      dup3\n      and\n      dup1\n        /* \"#utility.yul\":4160:4221   */\n      tag_535\n      jumpi\n        /* \"#utility.yul\":4214:4218   */\n      0x7f\n        /* \"#utility.yul\":4206:4212   */\n      dup3\n        /* \"#utility.yul\":4202:4219   */\n      and\n        /* \"#utility.yul\":4192:4219   */\n      swap2\n      pop\n        /* \"#utility.yul\":4160:4221   */\n    tag_535:\n        /* \"#utility.yul\":4267:4269   */\n      0x20\n        /* \"#utility.yul\":4259:4265   */\n      dup3\n        /* \"#utility.yul\":4256:4270   */\n      lt\n        /* \"#utility.yul\":4236:4254   */\n      dup2\n        /* \"#utility.yul\":4233:4271   */\n      eq\n        /* \"#utility.yul\":4230:4391   */\n      iszero\n      tag_536\n      jumpi\n        /* \"#utility.yul\":4313:4323   */\n      0x4e487b71\n        /* \"#utility.yul\":4308:4311   */\n      0xe0\n        /* \"#utility.yul\":4304:4324   */\n      shl\n        /* \"#utility.yul\":4301:4302   */\n      0x00\n        /* \"#utility.yul\":4294:4325   */\n      mstore\n        /* \"#utility.yul\":4348:4352   */\n      0x22\n        /* \"#utility.yul\":4345:4346   */\n      0x04\n        /* \"#utility.yul\":4338:4353   */\n      mstore\n        /* \"#utility.yul\":4376:4380   */\n      0x24\n        /* \"#utility.yul\":4373:4374   */\n      0x00\n        /* \"#utility.yul\":4366:4381   */\n      revert\n        /* \"#utility.yul\":4230:4391   */\n    tag_536:\n      pop\n        /* \"#utility.yul\":4017:4397   */\n      swap2\n      swap1\n      pop\n      jump\t// out\n        /* \"#utility.yul\":4402:4758   */\n    tag_208:\n        /* \"#utility.yul\":4604:4606   */\n      0x20\n        /* \"#utility.yul\":4586:4607   */\n      dup1\n      dup3\n      mstore\n        /* \"#utility.yul\":4623:4641   */\n      dup2\n      dup2\n      add\n        /* \"#utility.yul\":4616:4646   */\n      mstore\n        /* \"#utility.yul\":4682:4716   */\n      0x4f776e61626c653a2063616c6c6572206973206e6f7420746865206f776e6572\n        /* \"#utility.yul\":4677:4679   */\n      0x40\n        /* \"#utility.yul\":4662:4680   */\n      dup3\n      add\n        /* \"#utility.yul\":4655:4717   */\n      mstore\n        /* \"#utility.yul\":4749:4751   */\n      0x60\n        /* \"#utility.yul\":4734:4752   */\n      add\n      swap1\n        /* \"#utility.yul\":4402:4758   */\n      jump\t// out\n        /* \"#utility.yul\":5603:5730   */\n    tag_492:\n        /* \"#utility.yul\":5664:5674   */\n      0x4e487b71\n        /* \"#utility.yul\":5659:5662   */\n      0xe0\n        /* \"#utility.yul\":5655:5675   */\n      shl\n        /* \"#utility.yul\":5652:5653   */\n      0x00\n        /* \"#utility.yul\":5645:5676   */\n      mstore\n        /* \"#utility.yul\":5695:5699   */\n      0x11\n        /* \"#utility.yul\":5692:5693   */\n      0x04\n        /* \"#utility.yul\":5685:5700   */\n      mstore\n        /* \"#utility.yul\":5719:5723   */\n      0x24\n        /* \"#utility.yul\":5716:5717   */\n      0x00\n        /* \"#utility.yul\":5709:5724   */\n      revert\n        /* \"#utility.yul\":5735:5863   */\n    tag_225:\n        /* \"#utility.yul\":5775:5778   */\n      0x00\n        /* \"#utility.yul\":5806:5807   */\n      dup3\n        /* \"#utility.yul\":5802:5808   */\n      not\n        /* \"#utility.yul\":5799:5800   */\n      dup3\n        /* \"#utility.yul\":5796:5809   */\n      gt\n        /* \"#utility.yul\":5793:5832   */\n      iszero\n      tag_543\n      jumpi\n        /* \"#utility.yul\":5812:5830   */\n      tag_543\n      tag_492\n      jump\t// in\n    tag_543:\n      pop\n        /* \"#utility.yul\":5848:5857   */\n      add\n      swap1\n        /* \"#utility.yul\":5735:5863   */\n      jump\t// out\n        /* \"#utility.yul\":9096:9221   */\n    tag_348:\n        /* \"#utility.yul\":9136:9140   */\n      0x00\n        /* \"#utility.yul\":9164:9165   */\n      dup3\n        /* \"#utility.yul\":9161:9162   */\n      dup3\n        /* \"#utility.yul\":9158:9166   */\n      lt\n        /* \"#utility.yul\":9155:9189   */\n      iszero\n      tag_554\n      jumpi\n        /* \"#utility.yul\":9169:9187   */\n      tag_554\n      tag_492\n      jump\t// in\n    tag_554:\n      pop\n        /* \"#utility.yul\":9206:9215   */\n      sub\n      swap1\n        /* \"#utility.yul\":9096:9221   */\n      jump\t// out\n        /* \"#utility.yul\":9226:10012   */\n    tag_359:\n        /* \"#utility.yul\":9637:9662   */\n      0x416363657373436f6e74726f6c3a206163636f756e7420000000000000000000\n        /* \"#utility.yul\":9632:9635   */\n      dup2\n        /* \"#utility.yul\":9625:9663   */\n      mstore\n        /* \"#utility.yul\":9607:9610   */\n      0x00\n        /* \"#utility.yul\":9692:9698   */\n      dup4\n        /* \"#utility.yul\":9686:9699   */\n      mload\n        /* \"#utility.yul\":9708:9770   */\n      tag_556\n        /* \"#utility.yul\":9763:9769   */\n      dup2\n        /* \"#utility.yul\":9758:9760   */\n      0x17\n        /* \"#utility.yul\":9753:9756   */\n      dup6\n        /* \"#utility.yul\":9749:9761   */\n      add\n        /* \"#utility.yul\":9742:9746   */\n      0x20\n        /* \"#utility.yul\":9734:9740   */\n      dup9\n        /* \"#utility.yul\":9730:9747   */\n      add\n        /* \"#utility.yul\":9708:9770   */\n      tag_490\n      jump\t// in\n    tag_556:\n      shl(0x7d, 0x01034b99036b4b9b9b4b733903937b6329)\n        /* \"#utility.yul\":9829:9831   */\n      0x17\n        /* \"#utility.yul\":9789:9805   */\n      swap2\n      dup5\n      add\n        /* \"#utility.yul\":9821:9832   */\n      swap2\n      dup3\n      add\n        /* \"#utility.yul\":9814:9854   */\n      mstore\n        /* \"#utility.yul\":9879:9892   */\n      dup4\n      mload\n        /* \"#utility.yul\":9901:9964   */\n      tag_557\n        /* \"#utility.yul\":9879:9892   */\n      dup2\n        /* \"#utility.yul\":9950:9952   */\n      0x28\n        /* \"#utility.yul\":9942:9953   */\n      dup5\n      add\n        /* \"#utility.yul\":9935:9939   */\n      0x20\n        /* \"#utility.yul\":9923:9940   */\n      dup9\n      add\n        /* \"#utility.yul\":9901:9964   */\n      tag_490\n      jump\t// in\n    tag_557:\n        /* \"#utility.yul\":9984:10001   */\n      add\n        /* \"#utility.yul\":10003:10005   */\n      0x28\n        /* \"#utility.yul\":9980:10006   */\n      add\n      swap5\n        /* \"#utility.yul\":9226:10012   */\n      swap4\n      pop\n      pop\n      pop\n      pop\n      jump\t// out\n        /* \"#utility.yul\":11516:11684   */\n    tag_414:\n        /* \"#utility.yul\":11556:11563   */\n      0x00\n        /* \"#utility.yul\":11622:11623   */\n      dup2\n        /* \"#utility.yul\":11618:11619   */\n      0x00\n        /* \"#utility.yul\":11614:11620   */\n      not\n        /* \"#utility.yul\":11610:11624   */\n      div\n        /* \"#utility.yul\":11607:11608   */\n      dup4\n        /* \"#utility.yul\":11604:11625   */\n      gt\n        /* \"#utility.yul\":11599:11600   */\n      dup3\n        /* \"#utility.yul\":11592:11601   */\n      iszero\n        /* \"#utility.yul\":11585:11602   */\n      iszero\n        /* \"#utility.yul\":11581:11626   */\n      and\n        /* \"#utility.yul\":11578:11649   */\n      iszero\n      tag_564\n      jumpi\n        /* \"#utility.yul\":11629:11647   */\n      tag_564\n      tag_492\n      jump\t// in\n    tag_564:\n      pop\n        /* \"#utility.yul\":11669:11678   */\n      mul\n      swap1\n        /* \"#utility.yul\":11516:11684   */\n      jump\t// out\n        /* \"#utility.yul\":11689:11906   */\n    tag_417:\n        /* \"#utility.yul\":11729:11730   */\n      0x00\n        /* \"#utility.yul\":11755:11756   */\n      dup3\n        /* \"#utility.yul\":11745:11877   */\n      tag_566\n      jumpi\n        /* \"#utility.yul\":11799:11809   */\n      0x4e487b71\n        /* \"#utility.yul\":11794:11797   */\n      0xe0\n        /* \"#utility.yul\":11790:11810   */\n      shl\n        /* \"#utility.yul\":11787:11788   */\n      0x00\n        /* \"#utility.yul\":11780:11811   */\n      mstore\n        /* \"#utility.yul\":11834:11838   */\n      0x12\n        /* \"#utility.yul\":11831:11832   */\n      0x04\n        /* \"#utility.yul\":11824:11839   */\n      mstore\n        /* \"#utility.yul\":11862:11866   */\n      0x24\n        /* \"#utility.yul\":11859:11860   */\n      0x00\n        /* \"#utility.yul\":11852:11867   */\n      revert\n        /* \"#utility.yul\":11745:11877   */\n    tag_566:\n      pop\n        /* \"#utility.yul\":11891:11900   */\n      div\n      swap1\n        /* \"#utility.yul\":11689:11906   */\n      jump\t// out\n        /* \"#utility.yul\":13128:13255   */\n    tag_437:\n        /* \"#utility.yul\":13189:13199   */\n      0x4e487b71\n        /* \"#utility.yul\":13184:13187   */\n      0xe0\n        /* \"#utility.yul\":13180:13200   */\n      shl\n        /* \"#utility.yul\":13177:13178   */\n      0x00\n        /* \"#utility.yul\":13170:13201   */\n      mstore\n        /* \"#utility.yul\":13220:13224   */\n      0x41\n        /* \"#utility.yul\":13217:13218   */\n      0x04\n        /* \"#utility.yul\":13210:13225   */\n      mstore\n        /* \"#utility.yul\":13244:13248   */\n      0x24\n        /* \"#utility.yul\":13241:13242   */\n      0x00\n        /* \"#utility.yul\":13234:13249   */\n      revert\n        /* \"#utility.yul\":13260:13387   */\n    tag_441:\n        /* \"#utility.yul\":13321:13331   */\n      0x4e487b71\n        /* \"#utility.yul\":13316:13319   */\n      0xe0\n        /* \"#utility.yul\":13312:13332   */\n      shl\n        /* \"#utility.yul\":13309:13310   */\n      0x00\n        /* \"#utility.yul\":13302:13333   */\n      mstore\n        /* \"#utility.yul\":13352:13356   */\n      0x32\n        /* \"#utility.yul\":13349:13350   */\n      0x04\n        /* \"#utility.yul\":13342:13357   */\n      mstore\n        /* \"#utility.yul\":13376:13380   */\n      0x24\n        /* \"#utility.yul\":13373:13374   */\n      0x00\n        /* \"#utility.yul\":13366:13381   */\n      revert\n        /* \"#utility.yul\":13392:13528   */\n    tag_454:\n        /* \"#utility.yul\":13431:13434   */\n      0x00\n        /* \"#utility.yul\":13459:13464   */\n      dup2\n        /* \"#utility.yul\":13449:13488   */\n      tag_574\n      jumpi\n        /* \"#utility.yul\":13468:13486   */\n      tag_574\n      tag_492\n      jump\t// in\n    tag_574:\n      pop\n      not(0x00)\n        /* \"#utility.yul\":13504:13522   */\n      add\n      swap1\n        /* \"#utility.yul\":13392:13528   */\n      jump\t// out\n        /* \"#utility.yul\":13894:14021   */\n    tag_487:\n        /* \"#utility.yul\":13955:13965   */\n      0x4e487b71\n        /* \"#utility.yul\":13950:13953   */\n      0xe0\n        /* \"#utility.yul\":13946:13966   */\n      shl\n        /* \"#utility.yul\":13943:13944   */\n      0x00\n        /* \"#utility.yul\":13936:13967   */\n      mstore\n        /* \"#utility.yul\":13986:13990   */\n      0x31\n        /* \"#utility.yul\":13983:13984   */\n      0x04\n        /* \"#utility.yul\":13976:13991   */\n      mstore\n        /* \"#utility.yul\":14010:14014   */\n      0x24\n        /* \"#utility.yul\":14007:14008   */\n      0x00\n        /* \"#utility.yul\":14000:14015   */\n      revert\n\n    auxdata: 0xa2646970667358221220a5f9f9f156aaf893ae21f4bd44aa46862b600de57043c87f489e10282ac0ae3864736f6c634300080b0033\n}\n",
				"bytecode": {
					"linkReferences": {},
					"object": "60806040523480156200001157600080fd5b50604051620021e1380380620021e18339810160408190526200003491620005f7565b8151829082906200004d90600590602085019062000484565b5080516200006390600690602084019062000484565b50506007805460ff19169055506200007b3362000136565b6200008860003362000190565b620000b47f9f2df0fed2c77648de5860a4cc508cd0818c85b8b8a1ab4ceeef8d981c8956a63362000190565b620000e07f65d7a28e3265b37a6474929f336521b332c1681b933f6cb9f3376673440d862a3362000190565b620000f860075461010090046001600160a01b031690565b600980546001600160a01b0319166001600160a01b039283161790556007546200012e9161010090910416633b9aca00620001a0565b5050620006c5565b600780546001600160a01b03838116610100818102610100600160a81b031985161790945560405193909204169182907f8be0079c531659141344cd1fd0a4f28419497f9722a3daafe3b4186f6b6457e090600090a35050565b6200019c828262000297565b5050565b6001600160a01b038216620001fc5760405162461bcd60e51b815260206004820152601f60248201527f45524332303a206d696e7420746f20746865207a65726f20616464726573730060448201526064015b60405180910390fd5b6200020a60008383620002da565b80600460008282546200021e919062000661565b90915550506001600160a01b038216600090815260026020526040812080548392906200024d90849062000661565b90915550506040518181526001600160a01b038316906000907fddf252ad1be2c89b69c2b068fc378daa952ba7f163c4a11628f55a4df523b3ef9060200160405180910390a35050565b620002ae8282620002f260201b62000b201760201c565b6000828152600160209081526040909120620002d591839062000ba462000392821b17901c565b505050565b620002d5838383620003b260201b62000bb91760201c565b6000828152602081815260408083206001600160a01b038516845290915290205460ff166200019c576000828152602081815260408083206001600160a01b03851684529091529020805460ff191660011790556200034e3390565b6001600160a01b0316816001600160a01b0316837f2f8788117e7eff1d82e926ec794901d17c78024a50270940304540a733656f0d60405160405180910390a45050565b6000620003a9836001600160a01b03841662000432565b90505b92915050565b620003ca838383620002d560201b620005f51760201c565b60075460ff1615620002d55760405162461bcd60e51b815260206004820152602a60248201527f45524332305061757361626c653a20746f6b656e207472616e736665722077686044820152691a5b19481c185d5cd95960b21b6064820152608401620001f3565b60008181526001830160205260408120546200047b57508154600181810184556000848152602080822090930184905584548482528286019093526040902091909155620003ac565b506000620003ac565b828054620004929062000688565b90600052602060002090601f016020900481019282620004b6576000855562000501565b82601f10620004d157805160ff191683800117855562000501565b8280016001018555821562000501579182015b8281111562000501578251825591602001919060010190620004e4565b506200050f92915062000513565b5090565b5b808211156200050f576000815560010162000514565b634e487b7160e01b600052604160045260246000fd5b600082601f8301126200055257600080fd5b81516001600160401b03808211156200056f576200056f6200052a565b604051601f8301601f19908116603f011681019082821181831017156200059a576200059a6200052a565b81604052838152602092508683858801011115620005b757600080fd5b600091505b83821015620005db5785820183015181830184015290820190620005bc565b83821115620005ed5760008385830101525b9695505050505050565b600080604083850312156200060b57600080fd5b82516001600160401b03808211156200062357600080fd5b620006318683870162000540565b935060208501519150808211156200064857600080fd5b50620006578582860162000540565b9150509250929050565b600082198211156200068357634e487b7160e01b600052601160045260246000fd5b500190565b600181811c908216806200069d57607f821691505b60208210811415620006bf57634e487b7160e01b600052602260045260246000fd5b50919050565b611b0c80620006d56000396000f3fe608060405234801561001057600080fd5b50600436106101fb5760003560e01c806379cc67901161011a578063a217fddf116100ad578063d53913931161007c578063d539139314610429578063d547741f14610450578063dd62ed3e14610463578063e63ab1e91461049c578063f2fde38b146104c357600080fd5b8063a217fddf146103e8578063a457c2d7146103f0578063a9059cbb14610403578063ca15c8731461041657600080fd5b80639010d07c116100e95780639010d07c146103a757806391d14854146103ba57806395d89b41146103cd578063a128471f146103d557600080fd5b806379cc67901461034c5780638456cb591461035f578063893d20e8146103675780638da5cb5b1461039157600080fd5b8063357bf15c1161019257806342966c681161016157806342966c68146102fd5780635c975abb1461031057806370a082311461031b578063715018a61461034457600080fd5b8063357bf15c146102bc57806336568abe146102cf57806339509351146102e25780633f4ba83a146102f557600080fd5b806323b872dd116101ce57806323b872dd14610262578063248a9ca3146102755780632f2ff15d14610298578063313ce567146102ad57600080fd5b806301ffc9a71461020057806306fdde0314610228578063095ea7b31461023d57806318160ddd14610250575b600080fd5b61021361020e36600461175b565b6104d6565b60405190151581526020015b60405180910390f35b610230610501565b60405161021f91906117b1565b61021361024b366004611800565b610593565b6004545b60405190815260200161021f565b61021361027036600461182a565b6105ab565b610254610283366004611866565b60009081526020819052604090206001015490565b6102ab6102a636600461187f565b6105cf565b005b6040516012815260200161021f565b6102ab6102ca366004611866565b6105fa565b6102ab6102dd36600461187f565b6106af565b6102136102f0366004611800565b61072d565b6102ab61076c565b6102ab61030b366004611866565b610808565b60075460ff16610213565b6102546103293660046118ab565b6001600160a01b031660009081526002602052604090205490565b6102ab610815565b6102ab61035a366004611800565b61084f565b6102ab610864565b60075461010090046001600160a01b03165b6040516001600160a01b03909116815260200161021f565b60075461010090046001600160a01b0316610379565b6103796103b53660046118c6565b6108fc565b6102136103c836600461187f565b61091b565b610230610944565b6102ab6103e33660046118ab565b610953565b610254600081565b6102136103fe366004611800565b6109a5565b610213610411366004611800565b610a37565b610254610424366004611866565b610a45565b6102547f9f2df0fed2c77648de5860a4cc508cd0818c85b8b8a1ab4ceeef8d981c8956a681565b6102ab61045e36600461187f565b610a5c565b6102546104713660046118e8565b6001600160a01b03918216600090815260036020908152604080832093909416825291909152205490565b6102547f65d7a28e3265b37a6474929f336521b332c1681b933f6cb9f3376673440d862a81565b6102ab6104d13660046118ab565b610a82565b60006001600160e01b03198216635a05180f60e01b14806104fb57506104fb82610c1f565b92915050565b60606005805461051090611912565b80601f016020809104026020016040519081016040528092919081815260200182805461053c90611912565b80156105895780601f1061055e57610100808354040283529160200191610589565b820191906000526020600020905b81548152906001019060200180831161056c57829003601f168201915b5050505050905090565b6000336105a1818585610c54565b5060019392505050565b6000336105b9858285610d78565b6105c4858585610e0a565b506001949350505050565b6000828152602081905260409020600101546105eb8133610e5d565b6105f58383610ec1565b505050565b6007546001600160a01b036101009091041633146106335760405162461bcd60e51b815260040161062a9061194d565b60405180910390fd5b60648111156106aa5760405162461bcd60e51b815260206004820152603760248201527f4865726f204177616b656e20546f6b656e3a206c69717569646974792066656560448201527f206d757374206265747765656e203020616e6420313030000000000000000000606482015260840161062a565b600855565b6001600160a01b038116331461071f5760405162461bcd60e51b815260206004820152602f60248201527f416363657373436f6e74726f6c3a2063616e206f6e6c792072656e6f756e636560448201526e103937b632b9903337b91039b2b63360891b606482015260840161062a565b6107298282610ee3565b5050565b3360008181526003602090815260408083206001600160a01b03871684529091528120549091906105a19082908690610767908790611998565b610c54565b6107967f65d7a28e3265b37a6474929f336521b332c1681b933f6cb9f3376673440d862a3361091b565b6107fe5760405162461bcd60e51b815260206004820152603360248201527f4865726f204177616b656e20546f6b656e3a206d75737420686176652070617560448201527273657220726f6c6520746f20756e706175736560681b606482015260840161062a565b610806610f05565b565b6108123382610f98565b50565b6007546001600160a01b036101009091041633146108455760405162461bcd60e51b815260040161062a9061194d565b61080660006110f2565b61085a823383610d78565b6107298282610f98565b61088e7f65d7a28e3265b37a6474929f336521b332c1681b933f6cb9f3376673440d862a3361091b565b6108f45760405162461bcd60e51b815260206004820152603160248201527f4865726f204177616b656e20546f6b656e3a206d75737420686176652070617560448201527073657220726f6c6520746f20706175736560781b606482015260840161062a565b61080661114c565b600082815260016020526040812061091490836111c7565b9392505050565b6000918252602082815260408084206001600160a01b0393909316845291905290205460ff1690565b60606006805461051090611912565b6007546001600160a01b036101009091041633146109835760405162461bcd60e51b815260040161062a9061194d565b600980546001600160a01b0319166001600160a01b0392909216919091179055565b3360008181526003602090815260408083206001600160a01b038716845290915281205490919083811015610a2a5760405162461bcd60e51b815260206004820152602560248201527f45524332303a2064656372656173656420616c6c6f77616e63652062656c6f77604482015264207a65726f60d81b606482015260840161062a565b6105c48286868403610c54565b6000336105a1818585610e0a565b60008181526001602052604081206104fb906111d3565b600082815260208190526040902060010154610a788133610e5d565b6105f58383610ee3565b6007546001600160a01b03610100909104163314610ab25760405162461bcd60e51b815260040161062a9061194d565b6001600160a01b038116610b175760405162461bcd60e51b815260206004820152602660248201527f4f776e61626c653a206e6577206f776e657220697320746865207a65726f206160448201526564647265737360d01b606482015260840161062a565b610812816110f2565b610b2a828261091b565b610729576000828152602081815260408083206001600160a01b03851684529091529020805460ff19166001179055610b603390565b6001600160a01b0316816001600160a01b0316837f2f8788117e7eff1d82e926ec794901d17c78024a50270940304540a733656f0d60405160405180910390a45050565b6000610914836001600160a01b0384166111dd565b60075460ff16156105f55760405162461bcd60e51b815260206004820152602a60248201527f45524332305061757361626c653a20746f6b656e207472616e736665722077686044820152691a5b19481c185d5cd95960b21b606482015260840161062a565b60006001600160e01b03198216637965db0b60e01b14806104fb57506301ffc9a760e01b6001600160e01b03198316146104fb565b6001600160a01b038316610cb65760405162461bcd60e51b8152602060048201526024808201527f45524332303a20617070726f76652066726f6d20746865207a65726f206164646044820152637265737360e01b606482015260840161062a565b6001600160a01b038216610d175760405162461bcd60e51b815260206004820152602260248201527f45524332303a20617070726f766520746f20746865207a65726f206164647265604482015261737360f01b606482015260840161062a565b6001600160a01b0383811660008181526003602090815260408083209487168084529482529182902085905590518481527f8c5be1e5ebec7d5bd14f71427d1e84f3dd0314c0f7b2291e5b200ac8c7c3b925910160405180910390a3505050565b6001600160a01b038381166000908152600360209081526040808320938616835292905220546000198114610e045781811015610df75760405162461bcd60e51b815260206004820152601d60248201527f45524332303a20696e73756666696369656e7420616c6c6f77616e6365000000604482015260640161062a565b610e048484848403610c54565b50505050565b6000610e2c6064610e266008548561122c90919063ffffffff16565b90611238565b9050610e3881836119b0565b9150610e45848484611244565b600954610e049085906001600160a01b031683611244565b610e67828261091b565b61072957610e7f816001600160a01b0316601461141d565b610e8a83602061141d565b604051602001610e9b9291906119c7565b60408051601f198184030181529082905262461bcd60e51b825261062a916004016117b1565b610ecb8282610b20565b60008281526001602052604090206105f59082610ba4565b610eed82826115b9565b60008281526001602052604090206105f5908261161e565b60075460ff16610f4e5760405162461bcd60e51b815260206004820152601460248201527314185d5cd8589b194e881b9bdd081c185d5cd95960621b604482015260640161062a565b6007805460ff191690557f5db9ee0a495bf2e6ff9c91a7834c1ba4fdd244a5e8aa4e537bd38aeae4b073aa335b6040516001600160a01b03909116815260200160405180910390a1565b6001600160a01b038216610ff85760405162461bcd60e51b815260206004820152602160248201527f45524332303a206275726e2066726f6d20746865207a65726f206164647265736044820152607360f81b606482015260840161062a565b61100482600083611633565b6001600160a01b038216600090815260026020526040902054818110156110785760405162461bcd60e51b815260206004820152602260248201527f45524332303a206275726e20616d6f756e7420657863656564732062616c616e604482015261636560f01b606482015260840161062a565b6001600160a01b03831660009081526002602052604081208383039055600480548492906110a79084906119b0565b90915550506040518281526000906001600160a01b038516907fddf252ad1be2c89b69c2b068fc378daa952ba7f163c4a11628f55a4df523b3ef9060200160405180910390a3505050565b600780546001600160a01b03838116610100818102610100600160a81b031985161790945560405193909204169182907f8be0079c531659141344cd1fd0a4f28419497f9722a3daafe3b4186f6b6457e090600090a35050565b60075460ff16156111925760405162461bcd60e51b815260206004820152601060248201526f14185d5cd8589b194e881c185d5cd95960821b604482015260640161062a565b6007805460ff191660011790557f62e78cea01bee320cd4e420270b5ea74000d11b0c9f74754ebdbfc544b05a258610f7b3390565b6000610914838361163e565b60006104fb825490565b6000818152600183016020526040812054611224575081546001818101845560008481526020808220909301849055845484825282860190935260409020919091556104fb565b5060006104fb565b60006109148284611a3c565b60006109148284611a5b565b6001600160a01b0383166112a85760405162461bcd60e51b815260206004820152602560248201527f45524332303a207472616e736665722066726f6d20746865207a65726f206164604482015264647265737360d81b606482015260840161062a565b6001600160a01b03821661130a5760405162461bcd60e51b815260206004820152602360248201527f45524332303a207472616e7366657220746f20746865207a65726f206164647260448201526265737360e81b606482015260840161062a565b611315838383611633565b6001600160a01b0383166000908152600260205260409020548181101561138d5760405162461bcd60e51b815260206004820152602660248201527f45524332303a207472616e7366657220616d6f756e7420657863656564732062604482015265616c616e636560d01b606482015260840161062a565b6001600160a01b038085166000908152600260205260408082208585039055918516815290812080548492906113c4908490611998565b92505081905550826001600160a01b0316846001600160a01b03167fddf252ad1be2c89b69c2b068fc378daa952ba7f163c4a11628f55a4df523b3ef8460405161141091815260200190565b60405180910390a3610e04565b6060600061142c836002611a3c565b611437906002611998565b67ffffffffffffffff81111561144f5761144f611a7d565b6040519080825280601f01601f191660200182016040528015611479576020820181803683370190505b509050600360fc1b8160008151811061149457611494611a93565b60200101906001600160f81b031916908160001a905350600f60fb1b816001815181106114c3576114c3611a93565b60200101906001600160f81b031916908160001a90535060006114e7846002611a3c565b6114f2906001611998565b90505b600181111561156a576f181899199a1a9b1b9c1cb0b131b232b360811b85600f166010811061152657611526611a93565b1a60f81b82828151811061153c5761153c611a93565b60200101906001600160f81b031916908160001a90535060049490941c9361156381611aa9565b90506114f5565b5083156109145760405162461bcd60e51b815260206004820181905260248201527f537472696e67733a20686578206c656e67746820696e73756666696369656e74604482015260640161062a565b6115c3828261091b565b15610729576000828152602081815260408083206001600160a01b0385168085529252808320805460ff1916905551339285917ff6391f5c32d9c69d2a47ea670b442974b53935d1edc7fd64eb21e047a839171b9190a45050565b6000610914836001600160a01b038416611668565b6105f5838383610bb9565b600082600001828154811061165557611655611a93565b9060005260206000200154905092915050565b6000818152600183016020526040812054801561175157600061168c6001836119b0565b85549091506000906116a0906001906119b0565b90508181146117055760008660000182815481106116c0576116c0611a93565b90600052602060002001549050808760000184815481106116e3576116e3611a93565b6000918252602080832090910192909255918252600188019052604090208390555b855486908061171657611716611ac0565b6001900381819060005260206000200160009055905585600101600086815260200190815260200160002060009055600193505050506104fb565b60009150506104fb565b60006020828403121561176d57600080fd5b81356001600160e01b03198116811461091457600080fd5b60005b838110156117a0578181015183820152602001611788565b83811115610e045750506000910152565b60208152600082518060208401526117d0816040850160208701611785565b601f01601f19169190910160400192915050565b80356001600160a01b03811681146117fb57600080fd5b919050565b6000806040838503121561181357600080fd5b61181c836117e4565b946020939093013593505050565b60008060006060848603121561183f57600080fd5b611848846117e4565b9250611856602085016117e4565b9150604084013590509250925092565b60006020828403121561187857600080fd5b5035919050565b6000806040838503121561189257600080fd5b823591506118a2602084016117e4565b90509250929050565b6000602082840312156118bd57600080fd5b610914826117e4565b600080604083850312156118d957600080fd5b50508035926020909101359150565b600080604083850312156118fb57600080fd5b611904836117e4565b91506118a2602084016117e4565b600181811c9082168061192657607f821691505b6020821081141561194757634e487b7160e01b600052602260045260246000fd5b50919050565b6020808252818101527f4f776e61626c653a2063616c6c6572206973206e6f7420746865206f776e6572604082015260600190565b634e487b7160e01b600052601160045260246000fd5b600082198211156119ab576119ab611982565b500190565b6000828210156119c2576119c2611982565b500390565b7f416363657373436f6e74726f6c3a206163636f756e74200000000000000000008152600083516119ff816017850160208801611785565b7001034b99036b4b9b9b4b733903937b6329607d1b6017918401918201528351611a30816028840160208801611785565b01602801949350505050565b6000816000190483118215151615611a5657611a56611982565b500290565b600082611a7857634e487b7160e01b600052601260045260246000fd5b500490565b634e487b7160e01b600052604160045260246000fd5b634e487b7160e01b600052603260045260246000fd5b600081611ab857611ab8611982565b506000190190565b634e487b7160e01b600052603160045260246000fdfea2646970667358221220a5f9f9f156aaf893ae21f4bd44aa46862b600de57043c87f489e10282ac0ae3864736f6c634300080b0033",
					"opcodes": "PUSH1 0x80 PUSH1 0x40 MSTORE CALLVALUE DUP1 ISZERO PUSH3 0x11 JUMPI PUSH1 0x0 DUP1 REVERT JUMPDEST POP PUSH1 0x40 MLOAD PUSH3 0x21E1 CODESIZE SUB DUP1 PUSH3 0x21E1 DUP4 CODECOPY DUP2 ADD PUSH1 0x40 DUP2 SWAP1 MSTORE PUSH3 0x34 SWAP2 PUSH3 0x5F7 JUMP JUMPDEST DUP2 MLOAD DUP3 SWAP1 DUP3 SWAP1 PUSH3 0x4D SWAP1 PUSH1 0x5 SWAP1 PUSH1 0x20 DUP6 ADD SWAP1 PUSH3 0x484 JUMP JUMPDEST POP DUP1 MLOAD PUSH3 0x63 SWAP1 PUSH1 0x6 SWAP1 PUSH1 0x20 DUP5 ADD SWAP1 PUSH3 0x484 JUMP JUMPDEST POP POP PUSH1 0x7 DUP1 SLOAD PUSH1 0xFF NOT AND SWAP1 SSTORE POP PUSH3 0x7B CALLER PUSH3 0x136 JUMP JUMPDEST PUSH3 0x88 PUSH1 0x0 CALLER PUSH3 0x190 JUMP JUMPDEST PUSH3 0xB4 PUSH32 0x9F2DF0FED2C77648DE5860A4CC508CD0818C85B8B8A1AB4CEEEF8D981C8956A6 CALLER PUSH3 0x190 JUMP JUMPDEST PUSH3 0xE0 PUSH32 0x65D7A28E3265B37A6474929F336521B332C1681B933F6CB9F3376673440D862A CALLER PUSH3 0x190 JUMP JUMPDEST PUSH3 0xF8 PUSH1 0x7 SLOAD PUSH2 0x100 SWAP1 DIV PUSH1 0x1 PUSH1 0x1 PUSH1 0xA0 SHL SUB AND SWAP1 JUMP JUMPDEST PUSH1 0x9 DUP1 SLOAD PUSH1 0x1 PUSH1 0x1 PUSH1 0xA0 SHL SUB NOT AND PUSH1 0x1 PUSH1 0x1 PUSH1 0xA0 SHL SUB SWAP3 DUP4 AND OR SWAP1 SSTORE PUSH1 0x7 SLOAD PUSH3 0x12E SWAP2 PUSH2 0x100 SWAP1 SWAP2 DIV AND PUSH4 0x3B9ACA00 PUSH3 0x1A0 JUMP JUMPDEST POP POP PUSH3 0x6C5 JUMP JUMPDEST PUSH1 0x7 DUP1 SLOAD PUSH1 0x1 PUSH1 0x1 PUSH1 0xA0 SHL SUB DUP4 DUP2 AND PUSH2 0x100 DUP2 DUP2 MUL PUSH2 0x100 PUSH1 0x1 PUSH1 0xA8 SHL SUB NOT DUP6 AND OR SWAP1 SWAP5 SSTORE PUSH1 0x40 MLOAD SWAP4 SWAP1 SWAP3 DIV AND SWAP2 DUP3 SWAP1 PUSH32 0x8BE0079C531659141344CD1FD0A4F28419497F9722A3DAAFE3B4186F6B6457E0 SWAP1 PUSH1 0x0 SWAP1 LOG3 POP POP JUMP JUMPDEST PUSH3 0x19C DUP3 DUP3 PUSH3 0x297 JUMP JUMPDEST POP POP JUMP JUMPDEST PUSH1 0x1 PUSH1 0x1 PUSH1 0xA0 SHL SUB DUP3 AND PUSH3 0x1FC JUMPI PUSH1 0x40 MLOAD PUSH3 0x461BCD PUSH1 0xE5 SHL DUP2 MSTORE PUSH1 0x20 PUSH1 0x4 DUP3 ADD MSTORE PUSH1 0x1F PUSH1 0x24 DUP3 ADD MSTORE PUSH32 0x45524332303A206D696E7420746F20746865207A65726F206164647265737300 PUSH1 0x44 DUP3 ADD MSTORE PUSH1 0x64 ADD JUMPDEST PUSH1 0x40 MLOAD DUP1 SWAP2 SUB SWAP1 REVERT JUMPDEST PUSH3 0x20A PUSH1 0x0 DUP4 DUP4 PUSH3 0x2DA JUMP JUMPDEST DUP1 PUSH1 0x4 PUSH1 0x0 DUP3 DUP3 SLOAD PUSH3 0x21E SWAP2 SWAP1 PUSH3 0x661 JUMP JUMPDEST SWAP1 SWAP2 SSTORE POP POP PUSH1 0x1 PUSH1 0x1 PUSH1 0xA0 SHL SUB DUP3 AND PUSH1 0x0 SWAP1 DUP2 MSTORE PUSH1 0x2 PUSH1 0x20 MSTORE PUSH1 0x40 DUP2 KECCAK256 DUP1 SLOAD DUP4 SWAP3 SWAP1 PUSH3 0x24D SWAP1 DUP5 SWAP1 PUSH3 0x661 JUMP JUMPDEST SWAP1 SWAP2 SSTORE POP POP PUSH1 0x40 MLOAD DUP2 DUP2 MSTORE PUSH1 0x1 PUSH1 0x1 PUSH1 0xA0 SHL SUB DUP4 AND SWAP1 PUSH1 0x0 SWAP1 PUSH32 0xDDF252AD1BE2C89B69C2B068FC378DAA952BA7F163C4A11628F55A4DF523B3EF SWAP1 PUSH1 0x20 ADD PUSH1 0x40 MLOAD DUP1 SWAP2 SUB SWAP1 LOG3 POP POP JUMP JUMPDEST PUSH3 0x2AE DUP3 DUP3 PUSH3 0x2F2 PUSH1 0x20 SHL PUSH3 0xB20 OR PUSH1 0x20 SHR JUMP JUMPDEST PUSH1 0x0 DUP3 DUP2 MSTORE PUSH1 0x1 PUSH1 0x20 SWAP1 DUP2 MSTORE PUSH1 0x40 SWAP1 SWAP2 KECCAK256 PUSH3 0x2D5 SWAP2 DUP4 SWAP1 PUSH3 0xBA4 PUSH3 0x392 DUP3 SHL OR SWAP1 SHR JUMP JUMPDEST POP POP POP JUMP JUMPDEST PUSH3 0x2D5 DUP4 DUP4 DUP4 PUSH3 0x3B2 PUSH1 0x20 SHL PUSH3 0xBB9 OR PUSH1 0x20 SHR JUMP JUMPDEST PUSH1 0x0 DUP3 DUP2 MSTORE PUSH1 0x20 DUP2 DUP2 MSTORE PUSH1 0x40 DUP1 DUP4 KECCAK256 PUSH1 0x1 PUSH1 0x1 PUSH1 0xA0 SHL SUB DUP6 AND DUP5 MSTORE SWAP1 SWAP2 MSTORE SWAP1 KECCAK256 SLOAD PUSH1 0xFF AND PUSH3 0x19C JUMPI PUSH1 0x0 DUP3 DUP2 MSTORE PUSH1 0x20 DUP2 DUP2 MSTORE PUSH1 0x40 DUP1 DUP4 KECCAK256 PUSH1 0x1 PUSH1 0x1 PUSH1 0xA0 SHL SUB DUP6 AND DUP5 MSTORE SWAP1 SWAP2 MSTORE SWAP1 KECCAK256 DUP1 SLOAD PUSH1 0xFF NOT AND PUSH1 0x1 OR SWAP1 SSTORE PUSH3 0x34E CALLER SWAP1 JUMP JUMPDEST PUSH1 0x1 PUSH1 0x1 PUSH1 0xA0 SHL SUB AND DUP2 PUSH1 0x1 PUSH1 0x1 PUSH1 0xA0 SHL SUB AND DUP4 PUSH32 0x2F8788117E7EFF1D82E926EC794901D17C78024A50270940304540A733656F0D PUSH1 0x40 MLOAD PUSH1 0x40 MLOAD DUP1 SWAP2 SUB SWAP1 LOG4 POP POP JUMP JUMPDEST PUSH1 0x0 PUSH3 0x3A9 DUP4 PUSH1 0x1 PUSH1 0x1 PUSH1 0xA0 SHL SUB DUP5 AND PUSH3 0x432 JUMP JUMPDEST SWAP1 POP JUMPDEST SWAP3 SWAP2 POP POP JUMP JUMPDEST PUSH3 0x3CA DUP4 DUP4 DUP4 PUSH3 0x2D5 PUSH1 0x20 SHL PUSH3 0x5F5 OR PUSH1 0x20 SHR JUMP JUMPDEST PUSH1 0x7 SLOAD PUSH1 0xFF AND ISZERO PUSH3 0x2D5 JUMPI PUSH1 0x40 MLOAD PUSH3 0x461BCD PUSH1 0xE5 SHL DUP2 MSTORE PUSH1 0x20 PUSH1 0x4 DUP3 ADD MSTORE PUSH1 0x2A PUSH1 0x24 DUP3 ADD MSTORE PUSH32 0x45524332305061757361626C653A20746F6B656E207472616E73666572207768 PUSH1 0x44 DUP3 ADD MSTORE PUSH10 0x1A5B19481C185D5CD959 PUSH1 0xB2 SHL PUSH1 0x64 DUP3 ADD MSTORE PUSH1 0x84 ADD PUSH3 0x1F3 JUMP JUMPDEST PUSH1 0x0 DUP2 DUP2 MSTORE PUSH1 0x1 DUP4 ADD PUSH1 0x20 MSTORE PUSH1 0x40 DUP2 KECCAK256 SLOAD PUSH3 0x47B JUMPI POP DUP2 SLOAD PUSH1 0x1 DUP2 DUP2 ADD DUP5 SSTORE PUSH1 0x0 DUP5 DUP2 MSTORE PUSH1 0x20 DUP1 DUP3 KECCAK256 SWAP1 SWAP4 ADD DUP5 SWAP1 SSTORE DUP5 SLOAD DUP5 DUP3 MSTORE DUP3 DUP7 ADD SWAP1 SWAP4 MSTORE PUSH1 0x40 SWAP1 KECCAK256 SWAP2 SWAP1 SWAP2 SSTORE PUSH3 0x3AC JUMP JUMPDEST POP PUSH1 0x0 PUSH3 0x3AC JUMP JUMPDEST DUP3 DUP1 SLOAD PUSH3 0x492 SWAP1 PUSH3 0x688 JUMP JUMPDEST SWAP1 PUSH1 0x0 MSTORE PUSH1 0x20 PUSH1 0x0 KECCAK256 SWAP1 PUSH1 0x1F ADD PUSH1 0x20 SWAP1 DIV DUP2 ADD SWAP3 DUP3 PUSH3 0x4B6 JUMPI PUSH1 0x0 DUP6 SSTORE PUSH3 0x501 JUMP JUMPDEST DUP3 PUSH1 0x1F LT PUSH3 0x4D1 JUMPI DUP1 MLOAD PUSH1 0xFF NOT AND DUP4 DUP1 ADD OR DUP6 SSTORE PUSH3 0x501 JUMP JUMPDEST DUP3 DUP1 ADD PUSH1 0x1 ADD DUP6 SSTORE DUP3 ISZERO PUSH3 0x501 JUMPI SWAP2 DUP3 ADD JUMPDEST DUP3 DUP2 GT ISZERO PUSH3 0x501 JUMPI DUP3 MLOAD DUP3 SSTORE SWAP2 PUSH1 0x20 ADD SWAP2 SWAP1 PUSH1 0x1 ADD SWAP1 PUSH3 0x4E4 JUMP JUMPDEST POP PUSH3 0x50F SWAP3 SWAP2 POP PUSH3 0x513 JUMP JUMPDEST POP SWAP1 JUMP JUMPDEST JUMPDEST DUP1 DUP3 GT ISZERO PUSH3 0x50F JUMPI PUSH1 0x0 DUP2 SSTORE PUSH1 0x1 ADD PUSH3 0x514 JUMP JUMPDEST PUSH4 0x4E487B71 PUSH1 0xE0 SHL PUSH1 0x0 MSTORE PUSH1 0x41 PUSH1 0x4 MSTORE PUSH1 0x24 PUSH1 0x0 REVERT JUMPDEST PUSH1 0x0 DUP3 PUSH1 0x1F DUP4 ADD SLT PUSH3 0x552 JUMPI PUSH1 0x0 DUP1 REVERT JUMPDEST DUP2 MLOAD PUSH1 0x1 PUSH1 0x1 PUSH1 0x40 SHL SUB DUP1 DUP3 GT ISZERO PUSH3 0x56F JUMPI PUSH3 0x56F PUSH3 0x52A JUMP JUMPDEST PUSH1 0x40 MLOAD PUSH1 0x1F DUP4 ADD PUSH1 0x1F NOT SWAP1 DUP2 AND PUSH1 0x3F ADD AND DUP2 ADD SWAP1 DUP3 DUP3 GT DUP2 DUP4 LT OR ISZERO PUSH3 0x59A JUMPI PUSH3 0x59A PUSH3 0x52A JUMP JUMPDEST DUP2 PUSH1 0x40 MSTORE DUP4 DUP2 MSTORE PUSH1 0x20 SWAP3 POP DUP7 DUP4 DUP6 DUP9 ADD ADD GT ISZERO PUSH3 0x5B7 JUMPI PUSH1 0x0 DUP1 REVERT JUMPDEST PUSH1 0x0 SWAP2 POP JUMPDEST DUP4 DUP3 LT ISZERO PUSH3 0x5DB JUMPI DUP6 DUP3 ADD DUP4 ADD MLOAD DUP2 DUP4 ADD DUP5 ADD MSTORE SWAP1 DUP3 ADD SWAP1 PUSH3 0x5BC JUMP JUMPDEST DUP4 DUP3 GT ISZERO PUSH3 0x5ED JUMPI PUSH1 0x0 DUP4 DUP6 DUP4 ADD ADD MSTORE JUMPDEST SWAP7 SWAP6 POP POP POP POP POP POP JUMP JUMPDEST PUSH1 0x0 DUP1 PUSH1 0x40 DUP4 DUP6 SUB SLT ISZERO PUSH3 0x60B JUMPI PUSH1 0x0 DUP1 REVERT JUMPDEST DUP3 MLOAD PUSH1 0x1 PUSH1 0x1 PUSH1 0x40 SHL SUB DUP1 DUP3 GT ISZERO PUSH3 0x623 JUMPI PUSH1 0x0 DUP1 REVERT JUMPDEST PUSH3 0x631 DUP7 DUP4 DUP8 ADD PUSH3 0x540 JUMP JUMPDEST SWAP4 POP PUSH1 0x20 DUP6 ADD MLOAD SWAP2 POP DUP1 DUP3 GT ISZERO PUSH3 0x648 JUMPI PUSH1 0x0 DUP1 REVERT JUMPDEST POP PUSH3 0x657 DUP6 DUP3 DUP7 ADD PUSH3 0x540 JUMP JUMPDEST SWAP2 POP POP SWAP3 POP SWAP3 SWAP1 POP JUMP JUMPDEST PUSH1 0x0 DUP3 NOT DUP3 GT ISZERO PUSH3 0x683 JUMPI PUSH4 0x4E487B71 PUSH1 0xE0 SHL PUSH1 0x0 MSTORE PUSH1 0x11 PUSH1 0x4 MSTORE PUSH1 0x24 PUSH1 0x0 REVERT JUMPDEST POP ADD SWAP1 JUMP JUMPDEST PUSH1 0x1 DUP2 DUP2 SHR SWAP1 DUP3 AND DUP1 PUSH3 0x69D JUMPI PUSH1 0x7F DUP3 AND SWAP2 POP JUMPDEST PUSH1 0x20 DUP3 LT DUP2 EQ ISZERO PUSH3 0x6BF JUMPI PUSH4 0x4E487B71 PUSH1 0xE0 SHL PUSH1 0x0 MSTORE PUSH1 0x22 PUSH1 0x4 MSTORE PUSH1 0x24 PUSH1 0x0 REVERT JUMPDEST POP SWAP2 SWAP1 POP JUMP JUMPDEST PUSH2 0x1B0C DUP1 PUSH3 0x6D5 PUSH1 0x0 CODECOPY PUSH1 0x0 RETURN INVALID PUSH1 0x80 PUSH1 0x40 MSTORE CALLVALUE DUP1 ISZERO PUSH2 0x10 JUMPI PUSH1 0x0 DUP1 REVERT JUMPDEST POP PUSH1 0x4 CALLDATASIZE LT PUSH2 0x1FB JUMPI PUSH1 0x0 CALLDATALOAD PUSH1 0xE0 SHR DUP1 PUSH4 0x79CC6790 GT PUSH2 0x11A JUMPI DUP1 PUSH4 0xA217FDDF GT PUSH2 0xAD JUMPI DUP1 PUSH4 0xD5391393 GT PUSH2 0x7C JUMPI DUP1 PUSH4 0xD5391393 EQ PUSH2 0x429 JUMPI DUP1 PUSH4 0xD547741F EQ PUSH2 0x450 JUMPI DUP1 PUSH4 0xDD62ED3E EQ PUSH2 0x463 JUMPI DUP1 PUSH4 0xE63AB1E9 EQ PUSH2 0x49C JUMPI DUP1 PUSH4 0xF2FDE38B EQ PUSH2 0x4C3 JUMPI PUSH1 0x0 DUP1 REVERT JUMPDEST DUP1 PUSH4 0xA217FDDF EQ PUSH2 0x3E8 JUMPI DUP1 PUSH4 0xA457C2D7 EQ PUSH2 0x3F0 JUMPI DUP1 PUSH4 0xA9059CBB EQ PUSH2 0x403 JUMPI DUP1 PUSH4 0xCA15C873 EQ PUSH2 0x416 JUMPI PUSH1 0x0 DUP1 REVERT JUMPDEST DUP1 PUSH4 0x9010D07C GT PUSH2 0xE9 JUMPI DUP1 PUSH4 0x9010D07C EQ PUSH2 0x3A7 JUMPI DUP1 PUSH4 0x91D14854 EQ PUSH2 0x3BA JUMPI DUP1 PUSH4 0x95D89B41 EQ PUSH2 0x3CD JUMPI DUP1 PUSH4 0xA128471F EQ PUSH2 0x3D5 JUMPI PUSH1 0x0 DUP1 REVERT JUMPDEST DUP1 PUSH4 0x79CC6790 EQ PUSH2 0x34C JUMPI DUP1 PUSH4 0x8456CB59 EQ PUSH2 0x35F JUMPI DUP1 PUSH4 0x893D20E8 EQ PUSH2 0x367 JUMPI DUP1 PUSH4 0x8DA5CB5B EQ PUSH2 0x391 JUMPI PUSH1 0x0 DUP1 REVERT JUMPDEST DUP1 PUSH4 0x357BF15C GT PUSH2 0x192 JUMPI DUP1 PUSH4 0x42966C68 GT PUSH2 0x161 JUMPI DUP1 PUSH4 0x42966C68 EQ PUSH2 0x2FD JUMPI DUP1 PUSH4 0x5C975ABB EQ PUSH2 0x310 JUMPI DUP1 PUSH4 0x70A08231 EQ PUSH2 0x31B JUMPI DUP1 PUSH4 0x715018A6 EQ PUSH2 0x344 JUMPI PUSH1 0x0 DUP1 REVERT JUMPDEST DUP1 PUSH4 0x357BF15C EQ PUSH2 0x2BC JUMPI DUP1 PUSH4 0x36568ABE EQ PUSH2 0x2CF JUMPI DUP1 PUSH4 0x39509351 EQ PUSH2 0x2E2 JUMPI DUP1 PUSH4 0x3F4BA83A EQ PUSH2 0x2F5 JUMPI PUSH1 0x0 DUP1 REVERT JUMPDEST DUP1 PUSH4 0x23B872DD GT PUSH2 0x1CE JUMPI DUP1 PUSH4 0x23B872DD EQ PUSH2 0x262 JUMPI DUP1 PUSH4 0x248A9CA3 EQ PUSH2 0x275 JUMPI DUP1 PUSH4 0x2F2FF15D EQ PUSH2 0x298 JUMPI DUP1 PUSH4 0x313CE567 EQ PUSH2 0x2AD JUMPI PUSH1 0x0 DUP1 REVERT JUMPDEST DUP1 PUSH4 0x1FFC9A7 EQ PUSH2 0x200 JUMPI DUP1 PUSH4 0x6FDDE03 EQ PUSH2 0x228 JUMPI DUP1 PUSH4 0x95EA7B3 EQ PUSH2 0x23D JUMPI DUP1 PUSH4 0x18160DDD EQ PUSH2 0x250 JUMPI JUMPDEST PUSH1 0x0 DUP1 REVERT JUMPDEST PUSH2 0x213 PUSH2 0x20E CALLDATASIZE PUSH1 0x4 PUSH2 0x175B JUMP JUMPDEST PUSH2 0x4D6 JUMP JUMPDEST PUSH1 0x40 MLOAD SWAP1 ISZERO ISZERO DUP2 MSTORE PUSH1 0x20 ADD JUMPDEST PUSH1 0x40 MLOAD DUP1 SWAP2 SUB SWAP1 RETURN JUMPDEST PUSH2 0x230 PUSH2 0x501 JUMP JUMPDEST PUSH1 0x40 MLOAD PUSH2 0x21F SWAP2 SWAP1 PUSH2 0x17B1 JUMP JUMPDEST PUSH2 0x213 PUSH2 0x24B CALLDATASIZE PUSH1 0x4 PUSH2 0x1800 JUMP JUMPDEST PUSH2 0x593 JUMP JUMPDEST PUSH1 0x4 SLOAD JUMPDEST PUSH1 0x40 MLOAD SWAP1 DUP2 MSTORE PUSH1 0x20 ADD PUSH2 0x21F JUMP JUMPDEST PUSH2 0x213 PUSH2 0x270 CALLDATASIZE PUSH1 0x4 PUSH2 0x182A JUMP JUMPDEST PUSH2 0x5AB JUMP JUMPDEST PUSH2 0x254 PUSH2 0x283 CALLDATASIZE PUSH1 0x4 PUSH2 0x1866 JUMP JUMPDEST PUSH1 0x0 SWAP1 DUP2 MSTORE PUSH1 0x20 DUP2 SWAP1 MSTORE PUSH1 0x40 SWAP1 KECCAK256 PUSH1 0x1 ADD SLOAD SWAP1 JUMP JUMPDEST PUSH2 0x2AB PUSH2 0x2A6 CALLDATASIZE PUSH1 0x4 PUSH2 0x187F JUMP JUMPDEST PUSH2 0x5CF JUMP JUMPDEST STOP JUMPDEST PUSH1 0x40 MLOAD PUSH1 0x12 DUP2 MSTORE PUSH1 0x20 ADD PUSH2 0x21F JUMP JUMPDEST PUSH2 0x2AB PUSH2 0x2CA CALLDATASIZE PUSH1 0x4 PUSH2 0x1866 JUMP JUMPDEST PUSH2 0x5FA JUMP JUMPDEST PUSH2 0x2AB PUSH2 0x2DD CALLDATASIZE PUSH1 0x4 PUSH2 0x187F JUMP JUMPDEST PUSH2 0x6AF JUMP JUMPDEST PUSH2 0x213 PUSH2 0x2F0 CALLDATASIZE PUSH1 0x4 PUSH2 0x1800 JUMP JUMPDEST PUSH2 0x72D JUMP JUMPDEST PUSH2 0x2AB PUSH2 0x76C JUMP JUMPDEST PUSH2 0x2AB PUSH2 0x30B CALLDATASIZE PUSH1 0x4 PUSH2 0x1866 JUMP JUMPDEST PUSH2 0x808 JUMP JUMPDEST PUSH1 0x7 SLOAD PUSH1 0xFF AND PUSH2 0x213 JUMP JUMPDEST PUSH2 0x254 PUSH2 0x329 CALLDATASIZE PUSH1 0x4 PUSH2 0x18AB JUMP JUMPDEST PUSH1 0x1 PUSH1 0x1 PUSH1 0xA0 SHL SUB AND PUSH1 0x0 SWAP1 DUP2 MSTORE PUSH1 0x2 PUSH1 0x20 MSTORE PUSH1 0x40 SWAP1 KECCAK256 SLOAD SWAP1 JUMP JUMPDEST PUSH2 0x2AB PUSH2 0x815 JUMP JUMPDEST PUSH2 0x2AB PUSH2 0x35A CALLDATASIZE PUSH1 0x4 PUSH2 0x1800 JUMP JUMPDEST PUSH2 0x84F JUMP JUMPDEST PUSH2 0x2AB PUSH2 0x864 JUMP JUMPDEST PUSH1 0x7 SLOAD PUSH2 0x100 SWAP1 DIV PUSH1 0x1 PUSH1 0x1 PUSH1 0xA0 SHL SUB AND JUMPDEST PUSH1 0x40 MLOAD PUSH1 0x1 PUSH1 0x1 PUSH1 0xA0 SHL SUB SWAP1 SWAP2 AND DUP2 MSTORE PUSH1 0x20 ADD PUSH2 0x21F JUMP JUMPDEST PUSH1 0x7 SLOAD PUSH2 0x100 SWAP1 DIV PUSH1 0x1 PUSH1 0x1 PUSH1 0xA0 SHL SUB AND PUSH2 0x379 JUMP JUMPDEST PUSH2 0x379 PUSH2 0x3B5 CALLDATASIZE PUSH1 0x4 PUSH2 0x18C6 JUMP JUMPDEST PUSH2 0x8FC JUMP JUMPDEST PUSH2 0x213 PUSH2 0x3C8 CALLDATASIZE PUSH1 0x4 PUSH2 0x187F JUMP JUMPDEST PUSH2 0x91B JUMP JUMPDEST PUSH2 0x230 PUSH2 0x944 JUMP JUMPDEST PUSH2 0x2AB PUSH2 0x3E3 CALLDATASIZE PUSH1 0x4 PUSH2 0x18AB JUMP JUMPDEST PUSH2 0x953 JUMP JUMPDEST PUSH2 0x254 PUSH1 0x0 DUP2 JUMP JUMPDEST PUSH2 0x213 PUSH2 0x3FE CALLDATASIZE PUSH1 0x4 PUSH2 0x1800 JUMP JUMPDEST PUSH2 0x9A5 JUMP JUMPDEST PUSH2 0x213 PUSH2 0x411 CALLDATASIZE PUSH1 0x4 PUSH2 0x1800 JUMP JUMPDEST PUSH2 0xA37 JUMP JUMPDEST PUSH2 0x254 PUSH2 0x424 CALLDATASIZE PUSH1 0x4 PUSH2 0x1866 JUMP JUMPDEST PUSH2 0xA45 JUMP JUMPDEST PUSH2 0x254 PUSH32 0x9F2DF0FED2C77648DE5860A4CC508CD0818C85B8B8A1AB4CEEEF8D981C8956A6 DUP2 JUMP JUMPDEST PUSH2 0x2AB PUSH2 0x45E CALLDATASIZE PUSH1 0x4 PUSH2 0x187F JUMP JUMPDEST PUSH2 0xA5C JUMP JUMPDEST PUSH2 0x254 PUSH2 0x471 CALLDATASIZE PUSH1 0x4 PUSH2 0x18E8 JUMP JUMPDEST PUSH1 0x1 PUSH1 0x1 PUSH1 0xA0 SHL SUB SWAP2 DUP3 AND PUSH1 0x0 SWAP1 DUP2 MSTORE PUSH1 0x3 PUSH1 0x20 SWAP1 DUP2 MSTORE PUSH1 0x40 DUP1 DUP4 KECCAK256 SWAP4 SWAP1 SWAP5 AND DUP3 MSTORE SWAP2 SWAP1 SWAP2 MSTORE KECCAK256 SLOAD SWAP1 JUMP JUMPDEST PUSH2 0x254 PUSH32 0x65D7A28E3265B37A6474929F336521B332C1681B933F6CB9F3376673440D862A DUP2 JUMP JUMPDEST PUSH2 0x2AB PUSH2 0x4D1 CALLDATASIZE PUSH1 0x4 PUSH2 0x18AB JUMP JUMPDEST PUSH2 0xA82 JUMP JUMPDEST PUSH1 0x0 PUSH1 0x1 PUSH1 0x1 PUSH1 0xE0 SHL SUB NOT DUP3 AND PUSH4 0x5A05180F PUSH1 0xE0 SHL EQ DUP1 PUSH2 0x4FB JUMPI POP PUSH2 0x4FB DUP3 PUSH2 0xC1F JUMP JUMPDEST SWAP3 SWAP2 POP POP JUMP JUMPDEST PUSH1 0x60 PUSH1 0x5 DUP1 SLOAD PUSH2 0x510 SWAP1 PUSH2 0x1912 JUMP JUMPDEST DUP1 PUSH1 0x1F ADD PUSH1 0x20 DUP1 SWAP2 DIV MUL PUSH1 0x20 ADD PUSH1 0x40 MLOAD SWAP1 DUP2 ADD PUSH1 0x40 MSTORE DUP1 SWAP3 SWAP2 SWAP1 DUP2 DUP2 MSTORE PUSH1 0x20 ADD DUP3 DUP1 SLOAD PUSH2 0x53C SWAP1 PUSH2 0x1912 JUMP JUMPDEST DUP1 ISZERO PUSH2 0x589 JUMPI DUP1 PUSH1 0x1F LT PUSH2 0x55E JUMPI PUSH2 0x100 DUP1 DUP4 SLOAD DIV MUL DUP4 MSTORE SWAP2 PUSH1 0x20 ADD SWAP2 PUSH2 0x589 JUMP JUMPDEST DUP3 ADD SWAP2 SWAP1 PUSH1 0x0 MSTORE PUSH1 0x20 PUSH1 0x0 KECCAK256 SWAP1 JUMPDEST DUP2 SLOAD DUP2 MSTORE SWAP1 PUSH1 0x1 ADD SWAP1 PUSH1 0x20 ADD DUP1 DUP4 GT PUSH2 0x56C JUMPI DUP3 SWAP1 SUB PUSH1 0x1F AND DUP3 ADD SWAP2 JUMPDEST POP POP POP POP POP SWAP1 POP SWAP1 JUMP JUMPDEST PUSH1 0x0 CALLER PUSH2 0x5A1 DUP2 DUP6 DUP6 PUSH2 0xC54 JUMP JUMPDEST POP PUSH1 0x1 SWAP4 SWAP3 POP POP POP JUMP JUMPDEST PUSH1 0x0 CALLER PUSH2 0x5B9 DUP6 DUP3 DUP6 PUSH2 0xD78 JUMP JUMPDEST PUSH2 0x5C4 DUP6 DUP6 DUP6 PUSH2 0xE0A JUMP JUMPDEST POP PUSH1 0x1 SWAP5 SWAP4 POP POP POP POP JUMP JUMPDEST PUSH1 0x0 DUP3 DUP2 MSTORE PUSH1 0x20 DUP2 SWAP1 MSTORE PUSH1 0x40 SWAP1 KECCAK256 PUSH1 0x1 ADD SLOAD PUSH2 0x5EB DUP2 CALLER PUSH2 0xE5D JUMP JUMPDEST PUSH2 0x5F5 DUP4 DUP4 PUSH2 0xEC1 JUMP JUMPDEST POP POP POP JUMP JUMPDEST PUSH1 0x7 SLOAD PUSH1 0x1 PUSH1 0x1 PUSH1 0xA0 SHL SUB PUSH2 0x100 SWAP1 SWAP2 DIV AND CALLER EQ PUSH2 0x633 JUMPI PUSH1 0x40 MLOAD PUSH3 0x461BCD PUSH1 0xE5 SHL DUP2 MSTORE PUSH1 0x4 ADD PUSH2 0x62A SWAP1 PUSH2 0x194D JUMP JUMPDEST PUSH1 0x40 MLOAD DUP1 SWAP2 SUB SWAP1 REVERT JUMPDEST PUSH1 0x64 DUP2 GT ISZERO PUSH2 0x6AA JUMPI PUSH1 0x40 MLOAD PUSH3 0x461BCD PUSH1 0xE5 SHL DUP2 MSTORE PUSH1 0x20 PUSH1 0x4 DUP3 ADD MSTORE PUSH1 0x37 PUSH1 0x24 DUP3 ADD MSTORE PUSH32 0x4865726F204177616B656E20546F6B656E3A206C697175696469747920666565 PUSH1 0x44 DUP3 ADD MSTORE PUSH32 0x206D757374206265747765656E203020616E6420313030000000000000000000 PUSH1 0x64 DUP3 ADD MSTORE PUSH1 0x84 ADD PUSH2 0x62A JUMP JUMPDEST PUSH1 0x8 SSTORE JUMP JUMPDEST PUSH1 0x1 PUSH1 0x1 PUSH1 0xA0 SHL SUB DUP2 AND CALLER EQ PUSH2 0x71F JUMPI PUSH1 0x40 MLOAD PUSH3 0x461BCD PUSH1 0xE5 SHL DUP2 MSTORE PUSH1 0x20 PUSH1 0x4 DUP3 ADD MSTORE PUSH1 0x2F PUSH1 0x24 DUP3 ADD MSTORE PUSH32 0x416363657373436F6E74726F6C3A2063616E206F6E6C792072656E6F756E6365 PUSH1 0x44 DUP3 ADD MSTORE PUSH15 0x103937B632B9903337B91039B2B633 PUSH1 0x89 SHL PUSH1 0x64 DUP3 ADD MSTORE PUSH1 0x84 ADD PUSH2 0x62A JUMP JUMPDEST PUSH2 0x729 DUP3 DUP3 PUSH2 0xEE3 JUMP JUMPDEST POP POP JUMP JUMPDEST CALLER PUSH1 0x0 DUP2 DUP2 MSTORE PUSH1 0x3 PUSH1 0x20 SWAP1 DUP2 MSTORE PUSH1 0x40 DUP1 DUP4 KECCAK256 PUSH1 0x1 PUSH1 0x1 PUSH1 0xA0 SHL SUB DUP8 AND DUP5 MSTORE SWAP1 SWAP2 MSTORE DUP2 KECCAK256 SLOAD SWAP1 SWAP2 SWAP1 PUSH2 0x5A1 SWAP1 DUP3 SWAP1 DUP7 SWAP1 PUSH2 0x767 SWAP1 DUP8 SWAP1 PUSH2 0x1998 JUMP JUMPDEST PUSH2 0xC54 JUMP JUMPDEST PUSH2 0x796 PUSH32 0x65D7A28E3265B37A6474929F336521B332C1681B933F6CB9F3376673440D862A CALLER PUSH2 0x91B JUMP JUMPDEST PUSH2 0x7FE JUMPI PUSH1 0x40 MLOAD PUSH3 0x461BCD PUSH1 0xE5 SHL DUP2 MSTORE PUSH1 0x20 PUSH1 0x4 DUP3 ADD MSTORE PUSH1 0x33 PUSH1 0x24 DUP3 ADD MSTORE PUSH32 0x4865726F204177616B656E20546F6B656E3A206D757374206861766520706175 PUSH1 0x44 DUP3 ADD MSTORE PUSH19 0x73657220726F6C6520746F20756E7061757365 PUSH1 0x68 SHL PUSH1 0x64 DUP3 ADD MSTORE PUSH1 0x84 ADD PUSH2 0x62A JUMP JUMPDEST PUSH2 0x806 PUSH2 0xF05 JUMP JUMPDEST JUMP JUMPDEST PUSH2 0x812 CALLER DUP3 PUSH2 0xF98 JUMP JUMPDEST POP JUMP JUMPDEST PUSH1 0x7 SLOAD PUSH1 0x1 PUSH1 0x1 PUSH1 0xA0 SHL SUB PUSH2 0x100 SWAP1 SWAP2 DIV AND CALLER EQ PUSH2 0x845 JUMPI PUSH1 0x40 MLOAD PUSH3 0x461BCD PUSH1 0xE5 SHL DUP2 MSTORE PUSH1 0x4 ADD PUSH2 0x62A SWAP1 PUSH2 0x194D JUMP JUMPDEST PUSH2 0x806 PUSH1 0x0 PUSH2 0x10F2 JUMP JUMPDEST PUSH2 0x85A DUP3 CALLER DUP4 PUSH2 0xD78 JUMP JUMPDEST PUSH2 0x729 DUP3 DUP3 PUSH2 0xF98 JUMP JUMPDEST PUSH2 0x88E PUSH32 0x65D7A28E3265B37A6474929F336521B332C1681B933F6CB9F3376673440D862A CALLER PUSH2 0x91B JUMP JUMPDEST PUSH2 0x8F4 JUMPI PUSH1 0x40 MLOAD PUSH3 0x461BCD PUSH1 0xE5 SHL DUP2 MSTORE PUSH1 0x20 PUSH1 0x4 DUP3 ADD MSTORE PUSH1 0x31 PUSH1 0x24 DUP3 ADD MSTORE PUSH32 0x4865726F204177616B656E20546F6B656E3A206D757374206861766520706175 PUSH1 0x44 DUP3 ADD MSTORE PUSH17 0x73657220726F6C6520746F207061757365 PUSH1 0x78 SHL PUSH1 0x64 DUP3 ADD MSTORE PUSH1 0x84 ADD PUSH2 0x62A JUMP JUMPDEST PUSH2 0x806 PUSH2 0x114C JUMP JUMPDEST PUSH1 0x0 DUP3 DUP2 MSTORE PUSH1 0x1 PUSH1 0x20 MSTORE PUSH1 0x40 DUP2 KECCAK256 PUSH2 0x914 SWAP1 DUP4 PUSH2 0x11C7 JUMP JUMPDEST SWAP4 SWAP3 POP POP POP JUMP JUMPDEST PUSH1 0x0 SWAP2 DUP3 MSTORE PUSH1 0x20 DUP3 DUP2 MSTORE PUSH1 0x40 DUP1 DUP5 KECCAK256 PUSH1 0x1 PUSH1 0x1 PUSH1 0xA0 SHL SUB SWAP4 SWAP1 SWAP4 AND DUP5 MSTORE SWAP2 SWAP1 MSTORE SWAP1 KECCAK256 SLOAD PUSH1 0xFF AND SWAP1 JUMP JUMPDEST PUSH1 0x60 PUSH1 0x6 DUP1 SLOAD PUSH2 0x510 SWAP1 PUSH2 0x1912 JUMP JUMPDEST PUSH1 0x7 SLOAD PUSH1 0x1 PUSH1 0x1 PUSH1 0xA0 SHL SUB PUSH2 0x100 SWAP1 SWAP2 DIV AND CALLER EQ PUSH2 0x983 JUMPI PUSH1 0x40 MLOAD PUSH3 0x461BCD PUSH1 0xE5 SHL DUP2 MSTORE PUSH1 0x4 ADD PUSH2 0x62A SWAP1 PUSH2 0x194D JUMP JUMPDEST PUSH1 0x9 DUP1 SLOAD PUSH1 0x1 PUSH1 0x1 PUSH1 0xA0 SHL SUB NOT AND PUSH1 0x1 PUSH1 0x1 PUSH1 0xA0 SHL SUB SWAP3 SWAP1 SWAP3 AND SWAP2 SWAP1 SWAP2 OR SWAP1 SSTORE JUMP JUMPDEST CALLER PUSH1 0x0 DUP2 DUP2 MSTORE PUSH1 0x3 PUSH1 0x20 SWAP1 DUP2 MSTORE PUSH1 0x40 DUP1 DUP4 KECCAK256 PUSH1 0x1 PUSH1 0x1 PUSH1 0xA0 SHL SUB DUP8 AND DUP5 MSTORE SWAP1 SWAP2 MSTORE DUP2 KECCAK256 SLOAD SWAP1 SWAP2 SWAP1 DUP4 DUP2 LT ISZERO PUSH2 0xA2A JUMPI PUSH1 0x40 MLOAD PUSH3 0x461BCD PUSH1 0xE5 SHL DUP2 MSTORE PUSH1 0x20 PUSH1 0x4 DUP3 ADD MSTORE PUSH1 0x25 PUSH1 0x24 DUP3 ADD MSTORE PUSH32 0x45524332303A2064656372656173656420616C6C6F77616E63652062656C6F77 PUSH1 0x44 DUP3 ADD MSTORE PUSH5 0x207A65726F PUSH1 0xD8 SHL PUSH1 0x64 DUP3 ADD MSTORE PUSH1 0x84 ADD PUSH2 0x62A JUMP JUMPDEST PUSH2 0x5C4 DUP3 DUP7 DUP7 DUP5 SUB PUSH2 0xC54 JUMP JUMPDEST PUSH1 0x0 CALLER PUSH2 0x5A1 DUP2 DUP6 DUP6 PUSH2 0xE0A JUMP JUMPDEST PUSH1 0x0 DUP2 DUP2 MSTORE PUSH1 0x1 PUSH1 0x20 MSTORE PUSH1 0x40 DUP2 KECCAK256 PUSH2 0x4FB SWAP1 PUSH2 0x11D3 JUMP JUMPDEST PUSH1 0x0 DUP3 DUP2 MSTORE PUSH1 0x20 DUP2 SWAP1 MSTORE PUSH1 0x40 SWAP1 KECCAK256 PUSH1 0x1 ADD SLOAD PUSH2 0xA78 DUP2 CALLER PUSH2 0xE5D JUMP JUMPDEST PUSH2 0x5F5 DUP4 DUP4 PUSH2 0xEE3 JUMP JUMPDEST PUSH1 0x7 SLOAD PUSH1 0x1 PUSH1 0x1 PUSH1 0xA0 SHL SUB PUSH2 0x100 SWAP1 SWAP2 DIV AND CALLER EQ PUSH2 0xAB2 JUMPI PUSH1 0x40 MLOAD PUSH3 0x461BCD PUSH1 0xE5 SHL DUP2 MSTORE PUSH1 0x4 ADD PUSH2 0x62A SWAP1 PUSH2 0x194D JUMP JUMPDEST PUSH1 0x1 PUSH1 0x1 PUSH1 0xA0 SHL SUB DUP2 AND PUSH2 0xB17 JUMPI PUSH1 0x40 MLOAD PUSH3 0x461BCD PUSH1 0xE5 SHL DUP2 MSTORE PUSH1 0x20 PUSH1 0x4 DUP3 ADD MSTORE PUSH1 0x26 PUSH1 0x24 DUP3 ADD MSTORE PUSH32 0x4F776E61626C653A206E6577206F776E657220697320746865207A65726F2061 PUSH1 0x44 DUP3 ADD MSTORE PUSH6 0x646472657373 PUSH1 0xD0 SHL PUSH1 0x64 DUP3 ADD MSTORE PUSH1 0x84 ADD PUSH2 0x62A JUMP JUMPDEST PUSH2 0x812 DUP2 PUSH2 0x10F2 JUMP JUMPDEST PUSH2 0xB2A DUP3 DUP3 PUSH2 0x91B JUMP JUMPDEST PUSH2 0x729 JUMPI PUSH1 0x0 DUP3 DUP2 MSTORE PUSH1 0x20 DUP2 DUP2 MSTORE PUSH1 0x40 DUP1 DUP4 KECCAK256 PUSH1 0x1 PUSH1 0x1 PUSH1 0xA0 SHL SUB DUP6 AND DUP5 MSTORE SWAP1 SWAP2 MSTORE SWAP1 KECCAK256 DUP1 SLOAD PUSH1 0xFF NOT AND PUSH1 0x1 OR SWAP1 SSTORE PUSH2 0xB60 CALLER SWAP1 JUMP JUMPDEST PUSH1 0x1 PUSH1 0x1 PUSH1 0xA0 SHL SUB AND DUP2 PUSH1 0x1 PUSH1 0x1 PUSH1 0xA0 SHL SUB AND DUP4 PUSH32 0x2F8788117E7EFF1D82E926EC794901D17C78024A50270940304540A733656F0D PUSH1 0x40 MLOAD PUSH1 0x40 MLOAD DUP1 SWAP2 SUB SWAP1 LOG4 POP POP JUMP JUMPDEST PUSH1 0x0 PUSH2 0x914 DUP4 PUSH1 0x1 PUSH1 0x1 PUSH1 0xA0 SHL SUB DUP5 AND PUSH2 0x11DD JUMP JUMPDEST PUSH1 0x7 SLOAD PUSH1 0xFF AND ISZERO PUSH2 0x5F5 JUMPI PUSH1 0x40 MLOAD PUSH3 0x461BCD PUSH1 0xE5 SHL DUP2 MSTORE PUSH1 0x20 PUSH1 0x4 DUP3 ADD MSTORE PUSH1 0x2A PUSH1 0x24 DUP3 ADD MSTORE PUSH32 0x45524332305061757361626C653A20746F6B656E207472616E73666572207768 PUSH1 0x44 DUP3 ADD MSTORE PUSH10 0x1A5B19481C185D5CD959 PUSH1 0xB2 SHL PUSH1 0x64 DUP3 ADD MSTORE PUSH1 0x84 ADD PUSH2 0x62A JUMP JUMPDEST PUSH1 0x0 PUSH1 0x1 PUSH1 0x1 PUSH1 0xE0 SHL SUB NOT DUP3 AND PUSH4 0x7965DB0B PUSH1 0xE0 SHL EQ DUP1 PUSH2 0x4FB JUMPI POP PUSH4 0x1FFC9A7 PUSH1 0xE0 SHL PUSH1 0x1 PUSH1 0x1 PUSH1 0xE0 SHL SUB NOT DUP4 AND EQ PUSH2 0x4FB JUMP JUMPDEST PUSH1 0x1 PUSH1 0x1 PUSH1 0xA0 SHL SUB DUP4 AND PUSH2 0xCB6 JUMPI PUSH1 0x40 MLOAD PUSH3 0x461BCD PUSH1 0xE5 SHL DUP2 MSTORE PUSH1 0x20 PUSH1 0x4 DUP3 ADD MSTORE PUSH1 0x24 DUP1 DUP3 ADD MSTORE PUSH32 0x45524332303A20617070726F76652066726F6D20746865207A65726F20616464 PUSH1 0x44 DUP3 ADD MSTORE PUSH4 0x72657373 PUSH1 0xE0 SHL PUSH1 0x64 DUP3 ADD MSTORE PUSH1 0x84 ADD PUSH2 0x62A JUMP JUMPDEST PUSH1 0x1 PUSH1 0x1 PUSH1 0xA0 SHL SUB DUP3 AND PUSH2 0xD17 JUMPI PUSH1 0x40 MLOAD PUSH3 0x461BCD PUSH1 0xE5 SHL DUP2 MSTORE PUSH1 0x20 PUSH1 0x4 DUP3 ADD MSTORE PUSH1 0x22 PUSH1 0x24 DUP3 ADD MSTORE PUSH32 0x45524332303A20617070726F766520746F20746865207A65726F206164647265 PUSH1 0x44 DUP3 ADD MSTORE PUSH2 0x7373 PUSH1 0xF0 SHL PUSH1 0x64 DUP3 ADD MSTORE PUSH1 0x84 ADD PUSH2 0x62A JUMP JUMPDEST PUSH1 0x1 PUSH1 0x1 PUSH1 0xA0 SHL SUB DUP4 DUP2 AND PUSH1 0x0 DUP2 DUP2 MSTORE PUSH1 0x3 PUSH1 0x20 SWAP1 DUP2 MSTORE PUSH1 0x40 DUP1 DUP4 KECCAK256 SWAP5 DUP8 AND DUP1 DUP5 MSTORE SWAP5 DUP3 MSTORE SWAP2 DUP3 SWAP1 KECCAK256 DUP6 SWAP1 SSTORE SWAP1 MLOAD DUP5 DUP2 MSTORE PUSH32 0x8C5BE1E5EBEC7D5BD14F71427D1E84F3DD0314C0F7B2291E5B200AC8C7C3B925 SWAP2 ADD PUSH1 0x40 MLOAD DUP1 SWAP2 SUB SWAP1 LOG3 POP POP POP JUMP JUMPDEST PUSH1 0x1 PUSH1 0x1 PUSH1 0xA0 SHL SUB DUP4 DUP2 AND PUSH1 0x0 SWAP1 DUP2 MSTORE PUSH1 0x3 PUSH1 0x20 SWAP1 DUP2 MSTORE PUSH1 0x40 DUP1 DUP4 KECCAK256 SWAP4 DUP7 AND DUP4 MSTORE SWAP3 SWAP1 MSTORE KECCAK256 SLOAD PUSH1 0x0 NOT DUP2 EQ PUSH2 0xE04 JUMPI DUP2 DUP2 LT ISZERO PUSH2 0xDF7 JUMPI PUSH1 0x40 MLOAD PUSH3 0x461BCD PUSH1 0xE5 SHL DUP2 MSTORE PUSH1 0x20 PUSH1 0x4 DUP3 ADD MSTORE PUSH1 0x1D PUSH1 0x24 DUP3 ADD MSTORE PUSH32 0x45524332303A20696E73756666696369656E7420616C6C6F77616E6365000000 PUSH1 0x44 DUP3 ADD MSTORE PUSH1 0x64 ADD PUSH2 0x62A JUMP JUMPDEST PUSH2 0xE04 DUP5 DUP5 DUP5 DUP5 SUB PUSH2 0xC54 JUMP JUMPDEST POP POP POP POP JUMP JUMPDEST PUSH1 0x0 PUSH2 0xE2C PUSH1 0x64 PUSH2 0xE26 PUSH1 0x8 SLOAD DUP6 PUSH2 0x122C SWAP1 SWAP2 SWAP1 PUSH4 0xFFFFFFFF AND JUMP JUMPDEST SWAP1 PUSH2 0x1238 JUMP JUMPDEST SWAP1 POP PUSH2 0xE38 DUP2 DUP4 PUSH2 0x19B0 JUMP JUMPDEST SWAP2 POP PUSH2 0xE45 DUP5 DUP5 DUP5 PUSH2 0x1244 JUMP JUMPDEST PUSH1 0x9 SLOAD PUSH2 0xE04 SWAP1 DUP6 SWAP1 PUSH1 0x1 PUSH1 0x1 PUSH1 0xA0 SHL SUB AND DUP4 PUSH2 0x1244 JUMP JUMPDEST PUSH2 0xE67 DUP3 DUP3 PUSH2 0x91B JUMP JUMPDEST PUSH2 0x729 JUMPI PUSH2 0xE7F DUP2 PUSH1 0x1 PUSH1 0x1 PUSH1 0xA0 SHL SUB AND PUSH1 0x14 PUSH2 0x141D JUMP JUMPDEST PUSH2 0xE8A DUP4 PUSH1 0x20 PUSH2 0x141D JUMP JUMPDEST PUSH1 0x40 MLOAD PUSH1 0x20 ADD PUSH2 0xE9B SWAP3 SWAP2 SWAP1 PUSH2 0x19C7 JUMP JUMPDEST PUSH1 0x40 DUP1 MLOAD PUSH1 0x1F NOT DUP2 DUP5 SUB ADD DUP2 MSTORE SWAP1 DUP3 SWAP1 MSTORE PUSH3 0x461BCD PUSH1 0xE5 SHL DUP3 MSTORE PUSH2 0x62A SWAP2 PUSH1 0x4 ADD PUSH2 0x17B1 JUMP JUMPDEST PUSH2 0xECB DUP3 DUP3 PUSH2 0xB20 JUMP JUMPDEST PUSH1 0x0 DUP3 DUP2 MSTORE PUSH1 0x1 PUSH1 0x20 MSTORE PUSH1 0x40 SWAP1 KECCAK256 PUSH2 0x5F5 SWAP1 DUP3 PUSH2 0xBA4 JUMP JUMPDEST PUSH2 0xEED DUP3 DUP3 PUSH2 0x15B9 JUMP JUMPDEST PUSH1 0x0 DUP3 DUP2 MSTORE PUSH1 0x1 PUSH1 0x20 MSTORE PUSH1 0x40 SWAP1 KECCAK256 PUSH2 0x5F5 SWAP1 DUP3 PUSH2 0x161E JUMP JUMPDEST PUSH1 0x7 SLOAD PUSH1 0xFF AND PUSH2 0xF4E JUMPI PUSH1 0x40 MLOAD PUSH3 0x461BCD PUSH1 0xE5 SHL DUP2 MSTORE PUSH1 0x20 PUSH1 0x4 DUP3 ADD MSTORE PUSH1 0x14 PUSH1 0x24 DUP3 ADD MSTORE PUSH20 0x14185D5CD8589B194E881B9BDD081C185D5CD959 PUSH1 0x62 SHL PUSH1 0x44 DUP3 ADD MSTORE PUSH1 0x64 ADD PUSH2 0x62A JUMP JUMPDEST PUSH1 0x7 DUP1 SLOAD PUSH1 0xFF NOT AND SWAP1 SSTORE PUSH32 0x5DB9EE0A495BF2E6FF9C91A7834C1BA4FDD244A5E8AA4E537BD38AEAE4B073AA CALLER JUMPDEST PUSH1 0x40 MLOAD PUSH1 0x1 PUSH1 0x1 PUSH1 0xA0 SHL SUB SWAP1 SWAP2 AND DUP2 MSTORE PUSH1 0x20 ADD PUSH1 0x40 MLOAD DUP1 SWAP2 SUB SWAP1 LOG1 JUMP JUMPDEST PUSH1 0x1 PUSH1 0x1 PUSH1 0xA0 SHL SUB DUP3 AND PUSH2 0xFF8 JUMPI PUSH1 0x40 MLOAD PUSH3 0x461BCD PUSH1 0xE5 SHL DUP2 MSTORE PUSH1 0x20 PUSH1 0x4 DUP3 ADD MSTORE PUSH1 0x21 PUSH1 0x24 DUP3 ADD MSTORE PUSH32 0x45524332303A206275726E2066726F6D20746865207A65726F20616464726573 PUSH1 0x44 DUP3 ADD MSTORE PUSH1 0x73 PUSH1 0xF8 SHL PUSH1 0x64 DUP3 ADD MSTORE PUSH1 0x84 ADD PUSH2 0x62A JUMP JUMPDEST PUSH2 0x1004 DUP3 PUSH1 0x0 DUP4 PUSH2 0x1633 JUMP JUMPDEST PUSH1 0x1 PUSH1 0x1 PUSH1 0xA0 SHL SUB DUP3 AND PUSH1 0x0 SWAP1 DUP2 MSTORE PUSH1 0x2 PUSH1 0x20 MSTORE PUSH1 0x40 SWAP1 KECCAK256 SLOAD DUP2 DUP2 LT ISZERO PUSH2 0x1078 JUMPI PUSH1 0x40 MLOAD PUSH3 0x461BCD PUSH1 0xE5 SHL DUP2 MSTORE PUSH1 0x20 PUSH1 0x4 DUP3 ADD MSTORE PUSH1 0x22 PUSH1 0x24 DUP3 ADD MSTORE PUSH32 0x45524332303A206275726E20616D6F756E7420657863656564732062616C616E PUSH1 0x44 DUP3 ADD MSTORE PUSH2 0x6365 PUSH1 0xF0 SHL PUSH1 0x64 DUP3 ADD MSTORE PUSH1 0x84 ADD PUSH2 0x62A JUMP JUMPDEST PUSH1 0x1 PUSH1 0x1 PUSH1 0xA0 SHL SUB DUP4 AND PUSH1 0x0 SWAP1 DUP2 MSTORE PUSH1 0x2 PUSH1 0x20 MSTORE PUSH1 0x40 DUP2 KECCAK256 DUP4 DUP4 SUB SWAP1 SSTORE PUSH1 0x4 DUP1 SLOAD DUP5 SWAP3 SWAP1 PUSH2 0x10A7 SWAP1 DUP5 SWAP1 PUSH2 0x19B0 JUMP JUMPDEST SWAP1 SWAP2 SSTORE POP POP PUSH1 0x40 MLOAD DUP3 DUP2 MSTORE PUSH1 0x0 SWAP1 PUSH1 0x1 PUSH1 0x1 PUSH1 0xA0 SHL SUB DUP6 AND SWAP1 PUSH32 0xDDF252AD1BE2C89B69C2B068FC378DAA952BA7F163C4A11628F55A4DF523B3EF SWAP1 PUSH1 0x20 ADD PUSH1 0x40 MLOAD DUP1 SWAP2 SUB SWAP1 LOG3 POP POP POP JUMP JUMPDEST PUSH1 0x7 DUP1 SLOAD PUSH1 0x1 PUSH1 0x1 PUSH1 0xA0 SHL SUB DUP4 DUP2 AND PUSH2 0x100 DUP2 DUP2 MUL PUSH2 0x100 PUSH1 0x1 PUSH1 0xA8 SHL SUB NOT DUP6 AND OR SWAP1 SWAP5 SSTORE PUSH1 0x40 MLOAD SWAP4 SWAP1 SWAP3 DIV AND SWAP2 DUP3 SWAP1 PUSH32 0x8BE0079C531659141344CD1FD0A4F28419497F9722A3DAAFE3B4186F6B6457E0 SWAP1 PUSH1 0x0 SWAP1 LOG3 POP POP JUMP JUMPDEST PUSH1 0x7 SLOAD PUSH1 0xFF AND ISZERO PUSH2 0x1192 JUMPI PUSH1 0x40 MLOAD PUSH3 0x461BCD PUSH1 0xE5 SHL DUP2 MSTORE PUSH1 0x20 PUSH1 0x4 DUP3 ADD MSTORE PUSH1 0x10 PUSH1 0x24 DUP3 ADD MSTORE PUSH16 0x14185D5CD8589B194E881C185D5CD959 PUSH1 0x82 SHL PUSH1 0x44 DUP3 ADD MSTORE PUSH1 0x64 ADD PUSH2 0x62A JUMP JUMPDEST PUSH1 0x7 DUP1 SLOAD PUSH1 0xFF NOT AND PUSH1 0x1 OR SWAP1 SSTORE PUSH32 0x62E78CEA01BEE320CD4E420270B5EA74000D11B0C9F74754EBDBFC544B05A258 PUSH2 0xF7B CALLER SWAP1 JUMP JUMPDEST PUSH1 0x0 PUSH2 0x914 DUP4 DUP4 PUSH2 0x163E JUMP JUMPDEST PUSH1 0x0 PUSH2 0x4FB DUP3 SLOAD SWAP1 JUMP JUMPDEST PUSH1 0x0 DUP2 DUP2 MSTORE PUSH1 0x1 DUP4 ADD PUSH1 0x20 MSTORE PUSH1 0x40 DUP2 KECCAK256 SLOAD PUSH2 0x1224 JUMPI POP DUP2 SLOAD PUSH1 0x1 DUP2 DUP2 ADD DUP5 SSTORE PUSH1 0x0 DUP5 DUP2 MSTORE PUSH1 0x20 DUP1 DUP3 KECCAK256 SWAP1 SWAP4 ADD DUP5 SWAP1 SSTORE DUP5 SLOAD DUP5 DUP3 MSTORE DUP3 DUP7 ADD SWAP1 SWAP4 MSTORE PUSH1 0x40 SWAP1 KECCAK256 SWAP2 SWAP1 SWAP2 SSTORE PUSH2 0x4FB JUMP JUMPDEST POP PUSH1 0x0 PUSH2 0x4FB JUMP JUMPDEST PUSH1 0x0 PUSH2 0x914 DUP3 DUP5 PUSH2 0x1A3C JUMP JUMPDEST PUSH1 0x0 PUSH2 0x914 DUP3 DUP5 PUSH2 0x1A5B JUMP JUMPDEST PUSH1 0x1 PUSH1 0x1 PUSH1 0xA0 SHL SUB DUP4 AND PUSH2 0x12A8 JUMPI PUSH1 0x40 MLOAD PUSH3 0x461BCD PUSH1 0xE5 SHL DUP2 MSTORE PUSH1 0x20 PUSH1 0x4 DUP3 ADD MSTORE PUSH1 0x25 PUSH1 0x24 DUP3 ADD MSTORE PUSH32 0x45524332303A207472616E736665722066726F6D20746865207A65726F206164 PUSH1 0x44 DUP3 ADD MSTORE PUSH5 0x6472657373 PUSH1 0xD8 SHL PUSH1 0x64 DUP3 ADD MSTORE PUSH1 0x84 ADD PUSH2 0x62A JUMP JUMPDEST PUSH1 0x1 PUSH1 0x1 PUSH1 0xA0 SHL SUB DUP3 AND PUSH2 0x130A JUMPI PUSH1 0x40 MLOAD PUSH3 0x461BCD PUSH1 0xE5 SHL DUP2 MSTORE PUSH1 0x20 PUSH1 0x4 DUP3 ADD MSTORE PUSH1 0x23 PUSH1 0x24 DUP3 ADD MSTORE PUSH32 0x45524332303A207472616E7366657220746F20746865207A65726F2061646472 PUSH1 0x44 DUP3 ADD MSTORE PUSH3 0x657373 PUSH1 0xE8 SHL PUSH1 0x64 DUP3 ADD MSTORE PUSH1 0x84 ADD PUSH2 0x62A JUMP JUMPDEST PUSH2 0x1315 DUP4 DUP4 DUP4 PUSH2 0x1633 JUMP JUMPDEST PUSH1 0x1 PUSH1 0x1 PUSH1 0xA0 SHL SUB DUP4 AND PUSH1 0x0 SWAP1 DUP2 MSTORE PUSH1 0x2 PUSH1 0x20 MSTORE PUSH1 0x40 SWAP1 KECCAK256 SLOAD DUP2 DUP2 LT ISZERO PUSH2 0x138D JUMPI PUSH1 0x40 MLOAD PUSH3 0x461BCD PUSH1 0xE5 SHL DUP2 MSTORE PUSH1 0x20 PUSH1 0x4 DUP3 ADD MSTORE PUSH1 0x26 PUSH1 0x24 DUP3 ADD MSTORE PUSH32 0x45524332303A207472616E7366657220616D6F756E7420657863656564732062 PUSH1 0x44 DUP3 ADD MSTORE PUSH6 0x616C616E6365 PUSH1 0xD0 SHL PUSH1 0x64 DUP3 ADD MSTORE PUSH1 0x84 ADD PUSH2 0x62A JUMP JUMPDEST PUSH1 0x1 PUSH1 0x1 PUSH1 0xA0 SHL SUB DUP1 DUP6 AND PUSH1 0x0 SWAP1 DUP2 MSTORE PUSH1 0x2 PUSH1 0x20 MSTORE PUSH1 0x40 DUP1 DUP3 KECCAK256 DUP6 DUP6 SUB SWAP1 SSTORE SWAP2 DUP6 AND DUP2 MSTORE SWAP1 DUP2 KECCAK256 DUP1 SLOAD DUP5 SWAP3 SWAP1 PUSH2 0x13C4 SWAP1 DUP5 SWAP1 PUSH2 0x1998 JUMP JUMPDEST SWAP3 POP POP DUP2 SWAP1 SSTORE POP DUP3 PUSH1 0x1 PUSH1 0x1 PUSH1 0xA0 SHL SUB AND DUP5 PUSH1 0x1 PUSH1 0x1 PUSH1 0xA0 SHL SUB AND PUSH32 0xDDF252AD1BE2C89B69C2B068FC378DAA952BA7F163C4A11628F55A4DF523B3EF DUP5 PUSH1 0x40 MLOAD PUSH2 0x1410 SWAP2 DUP2 MSTORE PUSH1 0x20 ADD SWAP1 JUMP JUMPDEST PUSH1 0x40 MLOAD DUP1 SWAP2 SUB SWAP1 LOG3 PUSH2 0xE04 JUMP JUMPDEST PUSH1 0x60 PUSH1 0x0 PUSH2 0x142C DUP4 PUSH1 0x2 PUSH2 0x1A3C JUMP JUMPDEST PUSH2 0x1437 SWAP1 PUSH1 0x2 PUSH2 0x1998 JUMP JUMPDEST PUSH8 0xFFFFFFFFFFFFFFFF DUP2 GT ISZERO PUSH2 0x144F JUMPI PUSH2 0x144F PUSH2 0x1A7D JUMP JUMPDEST PUSH1 0x40 MLOAD SWAP1 DUP1 DUP3 MSTORE DUP1 PUSH1 0x1F ADD PUSH1 0x1F NOT AND PUSH1 0x20 ADD DUP3 ADD PUSH1 0x40 MSTORE DUP1 ISZERO PUSH2 0x1479 JUMPI PUSH1 0x20 DUP3 ADD DUP2 DUP1 CALLDATASIZE DUP4 CALLDATACOPY ADD SWAP1 POP JUMPDEST POP SWAP1 POP PUSH1 0x3 PUSH1 0xFC SHL DUP2 PUSH1 0x0 DUP2 MLOAD DUP2 LT PUSH2 0x1494 JUMPI PUSH2 0x1494 PUSH2 0x1A93 JUMP JUMPDEST PUSH1 0x20 ADD ADD SWAP1 PUSH1 0x1 PUSH1 0x1 PUSH1 0xF8 SHL SUB NOT AND SWAP1 DUP2 PUSH1 0x0 BYTE SWAP1 MSTORE8 POP PUSH1 0xF PUSH1 0xFB SHL DUP2 PUSH1 0x1 DUP2 MLOAD DUP2 LT PUSH2 0x14C3 JUMPI PUSH2 0x14C3 PUSH2 0x1A93 JUMP JUMPDEST PUSH1 0x20 ADD ADD SWAP1 PUSH1 0x1 PUSH1 0x1 PUSH1 0xF8 SHL SUB NOT AND SWAP1 DUP2 PUSH1 0x0 BYTE SWAP1 MSTORE8 POP PUSH1 0x0 PUSH2 0x14E7 DUP5 PUSH1 0x2 PUSH2 0x1A3C JUMP JUMPDEST PUSH2 0x14F2 SWAP1 PUSH1 0x1 PUSH2 0x1998 JUMP JUMPDEST SWAP1 POP JUMPDEST PUSH1 0x1 DUP2 GT ISZERO PUSH2 0x156A JUMPI PUSH16 0x181899199A1A9B1B9C1CB0B131B232B3 PUSH1 0x81 SHL DUP6 PUSH1 0xF AND PUSH1 0x10 DUP2 LT PUSH2 0x1526 JUMPI PUSH2 0x1526 PUSH2 0x1A93 JUMP JUMPDEST BYTE PUSH1 0xF8 SHL DUP3 DUP3 DUP2 MLOAD DUP2 LT PUSH2 0x153C JUMPI PUSH2 0x153C PUSH2 0x1A93 JUMP JUMPDEST PUSH1 0x20 ADD ADD SWAP1 PUSH1 0x1 PUSH1 0x1 PUSH1 0xF8 SHL SUB NOT AND SWAP1 DUP2 PUSH1 0x0 BYTE SWAP1 MSTORE8 POP PUSH1 0x4 SWAP5 SWAP1 SWAP5 SHR SWAP4 PUSH2 0x1563 DUP2 PUSH2 0x1AA9 JUMP JUMPDEST SWAP1 POP PUSH2 0x14F5 JUMP JUMPDEST POP DUP4 ISZERO PUSH2 0x914 JUMPI PUSH1 0x40 MLOAD PUSH3 0x461BCD PUSH1 0xE5 SHL DUP2 MSTORE PUSH1 0x20 PUSH1 0x4 DUP3 ADD DUP2 SWAP1 MSTORE PUSH1 0x24 DUP3 ADD MSTORE PUSH32 0x537472696E67733A20686578206C656E67746820696E73756666696369656E74 PUSH1 0x44 DUP3 ADD MSTORE PUSH1 0x64 ADD PUSH2 0x62A JUMP JUMPDEST PUSH2 0x15C3 DUP3 DUP3 PUSH2 0x91B JUMP JUMPDEST ISZERO PUSH2 0x729 JUMPI PUSH1 0x0 DUP3 DUP2 MSTORE PUSH1 0x20 DUP2 DUP2 MSTORE PUSH1 0x40 DUP1 DUP4 KECCAK256 PUSH1 0x1 PUSH1 0x1 PUSH1 0xA0 SHL SUB DUP6 AND DUP1 DUP6 MSTORE SWAP3 MSTORE DUP1 DUP4 KECCAK256 DUP1 SLOAD PUSH1 0xFF NOT AND SWAP1 SSTORE MLOAD CALLER SWAP3 DUP6 SWAP2 PUSH32 0xF6391F5C32D9C69D2A47EA670B442974B53935D1EDC7FD64EB21E047A839171B SWAP2 SWAP1 LOG4 POP POP JUMP JUMPDEST PUSH1 0x0 PUSH2 0x914 DUP4 PUSH1 0x1 PUSH1 0x1 PUSH1 0xA0 SHL SUB DUP5 AND PUSH2 0x1668 JUMP JUMPDEST PUSH2 0x5F5 DUP4 DUP4 DUP4 PUSH2 0xBB9 JUMP JUMPDEST PUSH1 0x0 DUP3 PUSH1 0x0 ADD DUP3 DUP2 SLOAD DUP2 LT PUSH2 0x1655 JUMPI PUSH2 0x1655 PUSH2 0x1A93 JUMP JUMPDEST SWAP1 PUSH1 0x0 MSTORE PUSH1 0x20 PUSH1 0x0 KECCAK256 ADD SLOAD SWAP1 POP SWAP3 SWAP2 POP POP JUMP JUMPDEST PUSH1 0x0 DUP2 DUP2 MSTORE PUSH1 0x1 DUP4 ADD PUSH1 0x20 MSTORE PUSH1 0x40 DUP2 KECCAK256 SLOAD DUP1 ISZERO PUSH2 0x1751 JUMPI PUSH1 0x0 PUSH2 0x168C PUSH1 0x1 DUP4 PUSH2 0x19B0 JUMP JUMPDEST DUP6 SLOAD SWAP1 SWAP2 POP PUSH1 0x0 SWAP1 PUSH2 0x16A0 SWAP1 PUSH1 0x1 SWAP1 PUSH2 0x19B0 JUMP JUMPDEST SWAP1 POP DUP2 DUP2 EQ PUSH2 0x1705 JUMPI PUSH1 0x0 DUP7 PUSH1 0x0 ADD DUP3 DUP2 SLOAD DUP2 LT PUSH2 0x16C0 JUMPI PUSH2 0x16C0 PUSH2 0x1A93 JUMP JUMPDEST SWAP1 PUSH1 0x0 MSTORE PUSH1 0x20 PUSH1 0x0 KECCAK256 ADD SLOAD SWAP1 POP DUP1 DUP8 PUSH1 0x0 ADD DUP5 DUP2 SLOAD DUP2 LT PUSH2 0x16E3 JUMPI PUSH2 0x16E3 PUSH2 0x1A93 JUMP JUMPDEST PUSH1 0x0 SWAP2 DUP3 MSTORE PUSH1 0x20 DUP1 DUP4 KECCAK256 SWAP1 SWAP2 ADD SWAP3 SWAP1 SWAP3 SSTORE SWAP2 DUP3 MSTORE PUSH1 0x1 DUP9 ADD SWAP1 MSTORE PUSH1 0x40 SWAP1 KECCAK256 DUP4 SWAP1 SSTORE JUMPDEST DUP6 SLOAD DUP7 SWAP1 DUP1 PUSH2 0x1716 JUMPI PUSH2 0x1716 PUSH2 0x1AC0 JUMP JUMPDEST PUSH1 0x1 SWAP1 SUB DUP2 DUP2 SWAP1 PUSH1 0x0 MSTORE PUSH1 0x20 PUSH1 0x0 KECCAK256 ADD PUSH1 0x0 SWAP1 SSTORE SWAP1 SSTORE DUP6 PUSH1 0x1 ADD PUSH1 0x0 DUP7 DUP2 MSTORE PUSH1 0x20 ADD SWAP1 DUP2 MSTORE PUSH1 0x20 ADD PUSH1 0x0 KECCAK256 PUSH1 0x0 SWAP1 SSTORE PUSH1 0x1 SWAP4 POP POP POP POP PUSH2 0x4FB JUMP JUMPDEST PUSH1 0x0 SWAP2 POP POP PUSH2 0x4FB JUMP JUMPDEST PUSH1 0x0 PUSH1 0x20 DUP3 DUP5 SUB SLT ISZERO PUSH2 0x176D JUMPI PUSH1 0x0 DUP1 REVERT JUMPDEST DUP2 CALLDATALOAD PUSH1 0x1 PUSH1 0x1 PUSH1 0xE0 SHL SUB NOT DUP2 AND DUP2 EQ PUSH2 0x914 JUMPI PUSH1 0x0 DUP1 REVERT JUMPDEST PUSH1 0x0 JUMPDEST DUP4 DUP2 LT ISZERO PUSH2 0x17A0 JUMPI DUP2 DUP2 ADD MLOAD DUP4 DUP3 ADD MSTORE PUSH1 0x20 ADD PUSH2 0x1788 JUMP JUMPDEST DUP4 DUP2 GT ISZERO PUSH2 0xE04 JUMPI POP POP PUSH1 0x0 SWAP2 ADD MSTORE JUMP JUMPDEST PUSH1 0x20 DUP2 MSTORE PUSH1 0x0 DUP3 MLOAD DUP1 PUSH1 0x20 DUP5 ADD MSTORE PUSH2 0x17D0 DUP2 PUSH1 0x40 DUP6 ADD PUSH1 0x20 DUP8 ADD PUSH2 0x1785 JUMP JUMPDEST PUSH1 0x1F ADD PUSH1 0x1F NOT AND SWAP2 SWAP1 SWAP2 ADD PUSH1 0x40 ADD SWAP3 SWAP2 POP POP JUMP JUMPDEST DUP1 CALLDATALOAD PUSH1 0x1 PUSH1 0x1 PUSH1 0xA0 SHL SUB DUP2 AND DUP2 EQ PUSH2 0x17FB JUMPI PUSH1 0x0 DUP1 REVERT JUMPDEST SWAP2 SWAP1 POP JUMP JUMPDEST PUSH1 0x0 DUP1 PUSH1 0x40 DUP4 DUP6 SUB SLT ISZERO PUSH2 0x1813 JUMPI PUSH1 0x0 DUP1 REVERT JUMPDEST PUSH2 0x181C DUP4 PUSH2 0x17E4 JUMP JUMPDEST SWAP5 PUSH1 0x20 SWAP4 SWAP1 SWAP4 ADD CALLDATALOAD SWAP4 POP POP POP JUMP JUMPDEST PUSH1 0x0 DUP1 PUSH1 0x0 PUSH1 0x60 DUP5 DUP7 SUB SLT ISZERO PUSH2 0x183F JUMPI PUSH1 0x0 DUP1 REVERT JUMPDEST PUSH2 0x1848 DUP5 PUSH2 0x17E4 JUMP JUMPDEST SWAP3 POP PUSH2 0x1856 PUSH1 0x20 DUP6 ADD PUSH2 0x17E4 JUMP JUMPDEST SWAP2 POP PUSH1 0x40 DUP5 ADD CALLDATALOAD SWAP1 POP SWAP3 POP SWAP3 POP SWAP3 JUMP JUMPDEST PUSH1 0x0 PUSH1 0x20 DUP3 DUP5 SUB SLT ISZERO PUSH2 0x1878 JUMPI PUSH1 0x0 DUP1 REVERT JUMPDEST POP CALLDATALOAD SWAP2 SWAP1 POP JUMP JUMPDEST PUSH1 0x0 DUP1 PUSH1 0x40 DUP4 DUP6 SUB SLT ISZERO PUSH2 0x1892 JUMPI PUSH1 0x0 DUP1 REVERT JUMPDEST DUP3 CALLDATALOAD SWAP2 POP PUSH2 0x18A2 PUSH1 0x20 DUP5 ADD PUSH2 0x17E4 JUMP JUMPDEST SWAP1 POP SWAP3 POP SWAP3 SWAP1 POP JUMP JUMPDEST PUSH1 0x0 PUSH1 0x20 DUP3 DUP5 SUB SLT ISZERO PUSH2 0x18BD JUMPI PUSH1 0x0 DUP1 REVERT JUMPDEST PUSH2 0x914 DUP3 PUSH2 0x17E4 JUMP JUMPDEST PUSH1 0x0 DUP1 PUSH1 0x40 DUP4 DUP6 SUB SLT ISZERO PUSH2 0x18D9 JUMPI PUSH1 0x0 DUP1 REVERT JUMPDEST POP POP DUP1 CALLDATALOAD SWAP3 PUSH1 0x20 SWAP1 SWAP2 ADD CALLDATALOAD SWAP2 POP JUMP JUMPDEST PUSH1 0x0 DUP1 PUSH1 0x40 DUP4 DUP6 SUB SLT ISZERO PUSH2 0x18FB JUMPI PUSH1 0x0 DUP1 REVERT JUMPDEST PUSH2 0x1904 DUP4 PUSH2 0x17E4 JUMP JUMPDEST SWAP2 POP PUSH2 0x18A2 PUSH1 0x20 DUP5 ADD PUSH2 0x17E4 JUMP JUMPDEST PUSH1 0x1 DUP2 DUP2 SHR SWAP1 DUP3 AND DUP1 PUSH2 0x1926 JUMPI PUSH1 0x7F DUP3 AND SWAP2 POP JUMPDEST PUSH1 0x20 DUP3 LT DUP2 EQ ISZERO PUSH2 0x1947 JUMPI PUSH4 0x4E487B71 PUSH1 0xE0 SHL PUSH1 0x0 MSTORE PUSH1 0x22 PUSH1 0x4 MSTORE PUSH1 0x24 PUSH1 0x0 REVERT JUMPDEST POP SWAP2 SWAP1 POP JUMP JUMPDEST PUSH1 0x20 DUP1 DUP3 MSTORE DUP2 DUP2 ADD MSTORE PUSH32 0x4F776E61626C653A2063616C6C6572206973206E6F7420746865206F776E6572 PUSH1 0x40 DUP3 ADD MSTORE PUSH1 0x60 ADD SWAP1 JUMP JUMPDEST PUSH4 0x4E487B71 PUSH1 0xE0 SHL PUSH1 0x0 MSTORE PUSH1 0x11 PUSH1 0x4 MSTORE PUSH1 0x24 PUSH1 0x0 REVERT JUMPDEST PUSH1 0x0 DUP3 NOT DUP3 GT ISZERO PUSH2 0x19AB JUMPI PUSH2 0x19AB PUSH2 0x1982 JUMP JUMPDEST POP ADD SWAP1 JUMP JUMPDEST PUSH1 0x0 DUP3 DUP3 LT ISZERO PUSH2 0x19C2 JUMPI PUSH2 0x19C2 PUSH2 0x1982 JUMP JUMPDEST POP SUB SWAP1 JUMP JUMPDEST PUSH32 0x416363657373436F6E74726F6C3A206163636F756E7420000000000000000000 DUP2 MSTORE PUSH1 0x0 DUP4 MLOAD PUSH2 0x19FF DUP2 PUSH1 0x17 DUP6 ADD PUSH1 0x20 DUP9 ADD PUSH2 0x1785 JUMP JUMPDEST PUSH17 0x1034B99036B4B9B9B4B733903937B6329 PUSH1 0x7D SHL PUSH1 0x17 SWAP2 DUP5 ADD SWAP2 DUP3 ADD MSTORE DUP4 MLOAD PUSH2 0x1A30 DUP2 PUSH1 0x28 DUP5 ADD PUSH1 0x20 DUP9 ADD PUSH2 0x1785 JUMP JUMPDEST ADD PUSH1 0x28 ADD SWAP5 SWAP4 POP POP POP POP JUMP JUMPDEST PUSH1 0x0 DUP2 PUSH1 0x0 NOT DIV DUP4 GT DUP3 ISZERO ISZERO AND ISZERO PUSH2 0x1A56 JUMPI PUSH2 0x1A56 PUSH2 0x1982 JUMP JUMPDEST POP MUL SWAP1 JUMP JUMPDEST PUSH1 0x0 DUP3 PUSH2 0x1A78 JUMPI PUSH4 0x4E487B71 PUSH1 0xE0 SHL PUSH1 0x0 MSTORE PUSH1 0x12 PUSH1 0x4 MSTORE PUSH1 0x24 PUSH1 0x0 REVERT JUMPDEST POP DIV SWAP1 JUMP JUMPDEST PUSH4 0x4E487B71 PUSH1 0xE0 SHL PUSH1 0x0 MSTORE PUSH1 0x41 PUSH1 0x4 MSTORE PUSH1 0x24 PUSH1 0x0 REVERT JUMPDEST PUSH4 0x4E487B71 PUSH1 0xE0 SHL PUSH1 0x0 MSTORE PUSH1 0x32 PUSH1 0x4 MSTORE PUSH1 0x24 PUSH1 0x0 REVERT JUMPDEST PUSH1 0x0 DUP2 PUSH2 0x1AB8 JUMPI PUSH2 0x1AB8 PUSH2 0x1982 JUMP JUMPDEST POP PUSH1 0x0 NOT ADD SWAP1 JUMP JUMPDEST PUSH4 0x4E487B71 PUSH1 0xE0 SHL PUSH1 0x0 MSTORE PUSH1 0x31 PUSH1 0x4 MSTORE PUSH1 0x24 PUSH1 0x0 REVERT INVALID LOG2 PUSH5 0x6970667358 0x22 SLT KECCAK256 0xA5 0xF9 0xF9 CALL JUMP 0xAA 0xF8 SWAP4 0xAE 0x21 DELEGATECALL 0xBD DIFFICULTY 0xAA CHAINID DUP7 0x2B PUSH1 0xD 0xE5 PUSH17 0x43C87F489E10282AC0AE3864736F6C6343 STOP ADDMOD SIGNEXTEND STOP CALLER "
				},
				"gasEstimates": {
					"creation": {
						"codeDepositCost": "1384800",
						"executionCost": "infinite",
						"totalCost": "infinite"
					},
					"external": {
						"DEFAULT_ADMIN_ROLE()": "240",
						"MINTER_ROLE()": "239",
						"PAUSER_ROLE()": "305",
						"allowance(address,address)": "infinite",
						"approve(address,uint256)": "24681",
						"balanceOf(address)": "2626",
						"burn(uint256)": "infinite",
						"burnFrom(address,uint256)": "infinite",
						"decimals()": "289",
						"decreaseAllowance(address,uint256)": "26956",
						"getOwner()": "2421",
						"getRoleAdmin(bytes32)": "2515",
						"getRoleMember(bytes32,uint256)": "infinite",
						"getRoleMemberCount(bytes32)": "infinite",
						"grantRole(bytes32,address)": "infinite",
						"hasRole(bytes32,address)": "2718",
						"increaseAllowance(address,uint256)": "27024",
						"name()": "infinite",
						"owner()": "2454",
						"pause()": "29992",
						"paused()": "2360",
						"renounceOwnership()": "28261",
						"renounceRole(bytes32,address)": "infinite",
						"revokeRole(bytes32,address)": "infinite",
						"setLiquidityFee(uint256)": "24550",
						"setLiquidityKeeper(address)": "26836",
						"supportsInterface(bytes4)": "infinite",
						"symbol()": "infinite",
						"totalSupply()": "2394",
						"transfer(address,uint256)": "infinite",
						"transferFrom(address,address,uint256)": "infinite",
						"transferOwnership(address)": "28477",
						"unpause()": "30013"
					},
					"internal": {
						"_beforeTokenTransfer(address,address,uint256)": "infinite",
						"_transfer(address,address,uint256)": "infinite"
					}
				},
				"methodIdentifiers": {
					"DEFAULT_ADMIN_ROLE()": "a217fddf",
					"MINTER_ROLE()": "d5391393",
					"PAUSER_ROLE()": "e63ab1e9",
					"allowance(address,address)": "dd62ed3e",
					"approve(address,uint256)": "095ea7b3",
					"balanceOf(address)": "70a08231",
					"burn(uint256)": "42966c68",
					"burnFrom(address,uint256)": "79cc6790",
					"decimals()": "313ce567",
					"decreaseAllowance(address,uint256)": "a457c2d7",
					"getOwner()": "893d20e8",
					"getRoleAdmin(bytes32)": "248a9ca3",
					"getRoleMember(bytes32,uint256)": "9010d07c",
					"getRoleMemberCount(bytes32)": "ca15c873",
					"grantRole(bytes32,address)": "2f2ff15d",
					"hasRole(bytes32,address)": "91d14854",
					"increaseAllowance(address,uint256)": "39509351",
					"name()": "06fdde03",
					"owner()": "8da5cb5b",
					"pause()": "8456cb59",
					"paused()": "5c975abb",
					"renounceOwnership()": "715018a6",
					"renounceRole(bytes32,address)": "36568abe",
					"revokeRole(bytes32,address)": "d547741f",
					"setLiquidityFee(uint256)": "357bf15c",
					"setLiquidityKeeper(address)": "a128471f",
					"supportsInterface(bytes4)": "01ffc9a7",
					"symbol()": "95d89b41",
					"totalSupply()": "18160ddd",
					"transfer(address,uint256)": "a9059cbb",
					"transferFrom(address,address,uint256)": "23b872dd",
					"transferOwnership(address)": "f2fde38b",
					"unpause()": "3f4ba83a"
				}
			},
			"userdoc": {
				"kind": "user",
				"methods": {},
				"version": 1
			}
		}
	}
}